:1000000080C50020756D0000A11E0200496C000033
:10001000496C0000496C0000496C0000496C00000C
:10002000496C0000496C0000496C0000E16A000066
:10003000496C0000496C00008D6A0000831E0200BC
:10004000356D0000E5440200356D0000356D00009F
:10005000356D0000356D0000356D0000356D000018
:10006000356D0000356D0000356D0000356D000008
:10007000356D0000356D0000356D0000356D0000F8
:10008000356D0000356D0000356D0000356D0000E8
:10009000356D0000356D0000356D0000356D0000D8
:1000A000356D0000356D0000356D0000356D0000C8
:1000B000356D0000356D0000356D0000356D0000B8
:1000C000356D0000356D0000356D0000356D0000A8
:0C00D000356D0000356D0000356D00003E
:0400DC00FFFFFFFF24
:1000E00001F0FF01102A2BDB10F0070F08D010F8E9
:1000F000013B013A8B422DD010F0070F42B3F6D1ED
:10010000F0B441EA012141EA014122F007047FF005
:1001100000070023F0E80256083C85EA010586EA5C
:10012000010685FA47F5A3FA87F586FA47F6A5FA98
:1001300087F68EB9EED1F0BC01F0FF0102F00702A4
:1001400032B110F8013B013A83EA010313B1F8D14F
:100150000020704701387047002D06BF3546033830
:10016000073815F0010F07D1013015F4807F02BF69
:10017000013015F4C03F0130F0BC0138704700BFBA
:1001800053B94AB9002908BF00281CBF4FF0FF31FE
:100190004FF0FF3000F00CB8ADF1080C6DE904CE63
:1001A00001F0BCFBDDF804E0DDE9022304B0704798
:1001B000704700BF1FB51C46094B1B680546D86831
:1001C00052B1084B0091CDE9013207492B46224636
:1001D00000F021F801F095FD044B1A46F2E700BF4C
:1001E00048E200204DD906005AD90600F520060045
:1001F00008B513460022FFF7DDFF00BF0CB407B5BA
:1002000004AB53F8042B019300F0F0F803B05DF851
:1002100004EB02B070470EB403B5014603AB0648C9
:1002200053F8042B0068019300F0E0F802B05DF889
:1002300004EB03B0704700BF48E2002038B5054624
:10024000002945D051F8043C0C1F002BB8BFE4181E
:1002500001F0B2FD1F4A1368104633B963601460A1
:100260002846BDE8384001F0A8BDA3420CD921685A
:100270006218934204BF1A685B68636004BF521837
:1002800022600460ECE713465A680AB1A242FAD928
:1002900019685818A0420BD12068014458188242AE
:1002A0001960DDD1106852685A6001441960D7E7BF
:1002B00002D90C232B60D3E7206821188A4204BF9F
:1002C00011685268626004BF091821605C60C7E76A
:1002D00038BD00BF00000020F8B5CE1C26F0030694
:1002E00008360C2E38BF0C26002E074601DBB14223
:1002F00003D90C233B600020F8BD214D01F05CFDCB
:100300002A68144694B96B6823B92146384600F030
:10031000F9FA68603146384600F0F4FA431C23D1FC
:100320000C233B60384601F048FDE4E723689B1B43
:1003300017D40B2B03D923601C44266004E06368A8
:10034000A2420CBF2B605360384601F036FD04F129
:100350000B00231D20F00700C21ACDD01B1AA3509A
:10036000CAE722466468CDE7C41C24F00304A04217
:10037000E3D0211A384600F0C5FA0130DDD1CFE7CD
:10038000000000209368013B002B10B4936007DA53
:100390009469A34201DB0A2902D110BC00F008BC19
:1003A0001368581C10601970084610BC7047F8B5E7
:1003B00006460F461446D518AC4201D1002007E08E
:1003C0003A4614F8011B3046FFF7DCFF431CF3D11B
:1003D000F8BD38B593681446002513B95360184624
:1003E00038BD00F0FDFDC4E90155F9E72DE9F04FF6
:1003F0000E469DB014461D46074618B1836B0BB9D7
:1004000000F090FDB389180756D53369002B53D0FF
:100410000023099320238DF82930DFF8AC91039550
:1004200030238DF82A304FF0010A23461D4613F879
:10043000012B0AB1252AF9D1B5EB040B0BD05B4691
:10044000224631463846FFF7B2FF013000F0AE8059
:10045000099B5B4409932B78002B00F0A7800023B5
:100460004FF0FF32CDE905230135049307938DF852
:1004700053301A932C46052214F8011B5248FFF7FB
:100480002FFE049B18BBD90644BF20228DF85320B1
:100490001A0744BF2B228DF853202A782A2A1ED00F
:1004A000079A2C4600200A25214611F8013B303BD3
:1004B000092B56D9C8B91FE03146384600F0BEFBBB
:1004C0000028A5D04FF0FF301DB0BDE8F08FA0EBA5
:1004D00009000AFA00F0184304902546CAE7039A77
:1004E000111D12680391002A01DB079204E05242B9
:1004F00043F002030792049323782E2B0CD16378E8
:100500002A2B33D1039B1A1D1B680392002BB8BF03
:100510004FF0FF33023405932C4D217803222846F7
:10052000FFF7DEFD38B14023401B03FA00F0049BC7
:1005300003430134049314F8011B25488DF8281057
:100540000622FFF7CDFD002835D0224B13BB039BBD
:10055000073323F0070308330393099B43440993AC
:1005600063E705FB023201200C469DE700230134BE
:10057000059319460A25204610F8012B303A092A1E
:1005800003D9002BC8D00591C6E705FB0121012343
:100590000446F0E703AB009332460F4B04A93846FC
:1005A000AFF30080B0F1FF3F8046D6D1B3895B0640
:1005B00088D4099888E703AB00933246064B04A918
:1005C000384600F08AF8EDE789D906008FD9060091
:1005D00093D9060000000000AF03000013460A464E
:1005E000014602480068FFF701BF00BF48E2002053
:1005F0002DE9F04791461F468A680B69DDF8208097
:100600009342B8BF1346C9F8003091F8432006461C
:100610000C4612B10133C9F800302368990642BF75
:10062000D9F800300233C9F80030256815F0060506
:1006300007D104F1190AE368D9F800209B1AAB42EC
:1006400028DC94F843302268003318BF0123920657
:100650002DD404F1430239463046C047013020D042
:100660002368E568D9F8002003F00603042B08BFCF
:10067000AD1AA36822690CBF25EAE57500259342EF
:10068000C4BF9B1AED184FF000091A344D451AD11A
:10069000002008E00123524639463046C047013069
:1006A00003D14FF0FF30BDE8F0870135C3E7E11813
:1006B0005A1C302081F84300224494F8451082F8F7
:1006C00043100233C5E70123224639463046C0476E
:1006D0000130E6D009F10109D8E72DE9F0430646DB
:1006E0000C4601F14300097E85B06E2998461746F5
:1006F0000C9B00F0BA8024D8632939D00AD800298D
:1007000000F0C380582900F0918004F1420584F87C
:10071000421035E0642901D06929F6D125681A68AC
:1007200015F0800F02F104012CD012681960002A24
:1007300003DA2D23524284F84330DFF8C0C10A2384
:100740003FE0732900F0A58008D86F2921D07029D7
:10075000DBD1226842F02002226003E0752918D024
:100760007829D2D1782284F84520DFF894C161E05D
:100770001A68111D1960136884F8423004F14205AB
:10078000012393E01268196015F0400F18BF12B2F0
:10079000CDE7D4F800C01A681CF0800F02F1040500
:1007A0001D6001D0126803E01CF0400FFAD01288DF
:1007B000DFF848C16F290CBF08230A23002184F801
:1007C00043106568A560002DA2BF216821F00401D7
:1007D00021600AB9002D46D00546B2FBF3F103FBB8
:1007E000112E93421CF80EE005F801ED39D9082BC3
:1007F0000BD12368DA0708D5236962689A42DEBF05
:10080000302305F8013C05F1FF35401B2061CDF890
:1008100000803B4603AA21463046FFF7E9FE01303F
:1008200049D14FF0FF3005B0BDE8F083DFF8CCC010
:1008300084F845101D68216855F8042B1D600D06CD
:100840000BD5CD0744BF41F0200121601AB92368C0
:1008500023F0200323601023B0E74B0648BF92B279
:10086000EFE70A46B9E70546C1E71A68D4F800C0C1
:100870006169151D1D601CF0800F136801D019609F
:1008800003E01CF0400FFAD01980002323610546D5
:10089000BDE71A68111D19601568626800212846B5
:1008A000FFF71EFC08B1401B6060636823610023F2
:1008B00084F84330ABE723692A4639463046C047BF
:1008C0000130AED023689B0713D4E068039B9842A5
:1008D000B8BF1846A7E701234A4639463046C04705
:1008E00001309ED00135E368039A9B1AAB42F2DCDB
:1008F000EBE7002504F11909F5E700BF9AD90600D6
:10090000ABD9060038B5064C0023054608462360DF
:1009100006F02AFE431C02D1236803B12B6038BDC8
:10092000E8AB002008B430B5141E9AB0054608DACA
:100930008B2303604FF0FF301AB0BDE8304001B0A8
:1009400070474FF40273ADF8103014BF04F1FF3359
:100950002346039306934FF6FF7301910591ADF87B
:1009600012301D9A1EAB01A9009300F0C8FD431C74
:10097000BCBF8B232B60002CDED0019B00221A70A1
:10098000DAE70CB430B5174B0C1E9BB01D6808DAC3
:100990008B232B604FF0FF301BB0BDE8304002B01E
:1009A00070474FF40273ADF8103014BF04F1FF33F9
:1009B0002346039306934FF6FF7301900590ADF81D
:1009C00012301E9A1FAB01A92846009300F097FD34
:1009D000431CBCBF8B232B60002CDDD0019B00226D
:1009E0001A70D9E748E200202DE9F047394F8646D2
:1009F0000846054615F8014BE65D16F0080634D1A9
:100A00002D2C34D12C784FF00108851C002B5CD0A4
:100A1000102B09D1302C07D1287800F0DF0058289E
:100A20004ED16C7810230235B8F1000F14BF4FF08F
:100A3000004C6FF0004C0027BCFBF3F9384603FB79
:100A400019CAA4F13006092E18D83446A34224DD71
:100A50007E1C07D081451DD301D1A2451ADB00FBC6
:100A60000340012715F8014BEBE72846C1E72B2C83
:100A700008BF2C78B04608BF851CC7E7A4F1410623
:100A8000192E01D8373CE1E7A4F16106192E04D8EC
:100A9000573CDBE74FF0FF37E4E77B1C06D122230E
:100AA000CEF80030604642B9BDE8F087B8F1000FDB
:100AB00000D04042002AF7D007B1691E1160F3E769
:100AC0003024002BB0D10823AEE7302CA4D00A2369
:100AD000AAE700BF7987020086E713460A46014667
:100AE0000148006880E700BF48E2002013460A463C
:100AF00001460148006877E748E2002030B5141E3F
:100B000005469BB0184605DA8B232B604FF0FF306B
:100B10001BB030BD4FF40273ADF8103014BF04F1B8
:100B2000FF332346039306934FF6FF73019105911C
:100B3000ADF8123002461E9B01A9284600F0DFFCEA
:100B4000431CBCBF8B232B60002CE1D0019B0022F7
:100B50001A70DDE707B5009313460A4601460348BD
:100B60000068FFF7CBFF03B05DF804FB48E200200C
:100B700000B59BB0019105916FF000410691039182
:100B80000549049101A900F0BAFC019B00221A70EA
:100B90001BB05DF804FB00BF0802FFFF13460A46C6
:100BA000014602480068FFF7E3BF00BF48E20020AB
:100BB000F8B50D461446064618B1836B0BB900F024
:100BC000B1F9A369A360A3891A0725D523691BB3CB
:100BD00023692068C01A6369EDB283422F4604DCA2
:100BE0002146304600F034F9E0B9A368013BA36028
:100BF00023685A1C22601D7063690130834204D04F
:100C0000A389DB0706D50A2D04D12146304600F022
:100C10001FF938B93846F8BD2146304600F00EF8C5
:100C20000028D5D04FF0FF37F4E7034B0A460146C2
:100C30001868FFF7BDBF00BF48E2002038B52A4B57
:100C4000054618680C4618B1836B0BB900F06AF9B9
:100C5000B4F90C309AB2110722D4D00607D4092275
:100C60002A6043F04003A3814FF0FF3034E0510786
:100C700012D5216B41B104F14003994202D02846BC
:100C8000FFF7DCFA00232363A38923F02403A38165
:100C90000023636023692360A38943F00803A381D1
:100CA00023694BB9A38903F42073B3F5007F03D004
:100CB0002146284600F00FFBA28912F001030CD058
:100CC0000023A36063695B42A361236953B9B4F94C
:100CD0000C3013F08000C4D138BD920758BF63694F
:100CE000A360F2E70020F7E748E2002000B5104BD0
:100CF0008DB06A4603F128061546186859681446EF
:100D000003C40833B3422246F7D118689B88A380F6
:100D10002060284600F0C8FF29460246022021F044
:100D2000D7F8062000F061FD7F2006F015FC00BF1B
:100D3000BCD90600B1F90C2093B22DE9F04105466B
:100D400018070C465FD44B6842F40062002B8A817E
:100D500005DCCB6B002B02DC0020BDE8F081A66A2D
:100D6000002EF9D0002312F480522F682B6036D069
:100D7000206DA3895A0705D56368C01A236B0BB190
:100D8000E36BC01A00230246A66AE1692846B04711
:100D9000431CA38906D129681D2930D82B4ACA4093
:100DA000D6072CD523F400631BB200226260D9045D
:100DB0002269A381226004D5421C01D12B6803B9AA
:100DC0002065216B2F600029C6D004F140039942B1
:100DD00002D02846FFF732FA00202063BDE7E16920
:100DE00001232846B047411CC3D12B68002BC0D03B
:100DF0001D2B01D0162B01D12F60ADE7A38943F045
:100E00004003A381A9E70F69002FA5D09B070E68B7
:100E100008BF4B690F6018BF0023A6EB07088B6063
:100E2000B8F1000F98DD43463A46E169666A284604
:100E3000B047002806DCA38943F04003A3814FF0AC
:100E4000FF308AE70744A8EB0008E9E701004020EB
:100E500038B50D46044618B1836B0BB900F062F843
:100E6000B5F90C0028B129462046BDE83840FFF707
:100E700061BF38BD014620B9044B0549186800F030
:100E800063BF044B1868FFF7E3BF00BF3087020061
:100E9000510E000048E20020002310B50446C0E9CE
:100EA0000033836081810366C281C0E904338361BA
:100EB00019460822583000F0BAFE054B2362054B54
:100EC0006362054BA362054BE461E36210BD00BFA2
:100ED000091E00002F1E0000671E00008B1E000070
:100EE000014900F031BF00BF510E000070B54A1E2D
:100EF000642555430E4605F17001FFF7EDF90446F0
:100F000040B10021C0E900160C30A06005F1640278
:100F100000F08DFE204670BD014B1868FFF7E0BF62
:100F200030870200826B10B50446D2B90D4BC36303
:100F30000323C0F8503100F5AC73C0F85431C0F849
:100F40004C2104214068FFF7A7FF01220921A06876
:100F5000FFF7A2FF02221221E068FFF79DFF0123A5
:100F6000A36310BDE10E0000F8B51B4B1E68B36B08
:100F7000074613B93046FFF7D5FF06F5A676D6E942
:100F80000134013B03D53368DBB13668F7E7B4F9C8
:100F90000C50A5B9114B2566C4E90055A560C4E9FC
:100FA0000335C4E905550822294604F1580000F02C
:100FB0003EFEC4E90C55C4E911552046F8BD643421
:100FC000DFE704213846FFF791FF04463060002830
:100FD000DBD10C233B60F0E7308702000100FFFF0C
:100FE00093682DE9F74F07460C4690461BB9002041
:100FF00003B0BDE8F08F8B89180750D50B69002B23
:101000004DD0A389D8F8006013F002096CD113F019
:10101000010300F09C804846CA46CB46BBF1000F56
:1010200000F0068150B95A460A215046FFF758F899
:10103000002800F002810130A0EB0A092068216934
:101040006269D9454B4628BF5B46884240F2F8802A
:10105000A5681544AB4240F3F38051462A4600F0A0
:1010600091FE23682B44236021463846FFF7F0FEAB
:10107000002867D1B9EB050940F0FC8021463846CD
:10108000FFF7E6FE00285DD1D8F80830AA44ABEBA4
:10109000050B5D1BC8F80850002DBFD1A7E72146FE
:1010A0003846FFF7CBFD0028ABD04FF0FF309FE76D
:1010B000D6E900A90836B9F1000FF9D0D9454B4659
:1010C000524628BF5B46E169656A3846A847002852
:1010D00038DDD8F808308244A9EB0009181AC8F89E
:1010E00008000028E7D182E74FF0000AD146DFF878
:1010F0008CB1E0E7D6E9009A0836BAF1000FF9D0D2
:10110000A289A3682068910564D5534536D812F4A6
:10111000906F33D021696569A0EB010B05EB4505A4
:1011200005EBD5750BF1010353446D109D4238BF9B
:101130001D4653053ED529463846FFF7CDF848B938
:101140000C233B60A38943F04003A381ADE799469C
:101150009A46D2E75A462169019000F047FDA289DC
:10116000019B22F4906242F08002A28123616561BA
:101170005B44A5EB0B052360A5605346534528BF90
:1011800053461A4649462068019300F0FBFDA268C9
:10119000019BD21AA2602268134455462360D8F8F6
:1011A0000830A944AAEB050A5D1BC8F80850002DB9
:1011B000A3D11CE72A46384600F000FE034600286B
:1011C000D4D121693846FFF739F8A38923F0800389
:1011D000A381B5E72269824202D36269524516D9DA
:1011E000534528BF53461A4649461D4600F0CAFDDE
:1011F000A36822685B1B2A44A3602260002BCED127
:1012000021463846FFF724FE0028C8D09AE71A4B3B
:10121000656AE1699A4594BF53466FF000433846CA
:1012200093FBF2F353434A46A847051EB7DC89E710
:10123000D6E900AB00200836F0E60BF10109FDE627
:101240009A4209DC656AE169134638465246A84766
:10125000051E3FF70FAF75E71A465146019300F0A0
:1012600091FD019BA268D21AA26022681A442260F2
:101270001D46FFE6012007E7FEFFFF7F00FCFF7F22
:1012800070B50E46B1F90E10002996B014461D46F1
:1012900009DAB389002213F080002A6016D14FF4D6
:1012A0008063236015E06A4600F0F2FA0028F0DB64
:1012B000019A02F47042A2F500535A425A414FF487
:1012C00080632A604FF40060236002E040232360C3
:1012D000104616B070BD8B8973B59D0706460C4647
:1012E00007D504F14303236023610123636102B046
:1012F00070BD01AB6A46FFF7C3FF00990546304653
:10130000FEF7EAFF48B9B4F90C309A05EFD423F0A0
:10131000030343F00203A381E3E70E4BF363A389C6
:10132000206043F08003A381009B6361019B2061E7
:101330005BB1B4F90E10304600F0BCFA28B1A389B5
:1013400023F0030343F00103A381A3891D43A58177
:10135000CDE700BFE10E00002DE9F0478E689E4208
:1013600082460C469146984638D8B1F80CC01CF419
:10137000906F31D062692568096902EB42026F1AE9
:1013800002EBD272013355103B449D4238BF1D46DB
:101390001CF4806F30D02946FEF79EFF064650B9F8
:1013A0000C23CAF80030A38943F04003A3814FF017
:1013B000FF30BDE8F0873A46216900F017FCA389A9
:1013C00023F4906343F08003A381266165613E446A
:1013D000ED1B2660A5604646464500D94646324686
:1013E0004946206800F0CEFCA3689B1BA3602368DD
:1013F0001E4426600020DCE72A4600F0DFFC06469B
:101400000028E2D121695046FEF718FFC8E793682B
:101410002DE9F74F81460C461646002B5ED04FF063
:10142000000BD2F800A05F4657B3A3689F4240D399
:10143000A28912F4906F3CD025682169A5EB0108C0
:10144000656905EB450505EBD57508F101033B44DE
:101450006D109D4238BF1D46530544D52946484668
:10146000FEF73AFF88B90C23C9F80030A38943F08E
:101470004003A3810023C6E901334FF0FF302FE082
:10148000DAE900B70AF1080ACEE74246216901907D
:1014900000F0ACFBA289019B22F4906242F0800232
:1014A000A281236165614344A5EB08052360A56023
:1014B0003B46BB4228BF3B461A465946206801932B
:1014C00000F060FCA268019BD21AA260226813445B
:1014D0002360B368DF1BB760002FD1D1002070609C
:1014E00003B0BDE8F08F2A46484600F067FC03468B
:1014F0000028D6D121694846FEF7A0FEB3E72DE9C2
:10150000F04F1E468B891B069DB007460D461446BC
:101510000ED50B6963B94021FEF7DEFE2860286115
:1015200020B90C233B604FF0FF30C9E040236B61D2
:101530000023099320238DF82930DFF89C9103962E
:1015400030238DF82A304FF0010A23461E4613F847
:10155000012B0AB1252AF9D1B6EB040B0BD05B465F
:10156000224629463846FFF7F7FE013000F0A380F7
:10157000099B5B4409933378002B00F09C80002387
:101580004FF0FF32CDE905230136049307938DF820
:1015900053301A933446052214F8011B4E48FEF7C7
:1015A0009FFD049BC0B9D90644BF20228DF853206B
:1015B0001A0744BF2B228DF8532032782A2A13D0E1
:1015C000079A344600200A26214611F8013B303B99
:1015D000092B4BD970B914E0A0EB09000AFA00F00E
:1015E000184304902646D5E7039A111D126803910B
:1015F000002A01DB079204E0524243F00203079203
:10160000049323782E2B0CD163782A2B33D1039BA0
:101610001A1D1B680392002BB8BF4FF0FF33023432
:1016200005932E4E217803223046FEF759FD38B13E
:101630004023801B03FA00F0049B0343013404930E
:1016400014F8011B26488DF828100622FEF748FDE5
:10165000002838D0234B13BB039B073323F0070329
:1016600008330393099B434409936EE706FB023258
:1016700001200C46A8E700230134059319460A26E9
:10168000204610F8012B303A092A03D9002BC8D084
:101690000591C6E706FB012101230446F0E703ABF1
:1016A00000932A46104B04A93846AFF30080B0F1EE
:1016B000FF3F8046D6D1AB895B063FF534AF099832
:1016C0001DB0BDE8F08F03AB00932A46064B04A97A
:1016D0003846FFF702F8EAE789D906008FD90600F5
:1016E00093D90600000000005913000038B5D0F867
:1016F000484105465CB98021FEF7EEFDC5F848017A
:1017000038B1031F7C3043F8044F8342FBD10020E3
:1017100038BD4FF0FF30FBE71F2970B504460D467A
:10172000164604D9162303604FF0FF3008E0D0F8C6
:10173000483133B1D4F8483153F8250043F82560D7
:1017400070BDFFF7D3FF0028F4D0EDE71F2938B5AF
:1017500004460D4604D9162303604FF0FF3038BD10
:10176000D0F8482112B152F821304BB9204600F090
:101770006BF82A4601462046BDE8384000F052B8D2
:10178000012B0AD0591C03D1162303600120E6E780
:10179000002442F82540284698470020DFE71F290B
:1017A00038B504460D4602D94FF0FF3038BDD0F8A9
:1017B000483133B1D4F8482152F8253033B90120EB
:1017C000F4E7FFF793FF0028F4D0EDE7591C08D0A9
:1017D000012B08D00024284642F82540984720468F
:1017E000E4E70220E2E70320E0E7024B0146186845
:1017F000FFF7ACBF48E20020024B0A4601461868DA
:10180000FFF78ABF48E20020014B1868FFF76EBF60
:1018100048E20020024B01461868FFF7C0BF00BF36
:1018200048E2002038B5074C00230546084611461B
:10183000236020F058FB431C02D1236803B12B60C6
:1018400038BD00BFE8AB002020F04FBB38B5074CD7
:10185000054608461146002222601A4620F038FB51
:10186000431C02D1236803B12B6038BDE8AB0020D4
:1018700038B5064C002305460846236020F02CFBB3
:10188000431C02D1236803B12B6038BDE8AB0020B4
:1018900038B5074C0023054608461146236020F062
:1018A00026FB431C02D1236803B12B6038BD00BF67
:1018B000E8AB002038B5064C0023054608462360F7
:1018C00020F00FFB431C02D1236803B12B6038BD0D
:1018D000E8AB002038B5074C054608461146002203
:1018E00022601A4620F0FBFA431C02D1236803B1A0
:1018F0002B6038BDE8AB002038B5074C05460846DC
:101900001146002222601A4620F0DEFA431C02D162
:10191000236803B12B6038BDE8AB00202DE9F04F00
:10192000099F154604468E461E46002B40F0CC808B
:101930008A42B2FA82FC4CD9BCF1000F0BD0CCF138
:10194000200801FA0CFE20FA08F802FA0CF548EA21
:101950000E0E00FA0CF44FEA15491FFA85F8BEFB8B
:10196000F9FA210C09FB1AE30AFB08FB41EA0343DD
:101970009B452AD9EB180AF1FF3004D29B4502D9C6
:10198000AAF102002B44A3EB0B03A4B2B3FBF9F2C0
:1019900009FB123302FB08F844EA0344A04516D9B8
:1019A0002C1902F1FF3303D2A04501D9931E2C4418
:1019B000A4EB080443EA004027B124FA0CF4002306
:1019C0003C607B603146BDE8F08F5046DBE7134654
:1019D000EEE702B9FFDEBCF1000F2ED18B1A012613
:1019E0004FEA154EAAB2B3FBFEF8210C0EFB1833DA
:1019F00008FB02F941EA0343994561D9EB1808F164
:101A0000FF3004D2994502D9A8F102002B44A3EB80
:101A10000903A4B2B3FBFEF10EFB11334A4344EABF
:101A20000344A2424ED92C1901F1FF3303D2A24242
:101A300001D98B1E2C44A41ABCE7CCF1200E02FA6B
:101A40000CF521FA0EF901FA0CF320FA0EFE4EEA1B
:101A500003034FEA154800FA0CF4B9FBF8F11FFA3A
:101A600085FE08FB1192180C01FB0EF640EA0242BB
:101A7000964221D9AA1801F1FF3003D2964201D92A
:101A8000881E2A44921B9BB2B2FBF8F908FB19226C
:101A900009FB0EFE43EA02439E450FD9EB1809F1FC
:101AA000FF3604D29E4502D9A9F102062B44A3EBCE
:101AB0000E0346EA004693E70846E3E74E46F6E79C
:101AC0004046A4E70B46B6E78B4205D90FB1C7E9FC
:101AD00000010026304675E7B3FA83FCBCF1000F25
:101AE0000FD18B4201D3824209D8841A61EB030ED5
:101AF0000120002F6AD0C7E9004E002662E7604649
:101B0000F7E7CCF1200E03FA0CF322FA0EF521FAD6
:101B10000EF41D4301FA0CF320FA0EF10B434FEAC9
:101B2000154A00FA0CF6B4FBFAF91FFA85F80AFB1D
:101B300019401C0C09FB08F144EA0044A14202FAD6
:101B40000CF23FD92C1909F1FF3004D2A14202D97D
:101B5000A9F102002C44641A9BB2B4FBFAF90AFB07
:101B6000194409FB08F843EA044188452CD969184F
:101B700009F1FF3304D2884502D9A9F102032944AF
:101B800043EA0040A1EB0801A0FB02894945C24697
:101B90004C4602D306D1464504D2B8EB020A69EBA3
:101BA0000504013897B1B6EB0A0361EB040606FAA7
:101BB0000EFE23FA0CF34EEA030326FA0CF6C7E9ED
:101BC00000369AE74846C6E74B46D9E73E46F9E66F
:101BD00030B501390024A24201D1002005E0035DA7
:101BE00001340D5DAB42F6D0581B30BD0A44914222
:101BF00000F1FF3300D1704710B511F8014B03F825
:101C0000014F9142F9D110BD9A4208B501D9FFF7B1
:101C10006DF8814204D88B189842F8D3814202D1E2
:101C200083189942F3D3BDE80840FFF7DFBF0244B1
:101C30000346934200D1704703F8011BF9E79A422B
:101C400008B501D9FFF752F8BDE80840FFF7EFBF2C
:101C500008B417B505AB141E53F8041B019307DA3B
:101C60001A46FEF79BFF03B0BDE8104001B0704775
:101C70000A462146FEF76EFF0028F4DBA042F2D3AD
:101C8000FFF734F810F8012B11F8013B012A28BFA7
:101C90009A42F7D0D01A7047034611F8012B03F887
:101CA000012B002AF9D17047034613F8012B002AB3
:101CB000FBD1181A0138704710B56AB10139841880
:101CC00010F8013B11F8012F934203D1A04201D03B
:101CD000002BF5D1981A10BD1046FCE710B501395C
:101CE000034632B111F8014F03F8014B013A002CC1
:101CF000F7D11A440021934200D110BD03F8011B13
:101D0000F9E708B50620FFF770FD012005F024FC77
:101D10002DE9F041884600F5A674002614B9304636
:101D2000BDE8F081D4E90175013F01D52468F5E7EC
:101D3000AB89012B06D9B5F90E30013302D0284604
:101D4000C04706436435EFE72DE9F84380468946EE
:101D500000F5A674002614B93046BDE8F883D4E92E
:101D60000175013F01D52468F5E7AB89012B07D93F
:101D7000B5F90E30013303D029464046C847064323
:101D80006435EEE7884210B501EB020302D98342C5
:101D90001C4607D8421E994208D011F8014B02F8A0
:101DA000014FF8E783189A1A9A4200D110BD14F82F
:101DB000011D03F8011DF7E770477047F8B50746A6
:101DC00014460E4621B91146BDE8F840FEF784BA24
:101DD00022B9FEF733FA25462846F8BD00F059F837
:101DE000A0420FD221463846FEF776FA0546002873
:101DF000F2D031462246FFF7F9FE31463846FEF76B
:101E00001DFAE9E73546E7E710B50C46B1F90E10C3
:101E1000FFF772FD0028ABBF236DA3891B1823F4C5
:101E20008053ACBF2365A38110BD002070472DE90E
:101E3000F0411F468B89DB0505460C46164605D545
:101E400002230022B1F90E10FFF744FDA389B4F973
:101E50000E1023F48053A38132463B462846BDE84A
:101E6000F041FFF7F3BC10B50C46B1F90E10FFF7C7
:101E700031FD431CA38915BF206523F4805343F42F
:101E80008053A38118BFA38110BDB1F90E10FFF7D5
:101E9000EFBC51F8043C181F002BBCBF0B58C018F6
:101EA00070470000000000002DE9F041484DD5F8D2
:101EB000D830996811F0010186B021D101AA40F60D
:101EC000034006F051FE044600287CD1019B9B682C
:101ED0001B7893B9BFF35B8F2B4653F8702FBFF37A
:101EE0005B8F02F00502BFF35B8F53E8001F43E8EE
:101EF00000200028F9D1BFF35B8F019817F0AEF8EE
:101F000001AA002141F2030006F02EFE044600283B
:101F100059D1019A2F4E936853F8010F596803C69F
:101F2000104617F09BF8214601AA41F2010006F085
:101F30001BFE0446002846D1019883685A782A740B
:101F4000D9789A7842EA01226A821A796A74197AEF
:101F5000DA7942EA0122AA825A799B7942EA03237A
:101F6000EB8217F07BF8214601AA41F2020006F04D
:101F7000FBFD044638BB019FBA68531C4132186808
:101F80005968344603C4083393422646F7D195F87E
:101F90004230384643F0060385F8423017F05EF8C9
:101FA0002B7F59061ED401234FF0000163F3070174
:101FB000094A0A4B0A489B1ADB0863F38F111FF08A
:101FC0003CF86FF01204204606B0BDE8F08100BF77
:101FD000D8E40020F0E400204085020010860200D2
:101FE0009F2D060001AA002142F2030006F0BCFD6D
:101FF00004460028E7D1019ABD4E936853F8010FBB
:10200000596803C6104617F029F8214601AA42F282
:10201000020006F0A9FD04460028D4D1019B9B686C
:10202000B3F80120A5F8882091B229B1DA781146D9
:1020300006F10C0025F0E9FE019817F00FF82C7F4F
:1020400014F0200400F0D58095F83C301A0711D523
:1020500001AA002142F21C0006F086FD0446002879
:10206000B1D10198836853F8012F5B68C5E920233B
:1020700016F0F4FF95F878309B0600F1D68095F8BD
:1020800078305F0600F1FD80082142F2010006F081
:10209000F5FB0446002800F0B3800821084422F034
:1020A0009BFE95F8781011F0400F40F2022308BF14
:1020B00003238E074CBF43F02C0343F00C0302466E
:1020C000880695F8790048BF43F0400310F0090FE7
:1020D00018BF43F40063C90795F8421001F00601E8
:1020E00048BF43F01003062908BF43F4C0731846E5
:1020F000002120F0DFF92146002242F2010006F023
:1021000033FD044600287FF45EAF2B7F9A061ED471
:10211000B5F88810D9B901AA41F2050006F024FDEE
:10212000044600287FF44FAFB5F8883063B9019BAF
:102130009B685A78997842EA0122A5F888209A8803
:102140006C48114625F061FE019816F087FF0821C2
:1021500040F6014006F092FB0446002850D00821CA
:10216000084422F039FE95F87830DB07024640F14A
:10217000B5805DA1D1E9000120F09CF92146002243
:1021800040F6014006F0F0FC044600287FF41BAF47
:1021900001466A464FF6014006F0E6FC564E574BA4
:1021A000F61AC6F3C906002800F0B4804FF000010B
:1021B000022363F30701524866F38F111EF03DFFBF
:1021C00009F00EF8044600287FF4FDAE4D494E4854
:1021D00025F099FEEB79002B40F0198103234FF095
:1021E000000163F3070166F38F1148481EF025FFD5
:1021F000E9E6022140F66D4006F040FB064610B9C4
:102200006FF06804DFE60221083022F0E5FD0123CB
:10221000447003702246314640F66D4006F0A4FC3F
:10222000044600283FF410AFCDE601AA002142F297
:102230002F0006F099FC044600287FF4C4AE0198F4
:102240008368B3F80180B3F8037016F007FF042128
:1022500042F2240006F012FB06460028D0D00421EA
:10226000083022F0B9FD2246A0F8008047803146B0
:1022700042F2240006F078FC044600283FF4FFAE4A
:10228000A1E6022142F22E0006F0F8FA04460028E8
:10229000B6D00221083022F09FFD6FF07B0303705F
:1022A000032343702146002242F22E0006F05CFC1C
:1022B000044600287FF487AE014601AA42F22A00B4
:1022C00006F052FC044600287FF47DAE0198836836
:1022D0005B7885F8A43016F0C1FED5E60C484FF0C7
:1022E000005149E7AFF30080908800020080002091
:1022F00050E5002064E500201086020040850200C1
:10230000C32D0600098D0000C4E50020972E0600AD
:1023100010880002009B41489C6803224FF0000394
:1023200062F30703B4F80120032A96BF3C493D49F4
:1023300051F8221066F38F131EF0A0FEB4F80110BE
:1023400003224FF0000362F30703022966F38F13A1
:10235000B4F8032038D1032A36D8334951F8221073
:1023600032481EF08BFE03224FF0000362F3070396
:1023700062792F48032A96BF2E492A4951F8221024
:10238000CDE90112A2790392B4F807200492D4F89F
:102390000920059266F38F13052201A91EF0A1FE04
:1023A000009816F05BFE6A4600214FF6024006F0E8
:1023B000DBFB074650B14FF00001022363F3070136
:1023C00066F38F111C48F9E61649C9E700981B4CC3
:1023D0008368B3F80130A4F8613016F03FFE6A4616
:1023E00039464FF6034006F0BFFB40B14FF0000105
:1023F000022363F3070166F38F111148DEE60098AC
:1024000083685B7884F8603016F028FED8E60421F3
:102410000C481FF0EAFF07F0EBF9D4E5E72D0600C2
:10242000E48E0200EB5B0600AC8E0200002E06007C
:10243000182E0600148F0200452E0600D8E4002056
:102440006E2E060048E500202DE9F04F91B00223E2
:102450000F9330B911F010FE0546284611B0BDE8C3
:10246000F08F8B4E96F8CC5015F00105344601D014
:102470000C25F2E796F87C8096F82C7096F82900E7
:1024800027232D2203FB086813FB072700F0030016
:1024900008F17D030B9315F0EFFA96F8DA00830745
:1024A00006EB070940F1B6802A4606F1DC01C0F3CD
:1024B000800015F059FBFF28824602D0284615F00F
:1024C0007DFD4A465146724815F0E2FA0B9A704873
:1024D000514615F0DDFAF35D580600F1B080F35D6A
:1024E00013F00E0F00F0B58094F8283084F8DBA0CC
:1024F000C3F3420301210DF13B008DF83B3021F085
:10250000D6FD002800F0BF8116F807C00B9A99F895
:10251000013052780CF00F0CBCF1020F00F1FF31CA
:1025200040F07C811033DB00584300F5AA7064232F
:1025300001FB030094F820305649E4614FF0000895
:1025400068F3000384F8203031232360C4E9058850
:102550004DA3D3E90023C4F80480C4F80880A0FB8D
:102560000101FDF70DFEE060B4F8D89021F0CCFE3B
:102570008246B9F1000F09D116F8078008F00F085C
:1025800008F1FF33D3F1000848EB030894F8286002
:10259000414AE36868F30006DFF8048184F82860A4
:1025A0000FAF16F00106CDE90787CDE905240493A6
:1025B00000F051810020CDE900030321CDE90200A4
:1025C000534602220EF0B4FC394610F0D9FC002824
:1025D00040F0598102220F92CDE907872F4A0694D5
:1025E000CDE902004AF2D833CDE90402009301900C
:1025F0005346012203210EF09BFC394610F0C0FC2B
:10260000002840F0408194F8CC3043F0010384F876
:10261000CC3022E7F05D2946C0F380100EF054FD67
:102620000368C9F802308388A9F806300B9A03685A
:10263000C2F802308388D3804FF0FF0A4BE70621AF
:1026400009F1020021F0FCFC00287FF448AF1225BC
:1026500003E7636A002B7FF40BAF10F0E9FB8346BE
:1026600030B110F0F1FB0C9020B9584610F0E6FBA9
:102670000725F2E612F0C8FB804698B90C9810F0D6
:10268000E9FBF2E7AFF300808D49FD1A0700000077
:10269000AC11002000CA9A3B753A0100693D010067
:1026A000752F01004FF6FF728285826F00F11C03C7
:1026B0000D9312B900F17002826708F16C0208F103
:1026C0006801D8F8780021F0C6FC754AC8F82CB12A
:1026D0004FF01B11C8E91712B8F8642098F84010A1
:1026E00022F4EF6222F0070242F4887242F0010203
:1026F000A8F8642098F83D2002F03F0262F07F02C3
:1027000088F83D20002262F3000188F8401006217D
:10271000A8F8C41098F8DC1088F83F2021F00301D5
:1027200088F8DC105F49C8F81C1198F82211A8F845
:10273000322021F00301C8F83420C8E91322C8F878
:102740005420A8F8C820A8F8CC20A8F8E82088F8D9
:10275000EA20C8F80021A8F80421A8F81821A8F850
:10276000202188F82B21C8F87820A8F87C2088F848
:10277000221198F87E10A8F8502121F01F0188F846
:102780007E1098F85211A8F8702121F0070188F8FE
:10279000521198F87211A8F8982162F30411A8F860
:1027A000A42188F8721112F063FCA8F8D60012F088
:1027B00065FC3D49A8F8D800D8F8A8010140C8F840
:1027C000A81112F061FC98F8AC1160F3020188F8CE
:1027D000AC1112F05FFC98F8AC110C9BC4F8D4302B
:1027E000002260F306110D9BC4F8D0B0636262F35F
:1027F000C30188F8AC1198F82010C8F8B02162F332
:102800000001C8E96F22C8E96D22C8E90522C8F8AD
:102810001C8088F8201014F0F9FA65E6BCF1010F6D
:1028200015D0D2008032BCF1000F09D1103302F56F
:102830002772DB0002F19800184403F59A7377E6DB
:10284000BCF1060FF2D010234FF4AA72F1E7162361
:102850004FF42D72EDE715484FF6FF731FFA89F814
:10286000CDE90263A8FB0001912303FB08110AA331
:10287000D3E90023FDF784FC5346CDE90060022232
:1028800003213046B7E6636A002B3FF4F1AD0848F8
:1028900011F072F9ECE500BF8D49FD1A0700000048
:1028A000480148017F4101000000FFFE002AE78443
:1028B000AC110020000000002DE9F04F9246828DFF
:1028C0004FF6FF739A428DB0044688460CD140F211
:1028D0000333C64AC649C7481DF06BFA404080F32F
:1028E00011884FF0030002DF94F8E92094F8E830F3
:1028F000934210D194F8520110F001060BD194F8D4
:10290000051194F804518D421DD00122023B84F838
:10291000EA2084F8E93094F8E81094F8E930CB1A0A
:1029200003F00303022B40F0B18594F8EA30013B39
:10293000052B01F27480DFE813F05B037905D20503
:102940007208FF061F0794F8193194F81851AB422A
:102950005BD05B1BD807DED594F8DC5015F0010581
:102960002AD010F0A5FA01460028D4D094F81831E6
:1029700084F81931A38DC3800223037190F82030AD
:10298000466243F0030380F82030092380F82130A9
:10299000866280F82330D4F81C3180F82430C3F3E9
:1029A00007221B0C80F8252080F82630086810F0DC
:1029B00057FA10F05FFAAEE78F4821F008FB0146A6
:1029C0000028A8D094F81931013B84F819318B4BB9
:1029D000C4F81C31037943F00303037109234371E5
:1029E00094F93D308560002BACBF08230E23C560F1
:1029F000C371D4F81C310372C3F307221B0C42725B
:102A00008372204621F0A8FECAE094F8213194F8A0
:102A10002051AB4264D05B1BD9077FF57CAF94F8A3
:102A20002231DA0725D4744821F0D1FA0146002872
:102A30003FF471AF94F82131013B84F8213194F8CF
:102A4000223143F0010384F82231037943F0030378
:102A50000371062343710C23C3710A2303726FF0C1
:102A60000E034372052383724FF0FF33C372037367
:102A7000C7E79F0726D510F01BFA014600283FF450
:102A80004AAF94F8203184F82131A38DC38002230A
:102A9000037190F8203043F0030380F820300623C0
:102AA00080F821300C2380F8233094F8233180F80B
:102AB0002430B4F82431A0F82530B4F82631A0F839
:102AC000273073E740F60233484A4D4949481DF024
:102AD00070F9404080F311884FF0030002DF1AE7DD
:102AE00094F8715194F870319D4200F03881454D51
:102AF0002B6813B19C427FF40EAF94F8723103F04F
:102B00000703052B00F2288101A252F823F000BF31
:102B1000292B0000AB2B0000012D0000172900001D
:102B200017290000172900003348E68E678E21F030
:102B30004EFA014600283FF4EEAE94F872310422BA
:102B400062F3020384F87231037943F003030371E3
:102B5000182343710F23C371B4F874310381B4F89F
:102B600076314381B4F878318381B4F87A31C38106
:102B70003E4400230374C374037556444FF0FF337F
:102B8000A0F8116043758375C37503764376837629
:102B9000C376037743778377204621F0DDFD2C60F1
:102BA000B4F8CA30A4F8CC30B5E694F873615EB3DB
:102BB000114821F00CFA014600283FF4ACAE03792D
:102BC00043F0030303711123C371032343710F23E4
:102BD000037294F873314372204621F0BDFD94F8DE
:102BE000703184F8713100232B6094E6544706005D
:102BF00000480600FE320600EC1400207F41010070
:102C0000485906006C14002094F93D30002B34DB49
:102C100094F87231C4F81061052262F3020394F84B
:102C20007C2184F87231012384F8143112B3B4F892
:102C30007431B3FBF2F3013313FB02F39BB2A4F83C
:102C40000831B4F87831A4F80A31B4F87A31A4F82C
:102C50000C3194F80631022262F3010394F87221D8
:102C6000C2F3C00262F38203013984F8063184F8AA
:102C7000051150E6B4F87631E1E7D94821F0A7F91B
:102C8000014600283FF447AE037943F00303037184
:102C9000182343711023C371B4F874310381B4F85D
:102CA00076314381B4F878318381B4F87A31C381C5
:102CB00094F87C310374B4F87E31A0F81130B4F884
:102CC0008031A0F81330B4F88231A0F81530B4F890
:102CD0008431A0F81730B4F88631A0F81930B4F870
:102CE0008831A0F81B30B4F88A31A0F81D30204696
:102CF00021F032FD94F8703184F871312E600AE6CB
:102D000086073FF508AE10F0D3F8014600283FF4DF
:102D100002AE94F87231032262F3020384F8723136
:102D2000A38DC3800223037190F82030134380F8F1
:102D30002030182380F821300F2380F82330B4F896
:102D400074318384B4F87631C384B4F87831038560
:102D5000B4F87A31438529E640F60F43B4E694F897
:102D6000980194F89931834200F0998094F89A314F
:102D7000C3F30205E9B2072900F08E8001228A40E0
:102D800012F04E0F7FF4C7AD12F0300F2DD1002995
:102D900040F08280924821F01AF9014600283FF461
:102DA000BAAD94F89A31B4F8A201A4F8D80001227F
:102DB00062F3020384F89A31B4F89E31A4F8D63055
:102DC0000A798B8142F003020A71092245F0480317
:102DD0004A711422CA718B7245F01B0245F001033F
:102DE0000A724D72CB72C8810BE6B4F89C21A4F82C
:102DF0005E20B4F8A021A4F8622003F00702042AA0
:102E0000B4F89E71B4F8A26144D1B4F8A4219ABB7D
:102E100084F89901A4F8CC20D4F800510DB12B68A6
:102E200063B940F6CE436F4A6F4970481CF0C1FF4A
:102E3000404080F311884FF0030002DF28684368A8
:102E4000C4F80031A38DEB8002232B7195F820305C
:102E500043F0030385F82030092385F8213015233A
:102E600085F82330B4F85E30AB84B4F862302F8537
:102E7000EB846E8529469AE5A4F89E21B4F8A61144
:102E8000A4F8A2110022A4F8A42162F3020384F89A
:102E90009A31C1E70622F8E740F6F64314E694F8C3
:102EA000A81194F8A9318B423FF435AD94F8AA31BA
:102EB00003F00300032800F28F8001A555F820F0ED
:102EC000D12E00001729000017290000352F00001F
:102ED000434821F07CF8014600283FF41CAD94F8EB
:102EE000AA2194F8AC3194F8AB51C2F3820060F39C
:102EF0000203C2F3421262F30613C5F3400565F301
:102F0000C30384F8AC31B4F8AA3123F4817323F0FD
:102F1000010343F4807343F00103A4F8AA310B7951
:102F2000087243F003030B7103234B711623CB711B
:102F30004A7266E584F8A911C3F382018D0739D579
:102F4000022161F3840384F8AA3194F8AA31590963
:102F50008F0738D5022161F3471384F8AA3194F81A
:102F6000AA1194F86430C1F3820003F0070383428E
:102F700008BF002094F8EC3060F3840394F86500F7
:102F8000490900F00700884208BF002161F3471398
:102F900094F8AB11DBB2C1F3800143F0010361F39C
:102FA000410384F8EC30023A062384F8EA3084F8CE
:102FB000E920B0E4C80701D50121C2E711F00401FE
:102FC00018BF0421BDE7CE0701D50121C3E711F0E9
:102FD000040118BF0421BEE740F6775374E500BF33
:102FE000EC140020544706001B480600FE32060081
:102FF000294B1A6802B91C60628EE68E164494F85A
:103000000621564412F00300B6B249D001200FF059
:1030100037FF0746002800F03982204820F0D7FF0C
:103020000546002800F032820FF042FF3B68D4F8DA
:1030300000215A6094F80631C4F800716FF301035F
:1030400084F80631238E1E442B790636B6B243F03F
:103050000303A4F8EC602B710C236B710023EB715C
:1030600094F814312B7240F2E242D4F81031B3FBE1
:10307000F2F3A5F80930B4F80831A5F80B30B4F82C
:103080000A31A5F80D30B4F80C31A5F80F30A5F8C9
:1030900011602946F7E100BF6C140020EC140020F9
:1030A000B4F8EC200B92B71ABFB23D0400F1EE81E8
:1030B00094F8042184F8052184F8E91094F871212A
:1030C00094F870118A4209D094F8722102F0070234
:1030D000052A04BF84F87111A4F8CC001A68D4F84A
:1030E0000051944204BF00221A600DB12B6863B9ED
:1030F00040F69B03C04AC149C1481CF05AFE4040FB
:1031000080F311884FF0030002DF2868B4F808212B
:103110004368C4F80031E38DB4F80AC1B4F80C1167
:103120009A4213D1238E634510D140F2E24303FB50
:1031300002FE42F2107303FB01E3013BB3FBFEF31B
:10314000B4F8C6E09BB29E4500F02E81A38DEB80C3
:103150000A232B71002385F820306A84A5F824C047
:10316000E98429460FF07CFE0FF084FE2368002BD3
:103170000ADAD4E9012023F0004390422CBF8044B6
:1031800090442360A8EB0308E38DB4F80851DFF8FE
:1031900098B213FB07F39BB2B3FBF5F11FFA81F969
:1031A00015FB09F292B2934240F2E24080F0FF80B8
:1031B000D31A5843A0FB0B018DA3D3E90023FCF7DE
:1031C000DFFF20F07F408044638E9A440B9B9E1B60
:1031D00094F93D304E445644002B40F2E24A668654
:1031E0000AFB05F580F2F180E26C636C03FB1727A4
:1031F000E76421F078FC064694F8DC00C0F3820016
:1032000013F0B4FE94F8142106440AFB02F262653E
:103210006E430022C4F8E42006F57426E26C794877
:1032200006F23F266B08B6FBF0F606FB09F0963B6C
:1032300002446664A3649A4294BFE264E364A0FB20
:103240000B016BA3D3E90023FCF79AFFA8EB00085E
:10325000D4F81001B0FBFAF00AFB00F064A3D3E944
:103260000023A0FB0B01FCF78BFFAE1B20F07F4976
:10327000B4F80831B4F80C21E38542F2107303FB73
:103280000252B4F80A11604B2186013AB2FBF5F202
:10329000A4F8C6205D4A2B442A44B3FBF5F3B2FBE5
:1032A000F5F5A4F8CA308A1DABB29342A4F8D23027
:1032B000C2BF5B1A063B9BB2A4F8CE3094F806312D
:1032C000590744BF0023A4F8C8300221012015F09B
:1032D00049FD00220221824601200DF083F920469B
:1032E00011F09EFD0330C5B2494B00942A460121DE
:1032F00000200DF0AFFE30F002030CD04FF4146349
:103300003D4A44493E481CF054FD404080F311883A
:103310004FF0030002DFA6FB0B6735A3D3E90023C0
:1033200030463946FCF72CFF3B4B0894CDE9064369
:103330003A4B0593E368049300230393384B20F042
:103340007F44A4FB03BC072303FB04CCB6EB0B00B8
:1033500067EB0C014FF47A720023FCF711FF434630
:10336000CDE90140CDF800902A46012100200DF062
:10337000DFFD30F002030CD040F65A131E4A2549F7
:103380001F481CF016FD404080F311884FF00300E9
:1033900002DFBAF1000F04D00122022110460DF025
:1033A00021F96FF08B0079E003232B71D9E605FB3F
:1033B000113189B248430EA3D3E90023A0FB0B01CE
:1033C000FCF7DEFEA8EB0008FEE64FF411630A4AA4
:1033D00014490B481CF0EDFC404080F311884FF07D
:1033E000030002DF4FF000092E4641E7AFF30080F3
:1033F0008D49FD1A07000000544706001B480600CF
:10340000FE32060040420F00FF5962027FC3C9012D
:103410000D4A0100B3460600B54901000D750100D3
:103420008D49FD1A4859060000CA9A3B628EE38E08
:1034300013449A4494F8EC30DA071FFA8AFA30D52C
:10344000CB4820F0C4FD014600B394F8EC306FF394
:10345000000384F8EC30238E9A4403790AF1060ABB
:1034600043F00303A4F8F2A003710823437101237E
:10347000C371234653F8ED0F88601B790B73B4F8C2
:10348000F230A1F80D30204621F066F994F8292198
:1034900094F828319A4240F0D08200200DB0BDE867
:1034A000F08FB4F8F230AAEB030A1AF4004FEDD112
:1034B000234684F8E91053F8ED2FA26304F1380095
:1034C0001B790371052120F0F2FD94F83D3060F383
:1034D000050384F83D30012384F8C431D6E794F81D
:1034E000EC7017F003075AD094F93D30002BCDDA79
:1034F000012FCBD19E4820F06AFD07460028C5D099
:10350000037943F0030303710D2343710423C37153
:10351000984B186843685E6807F108051EB10023E0
:103520000C222946B0472B68C4F8F6306B68C4F803
:10353000FA303B69C4F89C303946204621F00CF93A
:103540000FF0B6FC01460028A0D0A38DC38090F8F0
:10355000203043F0030380F82030172380F8213017
:1035600002250323057180F82330D4F855314362D6
:10357000D4F85931836294F8533180F82C3094F8A0
:10358000543180F82D3000680FF06AFC0FF072FCA7
:1035900094F8EC3065F3010384F8EC3076E7744876
:1035A00020F015FD054600283FF470AF94F93D303A
:1035B000002B00F1040847DB04F17F0633463A464E
:1035C00004F1EE0104F25D1021F07FFB334604F1BB
:1035D000A00204F18F0153F8040B42F8040B8B4254
:1035E000F9D12146204651F8982FC4F8B9204A68ED
:1035F000C4F8BD20002284F88F205A709A70DA70C7
:103600001A715A719A71DA7194F8973062F3000363
:1036100084F8973094F8B83043F0010384F8B83058
:1036200094F87E3043F00803C4E92C2284F87E30FD
:10363000414621F094F82946204621F08DF894F86F
:10364000E83084F8E93021E794F87E301B0764D431
:1036500094F8ED20F2B1037943F00303037194F879
:10366000DC30DF0711D5D4F81C315E070DD51123EE
:10367000C37103230372427202236B716B790133AE
:103680006B71002384F8ED30D5E70D23EB712A72BE
:103690000123F2E704F17F06334604F1EE0104F260
:1036A0005D1021F012FB334604F1A00204F18F01FA
:1036B00053F8040B42F8040B8B42F9D1214651F820
:1036C000982FC4F8B9204A68C4F8BD20002284F8B5
:1036D0008F205A709A70DA701A715A719A71DA7171
:1036E00094F8973043F0010384F8973094F8B83099
:1036F00062F3000384F8B83094F87E3043F0080396
:1037000084F87E302B7943F00303C4E92C222B711B
:1037100001236B710523EB718DE74146204621F0B3
:103720001EF82946204621F017F894F8523123F06C
:10373000030384F8523182E70D4820F048FC01462B
:1037400000283FF4A3AE94F8E83084F8E930037918
:1037500043F003030371012343711223C371204615
:1037600020F0FAFFB4F8CA30A4F8CC308EE600BFDF
:10377000EC14002070140020628EE38E134494F841
:10378000EC209A44D0071FFA8AFA68D502200FF07D
:1037900077FB064600283FF479AEBB4820F017FCC3
:1037A000054600283FF472AE94F8EC306FF3000346
:1037B00084F8EC30DBB2C3F3820757EA531737D1F2
:1037C00094F8E82084F8E9209B07A4F8EE7019D556
:1037D0000FF06EFBA38DF38086F820700E233371FB
:1037E00094F864303068C3F3020386F8213094F80B
:1037F0006530C3F3020386F8223031460FF030FB08
:103800000FF038FB2B7943F003032B7105236B7109
:103810001823EB7194F8EC30C3F382032B7294F805
:10382000EC30C3F342136B72B4F8EE306B8130E4CA
:10383000238E9A440AF1060AA4F8EEA00FF038FB92
:103840003368D4F800215A60C4F800610FF030FBEF
:103850000368D4F800215A60C4F80001D2E7B4F834
:10386000EE30AAEB030A1AF4004F7FF40FAE94F87F
:10387000643094F8657084F8E91012F01C0F03F0BE
:10388000070807F00707B4F8626064D1B4F86090E5
:1038900012F0E00F08D094F86530520962F3020389
:1038A00084F865304FF4A47694F8AC3194F8642031
:1038B000D4F80051C3F3C00363F3C30284F8642057
:1038C0000DB12B6863B94FF46063704A7049714859
:1038D0001CF06FFA404080F311884FF0030002DFC4
:1038E000286894F864204368C4F8003194F8ECE048
:1038F00094F86530C2F30202C3F302031EF0020F14
:103900005FFA82FCD9B240D1C4453ED18F423CD14E
:1039100003232B7129460FF0A3FAD4F800510DB1FF
:103920002B6863B940F60F63584A594959481CF04F
:1039300040FA404080F311884FF0030002DF28680E
:103940004368C4F8003103232B7129460FF088FA2D
:103950000FF090FA9AE5C2F3820161F3020384F852
:10396000643094F85C300E33DB00C1F34001CB408F
:10397000B3F5A47F06D3B4F8D8909BB2994528BF7D
:10398000994685E74FF4A47982E7A18DE9800E215D
:103990002971002185F8201085F8212085F8223032
:1039A00029460FF05DFAD4F800510DB12B6863B9C8
:1039B00040F62C63354A364936481CF0FAF9404047
:1039C00080F311884FF0030002DF28684368C4F8D1
:1039D0000031B4F860304B4503D3B4F86230B342E1
:1039E000B1D2A38DA4F86090A4F86260EB800223AA
:1039F0002B7195F8203043F0030385F8203009231C
:103A000085F82130152385F82330B4F85E30AB8477
:103A1000B4F85C302B85EE84A5F82A9095E740F247
:103A200076331A4A1C491B481CF0C3F9404080F306
:103A300011884FF0030002DF28E5134820F0C7FA91
:103A4000014680B194F8283184F82931037943F094
:103A50000303037102234371C37194F82A31037283
:103A6000204620F079FEB4F8CC0000287FF415AD94
:103A7000B4F8C630012B02D9A4F8CC300DE50133DF
:103A8000A4F8CC300AE500BFEC140020544706002F
:103A90001B480600FE3206004859060000000000E0
:103AA0002DE9F04F1D461368904600229A600A46A1
:103AB000D3F800A02B460C4632F8321F53F80C6B9B
:103AC000A98192789A70D4F82E30AB60234693B0D7
:103AD00053F83E2FEA610B9005F11C001B7903712E
:103AE000052120F0E4FA95F8213060F3050385F80C
:103AF000213094F84330C3F3040385F82230278F34
:103B00006F8294F83B2094F83A3043EA0223AB8268
:103B1000E38EADF8303094F8433096F8DC205B0942
:103B200063F3840286F8DC2020F0DDFF814696F8FE
:103B3000DC00C0F3820013F019FA40F2E24B0BFBF9
:103B400007F74844784300F57420B14BA98AB14A7D
:103B500000F23F20B0FBF3F07B08963BEB6294F859
:103B60003530A8620BFB03F3EB63B4F83CB042F2D0
:103B7000107303FB0B73013BB3FBF7F3A6F8C630DE
:103B8000A54B881D3B443A44B3FBF7F3B2FBF7F275
:103B9000A6F8CA3093B28342A6F8D230C2BF5B1AED
:103BA000063B9BB2A6F8CE30AB68C6F8E0302146A3
:103BB00094F8209051F8280F10908988ADF844109F
:103BC0002146034651F8220F98F815C00E90C9F30C
:103BD000C0128888ADF83C00C9F3801EC9F34019B3
:103BE0005FFA89F00A9023634FF48070BDF8443087
:103BF000A386BCF1FF0F208484F82F2004F1290351
:103C000000F0EE8004F1230260460D9313F086FE6F
:103C100094F822200D9B0E98C4F82900023284F8F3
:103C20002220BDF83C209A806B8AE386AB8A2387EA
:103C300096F8DC30A4F83AB0C3F3820384F83C3041
:103C4000304611F0EDF8D8F8043028822146E080A3
:103C50000B980D930FF004F90D9B2A8ADA800D2240
:103C60001A710A9A1868002A00F0C880697A2A7ABC
:103C7000EC7A42EA0122A97A41EA042195F821402E
:103C80004A406A8444F04004012285F8214083F8C8
:103C9000202019460FF0E4F80FF0ECF8D8F810B037
:103CA000DFF89491002431230BF25240C6E900342E
:103CB000B46055A3D3E90023A0FB0901FCF760FA27
:103CC000AB6ABDF83020FF1AD8F80C30A3F5AE73FC
:103CD000A3EB0B0340F2E24B20F07F400BFB02BB57
:103CE0005B4422460221F06001200A930CF07AFC2A
:103CF000504610F09FF9821C484BCDF800A0D2B27C
:103D0000012120460DF0A6F9514613F0E3FB9AF885
:103D10002830DB0706D501220094234611462046B1
:103D20000DF098F9304611F07BF8A7FB0945824663
:103D300035A3D3E9002320462946FCF721FAD8F819
:103D40000830A3F1310840F21D130893344BCDE93C
:103D50000663344B0593F3680493334B20F07F469E
:103D6000A6FB03BC072303FB06CCB4EB0B0065EBFF
:103D70000C010AF103074FF47A724FF0000A002396
:103D8000CDF80CA0FCF7FCF90A991FA3D3E9002396
:103D9000CDE90160A1FB0901FCF7F2F9FFB220F0C7
:103DA0007F40009043463A46012150460DF0C0F84E
:103DB00030F002030CD040F21F131C4A1C491D486E
:103DC0001BF0F7FF404080F311884FF0030002DF43
:103DD00001220221104613B0BDE8F04F0CF002BCE6
:103DE0000022C4F829200E989A80BDF83C3084F84F
:103DF00022E0C4F82300A4F8273015E783F82090C8
:103E000047E700BFAFF300808D49FD1A07000000AF
:103E100040420F007FC3C901FF596202D5740100FF
:103E2000A97401000D7501008D49FD1AAC49060009
:103E3000B3460600FE32060000CA9A3B00000000AE
:103E40002DE9F8438946D0E90B71466B164D8C1964
:103E50003034A742904612A3D3E9002315D8A1FB22
:103E60000501FCF78DF920F07F40C9F80000E01B48
:103E70000BA3D3E90023A0FB0501FCF781F920F097
:103E80007F40C8F80000BDE8F883A7FB0501FCF7F8
:103E900077F920F07F40C9F8000006F13000E7E72D
:103EA0008D49FD1A0700000000CA9A3B000000007F
:103EB0002DE9F84F044621F01EFA257B824615B104
:103EC00020F022FA05460FF26809D9E90089DFF8E7
:103ED00068B00027606816F065F9A368A3EB0A03D1
:103EE000A360636853446360237B01374BB9A368C5
:103EF000002BEFD1A068003018BF01204042BDE880
:103F0000F88F20F001FA294620F000FAB0FBF7F60E
:103F10000644606942464B46A0FB0B01FCF730F9B2
:103F200020F07F408642E2D9E4E700BFAFF3008093
:103F30008D49FD1A0700000000CA9A3B00000000EE
:103F40002DE9F04F8FB0D0F804A0DFF8D8900DF134
:103F5000370180460DF1360020F07EFA9DF83630AC
:103F60000A939DF837300B9320F0CEF9DAF8104021
:103F7000A4FB094526A3D3E900230027834629464D
:103F80002046FCF7FDF8CDE90777234B0593CDF8E4
:103F900018800646DAF814001DA3D3E90023A0FB1D
:103FA0000901FCF7EDF81D4B26F07F46A6FB039AAE
:103FB00020F07F400723CDE9037003FB06AAB4EB92
:103FC000090065EB0A014FF47A720023FCF7D8F878
:103FD0005B46CDE9016000970B9A0A9803210CF02B
:103FE000A7FF30F002030AD145F6B3110C481AF0CE
:103FF000F1FE38B9D8F808000FB0BDE8F08F6FF0C7
:104000008B00F9E76FF07300F6E700BFAFF30080B5
:104010008D49FD1A07000000F19901008D49FD1A34
:10402000BC19002000CA9A3B2DE9F047067B0446E4
:1040300016B120F069F90646606810F0030567D0F4
:10404000A3682168C5F104059D4228BF1D462A4684
:1040500016F004F963682B44636023682B442360E3
:10406000A3685D1B237BA560002B51D020F04CF989
:10407000314620F04BF92C494500606928A3D3E96B
:104080000023A0FB0101FCF77BF820F07F40854274
:104090003ED915F09DFC4FF0FF30BDE8F087236856
:1040A0006068196816F0B0F86368043363602368C9
:1040B00004332360A368043BA360237B013593B1E1
:1040C00020F022F9314620F021F9B0FBF5F7074442
:1040D000606942464B46A0FB0A01FCF751F820F00C
:1040E0007F408742D5D8A268032AD8D862B1D4E9E4
:1040F000001016F0B3F8D4E9012123680B440A44F8
:10410000236000236260A36015F062FC0020C4E716
:104110000125DFF814A00FF20809D9E90089E2E7C8
:104120008D49FD1A0700000000CA9A3B8B1E5942B8
:104130005941014B197070474761002008B54FF095
:104140000002032363F307020648074B1B1ADB0830
:1041500063F38F1205481CF07DFF054B00221A7097
:1041600008BD00BF4085020040850200D3990200CF
:104170004661002008B5104A104B9B1AC3F3C903CF
:1041800059B102204FF0000260F3070263F38F126F
:104190000B48BDE808401CF05DBF03224FF0000152
:1041A00062F3070163F38F1106481CF046FF064BCC
:1041B00002221A7008BD00BF40850200408502003F
:1041C000A2990200C59902004661002070B50378EB
:1041D0008AB004460E4607AD032B20D8DFE803F073
:1041E00002191B1D11492846FDF756FD63780493FB
:1041F000A3780393E378029323790193637900937F
:104200000595A3790A4A1E2130461BF0DFFD0AB04E
:1042100070BD0849E7E70849E5E70849E3E7084AC8
:104220000A2128461BF0D2FDE0E700BFCF9802002C
:10423000F1980200D6980200DD980200E79802008B
:10424000F242060010B588B00C461EF06BFA6946C3
:10425000FFF7BCFF2246694602481BF0AAFD08B0E2
:1042600010BD00BFB998020000B589B01EF05AFA1F
:104270006946FFF7ABFF694602481BF09AFD09B09B
:104280005DF804FBA29802001FB5002005F040FB7A
:10429000044628B1014616481BF08BFD04B010BD42
:1042A00000F04CF80923ADF808408DF80930A02340
:1042B000ADF80A30F023ADF80C300E4900942346D7
:1042C000032202A81EF074F9014660B10A481BF0EF
:1042D00070FD0A4806F01AFB094806F059FF094824
:1042E0001BF067FDDAE708481BF063FDF1E700BF4C
:1042F00014990200888802003499020098E6002090
:1043000078E60020909902006499020070B5BDF82B
:104310001000CD681C46C3180A2B164609DC22463D
:1043200031462844FDF762FC034B01221A702046F7
:1043300070BD6FF00604FAE752610020094B40F2AD
:10434000DF721A8005229A701E220C21DA709A718F
:1043500001221971DA712D21002259711A725A72D3
:10436000704700BF4861002008B54FF000010323EB
:10437000074A084863F30701074B9B1ADB0863F3FE
:104380008F111CF05AFE054B3C221A6008BD00BF7D
:10439000408502006F9A020040850200D4E60020AA
:1043A00070B5BDF8104003B11CB9FFF7DDFF002068
:1043B00070BD074D19462E68064B0A20224600FBA9
:1043C00006303444FDF712FC2C600120F0E700BFFA
:1043D000380000201461002010B501B3114B098A88
:1043E00019814FF6FF7159810F49104C1C60002252
:1043F0000A605A600E4CDC60194609F025FE002860
:104400000DDA02234FF0000163F30701094A0A4B5A
:104410000A489B1ADB0863F38F111CF00EFE002084
:1044200010BD00BF3C00002038000020A143000068
:104430001E61002040850200408502004A9A020069
:1044400007B500238DF8043042F62B23ADF8063073
:10445000124B1349019A1A60124A4A6001220A81DA
:104460004FF6FF72CA8103220A740B6009F02CFA1E
:1044700080B101234FF0000163F307010A4A0B4B9F
:104480000B489B1ADB0863F38F1103B05DF804EB54
:104490001CF0D3BD03B05DF804FB00BF1E6100201B
:1044A00024000020D943000040850200408502001E
:1044B000279A020010B5074C2368002B02DD013B50
:1044C000236010BD00220449072006F0F1FC3C23C4
:1044D000F6E700BFD4E600204144000030B40E4CA3
:1044E000226801323B2A04DC2260194630BC1BF0F2
:1044F00097B80A4D002222602C6801343B2C01DC65
:104500002C60F2E72A60064D2C680134172CD8BFC6
:1045100022462A60E9E700BF600000205C0000201E
:10452000640000202DE9F04389B05A4819F078FD65
:1045300006464368584D1B689847336857499B683F
:10454000564A58680024EC600023A0FB0101FBF7E9
:1045500017FE534B6860294630462B60AD601BF058
:104560005FF8FFF791FE1BF054F8214619F02EFA80
:104570004C4919F075F9CDE90544CDF81B404A487E
:1045800019F04EFD054680B901234FF00001474A5E
:10459000474863F30701474B9B1ADB0863F38F110E
:1045A0001CF04BFD09B0BDE8F083434819F038FD1D
:1045B0000646436816221F6821460123B8477368E0
:1045C000DFF808815F68DFF808912346162221464C
:1045D0003046B8471BF01DF8214618F0D7FF0121DF
:1045E000064623F070F93046012123F093F9304656
:1045F000F02121F09CF83149304623F00FF91BF0EF
:1046000008F8214618F0C2FF06461BF002F82146C2
:1046100018F0BCFF23460746052221463046009489
:1046200021F0D8F82346224621463846009421F04E
:10463000D1F86B6828465B68214D9847FFF73AFF31
:104640002B680293D8F800300193D9F8003000931A
:1046500003221C4B002104A8FDF7FAFA04A93846EE
:1046600023F0DCF86421B4FBF1F301FB134149B9F9
:1046700000930B22144B05A8FDF7EAFA05A9304672
:1046800023F0CCF818F06CFA0A201AF049FB013438
:10469000D4E700BF8B1E06004C00002040420F00F4
:1046A000DD440000F4890200911E060040850200EE
:1046B000991E060040850200BB1E0600C21E0600B1
:1046C00060000020E81E0600F23B06005C000020AF
:1046D0006400002010B5094C0A44914200D110BD7D
:1046E00011F8013B43401809205C80EA0310C3B273
:1046F0001809205C80EA0310C0B2EEE7F81E06003D
:104700002DE9F04F85B09B460E9CDFF88890012C78
:10471000B8BF0124012B0CBF30232023164682464C
:104720008846029301250A270022B6FBF9F301937C
:104730000AB9B1451DD8019B414603F13000D0476D
:1047400001350122019B013F012F09FB13664FF048
:104750000A03B9FBF3F9E8D1414606F13000D0472E
:10476000BBF1030F02D1641B002C0EDC05B0BDE8C9
:10477000F08FBC42E6DBBBF1020FE3D84146029862
:1047800003920135D047039ADCE741462020D04709
:10479000013CE9E700CA9A3B30B585B0CDE901019B
:1047A0000446002501A9054803951BF092F9DDE9AF
:1047B00002309842B8BF255405B030BDADFA0100B3
:1047C000014B1868704700BFD8E60020F0B50822FA
:1047D00089B00C4606461BF004FDCB6A03930B6BB5
:1047E00004934B6B05938B6B0693CB6B079300275E
:1047F00008236A4669466846CDE9017700971BF0B1
:10480000F5FB082305466A46314630461BF0EEFBB1
:10481000236B0393636B0493A36B0593E36B0544D2
:10482000CDE906376A460823694668461BF0DEFB79
:104830003146054408236A4630461BF0D7FB236AFD
:104840000093636A0193A36A0293A36B0693E36BDD
:104850000793054408236A463046CDE90477039759
:104860001BF0C4FB636A0093A36AA26B0193E36A23
:1048700002930492636BE26B0393CDE90523236AF1
:104880000793054408236A4630461BF0AFFBE36AF2
:104890000093236B0193636B0293236A0693A36ACD
:1048A0000793054408236A463046CDE90477039709
:1048B0001BF0CDFC236B0093636B0193A36B0293FE
:1048C000E36B0393636A0693E36A07932D1A082345
:1048D0006A463046CDE904771BF0B9FC636B009360
:1048E000A36B0193E36B0293236A0393636A0493BC
:1048F000A36ACDE90537236B07932D1A08236A466F
:1049000030461BF0A4FCA36B0093E36BCDE90137A9
:10491000636A0393A36A0493E36ACDE90537636B83
:1049200007932D1A08236A4630461BF090FC2D1A77
:104930000D4C0FD435B90822314620461BF05DFCE2
:1049400001280FD008232246314630461BF07FFC59
:104950002D1AEFE708232246314630461BF046FB6E
:104960002D18F7D409B0F0BD048A0200F0B5284E26
:1049700007460C460FCE8DB001AD0FC50FCE0FC54B
:1049800096E8070085E80700002F3CD0002C3CD0BB
:10499000381F2146024610344B780D781B0443EA39
:1049A0000563CD782B438D78043143EA05238C428F
:1049B00042F8043FF0D1174C04218A07036918D14B
:1049C0004FEA33631A0EA55CDAB2A25C42EA0562D2
:1049D000C3F30745C3F30723655DE35C42EA054281
:1049E00042EA03220CAD21F003032B4453F82C3C84
:1049F000534050F8042F013153402C290361DCD17E
:104A000001200DB0F0BD3846FBE72046F9E700BFB6
:104A1000D0860200081F06002DE9F043154689B034
:104A20000746002859D000295AD0002A5AD010230E
:104A30000A46684619461BF014FA29466846DFF80C
:104A4000A8901CF01BF905F11006C846A0356C466D
:104A50006A4610231178013B19F8011002F8011B76
:104A6000F8D168461CF04FF9694604A81CF084F997
:104A700001A905A81CF080F902A906A81CF07CF980
:104A800003A907A81CF078F9102319460DEB0302BF
:104A900068461BF0E6F93146684610361CF0EEF821
:104AA000AE42D4D110262378013E18F8033004F822
:104AB000013BF8D168461CF026F9294668461CF0EF
:104AC000DDF8102319466A4638461BF0CAF96846D5
:104AD000102231461BF0D2F9012009B0BDE8F08365
:104AE0000846FAE71046F8E7081F060030B500222E
:104AF00087B00D490D4823F075FA0D4D0D4900247E
:104B00000E23CDE90243CDE90444CDE900440A4B2C
:104B10004FF4407228461AF0D5F90849284623F088
:104B20007FF9204607B030BD414B00007C000020DB
:104B3000C400002058AD0020954F00001120060051
:104B400001481AF01BB900BF2CEF0020F0B500237C
:104B50000F4E1A461C46012710F8015B0DB18A4220
:104B600001D31846F0BD252D02D184F00104F3E7EE
:104B7000002CF1D015F806C01CF0030FECD0732DFB
:104B800004BF07FA02F4234301320024E4E700BF24
:104B90007987020008B500F05DFA09481CF02AFA8E
:104BA000042328220748084922F016FF074B084A29
:104BB0001A604FF40040BDE8084000F08FBC00BF11
:104BC00074000020A8000020C0D60020DCE60020F1
:104BD00033100200F8B50F4BBFF35B8F002553E88D
:104BE000007F43E80052002AF9D1BFF35B8F0A4CE3
:104BF0000A4E361B3611B54200DBF8BD63685B799F
:104C00002BB12368DB6813B139462046984701353C
:104C10001034F0E76C000020B8860200C88602005D
:104C2000064BBFF35B8F53E8002F013243E80021AE
:104C30000029F8D1BFF35B8F704700BF6C000020E4
:104C4000044A054B9B1AB1EBD30F34BF52F8310025
:104C50000020704740850200B8860200094B426878
:104C6000C31A1B11013310B513714368064C196048
:104C700001225A71227812B904481AF07FF80123F0
:104C8000237010BDB8860200536100202CEF002075
:104C900070B5154B154C1B1B902B06DD144B154A9C
:104CA000154840F2ED11FBF785FA144ABFF35B8F0C
:104CB00052E8006F711C42E800100028F8D1BFF3E1
:104CC0005B8F16B91D11AE4200DB70BD237B43B173
:104CD00023685B6903B19847042200212046FFF74F
:104CE000BDFF01361034EEE7C8860200B886020028
:104CF000192006000820060066200600700000202B
:104D0000164B984273B5044602D3154B98421FD3F5
:104D1000002201A9134819F027FB0646D8B9012241
:104D2000019BBFF35B8F53E8001F43E8002000287E
:104D3000F9D1BFF35B8F019D2B1D1F222146184621
:104D4000FCF7CCFF7E2285F8232085F824600446FA
:104D5000204602B070BD044CFAE700BF5482020046
:104D6000ECD90600A80000204C20060048B1054BF5
:104D7000984205D3A03398422CBF002001207047F1
:104D800000207047C0D600202DE9F84F464B1B7815
:104D9000054603B960B34FF02003EFF3118683F3A8
:104DA0001188BFF36F8F41481CF034F9044686F335
:104DB0001188BFF36F8F78B1BFF35B8F3C4B53E823
:104DC000002F013A43E800210029F8D1BFF35B8F9F
:104DD0008DB120461CF027FA25B9364B1B680BB164
:104DE000FFF7F8FE31481CF013F9051C18BF012528
:104DF0002846BDE8F88F304B1B78ABB9237ADB0728
:104E000012D41CF023FA814620461CF0ECF901462E
:104E10004846FFF79BFE294B294ADFF8BCB09B1A96
:104E20000746C3F3C90A37B9264E274FBF1B3F11A8
:104E30004FF0000834E0B7FA87F6C6F11F06314696
:104E400020461CF0D3F9214B9842024602D3204B56
:104E5000984214D31046FFF789FF80B91D4B9A4240
:104E60000DD028F03F0343F0010363F307086AF312
:104E70008F1843464A46314658461CF0FFF8012336
:104E800003FA06F627EA0607CDE773685B7923B1D4
:104E9000336821461B683046984708F101081036F0
:104EA000B845F2DB95E700BF536100207400002095
:104EB000680000206C000020546100207086020011
:104EC00040850200B8860200C886020054820200B3
:104ED000ECD906004C20060090200600264B70B549
:104EE0001B68418105469847244CE860BFF35B8FFF
:104EF00054E8003F013344E80032002AF8D1BFF300
:104F00005B8F4FF02003EFF3118683F31188BFF31B
:104F10006F8F1B4829461CF071F886F31188BFF388
:104F20006F8F184B1A787AB14FF02003EFF311848A
:104F300083F31188BFF36F8F0020FFF725FF84F301
:104F40001188BFF36F8F70BD0F492368096800296E
:104F5000F9D0012B06D14FF47A710C48BDE87040AE
:104F60001AF000BA0A2BEED1084823F047F8084897
:104F7000BDE8704019F002BFDCE6002068000020A8
:104F80007400002054610020300100207C000020CB
:104F90002CEF002008B5FFF77BFE19F0E9FE0B4B64
:104FA000186030B10A4B1B68092B02DD094819F063
:104FB000E5FE084C0020FFF7E7FE0028FAD14FF08D
:104FC000FF31204619F006FFF4E700BF3001002052
:104FD000680000202CEF0020F8B50E4F3D7875B921
:104FE0000D4C0E4EFFF754FE361B3611B54207DB53
:104FF0000020FFF7C9FE0028FAD101233B70F8BD5D
:1050000063685B791BB1236820461B6998470135AB
:105010001034EBE754610020B8860200C886020015
:1050200007B504380190BFF35B8F50E8003F5A1E6C
:1050300040E800210029F8D1BFF35B8F012B03D199
:1050400001A9034819F0BCF903B05DF804FB00BFE7
:10505000A800002020231A460149024822F0BCBCC7
:1050600060D700203401002037B50023094D01939B
:105070000120FFF789FE0446FFF7D2FD002201A9B7
:10508000284619F071F908B1002CF1D1019803B04C
:1050900030BD00BF3401002007B5002201A9064839
:1050A000019219F061F910B1FFF7DEFF019001984C
:1050B00003B05DF804FB00BF34010020F0B5047AB2
:1050C000467A85B014F0010401904FEA16160ED00E
:1050D000019B1A7A920704D55B69184C0393039BD2
:1050E0002BBB01A9154819F06BF905B0F0BD002ED6
:1050F000EED0254617E029461CF078F80746FFF762
:1051000035FE78B13CB9019B31461869FFF71EFDA9
:1051100004460028DCD024FA05F3DB0702D5384624
:10512000FFF77EFF0135AE420198E4D8D0E71D6855
:1051300003A9204619F044F90395D0E73401002073
:105140000EB403B503AB014653F8042B0448019396
:105150001AF0BFFC002002B05DF804EB03B070470A
:10516000991602002DE9F04F85B011F002040646B1
:1051700090469DF8387001F0010901F0080507D04C
:1051800011F0440F37D11A463249FFF7D9FF0446D0
:10519000B9F1000F0AD0304B304953F82720304B7B
:1051A0003046002A08BF1A46FFF7CAFF3DB12D4B13
:1051B0002D4953F827203046FFF7C2FF0546B8F1C6
:1051C000000F44D0012303FA07F7284B17F0100F04
:1051D000274F18BF1F46BDF840109DF83C00FFF751
:1051E0002FFD394602463046FFF7AAFF28442044E7
:1051F00005B0BDE8F08F1F4A116831B31E4A4FF465
:10520000616E1468B3FBF4F34FF47A7CB3FBF1F4F2
:10521000B4FBFEF20EFB124E01FB14340CFB04F443
:105220004FF03C0AB4FBF1FB01FB1B44BEFBFAF35D
:105230000CFB04F4B4FBF1F1CDE901B10AFB13E17D
:1052400000910E49FFF77CFFA1E708469FE7084F52
:10525000C1E700BF10210600B08A0200DC2B060067
:1052600002210600C48A0200352106000C21060036
:1052700007210600500100205401002019210600DA
:1052800038B50C46E107054603D5084A0849FFF73B
:1052900057FFE20608D4A30628464CBF0549064935
:1052A000BDE83840FFF74CBF38BD00BF0221060003
:1052B000DC2B0600F4200600F32006002DE9F04761
:1052C0009846089BDD0604460E46174605D4990607
:1052D0004CBF2A492A49FFF733FFDFF8AC9000257D
:1052E00045452DDBDFF8A480DFF8A490DFF898A017
:1052F0000025AF4231D9725D49462046FFF720FFB5
:105300000135102D22D11F49DFF87C80DFF8849011
:10531000DFF884A02046FFF713FF0025AF4228D90D
:10532000725D12F8093013F0970F08BF2E22514614
:105330002046FFF705FF0135102D13D1BDE8F0879A
:1053400049462046FFF7FCFE0135C9E76A07D0D180
:1053500051462046FFF7F4FECBE741462046FFF7D3
:10536000EFFECDE76B07D9D141462046FFF7E8FEB7
:10537000D4E741462046FFF7E3FEDCE7F4200600D1
:10538000F3200600D0200600CE200600CC20060028
:10539000C620060079870200D22006002DE9F047DA
:1053A0008B7A13F0070417468AB005460E460A7A30
:1053B0001CD04989C3F3C2038909D2430291CDE9C4
:1053C000004302F00102F3683946FFF7CBFE814645
:1053D000337ADA070CD4294630461BF0F3FF4CB37E
:1053E000224639462846FFF74BFF23E0A146EFE768
:1053F00034BB2746EB68069306AA3B46A9683046AD
:105400001BF0CCFF069A6B681A603AB1AB68134484
:1054100013F8014CA4F10A035C425C4128461CF0DD
:105420002EF9069B1F44002BE4D11CB114492846D9
:10543000FFF786FE28461CF022F90AB0BDE8F08787
:1054400030461BF003FF0F4902462846FFF778FE5F
:105450004FF000084FF0100A05AA434606A930464F
:10546000CDF814A01BF09AFF059A002AB8D04B463D
:10547000009706A92846FFF721FF059B9844EBE714
:10548000D5200600DC2B060073B5D0E900435D682B
:105490000F4A42F20F738B4228BF0B466846052124
:1054A000FBF76FFA2B4606460B22204609491BF0F4
:1054B0007CFF2B463246694620461BF076FF2B4682
:1054C0001B22054920461BF070FF02B070BD00BFD3
:1054D000F23B0600F6200600D7200600084A10B569
:1054E0000123084C13600021A04204D801B11360CD
:1054F000054B186010BD40085B000121F4E700BFB8
:105500005401002040420F0050010020014B0122B5
:105510001A7070476561002008B503481CF0AFF8A9
:10552000024B01221A7008BDF08A02006661002059
:105530000148FFF7A9BF00BFF08A020010B5084676
:105540000C461BF043FE214604480F22FFF726FFBE
:105550002046BDE810401BF066BE00BFF08A020086
:10556000044B1B781BB141F2883022F057BC052058
:1055700019F0D6BB666100202DE9F84F214FDFF806
:105580008C9082460E460424B8463B7823B94FF0EF
:10559000FF31484618F0DEFF32465146002001F048
:1055A000F7F998F80030834613B9484619F044F8E3
:1055B000154DBBF1000F18D001232B7098F8003067
:1055C00033B93046BDE8F88F5CB92C704FF0FF342A
:1055D000002001F029FA0028F3D02B78002BF3D11A
:1055E000EFE7013CFFF7BCFFF2E72B7813B1013C7A
:1055F00004D12C702B78002BC7D1E2E7FFF7B0FF66
:10560000F8E700BF6661002065610020CCEF002054
:105610001FB507240294044C0194BDF8184000946F
:105620001DF03EFF04B010BDB8ED002003234FF085
:10563000000263F307020748074B1B1ADB08074801
:1056400063F38F12064B012914BF01461946054822
:105650001BF000BD40850200488502009121060034
:10566000892106009A21060010B5084C86B02478DE
:105670008DF81740012402940DF117040194BDF830
:10568000204000941DF00CFF06B010BDBFED0020BF
:10569000024B01221A700020704700BF6761002092
:1056A0001FB501240294044C0194BDF818400094E5
:1056B0001DF0F6FE04B010BD6761002003234FF01B
:1056C000000263F307020748074B1B1ADB08074871
:1056D00063F38F12064B012914BF01461946054892
:1056E0001BF0B8BC408502006086020091210600D4
:1056F00089210600B321060038B5044C044DAC42A4
:1057000000D338BD54F8043B9847F8E7948302006F
:105710009483020038B5054C256804EB850405B96F
:1057200038BD54F80439013D9847F8E78C830200EE
:105730002DE9F3410C0C24048289214605461CF016
:1057400042F8061E2ADD0021A86A2F68B5F80C80F1
:105750001BF0D8FF064608BB04234FF0000263F39A
:1057600007021049104B11485B1ADB08240C63F345
:105770008F1208FB0474ADF80020AB890C49224657
:105780001BF094FCA86AAA89436821469B68984745
:10579000064618B90121A86A1BF0B4FF304602B0D2
:1057A000BDE8F0814085020058860200FE21060017
:1057B000CC2106002DE9F043082385B00D46096889
:1057C000047C07461BF0A1FF68B9082120461BF0A6
:1057D000E7FF2968BB8901448AB21B1A9A42064630
:1057E000296003D0002005B0BDE8F0830B0C03BF97
:1057F000FB8903F1FF3301EB0341A1F580312960FF
:1058000008236A4638461BF080FF0028EBD16A4621
:10581000034612F8011BFF2915D10133082BF8D1DB
:105820007B682B60DFE7BA89BDF80230921B934298
:105830000FD2B3FBF6F206FB123252B9240C240449
:105840001C442C60CFE768461BF095FF2C680028AD
:10585000E9D0104BA41B2C6004EA03089946A0452C
:10586000C0D208230DEB0302214638461BF04DFF42
:105870000028B8D102A81BF07EFF40B9BDF80A305D
:10588000BDF80C202C6008EA090813449844A41BB6
:10589000E5E700BF0000FFFF2DE9F04F044697B099
:1058A0000821007C1BF07CFF63681B0C1B048046F6
:1058B00005A9E08905931BF07CFF059BA18908AD34
:1058C0001944A1EB08012A460823204606911BF043
:1058D0001CFF021EC0F285800023EA5CFF2A40F014
:1058E00084800133082BF8D105992046FFF720FF6B
:1058F000024676E04E45354628BF4D460EAA2B4659
:10590000394620461BF001FF0246002869D135B117
:105910000EAA2B46A16820461BF079FF02462946B5
:10592000207C1BF03DFFA3681844A060002A58D1DA
:10593000A9EB05092F444AE0D845D5D00AAA06A903
:105940002046DDF818B0FFF735FF0246002848D1A1
:10595000636807930CAA07A92046079DFFF72AFF53
:10596000024600283DD1BDF83020BDF828309A42CB
:10597000F0D10CA81BF0FFFE0028EBD1AB45DBD12A
:10598000BDF82C30002BD7D02AF03F0242F00402A1
:1059900062F3070A029A1D491D4862F38F1AADF897
:1059A00000A0BDF828201BF081FB039B0BEA030736
:1059B000BDF82A300AA81F44A368ADF82A301BF0AE
:1059C000E6FE267CBDF82C90764206F02006B9F162
:1059D000000F8FD10AA920461BF05FFF0246002866
:1059E000AAD0104617B0BDE8F08F069B094ABDF853
:1059F0002210A3EB080813400B4406930649074BFB
:105A00005B1AC3F3C903CDE9023297E7E32106002D
:105A10001F2206000000FFFF40850200588602009A
:105A20002DE9F043044687B00D4600F114063046D8
:105A300021F0FCFF284618F0F3FAA06298B9012380
:105A40004FF0000163F30701A04AA14BA1489B1A44
:105A5000DB0863F38F111BF0F0FA6FF005052846A1
:105A600007B0BDE8F08343681B7D2374202B10D959
:105A700001234FF0000163F30701944A944B9648C9
:105A80009B1ADB0863F38F111BF0D7FA6FF0150533
:105A9000E5E7A06A216803AA1FF0F4FB60B10123C7
:105AA0004FF0000163F30701884A894B8B489B1A2A
:105AB000DB0863F38F11E7E7A3892BB1049AB3FBEB
:105AC000F2F502FB153565B101234FF0000163F3D8
:105AD00007017E4A7E4B82489B1ADB0863F38F11D5
