:10000000B0050020C50900008B2A00003D09000052
:100010003D0900003D0900003D0900003D090000C8
:100020003D0900003D0900003D09000035080000C1
:100030003D0900003D090000E1070000772A0000AB
:100040008509000085090000850900008509000078
:100050008509000085090000850900008509000068
:100060008509000085090000850900008509000058
:100070008509000085090000850900008509000048
:100080008509000085090000850900008509000038
:100090008509000085090000850900008509000028
:1000A0008509000085090000850900008509000018
:1000B0008509000085090000850900008509000008
:1000C00085090000850900008509000085090000F8
:0C00D0008509000085090000850900007A
:1000DC0053B94AB9002908BF00281CBF4FF0FF31A3
:1000EC004FF0FF3000F00CB8ADF1080C6DE904CE08
:1000FC0000F008F8DDF804E0DDE9022304B07047F5
:10010C00704700BF2DE9F04F099F154604468E46F7
:10011C001E46002B40F0CC808A42B2FA82FC4CD9AD
:10012C00BCF1000F0BD0CCF1200801FA0CFE20FA28
:10013C0008F802FA0CF548EA0E0E00FA0CF44FEA35
:10014C0015491FFA85F8BEFBF9FA210C09FB1AE3D5
:10015C000AFB08FB41EA03439B452AD9EB180AF139
:10016C00FF3004D29B4502D9AAF102002B44A3EB29
:10017C000B03A4B2B3FBF9F209FB123302FB08F830
:10018C0044EA0344A04516D92C1902F1FF3303D2DB
:10019C00A04501D9931E2C44A4EB080443EA00406B
:1001AC0027B124FA0CF400233C607B603146BDE897
:1001BC00F08F5046DBE71346EEE702B9FFDEBCF1E9
:1001CC00000F2ED18B1A01264FEA154EAAB2B3FBA3
:1001DC00FEF8210C0EFB183308FB02F941EA03432D
:1001EC00994561D9EB1808F1FF3004D2994502D931
:1001FC00A8F102002B44A3EB0903A4B2B3FBFEF15C
:10020C000EFB11334A4344EA0344A2424ED92C1943
:10021C0001F1FF3303D2A24201D98B1E2C44A41A44
:10022C00BCE7CCF1200E02FA0CF521FA0EF901FA1A
:10023C000CF320FA0EFE4EEA03034FEA154800FABF
:10024C000CF4B9FBF8F11FFA85FE08FB1192180C9F
:10025C0001FB0EF640EA0242964221D9AA1801F19E
:10026C00FF3003D2964201D9881E2A44921B9BB2BE
:10027C00B2FBF8F908FB192209FB0EFE43EA024314
:10028C009E450FD9EB1809F1FF3604D29E4502D9D1
:10029C00A9F102062B44A3EB0E0346EA004693E7B2
:1002AC000846E3E74E46F6E74046A4E70B46B6E7BA
:1002BC008B4205D90FB1C7E900010026304675E71E
:1002CC00B3FA83FCBCF1000F0FD18B4201D38242F5
:1002DC0009D8841A61EB030E0120002F6AD0C7E9FC
:1002EC00004E002662E76046F7E7CCF1200E03FAD9
:1002FC000CF322FA0EF521FA0EF41D4301FA0CF35D
:10030C0020FA0EF10B434FEA154A00FA0CF6B4FB37
:10031C00FAF91FFA85F80AFB19401C0C09FB08F1C5
:10032C0044EA0044A14202FA0CF23FD92C1909F11B
:10033C00FF3004D2A14202D9A9F102002C44641A64
:10034C009BB2B4FBFAF90AFB194409FB08F843EA1F
:10035C00044188452CD9691809F1FF3304D288452A
:10036C0002D9A9F10203294443EA0040A1EB080198
:10037C00A0FB02894945C2464C4602D306D14645EC
:10038C0004D2B8EB020A69EB0504013897B1B6EB5D
:10039C000A0361EB040606FA0EFE23FA0CF34EEA8E
:1003AC00030326FA0CF6C7E900369AE74846C6E777
:1003BC004B46D9E73E46F9E608B5094B1A680132B7
:1003CC00C82AC8BF00221A601A78064B1A7000F0AF
:1003DC00BFF9BDE808400146034802F031BA00BF3E
:1003EC001400002001F00020B633000070B51D4B46
:1003FC001D4E1E4800251D7003F8015C357002F07F
:10040C001FFA1B4801F054FA044628B9194802F0A7
:10041C0017FAEE23337070BD43680A221E68294612
:10042C000123B047636829461E681C224FF493735E
:10043C002046B0471049114B4B604FF080538B60F6
:10044C006368DB6813B101222046984763681B6917
:10045C001BB11C220021204698474FF4FA7001F082
:10046C00F7FDFAE701F0002002F000207C330000D9
:10047C00A8330000AF33000008000020C5030000C3
:10048C000B6801330B60014B1B681847F00E002002
:10049C002DE9F04F85B09B460E9CDFF88890012C1F
:1004AC00B8BF0124012B0CBF3023202316468246F3
:1004BC008846029301250A270022B6FBF9F3019323
:1004CC000AB9B1451DD8019B414603F13000D04714
:1004DC0001350122019B013F012F09FB13664FF0EF
:1004EC000A03B9FBF3F9E8D1414606F13000D047D5
:1004FC00BBF1030F02D1641B002C0EDC05B0BDE870
:10050C00F08FBC42E6DBBBF1020FE3D84146029808
:10051C0003920135D047039ADCE741462020D047AF
:10052C00013CE9E700CA9A3B07B500230193024658
:10053C000B46034801A902F013F803B05DF804FB65
:10054C008D040000164B07B51A6882B14FF080423B
:10055C00D2F80423D1070AD500221A601B6811486F
:10056C000093009B8368597A09B902F08FF90E4BFE
:10057C001A688AB14FF08042D2F8042392070BD547
:10058C0000221A601B680193019B0648012103B0ED
:10059C005DF804EB02F07AB903B05DF804FB00BF20
:1005AC00000100404C0F0020040100400D4B0022C4
:1005BC00C3F840214FF02002EFF3118182F3118830
:1005CC00BFF36F8F084AD3F804051368C01A20F0E4
:1005DC007F400344136081F31188BFF36F8F01F0E8
:1005EC00E1BE00BF001001403000002073B51C4874
:1005FC0001F05EF980B343681A4D1B6801219847DE
:10060C00012600244FF48033C5F80845C5F8406531
:10061C00C5F8043303F1804303F58A534FF40032D9
:10062C001C601B680193019B0F4B3146C3F8802162
:10063C001120224600F018F9112000F005F90B4B9F
:10064C001E602E60D5F80435334423F07F43C5F883
:10065C004035204602B070BD4FF0FF30FAE700BFC6
:10066C00CC3300000010014000E100E00810014014
:10067C00F0B5254EB0F1FF3F08BF30464FF02003D8
:10068C00EFF3118583F31188BFF36F8F1F49204B54
:10069C00D1F804451B68E21A22F07F47120219D4E4
:1006AC00421E22EAE272B242A8BF3246781C1044C3
:1006BC00B04294BF18189819041B24F07F4420F002
:1006CC007F43022CC1F8403506D985F31188BFF35E
:1006DC006F8FF0BD0022E9E7D1F804350D4AC31A3B
:1006EC0023F07F435C1E944205D90B4B4FF4003230
:1006FC00C3F80021E9E7012B02BF023020F07F4054
:10070C00C1F84005E1E700BFFEFFFF00001001400B
:10071C0030000020FEFF7F0000E100E04FF02002DF
:10072C00EFF3118382F31188BFF36F8F064AD2F86F
:10073C000405064A1268801A20F07F4083F3118862
:10074C00BFF36F8F704700BF0010014030000020D6
:10075C004FF02003EFF3118283F31188BFF36F8FF7
:10076C000649074B0868D3F8043582F31188BFF3A8
:10077C006F8F1B1A23F07F43184470473000002002
:10078C000010014004488168406A884203D0034944
:10079C004FF080520A6070476801002004ED00E0C1
:1007AC00094A0A49936809689966094958664B6869
:1007BC0043F080534B60002383F31188BFF36F8F9A
:1007CC009368986E704700BF680100207833000072
:1007DC0000ED00E012498A684FF028001044EFF356
:1007EC00098C80E8F01F202080F31188BFF36F8FF5
:1007FC000C4F4FF000664A6A8A603E60506E0023D0
:10080C00536680F3118804B5104602F03FF9BDE839
:10081C00044002F1280090E8F01F8CF3098870471F
:10082C006801002004ED00E01EF0040F0CBFEFF394
:10083C000880EFF30980816911F8021C0229FFD0AE
:10084C0001B502F018F901BD43B2002B08DB0122FF
:10085C0000F01F0002FA00F05B09024A42F8230084
:10086C00704700BF00E100E043B2002BA8BF03F1CA
:10087C00604301F101014FEA4111AEBF03F5614341
:10088C0000F00F00034BC9B2ACBF83F8001319542E
:10089C00704700BF14ED00E073B51E460A9B009331
:1008AC008C18099B054602F0EDFBA4F120030A4AC3
:1008BC0023F0070322F001029A61069A5A60079A04
:1008CC009A60089ADA604FF080721E60DA61AB644D
:1008DC0000236B6602B070BD67280000F8B50546B2
:1008EC000C4617461E4600F079F90A4B3C44284644
:1008FC009D6024F0070402F0C9F8304684F309889F
:10090C00002163B681F31188BFF36F8F002200239F
:10091C0001F0A3FF68010020014910220A60704712
:10092C0010ED00E0404080F3118830BF704700BFED
:10093C00EFF30880EFF30981724601B500F0A0F8DF
:10094C0001BD00BF30BFFFF7FDBF00BF08B5084BAE
:10095C00084A23F07F039360BFF34F8FBFF36F8F71
:10096C0000F0E6FF00F0EEFF00F006F901F01CF8D5
:10097C000000000000ED00E001B572B60B4A106AF1
:10098C0000281EBF0021116202F0ECFA62B6EFF3F0
:10099C000580A0F110004FEAC0000549014409C9C7
:1009AC009847BDE801400349084700006801002052
:1009BC00403100009107000002F0C8F8202080F3BD
:1009CC00118808484FF40061401880F30988EFF350
:1009DC0014800221084380F31488BFF36F8FFFF754
:1009EC00B5FF0000F00600200C4B9A6A9A6A9A6ACE
:1009FC00920708D55A6B9A6A120604D518B19A6AEE
:100A0C0022F080029A62054B9A6A9A6A9A6A9A6AEA
:100A1C00002042F0FF029A620870704700ED00E07F
:100A2C000D4B9A6A9A6A9A6A920508D59A6B9A6AD9
:100A3C00120404D518B19A6A22F400429A62064B49
:100A4C009A6A9A6AD20558BF9A6A9A6A002042F446
:100A5C007F429A620870704700ED00E0074B9A6A7B
:100A6C009A6A9A6A9A6A9A6A9A6A9A6A6FEA0242C5
:100A7C006FEA12429A620020704700BF00ED00E05E
:100A8C0070B5364B5B688AB0C3F30803002585F359
:100A9C001188BFF36F8F02F07F44B4F17F4F12D1F6
:100AAC0002F00C04082C0ED014074EBF0E4606465E
:100ABC0001250022033B8DF80720032B47D8DFE8E4
:100ACC0003F0043E423B2E46F3E7244BDA6A9207CE
:100ADC003DD4DC6A14F0804408D028331B78EBB189
:100AEC000DF107010120FFF77FFF04469DF8073049
:100AFC0093B92022314602A801F0DCFF099B45B3D3
:100B0C00C3F3080222B96FEA53236FEA4323099314
:100B1C0002A9204601F0ADFF0AB070BD104B1B7846
:100B2C002BB10DF107010120FFF77AFFDDE70D4B2B
:100B3C001C88A4B2002CD9D0FFF790FFD5E70DF19B
:100B4C0007010020CFE70DF107010020ECE700249E
:100B5C00CCE723F4FF7323F00103D8E700ED00E0AA
:100B6C0029ED00E02AED00E0024A536943F010033E
:100B7C005361704700ED00E0044800232021C218A7
:100B8C000133272B82F80013F9D1704700E100E004
:100B9C0038B505464FF02003EFF3118483F3118829
:100BAC00BFF36F8F01F00EF90A4B9B68AB420BD170
:100BBC00094B5A68C2F3080212B92046FFF7F0FD40
:100BCC005A6842F080525A602046BDE8384002F024
:100BDC00DFB900BF6801002000ED00E01FB5084B35
:100BEC000193084B0293084B039301AB0093074A04
:100BFC00074B0121684600F091F805B05DF804FB45
:100C0C00000000200000000000000B060000002087
:100C1C0000000120F0B5204F00268E4201DB10466B
:100C2C00F0BD50F826C0DCF8044094B35BB104F17D
:100C3C00FF3E14EA0E0F1AD11F2C18D9DCF8005005
:100C4C001EEA050F13D1202CDCF80050DCF808C08C
:100C5C00D2B20FD9B4F1004F0ED8013CB4FA84F4DF
:100C6C00C4F11F046400072A4CEA040406D96FF08F
:100C7C001502D4E70824F6E73E24F4E725F01F0517
:100C8C00154345F0100544F00104BA60FD600132D3
:100C9C003C610136C1E700BF90ED00E0034B05223B
:100CAC005A60BFF34F8FBFF36F8F704790ED00E02A
:100CBC00BFF35F8F014B00225A60704790ED00E04C
:100CCC0013490868082810B51ED8FFF7F1FF114C1E
:100CDC0049680022904201F10C0105D10E4B1870AD
:100CEC00FFF7DCFF002010BDA26051F80C3C23F094
:100CFC001F03134343F01003E36051F8043C43F02B
:100D0C00010323610132E5E74FF0FF30EBE700BF51
:100D1C00F832000090ED00E0A801002010B5034C63
:100D2C0001232278FFF776FF207010BDA801002068
:100D3C0008B5084A00231278FFF76CFF10F1160F64
:100D4C0003D0054B0022072800DD08BD98601A610E
:100D5C000130F8E7A801002090ED00E04FF02003EF
:100D6C00EFF3118283F31188BFF36F8F06490123D0
:100D7C00C1F840354FF08041C1F8783582F31188C5
:100D8C00BFF36F8F0020704700E0014008B5094B9E
:100D9C001A786AB90121197006200521FFF764FD44
:100DAC000620FFF751FD044B4FF00042C3F804231B
:100DBC00002008BDA90100200060004073B5036845
:100DCC00554D9B688268D5F80443187901F01F03D0
:100DDC0043EA4013E4B2002000F5A27655F82660F1
:100DEC00C6F30426B34275D124FA00F6F60771D582
:100DFC00840004F1804404F5C044D4F8106526F056
:100E0C000106C4F81065012404FA00F0C5F80803C3
:100E1C009C0004F1A044D4F8000720F44030C4F83E
:100E2C0000079068C84010F0010051D0D068C8404D
:100E3C0010F001004CD05069C84010F0010056D0A1
:100E4C009069C840C0074AD41069D269C84022FAD8
:100E5C0001F100F0010001F00101884214BF0121F1
:100E6C0002212D4D002404F5A27255F8220010F039
:100E7C00030036D1A20002F1804202F5C0421B02EF
:100E8C00D2F8106503F4F85343EA014126F44736CF
:100E9C0004F1400326F440769B00C2F810659BB227
:100EAC00D2F8106503F1804303F5C0433143C2F817
:100EBC00101518601B680193019BD2F8103543F094
:100ECC000103C2F81035012303FA04F4C5F80443F6
:100EDC0002B070BD013008287FF47EAF98E7032183
:100EEC00BFE70134082CBED16FF01200F0E7136994
:100EFC00D269534023FA01F1D4F8003711F0010FF5
:100F0C0023F4403314BF4FF400324FF440321343F8
:100F1C00C4F80037DCE700BF006000402DE9F34166
:100F2C0053490D68002D67D0524B9A681B689E6818
:100F3C00D2E902030340D2E90504204323EA00036B
:100F4C003068D4691269D0F810055440444023EA43
:100F5C00040401200027002B38D10B600B68009390
:100F6C00009B4548002301261F46D0F8042306FAAF
:100F7C0003F1114213D09A0002F1804202F5C242F1
:100F8C00116861B103F5A27150F821101760126855
:100F9C000192C1F3042106FA01F1019A0C430133C9
:100FAC00082BE2D154BB75B1324B99681B689E6813
:100FBC00D1E902231340D1E90520024323EA0203BD
:100FCC00012400258BBB02B0BDE8F081034210D098
:100FDC0096F804C007F01F0242EA4C12920002F18C
:100FEC00A04223EA0003D2F800C72CF4403CC2F81C
:100FFC0000C701374000AEE72C46B2E71D4FD7F8CB
:10100C000880D8F800100029CDD00E68D8F80C3024
:10101C008A682340134203D04B68224638469847CF
:10102C00002EC0D031463668F0E71C421CD0307917
:10103C00CF6905F01F0242EA40120869920078401D
:10104C0002F1A042E84010F0010FD2F8000718BFDF
:10105C004FF4003720F4403008BF4FF4403738438A
:10106C00C2F8000723EA040301356400AAE700BFB5
:10107C007C610040640F00200060004010B5044605
:10108C00002201210420FFF7EFFB2368064A986831
:10109C00234600F1080100F0BFFA044B984214BF3C
:1010AC006FF00F00002010BD911100000000AD0B7F
:1010BC002DE9F04F054687B00C46174699468068D7
:1010CC004FF0FF3101F018F82B68DFF8B480986806
:1010DC0000F0E6FA0026BE4201D300242BE094F87F
:1010EC0008B01BF0080A43D1122251460DF106003C
:1010FC0001F00AFD626802920BF0010322688DF880
:10110C0004301BF0020F8DF8059004921ED17A1E4C
:10111C00B24202D9227D52071AD54BBB20222B6832
:10112C0001A9986800F0E6FA404513D0134B984299
:10113C0021D06FF004042B68986800F0C1FAA868FD
:10114C0000F0B4FF204607B0BDE8F08F5246E6E74A
:10115C004022E4E7A86810304FF0FF3100F0CCFFDC
:10116C00AB681B6A434504F10C04E2D10136B2E7CB
:10117C006FF02204DFE76FF00F04DCE70B00AD0B20
:10118C000000AD0B02788B68012A0AD01AB1022A32
:10119C0009D0064A00E0064A1A6203F1100000F07A
:1011AC0085BF044AF8E7044AF6E700BF0100AD0B1F
:1011BC000000AD0B0100AE0B0200AE0B044B186827
:1011CC00421C04BF034B1878831F58425841704788
:1011DC0030010010E00F00F0074B1B78062B09D1F3
:1011EC00064B1B68C3F30313033B032B02D8044ABF
:1011FC00D05C704700207047E00F00F0E80F00F063
:10120C00F133000008B5FFF7D9FF28B17C4B7D4ABC
:10121C001B68C3F304231360FFF7DEFF10B17A4B96
:10122C007A4A1A60FFF7CAFF28B1794B794A1B68D2
:10123C00C3F342331360FFF7CFFF20B1764AD36874
:10124C0023F08073D360FFF7B9FF40B14FF08043B8
:10125C000022C3F80C21C3F81021C3F83825FFF77E
:10126C00BBFF10B16D4B03221A60FFF7B5FF40B105
:10127C006B4B05221A6001229A6700229A603F226A
:10128C005A60684B1A68511C0BBF674B674B1A7836
:10129C001B6802BF08331B68C3F30313062A4DD126
:1012AC00033B032B03D8624AD35C002B46D04FF090
:1012BC008052604BD2F80414C3F82015D2F80814ED
:1012CC00C3F82415D2F80C14C3F82815D2F810144E
:1012DC00C3F82C15D2F81414C3F83015D2F818141E
:1012EC00C3F83415D2F81C14C3F84015D2F82014E6
:1012FC00C3F84415D2F82414C3F84815D2F82814AE
:10130C00C3F84C15D2F82C14C3F85015D2F830147D
:10131C00C3F85415D2F83414C3F86015D2F8381445
:10132C00C3F86415D2F83C14C3F86815D2F840140D
:10133C00C3F86C15D2F84424C3F87025FFF73EFFB0
:10134C0028B13D4B3D4A1B6803F04F031360FFF778
:10135C0035FF48B14FF08043D3F80024D20744BF87
:10136C006FF00102C3F800242E4B1B68062B09D129
:10137C002E4B1B68033B022B81BF314A136843F48D
:10138C00806313604FF01023D3F80022002A03DB94
:10139C00D3F80432002B2FDA2A4B0122C3F8042590
:1013AC00D3F80024002AFBD04FF010221521C2F8EC
:1013BC000012D3F80024002AFBD04FF01023152282
:1013CC00C3F804221F4B1A46D3F800140029FBD093
:1013DC000021C3F80415D2F80034002BFBD0BFF366
:1013EC004F8F1949194BCA6802F4E0621343CB6062
:1013FC00BFF34F8F00BFFDE7154B164A1A6008BDAF
:10140C00240300104035014074C007400DF0ADBA04
:10141C00440200103C050040F0ED00E0A005004047
:10142C001056004030010010E00F00F034010010A5
:10143C00F533000000C0004058020010E40E0040DC
:10144C003C17004000E0014000ED00E00400FA050C
:10145C001C0F00200090D00337B5344B01930D4680
:10146C004FF48271044601F0C2FC4FF4927101F00A
:10147C00BEFC4FF48E7101F0BAFC4FF4847101F094
:10148C00B6FC00236B6385F82F30AB6A012B18D1A7
:10149C002B6A5B0615D4022395F82D20C4F8003274
:1014AC00022A4FF00103236218BF23602B6893B10B
:1014BC0040F28623AB60AB681D48C4F8043303B01C
:1014CC0030BD0123E8E72946204601F0B8FC28B1DD
:1014DC00019B013B0193019B002BF4DC95F82F3011
:1014EC005BB91348019B002BE9DC0023C4F80035E1
:1014FC000523C4F800350F48E1E7D4F8C434C4F828
:10150C00C434002BEDD00C4A0A4813F0010F18BF5D
:10151C00104613F0020F02F1010218BF104613F02F
:10152C00040F064B18BF1846DCE700BFA08601006D
:10153C000000AD0B0100AD0B0000AE0B0200AE0BBA
:10154C0037B5304B01930D464FF48271044601F0D0
:10155C004EFC4FF4927101F04AFC4FF48E7101F085
:10156C0046FC4FF4847101F042FC002395F82D20C9
:10157C00C0F800326B6385F82F3001239A42036266
:10158C00294618BF836001F03AFC2B6883B140F206
:10159C008623AB60AB681C48C4F8043303B030BD81
:1015AC002946204601F04BFC28B1019B013B0193DD
:1015BC00019B002BF4DC95F82F305BB91248019B92
:1015CC00002BEBDC0023C4F800350523C4F80035F0
:1015DC000E48E3E7D4F8C434C4F8C434002BEDD07F
:1015EC000B4A0A4813F0010F18BF104613F0020FF4
:1015FC0002F1010218BF104613F0040F054B18BF7F
:10160C001846DCE7A08601000000AD0B0100AD0B15
:10161C000000AE0B0200AE0BF8B507791D4D4FF074
:10162C003C0C0CFB07FC05EB0C0494F82E607EBB09
:10163C0063604B7BA66084F82D6084F8306084F87E
:10164C00316084F838300C6845F80C204FF0A04617
:10165C0004F5E07340F20C6C46F823C04B6800684C
:10166C0003F5E07E46F82EC0C0F80845C0F80C35EE
:10167C008B68C0F824351AB140F30730FFF7E4F853
:10168C003C2303FB07550448012385F82E30F8BD95
:10169C000248FCE7540000200000AD0B0500AD0B28
:1016AC00026803790521C2F80015044A3C2101FBAC
:1016BC000323022283F82E20704700BF5400002021
:1016CC0003680A490279C3F80813D3F8001221F011
:1016DC000301C3F800120021C3F80015044B3C2190
:1016EC0001FB0232012382F82E307047864204003F
:1016FC00540000202DE9F047324D90F80480D0F8CA
:10170C0000903C2303FB08530E4693F82D30012B1D
:10171C00964604D10B78012B06D12B4811E0022BF5
:10172C0002D10B78012BF8D13C24284BC9F8083393
:10173C0004FB085494F830302BB1A3682448C9F842
:10174C000433BDE8F0878EF00403C3F3800384F800
:10175C003030C4F820E0B446BCE80F0004F10C07AC
:10176C000FC7DCF800303B607368A362F3686362F8
:10177C007378C9F888353378C8EB081A012B05EB58
:10178C008A0A1AD0B3B9CEF3401E3C2303FB08538C
:10179C00514683F82CE04846FFF7D2FE3C2303FB6E
:1017AC0008F805EB080255F80830002BC9D182F86F
:1017BC003030C6E74FF0010EE7E751464846FFF7D9
:1017CC004BFEEBE7540000200500AD0B86420400F5
:1017DC000B00AD0BF0B5294C87B021464FF04020E3
:1017EC0001F02DFBA446E0B994F82F70266AEFB9EE
:1017FC00237B9A1E012A19D8616AA269914215D1DC
:10180C00E2696262C6F340166269A262032B84F835
:10181C002C6084F82D7021464FF0402003D1FFF747
:10182C008FFE07B0F0BDFFF717FEFAE7144D0FCD92
:10183C0001AC0FC42B682360E7B14FF04022D2F803
:10184C00C434C2F8C43498070CD501238DF8003089
:10185C0000238CF830307307E3D4DCE900316846A0
:10186C009847DEE7590701D50223EFE7DA07EFD5F2
:10187C000323EBE78DF80070EAE700BF540000206B
:10188C0060000020094B70B553F820400130002651
:10189C0053F82050A54200D870BD236820465B68E1
:1018AC00984700B166600C34F4E700BF6433000065
:1018BC00104B70B5104C05461E469C4204D10E4C84
:1018CC00B44209D1002412E062681AB1226812688D
:1018DC00AA420CD00C34F0E763680BB90C34EFE778
:1018EC0023682846196801F0D9F80028F6D120465B
:1018FC0070BD00BF7C0F0020280F002008B50B4DD9
:10190C004FF02002EFF3118382F31188BFF36F8F36
:10191C0001F0DDFB012102280446D8BF084601F086
:10192C00E6FB2C62FEF7FEFFEAE700BF6801002031
:10193C000248034A0021121A01F0E6B80000002008
:10194C00AC01002008B50648064A0749121A01F0F6
:10195C00B1F8064A06490748BDE8084001F0AAB8A4
:10196C00F00E0020900F0020043400000000000056
:10197C00043400000000002008B5094B01220220AD
:10198C001A70FFF77FFF0320FFF77CFF00F034FC99
:10199C00FEF72CFD034A137B23F00103137308BDE0
:1019AC00AA010020FC00002080B5364BA2B083F3C6
:1019BC000888354C354E636943F400736361002528
:1019CC00E02384F82230E57725766576A576636A80
:1019DC0043F4E0236362FFF7C7F8FEF79DFF4FF077
:1019EC00FF33A362E36207AB6C222946184601F071
:1019FC008BF8274C0127A06028468DF82970FFF73B
:101A0C0041FF3846FFF73EFF00F0CAFA214B6662F1
:101A1C004FF48062CDE90473CDE902551E4B1F498A
:101A2C00CDE90055304600F0AFFB737B23F0040288
:101A3C0013F01B0F727304D1B36913B9304600F065
:101A4C00DFF8174B174D059301220F23CDE9033215
:101A5C000023CDE9013300934FF4A072124B1349CC
:101A6C00284600F091FB6B7BE56023F004036B735D
:101A7C000F4B0A490548C4E906334FF48062064B04
:101A8C00FEF72CFFF00E002000ED00E0FC00002023
:101A9C0068010020F933000085190000B001002016
:101AAC00FE3300009000002009190000B005002052
:101ABC008001002010B5084C23685BB1FEF72EFEA8
:101ACC002368064A1844106100211846BDE81040EE
:101ADC0001F00DBB10BD00BFA0010020680100206B
:101AEC00F8B50D464FF02003EFF3118483F3118802
:101AFC00BFF36F8F0D4B4FF4004140F2E7360027D8
:101B0C00E1FB006700221A6130464FF47A72002321
:101B1C003946FEF7DDFA064B1860064B1D60FFF7E1
:101B2C00C9FF84F31188BFF36F8FF8BD68010020E3
:101B3C00A00100209C0100204FF02003EFF3118145
:101B4C0083F31188BFF36F8F044B9A68D37B013BEF
:101B5C00D37381F31188BFF36F8F70476801002036
:101B6C00094B03F12802824205D19B688B4202D1BA
:101B7C004B7BDB0606D1D1E9003213605A6000239F
:101B8C00C1E90033704700BF6801002038B50D4C27
:101B9C00024604F1280001F011FA054600B9E56887
:101BAC00A3684AB95A7BD20606D1AA6922B9DA8946
:101BBC007F2A01D9636238BD9D4201D0FFF77AFFBD
:101BCC006562F8E76801002010B54FF02003EFF3D1
:101BDC00118483F31188BFF36F8F084B9A68D37B02
:101BEC000133D3730020FFF7D1FF84F31188BFF3C7
:101BFC006F8FBDE8104001F0D7B900BF680100201D
:101C0C00F8B54FF02003EFF3118483F31188BFF381
:101C1C006F8F154A114651F8283F8B421DD0E3B106
:101C2C00D66A90F90E5093F90E70AF4210DD5A68D7
:101C3C00C0E9003210605860437B43F040034373AB
:101C4C000020FFF7A3FF84F31188BFF36F8FF8BD5B
:101C5C00B34202D01B68002BE5D1D36A4360D36A30
:101C6C0001601860D062E7E768010020F8B504460F
:101C7C004FF02003EFF3118583F31188BFF36F8FBF
:101C8C00437B5A0603D501461748FFF769FF174AED
:101C9C00D2E90A3002F128018B421FD0F3B194F93A
:101CAC000E6093F90E70B74213DD5968C4E9003128
:101CBC000C605C60637B906843F040036373031BB0
:101CCC0058425841FFF762FF85F31188BFF36F8FBD
:101CDC00F8BD834202D01B68002BE2D1C4E900108E
:101CEC00D36A1C60D462E5E79001002068010020F3
:101CFC00154A164938B50C689368A342144603D1AB
:101D0C00BDE83840FFF7D6BE00250D6010490968C4
:101D1C00B9B1D9897F2914D80E4993F90E500968A5
:101D2C008D420EDB0C498B420BD0996949B9116974
:101D3C00814203DC1846FFF799FFE1E7091A1161AC
:101D4C0038BD00232361FBE76801002098010020C7
:101D5C00A00100209C0100209000002070B50446DA
:101D6C00183001F09EF94FF02003EFF3118683F346
:101D7C001188BFF36F8F637B5A0607D521460F4836
:101D8C00FFF7EEFE637B23F0400363730C4D637B24
:101D9C00A86843F010036373031B58425841FFF7C4
:101DAC00F5FE86F31188BFF36F8FAB68A34203D1A6
:101DBC00BDE8704001F0F8B870BD00BF9001002084
:101DCC0068010020036D70B5044603B1984704F117
:101DDC00180001F066F94FF02003EFF3118583F33F
:101DEC001188BFF36F8F204601F0BEF8637B064667
:101DFC00C8B1590607D521461148FFF7B1FE637BE0
:101E0C0023F0400363730F4B9868021B5042504100
:101E1C00FFF7BCFE637B43F00803637385F3118803
:101E2C00BFF36F8F70BD9B07F4D52146A068FFF7F9
:101E3C0097FE637BA66023F002036373EAE700BF9F
:101E4C00900100206801002038B504464FF02003B3
:101E5C00EFF3118583F31188BFF36F8F437B5A0621
:101E6C0007D501460948FFF77BFE637B23F040034F
:101E7C006373074B9868031B58425841FFF786FE63
:101E8C0085F31188BFF36F8F38BD00BF9001002020
:101E9C006801002070B504460D461646FFF7D4FFC6
:101EAC00637B43F0020363737DB12B68A5609D4295
:101EBC0029D043B394F90E2093F90E1091421CDDF6
:101ECC005A68C4E9003214605C60731C22D026EAA4
:101EDC00E6764FF4004540F2E73000214FF47A7279
:101EEC00C5FB06010023FEF7F3F80B49421C04F175
:101EFC001800BDE8704000F013BA69688B4202D03C
:101F0C001B68002BD8D16B6863606B6825601C6004
:101F1C006C60DAE770BD00BFD52F000010B50C4621
:101F2C001146064A9068064A10601A46FFF7B2FF3F
:101F3C002046BDE81040FEF733BC00BF680100200E
:101F4C0098010020F8B5461C01F0EBF834184FF05E
:101F5C002003EFF3118783F31188BFF36F8F0D4DBF
:101F6C000D4BA8681860FFF76FFFA8680B49324645
:101F7C00183000F0D5F9AA68537B43F01003537363
:101F8C003846FEF70DFC01F0CCF8201A20EAE07080
:101F9C00F8BD00BF6801002098010020D52F00007B
:101FAC00044B002103F12802C3E90A220846FFF77B
:101FBC0097BD00BF68010020F8B5234C234BA268E5
:101FCC009A4229D04FF02003EFF3118683F3118846
:101FDC00BFF36F8F04F12805A1682846FFF7C0FDF9
:101FEC00A26AA368AA4228D03AB3E06A93F90E1009
:101FFC0092F90E708F421BDD5168C3E900210B6012
:10200C0053605A7B42F040025A730120FFF7BEFD29
:10201C0086F31188BFF36F8F4FF02003EFF311801D
:10202C0083F31188BFF36F8FBDE8F840FEF7B8BBA0
:10203C00824202D01268002ADAD1E26A5A60E26A5D
:10204C001D601360E362DCE7680100209000002053
:10205C0038B5431C044605D1104B986800F0ACF819
:10206C00204638BD4FF4004540F2E7300021E5FB37
:10207C0004014FF47A720023FEF72AF8044648B99B
:10208C00FFF79AFF4FF47A7084FB0001C40B44EA0B
:10209C004144E5E7FFF756FF0446F3E768010020EB
:1020AC00014B9868704700BF6801002070B504466A
:1020BC004FF02003EFF3118683F31188BFF36F8F7A
:1020CC0000F0B3FF054670B1437BDB0603D1836997
:1020DC000BB9FFF795FD0023AB6631460548BDE80B
:1020EC00704000F04ABFD4E902329A4218BF013363
:1020FC00A360F2E7AB01002010B402460B464FF090
:10210C002000EFF3118180F31188BFF36F8F946877
:10211C0044B1013C946081F31188BFF36F8F0020B0
:10212C0010BC704733B981F31188BFF36F8F6FF018
:10213C000F00F5E7014810BCFFF7F0BEAB01002023
:10214C0010B54FF02002EFF3118482F31188BFF326
:10215C006F8F427B510704D484F31188BFF36F8FC8
:10216C0010BD22F0040112F01B0F417303D18369DF
:10217C000BB9FFF745FD21460248BDE8104000F0C1
:10218C00FCBE00BFAB01002030B587B004460E9DED
:10219C0004950D9D03950C9D02950B9D01950A9D33
:1021AC000095FEF779FB034B9B6803B11B6E23660E
:1021BC0007B030BD6801002038B505464FF020034C
:1021CC00EFF3118483F31188BFF36F8FFFF7C6FD14
:1021DC00074B9B68AB4205D121460648BDE8384009
:1021EC0000F0CBBE84F31188BFF36F8F38BD00BFF6
:1021FC0068010020AB0100202DE9F04F284E294D3D
:10220C0087B0B046B54205F1300410D3FFF794FC0B
:10221C00244CDFF894A04FF4004940F2E736002735
:10222C00444521D307B0BDE8F04FFFF7CDBC54F8BF
:10223C00043C059354F8103C049354F8143C039359
:10224C0054F8183C029354F81C3C019354F8203C6D
:10225C00009354E90A2354E90C01FFF795FF54F855
:10226C00303CDD642546CDE7616A4B1C04D0256803
:10227C0021B92846FFF764FF3034D1E7B346BC469A
:10228C00E9FB01BC4FF47A72002358466146FDF716
:10229C001FFF5146421C05F1180000F041F8EBE716
:1022AC007C0F00207C0F0020D52F0000034B1B68F7
:1022BC000BB9FEF733BA0020704700BFA401002011
:1022CC00036840B1074A5268904204D01BB19A6827
:1022DC0081680A449A60426813605A600023C0E91E
:1022EC0000337047200F00200B4B10B51C689C422C
:1022FC0008BF0024FFF7DAFF54B1A368181A20EACC
:10230C00E070064B1B6913B19842A8BF184610BD6C
:10231C006FF00040F5E700BF200F0020680100209F
:10232C0070B504461646C1604FF02003EFF31185DB
:10233C0083F31188BFF36F8FFFF7B8FF184B1A6840
:10234C00012EACBF801901309A42A06001D05E68AA
:10235C0032B95A6862605A68236014605C600AE0A3
:10236C009068A168884215DD411A91605168C4E9F2
:10237C0000210C6054601A689A4206D0944204D131
:10238C00FFF7B2FF0021FEF773F985F31188BFF355
:10239C006F8F70BD091AB242A160DAD01268D7E70C
:1023AC00200F00202DE9F04B0446FFF7A1FC4FF065
:1023BC002003EFF3118583F31188BFF36F8F214E48
:1023CC00214FDFF888903460B846D9F80040326865
:1023DC004C45D7E900BC05D024B1A368934214DD69
:1023EC009B1AA3601BEB02004CEBE2710024C8E9C2
:1023FC0000013460FFF778FF2146FEF739F985F3C9
:10240C001188BFF36F8FBDE8F08B1BEB03004CEB17
:10241C00E371D31A33600023C7E90001A36020469F
:10242C00FFF74EFF85F31188BFF36F8FE368984772
:10243C004FF02003EFF3118583F31188BFF36F8FF7
:10244C00C3E700BFA401002000000020200F0020E3
:10245C002DE918484FF02003EFF3118483F3118812
:10246C00BFF36F8FFEF75AF9074BD3E9002312EB3A
:10247C00000B43F1000C5846614684F31188BFF3FE
:10248C006F8FBDE8188800BF0000002038B5074CDE
:10249C00074DAC4201D3002038BD04F11403204693
:1024AC00C4E9053300F006F81C34F2E77C0F002079
:1024BC007C0F00202DE9F04F46680789016890F8E1
:1024CC000A80FF2306FB07FCC372614432460023DB
:1024DC004FF00C09984505DC002319468F4220DC8F
:1024EC00BDE8F08FD0F80CA0BCFBF2F509FB03FEA5
:1024FC000AEB0E0404F1040B202DC4E901BB05D832
:10250C00C372920822F003020133E3E715F11F04B2
:10251C0048BF05F13E0464114AF80E1001EB84012A
:10252C00EFE7C268056802F1040CEC1845F803C02B
:10253C0095686560956801312C6033449460CDE7F3
:10254C000020704770B504460D464520A04729462B
:10255C005220A047294623465220BDE87040184718
:10256C002DE9F04F8BB01C464FF00008531E064669
:10257C000F4602934FF0FF3AC146002505E06DB9B6
:10258C00252800F04F813946B047029B13F8010F04
:10259C0002930028F3D10BB0BDE8F08F64286ED005
:1025AC001AD839280AD8312860D22D2800F0408159
:1025BC0030284CD0252807D139460BE0582800F09C
:1025CC00BB80632800F02A8139462520B047029B46
:1025DC0018783946B047D0E7702800F0A38011D89E
:1025EC0069284CD06C2805D1B8F16C0F2AD14FF06A
:1025FC004C08CAE76828E7D1B8F1680F22D14FF030
:10260C004808C2E7752871D018D87328DCD154F863
:10261C00045BAB465B461BF8010B002840F0FB80CB
:10262C00B9F1030F40F00A815D1BAAEB0505002DE3
:10263C00A3DD39462020B047013DF8E778287BD050
:10264C007A28C1D1B8F1000FBED180469DE7BAF10E
:10265C00000F0EDAB9F1000F00F0ED80A0F1300A96
:10266C00B9F1000F08BF4FF002098EE7BAF1000F65
:10267C00F4DB0A2303FB0A0AAAF1300AF0E7B8F1EB
:10268C007A0F02D154F8045B1FE0B8F16C0FF9D04B
:10269C00B8F14C0FF6D1073424F00704F4E8022308
:1026AC0012F10041069143F100010791DDE906BCEE
:1026BC0000214FF0FF30614508BF584504D2394620
:1026CC003046FFF73FFF58E71546002D05DA39462F
:1026DC002D20B0476D420AF1FF3ACDF800A04B46D1
:1026EC002A4639463046FDF7D3FE46E7B8F17A0F55
:1026FC0002D154F8042B11E0B8F16C0FF9D0B8F1F9
:10270C004C0FF6D1073424F00704F4E8022300211F
:10271C004FF0FF30994208BF9042D0D3CDF800A0C3
:10272C004B46DEE739463020B04739467820B04773
:10273C004FF0080A4FF00109029B1B78702B04D153
:10274C0054F8043B049300230DE0B8F16C0FF7D060
:10275C00B8F14C0FF4D1073424F007031C465B6826
:10276C0054F8082B049200211022039105914FF08C
:10277C00400BABF1040B0498CBF1200CABF1200116
:10278C0020FA0BF003FA0CFC40EA0C0023FA01F1DE
:10279C00084310F00F0008D1059911B9BBF1000FD7
:1027AC0024D1302105E00595E3E709288CBF57219A
:1027BC003021084440B2394608930592B047039B38
:1027CC00059A01330393089BBBF1000FEBD1B9F1D0
:1027DC00030F7FF4D2AE039BC3EB4A05002D7FF7AA
:1027EC00CCAE39462020B047013DF7E7511E92454B
:1027FC00089107DBB9F1010F06D109933946302056
:10280C00B047099B089AB4E7B9F1020FFAD10993C2
:10281C0039462020F4E73946B047FBE6394654F8F0
:10282C00040BD7E6A846A9464FF0FF3A0125ACE6C3
:10283C004FF00309A9E64FF00109A6E60546A4E608
:10284C000FB407B504A951F8040B0191FDF76CFE08
:10285C0003B05DF804EB04B07047044608B50846B5
:10286C0011461A46A047FFF71BFCFEF791F970477B
:10287C008368C9B20C2202FB01314B7A23B9087A66
:10288C00B0FA80F0400970470220704738B5836871
:10289C000C2404FB01340123054663724FF0200322
:1028AC00EFF3118183F31188BFF36F8F23682BB182
:1028BC0060681A682260834208BF626081F31188E5
:1028CC00BFF36F8F03B938BDD3E901212846904778
:1028DC00E4E70368D0F808C02DE9F04105469F688D
:1028EC00CEB24AB10C2373435CF803309A425CD0ED
:1028FC0013B11B68002BF9D14FF02003EFF31180BB
:10290C0083F31188BFF36F8F0C2171430CEB010320
:10291C001C7A0134E4B21C7280F31188BFF36F8F00
:10292C0032B34FF080404FF0030EC0F808E3587AF2
:10293C00A0B94FF0200EEFF311888EF31188BFF37E
:10294C006F8F1060D3F804E0BEF1000F20D15A60F5
:10295C004CF8012088F31188BFF36F8F4FF0804340
:10296C000321C3F8041318B1D2E901312846984762
:10297C00012C0BD10C237343FB586BB90C2303FBB9
:10298C0006760122B37A03F180431A6000200EE030
:10299C00CEF800205A60DDE7284698470028EDD194
:1029AC0031462846FFF772FFF0E76FF00F00BDE8E5
:1029BC00F0810022FFF78DBF002210B501210446E3
:1029CC001046FDF751FF0020FDF73EFF4FF080430E
:1029DC000122C3F818250322C3F80423A36800209E
:1029EC00C3E90000A368C3E9030010BDF7B5026892
:1029FC0086689768CCB24FF02003EFF3118583F310
:102A0C001188BFF36F8F0C226243B1180B7A3BB362
:102A1C00013BDBB20B7233BBB3503A444B6053688F
:102A2C00D3B90C2303FB04730121DA7A1B8902F15D
:102A3C00804203F18043116000221A601B680193ED
:102A4C00019B0C2101FB04640020607285F311884A
:102A5C00BFF36F8F03B0F0BD98470028E1D1F0E7CA
:102A6C006FF04400F2E70020F0E770477047FDF785
:102A7C005FBF00F068BA0146006800F064BA08B5A0
:102A8C00FDF760FFBDE80840FDF77CBE07B50021EF
:102A9C0001A8FEF74DF903B05DF804FB01380139CC
:102AAC0010F8013F11F8012F934201D1002BF7D1FF
:102ABC00981A7047F0B581EA0004A50703460BD0BD
:102ACC00013B0A4491421AD1F0BD002AFCD011F806
:102ADC00014B03F8014B013A9C07F6D19508AC0069
:102AEC001E1F0F19B94205D16FF0030606FB052214
:102AFC002344E5E751F804CB46F804CFF2E711F88C
:102B0C00014B03F8014FDDE770B5C9B203469C07D2
:102B1C0010D141EA012444EA0445940803EB8406ED
:102B2C00B3420DD16FF0030505FB04241C44A342F2
:102B3C0009D170BD002AFCD003F8011B013AE6E76D
:102B4C0043F8045BECE703F8011BF0E7FEF75ABB14
:102B5C0010B504688068A468C0692468012904D190
:102B6C005840C4F80405002010BD003320FA02F0D0
:102B7C004FF0010118BF012300F001009140834286
:102B8C0014BFC4F80815C4F80C15ECE770B504684C
:102B9C008068A468C0692568D5F81465D5F8104517
:102BAC00D5F8045560406C403440604001291CBF8E
:102BBC00D04000F001001860002070BD83681868D8
:102BCC0030B558B10024814213D108685CB95C68F7
:102BDC001860A14200D158600020086072B9002032
:102BEC0030BD2846EFE720605868814208BF5C6022
:102BFC00F2E705680446002DF3D13AB11A680A6071
:102C0C00586819600028EAD15960E9E76FF015009F
:102C1C00E6E72DE9F74F8046856803F47040B0F580
:102C2C00804F1E4641D009DCB0F5805F3FD0B0F537
:102C3C00405F3ED090B16FF0150033E0B0F5E04F3F
:102C4C0039D004DCB0F5A04FF5D1032006E0B0F587
:102C5C00404F32D0B0F5504FEDD1072006F44077FD
:102C6C00B7F5807F2BD0A7F500746342634106F063
:102C7C00010C4FEA4C07012947EA0C0718BFD4B2E4
:102C8C0047EA002040EA830712BFA1464FF01F0914
:102C9C0000244FF0A04A4FF0010B06F00203A145AF
:102CAC000FD2002003B0BDE8F08F0220D6E7012040
:102CBC00D4E70420D2E70520D0E70620CEE7032393
:102CCC00D5E7D8F800209268117904F01F0242EA87
:102CDC00411202F5E0724AF822700BFA04F2A9686C
:102CEC00002B25D01143A96069690193B0064CBF34
:102CFC00114391436961A96970064CBF114391431B
:102D0C00A961296970074CBF114391432961E96995
:102D1C0030064CBF0A4321EA0202EA6121464046D2
:102D2C00FEF74CF80028BDD10134E4B2019BB6E7A4
:102D3C0021EA0201D7E701292DE9F04118BFD4B2ED
:102D4C008768064612BF25461F2500244FF0010850
:102D5C00AC4202D90020BDE8F081FB6808FA04F20D
:102D6C0023EA0203FB6021463046FEF727F80028D1
:102D7C00F1D10134E4B2EBE701292DE9F04118BFA0
:102D8C00D4B28768064612BF25461F2500244FF093
:102D9C000108AC4202D90020BDE8F081FB6808FABA
:102DAC0004F21343FB6021463046FEF707F8002877
:102DBC00F2D10134E4B2ECE70368CA079B6805D48E
:102DCC00C1F34202012A04D0022A0BD06FF0150085
:102DDC0070471B684FF0CC72C3F824258368002021
:102DEC00596270471B684FF0CD62F5E7004700232E
:102DFC00435082B043580193019B02B070474B6B18
:102E0C008A6A934208D24A6AD25CC0F81C25013304
:102E1C004B6301231846704791F82C301BB10123EA
:102E2C00C3610023F6E70A6A12F0400F4FF001026B
:102E3C0015BFC261426181F82D201346EAE791F873
:102E4C002F20F8B504460D46002A60D1D0F8243165
:102E5C004E6B8F6AB3B14FF49271FFF7C8FF012329
:102E6C00636185F82F30BE424FD1D4F80431002B6A
:102E7C004BD04FF482712046FFF7B9FF002285F842
:102E8C002D2013E0D0F81C3193B14FF48E71FFF765
:102E9C00AEFFD0F824311BB14FF492712046DCE721
:102EAC002946FFF7ACFF02460028DCD11046F8BDDE
:102EBC00D0F80831002BD6D04FF48471FFF797FF70
:102ECC00D0F82431002BE7D16B6BA96A8B42CAD2A4
:102EDC00696AD0F81805C8546B6BA96A0133481E8F
:102EEC0083426B6308D1286A40061DD40223C4F8C0
:102EFC00003201232362B6E78B42FAD12B6A5B06C0
:102F0C00B1D5022385F82D30D0E70122CEE74FF45E
:102F1C009271FFF76CFF4FF48E71FFF768FF4FF45F
:102F2C008471FFF764FFA0E78B42E2D1E9E74FF031
:102F3C002002EFF3118382F31188BFF36F8FFEE74A
:102F4C0008B5FFF7F4FF70B505460E46FFF7A8F875
:102F5C00314604462846FFF7F3FF2046BDE8704093
:102F6C00FDF716BEFFF782BD437BDB0603BF80690E
:102F7C00B0FA80F040090020704721B9EFF30580CA
:102F8C0008B9FDF70DBC81F31188BFF36F8F704743
:102F9C00034620B9EFF305820AB9FDF701BC83F3B0
:102FAC001188BFF36F8F70474FF02003EFF3118040
:102FBC0083F31188BFF36F8FFFF7EABF0368984262
:102FCC0014BF18460020704750F8103C70B50446EA
:102FDC00A0F11805CBB14FF02003EFF3118683F36A
:102FEC001188BFF36F8F294650F8100CFEF7B8FD0F
:102FFC0014F80B3C23F0020304F80B3C86F3118805
:10300C00BFF36F8F002344F8103C14F80B3C23F0F3
:10301C00140304F80B3C2846FFF7A6FF20B1284602
:10302C00BDE87040FEF7ECBD70BD38B54FF0200325
:10303C00EFF3118283F31188BFF36F8FFFF7BEFF9D
:10304C00044682F31188BFF36F8FC8B14FF0200391
:10305C00EFF3118583F31188BFF36F8F01468068FE
:10306C00FEF77EFD637B23F00203637385F3118807
:10307C00BFF36F8F0023A36004F1180000F011F868
:10308C00204638BD10B5029C0473837304240023BE
:10309C004473C373C0E90633C0E91333C0E9161295
:1030AC0010BD10B54FF02002EFF3118482F311889C
:1030BC00BFF36F8F03683BB1FFF702F9002084F375
:1030CC001188BFF36F8F10BD6FF01500F7E710B5C7
:1030DC004FF02003EFF3118483F31188BFF36F8F4C
:1030EC00FFF702F984F31188BFF36F8F10BD70B531
:1030FC0004460E464FF02003EFF3118583F311883D
:10310C00BFF36F8FFFF7F0F8012805DDA04203DD58
:10311C0031462046FDF7ACFA85F31188BFF36F8F6B
:0C312C0070BD08B5FFF794F908BD7047AE
:08313800D8CFFF7F0100000069
:103140000000000051050000000000007B2A000084
:10315000000000007B2A0000000000007B2A000025
:10316000E1170000F92D0000000000007B2A00009C
:1031700000000000290F0000000000007B2A000072
:10318000000000007B2A0000000000007B2A0000F5
:10319000000000007B2A0000000000007B2A0000E5
:1031A000000000007B2A0000000000007B2A0000D5
:1031B000000000007B2A0000000000007B2A0000C5
:1031C000000000007B2A000000000000B90500009C
:1031D000000000007B2A0000000000007B2A0000A5
:1031E000000000007B2A0000000000007B2A000095
:1031F000000000007B2A0000000000007B2A000085
:10320000000000007B2A0000000000007B2A000074
:10321000000000007B2A0000000000007B2A000064
:10322000000000007B2A0000000000007B2A000054
:10323000000000007B2A0000000000007B2A000044
:10324000000000007B2A0000000000007B2A000034
:10325000000000007B2A0000000000007B2A000024
:10326000000000007B2A0000000000007B2A000014
:08327000000000007B2A0000B1
:10327800CC330000C5290000E0320000D233000042
:10328800F905000000000000A7330000CD0C000085
:1032980000000000A7330000690D000000000000D6
:1032A800A8330000990D000034330000EB33000010
:1032B800891000004C330000A73300009924000057
:0432C8000000000002
:1032CC00BF290000F9290000DF28000000000000E1
:1032DC007D28000000000000000000000001000438
:1032EC0000000000000000000401080C02000000B7
:1032FC000033000000000000DC3300002400020753
:10330C0000000020E43300001E000B111F2C0000F5
:10331C005D2B0000992B0000C92B0000852D0000AF
:10332C00432D0000000000000000005000000000D1
:10333C00C52D0000BD1000000000000000000000C2
:10334C0000400040000000000700000006000000E4
:10335C000000980100000000280F0020580F0020EA
:10336C00640F00207C0F00207C0F0020F5FFFFFF76
:10337C005072657373207468652075736572206470
:10338C006566696E656420627574746F6E206F6E0D
:10339C002074686520626F6172640A004750494F5F
:1033AC005F30006572726F720A00427574746F6ED2
:1033BC0020707265737365642061742025750A0032
:1033CC00434C4F434B007379735F636C6F636B00BB
:1033DC00464C4153485F30005352414D5F300049D9
:1033EC0032435F310001000000000001016D616992
:0833FC006E0069646C650000BD
:103404004D250000F40E0020F40E00200100000001
:1034140001000000040F0020040F00200000000041
:103424000100000000000000000000000090D00334
:08343400200F0020200F0020F2
:10343C009C3200000000000000000000C0320000C0
:10344C0000000000000000009032000000000000AE
:10345C000000000078320000CC3200001800002080
:10346C00843200000000000000000000A8320000C0
:10347C001833000034000020B43200003C3300004C
:04348C00F40E00201A
:103490007C0F00207C0F00200000000000000000D6
:0434A0000F00000019
:04000003000009C52B
:00000001FF
