:1000000050C00020154B000035F40100E949000004
:10001000E9490000E9490000E9490000E949000018
:10002000E9490000E9490000E94900008148000071
:10003000E9490000E94900002D48000025F40100CD
:10004000D54A0000731D0200D54A0000D54A0000C1
:10005000D54A0000D54A0000D54A0000D54A000024
:10006000D54A0000D54A0000D54A0000D54A000014
:10007000D54A0000D54A0000D54A0000D54A000004
:10008000D54A0000D54A0000D54A0000D54A0000F4
:10009000D54A0000D54A0000D54A0000D54A0000E4
:1000A000D54A0000D54A0000D54A0000D54A0000D4
:1000B000D54A0000D54A0000D54A0000D54A0000C4
:1000C000D54A0000D54A0000D54A0000D54A0000B4
:0C00D000D54A0000D54A0000D54A0000C7
:0400DC00FFFFFFFF24
:1000E00053B94AB9002908BF00281CBF4FF0FF319F
:1000F0004FF0FF3000F00CB8ADF1080C6DE904CE04
:1001000000F008F8DDF804E0DDE9022304B07047F0
:10011000704700BF2DE9F04F099F154604468E46F3
:100120001E46002B40F0CC808A42B2FA82FC4CD9A9
:10013000BCF1000F0BD0CCF1200801FA0CFE20FA24
:1001400008F802FA0CF548EA0E0E00FA0CF44FEA31
:1001500015491FFA85F8BEFBF9FA210C09FB1AE3D1
:100160000AFB08FB41EA03439B452AD9EB180AF135
:10017000FF3004D29B4502D9AAF102002B44A3EB25
:100180000B03A4B2B3FBF9F209FB123302FB08F82C
:1001900044EA0344A04516D92C1902F1FF3303D2D7
:1001A000A04501D9931E2C44A4EB080443EA004067
:1001B00027B124FA0CF400233C607B603146BDE893
:1001C000F08F5046DBE71346EEE702B9FFDEBCF1E5
:1001D000000F2ED18B1A01264FEA154EAAB2B3FB9F
:1001E000FEF8210C0EFB183308FB02F941EA034329
:1001F000994561D9EB1808F1FF3004D2994502D92D
:10020000A8F102002B44A3EB0903A4B2B3FBFEF157
:100210000EFB11334A4344EA0344A2424ED92C193F
:1002200001F1FF3303D2A24201D98B1E2C44A41A40
:10023000BCE7CCF1200E02FA0CF521FA0EF901FA16
:100240000CF320FA0EFE4EEA03034FEA154800FABB
:100250000CF4B9FBF8F11FFA85FE08FB1192180C9B
:1002600001FB0EF640EA0242964221D9AA1801F19A
:10027000FF3003D2964201D9881E2A44921B9BB2BA
:10028000B2FBF8F908FB192209FB0EFE43EA024310
:100290009E450FD9EB1809F1FF3604D29E4502D9CD
:1002A000A9F102062B44A3EB0E0346EA004693E7AE
:1002B0000846E3E74E46F6E74046A4E70B46B6E7B6
:1002C0008B4205D90FB1C7E900010026304675E71A
:1002D000B3FA83FCBCF1000F0FD18B4201D38242F1
:1002E00009D8841A61EB030E0120002F6AD0C7E9F8
:1002F000004E002662E76046F7E7CCF1200E03FAD5
:100300000CF322FA0EF521FA0EF41D4301FA0CF358
:1003100020FA0EF10B434FEA154A00FA0CF6B4FB33
:10032000FAF91FFA85F80AFB19401C0C09FB08F1C1
:1003300044EA0044A14202FA0CF23FD92C1909F117
:10034000FF3004D2A14202D9A9F102002C44641A60
:100350009BB2B4FBFAF90AFB194409FB08F843EA1B
:10036000044188452CD9691809F1FF3304D2884526
:1003700002D9A9F10203294443EA0040A1EB080194
:10038000A0FB02894945C2464C4602D306D14645E8
:1003900004D2B8EB020A69EB0504013897B1B6EB59
:1003A0000A0361EB040606FA0EFE23FA0CF34EEA8A
:1003B000030326FA0CF6C7E900369AE74846C6E773
:1003C0004B46D9E73E46F9E62DE9F041454DD5F8D3
:1003D000D430996811F0010186B021D101AA40F60C
:1003E000034006F0F1FE0446002877D1019B9B688C
:1003F0001B7893B9BFF35B8F2B4653F8702FBFF375
:100400005B8F02F00502BFF35B8F53E8001F43E8E8
:1004100000200028F9D1BFF35B8F019817F0DAF8BC
:1004200001AA002141F2030006F0CEFE0446002896
:1004300054D1019B2C489968082201311FF0DCF847
:10044000019817F0C7F8214601AA41F2010006F011
:10045000BBFE0446002841D1019883685A782A746B
:10046000D9789A7842EA01226A821A796A74197AEA
:10047000DA7942EA0122AA825A799B7942EA032375
:10048000EB8217F0A7F8214601AA41F2020006F01C
:100490009BFE044610BB019B144899684022013121
:1004A0001FF0AAF895F84230019843F0060385F84A
:1004B000423017F08FF82B7F59061FD401234FF0DD
:1004C000000163F307010A4A0A4B0B489B1ADB0839
:1004D00063F38F111EF0BEFA6FF01204204606B0CF
:1004E000BDE8F08118DD002030DD002038DD00207F
:1004F0006C5A0200345B0200957A0200214601AA80
:1005000042F2030006F060FE04460028E6D1019B9B
:10051000BD489968082201311FF06EF8019817F064
:1005200059F8214601AA42F2020006F04DFE0446A7
:100530000028D3D1019B9B68B3F80120A5F888203F
:1005400091B221B1DA78B148114624F010FF019838
:1005500017F040F82C7F14F0200400F0D58095F8B7
:100560003C301A0711D501AA002142F21C0006F006
:100570002BFE04460028B1D10198836853F8012F5F
:100580005B68C5E9202317F025F895F878309B06BD
:1005900000F1D68095F878305F0600F1FD800821E3
:1005A00042F2010006F0A2FC0446002800F0B380ED
:1005B0000821084422F03EF895F8781011F0400F19
:1005C00040F2022308BF03238E074CBF43F02C03E5
:1005D00043F00C030246880695F8790048BF43F0C3
:1005E000400310F0090F18BF43F40063C90795F8E2
:1005F000421001F0060148BF43F01003062908BF6E
:1006000043F4C073184600211FF098FB21460022D6
:1006100042F2010006F0D8FD044600287FF45EAFE8
:100620002B7F9A061ED4B5F88810D9B901AA41F2D9
:10063000050006F0C9FD044600287FF44FAFB5F869
:10064000883063B9019B9B685A78997842EA012205
:10065000A5F888209A886D48114624F088FE0198F4
:1006600016F0B8FF082140F6014006F03FFC0446B2
:10067000002850D00821084421F0DCFF95F878309C
:10068000DB07024640F1B5805DA1D1E900011FF012
:1006900055FB2146002240F6014006F095FD044638
:1006A00000287FF41BAF01466A464FF6014006F072
:1006B0008BFD574E574BF61AC6F3C906002800F0BB
:1006C000B5804FF00001022363F30701524866F33F
:1006D0008F111EF0BFF909F067F8044600287FF477
:1006E000FDAE4E494E4824F0C0FEEB79002B40F0A1
:1006F0001E8103234FF0000163F3070166F38F119E
:1007000048481EF0A7F9E9E6022140F66D4006F0E0
:10071000EDFB064610B96FF03604DFE60221083023
:1007200021F088FF0123447003702246314640F6D1
:100730006D4006F049FD044600283FF410AFCDE6B9
:1007400001AA002142F22F0006F03EFD04460028D7
:100750007FF4C4AE01988368B3F80180B3F80370E6
:1007600016F038FF042142F2240006F0BFFB0646D3
:100770000028D0D00421083021F05CFF2246A0F8E8
:1007800000804780314642F2240006F01DFD0446F9
:1007900000283FF4FFAEA1E6022142F22E0006F04F
:1007A000A5FB04460028B6D00221083021F042FF04
:1007B0006FF07B030370032343702146002242F253
:1007C0002E0006F001FD044600287FF487AE0146A6
:1007D00001AA42F22A0006F0F7FC044600287FF442
:1007E0007DAE019883685B7885F8A43016F0F2FE40
:1007F000D5E60D484FF0005149E700BFAFF3008048
:10080000908800020080002090DD0020A4DD002000
:10081000345B02006C5A0200B97A0200697300006E
:1008200000DE00208D7B020010880002009B434800
:100830009C6803224FF0000362F30703B4F8012021
:10084000032A96BF3E493F4951F8221066F38F13A1
:100850001EF021F9B4F8011003224FF0000362F3F7
:100860000703022966F38F13B4F8032038D1032A53
:1008700036D8354951F8221034481EF00CF90322BD
:100880004FF0000362F3070362793148032A96BFF1
:1008900030492C4951F82210CDE90112A279039276
:1008A000B4F807200492D4F80920059266F38F1358
:1008B000052201A91EF022F9009816F08BFE6A4667
:1008C00000214FF6024006F07FFC044650B14FF085
:1008D0000001022363F3070166F38F111E48F8E657
:1008E0001849C9E7009B1D489968022201311EF092
:1008F00083FE009816F06EFE6A4621464FF60340CE
:1009000006F062FC40B14FF00001022363F30701DF
:1009100066F38F111248DCE6009B124899680122A9
:1009200011441EF069FE009816F054FED3E604212F
:100930000D481FF0AAF907F073FACFE5DD7A02003F
:10094000446102000E8202000C610200F67A02008D
:100950000E7B0200746102003B7B020079DD002007
:10096000647B020078DD002088DD002000000000AC
:100970002DE9F04F91B002230F9330B911F046FEEC
:100980000646304611B0BDE8F08F894F97F8CC602D
:1009900016F001063D4601D00C26F2E797F82C80B0
:1009A00097F8290027222D2312FB083897F87C306E
:1009B00002FB03737D3300F003000B9315F026FB5D
:1009C00097F8DA00840707EB080B40F1B180324654
:1009D00007F1DC01C0F3800015F08EFBFF28814693
:1009E00002D0304615F0B0FD5A464946704815F021
:1009F00019FB0B9A6E48494615F014FB17F808309E
:100A0000580600F1AC8017F8083013F00E0F00F014
:100A1000B08095F8283085F8DB90C3F342030121BC
:100A20000DF13B008DF83B3020F090FF002800F0E6
:100A3000B18117F808400B9A9BF80130527804F006
:100A40000F04022C00F1FF3140F073811033DB0002
:100A5000584300F5AA70642301FB030095F8203089
:100A60005449ED61002464F3000385F820303123FC
:100A70002B60C5E905444CA3D3E900236C60AC604E
:100A8000A0FB0101FFF72CFBE860B5F8D89021F03E
:100A90008AF88246B9F1000F06D117F8084004F031
:100AA0000F04631E5C425C4195F82830DFF810812A
:100AB000EA6864F3000385F8283013F001043E4B24
:100AC00004920FAFCDE90787CDE9053500F04A81E3
:100AD0000020CDE900020321CDE9020053460222A5
:100AE0000EF0D4FC394610F017FD002840F052817A
:100AF00002220F92CDE90787304A0695CDE9020020
:100B00004AF2D833CDE90402009301905346012202
:100B100003210EF0BBFC394610F0FEFC002840F02B
:100B2000398195F8CC3043F0010385F8CC3028E7C3
:100B300017F808003146C0F380100EF073FD06224E
:100B4000014604460BF102001EF056FD0B9B0622E7
:100B50002146981C1EF050FD4FF0FF094EE706217C
:100B60000BF1020020F0BBFE00287FF44CAF1226F0
:100B700007E76B6A002B7FF40FAF10F025FC82466D
:100B800028B110F02DFC20B9504610F023FC0726A8
:100B9000F7E60C9012F0FEFB0C9B044690B9184649
:100BA00010F024FCF0E700BF8D49FD1A070000009B
:100BB000C010002000CA9A3BA1200100FD220100C4
:100BC0000D15010000F11C020C924FF6FF72828598
:100BD000826F12B900F17002826704F16C0204F1B5
:100BE0006801A06F0D9320F085FE714AC4F82CA116
:100BF0004FF01B11C4E91712B4F8642094F84010A8
:100C000022F4EF6222F0070242F4887242F00102FD
:100C1000A4F8642094F83D2002F03F0262F07F02C5
:100C200084F83D20002262F3000184F84010062180
:100C3000A4F8C41094F8DC1084F83F2021F00301DC
:100C400084F8DC105B49C4F81C1194F82211628608
:100C500021F003016263C4E913226265A4F8C8208D
:100C6000A4F8CC20A4F8E82084F8EA20C4F80021F5
:100C7000A4F80421A4F81821A4F8202184F82B2139
:100C8000A267A4F87C2084F8221194F87E10A4F8BE
:100C9000502121F01F0184F87E1094F85211A4F81D
:100CA000702121F0070184F8521194F87211A4F810
:100CB000982162F30411A4F8A42184F8721112F0AF
:100CC0009DFCA4F8D60012F09FFC3B49A4F8D80084
:100CD000D4F8A8010140C4F8A81112F09BFC94F8C4
:100CE000AC1160F3020184F8AC1112F099FC0D9B79
:100CF000C5F8D4300C9BC5F8D0A06B6294F8AC1149
:100D000094F82030E461002260F3061162F3C3011D
:100D100062F3000384F8AC11C4E96F22C4E96D22C8
:100D2000C4F8B021C4E9052284F8203014F038FB5F
:100D30006FE6012C12D0D20080324CB9103302F58C
:100D40002772DB0002F19800184403F59A7383E6DA
:100D5000062CF3D010234FF4AA72F2E716234FF4B7
:100D60002D72EEE715484FF6FF731FFA89F8CDE9AB
:100D70000243A8FB0001912303FB08110AA3D3E956
:100D80000023FFF7ADF95346CDE9004002220321CD
:100D90002046BEE66B6A002B3FF4FEAD084811F01A
:100DA00001FAF9E5AFF300808D49FD1A0700000054
:100DB000480148017F4101000000FFFE002AE7844E
:100DC000C0100020000000002DE9F04F9246828DF7
:100DD0004FF6FF739A428DB0044688460CD140F21C
:100DE0000333CA4ACA49CB481CF0E5FC404080F3B3
:100DF00011884FF0030002DF94F8E92094F8E830FE
:100E0000934210D194F8521111F001050BD194F8CE
:100E1000050194F8046186421DD00122023B84F84A
:100E2000EA2084F8E93094F8E81094F8E930CB1A15
:100E300003F00303022B40F0BD8394F8EA30013B3A
:100E4000052B01F28C80DFE813F063038905D905D7
:100E50008A0810072F0794F8193194F81861B342E3
:100E600063D09B1BDE07DED594F8DC1011F0010681
:100E70002ED010F0E9FA06460028D4D094F81831A4
:100E800084F81931A38DC3800223037190F82030B8
:100E900043F0030380F82030092380F8213080F8E4
:100EA00023300822294624301EF0D0FBD4F81C3110
:100EB00086F82430C3F307221B0C86F8252086F819
:100EC00026303146086810F097FA10F09FFAAAE72A
:100ED000914820F0BFFC05460028A4D094F81931B1
:100EE000013B84F819318D4BC4F81C31037943F070
:100EF000030303710923437194F93D30002BACBF08
:100F000008230E230822C371314610441EF09EFBB5
:100F1000D4F81C312B72C3F307221B0C6A72AB721C
:100F20002946204621F05FF8CAE094F8213194F870
:100F30002051AB4264D05B1BD8077FF574AF94F8A7
:100F40002231D90725D4744820F084FC01460028BA
:100F50003FF469AF94F82131013B84F8213194F8D2
:100F6000223143F0010384F82231037943F0030373
:100F70000371062343710C23C3710A2303726FF0BC
:100F80000E034372052383724FF0FF33C372037362
:100F9000C7E79A0726D510F057FA014600283FF414
:100FA00042AF94F8203184F82131A38DC38002230D
:100FB000037190F8203043F0030380F820300623BB
:100FC00080F821300C2380F8233094F8233180F806
:100FD0002430B4F82431A0F82530B4F82631A0F834
:100FE00027306FE740F60233484A4D4949481CF024
:100FF000E2FB404080F311884FF0030002DF12E76C
:1010000094F8715194F870319D4200F03881454D4B
:101010002B6813B19C427FF406AF94F8723103F051
:101020000703052B00F2288101A252F823F000BF2C
:1010300049100000CB10000021120000270E000014
:10104000270E0000270E00003348E68E678E20F042
:1010500001FC014600283FF4E6AE94F87231042208
:1010600062F3020384F87231037943F003030371DE
:10107000182343710F23C371B4F874310381B4F89A
:1010800076314381B4F878318381B4F87A31C38101
:101090003E4400230374C374037556444FF0FF337A
:1010A000A0F8116043758375C37503764376837624
:1010B000C376037743778377204620F094FF2C6034
:1010C000B4F8CA30A4F8CC30ADE694F873615EB3DE
:1010D000114820F0BFFB014600283FF4A4AE03797D
:1010E00043F0030303711123C371032343710F23DF
:1010F000037294F873314372204620F074FF94F821
:10110000703184F8713100232B608CE65694020014
:1011100002950200F47F0200001400207F410100CC
:10112000CAA002008013002094F93D30002B34DB6C
:1011300094F87231C4F81061052262F3020394F846
:101140007C2184F87231012384F8143112B3B4F88D
:101150007431B3FBF2F3013313FB02F39BB2A4F837
:101160000831B4F87831A4F80A31B4F87A31A4F827
:101170000C3194F80631022262F3010394F87221D3
:10118000C2F3C00262F38203013884F8063184F8A6
:10119000050148E6B4F87631E1E7D94820F05AFB7A
:1011A000014600283FF43FAE037943F00303037187
:1011B000182343711023C371B4F874310381B4F858
:1011C00076314381B4F878318381B4F87A31C381C0
:1011D00094F87C310374B4F87E31A0F81130B4F87F
:1011E0008031A0F81330B4F88231A0F81530B4F88B
:1011F0008431A0F81730B4F88631A0F81930B4F86B
:101200008831A0F81B30B4F88A31A0F81D30204690
:1012100020F0E9FE94F8703184F871312E6002E616
:101220008B073FF500AE10F00FF9014600283FF4A0
:10123000FAAD94F87231032262F3020384F872313A
:10124000A38DC3800223037190F82030134380F8EC
:101250002030182380F821300F2380F82330B4F891
:1012600074318384B4F87631C384B4F8783103855B
:10127000B4F87A31438525E640F60F43B4E694F896
:10128000980194F89931834200F0998094F89A314A
:10129000C3F30205E9B2072900F08E8001228A40DB
:1012A00012F04E0F7FF4BFAD12F0300F2DD1002998
:1012B00040F08280924820F0CDFA014600283FF4A9
:1012C000B2AD94F89A31B4F8A201A4F8D800012282
:1012D00062F3020384F89A31B4F89E31A4F8D63050
:1012E0000A798B8142F003020A71092245F0480312
:1012F0004A711422CA718B7245F01B0245F001033A
:101300000A724D72CB72C8810BE6B4F89C21A4F826
:101310005E20B4F8A021A4F8622003F00702042A9A
:10132000B4F89E61B4F8A25144D1B4F8A4219ABB98
:1013300084F89901A4F8CC20D4F800710FB13B686F
:1013400063B940F6CE436F4A6F4970481CF033FAD8
:10135000404080F311884FF0030002DF3868436893
:10136000C4F80031A38DFB8002233B7197F8203035
:1013700043F0030387F82030092387F82130152331
:1013800087F82330B4F85E30BB84B4F862303E8511
:10139000FB847D85394696E5A4F89E21B4F8A61114
:1013A000A4F8A2110022A4F8A42162F3020384F895
:1013B0009A31C1E70622F8E740F6F64314E694F8BE
:1013C000A81194F8A9318B423FF42DAD94F8AA31BD
:1013D00003F00300032800F28F8001A555F820F0E8
:1013E000F1130000270E0000270E00005514000026
:1013F000434820F02FFA014600283FF414AD94F83A
:10140000AA2194F8AC3194F8AB51C2F3820060F396
:101410000203C2F3421262F30613C5F3400565F3FB
:10142000C30384F8AC31B4F8AA3123F4817323F0F8
:10143000010343F4807343F00103A4F8AA310B794C
:10144000087243F003030B7103234B711623CB7116
:101450004A7266E584F8A911C3F382018F0739D572
:10146000022161F3840384F8AA3194F8AA3159095E
:101470008D0738D5022161F3471384F8AA3194F817
:10148000AA1194F86430C1F3820003F00703834289
:1014900008BF002094F8EC3060F3840394F86500F2
:1014A000490900F00700884208BF002161F3471393
:1014B00094F8AB11DBB2C1F3800143F0010361F397
:1014C000410384F8EC30023A062384F8EA3084F8C9
:1014D000E920A8E4CE0701D50121C2E711F00401FB
:1014E00018BF0421BDE7C80701D50121C3E711F0EA
:1014F000040118BF0421BEE740F6775374E500BF2E
:1015000000140020569402001D950200F47F020092
:101510002E4A136803B91460638EE68E1E4494F855
:101520000631564413F00300B6B253D001200FF039
:1015300073FF074600283DD0254820F08BF905466B
:10154000C0B30FF081FF3B68D4F800215A6094F8D3
:101550000631C4F800716FF3010384F80631238E5D
:101560001E442B790636B6B243F00303A4F8EC60B0
:101570002B710C236B710023EB7194F814312B72D7
:1015800040F2E242D4F81031B3FBF2F3A5F809308F
:10159000B4F80831A5F80B30B4F80A31A5F80D30CD
:1015A000B4F80C31A5F80F30A5F811602946204693
:1015B00020F019FD94F8292194F828319A4240F03E
:1015C000DD8400200DB0BDE8F08F00BF8013002047
:1015D00000140020B4F8EC300B93F71ABFB23B04B0
:1015E000E8D494F8043184F8053184F8E91094F8CB
:1015F000713194F870118B4209D094F8723103F074
:101600000703052B04BF84F87111A4F8CC001368FC
:10161000D4F800519C4204BF002313600DB12B6825
:1016200063B940F69B03C04AC049C1481CF0C3F8E7
:10163000404080F311884FF0030002DF2868B4F8BF
:1016400008214368C4F80031E38DB4F80AC1B4F846
:101650000C119A4213D1238E634510D140F2E2431C
:1016600003FB02FE42F2107303FB01E3013BB3FBF9
:10167000FEF3B4F8C6E09BB29E4500F02E81A38D28
:10168000EB800A232B71002385F820306A84A5F8AB
:1016900024C0E98429460FF0AFFE0FF0B7FE23689F
:1016A000002B0ADAD4E9012023F0004390422CBF3A
:1016B000804490442360A8EB0308E38DB4F80851FC
:1016C000DFF894B213FB07F39BB2B3FBF5F11FFAFB
:1016D00081F915FB09F292B2934240F2E24080F0A8
:1016E000FF80D31A5843A0FB0B018DA3D3E900233D
:1016F000FEF7F6FC20F07F408044638E9A440B9BFB
:101700009E1B94F93D304E445644002B40F2E24A71
:1017100066860AFB05F580F2F180E26C636C03FBE0
:101720001727E76420F027FE064694F8DC00C0F394
:10173000820013F0E5FE94F8142106440AFB02F23D
:1017400062656E430022C4F8E42006F57426E26C5C
:10175000784806F23F266B08B6FBF0F606FB09F068
:10176000963B02446664A3649A4294BFE264E364D5
:10177000A0FB0B016AA3D3E90023FEF7B1FCA8EBA1
:101780000008D4F81001B0FBFAF00AFB00F064A3E3
:10179000D3E90023A0FB0B01FEF7A2FCAE1B20F057
:1017A0007F49B4F80831B4F80C21E38542F2107394
:1017B00003FB0252B4F80A115F4B2186013AB2FBD7
:1017C000F5F2A4F8C6205D4A2B442A44B3FBF5F396
:1017D000B2FBF5F5A4F8CA308A1DABB29342A4F867
:1017E000D230C2BF5B1A063B9BB2A4F8CE3094F84D
:1017F00006315D0744BF0023A4F8C8300221012050
:1018000015F078FD00220221824601200DF098F9A2
:10181000204611F0CBFD0330C5B2494B00942A4657
:10182000012100200DF0C4FE30F002030CD04FF473
:1018300014633D4A43493E481BF0BDFF404080F3DE
:1018400011884FF0030002DFA6FB0B6734A3D3E936
:10185000002330463946FEF743FC3B4B0894CDE964
:1018600006433A4B0593E368049300230393384BF4
:1018700020F07F44A4FB03BC072303FB04CCB6EB9E
:101880000B0067EB0C014FF47A720023FEF728FC83
:101890004346CDE90140CDF800902A4601210020C1
:1018A0000DF0F4FD30F002030CD040F65A131E4A3E
:1018B00024491F481BF07FFF404080F311884FF000
:1018C000030002DFBAF1000F04D00122022110460A
:1018D0000DF036F96FF0470074E603232B71D9E65B
:1018E00005FB113189B248430DA3D3E90023A0FBC6
:1018F0000B01FEF7F5FBA8EB0008FEE64FF41163C1
:10190000094A14490A481BF056FF404080F31188E9
:101910004FF0030002DF4FF000092E4641E700BF01
:101920008D49FD1A07000000569402001D95020023
:10193000F47F020040420F00FF5962027FC3C901D9
:10194000952F0100B59302003D2F0100A15A01001F
:101950008D49FD1ACAA0020000CA9A3BE38E628E2E
:1019600013449A4494F8EC30D8071FFA8AFA25D524
:10197000CB481FF06FFF054600283FF41BAE94F8DC
:10198000EC306FF3000384F8EC30238E9A44037933
:101990000AF1060A43F00303A4F8F2A00371082336
:1019A00043710123C371052204F1ED0108301DF0DC
:1019B00023FEB4F8F230A5F80D30F7E5B4F8F230B4
:1019C000AAEB030A1AF4004F7FF4F4AD04F13805D2
:1019D00084F8E910052204F1ED0128461DF00CFE03
:1019E000052128461FF0B2FF94F83D3060F305034F
:1019F00084F83D30012384F8C431DBE594F8EC60D1
:101A000016F0030663D094F93D30002BBFF6D2AD3B
:101A1000012E7FF4CFADA2481FF01CFF074600281F
:101A20003FF4C8AD037943F0030303710D23437101
:101A30000423C3719B4B186843685E6807F108056F
:101A40001EB100230C222946B0472946082204F182
:101A5000F6001DF0D1FD042207F1100104F19C00F5
:101A60001DF0CAFD3946204620F0BDFA0FF0ECFC0F
:101A7000054600283FF49EADA38DC38090F820302A
:101A800043F0030380F82030172380F8213002262A
:101A9000032380F823300822067104F25511243004
:101AA0001DF0AAFD94F8533185F82C3094F8543188
:101AB00085F82D30294628680FF09EFC0FF0A6FC13
:101AC00094F8EC3066F3010384F8EC3072E5744866
:101AD0001FF0C0FE054600283FF46CAD94F93D3080
:101AE000002B00F1040747DB04F17F084346324630
:101AF00004F1EE0104F25D1020F01CFD10224146BD
:101B000004F1A0001DF078FD04F19801082204F111
:101B1000B9001DF071FD94F8973084F88F6066F37A
:101B2000000384F8973094F8B83084F8906043F05C
:101B3000010384F8B83094F87E3084F8916043F063
:101B4000080384F8926084F8936084F8946084F8C1
:101B5000956084F89660C4E92C6684F87E30394636
:101B6000204620F043FA2946204620F03CFA94F81B
:101B7000E83084F8E9301DE594F87E301A0765D422
:101B800094F8ED60F6B1037943F00303037194F820
:101B9000DC30DB0711D5D4F81C315F070DD51123DC
:101BA000C37103230372467202236B716B79013395
:101BB0006B71002384F8ED30D5E70D23EB712E72A5
:101BC0000123F2E704F17F073B46324604F1EE01C0
:101BD00004F25D1020F0AEFC1022394604F1A000A2
:101BE0001DF00AFD082204F1980104F1B9001DF06E
:101BF00003FD94F8973084F88F6043F0010384F874
:101C0000973094F8B83084F8906066F3000384F855
:101C1000B83094F87E3084F8916043F0080384F87B
:101C20007E302B7984F8926043F0030384F893604C
:101C300084F8946084F8956084F89660C4E92C6612
:101C40002B7101236B710523EB718CE7394620461C
:101C500020F0CCF92946204620F0C5F994F85231FD
:101C600023F0030384F8523181E70D481FF0F2FDA1
:101C7000014600283FF49EAC94F8E83084F8E9303F
:101C8000037943F003030371012343711223C371EA
:101C9000204620F0A8F9B4F8CA30A4F8CC3089E482
:101CA0000014002084130020628EE38E134494F805
:101CB000EC209A44D0071FFA8AFA68D502200FF068
:101CC000ABFB064600283FF475ACC0481FF0C2FDD0
:101CD000054600283FF46EAC94F8EC306FF3000337
:101CE00084F8EC30DBB2C3F3820757EA531737D1DD
:101CF00094F8E82084F8E9209B07A4F8EE7019D541
:101D00000FF0A2FBA38DF38086F820700E233371B1
:101D100094F864303068C3F3020386F8213094F8F5
:101D20006530C3F3020386F8223031460FF064FBBE
:101D30000FF06CFB2B7943F003032B7105236B71C0
:101D40001823EB7194F8EC30C3F382032B7294F8F0
:101D5000EC30C3F342136B72B4F8EE306B8125E4C0
:101D6000238E9A440AF1060AA4F8EEA00FF06CFB49
:101D70003368D4F800215A60C4F800610FF064FBA6
:101D80000368D4F800215A60C4F80001D2E7B4F81F
:101D9000EE30AAEB030A1AF4004F7FF40BAC94F870
:101DA000643094F8655084F8E91012F01C0F03F0C9
:101DB000070705F00705B4F862606AD1B4F86080DF
:101DC00012F0E00F08D094F86530520962F3020374
:101DD00084F865304FF4A47694F8AC3194F864201C
:101DE000D4F80091C3F3C00363F3C30284F8642002
:101DF000B9F1000F02D0D9F8003063B94FF4606335
:101E0000734A744974481BF0D6FC404080F3118833
:101E10004FF0030002DFD9F8000094F86420436813
:101E2000C4F8003194F8ECE094F86530C2F3020293
:101E3000C3F302031EF0020F5FFA82FCD9B242D153
:101E4000674540D18D423ED1032389F8043049468D
:101E50000FF0D2FAD4F800510DB12B6863B940F6F7
:101E60000F635B4A5B495C481BF0A5FC404080F374
:101E700011884FF0030002DF28684368C4F800317E
:101E800003232B7129460FF0B7FA0FF0BFFAFFF7C3
:101E900091BBC2F3820161F3020384F8643094F8C9
:101EA0005C300E33DB00C1F34001CB40B3F5A47FBF
:101EB00006D3B4F8D8809BB2984528BF98467FE7F0
:101EC0004FF4A4787CE7A18DA9F806100E2189F8BB
:101ED0000410002189F8201089F8212089F8223087
:101EE00049460FF089FAD4F800510DB12B6863B957
:101EF00040F62C63364A374937481BF05CFC4040BB
:101F000080F311884FF0030002DF28684368C4F8AB
:101F10000031B4F86030434503D3B4F86230B342C3
:101F2000AED2A38DA4F86080A4F86260EB80022397
:101F30002B7195F8203043F0030385F820300923F6
:101F400085F82130152385F82330B4F85E30AB8452
:101F5000B4F85C302B85EE84A5F82A8092E740F235
:101F600076331B4A1D491C481BF025FC404080F37A
:101F700011884FF0030002DFFFF71CBB13481FF06E
:101F800069FC014680B194F8283184F8293103793D
:101F900043F00303037102234371C37194F82A31A0
:101FA0000372204620F01FF8B4F8CC0000287FF41C
:101FB00008ABB4F8C630012B03D9A4F8CC30FFF736
:101FC00000BB0133A4F8CC30FFF7FCBA00140020AA
:101FD000569402001D950200F47F0200CAA0020080
:101FE0002DE9F04F97B01D460E9013682846904695
:101FF00000220C4650F80C6B9A6005F1080A032287
:102000003231D3F8009005F11C071DF0F5FA0422D7
:1020100004F12E0150461DF0EFFA052204F13E01B5
:1020200038461DF0E9FA052138461FF08FFC95F877
:10203000213060F3050385F8213094F84330C3F371
:10204000040385F82230278F6F8294F83B2094F8A0
:102050003A3043EA0223AB82E38EADF83C3094F889
:10206000433096F8DC205B0963F3840286F8DC20B9
:1020700020F081F90A9096F8DC00C0F3820013F09A
:102080003FFA0A9BA98A40F2E24B0BFB07F7184480
:10209000784300F57420B84B00F23F20B0FBF3F01A
:1020A0007B08963BEB6294F83530A8620BFB03F398
:1020B000EB63A38FADF82C30BDF82C2042F21073E7
:1020C00003FB0273013BAD4AB3FBF7F3A6F8C6303E
:1020D000AB4B881D3B443A44B3FBF7F3B2FBF7F23A
:1020E000A6F8CA3093B28342A6F8D230C2BF5B1AB8
:1020F000063B9BB25146A6F8CE30042206F1E00022
:102100001DF07AFA98F8153094F820A00A93062268
:1021100004F1280114A81DF06FFA94F82030C3F3DD
:1021200080138DF8403004F122031946062212A8CC
:1021300011931DF061FA94F82020CAF3C01AC2F37B
:1021400040134FF480728DF830302284DBB284F873
:102150002FA0062214A904F130000D931DF04CFAB3
:102160000A9BFF2B04F1290B04F1230A00F0EE80F7
:10217000119B0A981946524613F09AFE94F82230A1
:10218000023384F82230062212A958461DF034FA90
:102190006B8AE386AB8A2387BDF82C30638796F879
:1021A000DC30C3F3820384F83C30304611F0FEF893
:1021B000D8F804A028822146E0800E980FF01CF980
:1021C0002B8AAAF806300D238AF804300D9BDAF822
:1021D0000000002B00F0C7806A7A2B7AE97A43EA84
:1021E0000223AA7A42EA012295F82110534041F0D5
:1021F00040016B8485F8211001238AF82030514674
:102200000FF0FAF80FF002F9D8F810B0DFF890A14B
:10221000002431230BF25240C6E90034B46054A3C9
:10222000D3E90023A0FB0A01FDF75AFFAB6ABDF812
:102230003C20FF1AD8F80C30A3F5AE73A3EB0B03C8
:1022400040F2E24B20F07F400BFB02BB5B44224696
:102250000221F06001200A930CF072FC484610F055
:10226000B3F9821C474BCDF80090D2B20121204631
:102270000DF09EF9494613F0F7FB99F82830DB077B
:1022800006D5012200942346114620460DF090F910
:10229000304611F08BF8A7FB0A45814634A3D3E9F9
:1022A000002320462946FDF71BFFD8F80830A3F18C
:1022B000310840F21D130893334BCDE90663334BCD
:1022C0000593F3680493324B20F07F46A6FB03BCD2
:1022D000072303FB06CCB4EB0B0065EB0C0109F103
:1022E00003074FF47A724FF000090023CDF80C90E9
:1022F000FDF7F6FE0A991EA3D3E90023CDE901609C
:10230000A1FB0A01FDF7ECFEFFB220F07F40009038
:1023100043463A46012148460DF0B8F830F0020332
:102320000CD040F21F131B4A1B491C481BF043FAF8
:10233000404080F311884FF0030002DF01220221A8
:1023400010460CF0FDFB17B0BDE8F08F062200210F
:1023500058461DF07BF99DF8403084F82230062263
:1023600012A9504612E79DF8303046E7AFF30080DF
:102370008D49FD1A0700000040420F007FC3C901CC
:10238000FF596202695A01003D5A0100A15A010039
:102390008D49FD1AAE960200B5930200F47F02004B
:1023A00000CA9A3B000000002DE9F8438946D0E9B5
:1023B0000B71466B164D8C193034A742904612A310
:1023C000D3E9002315D8A1FB0501FDF789FE20F014
:1023D0007F40C9F80000E01B0BA3D3E90023A0FB5A
:1023E0000501FDF77DFE20F07F40C8F80000BDE844
:1023F000F883A7FB0501FDF773FE20F07F40C9F8C5
:10240000000006F13000E7E78D49FD1A07000000E3
:1024100000CA9A3B000000002DE9F84F044620F066
:1024200093FB257B824615B11FF0BDFB05460FF2DD
:102430006809D9E90089DFF868B00027606816F0FC
:1024400045F9A368A3EB0A03A36063685344636080
:10245000237B01374BB9A368002BEFD1A068003074
:1024600018BF01204042BDE8F88F1FF09CFB2946B1
:102470001FF09BFBB0FBF7F60644606942464B46F3
:10248000A0FB0B01FDF72CFE20F07F408642E2D935
:10249000E4E700BFAFF300808D49FD1A070000009C
:1024A00000CA9A3B000000002DE9F04F8FB0D0F831
:1024B00004A0DFF8D8900DF1370180460DF1360009
:1024C0001FF011FC9DF836300A939DF837300B93BE
:1024D0001FF069FBDAF81040A4FB094526A3D3E9F5
:1024E00000230027834629462046FDF7F9FDCDE964
:1024F0000777234B0593CDF818800646DAF81400C9
:102500001DA3D3E90023A0FB0901FDF7E9FD1D4B45
:1025100026F07F46A6FB039A20F07F400723CDE9F3
:10252000037003FB06AAB4EB090065EB0A014FF444
:102530007A720023FDF7D4FD5B46CDE90160009778
:102540000B9A0A9803210CF0A1FF30F002030AD184
:1025500045F6B3110C481AF0DBF938B9D8F8080081
:102560000FB0BDE8F08F6FF04700F9E76FF03B0068
:10257000F6E700BFAFF300808D49FD1A07000000A9
:10258000617F01008D49FD1AD018002000CA9A3BD6
:102590002DE9F047067B044616B11FF004FB064602
:1025A000606810F0030567D0A3682168C5F10405D1
:1025B0009D4228BF1D462A4616F0B6F863682B4494
:1025C000636023682B442360A3685D1B237BA560A5
:1025D000002B51D01FF0E7FA31461FF0E6FA2C49E4
:1025E0004500606928A3D3E90023A0FB0101FDF7A2
:1025F00077FD20F07F4085423ED915F0A1FC4FF0D9
:10260000FF30BDE8F08723686068196816F07EF82F
:10261000636804336360236804332360A368043B66
:10262000A360237B013593B11FF0BDFA31461FF043
:10263000BCFAB0FBF5F70744606942464B46A0FB85
:102640000A01FDF74DFD20F07F408742D5D8A268F2
:10265000032AD8D862B1D4E9001016F065F8D4E99D
:10266000012123680B440A44236000236260A360B5
:1026700015F066FC0020C4E70125DFF814A00FF276
:102680000809D9E90089E2E78D49FD1A0700000031
:1026900000CA9A3B70B506460D4621B911481BF099
:1026A0008AF8002070BD104C098A10481BF083F88E
:1026B0001022002120461CF0C9FF0D4B23600D4B5A
:1026C000E3602B8A23814FF6FF7363810A4B00225C
:1026D000214630461A6009F097FF0028E1DA0748E2
:1026E000DDE700BFA56B020030000020C56B0200D3
:1026F000592700002A6000202C000020E76B020010
:1027000037B5114C0023042205468DF804300DEB3B
:10271000020142F62B232046ADF806301CF06CFF78
:102720000A490B4B4B6001230B814FF6FF73CB81A2
:10273000284603230B740C6009F0B0FB10B1054868
:102740001BF039F803B030BD2A60002018000020CB
:1027500095260000026B0200F0B587B01E4DBDF853
:1027600030601E481E4C1F4632462B681BF023F873
:1027700007B11EBBA379019363790093E2782379B3
:10278000218818481BF017F80A22002103A81CF022
:102790005DFF2288ADF80C206288A379ADF80E2089
:1027A0001148A288ADF810208DF812301BF003F804
:1027B0000E4B3C221A60002007B0F0BD2B680A20A7
:1027C000324600FB034039461CF016FF2B681E44BE
:1027D0002E600120F0E700BF2C000020256B0200D6
:1027E00020600020546B0200896B020094DE002000
:1027F000014806F08DBB00BF78DE002010B5074C05
:102800002368002B02DD013B236010BD0022044938
:10281000072006F04DFE3C23F6E700BF94DE0020C3
:102820000127000038B515498C790134E4B23B2CFE
:102830000AD88C71D0E900128968497AB1B9104878
:10284000BDE838401AF0B7BF4C790134E4B2002536
:102850003B2C8D7101D84C71ECE70C794D71013432
:10286000E4B2172C94BF0C710D71E3E7D46800211A
:102870001A46A0470028E2D138BD00BF2E600020D4
:10288000F96C0200064B02791A7142795A71827909
:102890009A71C278DA7082789A7002881A807047CA
:1028A0002E6000202DE9F04300208DB005F048FB9C
:1028B000044630B101466D481AF07DFF0DB0BDE809
:1028C000F0836B481AF077FF1CF0EFFA69481AF0B2
:1028D00072FF0923ADF810408DF81130A023ADF838
:1028E0001230F023ADF814306349009423460322DC
:1028F00004A81DF0A1FA0146002842D05F481AF052
:102900005AFFFFF775FF5E4819F026F90546436840
:102910005C4C1B6898472B685B499B685A4A58680F
:1029200000260023E660A0FB0101FDF7D9FB574B11
:10293000A46023602B6860609B685B7A2BB16B6836
:102940002246DB68314628469847002406A8FFF750
:1029500099FFCDE90944CDF82B404D4819F0FCF81A
:10296000064690B901234FF0000163F30701494A7D
:10297000494B4A489B1ADB0863F38F111CF06AF835
:102980009CE747481AF017FFBBE7464819F0E4F800
:102990000546436816221F6821460123B8476B6825
:1029A000DFF810815F68DFF8109123461622214678
:1029B0002846B8471AF039FB214618F08DFD012151
:1029C000054622F03AFA2846012122F05DFA28460F
:1029D000F02120F0BBFA3449284622F0D9F91AF048
:1029E00024FB214618F078FD07461AF01EFB21460D
:1029F00018F072FD2346054605222146384600940C
:102A000020F0F8FA2346224621462846009420F07A
:102A1000F1FA736830465B68244E9847B3790093A7
:102A200073793279414603A803F0EAF8494628460B
:102A300022F0AEF903A9284622F0AAF96423B4FBD8
:102A4000F3F203FB12433BB9194909A803F0D8F884
:102A500009A9384622F09CF918F028F80A2019F044
:102A6000FDFE0134FFF7CAFED8E700BF0C6C020080
:102A70002C6C0200436C0200985C0200546C020053
:102A80009C6C02004000002040420F0025280000FE
:102A9000A26C02006C5A02006C5A0200AA6C02007E
:102AA0007A6C0200CC6C0200D36C02002E60002015
:102AB000F78802007D6B0200ED6C020010B5094C36
:102AC0000A44914200D110BD11F8013B434018095E
:102AD000205C80EA0310C3B21809205C80EA03106E
:102AE000C0B2EEE7116D02000B6801330B60014BC1
:102AF0001B68184798DE00202DE9F04F85B09B46F3
:102B00000E9CDFF88890012CB8BF0124012B0CBF6C
:102B100030232023164682468846029301250A2741
:102B20000022B6FBF9F301930AB9B1451DD8019B08
:102B3000414603F13000D04701350122019B013F9E
:102B4000012F09FB13664FF00A03B9FBF3F9E8D133
:102B5000414606F13000D047BBF1030F02D1641BA0
:102B6000002C0EDC05B0BDE8F08FBC42E6DBBBF10B
:102B7000020FE3D84146029803920135D047039AE9
:102B8000DCE741462020D047013CE9E700CA9A3BF8
:102B900007B50023019302460B46034801A91AF02A
:102BA0009AFC03B05DF804FBE92A000030B585B05B
:102BB000CDE901010446002501A9054803951AF055
:102BC0008AFCDDE902309842B8BF255405B030BD1B
:102BD000B1D40100014B1868704700BF9CDE002093
:102BE000F0B5082289B00C4606461AF0E7FFCB6A1A
:102BF00003930B6B04934B6B05938B6B0693CB6B1F
:102C00000793002708236A4669466846CDE901779D
:102C100000971AF0D8FE082305466A46314630462A
:102C20001AF0D1FE236B0393636B0493A36B05939C
:102C3000E36B0544CDE906376A46082369466846D2
:102C40001AF0C1FE3146054408236A4630461AF0A0
:102C5000BAFE236A0093636A0193A36A0293A36B8B
:102C60000693E36B0793054408236A463046CDE993
:102C7000047703971AF0A7FE636A0093A36AA26B16
:102C80000193E36A02930492636BE26B0393CDE9D1
:102C90000523236A0793054408236A4630461AF041
:102CA00092FEE36A0093236B0193636B0293236AA2
:102CB0000693A36A0793054408236A463046CDE984
:102CC000047703971AF0B0FF236B0093636B0193B3
:102CD000A36B0293E36B0393636A0693E36A079320
:102CE0002D1A08236A463046CDE904771AF09CFF76
:102CF000636B0093A36B0193E36B0293236A0393CB
:102D0000636A0493A36ACDE90537236B07932D1AF1
:102D100008236A4630461AF087FFA36B0093E36BE3
:102D2000CDE90137636A0393A36A0493E36ACDE9AB
:102D30000537636B07932D1A08236A4630461AF04D
:102D400073FF2D1A0D4C0FD435B908223146204699
:102D50001AF040FF01280FD00823224631463046A2
:102D60001AF062FF2D1AEFE708232246314630465B
:102D70001AF029FE2D18F7D409B0F0BDB45C02009A
:102D8000F0B5284E07460C460FCE8DB001AD0FC5ED
:102D90000FCE0FC596E8070085E80700002F3CD04E
:102DA000002C3CD0381F2146024610344B780D7859
:102DB0001B0443EA0563CD782B438D78043143EA45
:102DC00005238C4242F8043FF0D1174C04218A07B6
:102DD000036918D14FEA33631A0EA55CDAB2A25C1C
:102DE00042EA0562C3F30745C3F30723655DE35C6D
:102DF00042EA054242EA03220CAD21F003032B44D0
:102E000053F82C3C534050F8042F013153402C29E7
:102E10000361DCD101200DB0F0BD3846FBE7204650
:102E2000F9E700BFE05B0200216D02002DE9F043ED
:102E3000154689B00746002859D000295AD0002AE3
:102E40005AD010230A46684619461AF0F8FC29465B
:102E50006846DFF8A8901BF0FEFB05F11006C84697
:102E6000A0356C466A4610231178013B19F8011011
:102E700002F8011BF8D168461BF032FC694604A831
:102E80001BF067FC01A905A81BF063FC02A906A8BA
:102E90001BF05FFC03A907A81BF05BFC102319467D
:102EA0000DEB030268461AF0CAFC3146684610363C
:102EB0001BF0D1FBAE42D4D110262378013E18F886
:102EC000033004F8013BF8D168461BF009FC2946A1
:102ED00068461BF0C0FB102319466A4638461AF0B4
:102EE000AEFC6846102231461AF0B6FC012009B04B
:102EF000BDE8F0830846FAE71046F8E7216D0200C6
:102F000030B5002287B00D490D4822F01DFB0D4D54
:102F10000D4900240E23CDE90243CDE90444CDE957
:102F200000440A4B4FF44072284619F069FD0849E5
:102F3000284622F027FA204607B030BD552F000062
:102F400064000020AC00002028A8002029330000E5
:102F5000216E0200014819F0AFBC00BF20E600203E
:102F600008B500F041FA09481BF031FD042328227E
:102F70000748084921F0E3FF074B084A1A604FF45D
:102F80000040BDE8084000F0A5BA00BF5C0000208A
:102F90009000002090D10020A0DE00200DEA01006A
:102FA000F8B50F4BBFF35B8F002553E8007F43E874
:102FB0000052002AF9D1BFF35B8F0A4C0A4E361B30
:102FC0003611B54200DBF8BD63685B792BB123682D
:102FD000DB6813B139462046984701351034F0E7D5
:102FE00054000020DC5B0200DC5B0200064BBFF3F8
:102FF0005B8F53E8002F013243E800210029F8D10C
:10300000BFF35B8F704700BF54000020094B42683C
:10301000C31A1B11013310B513714368064C1960B4
:1030200001225A71227812B9044819F045FC012393
:10303000237010BDDC5B02005C60002020E60020F5
:1030400070B5114BBFF35B8F53E8005F6A1C43E818
:1030500000210029F8D1BFF35B8F2DB90B4C0C4E2A
:10306000361B3611B54200DB70BD237B43B12368AC
:103070005B6903B19847042200212046FFF7C6FF91
:1030800001351034EEE700BF58000020DC5B020081
:10309000DC5B0200164B984237B5044602D3154B51
:1030A00098421FD3002201A9134818F0FBFE0546E1
:1030B000D8B90122019BBFF35B8F53E8001F43E89F
:1030C00000200028F9D1BFF35B8F019821461F2211
:1030D00004301CF03EFA019C7E2384F8233084F8EF
:1030E00024500434204603B030BD044CFAE700BF3E
:1030F000B8570200FC1E030090000020296E020059
:1031000048B1054B984205D3A03398422CBF00200C
:10311000012070470020704790D100202DE9F84F22
:10312000464B1B78054603B960B34FF02003EFF31D
:10313000118683F31188BFF36F8F41481BF057FC52
:10314000044686F31188BFF36F8F78B1BFF35B8FAE
:103150003C4B53E8002F013A43E800210029F8D105
:10316000BFF35B8F8DB120461BF0F3FC25B9364BC6
:103170001B680BB1FFF714FF31481BF036FC051C30
:1031800018BF01252846BDE8F88F304B1B78ABB936
:10319000237ADB0712D41BF0EFFC814620461BF09C
:1031A000B8FC014648461BF035FC294B294ADFF89C
:1031B000BCB09B1A0746C3F3C90A37B9264E274F3E
:1031C000BF1B3F114FF0000834E0B7FA87F6C6F195
:1031D0001F06314620461BF09FFC214B98420246B9
:1031E00002D3204B984214D31046FFF789FF80B9D1
:1031F0001D4B9A420DD028F03F0343F0010363F3C7
:1032000007086AF38F1843464A46314658461BF072
:1032100042FC012303FA06F627EA0607CDE77368A6
:103220005B7923B1336821461B683046984708F123
:1032300001081036B845F2DB95E700BF5C6000205E
:103240005C00002050000020540000205D60002041
:10325000945B02006C5A0200DC5B0200DC5B020043
:10326000B8570200FC1E0300296E0200476E0200E0
:10327000264B70B51B68418105469847244CE86091
:10328000BFF35B8F54E8003F013344E80032002A6B
:10329000F8D1BFF35B8F4FF02003EFF3118683F378
:1032A0001188BFF36F8F1B4829461BF094FB86F3F0
:1032B0001188BFF36F8F184B1A787AB14FF0200343
:1032C000EFF3118483F31188BFF36F8F0020FFF7B2
:1032D00025FF84F31188BFF36F8F70BD0F492368FA
:1032E00009680029F9D0012B06D14FF47A710C48F6
:1032F000BDE8704019F0D4BD0A2BEED1084822F089
:103300002FF90848BDE8704019F0D6BAA0DE0020B9
:10331000500000205C0000205D60002018010020AB
:103320006400002020E6002008B5FFF789FE19F0B0
:10333000BDFA0B4B186030B10A4B1B68092B02DD3C
:10334000094819F0B9FA084C0020FFF7E7FE0028F9
:10335000FAD14FF0FF31204619F0DAFAF4E700BF56
:10336000180100205000002020E60020F8B50E4F84
:103370003D7875B90D4C0E4EFFF762FE361B3611C7
:10338000B54207DB0020FFF7C9FE0028FAD1012370
:103390003B70F8BD63685B791BB1236820461B69ED
:1033A000984701351034EBE75D600020DC5B0200DC
:1033B000DC5B020007B504380190BFF35B8F50E877
:1033C000003F5A1E40E800210029F8D1BFF35B8F6F
:1033D000012B03D101A9034818F090FD03B05DF85B
:1033E00004FB00BF9000002020231A460149024838
:1033F00021F0A5BD30D200201C01002037B50023EC
:10340000094D01930120FFF789FE0446FFF7EEFD09
:10341000002201A9284618F045FD08B1002CF1D181
:10342000019803B030BD00BF1C01002007B5002289
:1034300001A90648019218F035FD10B1FFF7DEFF33
:103440000190019803B05DF804FB00BF1C0100204F
:10345000F0B5047A467A85B014F0010401904FEA81
:1034600016160ED0019B1A7A920704D55B69184C88
:103470000393039B2BBB01A9154818F03FFD05B032
:10348000F0BD002EEED0254617E029461BF044FB88
:103490000746FFF735FE78B13CB9019B3146186904
:1034A0001BF0B8FA04460028DCD024FA05F3DB0749
:1034B00002D53846FFF77EFF0135AE420198E4D8C9
:1034C000D0E71D6803A9204618F018FD0395D0E742
:1034D0001C010020084A10B50123084C136000218C
:1034E000A04204D801B11360054B186010BD40081C
:1034F0005B000121F4E700BF3C01002040420F00C7
:10350000380100201FB507240294044C0194BDF833
:10351000184000941DF027FC04B010BDB6E4002054
:1035200003234FF0000263F307020748074B1B1AFF
:10353000DB08074863F38F12064B012914BF0146CD
:10354000194605481BF093BA6C5A0200745A0200DF
:10355000A76E02009F6E0200B06E020010B5084C0C
:1035600086B024788DF81740012402940DF11704D9
:103570000194BDF8204000941DF0F5FB06B010BD8D
:10358000BDE40020024B01221A700020704700BFEA
:103590005E6000201FB501240294044C0194BDF824
:1035A000184000941DF0DFFB04B010BD5E600020E9
:1035B00003234FF0000263F307020748074B1B1A6F
:1035C000DB08074863F38F12064B012914BF01463D
:1035D000194605481BF04BBA6C5A0200845B020086
:1035E000A76E02009F6E0200C96E02002DE9F04333
:1035F000082385B00D460968047C07461BF030FBA4
:1036000068B9082120461BF076FB2968BB89014474
:103610008AB21B1A9A420646296003D0002005B0E0
:10362000BDE8F0830B0C03BFFB8903F1FF3301EB13
:103630000341A1F58031296008236A4638461BF012
:103640000FFB0028EBD16A46034612F8011BFF2945
:1036500015D10133082BF8D17B682B60DFE7BA89DD
:10366000BDF80230921B93420FD2B3FBF6F206FB79
:10367000123252B9240C24041C442C60CFE7684653
:103680001BF024FB2C680028E9D0104BA41B2C60F5
:1036900004EA03089946A045C0D208230DEB0302B3
:1036A000214638461BF0DCFA0028B8D102A81BF0EE
:1036B0000DFB40B9BDF80A30BDF80C202C6008EABB
:1036C000090813449844A41BE5E700BF0000FFFF6E
:1036D0002DE9F04F044693B00821007C1BF00BFB52
:1036E00063681B0C1B04814601A9E08901931BF050
:1036F0000BFB019BA18904AD1944A1EB09012A46EA
:103700000823204602911BF0ABFA021E70DB002357
:10371000EA5CFF2A70D10133082BF9D101992046C8
:103720001BF01FFB024663E05645354628BF554651
:103730000AAA2B46394620461BF092FA0246002878
:1037400056D135B10AAA2B46A16820461BF02FFBA3
:1037500002462946207C1BF0CEFAA3681844A060DC
:10376000002A45D1AAEB050A2F4437E0D945D5D028
:1037700006AA02A92046DDF808B0FFF737FF024687
:10378000002835D16368039308AA03A92046039D46
:10379000FFF72CFF024658BBBDF82020BDF81830BB
:1037A0009A42F1D108A81BF091FA0028ECD15D45AE
:1037B000DCD1BDF81C30002BD8D0BDF81A300BEA94
:1037C00008071F4406A8A368ADF81A301BF08AFA50
:1037D000267CBDF81CA0764206F02006BAF1000F48
:1037E000A2D106A920461BF026FB02460028BDD028
:1037F000104613B0BDE8F08F029B054ABDF81210C9
:10380000A3EB090913400B4402939046B0E700BFB5
:103810000000FFFF2DE9F043044687B00D4600F19C
:103820001406304621F0B6FB284618F095F9A06240
:1038300098B901234FF0000163F30701A04AA14B9F
:10384000A1489B1ADB0863F38F111BF003F96FF09B
:103850000505284607B0BDE8F08343681B7D237447
:10386000202B10D901234FF0000163F30701944A84
:10387000944B96489B1ADB0863F38F111BF0EAF810
:103880006FF01505E5E7A06A216803AA1FF012F999
:1038900060B101234FF0000163F30701884A894BAF
:1038A0008B489B1ADB0863F38F11E7E7A3892BB1E1
:1038B000049AB3FBF2F502FB153565B101234FF015
:1038C000000163F307017E4A7E4B82489B1ADB08A6
:1038D00063F38F11D2E7E389012B0CD801234FF05A
:1038E000000163F30701764A764B7B489B1ADB089D
:1038F00063F38F11C2E700954FF0FF31304618F0A7
:10390000C7FB0821207C1BF0F6F9A9460746E3898E
:103910001FFA85F8434505D8E3894B451ED16FF062
:10392000200596E7A1892B04C91B13FA81F108220F
:10393000204600911BF0F2F970B16946E0891BF056
:10394000E3F909F101090822009920461FFA89F9D3
:103950001BF0E4F90028DFD00135D8E798450AD1FB
:1039600000990822C91B20461BF0D8F918B96946EE
:10397000E0891BF0C9F9009BDA1B6260574A1340CB
:10398000A3609046D4E9011399420ED3082301AAFB
:1039900020461BF065F9054618BB01AB13F8012B57
:1039A000FF2A75D10135082DF8D1D4E901218A42C9
:1039B00006D9521A20461BF0B1F9051E11DB4AD177
:1039C0006368DFF81881E08903EA08036946009319
:1039D0001BF09AF9A289009920461BF09FF9051E59
:1039E0003EDA304618F0C6FB002D7FF432AF0123DB
:1039F000637403224FF0000362F30703314E304A31
:103A0000E1893748B61AC6F3C90666F38F13A2894F
:103A10001BF041F86168334803224FF0000362F362
:103A2000070366F38F138AB2090C1BF034F8A16800
:103A30002D4803224FF0000362F3070366F38F1350
:103A40008AB2090C1BF027F803E7B9F1000F34D054
:103A50006FF01C05FDE6A368227C1344A360A4E775
:103A6000BFD0616820461BF07CF905460028B8D11C
:103A70006068A38900EA08001844A0EB4700606072
:103A800000EA0800A0602046FFF722FE0546A8E7EE
:103A900001A81BF01BF9656878B90098BDF80620ED
:103AA000BDF8089000EA080002444946207C1BF05B
:103AB00022F91044A842A060C7D0ED1B656061E701
:103AC0006C5A02007C5B0200F66E0200126F02006C
:103AD0002F6F0200476F02005B6F02000000FFFFC4
:103AE0007E6F0200956F0200A76F02002DE9F04F74
:103AF0001E46437C89B00446894690469BB9012303
:103B00004FF0000163F30701674A684B68489B1A4E
:103B1000DB0863F38F111AF09DFF6FF00C05284648
:103B200009B0BDE8F08F90F810A0082150461BF0B6
:103B3000E2F8A38900EB40029B1AB3420746C0F0AB
:103B4000AE801EB1B8F1000F00F0A9806368039346
:103B500004AA03A92046DDF80CB0FFF747FD05468F
:103B60000028DCD1BDF810304B4505D06268039BBE
:103B70009A42EDD1DEB9D2E704A81BF0A7F80028DD
:103B8000F4D1BDF8143086B1B34210D1BDF81200A3
:103B90004FEA1B41090401443346424620461BF0CC
:103BA0006DF8002803DC0546B9E7002BB7D0314695
:103BB00050461BF0A0F800283ED1074604F1140A35
:103BC0004FF0FF315046DFF8ECB018F061FA0023F7
:103BD000E289934260D0D4E90121781882422ED341
:103BE000FF2306A8ADF81890ADF81A10ADF81C60C8
:103BF0008DF81E301BF076F836B133464246A16888
:103C000020461BF0D4F805463146207C1BF073F8A3
:103C1000A3681844A060002D44D106A920461BF0DB
:103C20000AF9054600283DD132460192504618F067
:103C3000A1FA019A154672E70744BFB2BEE7082110
:103C4000207C01931BF057F84FF6FF71ADF8181068
:103C50000021ADF81C101118ADF81A10A18902EA64
:103C60000B020A44121A626006A81BF03BF806A970
:103C700020461BF0E0F8211DE0891BF045F8626842
:103C800002EA0B02A2602046FFF722FD024600284E
:103C9000CBD1019B01339BE76FF01B02C5E76FF0AF
:103CA00015053CE72A46C0E76C5A02007C5B02001F
:103CB000E26E02000000FFFF2DE9FF471F46437C34
:103CC000BDF8308004468A46914693B901234FF0EF
:103CD000000163F30701294A294B2A489B1ADB0894
:103CE00063F38F111AF0B6FE6FF00C0004B0BDE85C
:103CF000F0870821007C1AF0FEFFA389A3EB4000A7
:103D0000B84238D363680193002502AA01A920466E
:103D1000019EFFF76BFC0028E8D1BDF80830534541
:103D200005D102A81AF0D2FF08B90135ADB2626818
:103D3000019B9A4218D04545E7D9BDF80C30BBB17C
:103D4000454515D3BDF80A00310CBB424FEA01418D
:103D500028BF3B4601444A4620461AF081FF00280E
:103D6000C4D1BDF80C00C1E7BDF808305345E4D01C
:103D70006FF00100BAE76FF01500B7E76C5A020068
:103D80007C5B0200E26E0200084B30B51D68084BF8
:103D9000196800239D4202DC0022104630BD1C0140
:103DA0000A190C5D8442F8D00133F3E72C5F02005E
:103DB0000CDF0020084B1B6810B50C462BB1FFF739
:103DC000E3FF28B12060002010BD6FF00C00FBE77E
:103DD0006FF00100F8E700BF0CDF002030B589B0BC
:103DE0000C4615460190FFF7CFFFB8B14368029328
:103DF00083682268C068CDE9033500230593CDE9C7
:103E0000062317F0A9FE60B101AA07491EF056FE6D
:103E1000079808B9059B236009B030BD6FF0150005
:103E2000FAE76FF01200F7E76FEE01000E4B2DE995
:103E3000F0411C6806460F46904694B14FF0FF31A2
:103E40000A4818F025F963683A469D6831464346AA
:103E50002046A8470446054818F08CF92046BDE8DE
:103E6000F0816FF00104F9E74801002094E600209A
:103E70000E4B10B51C680021224632B941B90460CE
:103E80005A6818605AB9586009E011461268F4E798
:103E90000C683CB902605A6812B9C3E9000010BD51
:103EA0001060F0E704600860F9E700BF40010020FF
:103EB000014B1860704700BF4801002030B585B045
:103EC00000230546CDE9023301904FF0FF310B4846
:103ED00018F0DEF80A4B1C6834B1636820461B6892
:103EE00001A998472468F7E7284600F0CBF8044674
:103EF000024818F03FF9204605B030BD94E6002096
:103F0000400100201FB5CDE9010103924FF0FF31C0
:103F1000094818F0BDF8094B1C6834B163682046A5
:103F20001B6801A998472468F7E7034818F022F9AD
:103F3000002004B010BD00BF94E600204001002026
:103F4000024B0022C3E90022704700BF400100205D
:103F5000024B0022C3E90022FFF7F2BF4C01002010
:103F60002DE9F34107460E4609B100230B601C4CB6
:103F7000DFF874800025444508D31A4B1C680CB147
:103F8000143CC4B9284602B0BDE8F08101AA2168FA
:103F900038461AF091FF60B125B90EB1019B33602C
:103FA000254606E00022296820681AF085FF0028CF
:103FB000F3D11434DFE701AA216838461AF07CFFF8
:103FC00060B125B90EB1019B3360254606E00022A1
:103FD000296820681AF070FF0028F3D16469CEE7E1
:103FE000085A02004C0100206C5A02002DE9F043EF
:103FF00085B005460C9C03900E4617469846B4B112
:10400000216879B103AA1AF057FF58B9002006E0D9
:10401000A36800933A46434631460398C84705B023
:10402000BDE8F083D4F80490B9F1000FF0D103A9F2
:104030002846FFF795FF0028E8D0846803983146AA
:1040400043463A46A04706460028DFD001234FF0FA
:10405000000463F307040849084BC91AC908284635
:1040600061F38F14FFF716F82346014632460448E1
:104070001AF011FDCAE700BFC45B02006C5A0200CF
:10408000D26F0200F8B5184C184F06460025BC4206
:1040900006D3174B1C680CB1143C9CB92846F8BDDC
:1040A0001EB9E3684BB91434F1E7002231462068A9
:1040B0001AF002FF0028F4D1F5E79847002D08BF59
:1040C0000546F0E71EB9E3684BB96469E3E70022EF
:1040D000314620681AF0F0FE0028F4D1F5E7984741
:1040E000002D08BF0546F0E7085A02006C5A02008E
:1040F0004C01002010B5064C23783BB9FFF728FF90
:1041000000F064F808B90123237010BD0020FCE71B
:104110005F6000202DE9F047848EDFF8AC90013419
:1041200098B080468A46A4B200F10806651EADB27A
:10413000B5F5004F45D04A2305AA294630461AF066
:104140008FFE04F57F543F34A4B207462146012375
:104150000DF10B0230461AF083FE002F014603DCFE
:10416000002803DC2C46E1E7002816DCB8F83430E0
:10417000AB4209D142466B1E22F8343F4FF4004156
:1041800002233046FFF7B2FC294630461AF064FE9F
:10419000214630461AF060FEE4E718AB1F440023C6
:1041A00007F84C3C4A46CDF800A003AB05A803969F
:1041B000ADF81040FFF71AFF0028D3D018B0BDE8C3
:1041C000F0870020FAE700BF25EF01007FB501234B
:1041D000694604200193FFF7EDFD0446002837D11E
:1041E00002AA01A90420FFF7F9FD10F1130F0446FC
:1041F0002ED040B110F10C0405D0404080F311885E
:104200004FF0040002DF0399B1F5803F23D2009AFA
:10421000002395681846084485429CB203D30133B5
:10422000082BF8D11C460D4D5368AB602846D36867
:10423000EC82A982AB631AF00AFF044640B9084E2B
:104240006E602846FFF714FE28466E60FFF730FECA
:10425000204604B070BD6FF02404F9E7540100203B
:1042600010DF0020164B07B51A6882B14FF080426C
:10427000D2F80423D1070AD500221A601B6811481E
:104280000093009B8368597A09B91AF00AFF0E4B14
:104290001A688AB14FF08042D2F8042392070BD5F6
:1042A00000221A601B680193019B0648012103B09C
:1042B0005DF804EB1AF0F5BE03B05DF804FB00BF37
:1042C0000001004024E500200401004008B581B150
:1042D00001234FF0000163F30701074A074B084829
:1042E0009B1ADB0863F38F111AF0B4FB6FF0220006
:1042F00008BD0846FCE700BF6C5A0200745B020070
:10430000D5700200102908B510D001234FF000012C
:1043100063F30701064A074B07489B1ADB0863F360
:104320008F111AF097FB6FF0220008BD0020FCE708
:104330006C5A0200745B0200027102002DE9F34125
:10434000074684689E4817F007FC206098B901234F
:104350004FF0000163F307019A4A9B4B9B489B1A5D
:10436000DB0863F38F111AF075FB4FF0FF35284619
:1043700002B0BDE8F081964A4FF48073C4E901238E
:10438000944817F0E9FB1926002504F11003206179
:10439000C4E90565E3608F4817F0DEFBE06160B9B2
:1043A00001234FF0000163F30701864A864B8A48D8
:1043B0009B1ADB0863F38F11D5E743682946D3F8CE
:1043C00000801A220123C047054680B101234FF027
:1043D000000163F307017B4A7B4B80489B1ADB0893
:1043E00063F38F111AF036FB6FF00405BFE77948CD
:1043F00017F0B2FB206260B901234FF0000163F3B4
:104400000701704A704B76489B1ADB0863F38F11E3
:10441000A9E743682946D3F8008012220123C04748
:10442000054660B101234FF0000163F30701654ABF
:10443000654B6C489B1ADB0863F38F11D2E70122AE
:104440001A21E0691AF038FF01201AF023FF2A46EA
:104450001A21E0691AF030FF06201AF01BFF012232
:104460001A21E0691AF028FF14201AF013FF3846C9
:104470001AF05FFF2046A56205235B4AB2211AF0BD
:1044800027FF20460423594ADF211AF021FF0DF1AE
:10449000070220460123BA218DF807501AF018FFB1
:1044A0000F238DF807300DF1070220460123C621A6
:1044B0001AF00EFF35238DF807300DF10702204664
:1044C0000123B7211AF004FF8DF807600DF10702F0
:1044D000012620460123BB211AF0FAFE33460DF1D6
:1044E00007022046C2218DF807601AF0F1FE122360
:1044F0008DF807300DF1070233462046C3211AF02C
:10450000E7FE20238DF807300DF1070233462046E1
:10451000C4211AF0DDFE20460223354AD0211AF0CC
:10452000D7FE33460DF10702204636218DF807509D
:104530001AF0CEFE05238DF807300DF10702334641
:1045400020463A211AF0C4FE2C238DF807300DF1D5
:10455000070233462046C0211AF0BAFE33460DF159
:104560000702204626218DF807601AF0B1FE2B467F
:104570002A46204621211AF0ABFE20460E231D4A72
:10458000E0211AF0A5FE20460E231B4AE1211AF075
:104590009FFE20460223194AB0211AF099FE2046B8
:1045A0000323174AB1211AF093FE20462B462A46D0
:1045B00011211AF08DFE78201AF06CFED7E600BFAC
:1045C0001D7002006C5A0200745B0200237002002E
:1045D00000127A00CC6C0200447002006E7002007F
:1045E0008B700200B5700200D0E40020BEE4002011
:1045F000E3E40020D5E40020C2E40020E5E400204C
:10460000E7E400200D4B0022C3F840214FF02002C8
:10461000EFF3118182F31188BFF36F8F084AD3F84B
:1046200004051368C01A20F07F400344136081F32F
:104630001188BFF36F8F18F09BBB00BF00100140C3
:10464000A801002073B51C4817F086FA80B34368B0
:104650001A4D1B6801219847012600244FF480332E
:10466000C5F80845C5F84065C5F8043303F1804333
:1046700003F58A534FF400321C601B680193019BC1
:104680000F4B3146C3F880211120224600F03AF941
:10469000112000F005F90B4B1E602E60D5F8043593
:1046A000334423F07F43C5F84035204602B070BD47
:1046B0004FF0FF30FAE700BFFD6F0200001001402D
:1046C00000E100E008100140F0B5254EB0F1FF3FD9
:1046D00008BF30464FF02003EFF3118583F31188B4
:1046E000BFF36F8F1F49204BD1F804451B68E21AB6
:1046F00022F07F47120219D4421E22EAE272B2422D
:10470000A8BF3246781C1044B04294BF18189819BC
:10471000041B24F07F4420F07F43022CC1F8403575
:1047200006D985F31188BFF36F8FF0BD0022E9E74A
:10473000D1F804350D4AC31A23F07F435C1E94421E
:1047400005D90B4B4FF40032C3F80021E9E7012BE8
:1047500002BF023020F07F40C1F84005E1E700BF12
:10476000FEFFFF0000100140A8010020FEFF7F00B7
:1047700000E100E04FF02002EFF3118382F3118893
:10478000BFF36F8F064AD2F80405064A1268801AF2
:1047900020F07F4083F31188BFF36F8F704700BF15
:1047A00000100140A80100204FF02003EFF3118218
:1047B00083F31188BFF36F8F0649074B0868D3F85E
:1047C000043582F31188BFF36F8F1B1A23F07F43E8
:1047D00018447047A8010020001001400448816877
:1047E000406A884203D003494FF080520A60704704
:1047F000645F002004ED00E0094A0A4993680968F3
:104800009966094958664B6843F080534B60002312
:1048100083F31188BFF36F8F9368986E704700BF62
:10482000645F0020686A020000ED00E012498A68B7
:104830004FF028001044EFF3098C80E8F01F20208F
:1048400080F31188BFF36F8F0C4F4FF000664A6AF8
:104850008A603E60506E0023536680F3118804B571
:1048600010461AF0EEFDBDE8044002F1280090E881
:10487000F01F8CF309887047645F002004ED00E0AE
:104880001EF0040F0CBFEFF30880EFF3098081697D
:1048900011F8021C0229FFD001B51AF0C7FD01BDB5
:1048A00043B2002B08DB012200F01F0002FA00F0E7
:1048B0005B09024A42F82300704700BF00E100E0B4
:1048C00043B2002B0DDB01225B0900F01F0002FA4E
:1048D00000F02033034A42F82300BFF34F8FBFF3A9
:1048E0006F8F704700E100E04209054B00F01F00A8
:1048F00053F82220012303FA00F01040704700BF54
:1049000000E100E043B2002BA8BF03F1604301F1D6
:1049100001014FEA4111AEBF03F5614300F00F0002
:10492000034BC9B2ACBF83F800131954704700BFE2
:1049300014ED00E008B572B6044B186A18B10022F5
:104940001A6220F0FAFA62B608BD00BF645F002068
:1049500073B51E460A9B00938C18099B054620F0F0
:1049600016FDA4F120030A4A23F0070322F00102F6
:104970009A61069A5A60079A9A60089ADA604FF02C
:1049800080721E60DA61AB6400236B6602B070BD9A
:10499000EBD70100F8B505460C4617461E4600F059
:1049A00093FB0A4B3C4428469D6024F007041AF010
:1049B00048FD304684F30988002163B681F31188ED
:1049C000BFF36F8F0022002318F00FFF645F0020F9
:1049D000014910220A60704710ED00E0404080F36A
:1049E000118830BF704700BFEFF30880EFF30981F3
:1049F000724601B500F046FA01BD00BF73B5064628
:104A00000C46002938D001224FF0000362F307035F
:104A10001D4D1E4A1E48AD1AC5F3C90565F38F1317
:104A2000ADF80030D1E9012309681AF04CF80122F1
:104A30004FF0000362F3070365F38F13ADF8003006
:104A4000D4E90423E16813481AF03DF801234FF03C
:104A5000000263F3070265F38F12E1690E481AF052
:104A600006F84FF00002012363F3070265F38F128B
:104A7000A1690A4819F0FBFF2146304602B0BDE8A3
:104A8000704017F0B1B800BFB45B02006C5A02006E
:104A9000407102006F7102009E710200AD71020050
:104AA00030BFFFF7FDBF00BF08B5084B084A23F031
:104AB0007F039360BFF34F8FBFF36F8F17F012F92F
:104AC00017F01AF900F0CEFA17F048F900000000CC
:104AD00000ED00E001B572B60B4A106A00281EBF57
:104AE0000021116220F029FA62B6EFF30580A0F1EF
:104AF00010004FEAC0000549014409C99847BDE8C4
:104B00000140034908470000645F0020B8570200D5
:104B1000DD4700001AF0B1FF202080F3118808481B
:104B20004FF40061401880F30988EFF314800221EC
:104B3000084380F31488BFF36F8FFFF7B5FF0000C1
:104B400090C1002001234FF0000110B563F307016D
:104B5000334C344B3448E41AC4F3C90464F38F1162
:104B600019F078FF314B9B6A9A0109D54FF000018B
:104B7000012363F3070164F38F112D4819F06AFFD5
:104B80002A4B9B6ADB0109D54FF00001012363F337
:104B9000070164F38F11274819F05CFF234B9B6AD0
:104BA000180309D54FF00001012363F3070164F3F3
:104BB0008F11214819F04EFF1C4B9B6A590309D5F0
:104BC0004FF00001012363F3070164F38F111B48C9
:104BD00019F040FF154B9B6A9A0309D54FF000016D
:104BE000012363F3070164F38F11154819F032FFB5
:104BF0000E4B9B6ADB0309D54FF00001012363F3E1
:104C0000070164F38F110F4819F024FF074A936AD4
:104C10006FEA03436FEA13439362002010BD00BFA5
:104C2000B45B02006C5A02003B73020000ED00E02E
:104C30005373020066730200807302009E730200C9
:104C4000C3730200DD730200F8B501230E464FF076
:104C5000000163F30701364C364BE41AC4F3C90470
:104C600064F38F110746344819F0F4FE334B9B6A06
:104C7000D90609D54FF00001012363F3070164F35E
:104C80008F112F4819F0E6FE2C4B9B6A1A0709D5A5
:104C90004FF00001012363F3070164F38F112948EA
:104CA00019F0D8FE254DAB6A9B071CD501234FF0A8
:104CB000000163F3070164F38F11234819F0CAFE62
:104CC000696BAB6A18060ED54FF00002012363F33F
:104CD000070264F38F121D4819F0C9FE1FB1AB6AB9
:104CE00023F08003AB62154B9B6ADA0709D54FF0BE
:104CF0000001012363F3070164F38F11144819F0D5
:104D0000A9FE0E4B9B6A9B0609D54FF000010123BB
:104D100063F3070164F38F110E4819F09BFE074BF4
:104D20009A6A9A6A002042F0FF029A623070F8BDD7
:104D3000B45B02006C5A02006372020000ED00E0F6
:104D400079720200AC720200BF720200D7720200D8
:104D5000ED7202000C730200F8B501230E464FF00D
:104D6000000163F307013C4C3C4BE41AC4F3C90453
:104D700064F38F1107463A4819F06CFE394B9B6A71
:104D8000D90409D54FF00001012363F3070164F34F
:104D90008F11354819F05EFE324B9B6A1A0509D512
:104DA0004FF00001012363F3070164F38F112F48D3
:104DB00019F050FE2B4DAB6A9B051CD501234FF01B
:104DC000000163F3070164F38F11294819F042FED3
:104DD000A96BAB6A18040ED54FF00002012363F3F0
:104DE000070264F38F12234819F041FE1FB1AB6A2A
:104DF00023F40043AB621B4B9B6A590509D54FF066
:104E00000001012363F3070164F38F111A4819F0BD
:104E100021FE144B9A6AD20511D54FF000010123EF
:104E200063F30701154864F38F1119F013FE0D4A5F
:104E3000936A002043F47F4393623070F8BD9B6A0D
:104E40009B04F4D54FF00001012363F3070164F3E1
:104E50008F110B48E9E700BFB45B02006C5A0200F7
:104E6000DB71020000ED00E0F1710200AC720200A3
:104E7000027202001B720200307202004B720200CA
:104E80000C7302002DE9F041644B5E688AB0C6F3F2
:104E90000804002585F31188BFF36F8F02F07F436C
:104EA000B3F17F4F11D102F00C03082B0FD1012376
:104EB0004FF0000163F30701594A5A4B5A489B1AB5
:104EC000DB0863F38F1119F0C5FD2F4604E01207CC
:104ED0004EBF0F460746012500238DF80730E31E1D
:104EE000092B7FD8DFE803F005696D4C7E7E7E7E5E
:104EF0007E7101234FF0000163F30701494E484BD7
:104F00004A48F61AC6F3C90666F38F1119F0A2FDD6
:104F1000424BDC6A4FF0000814F002048DF8078061
:104F20000BD04FF00001012363F30701404866F303
:104F30008F1119F08FFD002425E0DB6A5B0022D57C
:104F400001234FF0000163F3070166F38F11394825
:104F500019F080FD384B1B782BB10DF107010120B2
:104F6000FFF772FE0EE0354B1B782BB10DF10701F8
:104F70000120FFF7F1FE05E0314B1B889BB213B116
:104F8000FFF7E0FD04469DF807309BB92022394623
:104F900002A81AF031FB099B002D3AD0C3F3080296
:104FA00022B96FEA53236FEA4323099302A92046EB
:104FB000FFF724FD0AB0BDE8F0810DF107010020E4
:104FC000CEE70DF107010020D3E701234FF00001E8
:104FD00063F30701124A134B1A489B1ADB0863F369
:104FE0008F11A6E701224FF0000362F307030D497A
:104FF0000B4A1548891AC90816F4F87F61F38F1314
:10500000A4F11002114918BF0146114819F043FDDF
:1050100091E723F4FF7323F00103C6E700ED00E0FE
:105020006C5A0200B45B0200087402003374020080
:105030004A7402006B74020028ED00E029ED00E0E4
:105040002AED00E08A740200D5740200C0740200E8
:10505000EE740200024A536943F010035361704733
:1050600000ED00E0044800232021C2180133272B63
:1050700082F80013F9D1704700E100E038B5054629
:105080004FF02003EFF3118483F31188BFF36F8F88
:1050900017F038FA0A4B9B68AB420BD1094B5A68A0
:1050A000C2F3080212B92046FFF7A6FB5A6842F085
:1050B00080525A602046BDE8384020F0AAB800BFB0
:1050C000645F002000ED00E01FB5084B0193084B22
:1050D0000293084B039301AB0093074A074B01214E
:1050E000684600F0B5F805B05DF804FB000000204C
:1050F0000000000000000B0600000020000001205E
:10510000F8B52E4F0E460021B14222DA50F821C0E8
:10511000DCF80440002C4FD0EBB104F1FF3E14EA60
:105120000E0F06D11F2C04D9DCF800501EEA050F23
:1051300011D001234FF0000263F307022048214BF6
:105140001B1ADB08204863F38F1219F090FC6FF0F4
:1051500015021046F8BD202CD5B2DCF80020DCF892
:1051600008C01AD9B4F1004F19D8013CB4FA84F43C
:10517000C4F11F046400072D4CEA040411D9012373
:105180004FF0000263F307020D490E4B0F485B1A04
:10519000DB0863F38F122946D7E70824EBE73E24A8
:1051A000E9E722F01F022A4342F0100244F0010412
:1051B000BD60FA603C616A1C0131A5E790ED00E03A
:1051C0006C5A0200A45B02000575020028750200FB
:1051D000034B05225A60BFF34F8FBFF36F8F7047A9
:1051E00090ED00E0BFF35F8F014B00225A607047E3
:1051F00090ED00E013490868082810B51ED8FFF7A5
:10520000F1FF114C49680022904201F10C0105D1D7
:105210000E4B1870FFF7DCFF002010BDA26051F8A4
:105220000C3C23F01F03134343F01003E36051F8D9
:10523000043C43F0010323610132E5E74FF0FF3006
:10524000EBE700BF8C5F020090ED00E060600020A3
:1052500010B5034C01232278FFF752FF207010BDD8
:105260006060002008B5084A00231278FFF748FF65
:1052700010F1160F03D0054B0022072800DD08BDF2
:1052800098601A610130F8E76060002090ED00E05E
:105290002DE9F04F9FB01E4600230190049100932A
:1052A000134613F8010B059358B1252800F08580AB
:1052B0000499019B9847013040F00D844FF0FF3373
:1052C000009300981FB0BDE8F08F232C6CD061D8FC
:1052D000002CF6D0202C0A9B08BF01230A93CDF89E
:1052E0001480DDF81480B94818F8014B21461AF0F3
:1052F00043F90028E9D12A2C66D156F8043B0793DC
:10530000002BBFBF5B42079301230B93059B98F8CB
:10531000004003F102082E2C7CD198F800302A2B93
:1053200075D156F8045B08F1010818F8014BA8483C
:10533000214627461AF020F900286ED04346682FF0
:1053400013F8014B059307D1682C05D108F102032E
:1053500098F8014005934827672C7CD8652C80F08D
:105360003981472C5DD8452C80F03481002CA8D0A1
:10537000252C00F0AC830499019B2520984701302F
:105380009CD00499019B20469847013096D0009B01
:105390000233A2E32D2C0AD0302C0BD02B2C099BEE
:1053A00008BF012309939AE70123069397E7012396
:1053B0000B9394E70123089391E700230893CDE929
:1053C00009330B9306938CE7A4F13003092B079064
:1053D000A1D80A22DDF8148018F8014BA4F130039B
:1053E000092B98D8079BCDF8148002FB0344A4F145
:1053F00030030793EEE701FB0535303D904642460A
:1054000012F8013BA3F130000928F4D98DE70025FB
:105410000A21F4E74FF0FF3589E7CDF814800746FD
:105420009AE7632C5AD020D8582CA4D16F2C06F1BF
:105430000409316840F01C83069B002B00F00A83AE
:1054400030238DF85C30002940F00F838DF85D101B
:105450008846012626E0702C00F0E78228D86E2CC2
:1054600000F0D082E2D8692C85D13468002C06F196
:10547000040980F29C802D238DF85C3061420DF18F
:105480005D0630460A221AF003F9099B064417A864
:10549000361A002B40F024830A9B002B40F0208317
:1054A0004FEAD478002D22DA00252F46AA46E5E0FF
:1054B000752CBBD0782CB9D0732C7FF45CAFB1467F
:1054C000002D59F8043BB8BF6FF000450026B542E7
:1054D00040F0BB822E460025A84609E0B1464FF0B9
:1054E000000859F8043B8DF85C300126454617AB9F
:1054F00005EB08020025921B2F46AA4622EAE2721B
:1055000091190691079990190C1A0B9911B9002C51
:1055100000F3048303EB080B5B4540F0018312F1B9
:10552000FF3280F00D83A6EB0806BAF1000F11D010
:105530009BF800000BEB0608A0F13003092BA8EB49
:105540000B0640F20883D04618F1FF3880F00C8338
:10555000A6EB0A06AFB10BEB06081BF801AB0499EA
:10556000019B5046984701303FF4A8AEBAF12E0F88
:10557000A8EB0B06F1D1B846B8F1000F00F3FD829D
:10558000F61B95B19BF800000BEB0608A0F1300369
:10559000092BA8EB0B0640F2FB822E2800F0F882C4
:1055A0002F46002F00F3FD82761B5E440CE3099B1F
:1055B00023B12B238DF85C30214660E70A9B0BB1A9
:1055C0002023F7E7214617AE5BE700BF4E750200C8
:1055D0005475020006F1070929F00709F9E80223CA
:1055E000D80240EA5250D60220F0004002960390C2
:1055F000DDE90267002AC3F30A5173F10003CDE924
:10560000126743DA2D238DF85C300DF15D0740F20F
:10561000FF73994255D1DDE902231343A4F14104FC
:1056200007F1030B42D1192C3AD849233B704E2382
:105630007B704623002517AEBB70FD70ABEB060BED
:105640002F46AA46099B002B40F0D9810A9B002BCC
:1056500040F0D5819DF85C80A8F12D03D3F10008BE
:1056600048EB03081EAB4344BB4413F81C3C303BDF
:105670000BEB0A06092B2E4400F23782089B002B05
:1056800000F03682079B9A1B17AB37E7099B0BB1DB
:105690002B23B8E70A9B0BB12023B4E717AFB6E77B
:1056A00069233B706E237B706623C3E7192C99BF77
:1056B0004E2341226E23612294BF3B703B707A706F
:1056C000B8E7029B03980B430C93CB1703430D934E
:1056D000DDE90C23462C08BF6624134300F0FF804D
:1056E000002900F09F80139B43F00043A1F2FE3895
:1056F0001393002618F1020FC0F2A8806FF0004A41
:105700004FF0000BB8F1000F00F3CC8012A808F1A5
:10571000010819F0DFFFB8F1040FF7D1002D04F0F4
:10572000DF03B8BF0625472B40F0E180F21C02DB07
:10573000AE4240F3D780023CE4B2002D00F0DD80A1
:10574000069B013D002B40F0D880002DD4BF4FF0C8
:1057500000084FF00108662C40F0D18016EB050AD6
:1057600040F1D5801023119366244FF0000A0022E7
:105770004FF00063CDE914231AF1FF3A80F0C9809D
:10578000129B149A15999B18139A41EB0202CDE9CA
:10579000123202F070430E9300230F93DDE90E23C3
:1057A000134306D012A819F0A7FF12A819F092FF10
:1057B0000136662C40F0C780002E40F3B180119B6B
:1057C000002B07DD11A912A819F0C2FF013E07F84E
:1057D000010BF4D1B246BB460026069B13B9002D3F
:1057E00040F3AF802E230BF8013B002E00F0A78082
:1057F000002D40F3A6807742AF42A8BF2F46ED1B95
:10580000002D03DD119B002B00F39180B8F1000FF8
:1058100040F0AF80002317AE8BF80030ABEB060BE7
:1058200010E70139029BDB180293039B5B41039352
:10583000DDE90223002A73F10003F2DADDE9022335
:10584000CDE912234FE712A819F044FFDDE9122C2D
:105850004FF0000BB9480021594508BF604508F1D9
:105860000108F0D30520A2FB002300FB0C33CDE997
:105870001223DC46013E6FF0004A4FF0000B00217E
:105880008B4508BF9A4506D2BCF1000F3FF432AFFA
:10589000CDE912232EE792185B4108F1FF384FF053
:1058A000010CECE712A819F027FFDDE9121008F14E
:1058B000FF3801364FF0000C00239B4508BF82459E
:1058C00006D2BCF1000F3FF41DAFCDE9121019E76D
:1058D0004918404108F1FF384FF0010CECE7002671
:1058E000B04613E7069BAD1B23B966242DE74FF0A6
:1058F000000830E74FF0000830E74FF0000805F1EE
:10590000010A10239A451193A8BF9A462FE76624EF
:10591000F7E714A819F0F0FE14A819F0DBFE2BE746
:10592000BB4630230BF8013B4FF0000A55E711A9A5
:1059300012A819F00DFF013D0BF8010B60E7374687
:105940005EE7002762E711A912A819F001FF069B84
:105950003870302818BF06F1FF36002B3BD1002DE0
:1059600039DC07F1010BB8F1000F45D04FF0000A08
:1059700057465B461BF8012D302AFAD02E2A18BF55
:105980009B46002504F0DF03452B7FF443AF002E38
:105990005A46BABF76422D232B23632E02F8024BC0
:1059A0008BF801300ADD642196FBF1F303F130003E
:1059B0000BF103028BF8020001FB13660A219346E8
:1059C00096FBF1F301FB136603F1300030360BF860
:1059D000020B56701EE72E2307F1020B7B70002D81
:1059E000C1DD119B002BBEDD11A912A819F0B0FE7C
:1059F000013D0BF8010BF2E7C2464746C2E74FF004
:105A000001082FE6B146682F59F8043B05D001DCA8
:105A1000482F07D0009A1A6001E0009A1A804E467B
:105A2000059A3DE4009A1A70F9E7B14647F630034B
:105A3000102259F8041BADF85C300DF15E0019F02E
:105A400027FE4FF00208861C2CE59A5D002A4AD0FA
:105A500001363CE517AC0822204619F019FE17AEB6
:105A6000A61B06444FF000081CE50DF15D04F2E7AB
:105A7000752C05D10A2217A819F00AFE0646F1E78F
:105A8000069B93B147F63003ADF85C300DF15E072D
:105A90001022384619F0FCFD582C08D017AE069B92
:105AA000BE1B06444FEA4308FCE417AFF0E717AA11
:105AB00012F8013BA3F16101192903D8203B02F838
:105AC000013CF5E712F8013C002BF1D1E6E704991F
:105AD0002046FFF7EEBB009B01330093B1469EE7E3
