:10000000989200200114000057880000D5120000CB
:10001000D5120000D5120000D5120000D512000044
:10002000D5120000D5120000D5120000CD1100003D
:10003000D5120000D5120000791100004788000099
:10004000C1130000C1130000C1130000C113000060
:10005000C1130000C1130000C1130000C113000050
:10006000C1130000C1130000C1130000C113000040
:10007000C1130000C1130000C1130000C113000030
:10008000C1130000C1130000C1130000C113000020
:10009000C1130000C1130000C1130000C113000010
:1000A000C1130000C1130000C1130000C113000000
:1000B000C1130000C1130000C1130000C1130000F0
:1000C000C1130000C1130000C1130000C1130000E0
:0C00D000C1130000C1130000C1130000A8
:1000DC0053B94AB9002908BF00281CBF4FF0FF31A3
:1000EC004FF0FF3000F00CB8ADF1080C6DE904CE08
:1000FC0000F008F8DDF804E0DDE9022304B07047F5
:10010C00704700BF2DE9F04F099F154604468E46F7
:10011C001E46002B40F0CC808A42B2FA82FC4CD9AD
:10012C00BCF1000F0BD0CCF1200801FA0CFE20FA28
:10013C0008F802FA0CF548EA0E0E00FA0CF44FEA35
:10014C0015491FFA85F8BEFBF9FA210C09FB1AE3D5
:10015C000AFB08FB41EA03439B452AD9EB180AF139
:10016C00FF3004D29B4502D9AAF102002B44A3EB29
:10017C000B03A4B2B3FBF9F209FB123302FB08F830
:10018C0044EA0344A04516D92C1902F1FF3303D2DB
:10019C00A04501D9931E2C44A4EB080443EA00406B
:1001AC0027B124FA0CF400233C607B603146BDE897
:1001BC00F08F5046DBE71346EEE702B9FFDEBCF1E9
:1001CC00000F2ED18B1A01264FEA154EAAB2B3FBA3
:1001DC00FEF8210C0EFB183308FB02F941EA03432D
:1001EC00994561D9EB1808F1FF3004D2994502D931
:1001FC00A8F102002B44A3EB0903A4B2B3FBFEF15C
:10020C000EFB11334A4344EA0344A2424ED92C1943
:10021C0001F1FF3303D2A24201D98B1E2C44A41A44
:10022C00BCE7CCF1200E02FA0CF521FA0EF901FA1A
:10023C000CF320FA0EFE4EEA03034FEA154800FABF
:10024C000CF4B9FBF8F11FFA85FE08FB1192180C9F
:10025C0001FB0EF640EA0242964221D9AA1801F19E
:10026C00FF3003D2964201D9881E2A44921B9BB2BE
:10027C00B2FBF8F908FB192209FB0EFE43EA024314
:10028C009E450FD9EB1809F1FF3604D29E4502D9D1
:10029C00A9F102062B44A3EB0E0346EA004693E7B2
:1002AC000846E3E74E46F6E74046A4E70B46B6E7BA
:1002BC008B4205D90FB1C7E900010026304675E71E
:1002CC00B3FA83FCBCF1000F0FD18B4201D38242F5
:1002DC0009D8841A61EB030E0120002F6AD0C7E9FC
:1002EC00004E002662E76046F7E7CCF1200E03FAD9
:1002FC000CF322FA0EF521FA0EF41D4301FA0CF35D
:10030C0020FA0EF10B434FEA154A00FA0CF6B4FB37
:10031C00FAF91FFA85F80AFB19401C0C09FB08F1C5
:10032C0044EA0044A14202FA0CF23FD92C1909F11B
:10033C00FF3004D2A14202D9A9F102002C44641A64
:10034C009BB2B4FBFAF90AFB194409FB08F843EA1F
:10035C00044188452CD9691809F1FF3304D288452A
:10036C0002D9A9F10203294443EA0040A1EB080198
:10037C00A0FB02894945C2464C4602D306D14645EC
:10038C0004D2B8EB020A69EB0504013897B1B6EB5D
:10039C000A0361EB040606FA0EFE23FA0CF34EEA8E
:1003AC00030326FA0CF6C7E900369AE74846C6E777
:1003BC004B46D9E73E46F9E60C4A136801333B2B12
:1003CC0001DC136070470A49002313600A6801328C
:1003DC003B2A01DC0A6070470B6006490A6801324F
:1003EC00172AD8BF13460B60704700BF1C000020B3
:1003FC0018000020200000202DE9F04387B0584859
:10040C0006F096FD05464368564C1B6898472B68CA
:10041C0055499B68544A586800260023E660A0FBA7
:10042C000101FFF755FE514BA4602360D5E9002371
:10043C0092686060527A22B1DB68224631462846C7
:10044C00984707F093FD002106F048FA002448492C
:10045C0006F08EF9CDE90344CDF81340454806F07B
:10046C0067FD054680B901234FF00001424A43481D
:10047C0063F30701424B9B1ADB0863F38F1107F000
:10048C0084FF07B0BDE8F0833E4806F051FD0646F8
:10049C00436816221F6821460123B8477368DFF8AA
:1004AC00F8805F68DFF8F490234616222146304628
:1004BC00B84707F05BFD214605F0ECFF012106462D
:1004CC000BF028FB304601210BF04BFB3046F021A2
:1004DC0009F015FA2C4930460BF0C7FA07F046FD27
:1004EC00214605F0D7FF064607F040FD214605F0F2
:1004FC00D1FF23460746052221463046009409F0D9
:10050C0052FA2346224621463846009409F04BFA0B
:10051C006B6828465B681D4D9847D9F800300093EE
:10052C002B68D8F800201A4902A801F0D9FF02A9BB
:10053C0038460BF09AFA6423B4FBF3F203FB124334
:10054C003BB9144903A801F0CBFF03A930460BF0CB
:10055C008CFA05F089FA0A2007F068FA0134DCE716
:10056C00E24C04000800002040420F00C5030000CC
:10057C0008C20000E84C040074C10000F04C0400F8
:10058C0074C10000124D0400194D04001800002025
:10059C003F4D040073DA0400200000201C000020F2
:1005AC0030B5002287B00D490D480BF0BAFC0D4D4B
:1005BC000D4900240E23CDE90243CDE90444CDE9D5
:1005CC0000440A4B4FF44072284607F0E3FA0849FE
:1005DC0028460BF040FC204607B030BD0106000059
:1005EC003800002080000020988B0020D5090000E6
:1005FC004F4D0400014807F047BA00BF58A2002035
:10060C0008B500F041FA094807F07CFE04232822C3
:10061C00074808490BF007FB074B084A1A604FF4D0
:10062C000040BDE8084000F0A5BA00BF3000002033
:10063C0064000020D89B002078A000204F8300008D
:10064C00F8B50F4BBFF35B8F002553E8007F43E8F1
:10065C000052002AF9D1BFF35B8F0A4C0A4E361BAD
:10066C003611B54200DBF8BD63685B792BB12368AA
:10067C00DB6813B139462046984701351034F0E752
:10068C0028000020DCC10000DCC10000064BBFF3D9
:10069C005B8F53E8002F013243E800210029F8D189
:1006AC00BFF35B8F704700BF28000020094B4268E6
:1006BC00C31A1B11013310B513714368064C196032
:1006CC0001225A71227812B9044807F0DDF901238E
:1006DC00237010BDDCC100000648002058A2002089
:1006EC0070B5114BBFF35B8F53E8005F6A1C43E896
:1006FC0000210029F8D1BFF35B8F2DB90B4C0C4EA8
:10070C00361B3611B54200DB70BD237B43B1236829
:10071C005B6903B19847042200212046FFF7C6FF0E
:10072C0001351034EEE700BF2C000020DCC10000C6
:10073C00DCC10000164B984237B5044602D3154B6A
:10074C0098421FD3002201A9134806F091FD0546DB
:10075C00D8B90122019BBFF35B8F53E8001F43E81C
:10076C0000200028F9D1BFF35B8F019821461F228E
:10077C00043008F083F8019C7E2384F8233084F83D
:10078C0024500434204603B030BD044CFAE700BFBB
:10079C00A0BF0000BCDA040064000020574D040028
:1007AC0048B1054B984205D3A03398422CBF00208A
:1007BC000120704700207047D89B00202DE9F84F8E
:1007CC00464B1B78054603B960B34FF02003EFF39B
:1007DC00118683F31188BFF36F8F414807F0A2FD98
:1007EC00044686F31188BFF36F8F78B1BFF35B8F2C
:1007FC003C4B53E8002F013A43E800210029F8D183
:10080C00BFF35B8F8DB1204607F033FE25B9364B15
:10081C001B680BB1FFF714FF314807F081FD051C75
:10082C0018BF01252846BDE8F88F304B1B78ABB9B3
:10083C00237ADB0712D407F02FFE8146204607F0FF
:10084C00F8FD0146484607F080FD294B294ADFF8A0
:10085C00BCB09B1A0746C3F3C90A37B9264E274FBB
:10086C00BF1B3F114FF0000834E0B7FA87F6C6F112
:10087C001F063146204607F0DFFD214B9842024609
:10088C0002D3204B984214D31046FFF789FF80B94E
:10089C001D4B9A420DD028F03F0343F0010363F344
:1008AC0007086AF38F1843464A463146584607F004
:1008BC008DFD012303FA06F627EA0607CDE77368D8
:1008CC005B7923B1336821461B683046984708F1A1
:1008DC0001081036B845F2DB95E700BF064800204A
:1008EC0030000020240000202800002007480020B1
:1008FC00A4C1000074C10000DCC10000DCC1000018
:10090C00A0BF0000BCDA0400574D0400754D040074
:10091C00264B70B51B68418105469847244CE8600E
:10092C00BFF35B8F54E8003F013344E80032002AE8
:10093C00F8D1BFF35B8F4FF02003EFF3118683F3F5
:10094C001188BFF36F8F1B48294607F0DFFC86F335
:10095C001188BFF36F8F184B1A787AB14FF02003C0
:10096C00EFF3118483F31188BFF36F8F0020FFF72F
:10097C0025FF84F31188BFF36F8F70BD0F49236877
:10098C0009680029F9D0012B06D14FF47A710C4873
:10099C00BDE8704007F0BCBA0A2BEED108480BF04A
:1009AC00CCFA0848BDE8704007F06EB878A000207B
:1009BC00240000203000002007480020EC0000201C
:1009CC003800002058A2002008B5FFF789FE07F078
:1009DC0055F80B4B186030B10A4B1B68092B02DD24
:1009EC00094807F051F8084C0020FFF7E7FE0028F3
:1009FC00FAD14FF0FF31204607F06CF8F4E700BF56
:100A0C00EC0000202400002058A20020F8B50E4F66
:100A1C003D7875B90D4C0E4EFFF762FE361B361144
:100A2C00B54207DB0020FFF7C9FE0028FAD10123ED
:100A3C003B70F8BD63685B791BB1236820461B696A
:100A4C00984701351034EBE707480020DCC1000063
:100A5C00DCC1000007B504380190BFF35B8F50E890
:100A6C00003F5A1E40E800210029F8D1BFF35B8FEC
:100A7C00012B03D101A9034806F026FC03B05DF855
:100A8C0004FB00BF6400002020231A4601490248E1
:100A9C000BF0C9B8789C0020F000002037B500237B
:100AAC00094D01930120FFF789FE0446FFF7EEFD87
:100ABC00002201A9284606F0DBFB08B1002CF1D17D
:100ACC00019803B030BD00BFF000002007B5002234
:100ADC0001A90648019206F0CBFB10B1FFF7DEFF2F
:100AEC000190019803B05DF804FB00BFF0000020FA
:100AFC00F0B5047A467A85B014F0010401904FEAFF
:100B0C0016160ED0019B1A7A920704D55B69184C05
:100B1C000393039B2BBB01A9154806F0D5FB05B02D
:100B2C00F0BD002EEED0254617E0294607F084FCD8
:100B3C000746FFF735FE78B13CB9019B3146186981
:100B4C0007F003FC04460028DCD024FA05F3DB078D
:100B5C0002D53846FFF77EFF0135AE420198E4D846
:100B6C00D0E71D6803A9204606F0AEFB0395D0E73D
:100B7C00F0000020084A10B50123084C1360002136
:100B8C00A04204D801B11360054B186010BD400899
:100B9C005B000121F4E700BF1001002040420F0070
:100BAC000C010020164B07B51A6882B14FF0804239
:100BBC00D2F80423D1070AD500221A601B68114809
:100BCC000093009B8368597A09B907F075FC0E4BAA
:100BDC001A688AB14FF08042D2F8042392070BD5E1
:100BEC0000221A601B680193019B0648012103B087
:100BFC005DF804EB07F060BC03B05DF804FB00BFCC
:100C0C0000010040D0A100200401004008B581B1D2
:100C1C0001234FF0000163F30701074A074B084813
:100C2C009B1ADB0863F38F1107F0AFFB6FF0220008
:100C3C0008BD0846FCE700BF74C1000094C1000069
:100C4C00894E0400102908B510D001234FF0000183
:100C5C0063F30701064A074B07489B1ADB0863F34B
:100C6C008F1107F092FB6FF0220008BD0020FCE70B
:100C7C0074C1000094C10000B64E04002DE9F3418C
:100C8C00074684689E4806F053F9206098B9012302
:100C9C004FF0000163F307019A4A9B4B9B489B1A48
:100CAC00DB0863F38F1107F070FB4FF0FF3528461C
:100CBC0002B0BDE8F081964A4FF48073C4E9012379
:100CCC00944806F035F91926002504F1100320612B
:100CDC00C4E90565E3608F4806F02AF9E06160B964
:100CEC0001234FF0000163F30701864A864B8A48C3
:100CFC009B1ADB0863F38F11D5E743682946D3F8B9
:100D0C0000801A220123C047054680B101234FF011
:100D1C00000163F307017B4A7B4B80489B1ADB087D
:100D2C0063F38F1107F031FB6FF00405BFE77948CF
:100D3C0006F0FEF8206260B901234FF0000163F366
:100D4C000701704A704B76489B1ADB0863F38F11CE
:100D5C00A9E743682946D3F8008012220123C04733
:100D6C00054660B101234FF0000163F30701654AAA
:100D7C00654B6C489B1ADB0863F38F11D2E7012299
:100D8C001A21E06907F0A3FC012007F08EFC2A462B
:100D9C001A21E06907F09BFC062007F086FC012273
:100DAC001A21E06907F093FC142007F07EFC38460A
:100DBC0007F0CAFC2046A56205235B4AB22107F066
:100DCC0092FC20460423594ADF2107F08CFC0DF1DC
:100DDC00070220460123BA218DF8075007F083FC47
:100DEC000F238DF807300DF1070220460123C62191
:100DFC0007F079FC35238DF807300DF107022046FA
:100E0C000123B72107F06FFC8DF807600DF1070285
:100E1C00012620460123BB2107F065FC33460DF16A
:100E2C0007022046C2218DF8076007F05CFC1223F4
:100E3C008DF807300DF1070233462046C32107F029
:100E4C0052FC20238DF807300DF107023346204663
:100E5C00C42107F048FC20460223354AD02107F074
:100E6C0042FC33460DF10702204636218DF807501F
:100E7C0007F039FC05238DF807300DF107023346D6
:100E8C0020463A2107F02FFC2C238DF807300DF16A
:100E9C00070233462046C02107F025FC33460DF1EE
:100EAC000702204626218DF8076007F01CFC2B4614
:100EBC002A462046212107F016FC20460E231D4A07
:100ECC00E02107F010FC20460E231B4AE12107F01D
:100EDC000AFC20460223194AB02107F004FC2046E4
:100EEC000323174AB12107F0FEFB20462B462A4666
:100EFC00112107F0F8FB782007F0D7FBD7E600BFED
:100F0C00D14D040074C1000094C10000D74D040001
:100F1C0000127A00124D0400F84D0400224E040019
:100F2C003F4E0400694E040086A1002074A10020ED
:100F3C0099A100208BA1002078A100209BA100206A
:100F4C009DA100200D4B0022C3F840214FF0200240
:100F5C00EFF3118182F31188BFF36F8F084AD3F836
:100F6C0004051368C01A20F07F400344136081F31A
:100F7C001188BFF36F8F06F033BF00BF0010014024
:100F8C002C01002073B51C4805F0D2FF80B34368D8
:100F9C001A4D1B6801219847012600244FF4803319
:100FAC00C5F80845C5F84065C5F8043303F180431E
:100FBC0003F58A534FF400321C601B680193019BAC
:100FCC000F4B3146C3F880211120224600F018F94E
:100FDC00112000F005F90B4B1E602E60D5F804357E
:100FEC00334423F07F43C5F84035204602B070BD32
:100FFC004FF0FF30FAE700BFB14D04000010014084
:10100C0000E100E008100140F0B5254EB0F1FF3FC3
:10101C0008BF30464FF02003EFF3118583F311889E
:10102C00BFF36F8F1F49204BD1F804451B68E21AA0
:10103C0022F07F47120219D4421E22EAE272B24217
:10104C00A8BF3246781C1044B04294BF18189819A7
:10105C00041B24F07F4420F07F43022CC1F8403560
:10106C0006D985F31188BFF36F8FF0BD0022E9E735
:10107C00D1F804350D4AC31A23F07F435C1E944209
:10108C0005D90B4B4FF40032C3F80021E9E7012BD3
:10109C0002BF023020F07F40C1F84005E1E700BFFD
:1010AC00FEFFFF00001001402C010020FEFF7F001E
:1010BC0000E100E04FF02002EFF3118382F311887E
:1010CC00BFF36F8F064AD2F80405064A1268801ADD
:1010DC0020F07F4083F31188BFF36F8F704700BF00
:1010EC00001001402C0100204FF02003EFF311827F
:1010FC0083F31188BFF36F8F0649074B0868D3F849
:10110C00043582F31188BFF36F8F1B1A23F07F43D2
:10111C00184470472C0100200010014004488168DD
:10112C00406A884203D003494FF080520A607047EE
:10113C00C447002004ED00E0094A0A499368096895
:10114C009966094958664B6843F080534B600023FD
:10115C0083F31188BFF36F8F9368986E704700BF4D
:10116C00C447002058C8000000ED00E012498A680E
:10117C004FF028001044EFF3098C80E8F01F20207A
:10118C0080F31188BFF36F8F0C4F4FF000664A6AE3
:10119C008A603E60506E0023536680F3118804B55C
:1011AC00104607F059FBBDE8044002F1280090E816
:1011BC00F01F8CF309887047C447002004ED00E051
:1011CC001EF0040F0CBFEFF30880EFF30980816968
:1011DC0011F8021C0229FFD001B507F032FB01BD4A
:1011EC0043B2002B08DB012200F01F0002FA00F0D2
:1011FC005B09024A42F82300704700BF00E100E09F
:10120C0043B2002BA8BF03F1604301F101014FEA87
:10121C004111AEBF03F5614300F00F00034BC9B29F
:10122C00ACBF83F800131954704700BF14ED00E0F5
:10123C0073B51E460A9B00938C18099B05460AF051
:10124C000FFEA4F120030A4A23F0070322F0010247
:10125C009A61069A5A60079A9A60089ADA604FF077
:10126C0080721E60DA61AB6400236B6602B070BDE5
:10127C00FB820000F8B505460C4617461E4600F0EA
:10128C0093FB0A4B3C4428469D6024F0070407F06E
:10129C00E3FA304684F30988002163B681F31188A0
:1012AC00BFF36F8F0022002307F021F8C447002002
:1012BC00014910220A60704710ED00E0404080F3B5
:1012CC00118830BF704700BFEFF30880EFF309813E
:1012DC00724601B500F046FA01BD00BF73B5064673
:1012EC000C46002938D001224FF0000362F30703AB
:1012FC001D4D1E4A1E48AD1AC5F3C90565F38F1363
:10130C00ADF80030D1E90123096807F077F8012224
:10131C004FF0000362F3070365F38F13ADF8003051
:10132C00D4E90423E168134807F068F801234FF06F
:10133C00000263F3070265F38F12E1690E4807F0B0
:10134C0031F84FF00002012363F3070265F38F12AB
:10135C00A1690A4807F026F82146304602B0BDE8DC
:10136C00704005F027BE00BFBCC1000074C1000076
:10137C00F44E0400234F0400524F0400614F04004C
:10138C0030BFFFF7FDBF00BF08B5084B084A23F07C
:10139C007F039360BFF34F8FBFF36F8F05F088FE11
:1013AC0005F090FE00F0CEFA05F0BEFE0000000045
:1013BC0000ED00E001B572B60B4A106A00281EBFA2
:1013CC00002111620AF02DFC62B6EFF30580A0F14A
:1013DC0010004FEAC0000549014409C99847BDE80F
:1013EC000140034908470000C4470020A0BF00008B
:1013FC002911000007F0B7FC202080F31188084861
:10140C004FF40061401880F30988EFF31480022137
:10141C00084380F31488BFF36F8FFFF7B5FF00000C
:10142C00D893002001234FF0000110B563F307019E
:10143C00334C344B3448E41AC4F3C90464F38F11AD
:10144C0006F0A3FF314B9B6A9A0109D54FF00001BE
:10145C00012363F3070164F38F112D4806F095FF08
:10146C002A4B9B6ADB0109D54FF00001012363F382
:10147C00070164F38F11274806F087FF234B9B6A03
:10148C00180309D54FF00001012363F3070164F33E
:10149C008F11214806F079FF1C4B9B6A590309D523
:1014AC004FF00001012363F3070164F38F111B4814
:1014BC0006F06BFF154B9B6A9A0309D54FF00001A0
:1014CC00012363F3070164F38F11154806F05DFFE8
:1014DC000E4B9B6ADB0309D54FF00001012363F32C
:1014EC00070164F38F110F4806F04FFF074A936A08
:1014FC006FEA03436FEA13439362002010BD00BFF1
:10150C00BCC1000074C10000EF50040000ED00E00D
:10151C00075104001A5104003451040052510400C4
:10152C007751040091510400F8B501230E464FF099
:10153C00000163F30701364C364BE41AC4F3C904BB
:10154C0064F38F110746344806F01FFF334B9B6A38
:10155C00D90609D54FF00001012363F3070164F3A9
:10156C008F112F4806F011FF2C4B9B6A1A0709D5D7
:10157C004FF00001012363F3070164F38F11294835
:10158C0006F003FF254DAB6A9B071CD501234FF0DA
:10159C00000163F3070164F38F11234806F0F5FE95
:1015AC00696BAB6A18060ED54FF00002012363F38A
:1015BC00070264F38F121D4806F0F4FE1FB1AB6AEC
:1015CC0023F08003AB62154B9B6ADA0709D54FF009
:1015DC000001012363F3070164F38F11144806F033
:1015EC00D4FE0E4B9B6A9B0609D54FF000010123DC
:1015FC0063F3070164F38F110E4806F0C6FE074B28
:10160C009A6A9A6A002042F0FF029A623070F8BD22
:10161C00BCC1000074C100001750040000ED00E0D4
:10162C002D50040060500400735004008B500400D3
:10163C00A1500400C0500400F8B501230E464FF031
:10164C00000163F307013C4C3C4BE41AC4F3C9049E
:10165C0064F38F1107463A4806F097FE394B9B6AA4
:10166C00D90409D54FF00001012363F3070164F39A
:10167C008F11354806F089FE324B9B6A1A0509D545
:10168C004FF00001012363F3070164F38F112F481E
:10169C0006F07BFE2B4DAB6A9B051CD501234FF04E
:1016AC00000163F3070164F38F11294806F06DFE06
:1016BC00A96BAB6A18040ED54FF00002012363F33B
:1016CC00070264F38F12234806F06CFE1FB1AB6A5D
:1016DC0023F40043AB621B4B9B6A590509D54FF0B1
:1016EC000001012363F3070164F38F111A4806F01C
:1016FC004CFE144B9A6AD20511D54FF00001012310
:10170C0063F30701154864F38F1106F03EFE0D4A92
:10171C00936A002043F47F4393623070F8BD9B6A58
:10172C009B04F4D54FF00001012363F3070164F32C
:10173C008F110B48E9E700BFBCC1000074C1000069
:10174C008F4F040000ED00E0A54F04006050040032
:10175C00B64F0400CF4F0400E44F0400FF4F0400C9
:10176C00C05004002DE9F041644B5E688AB0C6F3AA
:10177C000804002585F31188BFF36F8F02F07F43B7
:10178C00B3F17F4F11D102F00C03082B0FD10123C1
:10179C004FF0000163F30701594A5A4B5A489B1A00
:1017AC00DB0863F38F1106F0F0FD2F4604E01207FF
:1017BC004EBF0F460746012500238DF80730E31E68
:1017CC00092B7FD8DFE803F005696D4C7E7E7E7EA9
:1017DC007E7101234FF0000163F30701494E484B22
:1017EC004A48F61AC6F3C90666F38F1106F0CDFD0A
:1017FC00424BDC6A4FF0000814F002048DF80780AD
:10180C000BD04FF00001012363F30701404866F34E
:10181C008F1106F0BAFD002425E0DB6A5B0022D5AF
:10182C0001234FF0000163F3070166F38F11394870
:10183C0006F0ABFD384B1B782BB10DF107010120E5
:10184C00FFF772FE0EE0354B1B782BB10DF1070143
:10185C000120FFF7F1FE05E0314B1B889BB213B161
:10186C00FFF7E0FD04469DF807309BB9202239466E
:10187C0002A807F037F8099B002D3AD0C3F30802F1
:10188C0022B96FEA53236FEA4323099302A9204636
:10189C00FFF724FD0AB0BDE8F0810DF1070100202F
:1018AC00CEE70DF107010020D3E701234FF0000133
:1018BC0063F30701124A134B1A489B1ADB0863F3B4
:1018CC008F11A6E701224FF0000362F307030D49C5
:1018DC000B4A1548891AC90816F4F87F61F38F135F
:1018EC00A4F11002114918BF0146114806F06EFD13
:1018FC0091E723F4FF7323F00103C6E700ED00E04A
:10190C0074C10000BCC10000BC510400E7510400CC
:10191C00FE5104001F52040028ED00E029ED00E008
:10192C002AED00E03E520400895204007452040077
:10193C00A2520400024A536943F0100353617047EA
:10194C0000ED00E0044800232021C2180133272BAE
:10195C0082F80013F9D1704700E100E038B5054674
:10196C004FF02003EFF3118483F31188BFF36F8FD3
:10197C0005F0F2FE0A4B9B68AB420BD1094B5A683F
:10198C00C2F3080212B92046FFF7D6FB5A6842F0A0
:10199C0080525A602046BDE838400AF0ACB900BF0E
:1019AC00C447002000ED00E01FB5084B0193084B25
:1019BC000293084B039301AB0093074A074B012199
:1019CC00684600F0B5F805B05DF804FB0000002097
:1019DC000000000000000B060000002000000120A9
:1019EC00F8B52E4F0E460021B14222DA50F821C034
:1019FC00DCF80440002C4FD0EBB104F1FF3E14EAAC
:101A0C000E0F06D11F2C04D9DCF800501EEA050F6E
:101A1C0011D001234FF0000263F307022048214B41
:101A2C001B1ADB08204863F38F1206F0BBFC6FF027
:101A3C0015021046F8BD202CD5B2DCF80020DCF8DD
:101A4C0008C01AD9B4F1004F19D8013CB4FA84F487
:101A5C00C4F11F046400072D4CEA040411D90123BE
:101A6C004FF0000263F307020D490E4B0F485B1A4F
:101A7C00DB0863F38F122946D7E70824EBE73E24F3
:101A8C00E9E722F01F022A4342F0100244F001045D
:101A9C00BD60FA603C616A1C0131A5E790ED00E085
:101AAC0074C10000B4C10000B9520400DC5204003F
:101ABC00034B05225A60BFF34F8FBFF36F8F7047F4
:101ACC0090ED00E0BFF35F8F014B00225A6070472E
:101ADC0090ED00E013490868082810B51ED8FFF7F0
:101AEC00F1FF114C49680022904201F10C0105D123
:101AFC000E4B1870FFF7DCFF002010BDA26051F8F0
:101B0C000C3C23F01F03134343F01003E36051F824
:101B1C00043C43F0010323610132E5E74FF0FF3051
:101B2C00EBE700BF70C2000090ED00E00848002019
:101B3C0010B5034C01232278FFF752FF207010BD23
:101B4C000848002008B5084A00231278FFF748FF20
:101B5C0010F1160F03D0054B0022072800DD08BD3D
:101B6C0098601A610130F8E70848002090ED00E019
:101B7C002DE9F04F9FB01E46002301900491009375
:101B8C00134613F8010B059358B1252800F08580F6
:101B9C000499019B9847013040F00D844FF0FF33BE
:101BAC00009300981FB0BDE8F08F232C6CD061D847
:101BBC00002CF6D0202C0A9B08BF01230A93CDF8E9
:101BCC001480DDF81480B94818F8014B214606F052
:101BDC0068FE0028E9D12A2C66D156F8043B0793FD
:101BEC00002BBFBF5B42079301230B93059B98F817
:101BFC00004003F102082E2C7CD198F800302A2BDF
:101C0C0075D156F8045B08F1010818F8014BA84887
:101C1C002146274606F045FE00286ED04346682F25
:101C2C0013F8014B059307D1682C05D108F1020379
:101C3C0098F8014005934827672C7CD8652C80F0D8
:101C4C003981472C5DD8452C80F03481002CA8D0EC
:101C5C00252C00F0AC830499019B2520984701307A
:101C6C009CD00499019B20469847013096D0009B4C
:101C7C000233A2E32D2C0AD0302C0BD02B2C099B39
:101C8C0008BF012309939AE70123069397E70123E1
:101C9C000B9394E70123089391E700230893CDE974
:101CAC0009330B9306938CE7A4F13003092B0790AF
:101CBC00A1D80A22DDF8148018F8014BA4F13003E6
:101CCC00092B98D8079BCDF8148002FB0344A4F190
:101CDC0030030793EEE701FB0535303D9046424655
:101CEC0012F8013BA3F130000928F4D98DE7002547
:101CFC000A21F4E74FF0FF3589E7CDF81480074649
:101D0C009AE7632C5AD020D8582CA4D16F2C06F10A
:101D1C000409316840F01C83069B002B00F00A83F9
:101D2C0030238DF85C30002940F00F838DF85D1066
:101D3C008846012626E0702C00F0E78228D86E2C0D
:101D4C0000F0D082E2D8692C85D13468002C06F1E1
:101D5C00040980F29C802D238DF85C3061420DF1DA
:101D6C005D0630460A2206F009FE099B064417A8B8
:101D7C00361A002B40F024830A9B002B40F0208362
:101D8C004FEAD478002D22DA00252F46AA46E5E04A
:101D9C00752CBBD0782CB9D0732C7FF45CAFB146CA
:101DAC00002D59F8043BB8BF6FF000450026B54232
:101DBC0040F0BB822E460025A84609E0B1464FF004
:101DCC00000859F8043B8DF85C300126454617ABEA
:101DDC0005EB08020025921B2F46AA4622EAE27266
:101DEC0091190691079990190C1A0B9911B9002C9D
:101DFC0000F3048303EB080B5B4540F0018312F105
:101E0C00FF3280F00D83A6EB0806BAF1000F11D05B
:101E1C009BF800000BEB0608A0F13003092BA8EB94
:101E2C000B0640F20883D04618F1FF3880F00C8383
:101E3C00A6EB0A06AFB10BEB06081BF801AB049935
:101E4C00019B5046984701303FF4A8AEBAF12E0FD3
:101E5C00A8EB0B06F1D1B846B8F1000F00F3FD82E8
:101E6C00F61B95B19BF800000BEB0608A0F13003B4
:101E7C00092BA8EB0B0640F2FB822E2800F0F8820F
:101E8C002F46002F00F3FD82761B5E440CE3099B6A
:101E9C0023B12B238DF85C30214660E70A9B0BB1F4
:101EAC002023F7E7214617AE5BE700BF025304007F
:101EBC000853040006F1070929F00709F9E8022381
:101ECC00D80240EA5250D60220F00040029603900D
:101EDC00DDE90267002AC3F30A5173F10003CDE96F
:101EEC00126743DA2D238DF85C300DF15D0740F25B
:101EFC00FF73994255D1DDE902231343A4F1410448
:101F0C0007F1030B42D1192C3AD849233B704E23CD
:101F1C007B704623002517AEBB70FD70ABEB060B38
:101F2C002F46AA46099B002B40F0D9810A9B002B17
:101F3C0040F0D5819DF85C80A8F12D03D3F1000809
:101F4C0048EB03081EAB4344BB4413F81C3C303B2A
:101F5C000BEB0A06092B2E4400F23782089B002B50
:101F6C0000F03682079B9A1B17AB37E7099B0BB126
:101F7C002B23B8E70A9B0BB12023B4E717AFB6E7C6
:101F8C0069233B706E237B706623C3E7192C99BFC2
:101F9C004E2341226E23612294BF3B703B707A70BA
:101FAC00B8E7029B03980B430C93CB1703430D9399
:101FBC00DDE90C23462C08BF6624134300F0FF8098
:101FCC00002900F09F80139B43F00043A1F2FE38E0
:101FDC001393002618F1020FC0F2A8806FF0004A8C
:101FEC004FF0000BB8F1000F00F3CC8012A808F1F1
:101FFC00010806F0E5FCB8F1040FF7D1002D04F050
:10200C00DF03B8BF0625472B40F0E180F21C02DB52
:10201C00AE4240F3D780023CE4B2002D00F0DD80EC
:10202C00069B013D002B40F0D880002DD4BF4FF013
:10203C0000084FF00108662C40F0D18016EB050A21
:10204C0040F1D5801023119366244FF0000A002232
:10205C004FF00063CDE914231AF1FF3A80F0C980E8
:10206C00129B149A15999B18139A41EB0202CDE915
:10207C00123202F070430E9300230F93DDE90E230E
:10208C00134306D012A806F0ADFC12A806F098FC7B
:10209C000136662C40F0C780002E40F3B180119BB6
:1020AC00002B07DD11A912A806F0C8FC013E07F8A9
:1020BC00010BF4D1B246BB460026069B13B9002D8A
:1020CC0040F3AF802E230BF8013B002E00F0A780CD
:1020DC00002D40F3A6807742AF42A8BF2F46ED1BE0
:1020EC00002D03DD119B002B00F39180B8F1000F44
:1020FC0040F0AF80002317AE8BF80030ABEB060B33
:10210C0010E70139029BDB180293039B5B4103939D
:10211C00DDE90223002A73F10003F2DADDE9022380
:10212C00CDE912234FE712A806F04AFCDDE9122C88
:10213C004FF0000BB9480021594508BF604508F124
:10214C000108F0D30520A2FB002300FB0C33CDE9E2
:10215C001223DC46013E6FF0004A4FF0000B0021C9
:10216C008B4508BF9A4506D2BCF1000F3FF432AF45
:10217C00CDE912232EE792185B4108F1FF384FF09E
:10218C00010CECE712A806F02DFCDDE9121008F1A9
:10219C00FF3801364FF0000C00239B4508BF8245E9
:1021AC0006D2BCF1000F3FF41DAFCDE9121019E7B8
:1021BC004918404108F1FF384FF0010CECE70026BC
:1021CC00B04613E7069BAD1B23B966242DE74FF0F1
:1021DC00000830E74FF0000830E74FF0000805F139
:1021EC00010A10239A451193A8BF9A462FE766243B
:1021FC00F7E714A806F0F6FB14A806F0E1FB2BE7B2
:10220C00BB4630230BF8013B4FF0000A55E711A9F0
:10221C0012A806F013FC013D0BF8010B60E73746E2
:10222C005EE7002762E711A912A806F007FC069BDF
:10223C003870302818BF06F1FF36002B3BD1002D2B
:10224C0039DC07F1010BB8F1000F45D04FF0000A53
:10225C0057465B461BF8012D302AFAD02E2A18BFA0
:10226C009B46002504F0DF03452B7FF443AF002E83
:10227C005A46BABF76422D232B23632E02F8024B0B
:10228C008BF801300ADD642196FBF1F303F1300089
:10229C000BF103028BF8020001FB13660A21934633
:1022AC0096FBF1F301FB136603F1300030360BF8AB
:1022BC00020B56701EE72E2307F1020B7B70002DCC
:1022CC00C1DD119B002BBEDD11A912A806F0B6FBD7
:1022DC00013D0BF8010BF2E7C2464746C2E74FF04F
:1022EC0001082FE6B146682F59F8043B05D001DCF4
:1022FC00482F07D0009A1A6001E0009A1A804E46C7
:10230C00059A3DE4009A1A70F9E7B14647F6300396
:10231C00102259F8041BADF85C300DF15E0006F08C
:10232C002DFB4FF00208861C2CE59A5D002A4AD042
:10233C0001363CE517AC0822204606F01FFB17AE11
:10234C00A61B06444FF000081CE50DF15D04F2E7F6
:10235C00752C05D10A2217A806F010FB0646F1E7EA
:10236C00069B93B147F63003ADF85C300DF15E0778
:10237C001022384606F002FB582C08D017AE069BEC
:10238C00BE1B06444FEA4308FCE417AFF0E717AA5C
:10239C0012F8013BA3F16101192903D8203B02F883
:1023AC00013CF5E712F8013C002BF1D1E6E704996A
:1023BC002046FFF7EEBB009B01330093B1469EE72E
:1023CC004FF00108DEE41546F6E417AB002207E5F2
:1023DC0017AB089A04E5CDE907320499019B20203C
:1023EC0098470130DDE907323FF4D8AB1BF1FF3BD6
:1023FC00F1D20099214400915C46FBE4A346F5E739
:10240C0013F8010B07930499019B0892984701302C
:10241C00DDE907327FF4F0ACFFF7C0BB3233333366
:10242C000499019B0792302098470130079A7FF45A
:10243C00E6ACFFF7B3BB0499019B984701303FF41E
:10244C00ADAB1BF8010FE7E40499019B30209847D2
:10245C0001307FF4E9ACFFF7A1BB0499019B30205C
:10246C009847013008F1FF387FF4F6ACFFF796BBC4
:10247C000499019B984701303FF490AB1BF8010F76
:10248C00F4E40499019B30209847013007F1FF37A1
:10249C007FF4F7ACFFF782BB04991BF8010B019B8F
:1024AC00984701303FF47AABA6EB0B03002BF3DC1F
:1024BC00009B069A002C134400937FF720AF25460F
:1024CC0006E00499019B2020984701303FF466AB4D
:1024DC0015F1FF35F5D2009B234400930FE700BFA5
:1024EC000EB40FB505AB6FF0004153F8042B0290FE
:1024FC0003910648019302A9FFF73AFB029B0022C5
:10250C001A7004B05DF804EB03B07047778A0000D2
:10251C001FB50446006A43686946DB6998479DF815
:10252C000C20013A00230F2A20D8DFE802F00F1903
:10253C001F191F1F1F081F1F1F1F1F1F1F140E4AAD
:10254C00C4E903236361002004B010BD0B4AC4E945
:10255C0003230B4BF6E70B4AC4E903230A4BF1E7C1
:10256C000A4BE3600A4B23610A4BEBE7C4E90333E4
:10257C0063616FF02200E7E7278D0000598C0000A3
:10258C00AB8C0000DF8B00002B8C0000978A0000C6
:10259C00A78B0000118B0000C0F1040040B210B4F6
:1025AC00C4B2032C194618D84FF0000360F3020391
:1025BC000B4A0C48121A6FF3C503D208042C62F3B1
:1025CC008F1305D10A460848084910BC05F0FEBE19
:1025DC001A46074810BC05F0E5BE10BC704700BF9A
:1025EC00ACC1000074C10000695304000C5304001A
:1025FC000554040010B58AB02A4804F099FC04462E
:10260C0090B901234FF0000163F30701264A274BD1
:10261C0027489B1ADB0863F38F1105F0B6FE6FF0A9
:10262C00120420460AB010BD224803F093FC01F0BE
:10263C004FFA01A808F0A7FD1F48204909944FF450
:10264C00B4530022029008F0B4FD01A8FFF760FF1C
:10265C00044680B101234FF0000163F30701124AD5
:10266C00124B17489B1ADB0863F38F1105F08DFE94
:10267C006FF02204D5E701A803F0E4F80028D0D1CC
:10268C0001234FF0000163F30701074A074B0D4884
:10269C009B1ADB0863F38F1105F077FE4FF0FF34C4
:1026AC00BFE700BFE84C040074C10000ACC10000DF
:1026BC0015530400A5250000300100200948002016
:1026CC002F530400465304004FF02003EFF3118204
:1026DC0083F31188BFF36F8F06490123C1F840358E
:1026EC004FF08041C1F8783582F31188BFF36F8FBA
:1026FC000020704700E0014020B1034B800143F003
:10270C0001031847704700BF00C20000F0B5054632
:10271C0085B0002201210B20FEF772FD2B689B680F
:10272C0000246FF07F46CDE90144039400961F69A5
:10273C000C4804F0FDFB88B1436801211B689847E5
:10274C00C7F30730C7F80845FEF74AFDAB68694682
:10275C009E60284606F03BFB05B0F0BD6FF0120002
:10276C00FAE700BFB14D040010B58368BFF35B8F6F
:10277C00012404FA01F1103353E8002F0A4343E813
:10278C00002CBCF1000FF7D1BFF35B8F03689B6883
:10279C001A69120B53B2002B08DB5B0902F01F0203
:1027AC004033034904FA02F241F8232010BD00BF64
:1027BC0000E100E008B5094B1A786AB901211970DB
:1027CC0006200521FEF71CFD0620FEF709FD044B33
:1027DC004FF00042C3F80423002008BD898B002071
:1027EC000060004073B50368554D9B688268D5F84E
:1027FC000443187901F01F0343EA4013E4B20020AC
:10280C0000F5A27655F82660C6F30426B34275D1BE
:10281C0024FA00F6F60771D5840004F1804404F51F
:10282C00C044D4F8106526F00106C4F810650124E4
:10283C0004FA00F0C5F808039C0004F1A044D4F895
:10284C00000720F44030C4F800079068C84010F02E
:10285C00010051D0D068C84010F001004CD0506934
:10286C00C84010F0010056D09069C840C0074AD447
:10287C001069D269C84022FA01F100F0010001F0A0
:10288C000101884214BF012102212D4D002404F5C1
:10289C00A27255F8220010F0030036D1A20002F10A
:1028AC00804202F5C0421B02D2F8106503F4F853C3
:1028BC0043EA014126F4473604F1400326F44076FE
:1028CC009B00C2F810659BB2D2F8106503F18043EF
:1028DC0003F5C0433143C2F8101518601B6801930F
:1028EC00019BD2F8103543F00103C2F810350123D7
:1028FC0003FA04F4C5F8044302B070BD0130082893
:10290C007FF47EAF98E70321BFE70134082CBED1DA
:10291C006FF01200F0E71369D269534023FA01F10A
:10292C00D4F8003711F0010F23F4403314BF4FF4E7
:10293C0000324FF440321343C4F80037DCE700BFD9
:10294C00006000402DE9F34153490D68002D67D01C
:10295C00524B9A681B689E68D2E902030340D2E985
:10296C000504204323EA00033068D4691269D0F8C7
:10297C0010055440444023EA040401200027002B96
:10298C0038D10B600B680093009B4548002301264F
:10299C001F46D0F8042306FA03F1114213D09A0013
:1029AC0002F1804202F5C242116861B103F5A271D5
:1029BC0050F82110176012680192C1F3042106FA35
:1029CC0001F1019A0C430133082BE2D154BB75B1D0
:1029DC00324B99681B689E68D1E902231340D1E9F8
:1029EC000520024323EA0203012400258BBB02B01D
:1029FC00BDE8F081034210D096F804C007F01F0226
:102A0C0042EA4C12920002F1A04223EA0003D2F8EF
:102A1C0000C72CF4403CC2F800C701374000AEE7B9
:102A2C002C46B2E71D4FD7F80880D8F800100029C3
:102A3C00CDD00E68D8F80C308A682340134203D0EE
:102A4C004B68224638469847002EC0D0314636682F
:102A5C00F0E71C421CD03079CF6905F01F0242EA26
:102A6C00401208699200784002F1A042E84010F050
:102A7C00010FD2F8000718BF4FF4003720F4403094
:102A8C0008BF4FF440373843C2F8000723EA040369
:102A9C0001356400AAE700BF7C61004000A2002061
:102AAC000060004010B50446002201210420FEF70E
:102ABC00A7FB23680F4A9868234600F1080100F031
:102ACC008FFE0D4B984212D001234FF0000263F39E
:102ADC0007020A490A4B0B485B1ADB0863F38F1297
:102AEC002368196805F05EFC6FF00F0010BD002024
:102AFC00FCE700BF792C00000000AD0B74C1000096
:102B0C009CC10000E853040008B50368CA079B6821
:102B1C0013D4C1F34202012A12D0022A19D0012384
:102B2C004FF0000163F307010C4A0D4B0D489B1A43
:102B3C00DB0863F38F1105F028FC6FF0150007E03C
:102B4C001B684FF0CC72C3F82425836800205962AF
:102B5C0008BD1B684FF0CD62F5E700BF74C10000E3
:102B6C009CC10000A25304002DE9F04F054687B02C
:102B7C000C461746994680684FF0FF3104F0AAFFC7
:102B8C002B68DFF8E480986800F06EFE0026BE42E9
:102B9C0001D300242EE094F808B01BF0080A58D199
:102BAC00122251460DF1060005F0C6FE6268029233
:102BBC000BF0010322688DF804301BF0020F8DF826
:102BCC000590049221D17A1EB24202D9227D52077D
:102BDC001DD5002B3DD120222B6801A9986800F04F
:102BEC006DFE404515D01C4B98420CBF6FF00F0486
:102BFC006FF004042B68986800F046FEA86804F097
:102C0C0043FF204607B0BDE8F08F5246E4E7402270
:102C1C00E2E7A86810304FF0FF3104F05BFFAB68BF
:102C2C00196A414504F10C0411D001224FF0000344
:102C3C0062F3070309480A4A121AD20862F38F1387
:102C4C000848324605F0C2FB6FF00404D2E70136A7
:102C5C009DE76FF02204CDE70B00AD0B74C10000B3
:102C6C009CC10000B45304000000AD0B02788B68CB
:102C7C00012A0AD01AB1022A09D0064A00E0064AF3
:102C8C001A6203F1100004F0FFBE044AF8E7044A8C
:102C9C00F6E700BF0100AD0B0000AD0B0100AE0B61
:102CAC000200AE0B10B50446002201210320FEF7F2
:102CBC00A7FA2368104A9868234600F1080100F02F
:102CCC004FFB0E4B984212D001234FF0000263F3DE
:102CDC0007020B490B4B0C485B1ADB0863F38F1292
:102CEC002368196805F05EFB6FF00F0010BDA0683B
:102CFC0006F0E8FB0020F9E7992D00000000AD0B71
:102D0C0074C10000D4C10000E853040030B58568DC
:102D1C00EA6B6B6C85B082B97BBB1C4600221146FA
:102D2C00284606F0A5FB6C6205F1140004F0ACFE1D
:102D3C00002385F84C3005B030BD114613B19A42D2
:102D4C0028BF1946AC6BA9640094C4B1002A18BF03
:102D5C000A4601922A6C02929AB1002B18BF0B46BC
:102D6C000393036800229868694600F09FFB064BAA
:102D7C009842E0D06FF00404D0E71946E2E722460F
:102D8C00E7E71346ECE700BF0000AD0B38B503785E
:102D9C000D46002B57D18C68E36B83B1A26C9A4221
:102DAC0025D901234FF0000163F30701264A274B75
:102DBC0027489B1ADB0863F38F1105F0E6FA636C66
:102DCC0083B1A26C9A4228D901234FF0000163F31E
:102DDC0007011D4A1D4B1E489B1ADB0863F38F111C
:102DEC0005F0D3FA2846BDE83840FFF78FBF9B1A91
:102DFC00E36363B9E36A013BE36263B1A36A03F182
:102E0C000802A2629A68DB68A263E363D7E7A36B4C
:102E1C00002BD4D01344A363D1E79B1A636463B92A
:102E2C00636B013B636363B1236B03F108022263A1
:102E3C009A68DB6822646364D4E7236C002BD1D0DE
:102E4C0013442364CEE738BD74C10000D4C1000024
:102E5C00085404002DE9F04707468068884616465A
:102E6C001D4604304FF0FF3104F034FEBC6823687B
:102E7C00984500F0B080B8F804303868D90716D5FA
:102E8C0001234FF0000263F307028049804B5B1A69
:102E9C00DB0801687F4863F38F1205F083FA6FF04B
:102EAC001505201D04F0F0FD2846BDE8F0871A0733
:102EBC000ED501234FF0000163F30701734A744BE5
:102ECC0075489B1ADB0863F38F1105F05EFAE6E791
:102EDC0013F4C0510CD001234FF0000163F3070130
:102EEC006A4A6B4B6D489B1ADB0863F38F11ECE756
:102EFC00C3F34513082B0CD001234FF0000163F3EF
:102F0C000701624A624B66489B1ADB0863F38F1118
:102F1C00DBE7D8F80020634B9A420CD801234FF022
:102F2C00000163F30701594A594B5F489B1ADB08B0
:102F3C0063F38F11C9E7D8F80830D0F80890C4F8BB
:102F4C000080002B6FD0186800286CD05A6843683A
:102F5C00D3F800A00123D04722689368B2F904206B
:102F6C00D243D20FD3E9000106F079FAB8F8043055
:102F7C00D9F80010980703F0040263D5002A14BF97
:102F8C0003220222022AC3F300135FD0032A60D06B
:102F9C00012A01D143F00203C1F85435434AD8F851
:102FAC000030934258D9424A934258D9414A9342ED
:102FBC0058D9414A934258D9404A934258D902F5BC
:102FCC00741202F51062934294BF4FF080434FF09D
:102FDC000043C1F82435012384F84C30002E4AD02C
:102FEC0033687268A362E2621A685B68A263E36387
:102FFC00002D45D02B686A68236362631A685B688E
:10300C0022646364002262620121204606F030FAD9
:10301C003846FFF77BFE4FF0FF3104F1140004F04B
:10302C0059FD656A3DE703234FF0000163F3070187
:10303C00164A174B22489B1ADB0863F38F1105F0D5
:10304C00A4F993E7003218BF01229BE743F0040375
:10305C00A2E743F006039FE74FF00073B9E74FF088
:10306C008063B6E74FF00063B3E74FF08053B0E7EF
:10307C004FF00053ADE7C4E90A66C4E90E66B7E742
:10308C00C4E90C55C4E91055BCE700BF74C100007D
:10309C00D4C10000265404004854040067540400B2
:1030AC008A54040047E80100B95404008FD003008F
:1030BC001FA107003F420F007F841E00FF083D0048
:1030CC00EA540400044B1868421C04BF034B1878E4
:1030DC00831F58425841704730010010E00F00F038
:1030EC00074B1B78062B09D1064B1B68C3F3031344
:1030FC00033B032B02D8044AD05C70470020704776
:10310C00E00F00F0E80F00F01D55040008B5FFF7C4
:10311C00D9FF28B17C4B7D4A1B68C3F30423136091
:10312C00FFF7DEFF10B17A4B7A4A1A60FFF7CAFF3D
:10313C0028B1794B794A1B68C3F342331360FFF70C
:10314C00CFFF20B1764AD36823F08073D360FFF7AA
:10315C00B9FF40B14FF080430022C3F80C21C3F8F3
:10316C001021C3F83825FFF7BBFF10B16D4B0322BC
:10317C001A60FFF7B5FF40B16B4B05221A600122B4
:10318C009A6700229A603F225A60684B1A68511C59
:10319C000BBF674B674B1A781B6802BF08331B6861
:1031AC00C3F30313062A4DD1033B032B03D8624A06
:1031BC00D35C002B46D04FF08052604BD2F80414F5
:1031CC00C3F82015D2F80814C3F82415D2F80C143F
:1031DC00C3F82815D2F81014C3F82C15D2F814140F
:1031EC00C3F83015D2F81814C3F83415D2F81C14DF
:1031FC00C3F84015D2F82014C3F84415D2F824149F
:10320C00C3F84815D2F82814C3F84C15D2F82C146E
:10321C00C3F85015D2F83014C3F85415D2F834143E
:10322C00C3F86015D2F83814C3F86415D2F83C14FE
:10323C00C3F86815D2F84014C3F86C15D2F84424BE
:10324C00C3F87025FFF73EFF28B13D4B3D4A1B6884
:10325C0003F04F031360FFF735FF48B14FF0804385
:10326C00D3F80024D20744BF6FF00102C3F8002446
:10327C002E4B1B68062B09D12E4B1B68033B022BD4
:10328C0081BF314A136843F4806313604FF01023FD
:10329C00D3F80022002A03DBD3F80432002B2FDAF8
:1032AC002A4B0122C3F80425D3F80024002AFBD0B2
:1032BC004FF010221521C2F80012D3F80024002A76
:1032CC00FBD04FF010231522C3F804221F4B1A46D3
:1032DC00D3F800140029FBD00021C3F80415D2F850
:1032EC000034002BFBD0BFF34F8F1949194BCA6820
:1032FC0002F4E0621343CB60BFF34F8F00BFFDE7D6
:10330C00154B164A1A6008BD2403001040350140C5
:10331C0074C007400DF0ADBA440200103C050040EB
:10332C00F0ED00E0A0050040105600403001001008
:10333C00E00F00F0340100102155040000C00040E3
:10334C0058020010E40E00403C17004000E0014021
:10335C0000ED00E00400FA0520A100200090D0034D
:10336C002DE9F04704794E4D2C266643AF1997F89A
:10337C001CC0BCF1000F40F09180AA517B6091F809
:10338C0000E00F7B4FF0A046012303FA0EF3012F50
:10339C0094BFC6F80C35C6F808350EF5E0734FF03F
:1033AC00010C46F823C04B78FF2B1FBF0CFA03FC13
:1033BC00C6F80CC503F5E07C4FF0030818BF46F8BF
:1033CC002C808E7808BF4FF0FF33FF2E1FBF91F873
:1033DC000E9006F5E07C4FF0A04A4FEA890918BF21
:1033EC004AF82C904FF02C0C0CFB045C18BFB04628
:1033FC008CF81F60CE7808BF4FF0FF38FF2E0DD031
:10340C004FF0A0494FF0010C0CFA06FCC9F808C5A6
:10341C0006F5E07C4FF0030A49F82CA04FF02C0C79
:10342C000CFB045C8CF81E600068C0F808E5C0F862
:10343C000C358B68C0F81085C0F824354B7B0033F5
:10344C0018BF0123022F23D0032F24D0012F01D129
:10345C0043F00203C0F854352C2303FB0453497981
:10346C0083F8201012B10423C0F804330123C0F8F0
:10347C0000351AB140F30730FDF7B2FE2C2303FBE5
:10348C00045400236377074801232377BDE8F087B2
:10349C0043F00403DEE743F00603DBE70248F5E7FD
:1034AC00980100200000AD0B0500AD0B2DE9F74392
:1034BC000679424D2C2373439646EA180F46517FEA
:1034CC008146002978D155F803C0BCF1000F01D01A
:1034DC000123537797E80F002C2404FB065404F1C6
:1034EC000C0888E80F00A27F0023FF2A84F82830FC
:1034FC001FBF012393404FF0A042C2F80C352C2380
:10350C00BEF1000F07D003FB065300222C485A775C
:10351C0003B0BDE8F083D9F800400422C4F80823B6
:10352C0003FB0653C4F808E1D4F80821C3F824E0DF
:10353C000092009A7A688AB13B681B78C4F81C35F3
:10354C00012A0ED93B685B78C4F81C35BCF1000F1E
:10355C0010D00423C4F804331A48D9E793F8203068
:10356C00ECE7FB68012BF1D92C2303FB065393F8F2
:10357C002030E9E74FF02C0806FB08586746D4F8D2
:10358C000831002BFBD0C4F80871D4F80831019332
:10359C0041462046019B05F0B8FF0028EFD12C23B3
:1035AC0003FB0655AA7FFF2AD6D0012393404FF088
:1035BC00A042C2F80835CFE70348A9E798010020DC
:1035CC000300AD0B0000AD0B0B00AD0B13B5104B96
:1035DC00104C114800221A601B6801932146019B74
:1035EC0005F093FF90B9A27F0C48FF2A1FBF01235F
:1035FC0093404FF0A042C2F8083500236377237242
:10360C00D4E9003102B0BDE81040184702B010BD3B
:10361C00083100409801002000300040A00100203B
:10362C0037B5344B01930D464FF48271044605F0C7
:10363C00A0FF4FF4927105F09CFF4FF48E7105F0D2
:10364C0098FF4FF4847105F094FF00236B6385F8A9
:10365C002F30AB6A012B18D12B6A5B0615D40223D1
:10366C0095F82D20C4F80032022A4FF00103236292
:10367C0018BF23602B6893B140F28623AB60AB6814
:10368C001D48C4F8043303B030BD0123E8E72946D4
:10369C00204605F096FF28B1019B013B0193019B4D
:1036AC00002BF4DC95F82F305BB91348019B002BF1
:1036BC00E9DC0023C4F800350523C4F800350F48B5
:1036CC00E1E7D4F8C434C4F8C434002BEDD00C4A70
:1036DC000A4813F0010F18BF104613F0020F02F145
:1036EC00010218BF104613F0040F064B18BF184602
:1036FC00DCE700BFA08601000000AD0B0100AD0BA4
:10370C000000AE0B0200AE0B37B5304B01930D46EB
:10371C004FF48271044605F02CFF4FF4927105F0C2
:10372C0028FF4FF48E7105F024FF4FF4847105F0DF
:10373C0020FF002395F82D20C0F800326B6385F82C
:10374C002F3001239A420362294618BF836005F08B
:10375C0018FF2B6883B140F28623AB60AB681C4822
:10376C00C4F8043303B030BD2946204605F029FFC8
:10377C0028B1019B013B0193019B002BF4DC95F8D4
:10378C002F305BB91248019B002BEBDC0023C4F8F3
:10379C0000350523C4F800350E48E3E7D4F8C434EB
:1037AC00C4F8C434002BEDD00B4A0A4813F0010FB7
:1037BC0018BF104613F0020F02F1010218BF104699
:1037CC0013F0040F054B18BF1846DCE7A086010068
:1037DC000000AD0B0100AD0B0000AE0B0200AE0BF8
:1037EC00F8B507791D4D4FF03C0C0CFB07FC05EBB5
:1037FC000C0494F82E607EBB63604B7BA66084F84F
:10380C002D6084F8306084F8316084F838300C68AE
:10381C0045F80C204FF0A04604F5E07340F20C6C18
:10382C0046F823C04B68006803F5E07E46F82EC0CE
:10383C00C0F80845C0F80C358B68C0F824351AB1AF
:10384C0040F30730FDF7CCFC3C2303FB0755044841
:10385C00012385F82E30F8BD0248FCE7C401002096
:10386C000000AD0B0500AD0B026803790521C2F811
:10387C000015044A3C2101FB0323022283F82E206D
:10388C00704700BFC401002003680A490279C3F8DD
:10389C000813D3F8001221F00301C3F80012002121
:1038AC00C3F80015044B3C2101FB0232012382F8C2
:1038BC002E30704786420400C40100202DE9F047E9
:1038CC00324D90F80480D0F800903C2303FB085351
:1038DC000E4693F82D30012B964604D10B78012B14
:1038EC0006D12B4811E0022B02D10B78012BF8D119
:1038FC003C24284BC9F8083304FB085494F83030A6
:10390C002BB1A3682448C9F80433BDE8F0878EF0C6
:10391C000403C3F3800384F83030C4F820E0B446C9
:10392C00BCE80F0004F10C070FC7DCF800303B605B
:10393C007368A362F36863627378C9F88835337867
:10394C00C8EB081A012B05EB8A0A1AD0B3B9CEF3CF
:10395C00401E3C2303FB0853514683F82CE0484699
:10396C00FFF7D2FE3C2303FB08F805EB080255F8E1
:10397C000830002BC9D182F83030C6E74FF0010E69
:10398C00E7E751464846FFF74BFEEBE7C401002042
:10399C000500AD0B864204000B00AD0BF0B5294CB5
:1039AC0087B021464FF0402005F00BFEA446E0B94D
:1039BC0094F82F70266AEFB9237B9A1E012A19D826
:1039CC00616AA269914215D1E2696262C6F340163E
:1039DC006269A262032B84F82C6084F82D70214656
:1039EC004FF0402003D1FFF78FFE07B0F0BDFFF77B
:1039FC0017FEFAE7144D0FCD01AC0FC42B682360F2
:103A0C00E7B14FF04022D2F8C434C2F8C43498075E
:103A1C000CD501238DF8003000238CF8303073075F
:103A2C00E3D4DCE9003168469847DEE7590701D555
:103A3C000223EFE7DA07EFD50323EBE78DF80070ED
:103A4C00EAE700BFC4010020D001002010B50446F5
:103A5C0058B901F053FF044638B9054B05492E22DD
:103A6C00022002F07DFA204610BD646BFBE700BF1C
:103A7C0097550400CE55040010B5044658B901F012
:103A8C003DFF044638B9054B05494B22022002F094
:103A9C0067FA204610BDA46BFBE700BF5E5504001F
:103AAC00CE55040010B5044658B901F027FF044662
:103ABC0038B9054B05495C22022002F051FA204628
:103ACC0010BDE46BFBE700BF25550400CE55040088
:103ADC0010B5144C23783BB1134B144953220220DC
:103AEC00BDE8104002F03CBA07F07EFC01F036FF56
:103AFC0000F0E6FB06F094F94FF4B4710C4807F0B3
:103B0C0099FC60210B4807F095FC05F0DFFD01F0F6
:103B1C0065FD012001F060FE01202070064B034979
:103B2C007922DDE78A8B0020045604001C56040021
:103B3C00340600205406002051560400F8B50368E2
:103B4C0005467BB91348134F07F0BAFC04466CB911
:103B5C00114B124940F26762022002F001FA204632
:103B6C00F8BD1D462B68002BFBD1EBE704F12806B2
:103B7C00304607F0A5FC28B92146384607F0A6FCCC
:103B8C000446E4E78542EAD00146304607F09EFC45
:103B9C00F1E700BF34060020D75604001C56040081
:103BAC0070B50D460646002840F0D98001F0A6FEFF
:103BBC00044638B9894B8A499022022002F0D0F988
:103BCC00204670BD283007F03FFC044608B900249D
:103BDC00F6E7382140F8046B07F02CFC814BE361CD
:103BEC00814B2362A6612661304601F08DFE0138BF
:103BFC00A082304601F098FE0138E082268602F061
:103C0C0017FF002800F0A9800368A362042200219A
:103C1C0004F1340004F090FEE36A714903F40343A9
:103C2C0043F07F43E36200236362DE226F4B01208B
:103C3C0002F096F9002D00F08480082205F11001A5
:103C4C0004F1100004F04EFEB5F930302386042246
:103C5C0005F1340104F1340004F044FEAB6995F82D
:103C6C002C20A36194F82C3062F3000384F82C30E0
:103C7C0095F82C3094F82C20C3F3400363F34102E5
:103C8C0084F82C2095F82D2094F82D3062F3010344
:103C9C0084F82D3095F82C3094F82C20C3F3800345
:103CAC0063F3820284F82C2095F82C30D2B2C3F343
:103CBC00C00363F3C30284F82C2095F82C30D2B2E5
:103CCC00C3F3001363F3041284F82C2095F82C3002
:103CDC00D2B2C3F3401363F3451284F82C2095F849
:103CEC002C30D2B2DB0963F3C71284F82C2095F880
:103CFC002C30D2B2C3F3801363F3861284F82C20D9
:103D0C0095F82E3084F82E3095F82F3084F82F301B
:103D1C00AB6AA3622B68002B5CD0002E5AD02846CD
:103D2C0005F031FE0146284605F035FE02462046D8
:103D3C0005F050FD2E4B2A4940F27D12012002F075
:103D4C000FF9002E3FF43CAFF369224601213046B7
:103D5C009847204605F0EEFC32E7264B55E7043039
:103D6C0007F072FB044600283FF431AF40F8046BB7
:103D7C00382107F05FFB1B4B94F82D20E3611A4BA5
:103D8C002362002363F3830284F82D20B6F91220FA
:103D9C006282728AA3614232E282B6F910202282D8
:103DAC00328A23866432A28202F042FE80B183689A
:103DBC00A3620422002104F1340004F0BDFDE36A87
:103DCC0003F40C420C4B1343E3620023636231E7B0
:103DDC000A4BEDE700221146A9E700BF5F5604002D
:103DEC001C5604002D3E0000279C0000AF5604001A
:103DFC00C3560400D8040020010300FFE803002090
:103E0C00836A13B9026812B9044B18467047936A57
:103E1C0013B11978C907F8D51268F4E79803002094
:103E2C00072910B5044605D10F491046BDE81040CE
:103E3C0005F049BF012905D190F82E00C04300F0D0
:103E4C00010010BD06290AD1FFF7DAFFB4F93020C2
:103E5C00B0F91C309A4200DA23860120F1E70429DC
:103E6C00FBD105F0FDFCF8E7F956040038B5104D10
:103E7C00286807F0B4F90446286807F0B2F910B1C5
:103E8C00A369DB07FCD4237E286843F00103237667
:103E9C00C3681BB1A26804F110019847236833B1C1
:103EAC00626822B1A1688B4208BF1346A36038BD7B
:103EBC0000020020F8B50E46054620B9124B1868D2
:103ECC00FFF7C4FD05462846314605F03CFF284661
:103EDC0005F024FD044600B9F8BD271D29463846D7
:103EEC0007F004FB054648B9236A012231462046F7
:103EFC009847204605F012FD2546EBE7314628464B
:103F0C0005F021FFEAE700BF0002002073B5184C52
:103F1C000646206807F063F90546206807F061F94A
:103F2C0010B9AB69DB07FCD405F1100231466846C9
:103F3C0007F0B7F92068FFF789FD0146684605F0E0
:103F4C00D0FE6946FFF7B6FF2068FFF795FD69467E
:103F5C00FFF7B0FF2068FFF7A5FD6946FFF7AAFF42
:103F6C00206807F046F908B9FFF780FF02B070BD72
:103F7C0000020020014B1868704700BF00020020AF
:103F8C002DE9F04F89B0054607F042F9AE4CEB68CD
:103F9C000390236000262368B3F86021C2F3090262
:103FAC00964230D3A94B029300221A6090462768A0
:103FBC00B7F86031C3F30902904568D3F2B13846C3
:103FCC0007F017F9002840F01A8120684FF480722E
:103FDC000021403004F0B0FC20682022002100F5C4
:103FEC00A07004F0A9FC2468B4F86031A5696FF3E3
:103FFC000903A4F86031002D40F0568100F0FAFC62
:10400C0009B0BDE8F08F334493F840510DB101363F
:10401C00C1E7F70040374FF001092068B0F8603174
:10402C00C3F309039D42F2D2431993F8403163BBA9
:10403C00AE422AD04FEAC50808F1400800EB08014F
:10404C00384407F07AF900B3216806A801EB08029E
:10405C00394407F050F906A807F015F98346206893
:10406C00384407F010F982462068404407F00BF9F9
:10407C005044834509D22068082206A9384404F02C
:10408C0031FC23682B4483F840910135C5E707EBDD
:10409C00080393F84061002E7AD14FEAC80505F168
:1040AC0040033846019307EB030B07F0A2F898B1D5
:1040BC00206807F094F805460682206801F024FC7D
:1040CC000138A8826E82206801F02EFC0138E8824B
:1040DC005846FFF71BFF4FE03D44206807F07FF880
:1040EC00B5F844A0B5F84070B5F94690B5F8423033
:1040FC000AF1010AAAEB070A064609F10107206832
:10410C00FF1A01F011FC81450FFA8AFA3FB242DB2B
:10411C00206801F009FC01380FFA80F9F368B3FB51
:10412C00FAF39F42A8BF1F4623681B69002B38D0A7
:10413C0000230693ADF81C303BB203F1FF3A206824
:10414C0004930FFA8AFA0269ADF81EA006A99047EB
:10415C00BDF91E10BDF81A20049B01318A1A12B247
:10416C0097421BDABAF10003E7DC394B394940F2CC
:10417C004F12022001F0F4FE2068836943B1019BC9
:10418C00184407F080F8029B1B681844029B1860C7
:10419C0008F101080BE7B5F94690BFE7002BE4DD09
:1041AC000F46B5F942304FF0000A7A1ED118494536
:1041BC000BDDD145E0D0B5F940203282B5F9442071
:1041CC00B2827382A6F8169082E7B5F9401031825C
:1041DC00B5F9441073823B441BB203F1FF3A0FFA5A
:1041EC008AFACA45A8BFCA46B182A6F816A0584694
:1041FC0005920493FFF78AFEDDE90432D6E72068C6
:10420C0006F0EDFF0546FFF731FEAB69DB07FCD48A
:10421C00D5F80090D5F808B02068D94508BFD5F876
:10422C00049001F071FB002603462268B2F860117D
:10423C00B0B2C1F3090181427FF6C7AE911991F872
:10424C00401149B10136F0E70002002004020020C1
:10425C00005704005057040002EBC60206F1080A8E
:10426C00B2F84450B2F94010B2F9427001356D1AEF
:10427C0003FB07182DB24FEA8808AD004FEACA0AB3
:10428C0022685244B2F90620BA42DBDB09EB080182
:10429C000BEB08002A46019304F024FB019B013729
:1042AC0008EB83083FB2EBE7039806F0B5FF034B2E
:1042BC0001461A682046A847A0E600BF0402002069
:1042CC0077492DE9F84F0B78764C774E774FDFF81E
:1042DC005C92DFF85CA20F646FF300030B70052394
:1042EC000B854FF07F430B6103F570234B6101236A
:1042FC008B776F4B8F64C1E90B346E4B4B634FF470
:10430C0000338B63FF2381F83C304FF47F43A1F8DB
:10431C004430CB6CC1F8189003F07E4343F47F0318
:10432C0000254FF0FF3843F00203C1E90188C1E9D1
:10433C000855CB6430468D8181F80E808D8305F055
:10434C00C8FD4FF00513C6E908333146504605F059
:10435C00C0FDCAE90144584C584BCAF82C30CAF875
:10436C004030CAF848303146204605F0B2FDE762CD
:10437C002764A764524F534B534AC4F80480A3607C
:10438C00226121464C2238464FF0060B4FF0020AB0
:10439C00E275A4F80CB0A4F814A005F09AFD494BF2
:1043AC00BB644A494A4B4B4C4B4AFA62C7E901136E
:1043BC00A3F5B113A3F649533A643B613146204649
:1043CC0005F087FD2378454FA58243F00103237048
:1043DC00A5732146424C384605F07BFDC7E90855CC
:1043EC003946204605F075FD25853E4C3E4F31463D
:1043FC00204605F06EFD3D483D4BA583C4E9010305
:10440C004FF010164FF019133A4DC4F82C80C4E934
:10441C0008630A232385384B23612846B223C4F84A
:10442C0040802146C4F81890E375A4F80CB0A4F8A9
:10443C0014A005F04EFD314B314EDFF8F880C5E984
:10444C000173304FEF622F64AF642F4D2146284625
:10445C0005F03FFDDFF8E0C02C4BC5E901C32C4B48
:10446C002B612C4BEB622B64AB642946304605F078
:10447C0030FD294D294BF762C6E901833764B764D7
:10448C002146284605F025FD254BC5E90133254B72
:10449C002B61254BEB622B64AB64BDE8F88F00BF3E
:1044AC00D8040020D89655FF98030020202020FF28
:1044BC00303030FF58A1002038040020F0F0F0FF1D
:1044CC0088040020C0C0C0FF404040FFC79A6BFF6B
:1044DC008B592BFF28050020E0E0E0FF7805002039
:1044EC00C8050020A8020020946233FFD0A276FFFA
:1044FC005D3A19FF5802002028190BFF3C2610FFCB
:10450C00F8020020C6B5A4FF48030020906237FFD4
:10451C000D0701FFF4DDC8FF08020020704C2BFFD3
:10452C00D8D8D8FF909090FF707070FF808080FF7B
:10453C00E8030020271402FF22110AFF2DE9F04F97
:10454C00A3B09A469DF8B43008934FF47F43ADF86E
:10455C006430A3F5AD03A3F528531B93B44B174656
:10456C0004460D461EAA03F1100C1868596816462D
:10457C0003C6083363453246F7D1089B0F2B0AD983
:10458C00FC2B28BFFF23089347B9AA4BAA49F72253
:10459C00022001F0E5FC23B0BDE8F08F0023524669
:1045AC001CA9384607F0F9FA0028F4D09DF97510CB
:1045BC0006919DF87610B4F90090B4F902609DF95B
:1045CC00742097F808807B7A9DF87340032906D1F4
:1045DC0004218DF87610F02109911EA919E00139FA
:1045EC000729D8D801A050F821F000BFED470000F2
:1045FC0019460000A3450000E3450000A345000058
:10460C00A3450000A3450000E5470000C021099127
:10461C001BA90591384651460A93079207F0BBFA3D
:10462C0004900028B7D0079AB5F9001091449DF872
:10463C0072200FFA89F94A448A42ACDBB5F904209E
:10464C004A45A8DB0A9BB5F90220A8EB0308069B98
:10465C00464436B21C44331B0FFA83F89DF8733072
:10466C004344934297DBB5F90630434593DBFFF7A0
:10467C0081FC119006F0B3FD838AB0F910100790FD
:10468C0001335B1A1BB20B93BB7AD0F808C09DF8B0
:10469C0076209DF87200B5F900A013F0030300FB1F
:1046AC0002FE0C9340F0A580CA45B5F90430D4BF86
:1046BC00DDF830A0AAEB090A00EB0907C8BF0FFA16
:1046CC008AFA9F4200F3908003B2B5F902709DF80C
:1046DC00730006934745C8BF3F19B5F90630C8BFEC
:1046EC00BF1B00EB0805CCBF3FB200279D42C2BFE9
:1046FC000134E418A01B03B20F93079BB3F91240CB
:10470C000B9BA9EB0101A8EB040403FB041403FBB2
:10471C0007F10C9B0CEB8404002B00F08680032328
:10472C009AFBF3F30B4412FB0AF504EB8304049B92
:10473C00069A07FB0E5503EBD5030A9305F0070306
:10474C0004932C9BC3F3074312932C9BC3F30723B3
:10475C0013932C9BDBB214930B9B53449B1A9B001F
:10476C001693A2EB0A036FF0020293FBF2F30B9A7F
:10477C0013449B0015930F9B9F42BFF60CAF099BF4
:10478C00049A1341DBB2CDE90D3ABDF820301093F9
:10479C002C9BC3F30743002617930E9B069A9DF898
:1047AC00761093424ADB9DF8723053449B1A049A5C
:1047BC0013FB01F31A440A9B95B203EBD5030A933E
:1047CC0005F0070304930C9B002B00F0F980159B5C
:1047DC0001371C443FB2CEE7FF210991002118E7B5
:1047EC008021099119A914E70133A3EB09031BB22A
:1047FC006BE7CA45C8BFAAEB090AB5F90430C8BFB4
:10480C000AEB4A0A4FF00307B0FBF7F74F44CCBF53
:10481C000FFA8AFA4FF0000A9F427FF755AF013327
:10482C00A3EB090303EB4303E1E701EB0A037AE78C
:10483C00E0C1000086570400A95704000A9B0498A5
:10484C001A780D9B1A40C1F108031B1A1A410C9BD4
:10485C00D2B2002B5CD10AB3089BFF2B34D10829B0
:10486C0001D0059B9A5C119B5B691D46002B35D0D2
:10487C00079B0E991B8A02922C9A0192079A119807
:10488C00528AA8EB0202A9EB03033A440B4412B27E
:10489C00079900921BB20B9A8968A84704349DF8BB
:1048AC0076300499C3F10802914280F281800A4665
:1048BC001A4492B204920D9A1A41D3B20D930E9BE4
:1048CC0001331BB20E9368E708291CBF059B9A5C49
:1048DC00109B12FB03F2C2F30722C4E723682C9946
:1048EC008B42DBD0FB2A01D92160D7E7102AD5D91E
:1048FC0023780292A27801922C992C9862780092DB
:10490C00C1F30721179AC0B205F0E6FA2060C5E79B
:10491C0032B1089BFF2B1BD1082901D0059B9A5C57
:10492C0022AB33440136F6B2032E03F8202CB6D159
:10493C009DF868C09DF869209DF86A004CEA020356
:10494C0003430FD1D4F800B044F804BB0026A6E70B
:10495C0008291CBF059B9A5C109B12FB03F2C2F347
:10496C000722DDE7129D94F802E021786378CCF100
:10497C00FF0615FB0CFC149D0EFB06CCC0F1FF06CC
:10498C0015FB00F006FB0101CCF3072C1398C1F3C7
:10499C0007216CF3174B61F3070BC2F1FF0110FBFE
:1049AC0002F201FB0323C3F3072363F30F2BCBE7C3
:1049BC000A9B01330A93099B0D93002304937EE712
:1049CC00169B05E7094A38B51568094C854201461E
:1049DC00236805D210602BB901F000F90346206062
:1049EC00184638BD184601F03DF9F7E718060020C7
:1049FC004006002010B5054C206828B101F014F9D0
:104A0C00034A00232360136010BD00BF4006002042
:104A1C001806002003463038C0B209280BD9602B89
:104A2C0084BF203BDBB2413BDBB2052B02D8024AF0
:104A3C00D05C704700207047E55704002DE9F04F1B
:104A4C00ADB006460593369B0B911B789DF8DCB0F8
:104A5C003A9F1546002B00F0A780536B04931BF074
:104A6C00020F40F0A4808388028801339B1A1BB28A
:104A7C000893049B6A8F1B7A13441BB207933388E9
:104A8C00ADF85030389BB6F90220ADF85220002B0F
:104A9C0000F00E82B3F900300E93389BB3F902305C
:104AAC00D118ADF85210002F00F00682002B40F008
:104ABC000382002A80F20082BB689B1A079A002BA3
:104ACC00B8BF5B42C2F50072B3EB420FC4BF4FF0EC
:104ADC00FF333B603C68002CC0F2EE81BDF85220E5
:104AEC007B681344ADF852303698CDF800B0089B73
:104AFC00B5F938200499204401F036F900EB04088C
:104B0C00079ABDF9523013440B9AB2F90220934222
:104B1C00369B61DB18191BF00403129300F08480A0
:104B2C00A8EB0401B5F93830049ACDF800B089B27D
:104B3C0001F0CAF8B388328801339B1A1BB2181AD9
:104B4C00BDF8503000EBD07003EB6000ADF85000B6
:104B5C0095F83C300993059BFF2B04D0099B059AD3
:104B6C0053431B0A0993399B002B73D01B88069364
:104B7C00399B5B880593DDE90523934201D9CDE987
:104B8C000532994918A805F0A4F92B6BCDE9193316
:104B9C0000230D930BF001031193369B23440C93CC
:104BAC00369B1B5D002B5AD12DB0BDE8F08F47F61C
:104BBC001843CDF808B00193B2F93A300093B2F92A
:104BCC0038303699049A18A806F06FFDBDF960309C
:104BDC004EE7389B0E936CE703EB0809B5F93820C8
:104BEC00089BCDF800B00499484601F0BDF8BDF81B
:104BFC005230079A13441BB24044ADF8523067B19F
:104C0C0013F5806F09DB3A68002ABFBFB6F90220A2
:104C1C00C7F800809B1AC7E9013299F80030444666
:104C2C00002BC1D080466BE71BF0080F90D0A8EB8F
:104C3C000401B5F93830049ACDF800B089B201F00E
:104C4C0043F8BDF85030B2880133134432889B1AB4
:104C5C00181A7BE74FF6FF73CDE9053391E7389BC4
:104C6C002BB1BDF850300E9A1344ADF850300027DC
:104C7C0015971599A8EB04038B423BD8369B0499E6
:104C8C00CDF800B003EB0804B5F93820089B20469A
:104C9C0001F06AF83388ADF85030129B014600EBF6
:104CAC000807002B00F0EF80B5F93830049ACDF8E6
:104CBC0000B0204601F008F8B388328801339B1A03
:104CCC001BB2181ABDF8503000EBD07003EB60002B
:104CDC00ADF85000BDF85230079A13440B9AB2F954
:104CEC0006201BB29A42ADF852304446FFF65CAF38
:104CFC00B84652E7069A4FF6FF739A4226D0059AA9
:104D0C009A4223D0394B36981B682144984783B27A
:104D1C00DFF8DC900C98D9F80020109315A9904777
:104D2C000C9B0A901598D9F8002000211844904744
:104D3C00DDE910310246002951D00A9923290DD101
:104D4C0037B9BDF854300D93119F92E70023DFE77C
:104D5C00012F4FD0022F4ED100278AE7012F3ED1D1
:104D6C000A9B202B85D1159B0D9A9B1A072B33D1AF
:104D7C00DDE90C310622591816A803F0B3FD9DF895
:104D8C005800FFF747FE01469DF85900FFF742FE19
:104D9C0000EB01119DF85A00FFF73CFE07469DF809
:104DAC005B00FFF737FE00EB07179DF85C00FFF781
:104DBC0031FE81469DF85D00FFF72CFE00EB0910DB
:104DCC0060F3070A67F30F2A61F3174A4AF07F4A28
:104DDC00CDF83CA002274CE7EB6A0F93FAE7022FC1
:104DEC0009D10F9908E000BFE803002028A100209A
:104DFC002CA100200027E96A109104980A991393BA
:104E0C0006F0D0FE069B4FF6FF7293420FFA80F924
:104E1C0023D0059B934220D0069B1A46139B9A42A3
:104E2C001BD8059A9A4218D9BDF95030298FADF884
:104E3C005830013B0B44BDF95220ADF85A204B447D
:104E4C00ADF85C30079B0B99013A1A44ADF85E2023
:104E5C00099B18AA16A805F0DAFA099B0193109B76
:104E6C000093049A0A9B0B9914A8FFF767FBB9F1FE
:104E7C00000F7FF7FEAEBDF850302A8F13449944D3
:104E8C00ADF85090F5E61BF0080F3FF423AFB5F9E1
:104E9C003830049ACDF800B0204600F015FFBDF86C
:104EAC005030B2880133134432889B1A181A0FE71A
:104EBC00002F7FF48EAE0E97002415E60438C0B296
:104ECC000A289ABF014B185C00207047EB5704006E
:104EDC002DE9F04F91B004460E4698469DF8687047
:104EEC00154692B9694B6A493422022001F038F810
:104EFC00FF23684A3146204605F089FACDE904556E
:104F0C00CDE902550195644B2BE002460CA806F046
:104F1C00C8F9002848D098F84590FF2F18BF09FB16
:104F2C0007F94146284618BF4FEA192900F07EFBC5
:104F3C00074600287AD0C369DBB1584B544940F27C
:104F4C003322022001F00CF8FF23524A314620464E
:104F5C0005F05DFA0023CDE90433CDE9023301936A
:104F6C00FB6900934B4AFF2331462046FFF766FD51
:104F7C001AE0027C02F01F02104606F0B0F807900F
:104F8C00104606F0B4F87A69089082B198F844306B
:104F9C000393D8F840300293079B0190009331465D
:104FAC004B46204605F089F811B0BDE8F08FBDF8EE
:104FBC003430BDF8302001339B1A0FFA83FA4FEAD4
:104FCC008A00FFF7FFFC0DF1380B082209900CA9A1
:104FDC00584603F087FC0121584606F04FF9BDF8FE
:104FEC0030202188BDF93250521A13B262880A93CC
:104FFC00AA1A12B2531B0B930B9B5A19BDF93630DC
:10500C00AB4212B2D0DB099B00930A995346384647
:10501C0006F098F801281CD0384606F0A3F8204B6F
:10502C001B4940F24E22022000F09AFF1B4B1849FC
:10503C003E22022000F094FFFF23164A3146204600
:10504C0005F0E5F90023CDE90433CDE902330193F2
:10505C0059E798F844300393D8F840300293089BF2
:10506C000193079B0093099A4B463146584605F02D
:10507C0024F8BDF83A300133ADF83A30BDF83E3083
:10508C0001350133ADF83E302DB2B5E7F6570400CB
:10509C0077580400980300200E580400165804009A
:1050AC00275804002DE9F0410A7B012A0C4608D14F
:1050BC003B4B40F2611202203A4900F051FF0020B4
:1050CC000BE00B7C03F01F031D1F022D07D8002AD9
:1050DC0044D14B689B6863610120BDE8F081DA1F05
:1050EC00032A53D81846FFF7E9FE236A0126074620
:1050FC00864083B9082000F071FD206230B92A4B3C
:10510C0028494FF4C072032000F02AFF0822002126
:10511C00206A03F011FC0420B840256A00F05EFD03
:10512C002860304600F05AFD2B68686003B130B936
:10513C001D4B1C494FF4C572032000F011FF237B5B
:10514C00012B03D1194B4FF4CE72B4E76368FF27E0
:10515C009A680023B34202F1040201D10023BAE79A
:10516C00286812F8048C12F802CC12F803EC00F840
:10517C00238000EB830181F801E081F802C0CF703D
:10518C00696812F8010CC8540133E3E70B3B032B9D
:10519C00E4D905F0C9FF064B40F2C1128BE700BF02
:1051AC005E590400A4590400E15904000A5A040091
:1051BC00545A040038B508460D46144605F0A4FFB1
:1051CC00C0B92B78C3F30403043BDBB20A2B10D811
:1051DC006B88628829685B0963F34F1262802368CD
:1051EC000C4A23F01F1323F47C430A40134323601F
:1051FC00012038BD022804D1236803F47872064BD1
:10520C00F4E70220054B064940F2311200F0A8FEEB
:10521C000020EEE71FFC1F000B042000385904008F
:10522C00A45904002DE9F043087C87B01E4600F019
:10523C001E03042B0D461446BDF93870DDF83C8076
:10524C0003D000F01F03062B0BD12B7B012B06D1B7
:10525C009D4B40F225229D49022000F081FE00204A
:10526C005CE0A3F10B02032A00F2A7804FF47F430A
:10527C00ADF80030A3F5AD03A3F528530193944B7F
:10528C0002AA03F1100E9146186859689446ACE8CE
:10529C000300083373456246F6D1AB68196C0023E2
:1052AC001AB2974216DC287C00F01F00FFF706FEAE
:1052BC002B7C4FF0010C0CFA00FC03F01F030CF1DB
:1052CC00FF3C0B3B1FFA8CFC032B56D8DFE803F09A
:1052DC0006293B4D48F823100133E1E72969C1F356
:1052EC008A21CB0849074FEAE40218BF0133E44393
:1052FC0003FB062304F007046E46297B00293FD1EB
:10530C006A6840B29268C0F1080E134408F10308B1
:10531C004FFA8EFE0AB2974236DC012007B0BDE888
:10532C00F0832969C1F38A218B088A074FEAA4020A
:10533C006FEA040418BF013304F0030403FB0623D3
:10534C00640001AED9E72B69C3F38A214B08C90766
:10535C004FEA640248BF013314F0010F03FB06232C
:10536C000CBF042400244E46C7E72B69C3F38A23E1
:10537C0016FB034300242646BFE700242346FAE726
:10538C00544B40F2792266E71A780CFA04F902EAD7
:10539C00090295F810902241D2B209F01F09241A83
:1053AC00B9F10E0F64B218BFB25C08F82120002CC2
:1053BC00BCBF744601330131ACE7073B032B7FD8EC
:1053CC0000F01F00FFF77AFD2B7C4FF0010C0CFA5C
:1053DC0000FC03F01F030CF1FF3C073B1FFA8CFC95
:1053EC00032B66D8DFE803F0023A4A5C2A69C2F361
:1053FC008A22D308520718BF0133E21003FB06239D
:10540C00E243083302F00702297B002954D16C686F
:10541C002E6AA46840B2C0F1080E2344A8F1040817
:10542C000D464FFA8EFE29B28F427FF776AF197870
:10543C000CFA02F4214011413468C9B2121A54F822
:10544C00214048F8044F746852B2002A615C88F815
:10545C000310BCBF724601330135E4E72A69C2F37D
:10546C008A229308910718BF0133A21003FB06236D
:10547C00E24302F0030210335200C5E72A69C2F37B
:10548C008A225308D20748BF0133621003FB06235C
:10549C0014F0010F03F140030CBF04220022B3E708
:1054AC002B69C3F38A2316FB034303F580630022A5
:1054BC00AAE700231A46A7E7074B40F2CE22CAE61A
:1054CC00064B40F2E712C6E65E590400A4590400EC
:1054DC00F0C100007D5A0400CC5A04001D5B04008E
:1054EC000B786FF347132DE9F04107460B700D480D
:1054FC00DFF830800E4605F0E3FF0024054615B9B1
:10550C002046BDE8F0812C6834B132463946284635
:10551C00A04701280446F3D02946404605F0D6FFA3
:10552C000546ECE7480600202DE9F047044682606A
:10553C0008460F4605F0E8FD00230128207323627E
:10554C001DD1384603F0BBF9013000F047FB39465A
:10555C00606003F089F91948DFF860A005F0B0FF2E
:10556C000026054604F11009B04655B926B9242287
:10557C003146204603F0E0F93046BDE8F08767601D
:10558C00E9E72B68A3B16A6892B14A4639462846C6
:10559C009847012806460BD1C4F81C80C4F8148027
:1055AC0025606B6821462846984701280646E3D0BB
:1055BC002946504605F08AFF0546D6E748060020E6
:1055CC0010B5054805F040FF044618B1142200211F
:1055DC0003F0B2F9204610BD4806002010B5142186
:1055EC000B4805F027FFFFF7EBFF38B9094B0A49C9
:1055FC0048220220BDE8104000F0B2BC074B03600B
:10560C00074B4360074B8360074BC36010BD00BF63
:10561C0048060020575B0400A4590400C151000047
:10562C00B15000003152000035B100004C4B2DE957
:10563C00F0471C8807468846994644B9494B4A4965
:10564C004422022000F08CFC2046BDE8F087474B3A
:10565C0047481D6800212B468AB294423ED800264A
:10566C004FF0280AB9F80010B3B299423FD805F1AF
:10567C0028022C460123994258D86368002B5ED02F
:10568C00204605F06FFD3B4B76223749012000F098
:10569C0067FC05F0BDFD00268146A66142463946F1
:1056AC002046FFF741FF054600284BD1324B2E49CF
:1056BC008122022000F054FC204605F053FD2422E8
:1056CC002946204603F038F920462822294603F0C3
:1056DC0033F94FF0004363622C46B5E75A6A8242B5
:1056EC00A4BF02F1FF325A6201312833B4E7B4B2DD
:1056FC000AFB0454606805F007FD50B96368BB42AF
:10570C000FD1636AA2691344B3F57A7F0BDC636231
:10571C009AE7012805D13946606803F0D7F80028CC
:10572C00EFD001369EE74FF47A73F0E7556A606A62
:10573C0001338542B8BF14469BB228329BE70F4B0E
:10574C007822A2E7A3696662002B7FF47DAF4846FE
:10575C0005F062FD08B1A06176E70123A36173E750
:10576C00044800207A5B0400A15B0400440600207E
:10577C0002000080DC5B04003E5C04000D5C040055
:10578C002DE9F843124B134FD3F800800646002541
:10579C004FF028093A88ABB29A4201D8BDE8F88399
:1057AC00ACB209FB04846368B34200D06EB913B188
:1057BC00204605F0D7FC24220021204603F0BCF83B
:1057CC0028220021204603F0B7F80135E2E700BF9C
:1057DC0044060020044800202DE9F041174C2368B2
:1057EC0005462BB10020FFF7CBFF206800F01CFA18
:1057FC00282707FB05F000F0F1F9DFF84480206062
:10580C0018B9A8F80000BDE8F081A8F800500025F0
:10581C00B8F80020ABB29A42F5D9AEB220687E43FC
:10582C0024220021304403F087F82068282200212C
:10583C00304403F081F80135EAE700BF440600204C
:10584C000448002070B50546284805F0FDFD0446C7
:10585C0010B90024204670BD2946242203F042F8DA
:10586C002022002104F5A07003F066F8204D4FF4BF
:10587C008072002104F1400003F05EF8382104F13D
:10588C00280005F0D7FD2B6803B92C60B4F8603103
:10589C002E682C606FF309030021A4F860310846D0
:1058AC00FEF77EF9002160630846FEF779F90021C6
:1058BC00A0630846FEF774F90E49E063A06B04F090
:1058CC0051F80C49E06B04F04DF8606B03F032FFBB
:1058DC0023460322322108482E6005F068FD6062E1
:1058EC000028B6D005F077FDB4E700BF34060020E1
:1058FC001C060020280500208D3F0000014B186875
:10590C00704700BF1C06002010B9064B186838B150
:10591C00037ADB0754BFB0F90000B0F902007047FE
:10592C00F02070471C06002010B9064B186838B1DF
:10593C00037ADB0754BFB0F90200B0F900007047DE
:10594C00F02070471C0600200146034809B905F0F9
:10595C00B7BD05F0BBBD00BF5406002008B514212F
:10596C00034805F067FD034B01221A7008BD00BF08
:10597C00640600208D8B002038B51A4805F0A0FD78
:10598C00014648B1174C0B7C03F00703032B0BD8D3
:10599C00144805F0BAFD02E0124805F055FD044626
:1059AC0060B90024204638BD204605F08FFD014625
:1059BC000028E8D10B4805F065FDF0E74FF4FA73C9
:1059CC000360037C23F00F0343F0030300250374EF
:1059DC00856005F01DFC044B60600122E5601A70C7
:1059EC00E0E700BF640600208E8B002010B5014656
:1059FC000446074805F0BAFD204600F015F9054BA2
:105A0C001B68A34202BF044B01221A7010BD00BFD9
:105A1C0064060020600600208F8B002038B50446F9
:105A2C00406805F0F9FB2368834217D805F0F0FBBA
:105A3C000B4D0C4A606000232B701370A36833B9B4
:105A4C00237C1B0708D52046FFF7D0FF04E0204637
:105A5C0098472B78002BF3D0012038BD0020FCE7B1
:105A6C008F8B00208E8B00202DE9F74F3E4D2C782C
:105A7C0034B901232B703D4B1B7823B900232B70B9
:105A8C0003B0BDE8F08F05F0C3FB394B394E1860FD
:105A9C000193A346384F394886F800B087F800B018
:105AAC0005F00EFDDFF8E480C8F80000C146D9F817
:105ABC000010B9B1314805F009FD8246D9F8000053
:105ACC00037C13F007020DD0A04203D1C9F800A04B
