:10000000600E002099170000494F00006D16000097
:100010006D1600006D1600006D1600006D160000D4
:100020006D1600006D1600006D16000065150000CD
:100030006D1600006D16000011150000394F00000C
:1000400059170000591700005917000059170000F0
:1000500059170000591700005917000059170000E0
:1000600059170000591700005917000059170000D0
:1000700059170000591700005917000059170000C0
:1000800059170000591700005917000059170000B0
:1000900059170000591700005917000059170000A0
:1000A0005917000059170000591700005917000090
:1000B0005917000059170000591700005917000080
:1000C0005917000059170000591700005917000070
:0C00D000591700005917000059170000D4
:0400DC00FFFFFFFF24
:1000E00081F0004102E000BF83F0004330B54FEAE9
:1000F00041044FEA430594EA050F08BF90EA020F56
:100100001FBF54EA000C55EA020C7FEA645C7FEAE8
:10011000655C00F0E2804FEA5454D4EB5555B8BF0B
:100120006D420CDD2C4480EA020281EA030382EA7C
:10013000000083EA010180EA020281EA0303362D0E
:1001400088BF30BD11F0004F4FEA01314FF4801CE1
:100150004CEA113102D0404261EB410113F0004FF3
:100160004FEA03334CEA133302D0524263EB4303AA
:1001700094EA050F00F0A780A4F10104D5F1200E48
:100180000DDB02FA0EFC22FA05F2801841F10001A3
:1001900003FA0EF2801843FA05F359410EE0A5F177
:1001A00020050EF1200E012A03FA0EFC28BF4CF0A8
:1001B000020C43FA05F3C01851EBE37101F000455E
:1001C00007D54FF0000EDCF1000C7EEB00006EEB6B
:1001D0000101B1F5801F1BD3B1F5001F0CD34908F5
:1001E0005FEA30004FEA3C0C04F101044FEA44524C
:1001F00012F5800F80F09A80BCF1004F08BF5FEAD3
:10020000500C50F1000041EB045141EA050130BDB2
:100210005FEA4C0C404141EB010111F4801FA4F155
:100220000104E9D191F0000F04BF01460020B1FAAA
:1002300081F308BF2033A3F10B03B3F120020CDAE2
:100240000C3208DD02F1140CC2F10C0201FA0CF0C0
:1002500021FA02F10CE002F11402D8BFC2F1200C25
:1002600001FA02F120FA0CFCDCBF41EA0C019040DB
:10027000E41AA2BF01EB0451294330BD6FEA040424
:100280001F3C1CDA0C340EDC04F11404C4F120020F
:1002900020FA04F001FA02F340EA030021FA04F321
:1002A00045EA030130BDC4F10C04C4F1200220FA78
:1002B00002F001FA04F340EA0300294630BD21FAB6
:1002C00004F0294630BD94F0000F83F4801306BF7C
:1002D00081F480110134013D4EE77FEA645C18BF70
:1002E0007FEA655C29D094EA050F08BF90EA020F07
:1002F00005D054EA000C04BF1946104630BD91EAFF
:10030000030F1EBF0021002030BD5FEA545C05D101
:100310004000494128BF41F0004130BD14F5800440
:100320003CBF01F5801130BD01F0004545F0FE41B4
:1003300041F470014FF0000030BD7FEA645C1ABFE9
:10034000194610467FEA655C1CBF0B46024650EA20
:10035000013406BF52EA033591EA030F41F400214C
:1003600030BD00BF90F0000F04BF0021704730B5D2
:100370004FF4806404F132044FF000054FF00001A7
:1003800050E700BF90F0000F04BF0021704730B568
:100390004FF4806404F1320410F0004548BF40423D
:1003A0004FF000013EE700BF42004FEAE2014FEA92
:1003B00031014FEA02701FBF12F07F4393F07F4F6D
:1003C00081F06051704732F07F4208BF704793F070
:1003D0007F4F04BF41F40021704730B54FF4607483
:1003E00001F0004521F000411CE700BF50EA010286
:1003F00008BF704730B54FF000050AE050EA01022F
:1004000008BF704730B511F0004502D5404261EB9E
:1004100041014FF4806404F132045FEA915C3FF4DF
:10042000D8AE4FF003025FEADC0C18BF03325FEA7C
:10043000DC0C18BF033202EBDC02C2F1200300FA2D
:1004400003FC20FA02F001FA03FE40EA0E0021FA52
:1004500002F11444BDE600BF70B54FF0FF0C4CF440
:10046000E06C1CEA11541DBF1CEA135594EA0C0FF2
:1004700095EA0C0F00F0DEF82C4481EA030621EA2D
:100480004C5123EA4C5350EA013518BF52EA033568
:1004900041F4801143F4801338D0A0FB02CE4FF01A
:1004A0000005E1FB02E506F00042E0FB03E54FF04A
:1004B0000006E1FB03569CF0000F18BF4EF0010E42
:1004C000A4F1FF04B6F5007F64F5407404D25FEA3E
:1004D0004E0E6D4146EB060642EAC62141EA5551F1
:1004E0004FEAC52040EA5E504FEACE2EB4F1FD0C33
:1004F00088BFBCF5E06F1ED8BEF1004F08BF5FEAB1
:10050000500E50F1000041EB045170BD06F0004662
:1005100046EA010140EA020081EA0301B4EB5C040F
:10052000C2BFD4EB0C0541EA045170BD41F4801107
:100530004FF0000E013C00F3AB8014F1360FDEBF2C
:10054000002001F0004170BDC4F10004203C35DA08
:100550000C341BDC04F11404C4F1200500FA05F38B
:1005600020FA04F001FA05F240EA020001F000422C
:1005700021F0004110EBD37021FA04F642EB0601A2
:100580005EEA430E08BF20EAD37070BDC4F10C04CC
:10059000C4F1200500FA04F320FA05F001FA04F290
:1005A00040EA020001F0004110EBD37041F100017C
:1005B0005EEA430E08BF20EAD37070BDC4F1200587
:1005C00000FA05F24EEA020E20FA04F301FA05F2EF
:1005D00043EA020321FA04F001F0004121FA04F297
:1005E00020EA020000EBD3705EEA430E08BF20EA67
:1005F000D37070BD94F0000F0FD101F000464000A1
:1006000041EB010111F4801F08BF013CF7D041EA22
:10061000060195F0000F18BF704703F00046520026
:1006200043EB030313F4801F08BF013DF7D043EAF7
:100630000603704794EA0C0F0CEA135518BF95EAAD
:100640000C0F0CD050EA410618BF52EA4306D1D134
:1006500081EA030101F000414FF0000070BD50EA53
:10066000410606BF1046194652EA430619D094EADD
:100670000C0F02D150EA013613D195EA0C0F05D1C7
:1006800052EA03361CBF104619460AD181EA03011B
:1006900001F0004141F0FE4141F470014FF00000D3
:1006A00070BD41F0FE4141F4780170BD70B54FF06E
:1006B000FF0C4CF4E06C1CEA11541DBF1CEA1355EE
:1006C00094EA0C0F95EA0C0F00F0A7F8A4EB0504D0
:1006D00081EA030E52EA03354FEA013100F08880C7
:1006E0004FEA03334FF0805545EA131343EA126390
:1006F0004FEA022245EA111545EA10654FEA002645
:100700000EF000419D4208BF964244F1FD0404F5FD
:10071000407402D25B084FEA3202B61A65EB030559
:100720005B084FEA32024FF480104FF4002CB6EB16
:10073000020E75EB030E22BFB61A754640EA0C0096
:100740005B084FEA3202B6EB020E75EB030E22BFD6
:10075000B61A754640EA5C005B084FEA3202B6EB17
:10076000020E75EB030E22BFB61A754640EA9C00D6
:100770005B084FEA3202B6EB020E75EB030E22BFA6
:10078000B61A754640EADC0055EA060E18D04FEA64
:10079000051545EA16754FEA06164FEAC30343EA04
:1007A00052734FEAC2025FEA1C1CC0D111F4801FD1
:1007B0000BD141EA00014FF000004FF0004CB6E7CA
:1007C00011F4801F04BF01430020B4F1FD0C88BF69
:1007D000BCF5E06F3FF6AFAEB5EB030C04BFB6EB74
:1007E000020C5FEA500C50F1000041EB045170BD67
:1007F0000EF0004E4EEA113114EB5C04C2BFD4EB94
:100800000C0541EA045170BD41F480114FF0000E17
:10081000013C90E645EA060E8DE60CEA135594EA93
:100820000C0F08BF95EA0C0F3FF43BAF94EA0C0F96
:100830000AD150EA01347FF434AF95EA0C0F7FF40B
:1008400025AF104619462CE795EA0C0F06D152EA5F
:1008500003353FF4FDAE1046194622E750EA410643
:1008600018BF52EA43067FF4C5AE50EA41047FF454
:100870000DAF52EA43057FF4EBAE12E753B94AB924
:10088000002908BF00281CBF4FF0FF314FF0FF3098
:1008900000F00CB8ADF1080C6DE904CE00F008F8DA
:1008A000DDF804E0DDE9022304B07047704700BFC3
:1008B0002DE9F04F099F154604468E461E46002B33
:1008C00040F0CC808A42B2FA82FC4CD9BCF1000FD5
:1008D0000BD0CCF1200801FA0CFE20FA08F802FA3D
:1008E0000CF548EA0E0E00FA0CF44FEA15491FFA0F
:1008F00085F8BEFBF9FA210C09FB1AE30AFB08FB99
:1009000041EA03439B452AD9EB180AF1FF3004D290
:100910009B4502D9AAF102002B44A3EB0B03A4B21E
:10092000B3FBF9F209FB123302FB08F844EA034473
:10093000A04516D92C1902F1FF3303D2A04501D9E5
:10094000931E2C44A4EB080443EA004027B124FA88
:100950000CF400233C607B603146BDE8F08F5046CC
:10096000DBE71346EEE702B9FFDEBCF1000F2ED144
:100970008B1A01264FEA154EAAB2B3FBFEF8210CE2
:100980000EFB183308FB02F941EA0343994561D98C
:10099000EB1808F1FF3004D2994502D9A8F1020002
:1009A0002B44A3EB0903A4B2B3FBFEF10EFB1133FE
:1009B0004A4344EA0344A2424ED92C1901F1FF33C1
:1009C00003D2A24201D98B1E2C44A41ABCE7CCF15D
:1009D000200E02FA0CF521FA0EF901FA0CF320FAB6
:1009E0000EFE4EEA03034FEA154800FA0CF4B9FB79
:1009F000F8F11FFA85FE08FB1192180C01FB0EF6A8
:100A000040EA0242964221D9AA1801F1FF3003D2EE
:100A1000964201D9881E2A44921B9BB2B2FBF8F978
:100A200008FB192209FB0EFE43EA02439E450FD93B
:100A3000EB1809F1FF3604D29E4502D9A9F102064E
:100A40002B44A3EB0E0346EA004693E70846E3E790
:100A50004E46F6E74046A4E70B46B6E78B4205D97B
:100A60000FB1C7E900010026304675E7B3FA83FCF1
:100A7000BCF1000F0FD18B4201D3824209D8841AF6
:100A800061EB030E0120002F6AD0C7E9004E00265B
:100A900062E76046F7E7CCF1200E03FA0CF322FA86
:100AA0000EF521FA0EF41D4301FA0CF320FA0EF1B3
:100AB0000B434FEA154A00FA0CF6B4FBFAF91FFA99
:100AC00085F80AFB19401C0C09FB08F144EA0044B4
:100AD000A14202FA0CF23FD92C1909F1FF3004D2DD
:100AE000A14202D9A9F102002C44641A9BB2B4FBC2
:100AF000FAF90AFB194409FB08F843EA044188455E
:100B00002CD9691809F1FF3304D2884502D9A9F11B
:100B10000203294443EA0040A1EB0801A0FB02893B
:100B20004945C2464C4602D306D1464504D2B8EBED
:100B3000020A69EB0504013897B1B6EB0A0361EBD1
:100B4000040606FA0EFE23FA0CF34EEA030326FA15
:100B50000CF6C7E900369AE74846C6E74B46D9E7A0
:100B60003E46F9E6000000002DE9F04F324BEE2240
:100B70008BB01A70314803F05BF9314B824618682C
:100B8000DAF8043003905B68002B49D02D4A03A9A2
:100B900050469847002843D125A5D5E90045DFF800
:100BA000B0B0DAF8043025219B685046984710B160
:100BB000584601F071FEDAF8043004AADB6803211C
:100BC000504698470598FFF7DDFB22462B46FFF776
:100BD0006DFD064604980F46FFF7D4FB02460B4610
:100BE00030463946FFF782FA064607980F46FFF768
:100BF000C9FB22462B46FFF759FD804606988946D9
:100C0000FFF7C0FB02460B4640464946FFF76EFA27
:100C10003246CDE900013B460B4801F03DFEC0E7FE
:100C20000A4801F039FE0BB0BDE8F08FAFF3008049
:100C30000000000080842E4100F00020445C000091
:100C4000305B0000550C0000635C00004C5C000051
:100C5000795C0000074A112108B51170436825210D
:100C60009B68984720B10448BDE8084001F014BED5
:100C700008BD00BF00F00020795C000030B5002204
:100C800087B00D490D4804F012FE0D4D0D490024AA
:100C90000E23CDE90243CDE90444CDE900440A4BDB
:100CA0004FF44072284603F069FD0849284604F0D5
:100CB000AAFD204607B030BDD10C0000BC040020C6
:100CC0000405002060070020A5100000955C0000CE
:100CD000014803F0CDBC00BF501D002008B500F056
:100CE00041FA094803F05DFF042328220748084918
:100CF00004F0B9FC074B084A1A604FF40040BDE805
:100D0000084000F0A5BA00BFB4040020E8040020A9
:100D1000A0170020401C0020E14B0000F8B50F4B4D
:100D2000BFF35B8F002553E8007F43E80052002AA1
:100D3000F9D1BFF35B8F0A4C0A4E361B3611B54210
:100D400000DBF8BD63685B792BB12368DB6813B106
:100D500039462046984701351034F0E7AC040020AE
:100D6000245B0000245B0000064BBFF35B8F53E85D
:100D7000002F013243E800210029F8D1BFF35B8F37
:100D8000704700BFAC040020094B4268C31A1B1116
:100D9000013310B513714368064C196001225A7172
:100DA000227812B9044803F063FC0123237010BDBC
:100DB000245B000058070020501D002070B5114B27
:100DC000BFF35B8F53E8005F6A1C43E800210029F2
:100DD000F8D1BFF35B8F2DB90B4C0C4E361B36117F
:100DE000B54200DB70BD237B43B123685B6903B16F
:100DF0009847042200212046FFF7C6FF0135103432
:100E0000EEE700BFB0040020245B0000245B00007C
:100E1000164B984237B5044602D3154B98421FD360
:100E2000002201A9134803F0A3F90546D8B901220D
:100E3000019BBFF35B8F53E8001F43E800200028AD
:100E4000F9D1BFF35B8F019821461F22043004F0D3
:100E50008AF8019C7E2384F8233084F824500434DB
:100E6000204603B030BD044CFAE700BF2059000013
:100E7000BC630000E80400209D5C000048B1054B05
:100E8000984205D3A03398422CBF00200120704720
:100E900000207047A01700202DE9F84F464B1B7823
:100EA000054603B960B34FF02003EFF3118683F3D7
:100EB0001188BFF36F8F414803F083FE044686F329
:100EC0001188BFF36F8F78B1BFF35B8F3C4B53E852
:100ED000002F013A43E800210029F8D1BFF35B8FCE
:100EE0008DB1204603F014FF25B9364B1B680BB1BA
:100EF000FFF714FF314803F062FE051C18BF0125FF
:100F00002846BDE8F88F304B1B78ABB9237ADB0756
:100F100012D403F010FF8146204603F0D9FE0146AB
:100F2000484603F061FE294B294ADFF8BCB09B1A02
:100F30000746C3F3C90A37B9264E274FBF1B3F11D7
:100F40004FF0000834E0B7FA87F6C6F11F063146C5
:100F5000204603F0C0FE214B9842024602D3204BAC
:100F6000984214D31046FFF789FF80B91D4B9A426F
:100F70000DD028F03F0343F0010363F307086AF341
:100F80008F1843464A463146584603F06EFE012309
:100F900003FA06F627EA0607CDE773685B7923B103
:100FA000336821461B683046984708F1010810361F
:100FB000B845F2DB95E700BF58070020B4040020D5
:100FC000A8040020AC04002059070020F45A0000B7
:100FD000DC5A0000245B0000245B00002059000064
:100FE000BC6300009D5C0000BB5C0000264B70B53C
:100FF0001B68418105469847244CE860BFF35B8F2E
:1010000054E8003F013344E80032002AF8D1BFF32E
:101010005B8F4FF02003EFF3118683F31188BFF34A
:101020006F8F1B48294603F0C0FD86F31188BFF37C
:101030006F8F184B1A787AB14FF02003EFF31184B9
:1010400083F31188BFF36F8F0020FFF725FF84F330
:101050001188BFF36F8F70BD0F492368096800299D
:10106000F9D0012B06D14FF47A710C48BDE87040DD
:1010700003F004BD0A2BEED1084804F024FC084814
:10108000BDE8704003F0F4BA401C0020A804002022
:10109000B40400205907002070050020BC04002083
:1010A000501D002008B5FFF789FE03F0DBFA0B4B5B
:1010B000186030B10A4B1B68092B02DD094803F0A8
:1010C000D7FA084C0020FFF7E7FE0028FAD14FF0CE
:1010D000FF31204603F0F2FAF4E700BF700500206C
:1010E000A8040020501D0020F8B50E4F3D7875B9BA
:1010F0000D4C0E4EFFF762FE361B3611B54207DB74
:101100000020FFF7C9FE0028FAD101233B70F8BD8B
:1011100063685B791BB1236820461B6998470135DA
:101120001034EBE759070020245B0000245B00002B
:1011300007B504380190BFF35B8F50E8003F5A1E9B
:1011400040E800210029F8D1BFF35B8F012B03D1C8
:1011500001A9034803F038F803B05DF804FB00BFB1
:10116000E804002020231A460149024804F07BBA13
:10117000401800207405002037B50023094D019365
:101180000120FFF789FE0446FFF7EEFD002201A9CA
:10119000284602F0EDFF08B1002CF1D1019803B010
:1011A00030BD00BF7405002007B5002201A9064824
:1011B000019202F0DDFF10B1FFF7DEFF0190019810
:1011C00003B05DF804FB00BF74050020F0B5047A9D
:1011D000467A85B014F0010401904FEA16160ED03D
:1011E000019B1A7A920704D55B69184C0393039B01
:1011F0002BBB01A9154802F0E7FF05B0F0BD002E9A
:10120000EED0254617E0294603F065FD0746FFF7B7
:1012100035FE78B13CB9019B3146186903F0E4FC16
:1012200004460028DCD024FA05F3DB0702D5384653
:10123000FFF77EFF0135AE420198E4D8D0E71D6884
:1012400003A9204602F0C0FF0395D0E774050020F3
:10125000084A10B50123084C13600021A04204D8AD
:1012600001B11360054B186010BD40085B000121FF
:10127000F4E700BF9405002040420F0090050020D5
:10128000164B07B51A6882B14FF08042D2F804239A
:10129000D1070AD500221A601B6811480093009BF1
:1012A0008368597A09B903F056FD0E4B1A688AB162
:1012B0004FF08042D2F8042392070BD500221A6027
:1012C0001B680193019B0648012103B05DF804EB04
:1012D00003F041BD03B05DF804FB00BF0001004016
:1012E000FC1C0020040100400D4B0022C3F84021EB
:1012F0004FF02002EFF3118182F31188BFF36F8F5B
:10130000084AD3F804051368C01A20F07F4003444C
:10131000136081F31188BFF36F8F03F035BB00BFFB
:1013200000100140B005002073B51C4802F080FD9C
:1013300080B343681A4D1B68012198470126002499
:101340004FF48033C5F80845C5F84065C5F8043347
:1013500003F1804303F58A534FF400321C601B688D
:101360000193019B0F4B3146C3F880211120224687
:1013700000F018F9112000F005F90B4B1E602E60EB
:10138000D5F80435334423F07F43C5F84035204673
:1013900002B070BD4FF0FF30FAE700BFF75C00000D
:1013A0000010014000E100E008100140F0B5254EBA
:1013B000B0F1FF3F08BF30464FF02003EFF3118537
:1013C00083F31188BFF36F8F1F49204BD1F8044579
:1013D0001B68E21A22F07F47120219D4421E22EA49
:1013E000E272B242A8BF3246781C1044B04294BFA9
:1013F00018189819041B24F07F4420F07F43022C16
:10140000C1F8403506D985F31188BFF36F8FF0BD61
:101410000022E9E7D1F804350D4AC31A23F07F43CF
:101420005C1E944205D90B4B4FF40032C3F80021E7
:10143000E9E7012B02BF023020F07F40C1F84005F0
:10144000E1E700BFFEFFFF0000100140B0050020F3
:10145000FEFF7F0000E100E04FF02002EFF3118378
:1014600082F31188BFF36F8F064AD2F80405064A4B
:101470001268801A20F07F4083F31188BFF36F8FCA
:10148000704700BF00100140B00500204FF020035E
:10149000EFF3118283F31188BFF36F8F0649074B77
:1014A0000868D3F8043582F31188BFF36F8F1B1AD5
:1014B00023F07F4318447047B0050020001001401E
:1014C00004488168406A884203D003494FF0805243
:1014D0000A6070471807002004ED00E0094A0A4935
:1014E000936809689966094958664B6843F08053C8
:1014F0004B60002383F31188BFF36F8F9368986E5E
:10150000704700BF180700202C5C000000ED00E0D1
:1015100012498A684FF028001044EFF3098C80E8E4
:10152000F01F202080F31188BFF36F8F0C4F4FF016
:1015300000664A6A8A603E60506E0023536680F3FC
:10154000118804B5104603F006FDBDE8044002F121
:10155000280090E8F01F8CF30988704718070020D6
:1015600004ED00E01EF0040F0CBFEFF30880EFF372
:101570000980816911F8021C0229FFD001B503F02E
:10158000DFFC01BD43B2002B08DB012200F01F008D
:1015900002FA00F05B09024A42F82300704700BFDC
:1015A00000E100E043B2002BA8BF03F1604301F16A
:1015B00001014FEA4111AEBF03F5614300F00F0096
:1015C000034BC9B2ACBF83F800131954704700BF76
:1015D00014ED00E073B51E460A9B00938C18099B1E
:1015E000054604F015F9A4F120030A4A23F0070385
:1015F00022F001029A61069A5A60079A9A60089A44
:10160000DA604FF080721E60DA61AB6400236B66B3
:1016100002B070BD8D4B0000F8B505460C4617466C
:101620001E4600F093FB0A4B3C4428469D6024F084
:10163000070403F090FC304684F30988002163B668
:1016400081F31188BFF36F8F0022002303F09EFA0D
:1016500018070020014910220A60704710ED00E0D1
:10166000404080F3118830BF704700BFEFF308801F
:10167000EFF30981724601B500F046FA01BD00BFE3
:1016800073B506460C46002938D001224FF00003FE
:1016900062F307031D4D1E4A1E48AD1AC5F3C90566
:1016A00065F38F13ADF80030D1E90123096803F029
:1016B000F4FA01224FF0000362F3070365F38F137E
:1016C000ADF80030D4E90423E168134803F0E5FAEB
:1016D00001234FF0000263F3070265F38F12E16903
:1016E0000E4803F0AEFA4FF00002012363F3070245
:1016F00065F38F12A1690A4803F0A3FA2146304628
:1017000002B0BDE8704002F0D5BB00BF045B000032
:10171000DC5A0000215D0000505D00007F5D00008C
:101720008E5D000030BFFFF7FDBF00BF08B5084B5E
:10173000084A23F07F039360BFF34F8FBFF36F8F8F
:1017400002F036FC02F03EFC00F0CEFA02F06CFC37
:101750000000000000ED00E001B572B60B4A106A0F
:1017600000281EBF0021116203F07BFF62B6EFF379
:101770000580A0F110004FEAC0000549014409C9E5
:101780009847BDE8014003490847000018070020BA
:1017900020590000C114000003F0DAFC202080F37F
:1017A000118808484FF40061401880F30988EFF36E
:1017B00014800221084380F31488BFF36F8FFFF772
:1017C000B5FF0000A00F002001234FF0000110B56D
:1017D00063F30701334C344B3448E41AC4F3C904AF
:1017E00064F38F1103F020FA314B9B6A9A0109D5FB
:1017F0004FF00001012363F3070164F38F112D48BB
:1018000003F012FA2A4B9B6ADB0109D54FF0000165
:10181000012363F3070164F38F11274803F004FAEF
:10182000234B9B6A180309D54FF00001012363F392
:10183000070164F38F11214803F0F6F91C4B9B6AF2
:10184000590309D54FF00001012363F3070164F345
:101850008F111B4803F0E8F9154B9B6A9A0309D5D1
:101860004FF00001012363F3070164F38F11154862
:1018700003F0DAF90E4B9B6ADB0309D54FF0000148
:10188000012363F3070164F38F110F4803F0CCF9D0
:10189000074A936A6FEA03436FEA13439362002097
:1018A00010BD00BF045B0000DC5A00001C5F00009C
:1018B00000ED00E0345F0000475F0000615F000062
:1018C0007F5F0000A45F0000BE5F0000F8B5012349
:1018D0000E464FF0000163F30701364C364BE41A15
:1018E000C4F3C90464F38F110746344803F09CF92C
:1018F000334B9B6AD90609D54FF00001012363F3EE
:10190000070164F38F112F4803F08EF92C4B9B6A6B
:101910001A0709D54FF00001012363F3070164F3AF
:101920008F11294803F080F9254DAB6A9B071CD520
:1019300001234FF0000163F3070164F38F11234883
:1019400003F072F9696BAB6A18060ED54FF000020E
:10195000012363F3070264F38F121D4803F071F94A
:101960001FB1AB6A23F08003AB62154B9B6ADA07A9
:1019700009D54FF00001012363F3070164F38F11D0
:10198000144803F051F90E4B9B6A9B0609D54FF0A2
:101990000001012363F3070164F38F110E4803F084
:1019A00043F9074B9A6A9A6A002042F0FF029A6252
:1019B0003070F8BD045B0000DC5A0000445E00009B
:1019C00000ED00E05A5E00008D5E0000A05E0000A9
:1019D000B85E0000CE5E0000ED5E0000F8B50123A9
:1019E0000E464FF0000163F307013C4C3C4BE41AF8
:1019F000C4F3C90464F38F1107463A4803F014F99D
:101A0000394B9B6AD90409D54FF00001012363F3D8
:101A1000070164F38F11354803F006F9324B9B6AD6
:101A20001A0509D54FF00001012363F3070164F3A0
:101A30008F112F4803F0F8F82B4DAB6A9B051CD58E
:101A400001234FF0000163F3070164F38F1129486C
:101A500003F0EAF8A96BAB6A18040ED54FF0000248
:101A6000012363F3070264F38F12234803F0E9F8BC
:101A70001FB1AB6A23F40043AB621B4B9B6A590551
:101A800009D54FF00001012363F3070164F38F11BF
:101A90001A4803F0C9F8144B9A6AD20511D54FF0D1
:101AA0000001012363F30701154864F38F1103F06C
:101AB000BBF80D4A936A002043F47F439362307071
:101AC000F8BD9B6A9B04F4D54FF00001012363F33A
:101AD000070164F38F110B48E9E700BF045B0000C6
:101AE000DC5A0000BC5D000000ED00E0D25D0000AB
:101AF0008D5E0000E35D0000FC5D0000115E0000F3
:101B00002C5E0000ED5E00002DE9F041644B5E6844
:101B10008AB0C6F30804002585F31188BFF36F8FE0
:101B200002F07F43B3F17F4F11D102F00C03082B79
:101B30000FD101234FF0000163F30701594A5A4BBB
:101B40005A489B1ADB0863F38F1103F06DF82F4698
:101B500004E012074EBF0F460746012500238DF80B
:101B60000730E31E092B7FD8DFE803F005696D4CD1
:101B70007E7E7E7E7E7101234FF0000163F30701BC
:101B8000494E484B4A48F61AC6F3C90666F38F1108
:101B900003F04AF8424BDC6A4FF0000814F00204EC
:101BA0008DF807800BD04FF00001012363F307018C
:101BB000404866F38F1103F037F8002425E0DB6A14
:101BC0005B0022D501234FF0000163F3070166F3A8
:101BD0008F11394803F028F8384B1B782BB10DF1E1
:101BE00007010120FFF772FE0EE0354B1B782BB189
:101BF0000DF107010120FFF7F1FE05E0314B1B88D5
:101C00009BB213B1FFF7E0FD04469DF807309BB986
:101C10002022394602A803F0D3F9099B002D3AD0BF
:101C2000C3F3080222B96FEA53236FEA43230993EF
:101C300002A92046FFF724FD0AB0BDE8F0810DF1AE
:101C400007010020CEE70DF107010020D3E70123B3
:101C50004FF0000163F30701124A134B1A489B1A15
:101C6000DB0863F38F11A6E701224FF0000362F354
:101C700007030D490B4A1548891AC90816F4F87F5D
:101C800061F38F13A4F11002114918BF01461148E6
:101C900002F0EBFF91E723F4FF7323F00103C6E7A3
:101CA00000ED00E0DC5A0000045B0000E95F00008A
:101CB000146000002B6000004C60000028ED00E084
:101CC00029ED00E02AED00E06B600000B660000046
:101CD000A1600000CF600000024A536943F0100386
:101CE0005361704700ED00E0044800232021C21832
:101CF0000133272B82F80013F9D1704700E100E08F
:101D000038B505464FF02003EFF3118483F31188B3
:101D1000BFF36F8F02F0DAFB0A4B9B68AB420BD12B
:101D2000094B5A68C2F3080212B92046FFF7D6FBE6
:101D30005A6842F080525A602046BDE8384003F0AD
:101D4000E1BC00BF1807002000ED00E01FB5084B04
:101D50000193084B0293084B039301AB0093074A8E
:101D6000074B0121684600F0B5F805B05DF804FBAB
:101D7000000000200000000000000B060000002012
:101D800000000120F8B52E4F0E460021B14222DAA4
:101D900050F821C0DCF80440002C4FD0EBB104F126
:101DA000FF3E14EA0E0F06D11F2C04D9DCF80050B8
:101DB0001EEA050F11D001234FF0000263F3070262
:101DC0002048214B1B1ADB08204863F38F1202F0D6
:101DD00038FF6FF015021046F8BD202CD5B2DCF8A4
:101DE0000020DCF808C01AD9B4F1004F19D8013C22
:101DF000B4FA84F4C4F11F046400072D4CEA04040F
:101E000011D901234FF0000263F307020D490E4B75
:101E10000F485B1ADB0863F38F122946D7E70824C3
:101E2000EBE73E24E9E722F01F022A4342F01002CA
:101E300044F00104BD60FA603C616A1C0131A5E711
:101E400090ED00E0DC5A0000FC5A0000E660000063
:101E500009610000034B05225A60BFF34F8FBFF3A7
:101E60006F8F704790ED00E0BFF35F8F014B002252
:101E70005A60704790ED00E013490868082810B5D3
:101E80001ED8FFF7F1FF114C49680022904201F182
:101E90000C0105D10E4B1870FFF7DCFF002010BDC0
:101EA000A26051F80C3C23F01F03134343F01003CE
:101EB000E36051F8043C43F0010323610132E5E79C
:101EC0004FF0FF30EBE700BF7C5B000090ED00E0DF
:101ED0005A07002010B5034C01232278FFF752FF68
:101EE000207010BD5A07002008B5084A0023127858
:101EF000FFF748FF10F1160F03D0054B002207280B
:101F000000DD08BD98601A610130F8E75A0700202B
:101F100090ED00E02DE9F04F9FB01E4600230190A8
:101F200004910093134613F8010B059358B125282B
:101F300000F085800499019B9847013040F00D84A2
:101F40004FF0FF33009300981FB0BDE8F08F232CB3
:101F50006CD061D8002CF6D0202C0A9B08BF01233E
:101F60000A93CDF81480DDF81480B94818F8014BB5
:101F7000214603F00BF80028E9D12A2C66D156F847
:101F8000043B0793002BBFBF5B42079301230B93D6
:101F9000059B98F8004003F102082E2C7CD198F89C
:101FA00000302A2B75D156F8045B08F1010818F8A7
:101FB000014BA8482146274602F0E8FF00286ED0D2
:101FC0004346682F13F8014B059307D1682C05D1C0
:101FD00008F1020398F8014005934827672C7CD844
:101FE000652C80F03981472C5DD8452C80F03481F8
:101FF000002CA8D0252C00F0AC830499019B25204F
:10200000984701309CD00499019B204698470130A5
:1020100096D0009B0233A2E32D2C0AD0302C0BD09B
:102020002B2C099B08BF012309939AE701230693F0
:1020300097E701230B9394E70123089391E700238B
:102040000893CDE909330B9306938CE7A4F1300391
:10205000092B0790A1D80A22DDF8148018F8014B4B
:10206000A4F13003092B98D8079BCDF8148002FB0C
:102070000344A4F130030793EEE701FB0535303D3F
:102080009046424612F8013BA3F130000928F4D9EA
:102090008DE700250A21F4E74FF0FF3589E7CDF8F9
:1020A000148007469AE7632C5AD020D8582CA4D124
:1020B0006F2C06F10409316840F01C83069B002B4D
:1020C00000F00A8330238DF85C30002940F00F8344
:1020D0008DF85D108846012626E0702C00F0E7821E
:1020E00028D86E2C00F0D082E2D8692C85D13468D3
:1020F000002C06F1040980F29C802D238DF85C30C1
:1021000061420DF15D0630460A2202F0A5FF099BEF
:10211000064417A8361A002B40F024830A9B002B94
:1021200040F020834FEAD478002D22DA00252F4694
:10213000AA46E5E0752CBBD0782CB9D0732C7FF47F
:102140005CAFB146002D59F8043BB8BF6FF00045B5
:102150000026B54240F0BB822E460025A84609E085
:10216000B1464FF0000859F8043B8DF85C30012669
:10217000454617AB05EB08020025921B2F46AA46E1
:1021800022EAE27291190691079990190C1A0B999B
:1021900011B9002C00F3048303EB080B5B4540F0FE
:1021A000018312F1FF3280F00D83A6EB0806BAF12D
:1021B000000F11D09BF800000BEB0608A0F13003D4
:1021C000092BA8EB0B0640F20883D04618F1FF3824
:1021D00080F00C83A6EB0A06AFB10BEB06081BF8E8
:1021E00001AB0499019B5046984701303FF4A8AEDB
:1021F000BAF12E0FA8EB0B06F1D1B846B8F1000FDB
:1022000000F3FD82F61B95B19BF800000BEB06086E
:10221000A0F13003092BA8EB0B0640F2FB822E281D
:1022200000F0F8822F46002F00F3FD82761B5E44FB
:102230000CE3099B23B12B238DF85C30214660E72A
:102240000A9B0BB12023F7E7214617AE5BE700BFDF
:102250002F6100003561000006F1070929F0070928
:10226000F9E80223D80240EA5250D60220F000409A
:1022700002960390DDE90267002AC3F30A5173F165
:102280000003CDE9126743DA2D238DF85C300DF1A0
:102290005D0740F2FF73994255D1DDE902231343F4
:1022A000A4F1410407F1030B42D1192C3AD8492378
:1022B0003B704E237B704623002517AEBB70FD702C
:1022C000ABEB060B2F46AA46099B002B40F0D981A9
:1022D0000A9B002B40F0D5819DF85C80A8F12D036E
:1022E000D3F1000848EB03081EAB4344BB4413F88A
:1022F0001C3C303B0BEB0A06092B2E4400F23782C4
:10230000089B002B00F03682079B9A1B17AB37E720
:10231000099B0BB12B23B8E70A9B0BB12023B4E731
:1023200017AFB6E769233B706E237B706623C3E764
:10233000192C99BF4E2341226E23612294BF3B701A
:102340003B707A70B8E7029B03980B430C93CB1752
:1023500003430D93DDE90C23462C08BF6624134389
:1023600000F0FF80002900F09F80139B43F00043A2
:10237000A1F2FE381393002618F1020FC0F2A880D4
:102380006FF0004A4FF0000BB8F1000F00F3CC8063
:1023900012A808F1010802F081FEB8F1040FF7D18C
:1023A000002D04F0DF03B8BF0625472B40F0E18085
:1023B000F21C02DBAE4240F3D780023CE4B2002DB7
:1023C00000F0DD80069B013D002B40F0D880002D01
:1023D000D4BF4FF000084FF00108662C40F0D180C8
:1023E00016EB050A40F1D5801023119366244FF0B7
:1023F000000A00224FF00063CDE914231AF1FF3ADE
:1024000080F0C980129B149A15999B18139A41EB7E
:102410000202CDE9123202F070430E9300230F93B3
:10242000DDE90E23134306D012A802F049FE12A8DC
:1024300002F034FE0136662C40F0C780002E40F3D7
:10244000B180119B002B07DD11A912A802F064FED8
:10245000013E07F8010BF4D1B246BB460026069BAD
:1024600013B9002D40F3AF802E230BF8013B002E53
:1024700000F0A780002D40F3A6807742AF42A8BFAE
:102480002F46ED1B002D03DD119B002B00F39180E7
:10249000B8F1000F40F0AF80002317AE8BF800308A
:1024A000ABEB060B10E70139029BDB180293039B91
:1024B0005B410393DDE90223002A73F10003F2DAA2
:1024C000DDE90223CDE912234FE712A802F0E6FD71
:1024D000DDE9122C4FF0000BB9480021594508BF27
:1024E000604508F10108F0D30520A2FB002300FBA2
:1024F0000C33CDE91223DC46013E6FF0004A4FF069
:10250000000B00218B4508BF9A4506D2BCF1000F95
:102510003FF432AFCDE912232EE792185B4108F168
:10252000FF384FF0010CECE712A802F0C9FDDDE91D
:10253000121008F1FF3801364FF0000C00239B45C4
:1025400008BF824506D2BCF1000F3FF41DAFCDE9B4
:10255000121019E74918404108F1FF384FF0010CFB
:10256000ECE70026B04613E7069BAD1B23B96624B3
:102570002DE74FF0000830E74FF0000830E74FF04C
:10258000000805F1010A10239A451193A8BF9A4645
:102590002FE76624F7E714A802F092FD14A802F0D2
:1025A0007DFD2BE7BB4630230BF8013B4FF0000AC3
:1025B00055E711A912A802F0AFFD013D0BF8010B80
:1025C00060E737465EE7002762E711A912A802F02C
:1025D000A3FD069B3870302818BF06F1FF36002B8C
:1025E0003BD1002D39DC07F1010BB8F1000F45D0CC
:1025F0004FF0000A57465B461BF8012D302AFAD0EF
:102600002E2A18BF9B46002504F0DF03452B7FF4DC
:1026100043AF002E5A46BABF76422D232B23632E9A
:1026200002F8024B8BF801300ADD642196FBF1F3CE
:1026300003F130000BF103028BF8020001FB13667B
:102640000A21934696FBF1F301FB136603F1300078
:1026500030360BF8020B56701EE72E2307F1020BE3
:102660007B70002DC1DD119B002BBEDD11A912A8CE
:1026700002F052FD013D0BF8010BF2E7C24647465E
:10268000C2E74FF001082FE6B146682F59F8043B26
:1026900005D001DC482F07D0009A1A6001E0009AAB
:1026A0001A804E46059A3DE4009A1A70F9E7B14641
:1026B00047F63003102259F8041BADF85C300DF1D9
:1026C0005E0002F0C9FC4FF00208861C2CE59A5D02
:1026D000002A4AD001363CE517AC0822204602F019
:1026E000BBFC17AEA61B06444FF000081CE50DF11D
:1026F0005D04F2E7752C05D10A2217A802F0ACFCA4
:102700000646F1E7069B93B147F63003ADF85C301F
:102710000DF15E071022384602F09EFC582C08D0BE
:1027200017AE069BBE1B06444FEA4308FCE417AFF6
:10273000F0E717AA12F8013BA3F16101192903D8A8
:10274000203B02F8013CF5E712F8013C002BF1D1E7
:10275000E6E704992046FFF7EEBB009B01330093A8
:10276000B1469EE74FF00108DEE41546F6E417ABEC
:10277000002207E517AB089A04E5CDE90732049972
:10278000019B202098470130DDE907323FF4D8ABA8
:102790001BF1FF3BF1D20099214400915C46FBE420
:1027A000A346F5E713F8010B07930499019B0892E0
:1027B00098470130DDE907327FF4F0ACFFF7C0BB8A
:1027C000323333330499019B07923020984701300C
:1027D000079A7FF4E6ACFFF7B3BB0499019B9847D7
:1027E00001303FF4ADAB1BF8010FE7E40499019B06
:1027F0003020984701307FF4E9ACFFF7A1BB049982
:10280000019B30209847013008F1FF387FF4F6AC87
:10281000FFF796BB0499019B984701303FF490ABBA
:102820001BF8010FF4E40499019B30209847013014
:1028300007F1FF377FF4F7ACFFF782BB04991BF871
:10284000010B019B984701303FF47AABA6EB0B03D9
:10285000002BF3DC009B069A002C134400937FF7B7
:1028600020AF254606E00499019B202098470130BF
:102870003FF466AB15F1FF35F5D2009B234400937E
:102880000FE700BF022902D1024B1B6818474FF027
:10289000FF307047441C00200FB407B504AB022181
:1028A00053F8042B04480193FFF734FB03B05DF8A1
:1028B00004EB04B0704700BF4D5100004FF02003FF
:1028C000EFF3118283F31188BFF36F8F0649012361
:1028D000C1F840354FF08041C1F8783582F3118856
:1028E000BFF36F8F0020704700E0014020B1034B21
:1028F000800143F001031847704700BF405B0000B0
:1029000008B5094B1A786AB901211970062005210A
:10291000FEF748FE0620FEF735FE044B4FF000425E
:10292000C3F80423002008BD5B07002000600040BE
:1029300073B50368554D9B688268D5F804431879D0
:1029400001F01F0343EA4013E4B2002000F5A27631
:1029500055F82660C6F30426B34275D124FA00F672
:10296000F60771D5840004F1804404F5C044D4F81E
:10297000106526F00106C4F81065012404FA00F081
:10298000C5F808039C0004F1A044D4F8000720F423
:102990004030C4F800079068C84010F0010051D0E2
:1029A000D068C84010F001004CD05069C84010F009
:1029B000010056D09069C840C0074AD41069D26956
:1029C000C84022FA01F100F0010001F00101884243
:1029D00014BF012102212D4D002404F5A27255F8E7
:1029E000220010F0030036D1A20002F1804202F56D
:1029F000C0421B02D2F8106503F4F85343EA0141C8
:102A000026F4473604F1400326F440769B00C2F8D2
:102A100010659BB2D2F8106503F1804303F5C04303
:102A20003143C2F8101518601B680193019BD2F85E
:102A3000103543F00103C2F81035012303FA04F402
:102A4000C5F8044302B070BD013008287FF47EAFA2
:102A500098E70321BFE70134082CBED16FF01200C4
:102A6000F0E71369D269534023FA01F1D4F8003733
:102A700011F0010F23F4403314BF4FF400324FF430
:102A800040321343C4F80037DCE700BF0060004069
:102A90002DE9F34153490D68002D67D0524B9A68D8
:102AA0001B689E68D2E902030340D2E90504204373
:102AB00023EA00033068D4691269D0F81005544045
:102AC000444023EA040401200027002B38D10B6086
:102AD0000B680093009B4548002301261F46D0F851
:102AE000042306FA03F1114213D09A0002F1804246
:102AF00002F5C242116861B103F5A27150F82110CC
:102B0000176012680192C1F3042106FA01F1019ADB
:102B10000C430133082BE2D154BB75B1324B996899
:102B20001B689E68D1E902231340D1E905200243C6
:102B300023EA0203012400258BBB02B0BDE8F0812B
:102B4000034210D096F804C007F01F0242EA4C126C
:102B5000920002F1A04223EA0003D2F800C72CF44D
:102B6000403CC2F800C701374000AEE72C46B2E750
:102B70001D4FD7F80880D8F800100029CDD00E6876
:102B8000D8F80C308A682340134203D04B682246A1
:102B900038469847002EC0D031463668F0E71C42D0
:102BA0001CD03079CF6905F01F0242EA4012086953
:102BB0009200784002F1A042E84010F0010FD2F8F4
:102BC000000718BF4FF4003720F4403008BF4FF41F
:102BD00040373843C2F8000723EA04030135640094
:102BE000AAE700BF7C610040201D0020006000407B
:102BF00010B50446002201210420FEF7D3FC23680F
:102C00000F4A9868234600F1080100F0C5FF0D4BFC
:102C1000984212D001234FF0000263F307020A49E1
:102C20000A4B0B485B1ADB0863F38F1223681968A1
:102C300002F007F86FF00F0010BD0020FCE700BFA6
:102C4000B92D00000000AD0BDC5A0000EC5A00006A
:102C50009961000008B50368CA079B6813D4C1F3E3
:102C60004202012A12D0022A19D001234FF000019A
:102C700063F307010C4A0D4B0D489B1ADB0863F305
:102C80008F1101F0D1FF6FF0150007E01B684FF0C6
:102C9000CC72C3F8242583680020596208BD1B68E4
:102CA0004FF0CD62F5E700BFDC5A0000EC5A00009F
:102CB000536100002DE9F04F054687B00C461746DA
:102CC000994680684FF0FF3101F0F8FC2B68DFF87F
:102CD000E480986800F0A4FF0026BE4201D30024DF
:102CE0002EE094F808B01BF0080A58D11222514681
:102CF0000DF1060002F08EF9626802920BF00103FA
:102D000022688DF804301BF0020F8DF805900492B4
:102D100021D17A1EB24202D9227D52071DD5002B45
:102D20003DD120222B6801A9986800F0A3FF4045FF
:102D300015D01C4B98420CBF6FF00F046FF00404C9
:102D40002B68986800F07CFFA86801F091FC204691
:102D500007B0BDE8F08F5246E4E74022E2E7A868FA
:102D600010304FF0FF3101F0A9FCAB68196A414502
:102D700004F10C0411D001224FF0000362F30703A9
:102D800009480A4A121AD20862F38F1308483246D9
:102D900001F06BFF6FF00404D2E701369DE76FF09E
:102DA0002204CDE70B00AD0BDC5A0000EC5A00000A
:102DB000656100000000AD0B02788B68012A0AD023
:102DC0001AB1022A09D0064A00E0064A1A6203F143
:102DD000100001F04DBC044AF8E7044AF6E700BFD2
:102DE0000100AD0B0000AD0B0100AE0B0200AE0BFD
:102DF00010B50446002201210320FEF7D3FB23680F
:102E0000104A9868234600F1080100F085FC0E4B3B
:102E1000984212D001234FF0000263F307020B49DE
:102E20000B4B0C485B1ADB0863F38F12236819689D
:102E300001F007FF6FF00F0010BDA06802F0F1FA7B
:102E40000020F9E7D92E00000000AD0BDC5A00008D
:102E50001C5B00009961000030B58568EA6B6B6C03
:102E600085B082B97BBB1C4600221146284602F081
:102E7000AEFA6C6205F1140001F0FAFB002385F84C
:102E80004C3005B030BD114613B19A4228BF1946E7
:102E9000AC6BA9640094C4B1002A18BF0A46019221
:102EA0002A6C02929AB1002B18BF0B460393036859
:102EB00000229868694600F0D5FC064B9842E0D0A5
:102EC0006FF00404D0E71946E2E72246E7E713462D
:102ED000ECE700BF0000AD0B38B503780D46002BC2
:102EE00057D18C68E36B83B1A26C9A4225D9012338
:102EF0004FF0000163F30701264A274B27489B1A2E
:102F0000DB0863F38F1101F08FFE636C83B1A26C59
:102F10009A4228D901234FF0000163F307011D4AAB
:102F20001D4B1E489B1ADB0863F38F1101F07CFEDA
:102F30002846BDE83840FFF78FBF9B1AE36363B9AB
:102F4000E36A013BE36263B1A36A03F10802A26290
:102F50009A68DB68A263E363D7E7A36B002BD4D046
:102F60001344A363D1E79B1A636463B9636B013BAA
:102F7000636363B1236B03F1080222639A68DB6821
:102F800022646364D4E7236C002BD1D01344236400
:102F9000CEE738BDDC5A00001C5B0000B9610000C0
:102FA0002DE9F04707468068884616461D460430DE
:102FB0004FF0FF3101F082FBBC682368984500F0B8
:102FC000B080B8F804303868D90716D501234FF01F
:102FD000000263F307028049804B5B1ADB0801683B
:102FE0007F4863F38F1201F02CFE6FF01505201D52
:102FF00001F03EFB2846BDE8F0871A070ED50123F5
:103000004FF0000163F30701734A744B75489B1A34
:10301000DB0863F38F1101F007FEE6E713F4C051FC
:103020000CD001234FF0000163F307016A4A6B4B98
:103030006D489B1ADB0863F38F11ECE7C3F345136C
:10304000082B0CD001234FF0000163F30701624A03
:10305000624B66489B1ADB0863F38F11DBE7D8F8F5
:103060000020634B9A420CD801234FF0000163F318
:103070000701594A594B5F489B1ADB0863F38F11CC
:10308000C9E7D8F80830D0F80890C4F80080002BC1
:103090006FD0186800286CD05A684368D3F800A035
:1030A0000123D04722689368B2F90420D243D20F9B
:1030B000D3E9000102F082F9B8F80430D9F8001021
:1030C000980703F0040263D5002A14BF03220222EA
:1030D000022AC3F300135FD0032A60D0012A01D172
:1030E00043F00203C1F85435434AD8F80030934204
:1030F00058D9424A934258D9414A934258D9414AF1
:10310000934258D9404A934258D902F5741202F5B5
:103110001062934294BF4FF080434FF00043C1F8D8
:103120002435012384F84C30002E4AD0336872686D
:10313000A362E2621A685B68A263E363002D45D074
:103140002B686A68236362631A685B68226463643D
:10315000002262620121204602F039F93846FFF769
:103160007BFE4FF0FF3104F1140001F0A7FA656A0D
:103170003DE703234FF0000163F30701164A174BA5
:1031800022489B1ADB0863F38F1101F04DFD93E792
:10319000003218BF01229BE743F00403A2E743F08B
:1031A00006039FE74FF00073B9E74FF08063B6E77F
:1031B0004FF00063B3E74FF08053B0E74FF0005398
:1031C000ADE7C4E90A66C4E90E66B7E7C4E90C5581
:1031D000C4E91055BCE700BFDC5A00001C5B0000CE
:1031E000D7610000F9610000186200003B62000036
:1031F00047E801006A6200008FD003001FA10700AA
:103200003F420F007F841E00FF083D009B620000CC
:1032100070B5856898B00DF1070328680293012303
:10322000039308AB059340230024069307238DF8EE
:1032300007408DF810408DF81C30436802225E680C
:1032400002A91523B047A04216DB9DF823300C4994
:1032500003F00F029DF824300B7043EA0223AB8089
:103260009DF8253003F00F029DF8263043EA022333
:10327000EB80204618B070BD6FF00400FAE700BF85
:1032800000F0002010B50C4643685B6913B11C22A6
:1032900000219847044BAA221A7004F59060BDE8FB
:1032A000104001F0E5B900BF05F000202DE9F04F16
:1032B000394C85682368013380469BB02360A86839
:1032C00043680A221E6800210123B047A8684368AA
:1032D0005E6800230A221946B047A8684368DFF8F1
:1032E000C8B05E680A2201230021B0472368019418
:1032F000C82BC4BF224600234FF0AA09C8BF1360E1
:10330000CA468BF800A04FF0FF3105F28C4001F067
:10331000D5F9224BD8F8086083F800900DF10F031F
:1033200030680493012305930AAB079340230027D9
:10333000089307238DF80F708DF818708DF82430DE
:1033400043685B6802221C4604A91523A047B842C3
:1033500004DA019B1A78124B1A70D2E79DF82B30D1
:10336000104903F00F029DF82C300B7043EA022342
:10337000B3809DF82D30B06803F00F029DF82E3019
:1033800043EA0223F38043681B69002BE1D01C222F
:1033900039469847DDE700BFD405002007F000203C
:1033A0000AF0002005F0002008F000202DE9F0438D
:1033B0002C4B2D4EDFF8C090856800241C7087B020
:1033C000347080469C70DC701C7189F8004027487E
:1033D00000F02EFDA86000283FD0436821461F68FA
:1033E0001C221623B8471C2789F80070204BA868B8
:1033F0002B614FF080536B614368DB6805F10C0172
:1034000033B9EE2333706FF0040007B0BDE8F083EA
:10341000012298470028F4DB4FF0FF32214605F2E5
:103420008C4002F0E9F96FF00503CDE90243CDE9E4
:103430000444CDE900840F4B4FF4806205F1200174
:1034400005F5846001F09AF9A86843681B693BB1EF
:103450003A46214698472046D7E76FF01500D4E753
:103460001846D2E705F0002006F000204C6100006D
:1034700085320000AD3200000AF00020044B1868CD
:10348000421C04BF034B1878831F584258417047B1
:1034900030010010E00F00F0074B1B78062B09D11C
:1034A000064B1B68C3F30313033B032B02D8044AE8
:1034B000D05C704700207047E00F00F0E80F00F08C
:1034C000D462000008B5FFF7D9FF28B17C4B7D4AD4
:1034D0001B68C3F304231360FFF7DEFF10B17A4BC0
:1034E0007A4A1A60FFF7CAFF28B1794B794A1B68FC
:1034F000C3F342331360FFF7CFFF20B1764AD3689E
:1035000023F08073D360FFF7B9FF40B14FF08043E1
:103510000022C3F80C21C3F81021C3F83825FFF7A7
:10352000BBFF10B16D4B03221A60FFF7B5FF40B12E
:103530006B4B05221A6001229A6700229A603F2293
:103540005A60684B1A68511C0BBF674B674B1A785F
:103550001B6802BF08331B68C3F30313062A4DD14F
:10356000033B032B03D8624AD35C002B46D04FF0B9
:103570008052604BD2F80414C3F82015D2F8081416
:10358000C3F82415D2F80C14C3F82815D2F8101477
:10359000C3F82C15D2F81414C3F83015D2F8181447
:1035A000C3F83415D2F81C14C3F84015D2F820140F
:1035B000C3F84415D2F82414C3F84815D2F82814D7
:1035C000C3F84C15D2F82C14C3F85015D2F83014A7
:1035D000C3F85415D2F83414C3F86015D2F838146F
:1035E000C3F86415D2F83C14C3F86815D2F8401437
:1035F000C3F86C15D2F84424C3F87025FFF73EFFDA
:1036000028B13D4B3D4A1B6803F04F031360FFF7A1
:1036100035FF48B14FF08043D3F80024D20744BFB0
:103620006FF00102C3F800242E4B1B68062B09D152
:103630002E4B1B68033B022B81BF314A136843F4B6
:10364000806313604FF01023D3F80022002A03DBBD
:10365000D3F80432002B2FDA2A4B0122C3F80425B9
:10366000D3F80024002AFBD04FF010221521C2F815
:103670000012D3F80024002AFBD04FF010231522AB
:10368000C3F804221F4B1A46D3F800140029FBD0BC
:103690000021C3F80415D2F80034002BFBD0BFF38F
:1036A0004F8F1949194BCA6802F4E0621343CB608B
:1036B000BFF34F8F00BFFDE7154B164A1A6008BDD8
:1036C000240300104035014074C007400DF0ADBA2E
:1036D000440200103C050040F0ED00E0A005004071
:1036E0001056004030010010E00F00F034010010CF
:1036F000D862000000C0004058020010E40E0040F4
:103700003C17004000E0014000ED00E00400FA0535
:10371000C01C00200090D0032DE9F04704794E4DE5
:103720002C266643AF1997F81CC0BCF1000F40F07F
:103730009180AA517B6091F800E00F7B4FF0A0468A
:10374000012303FA0EF3012F94BFC6F80C35C6F817
:1037500008350EF5E0734FF0010C46F823C04B78A6
:10376000FF2B1FBF0CFA03FCC6F80CC503F5E07C69
:103770004FF0030818BF46F82C808E7808BF4FF032
:10378000FF33FF2E1FBF91F80E9006F5E07C4FF03F
:10379000A04A4FEA890918BF4AF82C904FF02C0C28
:1037A0000CFB045C18BFB0468CF81F60CE7808BFD5
:1037B0004FF0FF38FF2E0DD04FF0A0494FF0010C15
:1037C0000CFA06FCC9F808C506F5E07C4FF0030AC0
:1037D00049F82CA04FF02C0C0CFB045C8CF81E60FC
:1037E0000068C0F808E5C0F80C358B68C0F8108593
:1037F000C0F824354B7B003318BF0123022F23D0A0
:10380000032F24D0012F01D143F00203C0F8543517
:103810002C2303FB0453497983F8201012B10423AD
:10382000C0F804330123C0F800351AB140F3073063
:10383000FDF7A8FE2C2303FB0454002363770748FD
:1038400001232377BDE8F08743F00403DEE743F06C
:103850000603DBE70248F5E7D80500200000AD0BC2
:103860000500AD0B2DE9F7430679424D2C23734338
:103870009646EA180F46517F8146002978D155F8BF
:1038800003C0BCF1000F01D00123537797E80F006C
:103890002C2404FB065404F10C0888E80F00A27FD6
:1038A0000023FF2A84F828301FBF012393404FF0E4
:1038B000A042C2F80C352C23BEF1000F07D003FB49
:1038C000065300222C485A7703B0BDE8F083D9F89C
:1038D00000400422C4F8082303FB0653C4F808E19F
:1038E000D4F80821C3F824E00092009A7A688AB1DB
:1038F0003B681B78C4F81C35012A0ED93B685B78FD
:10390000C4F81C35BCF1000F10D00423C4F80433F4
:103910001A48D9E793F82030ECE7FB68012BF1D97E
:103920002C2303FB065393F82030E9E74FF02C08D3
:1039300006FB08586746D4F80831002BFBD0C4F8C2
:103940000871D4F80831019341462046019B01F0EB
:10395000ABFD0028EFD12C2303FB0655AA7FFF2ADD
:10396000D6D0012393404FF0A042C2F80835CFE7EC
:103970000348A9E7D80500200300AD0B0000AD0BFC
:103980000B00AD0B13B5104B104C114800221A6000
:103990001B6801932146019B01F086FD90B9A27F2F
:1039A0000C48FF2A1FBF012393404FF0A042C2F8EA
:1039B0000835002363772372D4E9003102B0BDE8F3
:1039C0001040184702B010BD08310040D805002053
:1039D00000300040E005002037B5344B01930D4620
:1039E0004FF48271044601F093FD4FF4927101F09F
:1039F0008FFD4FF48E7101F08BFD4FF4847101F057
:103A000087FD00236B6385F82F30AB6A012B18D13B
:103A10002B6A5B0615D4022395F82D20C4F80032DA
:103A2000022A4FF00103236218BF23602B6893B171
:103A300040F28623AB60AB681D48C4F8043303B082
:103A400030BD0123E8E72946204601F089FD28B171
:103A5000019B013B0193019B002BF4DC95F82F3077
:103A60005BB91348019B002BE9DC0023C4F8003547
:103A70000523C4F800350F48E1E7D4F8C434C4F88E
:103A8000C434002BEDD00C4A0A4813F0010F18BFC4
:103A9000104613F0020F02F1010218BF104613F096
:103AA000040F064B18BF1846DCE700BFA0860100D4
:103AB0000000AD0B0100AD0B0000AE0B0200AE0B21
:103AC00037B5304B01930D464FF48271044601F037
:103AD0001FFD4FF4927101F01BFD4FF48E7101F048
:103AE00017FD4FF4847101F013FD002395F82D208C
:103AF000C0F800326B6385F82F3001239A420362CD
:103B0000294618BF836001F00BFD2B6883B140F29A
:103B10008623AB60AB681C48C4F8043303B030BDE7
:103B20002946204601F01CFD28B1019B013B019371
:103B3000019B002BF4DC95F82F305BB91248019BF8
:103B4000002BEBDC0023C4F800350523C4F8003556
:103B50000E48E3E7D4F8C434C4F8C434002BEDD0E5
:103B60000B4A0A4813F0010F18BF104613F0020F5A
:103B700002F1010218BF104613F0040F054B18BFE5
:103B80001846DCE7A08601000000AD0B0100AD0B7C
:103B90000000AE0B0200AE0BF8B507791D4D4FF0DB
:103BA0003C0C0CFB07FC05EB0C0494F82E607EBB70
:103BB00063604B7BA66084F82D6084F8306084F8E5
:103BC000316084F838300C6845F80C204FF0A0467E
:103BD00004F5E07340F20C6C46F823C04B680068B3
:103BE00003F5E07E46F82EC0C0F80845C0F80C3555
:103BF0008B68C0F824351AB140F30730FDF7C2FCDA
:103C00003C2303FB07550448012385F82E30F8BDFB
:103C10000248FCE7040600200000AD0B0500AD0BD8
:103C2000026803790521C2F80015044A3C2101FB12
:103C30000323022283F82E20704700BF04060020D1
:103C400003680A490279C3F80813D3F8001221F077
:103C50000301C3F800120021C3F80015044B3C21F6
:103C600001FB0232012382F82E30704786420400A5
:103C7000040600202DE9F047324D90F80480D0F87A
:103C800000903C2303FB08530E4693F82D30012B84
:103C9000964604D10B78012B06D12B4811E0022B5C
:103CA00002D10B78012BF8D13C24284BC9F80833FA
:103CB00004FB085494F830302BB1A3682448C9F8A9
:103CC0000433BDE8F0878EF00403C3F3800384F867
:103CD0003030C4F820E0B446BCE80F0004F10C0713
:103CE0000FC7DCF800303B607368A362F36863625F
:103CF0007378C9F888353378C8EB081A012B05EBBF
:103D00008A0A1AD0B3B9CEF3401E3C2303FB0853F2
:103D1000514683F82CE04846FFF7D2FE3C2303FBD4
:103D200008F805EB080255F80830002BC9D182F8D5
:103D30003030C6E74FF0010EE7E751464846FFF73F
:103D40004BFEEBE7040600200500AD0B86420400A5
:103D50000B00AD0BF0B5294C87B021464FF0402049
:103D600001F0FEFBA446E0B994F82F70266AEFB983
:103D7000237B9A1E012A19D8616AA269914215D142
:103D8000E2696262C6F340166269A262032B84F89C
:103D90002C6084F82D7021464FF0402003D1FFF7AE
:103DA0008FFE07B0F0BDFFF717FEFAE7144D0FCDF9
:103DB00001AC0FC42B682360E7B14FF04022D2F86A
:103DC000C434C2F8C43498070CD501238DF80030F0
:103DD00000238CF830307307E3D4DCE90031684607
:103DE0009847DEE7590701D50223EFE7DA07EFD559
:103DF0000323EBE78DF80070EAE700BF040600201C
:103E000010060020094B70B553F820400130002601
:103E100053F82050A54200D870BD236820465B6847
:103E2000984700B166600C34F4E700BF185C0000EE
:103E3000104B70B5104C05461E469C4204D10E4CEA
:103E4000B44209D1002412E062681AB122681268F3
:103E5000AA420CD00C34F0E763680BB90C34EFE7DE
:103E600023682846196801F09FF80028F6D12046FB
:103E700070BD00BF501D0020CC1C002010B50446B2
:103E8000FDF732F901234FF0000163F30701064A01
:103E9000064B07489B1ADB0863F38F1100F0C4FE42
:103EA000204601F0D5FB00BFDC5A0000045B000097
:103EB000DC6200002DE9F3410546884600F0D2FBA4
:103EC00001224FF0000362F30703244C244A042D1F
:103ED000A4EB0204C4F3C90496BF224A224A52F852
:103EE000252064F38F13ADF80030064600232946E1
:103EF0001E4800F0D2FED8F81C30C3F308034BB1C3
:103F00004FF00001012363F3070164F38F11184898
:103F100000F08AFE4FF00007012363F307073046E5
:103F200064F38F1701F072FCB0B10278114B002AD4
:103F300008BF1846FCF76CFF3B46024631460E4868
:103F400000F093FE41462846FFF798FF304602B046
:103F5000BDE8F041FDF7D4BE0648EBE7045B000086
:103F6000DC5A0000305C0000356300004B63000049
:103F700073630000436300009463000008B50B4DB9
:103F80004FF02002EFF3118382F31188BFF36F8F9C
:103F900001F063FC012102280446D8BF084601F065
:103FA0006CFC2C62FDF75CFBEAE700BF1807002001
:103FB0000248034A0021121A01F02CB80000002028
:103FC0006007002008B50648064A0749121A00F0A3
:103FD000F7FF064A06490748BDE8084000F0F0BF71
:103FE000401C0020741D0020BC6300000000000085
:103FF000BC6300000000002008B5094B012202202C
:104000001A70FFF7FFFE0320FFF7FCFE00F0E6FB4F
:10401000FCF7AAFD034A137B23F00103137308BDC9
:104020005C070020AC06002080B5A2B0FCF756FE6D
:10403000354B83F30888354C354E636943F4007380
:1040400063610025E02384F82230E57725766576E4
:10405000A576636A43F4E0236362FDF73DFEFDF756
:10406000F9FA4FF0FF33A362E36207AB6C222946F3
:10407000184600F0CFFF274C0127A06028468DF896
:104080002970FFF7BFFE3846FFF7BCFE00F0DEFAEE
:10409000214B66624FF48062CDE90473CDE902558D
:1040A0001E4B1F49CDE90055304600F04FFB737B96
:1040B00023F0040213F01B0F727304D1B36913B918
:1040C000304600F055F9174B174D059301220F2389
:1040D000CDE903320023CDE9013300934FF4A07200
:1040E000124B1349284600F031FB6B7BE56023F04F
:1040F00004036B730F4B0A490548C4E906334FF4B8
:104100008062064BFDF788FAA017002000ED00E062
:10411000AC06002018070020AF630000F93F000044
:10412000600A0020B4630000400600207D3F0000CC
:10413000600E0020300700200B4B0C4870B50024A7
:10414000834201D3002070BD1A699D685C61002123
:10415000A94201D11C33F3E75E691660DE685A613B
:1041600001313244F4E700BF501D0020501D0020F3
:1041700010B513460C464FF02002EFF3118182F385
:104180001188BFF36F8F42695AB12260136843618F
:10419000836901338361002081F31188BFF36F8F3E
:1041A0000DE01BB923606FF00B00F5E702460448F1
:1041B00000F038FA18B9034B9B685B69236010BDA7
:1041C0005D0700201807002070B504460D464FF02B
:1041D0002003EFF3118683F31188BFF36F8F01F093
:1041E000DEFA80B12A684261427B0021D2068166F4
:1041F00003D183690BB900F0BBF831460848BDE82C
:10420000704001F074BA2B6862691A602B686361B0
:10421000A369013BA36186F31188BFF36F8F70BD63
:104220005D07002010B5084C23685BB1FDF714F959
:104230002368064A1844106100211846BDE8104062
:1042400001F01BBB10BD00BF500700201807002065
:10425000F8B50D464FF02003EFF3118483F3118876
:10426000BFF36F8F0D4B4FF4004140F2E73600274C
:10427000E1FB006700221A6130464FF47A72002396
:104280003946FCF7FBFA064B1860064B1D60FFF73A
:10429000C9FF84F31188BFF36F8FF8BD18070020A2
:1042A000500700204C0700204FF02003EFF311814E
:1042B00083F31188BFF36F8F044B9A68D37B013B64
:1042C000D37381F31188BFF36F8F704718070020F5
:1042D000094B03F12802824205D19B688B4202D12F
:1042E0004B7BDB0606D1D1E9003213605A60002314
:1042F000C1E90033704700BF1807002038B50D4CE6
:10430000024604F1280001F013FA054600B9E568F9
:10431000A3684AB95A7BD20606D1AA6922B9DA89BA
:104320007F2A01D9636238BD9D4201D0FFF77AFF31
:104330006562F8E71807002010B54FF02003EFF38F
:10434000118483F31188BFF36F8F084B9A68D37B76
:104350000133D3730020FFF7D1FF84F31188BFF33B
:104360006F8FBDE8104001F0D9B900BF18070020D9
:10437000F8B54FF02003EFF3118483F31188BFF3F6
:104380006F8F154A114651F8283F8B421DD0E3B17B
:10439000D66A90F90E5093F90E70AF4210DD5A684C
:1043A000C0E9003210605860437B43F04003437320
:1043B0000020FFF7A3FF84F31188BFF36F8FF8BDD0
:1043C000B34202D01B68002BE5D1D36A4360D36AA5
:1043D00001601860D062E7E718070020F8B50446CE
:1043E0004FF02003EFF3118583F31188BFF36F8F34
:1043F000437B5A0603D501461748FFF769FF174A62
:10440000D2E90A3002F128018B421FD0F3B194F9AE
:104410000E6093F90E70B74213DD5968C4E900319C
:104420000C605C60637B906843F040036373031B24
:1044300058425841FFF762FF85F31188BFF36F8F31
:10444000F8BD834202D01B68002BE2D1C4E9001002
:10445000D36A1C60D462E5E74007002018070020FB
:10446000154A164938B50C689368A342144603D11F
:10447000BDE83840FFF7D6BE00250D601049096839
:10448000B9B1D9897F2914D80E4993F90E5009681A
:104490008D420EDB0C498B420BD0996949B91169E9
:1044A000814203DC1846FFF799FFE1E7091A116121
:1044B00038BD00232361FBE71807002048070020D0
:1044C000500700204C07002040060020036D70B507
:1044D000044603B1984704F1180001F0A8F94FF021
:1044E0002003EFF3118583F31188BFF36F8F20460C
:1044F00001F0CBF8637B0646C8B1590607D52146C3
:104500001148FFF7E5FE637B23F0400363730F4B15
:104510009868021B50425041FFF7F0FE637B43F066
:104520000803637385F31188BFF36F8F70BD9B071A
:10453000F4D52146A068FFF7CBFE637BA66023F08D
:1045400002036373EAE700BF40070020180700205A
:1045500038B504464FF02003EFF3118583F311883B
:10456000BFF36F8F437B5A0607D501460948FFF713
:10457000AFFE637B23F040036373074B9868031B14
:1045800058425841FFF7BAFE85F31188BFF36F8F89
:1045900038BD00BF400700201807002070B5044652
:1045A0000D461646FFF7D4FF637B43F002036373A7
:1045B0007DB12B68A5609D4229D043B394F90E20AC
:1045C00093F90E1091421CDD5A68C4E90032146060
:1045D0005C60731C22D026EAE6764FF4004540F278
:1045E000E73000214FF47A72C5FB06010023FCF787
:1045F00045F90B49421C04F11800BDE8704000F079
:1046000081B969688B4202D01B68002BD8D16B68D6
:1046100063606B6825601C606C60DAE770BD00BF8A
:104620003D57000010B50C461146064A9068064AF0
:1046300010601A46FFF7B2FF2046BDE81040FCF7B5
:104640004DBF00BF1807002048070020044B002181
:1046500003F12802C3E90A220846FFF7F9BD00BFAB
:1046600018070020014B9868704700BF180700200A
:1046700070B504464FF02003EFF3118683F31188E1
:10468000BFF36F8F01F08BF8054670B1437BDB06FB
:1046900003D183690BB9FFF76BFE0023AB6631468C
:1046A0000548BDE8704001F022B8D4E902329A42D0
:1046B00018BF0133A360F2E75D07002010B4024683
:1046C0000B464FF02000EFF3118180F31188BFF308
:1046D0006F8F946844B1013C946081F31188BFF3FB
:1046E0006F8F002010BC704733B981F31188BFF37E
:1046F0006F8F6FF00F00F5E7014810BCFFF792BF16
:104700005D07002010B54FF02002EFF3118482F313
:104710001188BFF36F8F427B510704D484F3118853
:10472000BFF36F8F10BD22F0040112F01B0F417315
:1047300003D183690BB9FFF71BFE21460248BDE890
:10474000104000F0D4BF00BF5D07002030B587B037
:1047500004460E9D04950D9D03950C9D02950B9DA1
:1047600001950A9D0095FCF735FF034B9B6803B14B
:104770001B6E236607B030BD1807002070B586B0E9
:10478000002605960E9E04960D9E03960C9E02969C
:104790000B9E0F9D01960A9E00960446FFF7D6FFDA
:1047A0006B1C03D02DB92046FFF7ACFF204606B0A6
:1047B00070BD4FF4004640F2E73000214FF47A72AA
:1047C0000023E6FB0501FCF759F80349421C04F1FC
:1047D000180000F097F8E9E73D5700002DE9F04F89
:1047E000284E294D87B0B046B54205F1300410D3AC
:1047F000FFF75AFD244CDFF894A04FF4004940F233
:10480000E7360027444521D307B0BDE8F04FFFF756
:1048100093BD54F8043C059354F8103C049354F8A9
:10482000143C039354F8183C029354F81C3C019335
:1048300054F8203C009354E90A2354E90C01FFF793
:1048400085FF54F8303CDD642546CDE7616A4B1C9A
:1048500004D0256821B92846FFF754FF3034D1E74A
:10486000B346BC46E9FB01BC4FF47A7200235846BC
:104870006146FCF703F85146421C05F1180000F0B0
:1048800041F8EBE7501D0020501D00203D5700006F
:10489000034B1B680BB9FCF7DFBD0020704700BF5E
:1048A00054070020036840B1074A5268904204D080
:1048B0001BB19A6881680A449A60426813605A6022
:1048C0000023C0E900337047C41C00200B4B10B517
:1048D0001C689C4208BF0024FFF7DAFF54B1A368AC
:1048E000181A20EAE070064B1B6913B19842A8BF62
:1048F000184610BD6FF00040F5E700BFC41C002053
:104900001807002070B504461646C1604FF020031A
:10491000EFF3118583F31188BFF36F8FFFF7B8FFB3
:10492000184B1A68012EACBF801901309A42A06062
:1049300001D05E6832B95A6862605A6823601460B8
:104940005C600AE09068A168884215DD411A9160B8
:104950005168C4E900210C6054601A689A4206D07C
:10496000944204D1FFF7B2FF0021FCF71FFD85F34D
:104970001188BFF36F8F70BD091AB242A160DAD0FF
:104980001268D7E7C41C00202DE9F04B0446FFF75E
:1049900067FD4FF02003EFF3118583F31188BFF318
:1049A0006F8F214E214FDFF888903460B846D9F8D8
:1049B000004032684C45D7E900BC05D024B1A3685B
:1049C000934214DD9B1AA3601BEB02004CEBE271D7
:1049D0000024C8E900013460FFF778FF2146FCF7A6
:1049E000E5FC85F31188BFF36F8FBDE8F08B1BEBFF
:1049F00003004CEBE371D31A33600023C7E90001D5
:104A0000A3602046FFF74EFF85F31188BFF36F8F39
:104A1000E36898474FF02003EFF3118583F3118883
:104A2000BFF36F8FC3E700BF54070020A00400202E
:104A3000C41C0020026A002A38B5044602DD0E4973
:104A4000FFF760FF636A01336362A3690BB120461D
:104A5000984754F8105FA5420DD065B1284600F084
:104A60002DFE6B7BDB0604D1AB6913B92846FFF73B
:104A70007FFC0023AB6638BD354A00002DE9F341C9
:104A800040F2E7360027044688464FF4004530469A
:104A90003946E5FB020100234FF47A72FBF7EEFE84
:104AA0003946009030464FF47A720023E5FB080146
:104AB000FBF7E4FE0190204600F0B9FE009B05499B
:104AC000019A236220460023636202B0BDE8F041F0
:104AD000FFF718BF354A000038B5074C074DAC4208
:104AE00001D3002038BD04F114032046C4E9053386
:104AF00000F006F81C34F2E7501D0020501D002085
:104B00002DE9F04F46680789016890F80A80FF2375
:104B100006FB07FCC3726144324600234FF00C09C8
:104B2000984505DC002319468F4220DCBDE8F08F54
:104B3000D0F80CA0BCFBF2F509FB03FE0AEB0E0457
:104B400004F1040B202DC4E901BB05D8C3729208FF
:104B500022F003020133E3E715F11F0448BF05F11A
:104B60003E0464114AF80E1001EB8401EFE7C268BD
:104B7000056802F1040CEC1845F803C095686560FF
:104B8000956801312C6033449460CDE7044608B544
:104B9000084611461A46A047FFF764FDFDF7B0F836
:104BA00070470023C0E900337047036823B90160F0
:104BB000002341600B60704743681960F8E70068A4
:104BC000704703680BB11A6802601846704708B551
:104BD000FCF7EAFA18B1012343600023038108BD02
:104BE000FCF754BC002070470023F0B51A461C4661
:104BF000012710F8015B0DB18A4201D31846F0BDC0
:104C0000252D02D184F00104F3E7002CF1D045F00A
:104C10002006613E192EECD8732D04BF07FA02F46A
:104C2000234301320024E4E738B505460C46FFF77C
:104C3000CEFF28B105612146BDE83840FCF7D6B962
:104C400038BD70B504460E461546FFF7C0FF58B193
:104C50000461447A4661012262F3071444722946D2
:104C6000BDE87040FCF7C2B970BD2DE9F0410546C2
:104C7000884617461E46FFF7AAFF60B10561457AD0
:104C8000022363F307154572C0E905873146BDE885
:104C9000F041FCF7ABB9BDE8F0812DE9F8430546DA
:104CA000894690461F46BDF82060FFF790FF68B127
:104CB0000561457AC761032363F307154572C0E9AF
:104CC00005983146BDE8F843FCF790B9BDE8F88394
:104CD000407A00097047437A1B098B4216D9032B8F
:104CE00003D800EB810148697047012903D800EB24
:104CF00081018869704743690239062903D803EBAB
:104D000081014868704707391B68F6E70020704743
:104D10000346021DBFF35B8F52E8001F013942E8D2
:104D2000001CBCF1000FF7D1BFF35B8F5B680BB9C0
:104D3000FCF74CBA7047006970478368C9B20C220F
:104D400002FB01314B7A23B9087AB0FA80F04009AE
:104D500070470220704738B583680C2404FB013487
:104D60000123054663724FF02003EFF3118183F3B3
:104D70001188BFF36F8F23682BB160681A682260B7
:104D8000834208BF626081F31188BFF36F8F03B95C
:104D900038BDD3E9012128469047E4E70368D0F8FD
:104DA00008C02DE9F04105469F68CEB24AB10C23F8
:104DB00073435CF803309A425BD013B11B68002B3D
:104DC000F9D14FF02003EFF3118083F31188BFF383
:104DD0006F8F0C2171430CEB01031C7A0134E4B298
:104DE0001C7280F31188BFF36F8F32B34FF0804095
:104DF0004FF0030EC0F808E3587AA0B94FF0200E28
:104E0000EFF311888EF31188BFF36F8F1060D3F822
:104E100004E0BEF1000F1FD15A604CF8012088F366
:104E20001188BFF36F8F4FF080430321C3F8041341
:104E300018B1D2E9013128469847012C0AD14FEA2E
:104E4000061857F808305BB947440122BB7A03F1D2
:104E500080431A6000200EE0CEF800205A60DEE7A2
:104E6000284698470028EFD131462846FFF773FFC0
:104E7000F0E76FF00F00BDE8F0810022FFF78EBF72
:104E8000002210B5012104461046FCF78BFB0020E0
:104E9000FCF778FB4FF080430122C3F8182503226A
:104EA000C3F80423A3680020C3E90000A368C3E992
:104EB000030010BD02682DE9F341D2F8088087682D
:104EC000CCB24FF02003EFF3118683F31188BFF3C8
:104ED0006F8F0C226243B9180B7A43B3013BDBB2EC
:104EE0000B723BBB2501BB504B6008EB05035B68B5
:104EF000CBB945440122EB7A03F180431A602B8938
:104F000003F1804300221A601B680193019B0C216E
:104F100001FB04740020607286F31188BFF36F8F69
:104F200002B0BDE8F08198470028E2D1EFE76FF0CA
:104F30004400F1E70020EFE770477047FCF796BBAD
:104F400001460068FCF79CBB08B5FCF7EBFBBDE82D
:104F50000840FCF7B5BA07B5002101A8FCF7C4FF6B
:104F600003B05DF804FB70B5013905462C4642B12B
:104F700011F8013F561E2BB92A4404F8013BA24206
:104F8000FBD170BD05F8013B3246EFE7C9B20278AC
:104F90008A42034600F1010004D0002AF7D100291B
:104FA00018BF0023184670470138013910F8013F37
:104FB00011F8012F934201D1002BF7D1981A7047B5
:104FC000F0B581EA0004A50703460BD0013B0A4473
:104FD00091421AD1F0BD002AFCD011F8014B03F820
:104FE000014B013A9C07F6D19508AC001E1F0F1922
:104FF000B94205D16FF0030606FB05222344E5E71D
:1050000051F804CB46F804CFF2E711F8014B03F84E
:10501000014FDDE770B5C9B203469C0710D141EAE4
:10502000012444EA0445940803EB8406B3420DD1FD
:105030006FF0030505FB04241C44A34209D170BD95
:10504000002AFCD003F8011B013AE6E743F8045BB1
:10505000ECE703F8011BF0E7F0B50346B1FBF2F70C
:1050600002FB1715092D8CBF272600261C4630355C
:105070003544914204F8015B06D200222270241AC2
:10508000834204D82046F0BD39462346E6E71A7825
:10509000017803F8011900F8012BF1E770B5D0E9A8
:1050A0000065720806F0010342EAC5729B184FF0D2
:1050B00000014FEA550444EB0101C0E9003170BD25
:1050C000D0E900322DE9F04302334FF005074FF0ED
:1050D000000C42F10002B3EB0C06B2FBF7FE07FB3B
:1050E0000EF162EB0101F20842EA4172B2FBF7F104
:1050F000CA001CEB02084FEA51734EEB0309A2FBF6
:105100000723B31AB3FBF7F318EB030449F10005C7
:10511000C0E90045BDE8F0830B68002B70B510DDD9
:10512000013B02680B6044680A21A2FB015601FBA7
:10513000046626F07043C0E90053310F3031084651
:1051400070BD3021FBE74FF0FF307047FDF79ABB91
:10515000FEF7B8B910B504688068A468C06924680F
:10516000012904D15840C4F80405002010BD0033C3
:1051700020FA02F04FF0010118BF012300F00100F6
:105180009140834214BFC4F80815C4F80C15ECE72D
:1051900070B504688068A468C0692568D5F814658E
:1051A000D5F81045D5F8045560406C403440604057
:1051B00001291CBFD04000F001001860002070BD24
:1051C0008368186830B558B10024814213D108684B
:1051D0005CB95C681860A14200D15860002008608A
:1051E00072B9002030BD2846EFE720605868814240
:1051F00008BF5C60F2E705680446002DF3D13AB1C0
:105200001A680A60586819600028EAD15960E9E70D
:105210006FF01500E6E72DE9F74F8046856803F447
:105220007040B0F5804F1E4641D009DCB0F5805F7C
:105230003FD0B0F5405F3ED090B16FF0150033E045
:10524000B0F5E04F39D004DCB0F5A04FF5D1032024
:1052500006E0B0F5404F32D0B0F5504FEDD1072009
:1052600006F44077B7F5807F2BD0A7F50074634232
:10527000634106F0010C4FEA4C07012947EA0C078D
:1052800018BFD4B247EA002040EA830712BFA14604
:105290004FF01F0900244FF0A04A4FF0010B06F019
:1052A0000203A1450FD2002003B0BDE8F08F022019
:1052B000D6E70120D4E70420D2E70520D0E7062076
:1052C000CEE70323D5E7D8F800209268117904F0DF
:1052D0001F0242EA411202F5E0724AF822700BFA0C
:1052E00004F2A968002B25D01143A96069690193D4
:1052F000B0064CBF114391436961A96970064CBF68
:1053000011439143A961296970074CBF114391432F
:105310002961E96930064CBF0A4321EA0202EA61C9
:1053200021464046FDF704FB0028BDD10134E4B21C
:10533000019BB6E721EA0201D7E701292DE9F041F7
:1053400018BFD4B28768064612BF25461F25002421
:105350004FF00108AC4202D90020BDE8F081FB68A3
:1053600008FA04F223EA0203FB6021463046FDF707
:10537000DFFA0028F1D10134E4B2EBE701292DE98D
:10538000F04118BFD4B28768064612BF25461F25D4
:1053900000244FF00108AC4202D90020BDE8F081A2
:1053A000FB6808FA04F21343FB6021463046FDF720
:1053B000BFFA0028F2D10134E4B2ECE710B413468E
:1053C000426854680A46A446002110BC604738B5BC
:1053D0000468054624B3A36813B3186800B361B129
:1053E000B4F904205968D20FFFF7E8FF2B689B68D7
:1053F0009868BDE8384000F004BA12B9A288920457
:105400000ED4986800F0FDF92A689368B2F9042078
:10541000D243D3E90001D20FBDE83840FFF7CEBF39
:1054200038BD10B5012200210446FFF7D0FFE36824
:1054300023B9201DBDE81040FFF71AB910BD8068E0
:1054400003688B4210B506D190F84C4034B9FFF791
:10545000E8FF204610BD6FF01500FBE76FF00F006E
:10546000F8E7032914BF6FF022000020704708B549
:10547000FDF79CFF0028B4BF6FF00400002008BDBA
:10548000032914BF6FF0220000207047836808884A
:10549000012805D1DA610AB10868986100207047D7
:1054A0006FF022007047004737B5D0F818358A6989
:1054B000DBB28DF807304B6A93423EBF4A699DF8D4
:1054C0000740D4544A6A91F82840531C4B62023278
:1054D0003CB10C69A2428C6938BF0A61944288BF12
:1054E0008A610D69954205D9CB689B5CC0F81C3573
:1054F00001200BE08C69944202D991F82030F5E745
:10550000AB42F5D3A3422CBF0020012003B030BD35
:105510000023435082B043580193019B02B070476F
:105520004B6B8A6A934208D24A6AD25CC0F81C2547
:1055300001334B6301231846704791F82C301BB19F
:105540000123C3610023F6E70A6A12F0400F4FF00F
:10555000010215BFC261426181F82D201346EAE7BE
:1055600091F82F20F8B504460D46002A60D1D0F8F6
:1055700024314E6B8F6AB3B14FF49271FFF7C8FFBD
:105580000123636185F82F30BE424FD1D4F8043136
:10559000002B4BD04FF482712046FFF7B9FF002259
:1055A00085F82D2013E0D0F81C3193B14FF48E71A3
:1055B000FFF7AEFFD0F824311BB14FF492712046B3
:1055C000DCE72946FFF7ACFF02460028DCD1104695
:1055D000F8BDD0F80831002BD6D04FF48471FFF716
:1055E00097FFD0F82431002BE7D16B6BA96A8B426F
:1055F000CAD2696AD0F81805C8546B6BA96A01331E
:10560000481E83426B6308D1286A40061DD40223DA
:10561000C4F8003201232362B6E78B42FAD12B6A29
:105620005B06B1D5022385F82D30D0E70122CEE705
:105630004FF49271FFF76CFF4FF48E71FFF768FF24
:105640004FF48471FFF764FFA0E78B42E2D1E9E7F2
:105650004FF02002EFF3118382F31188BFF36F8FB5
:10566000FEE7FFF76ABC30B50024C0E90232C0E9AA
:1056700005440161A34202D1C0E9000030BD456983
:105680000D60013441611144F4E7437BDB0603BF45
:105690008069B0FA80F040090020704710B54FF0E3
:1056A0002003EFF3118483F31188BFF36F8F00F0B1
:1056B0003FF884F31188BFF36F8F10BD38B50446EF
:1056C0004FF02003EFF3118583F31188BFF36F8F41
:1056D00001468068FEF7FCFD637B23F002036373E1
:1056E00085F31188BFF36F8F0023A36038BD21B904
:1056F000EFF3058008B9FBF7F1BE81F31188BFF322
:105700006F8F7047034620B9EFF305820AB9FBF7A4
:10571000E5BE83F31188BFF36F8F70474FF020030E
:10572000EFF3118083F31188BFF36F8FFFF7EABFA8
:105730000368984214BF18460020704750F8103C88
:1057400070B50446A0F11805CBB14FF02003EFF37C
:10575000118683F31188BFF36F8F294650F8100C20
:10576000FEF7B6FD14F80B3C23F0020304F80B3CE3
:1057700086F31188BFF36F8F002344F8103C14F8B0
:105780000B3C23F0140304F80B3C2846FFF77DFF85
:1057900020B12846BDE87040FEF7EABD70BD38B5BF
:1057A0004FF02003EFF3118283F31188BFF36F8F63
:1057B000FFF7BEFF044682F31188BFF36F8FC8B1B5
:1057C0004FF02003EFF3118583F31188BFF36F8F40
:1057D00001468068FEF77CFD637B23F00203637360
:1057E00085F31188BFF36F8F0023A36004F11800C5
:1057F00000F01DF8204638BDC0E90212C0E90000E3
:105800007047FDF773B86FF046007047002070478F
:1058100010B5029C04738373042400234473C37380
:10582000C0E90633C0E91333C0E9161210BD10B544
:105830004FF02002EFF3118482F31188BFF36F8FD2
:1058400003683BB1FFF72EF8002084F31188BFF303
:105850006F8F10BD6FF01500F7E710B54FF0200304
:10586000EFF3118483F31188BFF36F8FFFF72EF8E6
:1058700084F31188BFF36F8F10BD70B504460E46D8
:105880004FF02003EFF3118583F31188BFF36F8F7F
:10589000FFF71CF8012805DDA04203DD3146204654
:1058A000FBF784FD85F31188BFF36F8F70BD002374
:1058B000C0E9061200F110024362C0E90422C0E907
:1058C00000338362704710B50446FFF7B0FF00BB9A
:1058D000E3690BB12046984704F110000021FFF75F
:1058E000DDFE0446A8B1FFF7E9FE637BDB0604D1C9
:1058F000A36913B92046FEF73BFD4FF02003EFF3F9
:10590000118083F31188BFF36F8FBDE81040FFF75C
:06591000F9BE10BD704756
:02591600FFFF91
:0859180098AFFF7F01000000C1
:105920000000000081120000000000003D4F000058
:10593000000000003D4F000085390000A754000022
:10594000553D0000A7540000000000003D4F00003E
:1059500000000000912A0000000000003D4F000000
:10596000000000003D4F0000000000003D4F00001F
:10597000000000003D4F0000000000003D4F00000F
:10598000000000003D4F0000000000003D4F0000FF
:10599000000000003D4F0000000000003D4F0000EF
:1059A000000000003D4F000000000000E912000070
:1059B000000000003D4F0000000000003D4F0000CF
:1059C000000000003D4F0000000000003D4F0000BF
:1059D000000000003D4F0000000000003D4F0000AF
:1059E000000000003D4F0000000000003D4F00009F
:1059F000000000003D4F0000000000003D4F00008F
:105A0000000000003D4F0000000000003D4F00007E
:105A1000000000003D4F0000000000003D4F00006E
:105A2000000000003D4F0000000000003D4F00005E
:105A3000000000003D4F0000000000003D4F00004E
:105A4000000000003D4F0000000000003D4F00003E
:085A5000000000003D4F0000C2
:105A5800785C00007D0C000000000000F75C00008E
:105A6800814E00005C5B0000175D000029130000F8
:105A780000000000785C0000791E000000000000B3
:105A8800785C0000BD280000000000004C610000A8
:105A980001290000B85B000086610000F12B0000BE
:105AA800D05B0000C1620000F12D0000E85B00003F
:105AB800785C00006F54000000000000785C000073
:105AC8003941000000000000785C0000D94A00005D
