:10000000400A0020A1080000C12F000019080000CC
:10001000190800001908000019080000190800005C
:100020001908000019080000190800001107000055
:100030001908000019080000BD060000AD2F0000DF
:10004000610800006108000061080000610800000C
:1000500061080000610800006108000061080000FC
:1000600061080000610800006108000061080000EC
:1000700061080000610800006108000061080000DC
:1000800061080000610800006108000061080000CC
:1000900061080000610800006108000061080000BC
:1000A00061080000610800006108000061080000AC
:1000B000610800006108000061080000610800009C
:1000C000610800006108000061080000610800008C
:0C00D000610800006108000061080000E9
:1000DC0053B94AB9002908BF00281CBF4FF0FF31A3
:1000EC004FF0FF3000F00CB8ADF1080C6DE904CE08
:1000FC0000F008F8DDF804E0DDE9022304B07047F5
:10010C00704700BF2DE9F04F099F154604468E46F7
:10011C001E46002B40F0CC808A42B2FA82FC4CD9AD
:10012C00BCF1000F0BD0CCF1200801FA0CFE20FA28
:10013C0008F802FA0CF548EA0E0E00FA0CF44FEA35
:10014C0015491FFA85F8BEFBF9FA210C09FB1AE3D5
:10015C000AFB08FB41EA03439B452AD9EB180AF139
:10016C00FF3004D29B4502D9AAF102002B44A3EB29
:10017C000B03A4B2B3FBF9F209FB123302FB08F830
:10018C0044EA0344A04516D92C1902F1FF3303D2DB
:10019C00A04501D9931E2C44A4EB080443EA00406B
:1001AC0027B124FA0CF400233C607B603146BDE897
:1001BC00F08F5046DBE71346EEE702B9FFDEBCF1E9
:1001CC00000F2ED18B1A01264FEA154EAAB2B3FBA3
:1001DC00FEF8210C0EFB183308FB02F941EA03432D
:1001EC00994561D9EB1808F1FF3004D2994502D931
:1001FC00A8F102002B44A3EB0903A4B2B3FBFEF15C
:10020C000EFB11334A4344EA0344A2424ED92C1943
:10021C0001F1FF3303D2A24201D98B1E2C44A41A44
:10022C00BCE7CCF1200E02FA0CF521FA0EF901FA1A
:10023C000CF320FA0EFE4EEA03034FEA154800FABF
:10024C000CF4B9FBF8F11FFA85FE08FB1192180C9F
:10025C0001FB0EF640EA0242964221D9AA1801F19E
:10026C00FF3003D2964201D9881E2A44921B9BB2BE
:10027C00B2FBF8F908FB192209FB0EFE43EA024314
:10028C009E450FD9EB1809F1FF3604D29E4502D9D1
:10029C00A9F102062B44A3EB0E0346EA004693E7B2
:1002AC000846E3E74E46F6E74046A4E70B46B6E7BA
:1002BC008B4205D90FB1C7E900010026304675E71E
:1002CC00B3FA83FCBCF1000F0FD18B4201D38242F5
:1002DC0009D8841A61EB030E0120002F6AD0C7E9FC
:1002EC00004E002662E76046F7E7CCF1200E03FAD9
:1002FC000CF322FA0EF521FA0EF41D4301FA0CF35D
:10030C0020FA0EF10B434FEA154A00FA0CF6B4FB37
:10031C00FAF91FFA85F80AFB19401C0C09FB08F1C5
:10032C0044EA0044A14202FA0CF23FD92C1909F11B
:10033C00FF3004D2A14202D9A9F102002C44641A64
:10034C009BB2B4FBFAF90AFB194409FB08F843EA1F
:10035C00044188452CD9691809F1FF3304D288452A
:10036C0002D9A9F10203294443EA0040A1EB080198
:10037C00A0FB02894945C2464C4602D306D14645EC
:10038C0004D2B8EB020A69EB0504013897B1B6EB5D
:10039C000A0361EB040606FA0EFE23FA0CF34EEA8E
:1003AC00030326FA0CF6C7E900369AE74846C6E777
:1003BC004B46D9E73E46F9E6094A112108B51170BA
:1003CC00436825219B68984720B10648BDE8084042
:1003DC0001F0F4B80448BDE8084002F09DBA00BF33
:1003EC0000F00020D03A00001814002037B5124D50
:1003FC00FF232B70114801F067FF044628B90F4901
:10040C000F4801F0DBF8E1232B700E4B1868636882
:10041C0001905B684BB90C4801F0D0F80B4C4FF0D5
:10042C00FF31204602F09EFAF9E7094A01A920465D
:10043C0098470028F2D0EEE700F00020983A000030
:10044C00A03A0000D4390000B93A0000181400207A
:10045C00C5030000164B07B51A6882B14FF08042F5
:10046C00D2F80423D1070AD500221A601B68114860
:10047C000093009B8368597A09B902F0A2FC0E4BD9
:10048C001A688AB14FF08042D2F8042392070BD538
:10049C0000221A601B680193019B0648012103B0DE
:1004AC005DF804EB02F08DBC03B05DF804FB00BFFB
:1004BC0000010040DC130020040100400D4B002221
:1004CC00C3F840214FF02002EFF3118182F3118821
:1004DC00BFF36F8F084AD3F804051368C01A20F0D5
:1004EC007F400344136081F31188BFF36F8F02F0D8
:1004FC009FBB00BF00100140C004002073B51C4816
:10050C0001F0E2FE80B343681A4D1B680121984745
:10051C00012600244FF48033C5F80845C5F8406522
:10052C00C5F8043303F1804303F58A534FF40032CA
:10053C001C601B680193019B0F4B3146C3F8802153
:10054C001120224600F0FEF8112000F0EBF80B4BC6
:10055C001E602E60D5F80435334423F07F43C5F874
:10056C004035204602B070BD4FF0FF30FAE700BFB7
:10057C00EC3A00000010014000E100E008100140DE
:10058C00F0B5254EB0F1FF3F08BF30464FF02003C9
:10059C00EFF3118583F31188BFF36F8F1F49204B45
:1005AC00D1F804451B68E21A22F07F47120219D4D5
:1005BC00421E22EAE272B242A8BF3246781C1044B4
:1005CC00B04294BF18189819041B24F07F4420F0F3
:1005DC007F43022CC1F8403506D985F31188BFF34F
:1005EC006F8FF0BD0022E9E7D1F804350D4AC31A2C
:1005FC0023F07F435C1E944205D90B4B4FF4003221
:10060C00C3F80021E9E7012B02BF023020F07F4044
:10061C00C1F84005E1E700BFFEFFFF0000100140FC
:10062C00C0040020FEFF7F0000E100E04FF020023C
:10063C00EFF3118382F31188BFF36F8F064AD2F860
:10064C000405064A1268801A20F07F4083F3118853
:10065C00BFF36F8F704700BF00100140C004002033
:10066C0004488168406A884203D003494FF08052A5
:10067C000A607047FC05002004ED00E0094A0A49B5
:10068C00936809689966094958664B6843F080532A
:10069C004B60002383F31188BFF36F8F9368986EC0
:1006AC00704700BFFC050020943A000000ED00E00C
:1006BC0012498A684FF028001044EFF3098C80E847
:1006CC00F01F202080F31188BFF36F8F0C4F4FF079
:1006DC0000664A6A8A603E60506E0023536680F35F
:1006EC00118804B5104602F06CFCBDE8044002F120
:1006FC00280090E8F01F8CF309887047FC05002057
:10070C0004ED00E01EF0040F0CBFEFF30880EFF3D4
:10071C000980816911F8021C0229FFD001B502F091
:10072C0045FC01BD43B2002B08DB012200F01F0089
:10073C0002FA00F05B09024A42F82300704700BF3E
:10074C0000E100E043B2002BA8BF03F1604301F1CC
:10075C0001014FEA4111AEBF03F5614300F00F00F8
:10076C00034BC9B2ACBF83F800131954704700BFD8
:10077C0014ED00E073B51E460A9B00938C18099B80
:10078C00054603F000F8A4F120030A4A23F00703FE
:10079C0022F001029A61069A5A60079A9A60089AA6
:1007AC00DA604FF080721E60DA61AB6400236B6616
:1007BC0002B070BD9D2D0000F8B505460C461746DD
:1007CC001E4600F079F90A4B3C4428469D6024F003
:1007DC00070402F0F6FB304684F30988002163B667
:1007EC0081F31188BFF36F8F0022002302F0D0FA3F
:1007FC00FC050020014910220A60704710ED00E052
:10080C00404080F3118830BF704700BFEFF3088081
:10081C00EFF30981724601B500F0A0F801BD00BFED
:10082C0030BFFFF7FDBF00BF08B5084B084A23F0E7
:10083C007F039360BFF34F8FBFF36F8F01F084FD85
:10084C0001F08CFD00F006F901F0BAFD000000008B
:10085C0000ED00E001B572B60B4A106A00281EBF0D
:10086C000021116202F0FAFE62B6EFF30580A0F1EE
:10087C0010004FEAC0000549014409C99847BDE87A
:10088C000140034908470000FC0500203C380000EB
:10089C006D06000002F07FFC202080F311880848D0
:1008AC004FF40061401880F30988EFF314800221A3
:1008BC00084380F31488BFF36F8FFFF7B5FF000078
:1008CC00800B00200C4B9A6A9A6A9A6A920708D598
:1008DC005A6B9A6A120604D518B19A6A22F08002F1
:1008EC009A62054B9A6A9A6A9A6A9A6A002042F04E
:1008FC00FF029A620870704700ED00E00D4B9A6A97
:10090C009A6A9A6A920508D59A6B9A6A120404D567
:10091C0018B19A6A22F400429A62064B9A6A9A6A51
:10092C00D20558BF9A6A9A6A002042F47F429A62B2
:10093C000870704700ED00E0074B9A6A9A6A9A6A51
:10094C009A6A9A6A9A6A9A6A6FEA02426FEA124241
:10095C009A620020704700BF00ED00E070B5364B86
:10096C005B688AB0C3F30803002585F31188BFF3D5
:10097C006F8F02F07F44B4F17F4F12D102F00C0460
:10098C00082C0ED014074EBF0E4606460125002239
:10099C00033B8DF80720032B47D8DFE803F0043E18
:1009AC00423B2E46F3E7244BDA6A92073DD4DC6ACD
:1009BC0014F0804408D028331B78EBB10DF10701FB
:1009CC000120FFF77FFF04469DF8073093B92022E2
:1009DC00314602A802F017FB099B45B3C3F308028A
:1009EC0022B96FEA53236FEA4323099302A92046E5
:1009FC0002F0DAFA0AB070BD104B1B782BB10DF176
:100A0C0007010120FFF77AFFDDE70D4B1C88A4B22C
:100A1C00002CD9D0FFF790FFD5E70DF1070100208E
:100A2C00CFE70DF107010020ECE70024CCE723F41D
:100A3C00FF7323F00103D8E700ED00E029ED00E09F
:100A4C002AED00E0024A536943F0100353617047EA
:100A5C0000ED00E0044800232021C2180133272BAD
:100A6C0082F80013F9D1704700E100E038B5054673
:100A7C004FF02003EFF3118483F31188BFF36F8FD2
:100A8C0001F078FE0A4B9B68AB420BD1094B5A68BC
:100A9C00C2F3080212B92046FFF7F0FD5A6842F083
:100AAC0080525A602046BDE8384002F0EDBD00BFD0
:100ABC00FC05002000ED00E01FB5084B0193084B2E
:100ACC000293084B039301AB0093074A074B012198
:100ADC00684600F091F805B05DF804FB00000020BA
:100AEC000000000000000B060000002000000120A8
:100AFC00F0B5204F00268E4201DB1046F0BD50F8B9
:100B0C0026C0DCF8044094B35BB104F1FF3E14EA58
:100B1C000E0F1AD11F2C18D9DCF800501EEA050F45
:100B2C0013D1202CDCF80050DCF808C0D2B20FD95D
:100B3C00B4F1004F0ED8013CB4FA84F4C4F11F0494
:100B4C006400072A4CEA040406D96FF01502D4E7B6
:100B5C000824F6E73E24F4E725F01F05154345F07D
:100B6C00100544F00104BA60FD6001323C610136AD
:100B7C00C1E700BF90ED00E0034B05225A60BFF3C4
:100B8C004F8FBFF36F8F704790ED00E0BFF35F8F17
:100B9C00014B00225A60704790ED00E01349086841
:100BAC00082810B51ED8FFF7F1FF114C4968002238
:100BBC00904201F10C0105D10E4B1870FFF7DCFFD0
:100BCC00002010BDA26051F80C3C23F01F0313430E
:100BDC0043F01003E36051F8043C43F0010323613C
:100BEC000132E5E74FF0FF30EBE700BF043A0000BD
:100BFC0090ED00E03C06002010B5034C0123227858
:100C0C00FFF776FF207010BD3C06002008B5084A9F
:100C1C0000231278FFF76CFF10F1160F03D0054B71
:100C2C000022072800DD08BD98601A610130F8E742
:100C3C003C06002090ED00E02DE9F04F9FB01E46E1
:100C4C000023019004910093134613F8010B0593B4
:100C5C0058B1252800F085800499019B98470130F4
:100C6C0040F00D844FF0FF33009300981FB0BDE8A7
:100C7C00F08F232C6CD061D8002CF6D0202C0A9B42
:100C8C0008BF01230A93CDF81480DDF81480B9480D
:100C9C0018F8014B214602F09CF90028E9D12A2CC6
:100CAC0066D156F8043B0793002BBFBF5B420793FA
:100CBC0001230B93059B98F8004003F102082E2C9E
:100CCC007CD198F800302A2B75D156F8045B08F1CA
:100CDC00010818F8014BA8482146274602F079F97B
:100CEC0000286ED04346682F13F8014B059307D1AB
:100CFC00682C05D108F1020398F8014005934827A8
:100D0C00672C7CD8652C80F03981472C5DD8452C1C
:100D1C0080F03481002CA8D0252C00F0AC830499F1
:100D2C00019B2520984701309CD00499019B2046BB
:100D3C009847013096D0009B0233A2E32D2C0AD0A9
:100D4C00302C0BD02B2C099B08BF012309939AE75D
:100D5C000123069397E701230B9394E70123089350
:100D6C0091E700230893CDE909330B9306938CE7A5
:100D7C00A4F13003092B0790A1D80A22DDF81480C6
:100D8C0018F8014BA4F13003092B98D8079BCDF828
:100D9C00148002FB0344A4F130030793EEE701FB3C
:100DAC000535303D9046424612F8013BA3F1300028
:100DBC000928F4D98DE700250A21F4E74FF0FF3517
:100DCC0089E7CDF8148007469AE7632C5AD020D8CF
:100DDC00582CA4D16F2C06F10409316840F01C8307
:100DEC00069B002B00F00A8330238DF85C30002921
:100DFC0040F00F838DF85D108846012626E0702C9C
:100E0C0000F0E78228D86E2C00F0D082E2D8692C52
:100E1C0085D13468002C06F1040980F29C802D23C6
:100E2C008DF85C3061420DF15D0630460A2202F00D
:100E3C0036F9099B064417A8361A002B40F0248378
:100E4C000A9B002B40F020834FEAD478002D22DA45
:100E5C0000252F46AA46E5E0752CBBD0782CB9D0DE
:100E6C00732C7FF45CAFB146002D59F8043BB8BF2E
:100E7C006FF000450026B54240F0BB822E4600259F
:100E8C00A84609E0B1464FF0000859F8043B8DF82C
:100E9C005C300126454617AB05EB08020025921B7A
:100EAC002F46AA4622EAE2729119069107999019E7
:100EBC000C1A0B9911B9002C00F3048303EB080BEB
:100ECC005B4540F0018312F1FF3280F00D83A6EBFD
:100EDC000806BAF1000F11D09BF800000BEB0608C6
:100EEC00A0F13003092BA8EB0B0640F20883D04687
:100EFC0018F1FF3880F00C83A6EB0A06AFB10BEBB0
:100F0C0006081BF801AB0499019B50469847013029
:100F1C003FF4A8AEBAF12E0FA8EB0B06F1D1B846F0
:100F2C00B8F1000F00F3FD82F61B95B19BF80000A1
:100F3C000BEB0608A0F13003092BA8EB0B0640F2D3
:100F4C00FB822E2800F0F8822F46002F00F3FD8242
:100F5C00761B5E440CE3099B23B12B238DF85C308C
:100F6C00214660E70A9B0BB12023F7E7214617AE19
:100F7C005BE700BFFC3A0000023B000006F10709EA
:100F8C0029F00709F9E80223D80240EA5250D602A8
:100F9C0020F0004002960390DDE90267002AC3F3BB
:100FAC000A5173F10003CDE9126743DA2D238DF852
:100FBC005C300DF15D0740F2FF73994255D1DDE9CC
:100FCC0002231343A4F1410407F1030B42D1192C62
:100FDC003AD849233B704E237B704623002517AE2D
:100FEC00BB70FD70ABEB060B2F46AA46099B002B82
:100FFC0040F0D9810A9B002B40F0D5819DF85C8094
:10100C00A8F12D03D3F1000848EB03081EAB4344B1
:10101C00BB4413F81C3C303B0BEB0A06092B2E444B
:10102C0000F23782089B002B00F03682079B9A1B3C
:10103C0017AB37E7099B0BB12B23B8E70A9B0BB116
:10104C002023B4E717AFB6E769233B706E237B70A0
:10105C006623C3E7192C99BF4E2341226E236122CC
:10106C0094BF3B703B707A70B8E7029B03980B43BC
:10107C000C93CB1703430D93DDE90C23462C08BFCF
:10108C006624134300F0FF80002900F09F80139B1F
:10109C0043F00043A1F2FE381393002618F1020F1F
:1010AC00C0F2A8806FF0004A4FF0000BB8F1000FAF
:1010BC0000F3CC8012A808F1010802F012F8B8F184
:1010CC00040FF7D1002D04F0DF03B8BF0625472B22
:1010DC0040F0E180F21C02DBAE4240F3D780023CD0
:1010EC00E4B2002D00F0DD80069B013D002B40F0AA
:1010FC00D880002DD4BF4FF000084FF00108662CAB
:10110C0040F0D18016EB050A40F1D58010231193E5
:10111C0066244FF0000A00224FF00063CDE914233F
:10112C001AF1FF3A80F0C980129B149A15999B18FA
:10113C00139A41EB0202CDE9123202F070430E9386
:10114C0000230F93DDE90E23134306D012A801F000
:10115C00DAFF12A801F0C5FF0136662C40F0C780FB
:10116C00002E40F3B180119B002B07DD11A912A8B2
:10117C0001F0F5FF013E07F8010BF4D1B246BB4676
:10118C000026069B13B9002D40F3AF802E230BF8DD
:10119C00013B002E00F0A780002D40F3A680774283
:1011AC00AF42A8BF2F46ED1B002D03DD119B002B7A
:1011BC0000F39180B8F1000F40F0AF80002317AE20
:1011CC008BF80030ABEB060B10E70139029BDB18F8
:1011DC000293039B5B410393DDE90223002A73F125
:1011EC000003F2DADDE90223CDE912234FE712A85E
:1011FC0001F077FFDDE9122C4FF0000BB94800210C
:10120C00594508BF604508F10108F0D30520A2FB41
:10121C00002300FB0C33CDE91223DC46013E6FF0BA
:10122C00004A4FF0000B00218B4508BF9A4506D2AF
:10123C00BCF1000F3FF432AFCDE912232EE7921828
:10124C005B4108F1FF384FF0010CECE712A801F0FC
:10125C005AFFDDE9121008F1FF3801364FF0000C8F
:10126C0000239B4508BF824506D2BCF1000F3FF41A
:10127C001DAFCDE9121019E74918404108F1FF38AC
:10128C004FF0010CECE70026B04613E7069BAD1BB4
:10129C0023B966242DE74FF0000830E74FF0000823
:1012AC0030E74FF0000805F1010A10239A4511931D
:1012BC00A8BF9A462FE76624F7E714A801F023FF8E
:1012CC0014A801F00EFF2BE7BB4630230BF8013BB3
:1012DC004FF0000A55E711A912A801F040FF013D9B
:1012EC000BF8010B60E737465EE7002762E711A9B0
:1012FC0012A801F034FF069B3870302818BF06F195
:10130C00FF36002B3BD1002D39DC07F1010BB8F176
:10131C00000F45D04FF0000A57465B461BF8012DD5
:10132C00302AFAD02E2A18BF9B46002504F0DF0382
:10133C00452B7FF443AF002E5A46BABF76422D237D
:10134C002B23632E02F8024B8BF801300ADD64214B
:10135C0096FBF1F303F130000BF103028BF8020062
:10136C0001FB13660A21934696FBF1F301FB13660E
:10137C0003F1300030360BF8020B56701EE72E23AB
:10138C0007F1020B7B70002DC1DD119B002BBEDD24
:10139C0011A912A801F0E3FE013D0BF8010BF2E7D5
:1013AC00C2464746C2E74FF001082FE6B146682F08
:1013BC0059F8043B05D001DC482F07D0009A1A607D
:1013CC0001E0009A1A804E46059A3DE4009A1A7084
:1013DC00F9E7B14647F63003102259F8041BADF873
:1013EC005C300DF15E0001F05AFE4FF00208861CD5
:1013FC002CE59A5D002A4AD001363CE517AC082250
:10140C00204601F04CFE17AEA61B06444FF0000818
:10141C001CE50DF15D04F2E7752C05D10A2217A825
:10142C0001F03DFE0646F1E7069B93B147F630030B
:10143C00ADF85C300DF15E071022384601F02FFE3E
:10144C00582C08D017AE069BBE1B06444FEA430827
:10145C00FCE417AFF0E717AA12F8013BA3F1610106
:10146C00192903D8203B02F8013CF5E712F8013C9E
:10147C00002BF1D1E6E704992046FFF7EEBB009B69
:10148C0001330093B1469EE74FF00108DEE41546A8
:10149C00F6E417AB002207E517AB089A04E5CDE993
:1014AC0007320499019B202098470130DDE907326F
:1014BC003FF4D8AB1BF1FF3BF1D2009921440091D2
:1014CC005C46FBE4A346F5E713F8010B079304997C
:1014DC00019B089298470130DDE907327FF4F0ACAC
:1014EC00FFF7C0BB323333330499019B0792302092
:1014FC0098470130079A7FF4E6ACFFF7B3BB049929
:10150C00019B984701303FF4ADAB1BF8010FE7E4AA
:10151C000499019B3020984701307FF4E9ACFFF728
:10152C00A1BB0499019B30209847013008F1FF388A
:10153C007FF4F6ACFFF796BB0499019B98470130FA
:10154C003FF490AB1BF8010FF4E40499019B30209D
:10155C009847013007F1FF377FF4F7ACFFF782BBF8
:10156C0004991BF8010B019B984701303FF47AABAF
:10157C00A6EB0B03002BF3DC009B069A002C134408
:10158C0000937FF720AF254606E00499019B2020AD
:10159C00984701303FF466AB15F1FF35F5D2009B4F
:1015AC00234400930FE700BF022902D1024B1B68B2
:1015BC0018474FF0FF307047801300200FB407B569
:1015CC0004AB022153F8042B04480193FFF734FBBE
:1015DC0003B05DF804EB04B0704700BF9F3100000E
:1015EC004FF02003EFF3118283F31188BFF36F8F59
:1015FC0006490123C1F840354FF08041C1F87835D8
:10160C0082F31188BFF36F8F0020704700E0014018
:10161C0008B5094B1A786AB9012119700620052101
:10162C00FFF790F80620FFF77DF8044B4FF00042CF
:10163C00C3F80423002008BD3D06002000600040D4
:10164C0073B50368554D9B688268D5F804431879C7
:10165C0001F01F0343EA4013E4B2002000F5A27628
:10166C0055F82660C6F30426B34275D124FA00F669
:10167C00F60771D5840004F1804404F5C044D4F815
:10168C00106526F00106C4F81065012404FA00F078
:10169C00C5F808039C0004F1A044D4F8000720F41A
:1016AC004030C4F800079068C84010F0010051D0D9
:1016BC00D068C84010F001004CD05069C84010F000
:1016CC00010056D09069C840C0074AD41069D2694D
:1016DC00C84022FA01F100F0010001F0010188423A
:1016EC0014BF012102212D4D002404F5A27255F8DE
:1016FC00220010F0030036D1A20002F1804202F564
:10170C00C0421B02D2F8106503F4F85343EA0141BE
:10171C0026F4473604F1400326F440769B00C2F8C9
:10172C0010659BB2D2F8106503F1804303F5C043FA
:10173C003143C2F8101518601B680193019BD2F855
:10174C00103543F00103C2F81035012303FA04F4F9
:10175C00C5F8044302B070BD013008287FF47EAF99
:10176C0098E70321BFE70134082CBED16FF01200BB
:10177C00F0E71369D269534023FA01F1D4F800372A
:10178C0011F0010F23F4403314BF4FF400324FF427
:10179C0040321343C4F80037DCE700BF0060004060
:1017AC002DE9F34153490D68002D67D0524B9A68CF
:1017BC001B689E68D2E902030340D2E9050420436A
:1017CC0023EA00033068D4691269D0F8100554403C
:1017DC00444023EA040401200027002B38D10B607D
:1017EC000B680093009B4548002301261F46D0F848
:1017FC00042306FA03F1114213D09A0002F180423D
:10180C0002F5C242116861B103F5A27150F82110C2
:10181C00176012680192C1F3042106FA01F1019AD2
:10182C000C430133082BE2D154BB75B1324B996890
:10183C001B689E68D1E902231340D1E905200243BD
:10184C0023EA0203012400258BBB02B0BDE8F08122
:10185C00034210D096F804C007F01F0242EA4C1263
:10186C00920002F1A04223EA0003D2F800C72CF444
:10187C00403CC2F800C701374000AEE72C46B2E747
:10188C001D4FD7F80880D8F800100029CDD00E686D
:10189C00D8F80C308A682340134203D04B68224698
:1018AC0038469847002EC0D031463668F0E71C42C7
:1018BC001CD03079CF6905F01F0242EA401208694A
:1018CC009200784002F1A042E84010F0010FD2F8EB
:1018DC00000718BF4FF4003720F4403008BF4FF416
:1018EC0040373843C2F8000723EA0403013564008B
:1018FC00AAE700BF7C610040F413002000600040A8
:10190C0010B50446002201210420FEF71BFF2368BA
:10191C00064A9868234600F1080100F089FB044B45
:10192C00984214BF6FF00F00002010BD151A000074
:10193C000000AD0B2DE9F04F054687B00C4617465D
:10194C00994680684FF0FF3101F00CF82B68DFF8F6
:10195C00B480986800F0B0FB0026BE4201D300248E
:10196C002BE094F808B01BF0080A43D11222514620
:10197C000DF1060001F071FB626802920BF001039D
:10198C0022688DF804301BF0020F8DF8059004923C
:10199C001ED17A1EB24202D9227D52071AD54BBBF8
:1019AC0020222B6801A9986800F0B0FB404513D0A9
:1019BC00134B984221D06FF004042B68986800F008
:1019CC008BFBA86800F0A8FF204607B0BDE8F08F9D
:1019DC005246E6E74022E4E7A86810304FF0FF31AA
:1019EC0000F0C0FFAB681B6A434504F10C04E2D164
:1019FC000136B2E76FF02204DFE76FF00F04DCE78B
:101A0C000B00AD0B0000AD0B02788B68012A0AD0DD
:101A1C001AB1022A09D0064A00E0064A1A6203F1FA
:101A2C00100000F079BF044AF8E7044AF6E700BF5B
:101A3C000100AD0B0000AD0B0100AE0B0200AE0BB4
:101A4C0010B50C4643685B6913B11C220021984702
:101A5C00044BAA221A7004F59060BDE8104000F007
:101A6C005BBF00BF05F000202DE9F84F214C8568C5
:101A7C002368013306462360A86843680A221F685E
:101A8C0000210123B847A86843685F6800230A2235
:101A9C001946B847A8684368DFF860905F68DFF8BC
:101AAC0060A001230A220021B8472368C82BC8BFB5
:101ABC0000234FF0AA08C8BF2360C34689F800B0C2
:101ACC004FF0FF3105F28C4000F04CFFB7688AF8FC
:101ADC000080FB691BB107F1180130469847B868C4
:101AEC0043681B6913B11C2200219847024B2278D2
:101AFC001A70E3E7E40400200AF0002008F000204C
:101B0C0007F000202DE9F0432C4B2D4EDFF8C09050
:101B1C00856800241C7087B0347080469C70DC7023
:101B2C001C7189F80040274800F0CEFBA860002803
:101B3C003FD0436821461F681C221623B8471C2738
:101B4C0089F80070204BA8682B614FF080536B61B3
:101B5C004368DB6805F10C0133B9EE2333706FF089
:101B6C00040007B0BDE8F083012298470028F4DB9D
:101B7C004FF0FF32214605F28C4001F0FFFD6FF073
:101B8C000503CDE90243CDE90444CDE900840F4BB4
:101B9C004FF4806205F1200105F5846000F042FFEE
:101BAC00A86843681B693BB13A46214698472046D2
:101BBC00D7E76FF01500D4E71846D2E705F0002000
:101BCC0006F00020153B00004D1A0000751A0000AD
:101BDC000AF00020044B1868421C04BF034B187811
:101BEC00831F58425841704730010010E00F00F03D
:101BFC00074B1B78062B09D1064B1B68C3F3031349
:101C0C00033B032B02D8044AD05C7047002070477A
:101C1C00E00F00F0E80F00F0223B000008B5FFF7E2
:101C2C00D9FF28B17C4B7D4A1B68C3F30423136096
:101C3C00FFF7DEFF10B17A4B7A4A1A60FFF7CAFF42
:101C4C0028B1794B794A1B68C3F342331360FFF711
:101C5C00CFFF20B1764AD36823F08073D360FFF7AF
:101C6C00B9FF40B14FF080430022C3F80C21C3F8F8
:101C7C001021C3F83825FFF7BBFF10B16D4B0322C1
:101C8C001A60FFF7B5FF40B16B4B05221A600122B9
:101C9C009A6700229A603F225A60684B1A68511C5E
:101CAC000BBF674B674B1A781B6802BF08331B6866
:101CBC00C3F30313062A4DD1033B032B03D8624A0B
:101CCC00D35C002B46D04FF08052604BD2F80414FA
:101CDC00C3F82015D2F80814C3F82415D2F80C1444
:101CEC00C3F82815D2F81014C3F82C15D2F8141414
:101CFC00C3F83015D2F81814C3F83415D2F81C14E4
:101D0C00C3F84015D2F82014C3F84415D2F82414A3
:101D1C00C3F84815D2F82814C3F84C15D2F82C1473
:101D2C00C3F85015D2F83014C3F85415D2F8341443
:101D3C00C3F86015D2F83814C3F86415D2F83C1403
:101D4C00C3F86815D2F84014C3F86C15D2F84424C3
:101D5C00C3F87025FFF73EFF28B13D4B3D4A1B6889
:101D6C0003F04F031360FFF735FF48B14FF080438A
:101D7C00D3F80024D20744BF6FF00102C3F800244B
:101D8C002E4B1B68062B09D12E4B1B68033B022BD9
:101D9C0081BF314A136843F4806313604FF0102302
:101DAC00D3F80022002A03DBD3F80432002B2FDAFD
:101DBC002A4B0122C3F80425D3F80024002AFBD0B7
:101DCC004FF010221521C2F80012D3F80024002A7B
:101DDC00FBD04FF010231522C3F804221F4B1A46D8
:101DEC00D3F800140029FBD00021C3F80415D2F855
:101DFC000034002BFBD0BFF34F8F1949194BCA6825
:101E0C0002F4E0621343CB60BFF34F8F00BFFDE7DA
:101E1C00154B164A1A6008BD2403001040350140CA
:101E2C0074C007400DF0ADBA440200103C050040F0
:101E3C00F0ED00E0A005004010560040300100100D
:101E4C00E00F00F034010010263B000000C0004001
:101E5C0058020010E40E00403C17004000E0014026
:101E6C0000ED00E00400FA05AC1300200090D00354
:101E7C0037B5344B01930D464FF48271044601F093
:101E8C0032FB4FF4927101F02EFB4FF48E7101F086
:101E9C002AFB4FF4847101F026FB00236B6385F859
:101EAC002F30AB6A012B18D12B6A5B0615D4022399
:101EBC0095F82D20C4F80032022A4FF0010323625A
:101ECC0018BF23602B6893B140F28623AB60AB68DC
:101EDC001D48C4F8043303B030BD0123E8E729469C
:101EEC00204601F028FB28B1019B013B0193019B8B
:101EFC00002BF4DC95F82F305BB91348019B002BB9
:101F0C00E9DC0023C4F800350523C4F800350F487C
:101F1C00E1E7D4F8C434C4F8C434002BEDD00C4A37
:101F2C000A4813F0010F18BF104613F0020F02F10C
:101F3C00010218BF104613F0040F064B18BF1846C9
:101F4C00DCE700BFA08601000000AD0B0100AD0B6B
:101F5C000000AE0B0200AE0B37B5304B01930D46B3
:101F6C004FF48271044601F0BEFA4FF4927101F005
:101F7C00BAFA4FF48E7101F0B6FA4FF4847101F095
:101F8C00B2FA002395F82D20C0F800326B6385F867
:101F9C002F3001239A420362294618BF836001F057
:101FAC00AAFA2B6883B140F28623AB60AB681C485D
:101FBC00C4F8043303B030BD2946204601F0BBFA07
:101FCC0028B1019B013B0193019B002BF4DC95F89C
:101FDC002F305BB91248019B002BEBDC0023C4F8BB
:101FEC0000350523C4F800350E48E3E7D4F8C434B3
:101FFC00C4F8C434002BEDD00B4A0A4813F0010F7F
:10200C0018BF104613F0020F02F1010218BF104660
:10201C0013F0040F054B18BF1846DCE7A08601002F
:10202C000000AD0B0100AD0B0000AE0B0200AE0BBF
:10203C00F8B507791D4D4FF03C0C0CFB07FC05EB7C
:10204C000C0494F82E607EBB63604B7BA66084F816
:10205C002D6084F8306084F8316084F838300C6876
:10206C0045F80C204FF0A04604F5E07340F20C6CE0
:10207C0046F823C04B68006803F5E07E46F82EC096
:10208C00C0F80845C0F80C358B68C0F824351AB177
:10209C0040F30730FEF746FB3C2303FB075504488F
:1020AC00012385F82E30F8BD0248FCE7E804002037
:1020BC000000AD0B0500AD0B026803790521C2F8D9
:1020CC000015044A3C2101FB0323022283F82E2035
:1020DC00704700BFE804002003680A490279C3F87E
:1020EC000813D3F8001221F00301C3F800120021E9
:1020FC00C3F80015044B3C2101FB0232012382F88A
:10210C002E30704786420400E80400202DE9F04789
:10211C00324D90F80480D0F800903C2303FB085318
:10212C000E4693F82D30012B964604D10B78012BDB
:10213C0006D12B4811E0022B02D10B78012BF8D1E0
:10214C003C24284BC9F8083304FB085494F830306D
:10215C002BB1A3682448C9F80433BDE8F0878EF08E
:10216C000403C3F3800384F83030C4F820E0B44691
:10217C00BCE80F0004F10C070FC7DCF800303B6023
:10218C007368A362F36863627378C9F8883533782F
:10219C00C8EB081A012B05EB8A0A1AD0B3B9CEF397
:1021AC00401E3C2303FB0853514683F82CE0484661
:1021BC00FFF7D2FE3C2303FB08F805EB080255F8A9
:1021CC000830002BC9D182F83030C6E74FF0010E31
:1021DC00E7E751464846FFF74BFEEBE7E8040020E3
:1021EC000500AD0B864204000B00AD0BF0B5294C7D
:1021FC0087B021464FF0402001F09DF9A446E0B98C
:10220C0094F82F70266AEFB9237B9A1E012A19D8ED
:10221C00616AA269914215D1E2696262C6F3401605
:10222C006269A262032B84F82C6084F82D7021461D
:10223C004FF0402003D1FFF78FFE07B0F0BDFFF742
:10224C0017FEFAE7144D0FCD01AC0FC42B682360B9
:10225C00E7B14FF04022D2F8C434C2F8C434980726
:10226C000CD501238DF8003000238CF83030730727
:10227C00E3D4DCE9003168469847DEE7590701D51D
:10228C000223EFE7DA07EFD50323EBE78DF80070B5
:10229C00EAE700BFE8040020F4040020094B70B505
:1022AC0053F820400130002653F82050A54200D8A6
:1022BC0070BD236820465B68984700B166600C349B
:1022CC00F4E700BF803A0000104B70B5104C054687
:1022DC001E469C4204D10E4CB44209D1002412E09B
:1022EC0062681AB122681268AA420CD00C34F0E76A
:1022FC0063680BB90C34EFE723682846196800F0C3
:10230C0076FE0028F6D1204670BD00BF18140020C0
:10231C00B813002008B50B4D4FF02002EFF31183DA
:10232C0082F31188BFF36F8F01F052FA012102285A
:10233C000446D8BF084601F05BFA2C62FEF760FA3F
:10234C00EAE700BFFC0500200248034A0021121AEC
:10235C0000F083BE000000204006002008B50648AF
:10236C00064A0749121A00F04EFE064A064907486B
:10237C00BDE8084000F047BE801300203C1400204C
:10238C00343B000000000000343B00000000002043
:10239C0008B5094B012202201A70FFF77FFF0320BA
:1023AC00FFF77CFF00F06EFBFEF720F8034A137B6F
:1023BC0023F00103137308BD3E0600209005002096
:1023CC0080B5364BA2B083F30888354C354E636923
:1023DC0043F4007363610025E02384F82230E57731
:1023EC0025766576A576636A43F4E0236362FEF78F
:1023FC0029FBFEF7FFF94FF0FF33A362E36207AB53
:10240C006C222946184600F028FE274C0127A060B4
:10241C0028468DF82970FFF741FF3846FFF73EFF3D
:10242C0000F068FA214B66624FF48062CDE90473C8
:10243C00CDE902551E4B1F49CDE90055304600F041
:10244C00D9FA737B23F0040213F01B0F727304D1BF
:10245C00B36913B9304600F0DFF8174B174D0593ED
:10246C0001220F23CDE903320023CDE90133009380
:10247C004FF4A072124B1349284600F0BBFA6B7B49
:10248C00E56023F004036B730F4B0A490548C4E95C
:10249C0006334FF48062064BFEF78EF98013002052
:1024AC0000ED00E090050020FC0500202A3B000018
:1024BC009D230000400600202F3B00002405002037
:1024CC0021230000400A00201406002010B5084CFF
:1024DC0023685BB1FEF7AAF82368064A184410611A
:1024EC0000211846BDE8104001F082B910BD00BFB4
:1024FC0034060020FC050020F8B50D464FF02003F3
:10250C00EFF3118483F31188BFF36F8F0D4B4FF4EE
:10251C00004140F2E7360027E1FB006700221A6118
:10252C0030464FF47A7200233946FDF7D1FD064B45
:10253C001860064B1D60FFF7C9FF84F31188BFF3C9
:10254C006F8FF8BDFC0500203406002030060020FB
:10255C004FF02003EFF3118183F31188BFF36F8FDA
:10256C00044B9A68D37B013BD37381F31188BFF37F
:10257C006F8F7047FC050020094B03F12802824243
:10258C0005D19B688B4202D14B7BDB0606D1D1E98E
:10259C00003213605A600023C1E90033704700BF5A
:1025AC00FC05002038B50D4C024604F1280001F062
:1025BC0081F8054600B9E568A3684AB95A7BD2068A
:1025CC0006D1AA6922B9DA897F2A01D9636238BD9A
:1025DC009D4201D0FFF77AFF6562F8E7FC05002009
:1025EC0010B54FF02003EFF3118483F31188BFF380
:1025FC006F8F084B9A68D37B0133D3730020FFF79E
:10260C00D1FF84F31188BFF36F8FBDE8104001F048
:10261C0047B800BFFC050020F8B54FF02003EFF3DE
:10262C00118483F31188BFF36F8F154A114651F84B
:10263C00283F8B421DD0E3B1D66A90F90E5093F926
:10264C000E70AF4210DD5A68C0E90032106058605D
:10265C00437B43F0400343730020FFF7A3FF84F355
:10266C001188BFF36F8FF8BDB34202D01B68002BEB
:10267C00E5D1D36A4360D36A01601860D062E7E7A2
:10268C00FC050020F8B504464FF02003EFF311854C
:10269C0083F31188BFF36F8F437B5A0603D5014632
:1026AC001748FFF769FF174AD2E90A3002F12801EF
:1026BC008B421FD0F3B194F90E6093F90E70B742B0
:1026CC0013DD5968C4E900310C605C60637B906871
:1026DC0043F040036373031B58425841FFF762FFFA
:1026EC0085F31188BFF36F8FF8BD834202D01B684E
:1026FC00002BE2D1C4E90010D36A1C60D462E5E778
:10270C0024060020FC050020154A164938B50C6833
:10271C009368A342144603D1BDE83840FFF7D6BEF8
:10272C0000250D6010490968B9B1D9897F2914D8E1
:10273C000E4993F90E5009688D420EDB0C498B4201
:10274C000BD0996949B91169814203DC1846FFF72E
:10275C0099FFE1E7091A116138BD00232361FBE7FA
:10276C00FC0500202C06002034060020300600203A
:10277C0024050020036D70B5044603B1984704F19D
:10278C00180001F00FF84FF02003EFF3118583F3DD
:10279C001188BFF36F8F204600F062FF637B064603
:1027AC00C8B1590607D521461148FFF7E5FE637BF2
:1027BC0023F0400363730F4B9868021B5042504147
:1027CC00FFF7F0FE637B43F00803637385F3118816
:1027DC00BFF36F8F70BD9B07F4D52146A068FFF740
:1027EC00CBFE637BA66023F002036373EAE700BFB2
:1027FC0024060020FC05002038B504464FF02003C9
:10280C00EFF3118583F31188BFF36F8F437B5A0667
:10281C0007D501460948FFF7AFFE637B23F0400361
:10282C006373074B9868031B58425841FFF7BAFE75
:10283C0085F31188BFF36F8F38BD00BF24060020CD
:10284C00FC05002070B504460D461646FFF7D4FF74
:10285C00637B43F0020363737DB12B68A5609D42DB
:10286C0029D043B394F90E2093F90E1091421CDD3C
:10287C005A68C4E9003214605C60731C22D026EAEA
:10288C00E6764FF4004540F2E73000214FF47A72BF
:10289C00C5FB06010023FDF71BFC0B49421C04F190
:1028AC001800BDE8704000F081B969688B4202D015
:1028BC001B68002BD8D16B6863606B6825601C604B
:1028CC006C60DAE770BD00BFCD36000010B50C4669
:1028DC001146064A9068064A10601A46FFF7B2FF86
:1028EC002046BDE81040FDF7C9BE00BFFC05002026
:1028FC002C060020044B002103F12802C3E90A2214
:10290C000846FFF7F9BD00BFFC050020014B986895
:10291C00704700BFFC05002070B504464FF0200343
:10292C00EFF3118683F31188BFF36F8F00F0F9FE7C
:10293C00054670B1437BDB0603D183690BB9FFF706
:10294C006BFE0023AB6631460548BDE8704000F0D5
:10295C0090BED4E902329A4218BF0133A360F2E769
:10296C003F06002010B402460B464FF02000EFF358
:10297C00118180F31188BFF36F8F946844B1013CCF
:10298C00946081F31188BFF36F8F002010BC7047E7
:10299C0033B981F31188BFF36F8F6FF00F00F5E738
:1029AC00014810BCFFF792BF3F06002010B54FF056
:1029BC002002EFF3118482F31188BFF36F8F427BF7
:1029CC00510704D484F31188BFF36F8F10BD22F02C
:1029DC00040112F01B0F417303D183690BB9FFF78C
:1029EC001BFE21460248BDE8104000F042BE00BF6D
:1029FC003F06002030B587B004460E9D04950D9D12
:102A0C0003950C9D02950B9D01950A9D0095FDF774
:102A1C00B1FE034B9B6803B11B6E236607B030BD40
:102A2C00FC05002070B586B0002605960E9E049617
:102A3C000D9E03960C9E02960B9E0F9D01960A9E70
:102A4C0000960446FFF7D6FF6B1C03D02DB9204629
:102A5C00FFF7ACFF204606B070BD4FF4004640F2C5
:102A6C00E73000214FF47A720023E6FB0501FDF7F5
:102A7C002FFB0349421C04F1180000F097F8E9E71A
:102A8C00CD3600002DE9F04F284E294D87B0B046C9
:102A9C00B54205F1300410D3FFF75AFD244CDFF892
:102AAC0094A04FF4004940F2E7360027444521D367
:102ABC0007B0BDE8F04FFFF793BD54F8043C059305
:102ACC0054F8103C049354F8143C039354F8183CF9
:102ADC00029354F81C3C019354F8203C009354E9A5
:102AEC000A2354E90C01FFF785FF54F8303CDD64F0
:102AFC002546CDE7616A4B1C04D0256821B92846D0
:102B0C00FFF754FF3034D1E7B346BC46E9FB01BCB8
:102B1C004FF47A72002358466146FDF7D9FA5146B4
:102B2C00421C05F1180000F041F8EBE718140020E6
:102B3C0018140020CD360000034B1B680BB9FDF7B1
:102B4C0075BD0020704700BF38060020036840B1F7
:102B5C00074A5268904204D01BB19A6881680A44B3
:102B6C009A60426813605A600023C0E900337047D2
:102B7C00B01300200B4B10B51C689C4208BF0024FE
:102B8C00FFF7DAFF54B1A368181A20EAE070064B7D
:102B9C001B6913B19842A8BF184610BD6FF00040D6
:102BAC00F5E700BFB0130020FC05002070B504460B
:102BBC001646C1604FF02003EFF3118583F31188A3
:102BCC00BFF36F8FFFF7B8FF184B1A68012EACBF1D
:102BDC00801901309A42A06001D05E6832B95A68FF
:102BEC0062605A68236014605C600AE09068A168B7
:102BFC00884215DD411A91605168C4E900210C60CE
:102C0C0054601A689A4206D0944204D1FFF7B2FF7E
:102C1C000021FDF7B5FC85F31188BFF36F8F70BDF4
:102C2C00091AB242A160DAD01268D7E7B0130020BB
:102C3C002DE9F04B0446FFF767FD4FF02003EFF34F
:102C4C00118583F31188BFF36F8F214E214FDFF86D
:102C5C0088903460B846D9F8004032684C45D7E9C2
:102C6C0000BC05D024B1A368934214DD9B1AA36069
:102C7C001BEB02004CEBE2710024C8E9000134604C
:102C8C00FFF778FF2146FDF77BFC85F31188BFF336
:102C9C006F8FBDE8F08B1BEB03004CEBE371D31A89
:102CAC0033600023C7E90001A3602046FFF74EFF05
:102CBC0085F31188BFF36F8FE36898474FF02003BB
:102CCC00EFF3118583F31188BFF36F8FC3E700BF58
:102CDC0038060020A0040020B013002038B5074CA3
:102CEC00074DAC4201D3002038BD04F1140320463B
:102CFC00C4E9053300F006F81C34F2E71814002080
:102D0C00181400202DE9F04F46680789016890F8E7
:102D1C000A80FF2306FB07FCC37261443246002382
:102D2C004FF00C09984505DC002319468F4220DC36
:102D3C00BDE8F08FD0F80CA0BCFBF2F509FB03FE4C
:102D4C000AEB0E0404F1040B202DC4E901BB05D8D9
:102D5C00C372920822F003020133E3E715F11F045A
:102D6C0048BF05F13E0464114AF80E1001EB8401D2
:102D7C00EFE7C268056802F1040CEC1845F803C0D3
:102D8C0095686560956801312C6033449460CDE79B
:102D9C00044608B5084611461A46A047FFF7B6FD8B
:102DAC00FDF764FE70478368C9B20C2202FB013147
:102DBC004B7A23B9087AB0FA80F0400970470220A8
:102DCC00704738B583680C2404FB01340123054695
:102DDC0063724FF02003EFF3118183F31188BFF37B
:102DEC006F8F23682BB160681A682260834208BF1A
:102DFC00626081F31188BFF36F8F03B938BDD3E9DB
:102E0C00012128469047E4E70368D0F808C02DE973
:102E1C00F04105469F68CEB24AB10C2373435CF86F
:102E2C0003309A425CD013B11B68002BF9D14FF0E0
:102E3C002003EFF3118083F31188BFF36F8F0C2104
:102E4C0071430CEB01031C7A0134E4B21C7280F365
:102E5C001188BFF36F8F32B34FF080404FF0030EE9
:102E6C00C0F808E3587AA0B94FF0200EEFF31188A0
:102E7C008EF31188BFF36F8F1060D3F804E0BEF1AE
:102E8C00000F20D15A604CF8012088F31188BFF351
:102E9C006F8F4FF080430321C3F8041318B1D2E9AC
:102EAC00013128469847012C0BD10C237343FB5856
:102EBC006BB90C2303FB06760122B37A03F1804332
:102ECC001A6000200EE0CEF800205A60DDE728469C
:102EDC0098470028EDD131462846FFF772FFF0E7FE
:102EEC006FF00F00BDE8F0810022FFF78DBF0022CC
:102EFC0010B5012104461046FDF724FC0020FDF717
:102F0C0011FC4FF080430122C3F818250322C3F8AB
:102F1C000423A3680020C3E90000A368C3E90300ED
:102F2C0010BDF7B5026886689768CCB24FF02003E5
:102F3C00EFF3118583F31188BFF36F8F0C2262437B
:102F4C00B1180B7A3BB3013BDBB20B7233BBB35002
:102F5C003A444B605368D3B90C2303FB047301212F
:102F6C00DA7A1B8902F1804203F18043116000225E
:102F7C001A601B680193019B0C2101FB0464002067
:102F8C00607285F31188BFF36F8F03B0F0BD984763
:102F9C000028E1D1F0E76FF04400F2E70020F0E701
:102FAC0070477047FDF732BC00F049BB0146006822
:102FBC0000F045BB08B5FDF733FCBDE80840FDF754
:102FCC004FBB07B5002101A8FDF720FE03B05DF84B
:102FDC0004FBC9B202788A42034600F1010004D016
:102FEC00002AF7D1002918BF002318467047013872
:102FFC00013910F8013F11F8012F934201D1002B38
:10300C00F7D1981A7047F0B581EA0004A50703467A
:10301C000BD0013B0A4491421AD1F0BD002AFCD0DE
:10302C0011F8014B03F8014B013A9C07F6D19508B6
:10303C00AC001E1F0F19B94205D16FF0030606FB39
:10304C0005222344E5E751F804CB46F804CFF2E718
:10305C0011F8014B03F8014FDDE770B5C9B2034617
:10306C009C0710D141EA012444EA0445940803EB7F
:10307C008406B3420DD16FF0030505FB04241C44F8
:10308C00A34209D170BD002AFCD003F8011B013A00
:10309C00E6E743F8045BECE703F8011BF0E7F0B557
:1030AC000346B1FBF2F702FB1715092D8CBF27263F
:1030BC0000261C4630353544914204F8015B06D29B
:1030CC0000222270241A834204D82046F0BD3946CF
:1030DC002346E6E71A78017803F8011900F8012B6A
:1030EC00F1E770B5D0E90065720806F0010342EA19
:1030FC00C5729B184FF000014FEA550444EB0101D7
:10310C00C0E9003170BDD0E900322DE9F043023343
:10311C004FF005074FF0000C42F10002B3EB0C0628
:10312C00B2FBF7FE07FB0EF162EB0101F20842EA7B
:10313C004172B2FBF7F1CA001CEB02084FEA517363
:10314C004EEB0309A2FB0723B31AB3FBF7F318EBFF
:10315C00030449F10005C0E90045BDE8F0830B68A4
:10316C00002B70B510DD013B02680B6044680A212E
:10317C00A2FB015601FB046626F07043C0E9005324
:10318C00310F3031084670BD3021FBE74FF0FF3076
:10319C007047FEF709BAFEF741BD10B504688068A8
:1031AC00A468C0692468012904D15840C4F80405F6
:1031BC00002010BD003320FA02F04FF0010118BFBF
:1031CC00012300F001009140834214BFC4F808159C
:1031DC00C4F80C15ECE770B504688068A468C06985
:1031EC002568D5F81465D5F81045D5F80455604018
:1031FC006C403440604001291CBFD04000F00100FD
:10320C001860002070BD8368186830B558B1002470
:10321C00814213D108685CB95C681860A14200D186
:10322C0058600020086072B9002030BD2846EFE7D6
:10323C0020605868814208BF5C60F2E7056804466C
:10324C00002DF3D13AB11A680A6058681960002849
:10325C00EAD15960E9E76FF01500E6E72DE9F74F81
:10326C008046856803F47040B0F5804F1E4641D00F
:10327C0009DCB0F5805F3FD0B0F5405F3ED090B137
:10328C006FF0150033E0B0F5E04F39D004DCB0F549
:10329C00A04FF5D1032006E0B0F5404F32D0B0F589
:1032AC00504FEDD1072006F44077B7F5807F2BD037
:1032BC00A7F500746342634106F0010C4FEA4C071A
:1032CC00012947EA0C0718BFD4B247EA002040EAAC
:1032DC00830712BFA1464FF01F0900244FF0A04AEC
:1032EC004FF0010B06F00203A1450FD2002003B0F2
:1032FC00BDE8F08F0220D6E70120D4E70420D2E706
:10330C000520D0E70620CEE70323D5E7D8F8002028
:10331C009268117904F01F0242EA411202F5E07240
:10332C004AF822700BFA04F2A968002B25D011433D
:10333C00A96069690193B0064CBF1143914369615F
:10334C00A96970064CBF11439143A96129697007A3
:10335C004CBF114391432961E96930064CBF0A43C4
:10336C0021EA0202EA6121464046FEF769F900288B
:10337C00BDD10134E4B2019BB6E721EA0201D7E7E3
:10338C0001292DE9F04118BFD4B28768064612BF57
:10339C0025461F2500244FF00108AC4202D900201D
:1033AC00BDE8F081FB6808FA04F223EA0203FB6033
:1033BC0021463046FEF744F90028F1D10134E4B23D
:1033CC00EBE701292DE9F04118BFD4B28768064616
:1033DC0012BF25461F2500244FF00108AC4202D92C
:1033EC000020BDE8F081FB6808FA04F21343FB608F
:1033FC0021463046FEF724F90028F2D10134E4B21C
:10340C00ECE70368CA079B6805D4C1F34202012AA2
:10341C0004D0022A0BD06FF0150070471B684FF0D8
:10342C00CC72C3F8242583680020596270471B684E
:10343C004FF0CD62F5E7032914BF6FF02200002096
:10344C00704708B5FEF75EFB0028B4BF6FF00400B0
:10345C00002008BD70B5856898B00DF10703286889
:10346C0002930123039308AB059340230024069396
:10347C0007238DF807408DF810408DF81C304368F9
:10348C0002225E6802A91523B047A04214DB9DF806
:10349C00233003F00F029DF8243043EA0223AB8063
:1034AC009DF8253003F00F029DF8263043EA0223E5
:1034BC00EB80204618B070BD6FF00400FAE70329CA
:1034CC0014BF6FF022000020704783680888012821
:1034DC0005D1DA610AB108689861002070476FF075
:1034EC002200704700470023435082B04358019399
:1034FC00019B02B070474B6B8A6A934208D24A6AAE
:10350C00D25CC0F81C2501334B630123184670476D
:10351C0091F82C301BB10123C3610023F6E70A6A32
:10352C0012F0400F4FF0010215BFC261426181F8E9
:10353C002D201346EAE791F82F20F8B504460D46E6
:10354C00002A60D1D0F824314E6B8F6AB3B14FF49E
:10355C009271FFF7C8FF0123636185F82F30BE42DB
:10356C004FD1D4F80431002B4BD04FF4827120464C
:10357C00FFF7B9FF002285F82D2013E0D0F81C319D
:10358C0093B14FF48E71FFF7AEFFD0F824311BB11D
:10359C004FF492712046DCE72946FFF7ACFF024658
:1035AC000028DCD11046F8BDD0F80831002BD6D05D
:1035BC004FF48471FFF797FFD0F82431002BE7D13B
:1035CC006B6BA96A8B42CAD2696AD0F81805C854C9
:1035DC006B6BA96A0133481E83426B6308D1286A5E
:1035EC0040061DD40223C4F8003201232362B6E73F
:1035FC008B42FAD12B6A5B06B1D5022385F82D30AC
:10360C00D0E70122CEE74FF49271FFF76CFF4FF435
:10361C008E71FFF768FF4FF48471FFF764FFA0E72A
:10362C008B42E2D1E9E74FF02002EFF3118382F3F2
:10363C001188BFF36F8FFEE708B5FFF7F4FF70B585
:10364C0005460E46FFF762F9314604462846FFF759
:10365C00F3FF2046BDE87040FDF708BAFFF7A1BCA8
:10366C00437BDB0603BF8069B0FA80F04009002081
:10367C00704721B9EFF3058008B9FCF7FFBF81F360
:10368C001188BFF36F8F7047034620B9EFF30582A3
:10369C000AB9FCF7F3BF83F31188BFF36F8F704740
:1036AC004FF02003EFF3118083F31188BFF36F8F7A
:1036BC00FFF7EABF0368984214BF18460020704712
:1036CC0050F8103C70B50446A0F11805CBB14FF082
:1036DC002003EFF3118683F31188BFF36F8F294614
:1036EC0050F8100CFEF748FF14F80B3C23F00203C3
:1036FC0004F80B3C86F31188BFF36F8F002344F85A
:10370C00103C14F80B3C23F0140304F80B3C284633
:10371C00FFF7A6FF20B12846BDE87040FEF77CBF3E
:10372C0070BD38B54FF02003EFF3118283F311888D
:10373C00BFF36F8FFFF7BEFF044682F31188BFF310
:10374C006F8FC8B14FF02003EFF3118583F311880D
:10375C00BFF36F8F01468068FEF70EFF637B23F08B
:10376C000203637385F31188BFF36F8F0023A3608B
:10377C0004F1180000F016F8204638BDC0E902121A
:10378C00C0E90000704710B5029C047383730424D5
:10379C0000234473C373C0E90633C0E91333C0E993
:1037AC00161210BD10B54FF02002EFF3118482F306
:1037BC001188BFF36F8F03683BB1FFF7C7F9002087
:1037CC0084F31188BFF36F8F10BD6FF01500F7E70E
:1037DC0010B54FF02003EFF3118483F31188BFF37E
:1037EC006F8FFFF7C7F984F31188BFF36F8F10BD8C
:1037FC0070B504460E464FF02003EFF3118583F3AA
:10380C001188BFF36F8FFFF7B5F9012805DDA042D2
:10381C0003DD31462046FCF7B3FE85F31188BFF378
:06382C006F8F70BD7047B4
:02383200FFFF96
:08383400DCC8FF7F0100000069
:10383C00000000006104000000000000B12F000037
:10384C0000000000B12F000000000000B12F0000AC
:10385C00F9210000F134000000000000B12F00003D
:10386C0000000000AD17000000000000B12F0000A8
:10387C0000000000B12F000000000000B12F00007C
:10388C0000000000B12F000000000000B12F00006C
:10389C0000000000B12F000000000000B12F00005C
:1038AC0000000000B12F000000000000B12F00004C
:1038BC0000000000B12F000000000000C90400004F
:1038CC0000000000B12F000000000000B12F00002C
:1038DC0000000000B12F000000000000B12F00001C
:1038EC0000000000B12F000000000000B12F00000C
:1038FC0000000000B12F000000000000B12F0000FC
:10390C0000000000B12F000000000000B12F0000EB
:10391C0000000000B12F000000000000B12F0000DB
:10392C0000000000B12F000000000000B12F0000CB
:10393C0000000000B12F000000000000B12F0000BB
:10394C0000000000B12F000000000000B12F0000AB
:10395C0000000000B12F000000000000B12F00009B
:08396C0000000000B12F000073
:10397400EC3A0000FB2E0000EC390000F23A0000A3
:103984000905000000000000EB3A0000A90B00004C
:1039940000000000EB3A0000ED15000000000000FC
:1039A400153B00001D160000403A00001C3B0000BF
:1039B4000D190000583A0000EB3A00004F340000A3
:1039C40000000000EB3A0000E92C000000000000B9
:1039D40001000300F52E00002F2F0000152E00001B
:1039E40000000000B32D00000000000000000000F3
:1039F4000001000400000000000000000401080CA5
:103A0400020000000C3A000000000000063B000029
:103A140024000207000000200E3B00001E000B11D2
:103A240069320000A7310000E331000013320000C6
:103A3400CF3300008D330000000000000000005070
:103A4400000000000F3400004119000000000000D5
:103A540000000000004000400000000007000000DB
:103A6400060000000000980100000000CB340000B4
:103A7400D73400006134000043340000B813002040
:103A8400E8130020F4130020181400201814002058
:103A9400F5FFFFFF4353543831365300436F756CC1
:103AA40064206E6F742067657420257320646576C6
:103AB4006963650A00436F756C64206E6F742073CC
:103AC400657420747269676765720A0073656E7342
:103AD4006F725F73616D706C655F66657463682097
:103AE4006661696C65640A00434C4F434B0073790B
:103AF400735F636C6F636B002D2B20233000686C45
:103B04007A00464C4153485F30005352414D5F3078
:103B1400004750494F5F30004932435F3100010094
:103B24000000000001016D61696E0069646C65004C
:103B34009931000084130020841300200100000048
:103B440001000000941300209413002000000000E2
:103B54000100000000000000000000000090D003FD
:083B6400B0130020B013002093
:103B6C00983900000000000000000000C839000077
:103B7C0000000000000000008C3900000000000074
:103B8C000000000074390000D8390000A80400209F
:103B9C00803900000000000000000000A439000083
:103BAC00243A0000C4040020B0390000483A000058
:103BBC0084130020BC390000703A00000000002083
:103BCC001814002018140020000000000100000050
:103BDC002814002028140020000000000000000021
:043BEC000F000000C6
:04000003000008A150
:00000001FF
