:1000000070370020CD45000053AE0100A144000030
:10001000A1440000A1440000A1440000A14400004C
:10002000A1440000A1440000A144000039430000A5
:10003000A1440000A1440000E542000043AE0100DD
:100040008D4500008BD301008D4500008D450000DB
:100050008D4500008D4500008D4500008D45000058
:100060008D4500008D4500008D4500008D45000048
:100070008D4500008D4500008D4500008D45000038
:100080008D4500008D4500008D4500008D45000028
:100090008D4500008D4500008D4500008D45000018
:1000A0008D4500008D4500008D4500008D45000008
:1000B0008D4500008D4500008D4500008D450000F8
:1000C0008D4500008D4500008D4500008D450000E8
:0C00D0008D4500008D4500008D450000AE
:0400DC00FFFFFFFF24
:1000E00053B94AB9002908BF00281CBF4FF0FF319F
:1000F0004FF0FF3000F00CB8ADF1080C6DE904CE04
:1001000000F008F8DDF804E0DDE9022304B07047F0
:10011000704700BF2DE9F04F099F154604468E46F3
:100120001E46002B40F0CC808A42B2FA82FC4CD9A9
:10013000BCF1000F0BD0CCF1200801FA0CFE20FA24
:1001400008F802FA0CF548EA0E0E00FA0CF44FEA31
:1001500015491FFA85F8BEFBF9FA210C09FB1AE3D1
:100160000AFB08FB41EA03439B452AD9EB180AF135
:10017000FF3004D29B4502D9AAF102002B44A3EB25
:100180000B03A4B2B3FBF9F209FB123302FB08F82C
:1001900044EA0344A04516D92C1902F1FF3303D2D7
:1001A000A04501D9931E2C44A4EB080443EA004067
:1001B00027B124FA0CF400233C607B603146BDE893
:1001C000F08F5046DBE71346EEE702B9FFDEBCF1E5
:1001D000000F2ED18B1A01264FEA154EAAB2B3FB9F
:1001E000FEF8210C0EFB183308FB02F941EA034329
:1001F000994561D9EB1808F1FF3004D2994502D92D
:10020000A8F102002B44A3EB0903A4B2B3FBFEF157
:100210000EFB11334A4344EA0344A2424ED92C193F
:1002200001F1FF3303D2A24201D98B1E2C44A41A40
:10023000BCE7CCF1200E02FA0CF521FA0EF901FA16
:100240000CF320FA0EFE4EEA03034FEA154800FABB
:100250000CF4B9FBF8F11FFA85FE08FB1192180C9B
:1002600001FB0EF640EA0242964221D9AA1801F19A
:10027000FF3003D2964201D9881E2A44921B9BB2BA
:10028000B2FBF8F908FB192209FB0EFE43EA024310
:100290009E450FD9EB1809F1FF3604D29E4502D9CD
:1002A000A9F102062B44A3EB0E0346EA004693E7AE
:1002B0000846E3E74E46F6E74046A4E70B46B6E7B6
:1002C0008B4205D90FB1C7E900010026304675E71A
:1002D000B3FA83FCBCF1000F0FD18B4201D38242F1
:1002E00009D8841A61EB030E0120002F6AD0C7E9F8
:1002F000004E002662E76046F7E7CCF1200E03FAD5
:100300000CF322FA0EF521FA0EF41D4301FA0CF358
:1003100020FA0EF10B434FEA154A00FA0CF6B4FB33
:10032000FAF91FFA85F80AFB19401C0C09FB08F1C1
:1003300044EA0044A14202FA0CF23FD92C1909F117
:10034000FF3004D2A14202D9A9F102002C44641A60
:100350009BB2B4FBFAF90AFB194409FB08F843EA1B
:10036000044188452CD9691809F1FF3304D2884526
:1003700002D9A9F10203294443EA0040A1EB080194
:10038000A0FB02894945C2464C4602D306D14645E8
:1003900004D2B8EB020A69EB0504013897B1B6EB59
:1003A0000A0361EB040606FA0EFE23FA0CF34EEA8A
:1003B000030326FA0CF6C7E900369AE74846C6E773
:1003C0004B46D9E73E46F9E62DE9F041454DD5F8D3
:1003D000D430996811F0010186B021D101AA40F60C
:1003E000034005F097FE0446002877D1019B9B68E7
:1003F0001B7893B9BFF35B8F2B4653F8702FBFF375
:100400005B8F02F00502BFF35B8F53E8001F43E8E8
:1004100000200028F9D1BFF35B8F019816F080F817
:1004200001AA002141F2030005F074FE04460028F1
:1004300054D1019B2C489968082201311AF0DDFD46
:10044000019816F06DF8214601AA41F2010005F06D
:1004500061FE0446002841D1019883685A782A74C5
:10046000D9789A7842EA01226A821A796A74197AEA
:10047000DA7942EA0122AA825A799B7942EA032375
:10048000EB8216F04DF8214601AA41F2020005F078
:1004900041FE044610BB019B14489968402201317B
:1004A0001AF0ABFD95F84230019843F0060385F849
:1004B000423016F035F82B7F59061FD401234FF038
:1004C000000163F307010A4A0A4B0B489B1ADB0839
:1004D00063F38F111AF09DF86FF01204204606B0F6
:1004E000BDE8F081385400205054002058540020BA
:1004F00028ED0100E8ED010045050200214601AAB2
:1005000042F2030005F006FE04460028E6D1019BF6
:10051000BD489968082201311AF06FFD019815F065
:10052000FFFF214601AA42F2020005F0F3FD044656
:100530000028D3D1019B9B68B3F80120A5F888203F
:1005400091B221B1DA78B14811461EF081F80198D4
:1005500015F0E6FF2C7F14F0200400F0D58095F80C
:100560003C301A0711D501AA002142F21C0005F007
:10057000D1FD04460028B1D10198836853F8012FBA
:100580005B68C5E9202315F0CBFF95F878309B0612
:1005900000F1D68095F878305F0600F1FD800821E3
:1005A00042F2010005F048FC0446002800F0B38048
:1005B000082108441DF04AFB95F8781011F0400F0F
:1005C00040F2022308BF03238E074CBF43F02C03E5
:1005D00043F00C030246880695F8790048BF43F0C3
:1005E000400310F0090F18BF43F40063C90795F8E2
:1005F000421001F0060148BF43F01003062908BF6E
:1006000043F4C073184600211AF0A4FE21460022CC
:1006100042F2010005F07EFD044600287FF45EAF43
:100620002B7F9A061ED4B5F88810D9B901AA41F2D9
:10063000050005F06FFD044600287FF44FAFB5F8C4
:10064000883063B9019B9B685A78997842EA012205
:10065000A5F888209A886D4811461DF0F9FF019889
:1006600015F05EFF082140F6014005F0E5FB044669
:10067000002850D0082108441DF0E8FA95F8783099
:10068000DB07024640F1B5805DA1D1E900011AF017
:1006900061FE2146002240F6014005F03BFD044684
:1006A00000287FF41BAF01466A464FF6014005F073
:1006B00031FD574E574BF61AC6F3C906002800F015
:1006C000B5804FF00001022363F30701524866F33F
:1006D0008F1119F09EFF08F00DF8044600287FF4F2
:1006E000FDAE4E494E481EF02FF8EB79002B40F03E
:1006F0001E8103234FF0000163F3070166F38F119E
:10070000484819F086FFE9E6022140F66D4005F001
:1007100093FB064610B96FF03604DFE6022108307D
:100720001DF094FA0123447003702246314640F6CE
:100730006D4005F0EFFC044600283FF410AFCDE615
:1007400001AA002142F22F0005F0E4FC0446002833
:100750007FF4C4AE01988368B3F80180B3F80370E6
:1007600015F0DEFE042142F2240005F065FB06468A
:100770000028D0D0042108301DF068FA2246A0F8E5
:1007800000804780314642F2240005F0C3FC044655
:1007900000283FF4FFAEA1E6022142F22E0005F050
:1007A0004BFB04460028B6D0022108301DF04EFA5B
:1007B0006FF07B030370032343702146002242F253
:1007C0002E0005F0A7FC044600287FF487AE014602
:1007D00001AA42F22A0005F09DFC044600287FF49D
:1007E0007DAE019883685B7885F8A43015F098FE9B
:1007F000D5E60D484FF0005149E700BFAFF3008048
:100800009088000200800020B0540020C4540020D2
:10081000E8ED010028ED010069050200B562000065
:10082000205500203D06020010880002009B43482E
:100830009C6803224FF0000362F30703B4F8012021
:10084000032A96BF3E493F4951F8221066F38F13A1
:1008500019F000FFB4F8011003224FF0000362F317
:100860000703022966F38F13B4F8032038D1032A53
:1008700036D8354951F82210344819F0EBFE0322DE
:100880004FF0000362F3070362793148032A96BFF1
:1008900030492C4951F82210CDE90112A279039276
:1008A000B4F807200492D4F80920059266F38F1358
:1008B000052201A919F001FF009815F031FE6A46E2
:1008C00000214FF6024005F025FC044650B14FF0E0
:1008D0000001022363F3070166F38F111E48F8E657
:1008E0001849C9E7009B1D489968022201311AF096
:1008F00084FB009815F014FE6A4621464FF603402B
:1009000005F008FC40B14FF00001022363F307013A
:1009100066F38F111248DCE6009B124899680122A9
:1009200011441AF06AFB009815F0FAFDD3E6042191
:100930000D481AF0B6FC06F019FACFE58D05020055
:1009400080F30100BE0C020048F30100A60502007E
:10095000BE050200B0F30100EB050200995400202F
:100960001406020098540020A85400200000000043
:100970002DE9F04F91B002230F9330B910F0ECFD48
:100980000646304611B0BDE8F08F894F97F8CC602D
:1009900016F001063D4601D00C26F2E797F82C80B0
:1009A00097F8290027222D2312FB083897F87C306E
:1009B00002FB03737D3300F003000B9314F0CCFAB9
:1009C00097F8DA00840707EB080B40F1B180324654
:1009D00007F1DC01C0F3800014F034FBFF288146EE
:1009E00002D0304614F056FD5A464946704814F07D
:1009F000BFFA0B9A6E48494614F0BAFA17F8083055
:100A0000580600F1AC8017F8083013F00E0F00F014
:100A1000B08095F8283085F8DB90C3F342030121BC
:100A20000DF13B008DF83B301CF09CFA002800F0E3
:100A3000B18117F808400B9A9BF80130527804F006
:100A40000F04022C00F1FF3140F073811033DB0002
:100A5000584300F5AA70642301FB030095F8203089
:100A60005449ED61002464F3000385F820303123FC
:100A70002B60C5E905444CA3D3E900236C60AC604E
:100A8000A0FB0101FFF72CFBE860B5F8D8901CF043
:100A900096FB8246B9F1000F06D117F8084004F022
:100AA0000F04631E5C425C4195F82830DFF810812A
:100AB000EA6864F3000385F8283013F001043E4B24
:100AC00004920FAFCDE90787CDE9053500F04A81E3
:100AD0000020CDE900020321CDE9020053460222A5
:100AE0000DF07AFC39460FF0BDFC002840F0528131
:100AF00002220F92CDE90787304A0695CDE9020020
:100B00004AF2D833CDE90402009301905346012202
:100B100003210DF061FC39460FF0A4FC002840F0E1
:100B2000398195F8CC3043F0010385F8CC3028E7C3
:100B300017F808003146C0F380100DF019FD0622A9
:100B4000014604460BF102001AF057FA0B9B0622ED
:100B50002146981C1AF051FA4FF0FF094EE7062182
:100B60000BF102001CF0C7F900287FF44CAF1226ED
:100B700007E76B6A002B7FF40FAF0FF0CBFB8246C9
:100B800028B10FF0D3FB20B950460FF0C9FB072660
:100B9000F7E60C9011F0A4FB0C9B044690B91846A4
:100BA0000FF0CAFBF0E700BF8D49FD1A07000000F7
:100BB0009410002000CA9A3BED0F01004912010079
:100BC0005904010000F11C020C924FF6FF7282855D
:100BD000826F12B900F17002826704F16C0204F1B5
:100BE0006801A06F0D931CF091F9714AC4F82CA113
:100BF0004FF01B11C4E91712B4F8642094F84010A8
:100C000022F4EF6222F0070242F4887242F00102FD
:100C1000A4F8642094F83D2002F03F0262F07F02C5
:100C200084F83D20002262F3000184F84010062180
:100C3000A4F8C41094F8DC1084F83F2021F00301DC
:100C400084F8DC105B49C4F81C1194F82211628608
:100C500021F003016263C4E913226265A4F8C8208D
:100C6000A4F8CC20A4F8E82084F8EA20C4F80021F5
:100C7000A4F80421A4F81821A4F8202184F82B2139
:100C8000A267A4F87C2084F8221194F87E10A4F8BE
:100C9000502121F01F0184F87E1094F85211A4F81D
:100CA000702121F0070184F8521194F87211A4F810
:100CB000982162F30411A4F8A42184F8721111F0B0
:100CC00043FCA4F8D60011F045FC3B49A4F8D80039
:100CD000D4F8A8010140C4F8A81111F041FC94F81F
:100CE000AC1160F3020184F8AC1111F03FFC0D9BD4
:100CF000C5F8D4300C9BC5F8D0A06B6294F8AC1149
:100D000094F82030E461002260F3061162F3C3011D
:100D100062F3000384F8AC11C4E96F22C4E96D22C8
:100D2000C4F8B021C4E9052284F8203013F0DEFABB
:100D30006FE6012C12D0D20080324CB9103302F58C
:100D40002772DB0002F19800184403F59A7383E6DA
:100D5000062CF3D010234FF4AA72F2E716234FF4B7
:100D60002D72EEE715484FF6FF731FFA89F8CDE9AB
:100D70000243A8FB0001912303FB08110AA3D3E956
:100D80000023FFF7ADF95346CDE9004002220321CD
:100D90002046BEE66B6A002B3FF4FEAD084810F01B
:100DA000A7F9F9E5AFF300808D49FD1A07000000AF
:100DB000480148017F4101000000FFFE002AE7844E
:100DC00094100020000000002DE9F04F9246828D23
:100DD0004FF6FF739A428DB0044688460CD140F21C
:100DE0000333CA4ACA49CB4818F0C4FA404080F3DA
:100DF00011884FF0030002DF94F8E92094F8E830FE
:100E0000934210D194F8521111F001050BD194F8CE
:100E1000050194F8046186421DD00122023B84F84A
:100E2000EA2084F8E93094F8E81094F8E930CB1A15
:100E300003F00303022B40F0BD8394F8EA30013B3A
:100E4000052B01F28C80DFE813F063038905D905D7
:100E50008A0810072F0794F8193194F81861B342E3
:100E600063D09B1BDE07DED594F8DC1011F0010681
:100E70002ED00FF08FFA06460028D4D094F81831FF
:100E800084F81931A38DC3800223037190F82030B8
:100E900043F0030380F82030092380F8213080F8E4
:100EA00023300822294624301AF0D1F8D4F81C3116
:100EB00086F82430C3F307221B0C86F8252086F819
:100EC0002630314608680FF03DFA0FF045FAAAE7E0
:100ED00091481BF0CBFF05460028A4D094F81931A7
:100EE000013B84F819318D4BC4F81C31037943F070
:100EF000030303710923437194F93D30002BACBF08
:100F000008230E230822C371314610441AF09FF8BB
:100F1000D4F81C312B72C3F307221B0C6A72AB721C
:100F2000294620461CF06BFBCAE094F8213194F866
:100F30002051AB4264D05B1BD8077FF574AF94F8A7
:100F40002231D90725D474481BF090FF01460028B0
:100F50003FF469AF94F82131013B84F8213194F8D2
:100F6000223143F0010384F82231037943F0030373
:100F70000371062343710C23C3710A2303726FF0BC
:100F80000E034372052383724FF0FF33C372037362
:100F9000C7E79A0726D50FF0FDF9014600283FF470
:100FA00042AF94F8203184F82131A38DC38002230D
:100FB000037190F8203043F0030380F820300623BB
:100FC00080F821300C2380F8233094F8233180F806
:100FD0002430B4F82431A0F82530B4F82631A0F834
:100FE00027306FE740F60233484A4D49494818F028
:100FF000C1F9404080F311884FF0030002DF12E78F
:1010000094F8715194F870319D4200F03881454D4B
:101010002B6813B19C427FF406AF94F8723103F051
:101020000703052B00F2288101A252F823F000BF2C
:1010300049100000CB10000021120000270E000014
:10104000270E0000270E00003348E68E678E1BF047
:101050000DFF014600283FF4E6AE94F872310422F9
:1010600062F3020384F87231037943F003030371DE
:10107000182343710F23C371B4F874310381B4F89A
:1010800076314381B4F878318381B4F87A31C38101
:101090003E4400230374C374037556444FF0FF337A
:1010A000A0F8116043758375C37503764376837624
:1010B000C37603774377837720461CF0A0FA2C6031
:1010C000B4F8CA30A4F8CC30ADE694F873615EB3DE
:1010D00011481BF0CBFE014600283FF4A4AE037973
:1010E00043F0030303711123C371032343710F23DF
:1010F000037294F87331437220461CF080FA94F81E
:10110000703184F8713100232B608CE6061F0200D9
:10111000B21F0200A40A0200D41300207F41010084
:10112000772502005413002094F93D30002B34DB66
:1011300094F87231C4F81061052262F3020394F846
:101140007C2184F87231012384F8143112B3B4F88D
:101150007431B3FBF2F3013313FB02F39BB2A4F837
:101160000831B4F87831A4F80A31B4F87A31A4F827
:101170000C3194F80631022262F3010394F87221D3
:10118000C2F3C00262F38203013884F8063184F8A6
:10119000050148E6B4F87631E1E7D9481BF066FE70
:1011A000014600283FF43FAE037943F00303037187
:1011B000182343711023C371B4F874310381B4F858
:1011C00076314381B4F878318381B4F87A31C381C0
:1011D00094F87C310374B4F87E31A0F81130B4F87F
:1011E0008031A0F81330B4F88231A0F81530B4F88B
:1011F0008431A0F81730B4F88631A0F81930B4F86B
:101200008831A0F81B30B4F88A31A0F81D30204690
:101210001CF0F5F994F8703184F871312E6002E613
:101220008B073FF500AE0FF0B5F8014600283FF4FC
:10123000FAAD94F87231032262F3020384F872313A
:10124000A38DC3800223037190F82030134380F8EC
:101250002030182380F821300F2380F82330B4F891
:1012600074318384B4F87631C384B4F8783103855B
:10127000B4F87A31438525E640F60F43B4E694F896
:10128000980194F89931834200F0998094F89A314A
:10129000C3F30205E9B2072900F08E8001228A40DB
:1012A00012F04E0F7FF4BFAD12F0300F2DD1002998
:1012B00040F0828092481BF0D9FD014600283FF49F
:1012C000B2AD94F89A31B4F8A201A4F8D800012282
:1012D00062F3020384F89A31B4F89E31A4F8D63050
:1012E0000A798B8142F003020A71092245F0480312
:1012F0004A711422CA718B7245F01B0245F001033A
:101300000A724D72CB72C8810BE6B4F89C21A4F826
:101310005E20B4F8A021A4F8622003F00702042A9A
:10132000B4F89E61B4F8A25144D1B4F8A4219ABB98
:1013300084F89901A4F8CC20D4F800710FB13B686F
:1013400063B940F6CE436F4A6F49704818F012F8FF
:10135000404080F311884FF0030002DF3868436893
:10136000C4F80031A38DFB8002233B7197F8203035
:1013700043F0030387F82030092387F82130152331
:1013800087F82330B4F85E30BB84B4F862303E8511
:10139000FB847D85394696E5A4F89E21B4F8A61114
:1013A000A4F8A2110022A4F8A42162F3020384F895
:1013B0009A31C1E70622F8E740F6F64314E694F8BE
:1013C000A81194F8A9318B423FF42DAD94F8AA31BD
:1013D00003F00300032800F28F8001A555F820F0E8
:1013E000F1130000270E0000270E00005514000026
:1013F00043481BF03BFD014600283FF414AD94F830
:10140000AA2194F8AC3194F8AB51C2F3820060F396
:101410000203C2F3421262F30613C5F3400565F3FB
:10142000C30384F8AC31B4F8AA3123F4817323F0F8
:10143000010343F4807343F00103A4F8AA310B794C
:10144000087243F003030B7103234B711623CB7116
:101450004A7266E584F8A911C3F382018F0739D572
:10146000022161F3840384F8AA3194F8AA3159095E
:101470008D0738D5022161F3471384F8AA3194F817
:10148000AA1194F86430C1F3820003F00703834289
:1014900008BF002094F8EC3060F3840394F86500F2
:1014A000490900F00700884208BF002161F3471393
:1014B00094F8AB11DBB2C1F3800143F0010361F397
:1014C000410384F8EC30023A062384F8EA3084F8C9
:1014D000E920A8E4CE0701D50121C2E711F00401FB
:1014E00018BF0421BDE7C80701D50121C3E711F0EA
:1014F000040118BF0421BEE740F6775374E500BF2E
:10150000D4130020061F0200CD1F0200A40A02000F
:101510002E4A136803B91460638EE68E1E4494F855
:101520000631564413F00300B6B253D001200EF03A
:1015300019FF074600283DD025481BF097FC0546BB
:10154000C0B30EF027FF3B68D4F800215A6094F82E
:101550000631C4F800716FF3010384F80631238E5D
:101560001E442B790636B6B243F00303A4F8EC60B0
:101570002B710C236B710023EB7194F814312B72D7
:1015800040F2E242D4F81031B3FBF2F3A5F809308F
:10159000B4F80831A5F80B30B4F80A31A5F80D30CD
:1015A000B4F80C31A5F80F30A5F811602946204693
:1015B0001CF025F894F8292194F828319A4240F03B
:1015C000DD8400200DB0BDE8F08F00BF5413002073
:1015D000D4130020B4F8EC300B93F71ABFB23B04DD
:1015E000E8D494F8043184F8053184F8E91094F8CB
:1015F000713194F870118B4209D094F8723103F074
:101600000703052B04BF84F87111A4F8CC001368FC
:10161000D4F800519C4204BF002313600DB12B6825
:1016200063B940F69B03C04AC049C14817F0A2FE07
:10163000404080F311884FF0030002DF2868B4F8BF
:1016400008214368C4F80031E38DB4F80AC1B4F846
:101650000C119A4213D1238E634510D140F2E2431C
:1016600003FB02FE42F2107303FB01E3013BB3FBF9
:10167000FEF3B4F8C6E09BB29E4500F02E81A38D28
:10168000EB800A232B71002385F820306A84A5F8AB
:1016900024C0E98429460EF055FE0EF05DFE236855
:1016A000002B0ADAD4E9012023F0004390422CBF3A
:1016B000804490442360A8EB0308E38DB4F80851FC
:1016C000DFF894B213FB07F39BB2B3FBF5F11FFAFB
:1016D00081F915FB09F292B2934240F2E24080F0A8
:1016E000FF80D31A5843A0FB0B018DA3D3E900233D
:1016F000FEF7F6FC20F07F408044638E9A440B9BFB
:101700009E1B94F93D304E445644002B40F2E24A71
:1017100066860AFB05F580F2F180E26C636C03FBE0
:101720001727E7641CF033F9064694F8DC00C0F391
:10173000820012F08BFE94F8142106440AFB02F298
:1017400062656E430022C4F8E42006F57426E26C5C
:10175000784806F23F266B08B6FBF0F606FB09F068
:10176000963B02446664A3649A4294BFE264E364D5
:10177000A0FB0B016AA3D3E90023FEF7B1FCA8EBA1
:101780000008D4F81001B0FBFAF00AFB00F064A3E3
:10179000D3E90023A0FB0B01FEF7A2FCAE1B20F057
:1017A0007F49B4F80831B4F80C21E38542F2107394
:1017B00003FB0252B4F80A115F4B2186013AB2FBD7
:1017C000F5F2A4F8C6205D4A2B442A44B3FBF5F396
:1017D000B2FBF5F5A4F8CA308A1DABB29342A4F867
:1017E000D230C2BF5B1A063B9BB2A4F8CE3094F84D
:1017F00006315D0744BF0023A4F8C8300221012050
:1018000014F01EFD00220221824601200CF03EF958
:10181000204610F071FD0330C5B2494B00942A46B2
:10182000012100200CF06AFE30F002030CD04FF4CE
:1018300014633D4A43493E4817F09CFD404080F305
:1018400011884FF0030002DFA6FB0B6734A3D3E936
:10185000002330463946FEF743FC3B4B0894CDE964
:1018600006433A4B0593E368049300230393384BF4
:1018700020F07F44A4FB03BC072303FB04CCB6EB9E
:101880000B0067EB0C014FF47A720023FEF728FC83
:101890004346CDE90140CDF800902A4601210020C1
:1018A0000CF09AFD30F002030CD040F65A131E4A99
:1018B00024491F4817F05EFD404080F311884FF027
:1018C000030002DFBAF1000F04D00122022110460A
:1018D0000CF0DCF86FF0470074E603232B71D9E6B7
:1018E00005FB113189B248430DA3D3E90023A0FBC6
:1018F0000B01FEF7F5FBA8EB0008FEE64FF41163C1
:10190000094A14490A4817F035FD404080F3118810
:101910004FF0030002DF4FF000092E4641E700BF01
:101920008D49FD1A07000000061F0200CD1F0200AE
:10193000A40A020040420F00FF5962027FC3C9019E
:10194000E11E0100651E0200891E0100ED49010033
:101950008D49FD1A7725020000CA9A3BE38E628EFC
:1019600013449A4494F8EC30D8071FFA8AFA25D524
:10197000CB481BF07BFA054600283FF41BAE94F8D9
:10198000EC306FF3000384F8EC30238E9A44037933
:101990000AF1060A43F00303A4F8F2A00371082336
:1019A00043710123C371052204F1ED01083019F0E0
:1019B00024FBB4F8F230A5F80D30F7E5B4F8F230B6
:1019C000AAEB030A1AF4004F7FF4F4AD04F13805D2
:1019D00084F8E910052204F1ED01284619F00DFB09
:1019E000052128461BF0BEFA94F83D3060F305034C
:1019F00084F83D30012384F8C431DBE594F8EC60D1
:101A000016F0030663D094F93D30002BBFF6D2AD3B
:101A1000012E7FF4CFADA2481BF028FA074600281C
:101A20003FF4C8AD037943F0030303710D23437101
:101A30000423C3719B4B186843685E6807F108056F
:101A40001EB100230C222946B0472946082204F182
:101A5000F60019F0D2FA042207F1100104F19C00FB
:101A600019F0CBFA394620461BF0C9FD0EF092FC66
:101A7000054600283FF49EADA38DC38090F820302A
:101A800043F0030380F82030172380F8213002262A
:101A9000032380F823300822067104F25511243004
:101AA00019F0ABFA94F8533185F82C3094F854318E
:101AB00085F82D30294628680EF044FC0EF04CFCC9
:101AC00094F8EC3066F3010384F8EC3072E5744866
:101AD0001BF0CCF9054600283FF46CAD94F93D307D
:101AE000002B00F1040747DB04F17F084346324630
:101AF00004F1EE0104F25D101CF028F810224146BA
:101B000004F1A00019F079FA04F19801082204F117
:101B1000B90019F072FA94F8973084F88F6066F380
:101B2000000384F8973094F8B83084F8906043F05C
:101B3000010384F8B83094F87E3084F8916043F063
:101B4000080384F8926084F8936084F8946084F8C1
:101B5000956084F89660C4E92C6684F87E30394636
:101B600020461BF04FFD294620461BF048FD94F807
:101B7000E83084F8E9301DE594F87E301A0765D422
:101B800094F8ED60F6B1037943F00303037194F820
:101B9000DC30DB0711D5D4F81C315F070DD51123DC
:101BA000C37103230372467202236B716B79013395
:101BB0006B71002384F8ED30D5E70D23EB712E72A5
:101BC0000123F2E704F17F073B46324604F1EE01C0
:101BD00004F25D101BF0BAFF1022394604F1A00098
:101BE00019F00BFA082204F1980104F1B90019F078
:101BF00004FA94F8973084F88F6043F0010384F876
:101C0000973094F8B83084F8906066F3000384F855
:101C1000B83094F87E3084F8916043F0080384F87B
:101C20007E302B7984F8926043F0030384F893604C
:101C300084F8946084F8956084F89660C4E92C6612
:101C40002B7101236B710523EB718CE7394620461C
:101C50001BF0D8FC294620461BF0D1FC94F85231E9
:101C600023F0030384F8523181E70D481BF0FEF89E
:101C7000014600283FF49EAC94F8E83084F8E9303F
:101C8000037943F003030371012343711223C371EA
:101C900020461BF0B4FCB4F8CA30A4F8CC3089E478
:101CA000D413002058130020628EE38E134494F85E
:101CB000EC209A44D0071FFA8AFA68D502200EF069
:101CC00051FB064600283FF475ACC0481BF0CEF827
:101CD000054600283FF46EAC94F8EC306FF3000337
:101CE00084F8EC30DBB2C3F3820757EA531737D1DD
:101CF00094F8E82084F8E9209B07A4F8EE7019D541
:101D00000EF048FBA38DF38086F820700E2333710C
:101D100094F864303068C3F3020386F8213094F8F5
:101D20006530C3F3020386F8223031460EF00AFB19
:101D30000EF012FB2B7943F003032B7105236B711B
:101D40001823EB7194F8EC30C3F382032B7294F8F0
:101D5000EC30C3F342136B72B4F8EE306B8125E4C0
:101D6000238E9A440AF1060AA4F8EEA00EF012FBA4
:101D70003368D4F800215A60C4F800610EF00AFB01
:101D80000368D4F800215A60C4F80001D2E7B4F81F
:101D9000EE30AAEB030A1AF4004F7FF40BAC94F870
:101DA000643094F8655084F8E91012F01C0F03F0C9
:101DB000070705F00705B4F862606AD1B4F86080DF
:101DC00012F0E00F08D094F86530520962F3020374
:101DD00084F865304FF4A47694F8AC3194F864201C
:101DE000D4F80091C3F3C00363F3C30284F8642002
:101DF000B9F1000F02D0D9F8003063B94FF4606335
:101E0000734A7449744817F0B5FA404080F311885A
:101E10004FF0030002DFD9F8000094F86420436813
:101E2000C4F8003194F8ECE094F86530C2F3020293
:101E3000C3F302031EF0020F5FFA82FCD9B242D153
:101E4000674540D18D423ED1032389F8043049468D
:101E50000EF078FAD4F800510DB12B6863B940F652
:101E60000F635B4A5B495C4817F084FA404080F39B
:101E700011884FF0030002DF28684368C4F800317E
:101E800003232B7129460EF05DFA0EF065FAFFF779
:101E900091BBC2F3820161F3020384F8643094F8C9
:101EA0005C300E33DB00C1F34001CB40B3F5A47FBF
:101EB00006D3B4F8D8809BB2984528BF98467FE7F0
:101EC0004FF4A4787CE7A18DA9F806100E2189F8BB
:101ED0000410002189F8201089F8212089F8223087
:101EE00049460EF02FFAD4F800510DB12B6863B9B2
:101EF00040F62C63364A3749374817F03BFA4040E2
:101F000080F311884FF0030002DF28684368C4F8AB
:101F10000031B4F86030434503D3B4F86230B342C3
:101F2000AED2A38DA4F86080A4F86260EB80022397
:101F30002B7195F8203043F0030385F820300923F6
:101F400085F82130152385F82330B4F85E30AB8452
:101F5000B4F85C302B85EE84A5F82A8092E740F235
:101F600076331B4A1D491C4817F004FA404080F3A1
:101F700011884FF0030002DFFFF71CBB13481AF073
:101F800075FF014680B194F8283184F8293103792E
:101F900043F00303037102234371C37194F82A31A0
:101FA000037220461BF02BFBB4F8CC0000287FF412
:101FB00008ABB4F8C630012B03D9A4F8CC30FFF736
:101FC00000BB0133A4F8CC30FFF7FCBAD4130020D7
:101FD000061F0200CD1F0200A40A0200772502009E
:101FE0002DE9F04F97B01D460E9013682846904695
:101FF00000220C4650F80C6B9A6005F1080A032287
:102000003231D3F8009005F11C0718F0F6FF0422D6
:1020100004F12E01504618F0F0FF052204F13E01B4
:10202000384618F0EAFF052138461AF09BFF95F86C
:10203000213060F3050385F8213094F84330C3F371
:10204000040385F82230278F6F8294F83B2094F8A0
:102050003A3043EA0223AB82E38EADF83C3094F889
:10206000433096F8DC205B0963F3840286F8DC20B9
:102070001BF08DFC0A9096F8DC00C0F3820012F091
:10208000E5F90A9BA98A40F2E24B0BFB07F71844DB
:10209000784300F57420B84B00F23F20B0FBF3F01A
:1020A0007B08963BEB6294F83530A8620BFB03F398
:1020B000EB63A38FADF82C30BDF82C2042F21073E7
:1020C00003FB0273013BAD4AB3FBF7F3A6F8C6303E
:1020D000AB4B881D3B443A44B3FBF7F3B2FBF7F23A
:1020E000A6F8CA3093B28342A6F8D230C2BF5B1AB8
:1020F000063B9BB25146A6F8CE30042206F1E00022
:1021000018F07BFF98F8153094F820A00A93062267
:1021100004F1280114A818F070FF94F82030C3F3DC
:1021200080138DF8403004F122031946062212A8CC
:10213000119318F062FF94F82020CAF3C01AC2F37A
:1021400040134FF480728DF830302284DBB284F873
:102150002FA0062214A904F130000D9318F04DFFB2
:102160000A9BFF2B04F1290B04F1230A00F0EE80F7
:10217000119B0A981946524612F040FE94F82230FC
:10218000023384F82230062212A9584618F035FF8F
:102190006B8AE386AB8A2387BDF82C30638796F879
:1021A000DC30C3F3820384F83C30304610F0A4F8EE
:1021B000D8F804A028822146E0800E980EF0C2F8DC
:1021C0002B8AAAF806300D238AF804300D9BDAF822
:1021D0000000002B00F0C7806A7A2B7AE97A43EA84
:1021E0000223AA7A42EA012295F82110534041F0D5
:1021F00040016B8485F8211001238AF82030514674
:102200000EF0A0F80EF0A8F8D8F810B0DFF890A102
:10221000002431230BF25240C6E90034B46054A3C9
:10222000D3E90023A0FB0A01FDF75AFFAB6ABDF812
:102230003C20FF1AD8F80C30A3F5AE73A3EB0B03C8
:1022400040F2E24B20F07F400BFB02BB5B44224696
:102250000221F06001200A930BF018FC48460FF0B1
:1022600059F9821C474BCDF80090D2B2012120468B
:102270000CF044F9494612F09DFB99F82830DB0731
:1022800006D5012200942346114620460CF036F96B
:10229000304610F031F8A7FB0A45814634A3D3E954
:1022A000002320462946FDF71BFFD8F80830A3F18C
:1022B000310840F21D130893334BCDE90663334BCD
:1022C0000593F3680493324B20F07F46A6FB03BCD2
:1022D000072303FB06CCB4EB0B0065EB0C0109F103
:1022E00003074FF47A724FF000090023CDF80C90E9
:1022F000FDF7F6FE0A991EA3D3E90023CDE901609C
:10230000A1FB0A01FDF7ECFEFFB220F07F40009038
:1023100043463A46012148460CF05EF830F002038D
:102320000CD040F21F131B4A1B491C4817F022F81F
:10233000404080F311884FF0030002DF01220221A8
:1023400010460BF0A3FB17B0BDE8F08F062200216A
:10235000584618F07CFE9DF8403084F82230062262
:1023600012A9504612E79DF8303046E7AFF30080DF
:102370008D49FD1A0700000040420F007FC3C901CC
:10238000FF596202B549010089490100ED49010088
:102390008D49FD1A5E210200651E0200A40A02009A
:1023A00000CA9A3B000000002DE9F8438946D0E9B5
:1023B0000B71466B164D8C193034A742904612A310
:1023C000D3E9002315D8A1FB0501FDF789FE20F014
:1023D0007F40C9F80000E01B0BA3D3E90023A0FB5A
:1023E0000501FDF77DFE20F07F40C8F80000BDE844
:1023F000F883A7FB0501FDF773FE20F07F40C9F8C5
:10240000000006F13000E7E78D49FD1A07000000E3
:1024100000CA9A3B000000002DE9F84F04461BF06B
:102420004CFE257B824615B11AF0C9FE05460FF217
:102430006809D9E90089DFF868B00027606814F0FE
:10244000DBFEA368A3EB0A03A360636853446360E5
:10245000237B01374BB9A368002BEFD1A068003074
:1024600018BF01204042BDE8F88F1AF0A8FE2946A7
:102470001AF0A7FEB0FBF7F60644606942464B46E9
:10248000A0FB0B01FDF72CFE20F07F408642E2D935
:10249000E4E700BFAFF300808D49FD1A070000009C
:1024A00000CA9A3B000000002DE9F04F8FB0D0F831
:1024B00004A0DFF8D8900DF1370180460DF1360009
:1024C0001AF01DFF9DF836300A939DF837300B93B4
:1024D0001AF075FEDAF81040A4FB094526A3D3E9EB
:1024E00000230027834629462046FDF7F9FDCDE964
:1024F0000777234B0593CDF818800646DAF81400C9
:102500001DA3D3E90023A0FB0901FDF7E9FD1D4B45
:1025100026F07F46A6FB039A20F07F400723CDE9F3
:10252000037003FB06AAB4EB090065EB0A014FF444
:102530007A720023FDF7D4FD5B46CDE90160009778
:102540000B9A0A9803210BF047FF30F002030AD1DF
:1025500045F6B3110C4815F0C1FF38B9D8F808009A
:102560000FB0BDE8F08F6FF04700F9E76FF03B0068
:10257000F6E700BFAFF300808D49FD1A07000000A9
:102580008D6A01008D49FD1AA418002000CA9A3BEB
:102590002DE9F047067B044616B11AF010FE0646F8
:1025A000606810F0030567D0A3682168C5F10405D1
:1025B0009D4228BF1D462A4614F04CFE63682B44FA
:1025C000636023682B442360A3685D1B237BA560A5
:1025D000002B51D01AF0F3FD31461AF0F2FD2C49D0
:1025E0004500606928A3D3E90023A0FB0101FDF7A2
:1025F00077FD20F07F4085423ED914F037FA4FF046
:10260000FF30BDE8F08723686068196814F014FE95
:10261000636804336360236804332360A368043B66
:10262000A360237B013593B11AF0C9FD31461AF03E
:10263000C8FDB0FBF5F70744606942464B46A0FB76
:102640000A01FDF74DFD20F07F408742D5D8A268F2
:10265000032AD8D862B1D4E9001014F0FBFDD4E904
:10266000012123680B440A44236000236260A360B5
:1026700014F0FCF90020C4E70125DFF814A00FF2E4
:102680000809D9E90089E2E78D49FD1A0700000031
:1026900000CA9A3B1FB5002004F0F8FB044628B19D
:1026A0000146184816F066FE04B010BD164816F034
:1026B00061FE18F0D9F9154816F05CFE0923ADF853
:1026C00008408DF80930A023ADF80A30F023ADF8AA
:1026D0000C300F4900942346032202A818F0B8FEDC
:1026E000014658B10B4816F045FE00F0C5F84FF40E
:1026F0007A7015F099FE00F0C5F8F8E7064816F074
:1027000039FEF2E7ACF70100CCF70100E3F7010076
:10271000FCEE0100F4F701001AF8010070B506465E
:102720000D4621B9114816F025FE002070BD104C51
:10273000098A104816F01EFE10220021204618F0CB
:1027400086FC0D4B23600D4BE3602B8A23814FF6F3
:10275000FF7363810A4B0022214630461A6008F05D
:10276000F9FE0028E1DA0748DDE700BFDFF80100E5
:1027700030000020FFF80100E1270000EA1A0020E5
:102780002C00002021F9010037B5114C0023042250
:1027900005468DF804300DEB020142F62B2320464E
:1027A000ADF8063018F029FC0A490B4B4B600123A9
:1027B0000B814FF6FF73CB81284603230B740C600B
:1027C00008F012FB10B1054816F0D4FD03B030BD7F
:1027D000EA1A0020180000201D2700003CF8010024
:1027E000F0B587B01E4DBDF830601E481E4C1F4628
:1027F00032462B6816F0BEFD07B11EBBA3790193CC
:1028000063790093E27823792188184816F0B2FDA5
:102810000A22002103A818F01AFC2288ADF80C2027
:102820006288A379ADF80E201148A288ADF8102077
:102830008DF8123016F09EFD0E4B3C221A600020DF
:1028400007B0F0BD2B680A20324600FB0340394632
:1028500018F0D3FB2B681E442E600120F0E700BF68
:102860002C0000205FF80100E01A00208EF8010023
:10287000C3F80100B4550020014805F0EFBA00BFCD
:102880009855002010B5074C2368002B02DD013B52
:10289000236010BD00220449072005F0AFFD3C2352
:1028A000F6E700BFB45500208927000010B5094C99
:1028B0000A44914200D110BD11F8013B4340180970
:1028C000205C80EA0310C3B21809205C80EA031080
:1028D000C0B2EEE746F901000B6801330B60014B13
:1028E0001B681847B85500202DE9F04F85B09B466E
:1028F0000E9CDFF88890012CB8BF0124012B0CBF7F
:1029000030232023164682468846029301250A2753
:102910000022B6FBF9F301930AB9B1451DD8019B1A
:10292000414603F13000D04701350122019B013FB0
:10293000012F09FB13664FF00A03B9FBF3F9E8D145
:10294000414606F13000D047BBF1030F02D1641BB2
:10295000002C0EDC05B0BDE8F08FBC42E6DBBBF11D
:10296000020FE3D84146029803920135D047039AFB
:10297000DCE741462020D047013CE9E700CA9A3B0A
:1029800007B50023019302460B46034801A916F040
:1029900081FB03B05DF804FBD928000030B585B099
:1029A000CDE901010446002501A90548039516F06B
:1029B00071FBDDE902309842B8BF255405B030BD47
:1029C0006F900100014B1868704700BFBC55002094
:1029D000F0B5082289B00C46064616F0CEFECB6A4A
:1029E00003930B6B04934B6B05938B6B0693CB6B31
:1029F0000793002708236A4669466846CDE90177B0
:102A0000009716F0BFFD082305466A46314630465A
:102A100016F0B8FD236B0393636B0493A36B0593CC
:102A2000E36B0544CDE906376A46082369466846E4
:102A300016F0A8FD3146054408236A46304616F0D4
:102A4000A1FD236A0093636A0193A36A0293A36BB7
:102A50000693E36B0793054408236A463046CDE9A5
:102A60000477039716F08EFD636A0093A36AA26B46
:102A70000193E36A02930492636BE26B0393CDE9E3
:102A80000523236A0793054408236A46304616F057
:102A900079FDE36A0093236B0193636B0293236ACE
:102AA0000693A36A0793054408236A463046CDE996
:102AB0000477039716F097FE236B0093636B0193E3
:102AC000A36B0293E36B0393636A0693E36A079332
:102AD0002D1A08236A463046CDE9047716F083FEA6
:102AE000636B0093A36B0193E36B0293236A0393DD
:102AF000636A0493A36ACDE90537236B07932D1A04
:102B000008236A46304616F06EFEA36B0093E36B13
:102B1000CDE90137636A0393A36A0493E36ACDE9BD
:102B20000537636B07932D1A08236A46304616F063
:102B30005AFE2D1A0D4C0FD435B9082231462046C5
:102B400016F027FE01280FD00823224631463046D2
:102B500016F049FE2D1AEFE708232246314630468B
:102B600016F010FD2D18F7D409B0F0BD18EF0100D4
:102B7000F0B5284E07460C460FCE8DB001AD0FC5FF
:102B80000FCE0FC596E8070085E80700002F3CD060
:102B9000002C3CD0381F2146024610344B780D786B
:102BA0001B0443EA0563CD782B438D78043143EA57
:102BB00005238C4242F8043FF0D1174C04218A07C8
:102BC000036918D14FEA33631A0EA55CDAB2A25C2E
:102BD00042EA0562C3F30745C3F30723655DE35C7F
:102BE00042EA054242EA03220CAD21F003032B44E2
:102BF00053F82C3C534050F8042F013153402C29FA
:102C00000361DCD101200DB0F0BD3846FBE7204662
:102C1000F9E700BF78EE010056F901002DE9F04315
:102C2000154689B00746002859D000295AD0002AF5
:102C30005AD010230A466846194616F0DFFB29468B
:102C40006846DFF8A89017F0E5FA05F11006C846C7
:102C5000A0356C466A4610231178013B19F8011023
:102C600002F8011BF8D1684617F019FB694604A861
:102C700017F04EFB01A905A817F04AFB02A906A808
:102C800017F046FB03A907A817F042FB10231946CB
:102C90000DEB0302684616F0B1FB3146684610366C
:102CA00017F0B8FAAE42D4D110262378013E18F8B6
:102CB000033004F8013BF8D1684617F0F0FA2946D2
:102CC000684617F0A7FA102319466A46384616F0E8
:102CD00095FB68461022314616F09DFB012009B095
:102CE000BDE8F0830846FAE71046F8E756F9010018
:102CF00030B5002287B00D490D481BF094FD0D4DF5
:102D00000D4900240E23CDE90243CDE90444CDE969
:102D100000440A4B4FF44072284615F057FC08490E
:102D200028461BF09EFC204607B030BD452D000014
:102D3000540000209C000020481F00201931000092
:102D400056FA0100014815F09DBB00BF005C002051
:102D500008B500F041FA094817F018FC04232822AE
:102D6000074808491BF05CFA074B084A1A604FF401
:102D70000040BDE8084000F0A5BA00BF4C000020AC
:102D800080000020B0480020C0550020CBA50100E5
:102D9000F8B50F4BBFF35B8F002553E8007F43E886
:102DA0000052002AF9D1BFF35B8F0A4C0A4E361B42
:102DB0003611B54200DBF8BD63685B792BB123683F
:102DC000DB6813B139462046984701351034F0E7E7
:102DD0004400002078EE010078EE0100064BBFF3BE
:102DE0005B8F53E8002F013243E800210029F8D11E
:102DF000BFF35B8F704700BF44000020094B42685F
:102E0000C31A1B11013310B513714368064C1960C6
:102E100001225A71227812B9044815F033FB0123BC
:102E2000237010BD78EE0100101B0020005C002014
:102E300070B5114BBFF35B8F53E8005F6A1C43E82A
:102E400000210029F8D1BFF35B8F2DB90B4C0C4E3C
:102E5000361B3611B54200DB70BD237B43B12368BE
:102E60005B6903B19847042200212046FFF7C6FFA3
:102E700001351034EEE700BF4800002078EE010075
:102E800078EE0100164B984237B5044602D3154B35
:102E900098421FD3002201A9134814F0EFFD054604
:102EA000D8B90122019BBFF35B8F53E8001F43E8B1
:102EB00000200028F9D1BFF35B8F019821461F2223
:102EC000043018F055F8019C7E2384F8233084F8F0
:102ED00024500434204603B030BD044CFAE700BF50
:102EE00098EA0100F4260200800000205EFA01004A
:102EF00048B1054B984205D3A03398422CBF00201F
:102F00000120704700207047B04800202DE9F84F9D
:102F1000464B1B78054603B960B34FF02003EFF32F
:102F2000118683F31188BFF36F8F414817F03EFB82
:102F3000044686F31188BFF36F8F78B1BFF35B8FC0
:102F40003C4B53E8002F013A43E800210029F8D117
:102F5000BFF35B8F8DB1204617F0DAFB25B9364BF6
:102F60001B680BB1FFF714FF314817F01DFB051C60
:102F700018BF01252846BDE8F88F304B1B78ABB948
:102F8000237ADB0712D417F0D6FB8146204617F0D0
:102F90009FFB0146484617F01CFB294B294ADFF8E6
:102FA000BCB09B1A0746C3F3C90A37B9264E274F50
:102FB000BF1B3F114FF0000834E0B7FA87F6C6F1A7
:102FC0001F063146204617F086FB214B98420246E9
:102FD00002D3204B984214D31046FFF789FF80B9E3
:102FE0001D4B9A420DD028F03F0343F0010363F3D9
:102FF00007086AF38F1843464A463146584617F089
:1030000029FB012303FA06F627EA0607CDE77368D2
:103010005B7923B1336821461B683046984708F135
:1030200001081036B845F2DB95E700BF101B002001
:103030004C0000204000002044000020111B002014
:1030400040EE010028ED010078EE010078EE01006D
:1030500098EA0100F42602005EFA01007CFA010001
:10306000264B70B51B68418105469847244CE860A3
:10307000BFF35B8F54E8003F013344E80032002A7D
:10308000F8D1BFF35B8F4FF02003EFF3118683F38A
:103090001188BFF36F8F1B48294617F07BFA86F320
:1030A0001188BFF36F8F184B1A787AB14FF0200355
:1030B000EFF3118483F31188BFF36F8F0020FFF7C4
:1030C00025FF84F31188BFF36F8F70BD0F4923680C
:1030D00009680029F9D0012B06D14FF47A710C4808
:1030E000BDE8704015F0C2BC0A2BEED108481BF0B9
:1030F000A6FB0848BDE8704015F0C4B9C0550020D3
:10310000400000204C000020111B0020080100207E
:1031100054000020005C002008B5FFF789FE15F080
:10312000ABF90B4B186030B10A4B1B68092B02DD61
:10313000094815F0A7F9084C0020FFF7E7FE002822
:10314000FAD14FF0FF31204615F0C8F9F4E700BF7F
:103150000801002040000020005C0020F8B50E4F60
:103160003D7875B90D4C0E4EFFF762FE361B3611D9
:10317000B54207DB0020FFF7C9FE0028FAD1012382
:103180003B70F8BD63685B791BB1236820461B69FF
:10319000984701351034EBE7111B002078EE010051
:1031A00078EE010007B504380190BFF35B8F50E85B
:1031B000003F5A1E40E800210029F8D1BFF35B8F81
:1031C000012B03D101A9034814F084FC03B05DF87E
:1031D00004FB00BF8000002020231A46014902485A
:1031E0001BF01EB8504900200C01002037B5002309
:1031F000094D01930120FFF789FE0446FFF7EEFD1C
:10320000002201A9284614F039FC08B1002CF1D1A4
:10321000019803B030BD00BF0C01002007B50022AB
:1032200001A90648019214F029FC10B1FFF7DEFF56
:103230000190019803B05DF804FB00BF0C01002071
:10324000F0B5047A467A85B014F0010401904FEA93
:1032500016160ED0019B1A7A920704D55B69184C9A
:103260000393039B2BBB01A9154814F033FC05B055
:10327000F0BD002EEED0254617E0294617F02BFAB8
:103280000746FFF735FE78B13CB9019B3146186916
:1032900017F09FF904460028DCD024FA05F3DB0779
:1032A00002D53846FFF77EFF0135AE420198E4D8DB
:1032B000D0E71D6803A9204614F00CFC0395D0E765
:1032C0000C010020084A10B50123084C13600021AE
:1032D000A04204D801B11360054B186010BD40082E
:1032E0005B000121F4E700BF2C01002040420F00E9
:1032F000280100201FB507240294044C0194BDF856
:103300001840009419F03BF804B010BD025B002097
:1033100003234FF0000263F307020748074B1B1A11
:10332000DB08074863F38F12064B012914BF0146DF
:103330001946054817F07AB928ED010028ED01007B
:10334000DCFA0100D4FA0100E5FA010010B5084CDE
:1033500086B024788DF81740012402940DF11704EB
:103360000194BDF82040009419F009F806B010BD92
:10337000095B0020024B01221A700020704700BF39
:10338000121B00201FB501240294044C0194BDF8C7
:103390001840009418F0F3FF04B010BD121B002079
:1033A00003234FF0000263F307020748074B1B1A81
:1033B000DB08074863F38F12064B012914BF01464F
:1033C0001946054817F032B928ED010030EE01002A
:1033D000DCFA0100D4FA0100FEFA01002DE9F04305
:1033E000082385B00D460968047C074617F017FAD4
:1033F00068B90821204617F05DFA2968BB890144A5
:103400008AB21B1A9A420646296003D0002005B0F2
:10341000BDE8F0830B0C03BFFB8903F1FF3301EB25
:103420000341A1F58031296008236A46384617F028
:10343000F6F90028EBD16A46034612F8011BFF2972
:1034400015D10133082BF8D17B682B60DFE7BA89EF
:10345000BDF80230921B93420FD2B3FBF6F206FB8B
:10346000123252B9240C24041C442C60CFE7684665
:1034700017F00BFA2C680028E9D0104BA41B2C6025
:1034800004EA03089946A045C0D208230DEB0302C5
:103490002146384617F0C3F90028B8D102A817F022
:1034A000F4F940B9BDF80A30BDF80C202C6008EAE8
:1034B000090813449844A41BE5E700BF0000FFFF80
:1034C0002DE9F04F044693B00821007C17F0F2F983
:1034D00063681B0C1B04814601A9E089019317F066
:1034E000F2F9019BA18904AD1944A1EB09012A4617
:1034F00008232046029117F092F9021E70DB002388
:10350000EA5CFF2A70D10133082BF9D101992046DA
:1035100017F006FA024663E05645354628BF554681
:103520000AAA2B463946204617F079F902460028A8
:1035300056D135B10AAA2B46A168204617F016FAD3
:1035400002462946207C17F0B5F9A3681844A0600C
:10355000002A45D1AAEB050A2F4437E0D945D5D03A
:1035600006AA02A92046DDF808B0FFF737FF024699
:10357000002835D16368039308AA03A92046039D58
:10358000FFF72CFF024658BBBDF82020BDF81830CD
:103590009A42F1D108A817F078F90028ECD15D45DE
:1035A000DCD1BDF81C30002BD8D0BDF81A300BEAA6
:1035B00008071F4406A8A368ADF81A3017F071F980
:1035C000267CBDF81CA0764206F02006BAF1000F5A
:1035D000A2D106A9204617F00DFA02460028BDD058
:1035E000104613B0BDE8F08F029B054ABDF81210DB
:1035F000A3EB090913400B4402939046B0E700BFC8
:103600000000FFFF2DE9F043044687B00D4600F1AE
:10361000140630461AF02FFE284614F089F8A062EE
:1036200098B901234FF0000163F30701A04AA14BB1
:10363000A1489B1ADB0863F38F1116F0EAFF6FF0C5
:103640000505284607B0BDE8F08343681B7D237459
:10365000202B10D901234FF0000163F30701944A96
:10366000944B96489B1ADB0863F38F1116F0D1FF39
:103670006FF01505E5E7A06A216803AA1AF0D3FCEC
:1036800060B101234FF0000163F30701884A894BC1
:103690008B489B1ADB0863F38F11E7E7A3892BB1F3
:1036A000049AB3FBF2F502FB153565B101234FF027
:1036B000000163F307017E4A7E4B82489B1ADB08B8
:1036C00063F38F11D2E7E389012B0CD801234FF06C
:1036D000000163F30701764A764B7B489B1ADB08AF
:1036E00063F38F11C2E700954FF0FF31304614F0BD
:1036F000B5FA0821207C17F0DDF8A9460746E389D2
:103700001FFA85F8434505D8E3894B451ED16FF074
:10371000200596E7A1892B04C91B13FA81F1082221
:103720002046009117F0D9F870B16946E08917F08A
:10373000CAF809F101090822009920461FFA89F9FF
:1037400017F0CBF80028DFD00135D8E798450AD12B
:1037500000990822C91B204617F0BFF818B969461E
:10376000E08917F0B0F8009BDA1B6260574A1340FB
:10377000A3609046D4E9011399420ED3082301AA0D
:10378000204617F04CF8054618BB01AB13F8012B87
:10379000FF2A75D10135082DF8D1D4E901218A42DB
:1037A00006D9521A204617F098F8051E11DB4AD1A7
:1037B0006368DFF81881E08903EA0803694600932B
:1037C00017F081F8A2890099204617F086F8051EA7
:1037D0003EDA304614F0B4FA002D7FF432AF012304
:1037E000637403224FF0000362F30703314E304A43
:1037F000E1893748B61AC6F3C90666F38F13A28962
:1038000016F028FF6168334803224FF0000362F38B
:10381000070366F38F138AB2090C16F01BFFA16829
:103820002D4803224FF0000362F3070366F38F1362
:103830008AB2090C16F00EFF03E7B9F1000F34D07D
:103840006FF01C05FDE6A368227C1344A360A4E787
:10385000BFD06168204617F063F805460028B8D14C
:103860006068A38900EA08001844A0EB4700606084
:1038700000EA0800A0602046FFF722FE0546A8E700
:1038800001A817F002F8656878B90098BDF806201D
:10389000BDF8089000EA080002444946207C17F071
:1038A00009F81044A842A060C7D0ED1B656061E72D
:1038B00028ED010028EE01002BFB010047FB010071
:1038C00064FB01007CFB010090FB01000000FFFF96
:1038D000B3FB0100CAFB0100DCFB01002DE9F04F46
:1038E0001E46437C89B00446894690469BB9012315
:1038F0004FF0000163F30701674A684B68489B1A61
:10390000DB0863F38F1116F084FE6FF00C05284678
:1039100009B0BDE8F08F90F810A00821504616F0CD
:10392000C9FFA38900EB40029B1AB3420746C0F0CF
:10393000AE801EB1B8F1000F00F0A9806368039358
:1039400004AA03A92046DDF80CB0FFF747FD0546A1
:103950000028DCD1BDF810304B4505D06268039BD0
:103960009A42EDD1DEB9D2E704A816F08EFF002806
:10397000F4D1BDF8143086B1B34210D1BDF81200B5
:103980004FEA1B410904014433464246204616F0E3
:1039900054FF002803DC0546B9E7002BB7D03146B9
:1039A000504616F087FF00283ED1074604F1140A5E
:1039B0004FF0FF315046DFF8ECB014F04FF9002320
:1039C000E289934260D0D4E90121781882422ED353
:1039D000FF2306A8ADF81890ADF81A10ADF81C60DA
:1039E0008DF81E3016F05DFF36B133464246A168B1
:1039F000204616F0BBFF05463146207C16F05AFFE4
:103A0000A3681844A060002D44D106A9204616F0F2
:103A1000F1FF054600283DD132460192504614F090
:103A20008FF9019A154672E70744BFB2BEE7082135
:103A3000207C019316F03EFF4FF6FF71ADF8181091
:103A40000021ADF81C101118ADF81A10A18902EA76
:103A50000B020A44121A626006A816F022FF06A999
:103A6000204616F0C7FF211DE08916F02CFF626882
:103A700002EA0B02A2602046FFF722FD0246002860
:103A8000CBD1019B01339BE76FF01B02C5E76FF0C1
:103A900015053CE72A46C0E728ED010028EE0100A5
:103AA00017FB01000000FFFF2DE9FF471F46437C85
:103AB000BDF8308004468A46914693B901234FF001
:103AC000000163F30701294A294B2A489B1ADB08A6
:103AD00063F38F1116F09DFD6FF00C0004B0BDE88C
:103AE000F0870821007C16F0E5FEA389A3EB4000D7
:103AF000B84238D363680193002502AA01A9204681
:103B0000019EFFF76BFC0028E8D1BDF80830534553
:103B100005D102A816F0B9FE08B90135ADB2626848
:103B2000019B9A4218D04545E7D9BDF80C30BBB18E
:103B3000454515D3BDF80A00310CBB424FEA01419F
:103B400028BF3B4601444A46204616F068FE00283E
:103B5000C4D1BDF80C00C1E7BDF808305345E4D02E
:103B60006FF00100BAE76FF01500B7E728ED01002C
:103B700028EE010017FB0100084B30B51D68084B0B
:103B8000196800239D4202DC0022104630BD1C0152
:103B90000A190C5D8442F8D00133F3E790F101007B
:103BA0002C560020084B1B6810B50C462BB1FFF7B4
:103BB000E3FF28B12060002010BD6FF00C00FBE790
:103BC0006FF00100F8E700BF2C56002030B589B037
:103BD0000C4615460190FFF7CFFFB8B1436802933A
:103BE00083682268C068CDE9033500230593CDE9D9
:103BF000062313F09DFD60B101AA07491AF017FAD8
:103C0000079808B9059B236009B030BD6FF0150017
:103C1000FAE76FF01200F7E72DAA01000E4B2DE92D
:103C2000F0411C6806460F46904694B14FF0FF31B4
:103C30000A4814F013F863683A469D6831464346D3
:103C40002046A8470446054814F07AF82046BDE807
:103C5000F0816FF00104F9E738010020745C002066
:103C60000E4B10B51C680021224632B941B90460E0
:103C70005A6818605AB9586009E011461268F4E7AA
:103C80000C683CB902605A6812B9C3E9000010BD63
:103C90001060F0E704600860F9E700BF3001002021
:103CA000014B1860704700BF3801002030B585B067
:103CB00000230546CDE9023301904FF0FF310B4858
:103CC00013F0CCFF0A4B1C6834B1636820461B68B4
:103CD00001A998472468F7E7284600F0CBF8044686
:103CE000024814F02DF8204605B030BD745C002069
:103CF000300100201FB5CDE9010103924FF0FF31E3
:103D0000094813F0ABFF094B1C6834B163682046C7
:103D10001B6801A998472468F7E7034814F010F8D6
:103D2000002004B010BD00BF745C002030010020F2
:103D3000024B0022C3E90022704700BF300100207F
:103D4000024B0022C3E90022FFF7F2BF3C01002032
:103D50002DE9F34107460E4609B100230B601C4CC8
:103D6000DFF874800025444508D31A4B1C680CB159
:103D7000143CC4B9284602B0BDE8F08101AA21680C
:103D8000384616F078FE60B125B90EB1019B33605C
:103D9000254606E000222968206816F06CFE0028FF
:103DA000F3D11434DFE701AA2168384616F063FE28
:103DB00060B125B90EB1019B3360254606E00022B3
:103DC0002968206816F057FE0028F3D16469CEE711
:103DD000C4EC01003C01002028ED01002DE9F04376
:103DE00085B005460C9C03900E4617469846B4B124
:103DF000216879B103AA16F03EFE58B9002006E00A
:103E0000A36800933A46434631460398C84705B035
:103E1000BDE8F083D4F80490B9F1000FF0D103A904
:103E20002846FFF795FF0028E8D0846803983146BC
:103E300043463A46A04706460028DFD001234FF00C
:103E4000000463F307040849084BC91AC908284647
:103E500061F38F14FFF716F82346014632460448F3
:103E600016F0F8FBCAE700BF68EE010028ED01007C
:103E700007FC0100F8B5184C184F06460025BC4257
:103E800006D3174B1C680CB1143C9CB92846F8BDEE
:103E90001EB9E3684BB91434F1E7002231462068BB
:103EA00016F0E9FD0028F4D1F5E79847002D08BF8A
:103EB0000546F0E71EB9E3684BB96469E3E7002201
:103EC0003146206816F0D7FD0028F4D1F5E7984771
:103ED000002D08BF0546F0E7C4EC010028ED010005
:103EE0003C01002010B5064C23783BB9FFF728FFB2
:103EF00000F064F808B90123237010BD0020FCE72E
:103F0000131B00202DE9F047848EDFF8AC900134BC
:103F100098B080468A46A4B200F10806651EADB28C
:103F2000B5F5004F45D04A2305AA2946304616F07C
:103F300076FD04F57F543F34A4B2074621460123A1
:103F40000DF10B02304616F06AFD002F014603DC2E
:103F5000002803DC2C46E1E7002816DCB8F83430F2
:103F6000AB4209D142466B1E22F8343F4FF4004168
:103F700002233046FFF7B2FC2946304616F04BFDCF
:103F80002146304616F047FDE4E718AB1F440023F6
:103F900007F84C3C4A46CDF800A003AB05A80396B1
:103FA000ADF81040FFF71AFF0028D3D018B0BDE8D5
:103FB000F0870020FAE700BFE3AA01007FB50123E4
:103FC000694604200193FFF7EDFD0446002837D130
:103FD00002AA01A90420FFF7F9FD10F1130F04460E
:103FE0002ED040B110F10C0405D0404080F3118870
:103FF0004FF0040002DF0399B1F5803F23D2009A0D
:10400000002395681846084485429CB203D30133C7
:10401000082BF8D11C460D4D5368AB602846D36879
:10402000EC82A982AB6316F0F1FD044640B9084E5C
:104030006E602846FFF714FE28466E60FFF730FEDC
:10404000204604B070BD6FF02404F9E7440100205D
:1040500030560020164B07B51A6882B14FF08042E7
:10406000D2F80423D1070AD500221A601B68114830
:104070000093009B8368597A09B916F0F1FD0E4B45
:104080001A688AB14FF08042D2F8042392070BD508
:1040900000221A601B680193019B0648012103B0AE
:1040A0005DF804EB16F0DCBD03B05DF804FB00BF67
:1040B00000010040445B0020040100400D4B002241
:1040C000C3F840214FF02002EFF3118182F31188F1
:1040D000BFF36F8F084AD3F804051368C01A20F0A5
:1040E0007F400344136081F31188BFF36F8F14F096
:1040F00025BC00BF001001409801002073B51C488A
:1041000013F016FB80B343681A4D1B6801219847D2
:10411000012600244FF48033C5F80845C5F84065F2
:10412000C5F8043303F1804303F58A534FF400329A
:104130001C601B680193019B0F4B3146C3F8802123
:104140001120224600F03AF9112000F005F90B4B3E
:104150001E602E60D5F80435334423F07F43C5F844
:104160004035204602B070BD4FF0FF30FAE700BF87
:1041700032FC01000010014000E100E008100140A5
:10418000F0B5254EB0F1FF3F08BF30464FF0200399
:10419000EFF3118583F31188BFF36F8F1F49204B15
:1041A000D1F804451B68E21A22F07F47120219D4A5
:1041B000421E22EAE272B242A8BF3246781C104484
:1041C000B04294BF18189819041B24F07F4420F0C3
:1041D0007F43022CC1F8403506D985F31188BFF31F
:1041E0006F8FF0BD0022E9E7D1F804350D4AC31AFC
:1041F00023F07F435C1E944205D90B4B4FF40032F1
:10420000C3F80021E9E7012B02BF023020F07F4014
:10421000C1F84005E1E700BFFEFFFF0000100140CC
:1042200098010020FEFF7F0000E100E04FF0200237
:10423000EFF3118382F31188BFF36F8F064AD2F830
:104240000405064A1268801A20F07F4083F3118823
:10425000BFF36F8F704700BF00100140980100202E
:104260004FF02003EFF3118283F31188BFF36F8FB8
:104270000649074B0868D3F8043582F31188BFF369
:104280006F8F1B1A23F07F4318447047980100205A
:104290000010014004488168406A884203D0034905
:1042A0004FF080520A607047241A002004ED00E0AD
:1042B000094A0A49936809689966094958664B682A
:1042C00043F080534B60002383F31188BFF36F8F5B
:1042D0009368986E704700BF241A002084F701008D
:1042E00000ED00E012498A684FF028001044EFF317
:1042F000098C80E8F01F202080F31188BFF36F8FB6
:104300000C4F4FF000664A6A8A603E60506E002390
:10431000536680F3118804B5104616F0A1FDBDE880
:10432000044002F1280090E8F01F8CF309887047E0
:10433000241A002004ED00E01EF0040F0CBFEFF380
:104340000880EFF30980816911F8021C0229FFD06F
:1043500001B516F07AFD01BD43B2002B08DB012246
:1043600000F01F0002FA00F05B09024A42F8230045
:10437000704700BF00E100E043B2002B0DDB0122DB
:104380005B0900F01F0002FA00F02033034A42F8F4
:104390002300BFF34F8FBFF36F8F704700E100E042
:1043A0004209054B00F01F0053F82220012303FAB5
:1043B00000F01040704700BF00E100E043B2002B66
:1043C000A8BF03F1604301F101014FEA4111AEBF03
:1043D00003F5614300F00F00034BC9B2ACBF83F893
:1043E00000131954704700BF14ED00E008B572B611
:1043F000044B186A18B100221A6219F00FFF62B656
:1044000008BD00BF241A002073B51E460A9B009306
:104410008C18099B05461AF029F9A4F120030A4AD1
:1044200023F0070322F001029A61069A5A60079A64
:104430009A60089ADA604FF080721E60DA61AB64AD
:1044400000236B6602B070BDA9930100F8B5054664
:104450000C4617461E4600F093FB0A4B3C44284688
:104460009D6024F0070416F0FBFC304684F30988B5
:10447000002163B681F31188BFF36F8F0022002300
:1044800014F092FF241A0020014910220A6070479C
:1044900010ED00E0404080F3118830BF704700BF4E
:1044A000EFF30880EFF30981724601B500F046FA98
:1044B00001BD00BF73B506460C46002938D0012265
:1044C0004FF0000362F307031D4D1E4A1E48AD1A4C
:1044D000C5F3C90565F38F13ADF80030D1E90123A9
:1044E000096816F0CFF801224FF0000362F30703CA
:1044F00065F38F13ADF80030D4E90423E168134865
:1045000016F0C0F801234FF0000263F3070265F3D1
:104510008F12E1690E4816F089F84FF0000201236E
:1045200063F3070265F38F12A1690A4816F07EF85B
:104530002146304602B0BDE8704013F041B900BFDB
:1045400058EE010028ED01005CFC01008BFC01002D
:10455000BAFC0100C9FC010030BFFFF7FDBF00BF7E
:1045600008B5084B084A23F07F039360BFF34F8FD1
:10457000BFF36F8F13F0A2F913F0AAF900F0CEFA8F
:1045800013F0D8F90000000000ED00E001B572B6AC
:104590000B4A106A00281EBF0021116219F03EFE6E
:1045A00062B6EFF30580A0F110004FEAC0000549A4
:1045B000014409C99847BDE8014003490847000084
:1045C000241A002098EA01009542000016F061FDCF
:1045D000202080F3118808484FF40061401880F3D0
:1045E0000988EFF314800221084380F31488BFF395
:1045F0006F8FFFF7B5FF0000B038002001234FF0A8
:10460000000110B563F30701334C344B3448E41A0E
:10461000C4F3C90464F38F1115F0FBFF314B9B6A9F
:104620009A0109D54FF00001012363F3070164F3F8
:104630008F112D4815F0EDFF2A4B9B6ADB0109D540
:104640004FF00001012363F3070164F38F11274842
:1046500015F0DFFF234B9B6A180309D54FF00001CB
:10466000012363F3070164F38F11214815F0D1FF93
:104670001C4B9B6A590309D54FF00001012363F3DA
:10468000070164F38F111B4815F0C3FF154B9B6A9C
:104690009A0309D54FF00001012363F3070164F386
:1046A0008F11154815F0B5FF0E4B9B6ADB0309D53A
:1046B0004FF00001012363F3070164F38F110F48EA
:1046C00015F0A7FF074A936A6FEA03436FEA1343A3
:1046D0009362002010BD00BF58EE010028ED0100DC
:1046E00057FE010000ED00E06FFE010082FE0100B8
:1046F0009CFE0100BAFE0100DFFE0100F9FE010090
:10470000F8B501230E464FF0000163F30701364C64
:10471000364BE41AC4F3C90464F38F1107463448D6
:1047200015F077FF334B9B6AD90609D54FF000018E
:10473000012363F3070164F38F112F4815F069FF1C
:104740002C4B9B6A1A0709D54FF00001012363F334
:10475000070164F38F11294815F05BFF254DAB6A03
:104760009B071CD501234FF0000163F3070164F39D
:104770008F11234815F04DFF696BAB6A18060ED5F3
:104780004FF00002012363F3070264F38F121D4808
:1047900015F04CFF1FB1AB6A23F08003AB62154BE1
:1047A0009B6ADA0709D54FF00001012363F3070183
:1047B00064F38F11144815F02CFF0E4B9B6A9B0677
:1047C00009D54FF00001012363F3070164F38F1152
:1047D0000E4815F01EFF074B9A6A9A6A002042F0B5
:1047E000FF029A623070F8BD58EE010028ED01001A
:1047F0007FFD010000ED00E095FD0100C8FD010016
:10480000DBFD0100F3FD010009FE010028FE0100AF
:10481000F8B501230E464FF0000163F307013C4C4D
:104820003C4BE41AC4F3C90464F38F1107463A48B9
:1048300015F0EFFE394B9B6AD90409D54FF0000102
:10484000012363F3070164F38F11354815F0E1FE8E
:10485000324B9B6A1A0509D54FF00001012363F31F
:10486000070164F38F112F4815F0D3FE2B4DAB6A6F
:104870009B051CD501234FF0000163F3070164F38E
:104880008F11294815F0C5FEA96BAB6A18040ED527
:104890004FF00002012363F3070264F38F122348F1
:1048A00015F0C4FE1FB1AB6A23F40043AB621B4B8F
:1048B0009B6A590509D54FF00001012363F30701F5
:1048C00064F38F111A4815F0A4FE144B9A6AD205AE
:1048D00011D54FF00001012363F30701154864F37C
:1048E0008F1115F096FE0D4A936A002043F47F4322
:1048F00093623070F8BD9B6A9B04F4D54FF00001C1
:10490000012363F3070164F38F110B48E9E700BF4C
:1049100058EE010028ED0100F7FC010000ED00E079
:104920000DFD0100C8FD01001EFD010037FD010065
:104930004CFD010067FD010028FE01002DE9F0415A
:10494000644B5E688AB0C6F30804002585F31188BD
:10495000BFF36F8F02F07F43B3F17F4F11D102F0AD
:104960000C03082B0FD101234FF0000163F3070163
:10497000594A5A4B5A489B1ADB0863F38F1115F0BA
:1049800048FE2F4604E012074EBF0F46074601259A
:1049900000238DF80730E31E092B7FD8DFE803F0F2
:1049A00005696D4C7E7E7E7E7E7101234FF0000195
:1049B00063F30701494E484B4A48F61AC6F3C90645
:1049C00066F38F1115F025FE424BDC6A4FF00008AC
:1049D00014F002048DF807800BD04FF00001012382
:1049E00063F30701404866F38F1115F012FE0024AF
:1049F00025E0DB6A5B0022D501234FF0000163F361
:104A0000070166F38F11394815F003FE384B1B7808
:104A10002BB10DF107010120FFF772FE0EE0354BBF
:104A20001B782BB10DF107010120FFF7F1FE05E026
:104A3000314B1B889BB213B1FFF7E0FD04469DF894
:104A400007309BB92022394602A816F0D6FA099BF6
:104A5000002D3AD0C3F3080222B96FEA53236FEA5C
:104A60004323099302A92046FFF724FD0AB0BDE8BD
:104A7000F0810DF107010020CEE70DF107010020C4
:104A8000D3E701234FF0000163F30701124A134BF0
:104A90001A489B1ADB0863F38F11A6E701224FF037
:104AA000000362F307030D490B4A1548891AC90828
:104AB00016F4F87F61F38F13A4F11002114918BFA7
:104AC0000146114815F0C6FD91E723F4FF7323F06A
:104AD0000103C6E700ED00E028ED010058EE0100FB
:104AE00024FF01004FFF010066FF010087FF010066
:104AF00028ED00E029ED00E02AED00E0A6FF01002E
:104B0000F1FF0100DCFF01000A000200024A5369C4
:104B100043F010035361704700ED00E004480023A8
:104B20002021C2180133272B82F80013F9D17047D6
:104B300000E100E038B505464FF02003EFF31184A3
:104B400083F31188BFF36F8F13F0C2FA0A4B9B688F
:104B5000AB420BD1094B5A68C2F3080212B9204686
:104B6000FFF7A6FB5A6842F080525A602046BDE823
:104B7000384019F0BFBC00BF241A002000ED00E04F
:104B80001FB5084B0193084B0293084B039301ABED
:104B90000093074A074B0121684600F0B5F805B0BD
:104BA0005DF804FB000000200000000000000B0680
:104BB0000000002000000120F8B52E4F0E46002115
:104BC000B14222DA50F821C0DCF80440002C4FD06A
:104BD000EBB104F1FF3E14EA0E0F06D11F2C04D9ED
:104BE000DCF800501EEA050F11D001234FF000023F
:104BF00063F307022048214B1B1ADB08204863F3AC
:104C00008F1215F013FD6FF015021046F8BD202C21
:104C1000D5B2DCF80020DCF808C01AD9B4F1004F96
:104C200019D8013CB4FA84F4C4F11F046400072DC0
:104C30004CEA040411D901234FF0000263F3070288
:104C40000D490E4B0F485B1ADB0863F38F122946A0
:104C5000D7E70824EBE73E24E9E722F01F022A43C6
:104C600042F0100244F00104BD60FA603C616A1C2D
:104C70000131A5E790ED00E028ED010048EE0100CC
:104C80002100020044000200034B05225A60BFF3DA
:104C90004F8FBFF36F8F704790ED00E0BFF35F8FD2
:104CA000014B00225A60704790ED00E013490868FC
:104CB000082810B51ED8FFF7F1FF114C49680022F3
:104CC000904201F10C0105D10E4B1870FFF7DCFF8B
:104CD000002010BDA26051F80C3C23F01F031343C9
:104CE00043F01003E36051F8043C43F001032361F7
:104CF0000132E5E74FF0FF30EBE700BFC8F10100FC
:104D000090ED00E0141B002010B5034C0123227825
:104D1000FFF752FF207010BD141B002008B5084A91
:104D200000231278FFF748FF10F1160F03D0054B50
:104D30000022072800DD08BD98601A610130F8E7FD
:104D4000141B002090ED00E04FF02003EFF31182E0
:104D500083F31188BFF36F8F06490123C1F84035F3
:104D60004FF08041C1F8783582F31188BFF36F8F1F
:104D70000020704700E0014040290E4B70B528BF6D
:104D800040210D4C46181D46B04203F1020304D1E8
:104D9000002305F81130074870BD02781209A25CA3
:104DA00003F8022C10F8012B02F00F02A25C03F8AA
:104DB000012CE9E7151B0020C200020030B5037882
:104DC0008BB0044607AD032B21D8DFE803F0021AAD
:104DD0001C1E1249284616F0C1F863780493A37884
:104DE0000393E37802932379019363790093059504
:104DF000A3790B4A0B481E2114F0C9FA09480BB0DD
:104E000030BD0949E6E70949E4E70949E2E7094A0B
:104E10000A21284614F0BBFADFE700BF7D0002003C
:104E20009F000200961B0020840002008B000200FD
:104E300095000200A71A02002DE98848694C6A4BC8
:104E4000DFF8C081E41AC4F3C90445464FF0FF31CE
:104E5000664813F043FBBFF35B8FD8F80030BFF315
:104E60005B8F13F0010961D0DFF890B1DFF8989102
:104E7000DFF898A15E485A46494614F0D7FA002850
:104E800041D127F03F0343F0010363F3070764F3C5
:104E90008F173946574815F0BCFB4FF01F0A4FF0EB
:104EA000FF31012002F072FD00F1080B0221814662
:104EB000584618F0CBFE3E23037042234370012175
:104EC000584618F0C3FE082303704121584618F0D5
:104ED000BDFE834600F801ABBAF1000F1DD04022A1
:104EE000002116F0B4F8BFF35B8F55E8003F23F0C4
:104EF000010345E80032002AF7D1BFF35B8F484633
:104F000001F014FEA2E720225146484616F065F84B
:104F10000028AFD04FF0000AC1E7354916F025F957
:104F200035490BF1210016F020F9DCE7BFF35B8F68
:104F3000D8F80030BFF35B8F9B0787D52F492C48EB
:104F400015F045F9011E3EDA26F03F0343F0010358
:104F500063F3070664F38F163246294815F066FBA3
:104F60004FF0FF31012002F011FD00F1080B02218A
:104F70008246584618F06AFE3E230370222343708F
:104F80000121584618F062FE09230370212158467A
:104F900018F05CFE03460130B9F1000F1CD11F224E
:104FA0001A704946202216F052F8BFF35B8F55E87D
:104FB000003F23F0020345E80032002AF7D1BFF397
:104FC0005B8F50469CE70A4A0C4BA2F12001104629
:104FD00014F07BFA8146C3E700221A70044916F0E8
:104FE000C4F8E2E7F0ED010028ED0100185C0020B4
:104FF000D41B0020E1000200F41B0020E8F10100B6
:105000000A01020008020020B41B002098F20100EF
:1050100070B5057D0446ADB983681A8842F2250152
:105020008A4217D042F226018A423CD042F2010164
:105030008A4207D1DA7802F07F02DA701A7922F018
:1050400001021A71324BD3F8D43020461B69BDE8F7
:10505000704018470321083018F021FE204611F057
:105060005FFABFF35B8F2B4B1A68BFF35B8F900720
:1050700007D50C25294642F2250016F053F80020EA
:1050800070BDBFF35B8F53E8002F42F0010143E88E
:1050900000100028F7D1BFF35B8FD107E9D41E4879
:1050A00013F0F0F9E6E70321083018F0F8FDBFF33C
:1050B0005B8F184B1A68BFF35B8FD20707D50C259F
:1050C000204611F02DFA294642F22600D5E7A289A2
:1050D0003F2A1BD9BFF35B8F53E8002F42F0020138
:1050E00043E800100028F7D1BFF35B8F9307E6D4A5
:1050F000A6680A48314616F038F806F1200108483B
:1051000016F033F8044813F0BDF9D9E71225D7E7B4
:105110003854002008020020185C0020D41B002016
:10512000F41B002010B586B00B4C0C4900230A225A
:10513000CDE90232CDE90433CDE9003340F24C42EF
:10514000074B204613F042FA0649204606B0BDE858
:10515000104019F086BA00BF9C01002048220020B0
:10516000394E0000DA00020038B54FF00001032389
:1051700063F30701194C1A4B1A4D1B48E41AC4F388
:10518000C90464F38F1115F044FAEA7917482946E7
:10519000C2EBC202FEF742FD014648B14FF00002E9
:1051A000012363F3070264F38F12114815F03EFAEE
:1051B000EA79104910481201FEF730FD014658B156
:1051C00001234FF0000263F3070264F38F120B48D0
:1051D000BDE8384015F02ABA38BD00BF10EE010016
:1051E00028ED010038540020D4010200DE01020045
:1051F000E401020010550020FF0102000602020037
:105200002DE9F74316461F46054680B901234FF0A6
:10521000000163F307014C4A4C4B4D489B1ADB08D5
:1052200063F38F1115F0F5F96FF0010423E001A984
:1052300015F041FC474902468046284615F0BEFE5F
:10524000814600283CD1BFF35B8F434D2C68BFF3F0
:105250005B8FC4F3800494B102234FF0000163F329
:105260000701394A394B3D489B1ADB0863F38F111C
:1052700015F0CFF94C46204603B0BDE8F083703DF1
:10528000072229463846B047062814D801234FF094
:1052900000012D4A324863F307012C4B9B1ADB08AF
:1052A00063F38F1115F0B5F907222146284615F052
:1052B000CEFEEC71DFE70723B0FBF3F0E871DAE72D
:1052C00042462849284615F079FE0446C8B92649C1
:1052D00041223846B047011E0EDA01234FF000028A
:1052E00063F307021848194B1B1ADB0863F38F128C
:1052F0001E4815F09BF9BEE71D4B0B4483F808418F
:10530000B9E742461B49284615F058FE04460028D6
:105310008AD1102218493846B0470F28ABD801234C
:105320004FF00001084A154863F30701074B9B1A29
:10533000DB0863F38F1115F06CF9102221460E483B
:1053400015F085FE97E700BF28ED010010EE010083
:105350002202020092000200A85400204302020030
:1053600067020200D8070200405500208C020200AC
:10537000385400200202020010550020BE02020034
:105380002DE9F04188B09C79DDF838805D791E798F
:10539000DF7893F802C093F801E01B78B8F1000FB2
:1053A0000ED0CDE90638CDE904CE1346CDE902672B
:1053B000CDE90045084A13F0EAFF08B0BDE8F081E6
:1053C000CDE905E3CDE9037C1346CDE90156009410
:1053D000024A13F0DCFFF0E7360102005A01020036
:1053E0000949BFF35B8F51E8003F43F0010241E8F8
:1053F00000200028F7D1BFF35B8FDB0703D4083907
:10540000024818F0A3BF704748560020601A0020D9
:1054100038B51F4C94F8083113B91E4801F0B6FD99
:10542000E379BBB901F050FEE3799BB901F0D8FEF6
:10543000044678B101234FF0000163F30701164AD7
:10544000164B17489B1ADB0863F38F1115F0E1F830
:10545000204638BD134DBFF35B8F2B68BFF35B8FC6
:105460009B0701D401F082FCBFF35B8F55E8004F2E
:1054700024F4003345E80032002AF7D1BFF35B8FF4
:1054800014F40034E4D0FFF7ABFF0024E0E700BFE2
:1054900038540020A001020028ED010010EE0100A8
:1054A000B0010200A854002010B5FEF71BFD044611
:1054B00070B101234FF0000263F307020549064B68
:1054C0005B1ADB08014663F38F12044815F0AEF84F
:1054D000204610BD28ED010010EE01007B01020006
:1054E000F0B40278012A04460B4617D01AB1022AFA
:1054F0002CD0F0BC7047184A0D4602F11007106816
:1055000051682E4603C60832BA423546F7D11278A2
:10551000327062885A73120A9A73EAE70E4A0D468D
:1055200002F11007106851682E4603C60832BA42CD
:105530003546F7D11278327062685A73C2F3072188
:10554000120CDA73120A99731A74D2E70146112207
:105550001846F0BC15F051BDEB02020010B5064C28
:10556000226832B18068037823B901309047002364
:10557000236010BD0020F9E72402002070B50B4D18
:1055800006460FCD8CB001AC0FC40FCD0FC495E80B
:1055900007000A2E84E807009BBF0CAB03EB8606CE
:1055A000034856F82C0C0CB070BD00BFA4EE0100EF
:1055B000BE0C0200F8B586680F486FF0100115F0B8
:1055C0005BFE337843B9711C40220C4815F015FD81
:1055D0000821094815F065FE094D084F2C680CB9E3
:1055E0002C60F8BD32782368002A0CBF38460020B2
:1055F00098476468F3E700BFA8540020141C0020FB
:105600002802002002234FF0000281680548097833
:1056100063F30702044B1B1ADB0863F38F12034882
:1056200015F004B828ED0100E8ED0100ED090200D5
:10563000836810B51C88204602F086FE80B90123DD
:105640004FF0000263F307020749084B08485B1A52
:10565000DB08214663F38F12BDE8104014F0E6BF6B
:10566000BDE8104015F0ABBF28ED0100E8ED0100EA
:105670005D0B020073B58568B5F80160304602F035
:1056800063FE044680B901234FF0000263F3070272
:105690001E491F4B1F485B1ADB0863F38F1231460C
:1056A00014F0C4FF02B070BD2B78BBB92A79EB7837
:1056B00043EA0223A0F88630AA796B7943EA0223F1
:1056C000A0F88C30EB792A7A43EA0223A0F88E30D6
:1056D00002F03AFB204615F072FFE3E71A2BF9D1EE
:1056E000C378012BF6D14FF48061043015F0D9FD59
:1056F0004305EFD4D4F8883000936946D4F890304D
:105700000193204603F0A0F9E4E700BF28ED010073
:10571000E8ED01005D0B020010B502234FF000041C
:105720000A4A8189806863F30704094B9B1ADB08E6
:1057300063F38F14FFF720FBFDF7A4FB224601461D
:10574000BDE81040034814F071BF00BF28ED010010
:10575000E8ED01001F0B020010B5C37A044613B92F
:105760000123437210BDD0F89C301BB35A7AD10785
:1057700020D5D2061CD51B7A102B19D104236372B5
:10578000A27A637A9A42EDD901234FF0000163F3C4
:105790000701094A094B0A489B1ADB0863F38F117A
:1057A00014F037FF20460521BDE8104015F00ABF70
:1057B0000323E4E70223E2E728ED0100E8ED01001E
:1057C000980C020070B58568B5F80160304602F0AB
:1057D000BBFD044680B901234FF0000263F30702CA
:1057E0001749184B18485B1ADB08314663F38F12D0
:1057F000BDE8704014F01ABF297889B1437A8372EA
:1058000015F095FF2B78292B9ABF104AD15C0821FF
:10581000204602F007FB2046BDE8704015F0CFBEE1
:105820008378012B04D107F049FE2046FFF794FF4F
:10583000637AA3722978204615F079FF0021E7E703
:1058400028ED0100E8ED0100150A0200FC0202004B
:1058500070B58568B5F80160304602F075FD044604
:1058600080B901234FF0000263F3070219491A4B74
:105870001A485B1ADB08314663F38F12BDE87040AB
:1058800014F0D4BE297889B1437A837215F04FFFA2
:105890002B78292B9ABF124AD15C0821204602F0AE
:1058A000C1FA2046BDE8704015F089BE8278EB78D9
:1058B000C372012A05D10BB107F000FE2046FFF7A5
:1058C0004BFF637AA3722978204615F030FF002140
:1058D000E4E700BF28ED0100E8ED0100150A020031
:1058E000FC02020007B5042102F066FD60B9084B16
:1058F00018689A8800909B79ADF8042003216846C7
:105900008DF8063002F058FD03B05DF804FB00BFCF
:10591000D0EE010073B502EBC303044608461178CC
:10592000A1421ED008329A42F9D102234FF000055D
:10593000194A8689806863F30705184B9B1ADB08B0
:10594000314663F38F15FFF717FAFDF79BFAADF8B1
:105950000050034632462146114814F093FE02B02F
:1059600070BD818953788B4211D901224FF0000319
:1059700062F307030848094A121AD208094862F379
:105980008F13224602B0BDE8704014F063BE536826
:1059900002B0BDE87040184728ED0100E8ED0100B5
:1059A000630902004109020010B5012104460830D4
:1059B00018F07DF921460A23024A0078BDE810401C
:1059C000FFF7A8BFB8F201002DE9F043064685B005
:1059D0009079DFF8F0800F46154610F005FD804500
:1059E0001AD002234FF0000463F30704304A314B0E
:1059F000A8790096D21AD20862F38F14019010F0A1
:105A0000F3FC2346CDE90208042269462A4814F033
:105A100054FE05B0BDE8F083284610F0EBFC274C9F
:105A20004FF00C0808FB00404388B34215D0022316
:105A30004FF0000963F307091D4A1E4BD21AD20822
:105A4000284662F38F1910F0D5FC08FB00404B4646
:105A500042881B48314614F0FDFD284610F0CAFC70
:105A60000C2606FB004043685BB157B9284610F08E
:105A7000C1FC06FB004043681A7AD3E9000115F027
:105A80001FFC284610F0B6FC0C2606FB004083687D
:105A9000002BBED0284610F0ADFC7043275428469A
:105AA00010F0A8FC06FB0040806812F0EBFCB0E7A9
:105AB000E8ED010028ED0100850902000C0200203C
:105AC000BA090200285D0020F8B50B4E07460025F4
:105AD000F379ECB2A34202D86FF0010409E0C4EB01
