:10000000004D00207D4E0000251A0200AD4E00007C
:10001000AD4E0000AD4E0000AD4E000000000000EF
:100020000000000000000000000000000D4C000077
:10003000AD4E000000000000C54B00007508020036
:100040003D4E0000798D01003D4E00003D4E000008
:100050003D4E00003D4E00003D4E00003D4E000074
:100060003D4E00003D4E00003D4E00003D4E000064
:100070003D4E00003D4E00003D4E00003D4E000054
:100080003D4E00003D4E00003D4E00003D4E000044
:100090003D4E00003D4E00003D4E00003D4E000034
:1000A0003D4E00003D4E00003D4E00003D4E000024
:1000B0003D4E00003D4E00003D4E00003D4E000014
:1000C0003D4E00003D4E00003D4E00003D4E000004
:0C00D0003D4E00003D4E00003D4E000083
:0400DC00FFFFFFFF24
:1000E00053B94AB9002908BF00281CBF4FF0FF319F
:1000F0004FF0FF3000F06EB9ADF1080C6DE904CEA1
:1001000000F006F8DDF804E0DDE9022304B07047F2
:100110002DE9F047089D0E4604468C46002B40F022
:1001200081808A42174645D9B2FA82F24AB1C2F1B9
:10013000200106FA02F320FA01F1974041EA030C8C
:1001400094404FEA174E230CBCFBFEF6B9B20EFBEF
:1001500016CC43EA0C4306FB01F0984209D9FB1880
:1001600006F1FF3C80F01581984240F21281023E78
:100170003B441B1AA4B2B3FBFEF00EFB103344EA5F
:10018000034400FB01F1A14209D93C1900F1FF33FE
:1001900080F00181A14240F2FE8002383C44641AA2
:1001A00040EA064000211DB1D4400023C5E90043C8
:1001B000BDE8F08702B9FFDEB2FA82F2002A4FD121
:1001C000CB1B4FEA174E1FFA87F80121B3FBFEFC49
:1001D000260C0EFB1C3346EA034608FB0CF3B34225
:1001E00007D9BE190CF1FF3002D2B34200F2EB8006
:1001F0008446F61AA3B2B6FBFEF00EFB106643EA85
:10020000064408FB00F8A04507D93C1900F1FF336C
:1002100002D2A04500F2D2801846A4EB080440EABE
:100220000C40C0E78B4208D9002D00F0AF800021C0
:10023000C5E900060846BDE8F087B3FA83F1002956
:1002400049D1B34202D3824200F2BB80841A66EBEA
:10025000030301209C46002DAAD0C5E9004CA7E766
:10026000C2F120039740D8409140DE404FEA174E3C
:1002700008434FEA104CB6FBFEF11FFA87F80EFB5D
:1002800011664CEA064601FB08F3B34204FA02F495
:1002900009D9BE1901F1FF3C80F08E80B34240F2D3
:1002A0008B8002393E44F31A86B2B3FBFEF00EFB9C
:1002B000103346EA034600FB08F3B34207D9BE19E0
:1002C00000F1FF3C74D2B34272D902383E44F31AB3
:1002D00040EA01417AE7C1F1200703FA01F422FA6A
:1002E00007F31C4320FA07F906FA01F34FEA144C0E
:1002F000FE4049EA03094FEA1943B6FBFCFE1FFA28
:1003000084F80CFB1E6643EA06460EFB08FAB2456B
:1003100002FA01F200FA01F308D9A6190EF1FF3032
:1003200048D2B24546D9AEF1020E2644A6EB0A06E3
:100330001FFA89F9B6FBFCF00CFB106649EA064689
:1003400000FB08F8B04507D9A61900F1FF3C2DD2F3
:10035000B0452BD90238264440EA0E40A6EB0806E9
:10036000A0FB02894E45C446CE4618D315D075B3BE
:10037000B3EB0C0266EB0E0606FA07F722FA01F35E
:10038000CE401F43C5E90076002111E729462846E3
:100390000EE76646EDE6184601E74345E7D2B8EBBF
:1003A000020C69EB04040138A646E0E76046D3E797
:1003B00060468CE78646B9E7614674E702383C44FC
:1003C0002BE7084647E7ACF1020C3E4411E729460B
:1003D000EEE600BF704700BF70B5444DD5F81C3144
:1003E000996811F0010188B01FD103AA40F60340BB
:1003F00006F0AEFB0446002874D1039B9B681B7873
:1004000083B905F19403184621F082FDBFF35B8F99
:1004100000F0050053E8002F43E800010029F9D15E
:10042000BFF35B8F03981BF093FA03AA002141F2FC
:10043000030006F08DFB0446002853D1039B2C4893
:1004400099680822013121F0C2FB03981BF080FA61
:10045000214603AA41F2010006F07AFB0446002877
:1004600040D1039883685A7885F83420D9789A78EF
:1004700042EA0122EA861A7985F83520197ADA7972
:1004800042EA01222A875A799B7942EA03236B8741
:100490001BF05EFA214603AA41F2020006F058FB67
:1004A0000446F8B9039B134899684022013121F0B2
:1004B0008EFB95F86630039843F0060385F86630A6
:1004C0001BF046FA95F840305A061BD40A4B0B49EC
:1004D0000B48C91AC908890141F001011FF0B9FB95
:1004E0006FF01204204608B070BD00BF000000206D
:1004F0003C00002044000020504F02001850020031
:10050000037E0200214603AA42F2030006F020FB0C
:1005100004460028E6D1039BB548996808220131BA
:1005200021F055FB03981BF013FA214603AA42F26F
:10053000020006F00DFB04460028D3D1039B9B6804
:10054000B3F80120A5F8C42091B221B1DA78A94806
:10055000114624F01CF903981BF0FAF995F8406055
:1005600016F0200600F01D8195F860301B0711D5AC
:1005700003AA002142F21C0006F0EAFA0446002811
:10058000B0D10398836853F8012F5B68C5E928232D
:100590001BF0DEF995F898309E0624D502A90DF1DE
:1005A000060006F0A1FC044600289BD1042142F27B
:1005B000240006F071F90646002800F0F9800421B5
:1005C000083023F04DFCBDF806300380BDF808303C
:1005D00043802246314642F2240006F0B9FA04462E
:1005E00000287FF47FAF95F898305C062CD5022167
:1005F00042F22E0006F050F90446002800F0D880A0
:100600000221083023F02CFC6FF07B0303700323DE
:1006100043702146002242F22E0006F099FA044669
:1006200000287FF45FAF014603AA42F22A0006F0D9
:100630008FFA044600287FF455AF039883685B78EF
:1006400085F8E0301BF084F9082142F2010006F041
:1006500023F90446002800F0AB800821084423F069
:10066000FFFB95F8981011F0400F024640F202236C
:1006700008BF032388074CBF43F02C0043F00C0055
:100680008B0695F8993048BF40F0400013F0090FF1
:1006900095F8663018BF40F4006003F00603CE07FB
:1006A00048BF40F01000062B08BF40F4C070002186
:1006B00021F06DFC2146002242F2010006F048FACA
:1006C000044600287FF40EAF95F8403098061ED4FB
:1006D000B5F8C410D9B903AA41F2050006F038FAFA
:1006E000044600287FF4FEAEB5F8C43063B9039B1E
:1006F0009B685A78997842EA0122A5F8C4209A8822
:100700003C48114624F043F803981BF021F90821D6
:1007100040F6014006F0C0F80446002848D0082101
:10072000084423F09DFB95F89830D907024654D52C
:100730002DA1D1E9000121F02AFC2146002240F63A
:10074000014006F005FA044600287FF4CBAE0146CE
:1007500002AA4FF6014006F0FBF9274E274BF61A86
:10076000F608B601002855D0254846F002011FF0D2
:1007700070FA08F06BFC044600287FF4B3AE014623
:100780003022204821F04EFA1F4BC5F83431EB7966
:10079000002B40F0AC801D4846F003011FF059FAD1
:1007A000A0E6022140F66D4006F076F8044610B946
:1007B0006FF0360496E60221083023F051FB012346
:1007C000037046702146324640F66D4006F0C0F98F
:1007D000044600283FF4C8AE84E60D484FF00051AF
:1007E000A9E700BFAFF300809088000200800020DE
:1007F00098000020C800002018500200504F02004E
:10080000277E0200300100209D6E0000FB7E02006A
:1008100010880002029B39489C68B4F80120032A22
:1008200096BF3749374951F8221046F003031FF0AD
:1008300031FAB4F80110B4F80320022946F003039A
:100840002ED1032A2CD8304951F822102F481FF0FE
:1008500021FA62792E48032A96BF2E49294951F878
:100860002210CDE90312A2790592B4F8072006926E
:10087000D4F80920079246F00303052203A91FF0CC
:100880003EFA02981BF064F802AA00214FF60240DB
:1008900006F05EF9044628B11F4846F0020166E7FB
:1008A0001849D3E7029B1D4899680222013121F0C3
:1008B0008EF902981BF04CF895F885305B077FF5B0
:1008C00058AF02AA21464FF6034006F041F918B18D
:1008D000134846F002014AE7029B12489968012238
:1008E000114421F074F902981BF032F841E7042119
:1008F0000D4821F01CFB06F0CBFFF3E54B7E020018
:10090000B0570200F577020070570200647E0200C3
:100910007C7E0200E8570200A97E020085000020CC
:10092000D27E02008400002094000020000000001D
:100930002DE9F041D0E90BC7D0F828800CEB070473
:100940003034A0450E46154618D81B4F18A3D3E9DE
:100950000023ACFB0701FFF7C3FBA4EB080420F066
:100960007F40306012A3D3E90023A4FB0701FFF707
:10097000B7FB20F07F402860BDE8F0810E4C0CA34F
:10098000D3E90023A8FB0401FFF7AAFB20F07F4373
:1009900007F130003360A0FB040105A3D3E9002375
:1009A000FFF79EFB20F07F402860BDE8F08100BF8C
:1009B0008D49FD1A0700000000CA9A3B00000000A4
:1009C0002DE9F04FAC4C94F84E608FB006F0010664
:1009D000002800F05B81B6BB94F8392094F82D30E4
:1009E00094F8290004EB820204EB830300F0030077
:1009F000FF21D2F83C80D3F8309084F82A1017F009
:100A00006FFC94F84E00420700F11681B9F1000F17
:100A100011D09948494612F04FFD99F800305B0615
:100A200005D506210EF012F8002800F04082924809
:100A3000414612F041FD99F8003013F00E0F40F0DE
:100A4000D180636A23B10C2630460FB0BDE8F08F29
:100A500011F0B2FE8246002800F0468211F0B8FE86
:100A60008346002800F0598213F034FA0546002826
:100A700000F050824FF6FF73806FAB8505F11C03C9
:100A80000B93002800F02C8205F16C0205F168013F
:100A90000DF0E8FFB5F86420784895F83D1095F81A
:100AA000327195F840C0764B2B66024042F4887252
:100AB00095F87E00C5F83CA142F0010201F03F012B
:100AC00027F0030E61F07F010027A5F864204FF0A6
:100AD0001B1220F01F0085F83D1067F3000C062163
:100AE000EA65684A85F832E185F840C085F87E00FD
:100AF000C5F82821C5E9137785F83F706F866F63C5
:100B00006F65A5F8C870A5F8CC70C5F80C71A5F88C
:100B10001071A5F82471C5F82C71A5F8307185F80D
:100B20003B71AF67A5F87C70A5F85C71A5F8C4109F
:100B300095F85E1195F87EC195F8A601B5F8DC2010
:100B4000A5F87C7167F3041C21F0070102F0FC0298
:100B500067F3C30085F87EC185F85E11A5F8DC2037
:100B6000C5F8E470A5F8E87085F8EA70A5F8A471F6
:100B7000A5F8B07185F8A60113F0DCFCA5F8D60045
:100B800013F0DEFCD5F8B4113F4AA5F8D8000A40AE
:100B9000C5F8B42113F0DAFC95F8B82160F302022D
:100BA00085F8B82113F0D8FCC4E911AB0B9B636244
:100BB00095F8B82195F82030C5F8CC7160F3C502DE
:100BC00067F30003C5E97177C5E96F77C5E9057774
:100BD000ED6185F8B82185F8203018F0EDFC00288B
:100BE00040F0678194F828300121C3F342030DA837
:100BF0008DF834300EF0AEF890B399F8003003F071
:100C00000F03022B00F1FF3200F09E80012B00F059
:100C1000548198F801001030C000002B40F03F8153
:100C200099F801301033DB0003F54D71084403F5EA
:100C30009A7303FB020092E0C0F3C000324604F155
:100C40004F0117F0C1FCFF2884F82A003FF4DEAE04
:100C5000304617F05FFBB9F1000F7FF4DAAEEAE639
:100C6000636A002B3FF4EFAE12F0C2F90C26304657
:100C70000FB0BDE8F08F00BF7C21002080F8FFFF9F
:100C8000480148017F4101000000FFF6002E3FF4BB
:100C9000DAAE204611F06CFE84420CD0A84AA94975
:100CA000A9484FF4F3631EF068FB404080F31188BD
:100CB0004FF0030002DF94F82830D9070DAD0ED5B0
:100CC00002220D920321A14B0095012200200FF07A
:100CD00035FA294611F024FE002840F02381022233
:100CE00003219A4B009500200D920FF027FA294618
:100CF00011F016FE002840F0F980954811F074FEBE
:100D0000002840F0DF80934811F03EFE84420CD072
:100D10008B4A8C498C4840F2BA731EF02EFB40403F
:100D200080F311884FF0030002DF636A0BB112F009
:100D30005FF994F84E3000266FF30003304684F8D4
:100D40004E300FB0BDE8F08F99F801301033DB0062
:100D500000FB03F000F5AA70642303FB020094F883
:100D600020707D4AE4610025312365F30007A0FB74
:100D70000201236084F820706FA3D3E90023C4E943
:100D80000555C4E90155FFF7ABF9B4F84C80E060B4
:100D90000FF01AFA0746B8F1000F08D199F8005081
:100DA00005F00F05A5F10105B5FA85F56D0994F873
:100DB0002820E36865F3000212F0010584F828207A
:100DC0003DD0DFF8889165490493002002250DF19C
:100DD000300801930591CDE907980321CDE9020080
:100DE00006942A4600903B460C950FF01FF94146A9
:100DF00011F096FD00287FF433AF594905914AF26E
:100E0000D8320092CDE90798CDE90300CDE9010081
:100E100006943B46012203210C950FF007F9414649
:100E200011F07EFD00287FF41BAF94F84E30304661
:100E300043F0010384F84E300FB0BDE8F08F49480D
:100E4000494ADFF808E1DFF814C10694A8FB000165
:100E50004FF0910909FB081103F24718C2F800800E
:100E60004FF00209049309920DF1300832A3D3E93F
:100E700000234FF6FF7ACDE907E80295CDF83090D0
:100E8000CDF814C0CDF80CA0FFF72AF94A46CDE9F9
:100E900000503B46284603210FF072F8BFE7062BAF
:100EA0003FF4BEAE4FF4DA734FF41B70C1E6122666
:100EB000CAE512F09DF80326C6E54FF4F2734FF42D
:100EC0007F70B6E61E4A29491F4840F2B7731EF0EC
:100ED00054FA404080F311884FF0030002DF12E71C
:100EE00005F17000A867CFE50726ADE5194811F0B8
:100EF0004BFD84423FF4A7AD40F2B173104A114953
:100F000011481EF03AFA404080F311884FF0030078
:100F100002DF98E5584611F061FC504611F052FC92
:100F2000072691E50B4811F02FFD84423FF48BAD6D
:100F300040F2A373E2E700BF8D49FD1A07000000ED
:100F40001C5F02000C6002006C5B0200E5170100F0
:100F5000982100207C21002000CA9A3B5D2D0100D1
:100F6000692F0100002AE784D4210020F85D0200E7
:100F70002DE9F04FC84D2B688BB004460F469146C3
:100F8000002B00F01B82E68E628E94F8123116441C
:100F90003E4413F00703B6B240F0A781B4F8EC80EA
:100FA000A6EB08021FFA82FA120400F1028294F9F9
:100FB0003D20002AC0F23D8194F8E83084F8E93001
:100FC00094F87C2194F87D3194F8101184F8111173
:100FD000934206D094F87E3103F00703052B00F00E
:100FE00046822B68A34204BF00232B60D4F80C5127
:100FF000002D00F06B812868002800F06781B4F8AC
:101000001431B4F82EC04268C4F80C216345B4F81A
:101010001621B4F8181100F02081B4F82CC0A5F8FE
:1010200006C04FF0150E4FF0000CEB832A84698444
:1010300085F804E085F81CC0294611F0D5FB11F0B5
:10104000DDFB2368002BC0F2FC80E08DB4F8145166
:1010500010FB0AF080B2B0FBF5F315FB03F292B27D
:1010600090421FFA83FBC0F0D38005FB130340F2CC
:10107000E2428A489BB202FB03F3A3FB000184A374
:10108000D3E90023FFF72CF8A9EB0009618E94F94E
:101090003D30A8EB06065E440F44374440F2E24878
:1010A000002B678608FB05F5C0F28A817C4A7D49E2
:1010B0007D4840F6F6131EF060F9404080F3118839
:1010C0004FF0030002DF0027AA46B4F81821B4F855
:1010D0001601764B7649208642F2107C0CFB0252B8
:1010E0002B442944B3FBF5F300F1060C013AB2FBA3
:1010F000F5F2B1FBF5F599B2A4F8C6206145B4F854
:101100001421A4F8D210A4F8CA50E28502DD091A0D
:10111000063989B294F81231A4F8CE101B0744BFE7
:101120000023A4F8C830022101201AF097F9002208
:101130000221054601200DF0E3FC5E494FF4EA72FE
:1011400020460DF06FFC00F103085FFA88F85A4B57
:1011500000944246012100200EF0F0FF30F002031F
:101160000CD04F4A5549504840F625231EF005F94A
:10117000404080F311884FF0030002DF474BAAFB89
:1011800003AB504642A3D3E900235946FEF7A8FF1C
:101190004B4AE368049320F07F46A6FB0223072016
:1011A00000FB0633BAEB02006BEB0301DFF814E13E
:1011B000DFF814C1089406944FF47A7200234FF6B6
:1011C000FE74CDF81CE0CDF814C00394FEF788FF40
:1011D0004B46CDE9016000974246012100200EF008
:1011E00025FF30F002030CD02D4A34492E4840F63A
:1011F0003F231EF0C2F8404080F311884FF00300F7
:1012000002DF002D40F02A8128460BB0BDE8F08FA8
:10121000121A40F2E243214803FB02F2A2FB000152
:101220001BA3D3E90023FEF75BFF20F07F4081443E
:101230002CE794F8DD20002A3FF4BEAE84F8DD30C0
:10124000BEE6D4E9010223F0004382422CBF914460
:1012500081442360A9EB0309F7E6B4F830C0944554
:101260007FF4DBAE40F2E24C0CFB03FB42F2107C5D
:10127000B4F8C6E00CFB01BC0CF1FF3CBCFBFBFC72
:101280001FFA8CFCE6457FF4C8AE01232B71D3E630
:101290008D49FD1A07000000C823002000CA9A3BB0
:1012A00028600200DC5B02006C5B02007FC3C901A6
:1012B000FF596202F42100206D380100086102002C
:1012C0008D49FD1A15380100157C0100784A7949CD
:1012D000794840F67A131EF050F8404080F31188A8
:1012E0004FF0030002DF286889E6012011F08CFA34
:1012F0000746002800F0CD8070480DF05DFB0546E4
:10130000002800F0C68011F09DFA3A682B79D4F8D5
:101310000C11516043F003030C22C4F80C716A7184
:101320002B71238ED4F81C21654F94F812110020E4
:101330001E44E871A7FB0232C2F38F2294F82031D9
:101340002B72D4F8BC31A5F80920B4F81421A5F803
:101350000B200636B4F81621A5F80D20B6B2B4F865
:101360001821A5F80F2060F30201A4F8EC6084F8BE
:101370001211A5F81160002B7FD094F85E21900720
:101380007BD494F8B721D10777D4D4F8C8219342FD
:1013900004BF1A68C4F8C821D4F8C021002A6FD14C
:1013A0001A682A601D602B68C4E970550BB9C4F82F
:1013B000CC516FF043000BB0BDE8F08F2860E2E540
:1013C000E26C636C3F4F03FB1A23E36418F046F9A9
:1013D000064694F8DC00C0F3820018F041F9064498
:1013E00005FB06F6384BE26C94F8201106F57426DE
:1013F00006F23F26A3FB0636B60C06FB0BF06B0885
:101400000244963B9A4228BF1A4608FB01FC4FF063
:10141000000EC4E91232A0FB070123A3D3E9002385
:10142000C4F854C0C4F8E4E06664FEF759FE244BE7
:101430008446D4F81C01A3FB0030800A08FB00F0AE
:10144000A0FB070118A3D3E90023A9EB0C09FEF7C1
:1014500047FEA5EB060A20F07F4736E6012210463C
:1014600002210DF04DFB00200BB0BDE8F08F0023F2
:1014700084F87D21A4F8CC30B3E5D4F8C0216AB15A
:10148000D4F8C4311A682A601D602B68C4F8C451AE
:101490008CE76FF036000BB0BDE8F08F2B60C4E92D
:1014A0006F55C4F8C45181E78D49FD1A070000004B
:1014B00028600200F46002006C5B02004C240020F3
:1014C0005917B7D100CA9A3B83DE1B4300000000C6
:1014D0002DE9F04F9C4695B05CF80C6B1D461368E7
:1014E00086460C4660462E31174605F1080A03224F
:1014F000D3F80090CDF828E005F11C0820F067FB38
:1015000004F12A010422504620F061FB04F13A0163
:101510000522404620F05BFB404605210DF01AFCF9
:1015200095F8213000F03F0060F30503012885F8AD
:1015300021300AD994F83F3003F01F02053AC3F373
:1015400004010B2A85F8221002D915B0BDE8F08FEE
:101550003A6896F8DC1000209060B4F83480A5F862
:10156000128094F8362094F837005B0942EA002292
:1015700063F38401AA82638E86F8DC100C9318F062
:101580006DF8034696F8DC000B93C0F3820018F068
:1015900067F80B9BDFF820C394F83110AA8A40F259
:1015A000E24B0BFB08F8184408FB00F000F5742030
:1015B00000F23F20ACFB00C04FEA580C800C0BFB44
:1015C00001F1ACF1960CA862C5F82CC0E963218F3B
:1015D000AF4BADF8361042F2107C0CFB0181AD48E8
:1015E000434402F1060C0139B3FBF8F3B1FBF8F107
:1015F000A6F8C61099B261454044A6F8D210B0FBD7
:10160000F8F0A6F8CA0002DD891A063989B2A6F8F0
:10161000CE100422514606F1E00020F0D8FA237FD4
:1016200004F11E0A5146C3F38013062212A88DF856
:10163000403020F0CCFA237F4FF48072A28399F8D7
:101640002A0097F812B0C3F340128DF83C200B9299
:1016500017F0A6FA0146062204F12B00002940F0FB
:10166000EA8020F0DFFA04F12503BBF1FF0F0E93AF
:1016700004F11F0300F0E8801A465146584616F060
:1016800067FDA27F0E980232A27712A9062220F0EF
:101690009EFA96F8DC30698AAA8AA286C3F382038E
:1016A00084F83830BDF83630E3866186304612F073
:1016B0001DFC21462882E0807C680A9811F094F88D
:1016C0002B8AE380182323710B9B2068002B00F0EA
:1016D000B78095F809E02B7A95F80BC0A97A95F8B0
:1016E000212041EA0C2143EA0E234B4042F0400204
:1016F00001216B8485F821202177214611F074F8AF
:1017000011F07CF895F84900012100F0070017F06E
:10171000B3FE614A00248246312300F25240A0FB0E
:1017200002013360C6E9014457A3D3E90023FEF761
:10173000D7FCFA680C99AB6A20F07F4040F2E24592
:1017400005FB0125F060224602210120A8EB0308D9
:101750000DF0D6F9484611F0EDFD821C4F4BCDF847
:101760000090D2B2204601210EF0E8FC05F2863549
:101770000128A5EB0A057FD099F82830DB0773D440
:10178000304612F0B3FBDFF810B1A8FB0B893EA383
:10179000D3E90023044649464046FEF7A1FC404AEF
:1017A000069620F07F4AAAFB0223072101FB0A3399
:1017B0004FF4B671BF6808913A4907913A490591CB
:1017C000B8EB020069EB0301F368049300264FF4C1
:1017D0007A7200230396FEF783FC2BA3D3E9002340
:1017E0008446A5FB0B01CDE901ACFEF779FC03347F
:1017F00020F07F40E4B2313F3B4600902246304625
:1018000001210EF013FC30F002030CD0274A2849C6
:10181000284840F26D131DF0B0FD404080F3118860
:101820004FF0030002DF0122104602210DF068F99B
:1018300015B0BDE8F08F04F1240120F0C8F912E7DB
:101840009DF83C30237758E70E981193062200212B
:1018500020F0E8F99DF84030A377119B12A91846B3
:10186000062220F0B4F914E7002301220093184661
:1018700011460EF063FC83E711F092F881453FF4C6
:101880007BAF16F0A3F977E78D49FD1A070000003A
:101890007FC3C901FF59620200CA9A3BF97B01006C
:1018A0008D49FD1A9D7B0100157C010050620200EC
:1018B000086102006C5B020083DE1B430000000035
:1018C0002DE9F04F8FB00DF13701354F0B900DF131
:1018D000360010F0FFFF9DF83730DFF8D8909DF804
:1018E00036A00A930EF070FC3C68A4FB09452AA3BD
:1018F000D3E90023804629462046FEF7F1FB0B9BE7
:10190000069383467868274B0593002622A3D3E9E4
:101910000023A0FB0901CDE90766FEF7E1FB224B9E
:101920002BF07F49A9FB03BC20F07F40072303FB7A
:1019300009CCCDE90360B4EB0B0065EB0C014FF46F
:101940007A720023FEF7CCFB0A9A0096CDE901904B
:101950004346032150460EF069FB30F0020415D1D6
:10196000124A134800231CF09FFF68B19DF83720EE
:101970009DF836000094234603210EF0DFFB6FF044
:101980003B000FB0BDE8F08FF868FAE76FF0470052
:10199000F7E700BFAFF300808D49FD1A0700000094
:1019A0006C2C002055C701008D49FD1A447B0B00AB
:1019B0007C2C002000CA9A3B38B50F4D04460EF02F
:1019C00003FCA9680EF002FC0C49B0FBF4F40444DB
:1019D000686807A3D3E90023A0FB0101FEF780FBA1
:1019E00020F07F40844294BF0020012038BD00BF1A
:1019F0008D49FD1A070000006C2C002000CA9A3B9C
:101A000008B504481DF0B9FCBDE80840002000F00E
:101A1000B1B900BF2C6A020008B521B1BDE8084089
:101A200005481DF0AABC05481DF0A7FCBDE808400C
:101A3000012000F09FB900BF4A6A02006A6A0200F2
:101A400070B503788AB004460E4607AD032B20D844
:101A5000DFE803F002191B1D1149284620F05FF84A
:101A600063780493A3780393E37802932379019333
:101A7000637900930B4AA37905951E2130461DF02A
:101A800089FC0AB070BD0849E7E70849E5E708495D
:101A9000E3E7084A0A2128461DF07CFCE0E700BF86
:101AA000756A0200976A02007C6A0200836A02007B
:101AB0008D6A0200A98B020010B588B00C4620F098
:101AC00097FC6946FFF7BCFF0348224669461DF0B4
:101AD00054FC08B010BD00BFBA6A020000B589B05E
:101AE00020F086FC6946FFF7ABFF034869461DF00E
:101AF00044FC09B05DF804FBD06A020070B5002018
:101B000088B005F03DFF064628B101461A481DF091
:101B100034FC08B070BD194D19481DF02EFC1EF0A4
:101B200022FD0FCD03AC0FC42B682360154900962E
:101B30003346032203A806F099FA0146C0B11248C1
:101B40001DF01BFC114806F00FFE114807F056FA75
:101B500000F0F4F800214FF400401CF057FE01F0B3
:101B600007FC0A280CBF5A20162001F037FCF1E7C9
:101B700008481DF002FCE5E7E76A0200F0500200A9
:101B8000076B0200B85102001E6B02001C0200200D
:101B9000F8010020446B020008B50849084B0948C9
:101BA000C91AC908890141F003011EF052F8BDE8C5
:101BB000084005490022012007F0C2B8C0500200C9
:101BC000504F0200996B0200511C00002DE9F041BA
:101BD0001D46194C194BBDF818601948E41AE40861
:101BE000A40144F003073A4631461EF03FF805B120
:101BF0003EB9144844F003011EF02BF80020BDE864
:101C0000F081114C04F104083246294640461FF089
:101C1000DEFF61680D483A461EF028F8206832461B
:101C2000294608EB80001FF0D2FF084861683A4659
:101C30001EF01CF80120E2E7C0500200504F0200E5
:101C4000B86B0200CD6B0200A0140020D46B020020
:101C500037B5154D0023042204468DF804300DEBF2
:101C6000020142F619232846ADF806301FF0AFFFF7
:101C70000E490F4B4B6001230B814FF6FF73CB8155
:101C8000204603230B740D6009F074FF48B1094925
:101C9000094B0A48C91AC908890141F003011DF01E
:101CA000D8FF03B030BD00BFE42D00208C1400200D
:101CB000C11C0000C0500200504F0200E16B020046
:101CC000F8B5164C164BE41AE40807460E46A40174
:101CD00031B9144844F003011DF0BBFF0020F8BDEA
:101CE000114D124844F0030421461DF0B2FF1022AA
:101CF000002128461FF096FF0D4B2B600D4BEB602B
:101D0000338A2B8129464FF6FF7338466B810AF0E0
:101D1000CBFA0028E2DA08482146DDE7C05002008D
:101D2000504F0200036C0200A8140020236C020034
:101D3000CD1B0000E42D0020396C020008B50849D5
:101D4000084B0948C91AC908890141F003011DF06F
:101D500080FFBDE8084005490548002222F01DBE6D
:101D6000C0500200504F0200496C0200991B000055
:101D7000A00B002007B560B14FF440320023CDE93D
:101D800000230748002200231DF0B6F803B05DF8D9
:101D900004FB034803B05DF804EB22F00ABE00BF69
:101DA000A00B002030B50A4C0A44914200D130BD4E
:101DB00011F8013B58400309E35C83EA0013DDB2EC
:101DC000C3F30313E05C80EA0510C0B2EDE700BF87
:101DD0005D6C02000B6801330B60014B1B681847F8
:101DE00038020020014B1860704700BF3802002005
:101DF00007B50B46002102460191034801A900F0F6
:101E0000FFF803B05DF804FBD51D000030B585B0C8
:101E1000CDE901010446002501A90548039500F01C
:101E2000EFF8DDE902309842B8BF255405B030BD67
:101E300055F301002DE9F84FB0F8189019F0080893
:101E4000044693460DD001290CBF49F0100949F012
:101E50002009A0F818908BF31188BFF36F8FBDE8AD
:101E6000F88F09F00709022907D120461DF09FFAD3
:101E70000028F0D00128238B50D16769218B002FD7
:101E800015DA256821F00701C4E9008841F0010155
:101E900021830026218B01F0070ACA4502D0A368DE
:101EA000002B5CD10DB9002E74D0002358E001F056
:101EB00007035A1F012A20D821F00701062B2568A5
:101EC00089B2C4E900880CD1002D2B4638BF00230D
:101ED0002BB1628B1B6801326283002BF8D141F079
:101EE0000201218320461DF062FA06460028D1D067
:101EF000238B43F020032383CBE7042B0CD121F069
:101F0000070189B2218320461DF051FA05460028B9
:101F1000BFD041F0200121830025BAE7032809D171
:101F2000226923F00703166843F006032383002584
:101F30002F46AFE7042806D1226923F0070356682D
:101F400043F00403F2E7052806D1226923F00703D2
:101F5000966843F00503E9E700252E46E8E70123EC
:101F600041F0080121838BF31188BFF36F8F03BB0E
:101F7000002D33D116B121492046B0474FF0200340
:101F8000EFF3118B83F31188BFF36F8F238B23F053
:101F900008032383238BDA0628D523F01003238339
:101FA0000121B4F8189009F0070900297FF45BAF0C
:101FB00051E7A1680029DBD00B68D1F804B0002BF1
:101FC00038BF0023994652463B462046D847B9F1D0
:101FD000000FCDD0D9F800304946EEE729463B4600
:101FE000524620462D681DF0FEF9C1E713F020018E
:101FF0001EBF23F0200323830221D2E713F4010044
:102000002DE9F04F91B08B46029092461C46002578
:102010009AF8000008B928465EE325280AF101076E
:1020200007D0029B594698470028C0F255830135D6
:1020300010E2182200210AA81FF0F4FD9AF80130DE
:10204000252B78D0002294461646964610463946EF
:1020500017F8013B2B2B00F09D8000F29480202B81
:1020600000F09B80232B00F09A8028B19DF830006F
:1020700040F004008DF83000BEF1000F05D09DF84F
:10208000300040F008008DF830002EB19DF830008F
:1020900040F010008DF83000BCF1000F05D09DF825
:1020A000300040F020008DF830002AB19DF830203B
:1020B00042F040028DF830209DF8302002F04400BC
:1020C000442803D16FF386128DF830209DF830201C
:1020D0002A2B42F080028DF830207BD19DF83120F0
:1020E00042F001024B1C8DF831201A782E2A9DF8FF
:1020F00031200CBF0121002161F341028DF8312014
:1021000074D15A782A2A6AD0013300210A26184647
:1021100010F8012BA2F13007092F40F28E809DF8B4
:1021200030200E91C2F3400040EAD17161F34102C8
:102130008DF830205AE00AF102078DF833309DF80F
:102140003130D90740F1498154F8049BB9F1000FAF
:1021500007DA9DF8302042F004028DF83020C9F1F2
:1021600000095A0740F1428154F8048BB8F1000F7E
:1021700080F241819DF831306FF341038DF83130A9
:102180004FF0FF3837E12D2B0CD0302B7FF46DAFA3
:1021900001225CE74FF0010E59E7012657E74FF0A7
:1021A000010C54E7012052E70CFB0202303A33469F
:1021B0001E4616F8010BA0F13007092FF4D99942F9
:1021C00093D09DF830100D92D20F62F341018DF83B
:1021D00030108AE70B4600224FF00A0CE8E79DF822
:1021E000312042F004028DF8312002331F4617F8E7
:1021F000012B6C2A41D025D8682A2BD06A2A46D0D8
:102200004C2A4CD01F4617F8012B9DF831308DF821
:102210003320782A00F2D980572A4DD8412A03D09A
:10222000453A022A00F2D1809DF83230042262F34E
:1022300002038DF8323001239EE006FB0121303984
:10224000034664E7742A26D07A2ADBD19DF8313020
:1022500006220DE05A78682A9DF8312006D1012126
:1022600061F3C6028DF831209F1CCCE71346022291
:1022700062F3C6038DF83130C5E75A786C2A9DF8B1
:10228000312001D10421EBE713460322F0E79DF84A
:1022900031300522ECE79DF831300722E8E7BDF840
:1022A000303023F4F04323F0020343F4804343F03F
:1022B0000203ADF83030A6E7A2F15801202900F260
:1022C000848001A050F821F08D230000CB23000072
:1022D000CB230000CB230000CB230000CB23000046
:1022E000CB230000CB230000CB23000029220000D9
:1022F000CB2300008D2300004D2300002922000085
:102300002922000029220000CB2300004D230000D9
:10231000CB230000CB230000CB230000CB23000005
:10232000952300008D230000B1230000CB23000083
:10233000CB230000B1230000CB2300008D2300003D
:10234000CB230000CB2300008D2300009DF832102A
:10235000012003F0780360F30201402B8DF8321066
:1023600002BF9DF8301041F001018DF83010632A52
:1023700031D1003B18BF01239DF83020C2F340014A
:102380000B4363F341028DF83020D8E69DF83210FC
:102390000220DEE79DF8322003F07803A3F140002D
:1023A000032161F3020243428DF832204341E3E707
:1023B0009DF83220032113F0780F61F302028DF8AB
:1023C000322014BF01230023D6E79DF8303043F0BC
:1023D00001038DF830300023CEE79DF93020002A2C
:1023E000B4BFDDF834904FF0FF39BAE69B077FF5B4
:1023F000C7AEDDF838809DF831200023CDE90D33DC
:102400009DF8323003F00703012BC2F3C30236D12B
:10241000D31E042B20D8DFE803F00307071F1F009B
:1024200054F8040BC11704E0073424F00704F4E85F
:102430000201CDE90A019DF8303013F0030654D0B3
:1024400002983B46524659461DF0A9FB0028C0F2AF
:1024500043810544BA46DBE554F8040B012A4FEAF0
:10246000E071CDE90A0105D19DF828300A930023D7
:102470000B93E0E7022ADED1BDF92800D2E7022B58
:1024800023D1D31E042B13D8DFE803F0030A0A126A
:10249000120020680A900021231D0B911C46CAE7F8
:1024A000073424F00703F3E80201CDE90A01F5E758
:1024B00054F8043B0A93012A4FF000030B93D3D046
:1024C000022AB8D1BDF82830D0E7042B07D1073451
:1024D00024F00704F4E80201CDE90A01ABE7032B7D
:1024E00004BF54F8043B0A93A5E79DF8330078280D
:1024F000B0D8622822D825283FF493AD5828A9D116
:102500000DF126030093DDE90A0104AB0CAA1DF0CE
:10251000FBFA8246B8F1000F0DF126000CDB9DF8A6
:102520003020A0EB0A036FF3861298458DF8302017
:1025300002D9A8EB03030D9380463DE063381528CC
:1025400088D801A151F820F0C92500002D260000EF
:102550005524000055240000552400005524000097
:102560002D260000552400005524000055240000AD
:10257000552400008B260000592600005D2600002F
:102580005524000055240000A1250000552400001A
:10259000592600005524000055240000592600004B
:1025A000B8F1000FDDF828A00ADB414650461FF0C5
:1025B000DAFA0AEB00080026BAF1000F0CD149E75D
:1025C00050461FF0C9FAF4E70A9B8DF81030002638
:1025D0000DF111080DF1100AA8EB0A0306B1013341
:1025E0009DF83220D0066BD5023352060D9948BFB4
:1025F0000E9A0B4448BF9B18B9F1000F79DD9DF886
:102600003020A9EB0309C2F380030393530770D46E
:10261000500664D546B1029B59463046984700287B
:102620005ADB039B01351E46302359E01E0711D4A7
:1026300013F0100618BF2026DDE90A23002A73F1E3
:102640000001BFF65DAF524263EB4303CDE90A23BD
:102650002D2655E72B26EFE7002651E70A9848B3C9
:102660000DF1260300930CAA04AB00211DF04CFAD7
:10267000BDF8323003F0EF0343F4F04343F01003AE
:102680008246ADF83230002644E70A9B072A3FF61F
:10269000E1AEDFE802F00D04060D08080D0D1D7017
:1026A000D8E61D80D6E62846E917C3E90001D1E641
:1026B0001D60CFE6DFF8C4800646A8F1050A8BE767
:1026C000110748BF013390E7184603935946029B10
:1026D00098470028039B04DA11B0BDE8F08F20234F
:1026E0004D444A46002AA5EB090109F1FF39EBDC0C
:1026F0000D4636B1029B5946304698470028EBDB21
:1027000001359DF83230D90601D41A0706D5029B4F
:102710005946302098470028DEDB01359DF83230DD
:10272000DB0607D59DF83300029B594698470028E1
:10273000D2DB01350D9E2E44731B002B16DC029854
:102740004346524659461DF02AFA0028C4DB054488
:10275000A944A9EB0503002B7FF77CAE029B5946E9
:10276000202098470028B7DB0135F2E7029B594645
:10277000302098470028AFDB0135DDE7726C02009E
:1027800030B51049104889B0002222F006F90F4DEB
:102790000F4900220023CDE9062300240E23CDE9B2
:1027A0000334CDE901440B4B00944FF440722846AA
:1027B0001CF0ECF80849284622F003F8204609B03E
:1027C00030BD00BFDD270000D80B0020100C00201A
:1027D000A8330020F52B0000736C020001481CF0A8
:1027E0003DB800BF100A002008B500F065FA09489E
:1027F0001DF0ECF9042328220749084821F0DCFDEC
:10280000074B084A1A604FF40040BDE8084000F04A
:1028100099BC00BFC4140020405E0020CC140020EE
:102820003C0200200BFC0100F8B50F4BBFF35B8F9F
:10283000002553E8007F43E80052002AF9D1BFF396
:102840005B8F0A4C0A4E361B3611B54200DBF8BDD1
:1028500063685B792BB12368DB6813B13946204686
:10286000984701351034F0E7BC140020C85002002E
:10287000E8500200064BBFF35B8F53E8002F013294
:1028800043E800210029F8D1BFF35B8F704700BFF8
:10289000BC140020044A054B9B1AB1EBD30F34BF84
:1028A00052F8310000207047504F0200C85002001B
:1028B000094B4268C31A1B11013310B513714368E9
:1028C000064C196001225A71227812B904481BF093
:1028D000C5FF0123237010BDC85002000A2E00203E
:1028E000100A002070B5114BBFF35B8F53E8005FF7
:1028F0006A1C43E800210029F8D1BFF35B8F2DB992
:102900000B4C0C4E361B3611B54200DB70BD237BE1
:1029100043B123685B6903B1984704220021204634
:10292000FFF7C6FF01351034EEE700BFC0140020EA
:10293000C8500200E8500200164B984237B50446D2
:1029400002D3154B984220D314480022002301A93A
:102950001BF094FA0546D8B90122019BBFF35B8FA7
:1029600053E8001F43E800200028F9D1BFF35B8F34
:10297000019821461F2204301FF0DBF8019C7E23C2
:1029800084F8233084F824500434204603B030BD4A
:10299000034CFAE7B44C02009C920200CC140020D5
:1029A0007B6C020048B1054B984205D3A033984296
:1029B0002CBF00200120704700207047405E00209F
:1029C0002DE9F04F4C4B1B7885B0044603B960B33A
:1029D0004FF02003EFF3118683F31188BFF36F8F5D
:1029E00046481DF003F9054686F31188BFF36F8F43
:1029F00078B1BFF35B8F424B53E8002F013A43E8B5
:102A000000210029F8D1BFF35B8F94B128461DF057
:102A100006FA24B93B4B1B680BB1FFF705FF37489B
:102A20001DF0E2F8041E18BF0124204605B0BDE8E1
:102A3000F08F354B1B78CBB92B7ADB0716D41DF002
:102A400001FA804628461DF0C8F9014640461DF0AF
:102A5000E0F82E4F2E4BDFF8D4B0DB1BDB080393DE
:102A60002C4BDB1B06464FEAD30A36B92A4E2B4FB6
:102A7000BF1B3F114FF000083AE0B6FA86F1C1F1F2
:102A80001F09494628461DF0ABF9254B98420146DF
:102A900002D3244B98421AD30846FFF783FF02461D
:102AA000A8B9214B994212D06B8903989909B0EBD0
:102AB000931F4FEA8A1343F0010388BF57F8312070
:102AC000ADF800304946434658461DF0FCF8012158
:102AD00001FA09F126EA0106C7E773685B7923B1B9
:102AE000336829461B683046984708F101081036BC
:102AF000B845F2DB8AE700BF0A2E0020C41400208C
:102B0000B8140020BC1400200B2E0020504F0200EF
:102B1000C850020080500200C8500200E850020075
:102B2000B44C02009C9202007B6C0200956C020087
:102B3000294B73B51B68418104469847274DE060D7
:102B4000BFF35B8F55E8003F013345E80032002AB0
:102B5000F8D1BFF35B8F4FF02003EFF3118683F3BF
:102B60001188BFF36F8F1E4821461DF033F886F39E
:102B70001188BFF36F8F1B4B1B7883B14FF020037D
:102B8000EFF3118483F31188BFF36F8F0020FFF7F9
:102B900017FF84F31188BFF36F8F02B070BD124A24
:102BA0002B681268002AF8D0012B0AD100220023DA
:102BB000CDE900230D484FF4004200231CF09CF99E
:102BC000EBE70A2BE9D1094821F0F3FE084802B0EF
:102BD000BDE870401BF042BE3C020020B81400204B
:102BE000C41400200B2E0020E8140020D80B002075
:102BF000100A002010B5FFF775FE1BF029FE0C4BE4
:102C0000186030B10B4B1B68092B02DD0A481BF022
:102C100025FE094C0020FFF7D3FE0028FAD14FF023
:102C2000FF324FF0FF3320461BF03EFEF2E700BFBD
:102C3000E8140020B8140020100A0020F8B50E4F48
:102C40003D7875B90D4C0E4EFFF74CFE361B361114
:102C5000B54207DB0020FFF7B3FE0028FAD10123BD
:102C60003B70F8BD63685B791BB1236820461B6924
:102C7000984701351034EBE70B2E0020C8500200B6
:102C8000E850020007B504380190BFF35B8F50E8AD
:102C9000003F5A1E40E800210029F8D1BFF35B8FA6
:102CA000012B03D1034801A91BF01AF903B05DF809
:102CB00004FB00BFCC1400202023024902481A461E
:102CC00021F07ABBE05E0020EC14002037B5002331
:102CD000094D01930120FFF773FE0446FFF7CAFD7B
:102CE0000022002301A928461BF0C8F808B1002CD7
:102CF000F0D1019803B030BDEC14002007B50023DB
:102D0000019307480022002301A91BF0B7F810B176
:102D1000FFF7DCFF0190019803B05DF804FB00BFF2
:102D2000EC140020F0B5037A457A85B02D090190A6
:102D3000D8071CD4DDB100242646019831461DF089
:102D40004FF80746FFF72EFE70B134B9019B2946B4
:102D500018691CF05EFF044648B124FA06F3D9074F
:102D600002D53846FFF78EFF0136AE42E5D3019B10
:102D70001A7A920704D55B69084C0393039B2BB91D
:102D8000064801A91BF0ACF805B0F0BD1D6803A909
:102D900020461BF0A5F80395F0E700BFEC140020D7
:102DA0000EB403B503AB014653F8042B044801935A
:102DB000FFF726F902B05DF804EB03B0704700BFDF
:102DC000ED0102002DE9F04F85B011F002049046AC
:102DD0009DF8387006461A4601F0010901F0080511
:102DE00007D011F0440F37D13249FFF7D9FF014620
:102DF0000C46B9F1000F0AD02F4B304953F8272069
:102E00002F4B3046002A08BF1A46FFF7C9FF3DB1D5
:102E10002C4B2D4953F827203046FFF7C1FF0546BC
:102E2000B8F1000F43D0012303FA07F7274B17F03F
:102E3000100F274F18BF1F46BDF840109DF83C00EB
:102E4000FFF728FD394602463046FFF7A9FF284420
:102E5000204405B0BDE8F08F1E4B19680029C7D08B
:102E60001D4B4FF4616E1B68B2FBF3F34FF47A7C99
:102E7000B3FBF1F4B4FBFEF20EFB124E01FB143473
:102E80000CFB04F44FF03C0AB4FBF1FB01FB1B44C8
:102E90000CFB04F4BEFBFAF3B4FBF1F1CDE901B194
:102EA0000AFB13E100910D49FFF77AFF9FE7084FF6
:102EB000C2E700BFE66C0200D45202009B7D020014
:102EC000D86C0200E85202000B6D0200E26C0200B6
:102ED000DD6C0200081500200C150020EF6C0200CC
:102EE00038B50C46E107054603D5084A0849FFF7FF
:102EF00057FFE20608D4A30628464CBF05490649F9
:102F0000BDE83840FFF74CBF38BD00BFD86C0200A9
:102F10009B7D0200126D0200116D02002DE9F04749
:102F20001D46089B1746DA0604460E4605D4990648
:102F30004CBF2A492A49FFF733FFDFF8AC904FF026
:102F40000008A8452ADBDFF8A480DFF8A490DFF8AA
:102F500098A00025BD422FD2725D49462046FFF75A
:102F60001FFF0135102D20D11E49DFF87C80DFF8CE
:102F700084902046FFF714FF0025AF4228D9725DE8
:102F8000A2F120035F2B28BF2E2249462046FFF7DF
:102F900007FF0135102D14D1BDE8F08749462046C2
:102FA000FFF7FEFE08F10108CBE76A07D2D15146D0
:102FB0002046FFF7F5FECDE741462046FFF7F0FE3D
:102FC000CFE76B07D9D141462046FFF7E9FED4E7AA
:102FD00041462046FFF7E4FEDBE700BF126D02002A
:102FE000116D02001E6D02001C6D02001A6D0200C0
:102FF000146D0200206D02002DE9F0478B7A13F06A
:10300000070817468AB00A7A05460E4620D0498935
:10301000C3F3C2038909D243CDE900830291F36867
:1030200002F001023946FFF7CDFE8146347AE443CF
:1030300014F001040ED0294630461CF06DFFB8F1A3
:10304000000F2BD0424639462846FFF749FF25E0BE
:10305000C146EBE7B8F1000F26D12746EB6806938F
:1030600006AA3B46A96830461CF042FF069A6B68E8
:103070001A603AB1AB68134413F8014CA4F10A0387
:103080005C425C4128461DF0A4F8069B1F44002BBF
:10309000E4D11CB113492846FFF782FE28461DF0F3
:1030A00098F80AB0BDE8F08730461CF0CBFE0E4918
:1030B00002462846FFF774FE4FF0100A05AA234681
:1030C00006A93046CDF814A01CF012FF059A002A7C
:1030D000B8D04B46009706A92846FFF71FFF059B6F
:1030E0001C44EBE7236D02009B7D020073B542F2A6
:1030F0000F738B4228BF0B4605680F4A0446052113
:1031000068461CF047F963680C495B6806460B2269
:1031100028461CF0F4FE63683246694628465B6820
:103120001CF0EDFE636806495B681B2228461CF014
:10313000E6FE02B070BD00BF93870200616D020021
:10314000456D0200084A10B50123084C13600021A8
:10315000A04204D801B11360054B186010BD4008AF
:103160005B000121F4E700BF0C15002040420F0076
:1031700008150020F8B5074F0D4604464618B4421E
:1031800001D12846F8BD386814F8011B83685B68D4
:103190009847F4E72415002001481DF01AB800BF35
:1031A000145302000148FFF7A1BF00BF14530200EF
:1031B00008B503481AF098FC024B186008BD00BF20
:1031C0006D6D02002415002010B508460C461CF059
:1031D000F7FD054821460F22FFF70EFF2046BDE808
:1031E00010401CF01CBE00BF14530200014B012212
:1031F0001A7070471D2E0020024B034801221A70DE
:103200001CF0E7BF1E2E00203C5302000148FFF7D0
:103210006DBF00BF3C53020010B508460C461CF0C1
:10322000CFFD054821460F22FFF7E6FE2046BDE808
:1032300010401CF0F4BD00BF3C530200054B1B784E
:103240001BB141F2883021F0B8BAA42000211BF054
:10325000DDBA00BF1E2E00202DE9F84FDFF8909058
:10326000DFF890B007460E460424CA4699F80030AD
:1032700033B94FF0FF324FF0FF3358461AF05CFE7F
:1032800032463946002001F099FA9AF8003080461B
:1032900013B958461AF0C8FE144DB8F1000F18D0F3
:1032A00001232B709AF8003033B93046BDE8F88F0F
:1032B0005CB92C704FF0FF34002001F0CBFA0028ED
:1032C000F3D02B78002BF3D1EFE7013CFFF7B6FFEB
:1032D000F2E72B7813B1013C04D12C702B78002B32
:1032E000C4D1E2E7FFF7AAFFF8E700BF1D2E0020D8
:1032F0001E2E0020D00900201FB507240294044C84
:103300000194BDF8184000941FF0A7FF04B010BD51
:10331000EC080020074B084A0848D21AD208084B8C
:103320009201012914BF0146194642F003020548E3
:103330001CF09CBC504F0200504F0200BF6D0200B9
:10334000B76D0200C86D020010B5084C86B0247835
:103350008DF81740012402940DF117040194BDF873
:10336000204000941FF079FF06B010BDF308002044
:10337000014B1878704700BFF3080020024B012270
:103380001A700020704700BF212E00201FB50124B5
:103390000294044C0194BDF8184000941FF05DFFA6
:1033A00004B010BD212E0020074B084A0848D21A4D
:1033B000D208084B9201012914BF0146194642F078
:1033C000030205481CF052BC504F02006850020036
:1033D000BF6D0200B76D0200E16D020010B50D4C2B
:1033E00086B00623607018220021684623701EF004
:1033F00019FC094B6946CDE9013400200223ADF8E0
:103400000C3008F007FA10F1390F08BF002006B0A1
:1034100010BD00BF1F2E00203C5402002DE9F743D1
:103420000E4680460821C06A1CF08CFF3468124B9F
:10343000241A0746346004EA03059946AC4203D8CF
:10344000002003B0BDE8F08308236A4621464046C9
:103450001CF006FF0028F4D168461CF05EFF40B95E
:10346000BDF80230BDF80420346005EA09051344B4
:103470001D44E41BE2E700BF0000FFFF2DE9F04F11
:10348000054695B0C06A08211CF05CFF6B681B0CF8
:103490001B04804603A9E88903931CF05DFF039B8E
:1034A000A98906AE1944A1EB080108233246284633
:1034B00004911CF0D5FE041EC0F29980EB6A1A79C3
:1034C0000023F15C914240F081800133082BF8D158
:1034D000039928461CF04BFF044688E0049BBDF886
:1034E0001A201B0C1B0413440493DFF80CB1DDF805
:1034F00010A008AA04A928461CF061FF0446002871
:1035000075D108A81CF009FF002836D16B68059317
:103510000AAA05A92846059E1CF051FF044600286A
:1035200065D1BDF82820BDF820309A4228D06A68BD
:10353000059B9A42ECD156451FD1BDF82430E3B12A
:10354000BDF822300AEA0B071F4408A8AB68ADF8A3
:1035500022301CF0EEFEEB6ABDF824901E68764225
:1035600006F020030193B9F1000F0FD108A92846F6
:103570001CF0BDFF0446002839D1C245B7D1A7E7EA
:103580000AA81CF0CAFE0028D1D1D4E7019B4B4504
:1035900028BF4B460CAA394628461E461CF060FE42
:1035A000044620BB36B1A96833460CAA28461CF055
:1035B00056FF0446E86A31461CF0C4FEAA6802447D
:1035C000AA60A4B9A9EB06093744CCE70498A0EB9C
:1035D000080830461CF0A1FE00283FF47FAF04A984
:1035E0002846FFF71BFF044600283FF47EAF204625
:1035F00015B0BDE8F08F00BF0000FFFF2DE9F047D8
:10360000044686B00D4600F11406304620F0EFFE69
:1036100028461AF069FAA06278B99F4B9F49A048E2
:10362000C91AC908890141F001011CF012FB6FF0B1
:103630000505284606B0BDE8F08783681B699847F2
:10364000E06260B99549944B9648C91AC908890146
:1036500041F001011CF0FDFA6FF01505E9E7A06AE1
:1036600083681B6998470368013B1F2B08D98B4966
:10367000894B8D48C91AC908890141F00101E9E760
:10368000A06A216803AA20F06CFD40B18349824BF7
:103690008648C91AC908890141F00101DAE7A389FE
:1036A0002BB1049AB3FBF2F502FB153545B17B490A
:1036B000794B7F48C91AC908890141F00101C9E75E
:1036C000E389012B08D87549734B7A48C91AC90890
:1036D000890141F00101BDE7E36A009593F8049088
:1036E0004FF0FF324FF0FF3330461AF025FCE06A0E
:1036F00008211CF027FE2F468046E3891FFA85FA31
:1037000053456DD8E389BB4200F0A9809A450CD19E
:10371000009908234A46A1EB080120461CF0D8FD79
:1037200018B9E08969461CF017FE009B624FA3EBB5
:1037300008023B406260A360D4E9011399420FD3B1
:10374000082301AA20461CF08BFD054620BB01ABD7
:1037500013F8012B914540F085800135082DF7D1F4
:10376000D4E901318B4207D95B1A4A4620461CF046
:10377000AFFD051E10DB56D163684F4FE0893B401B
:10378000694600931CF0E8FDA38900994A4620464B
:103790001CF09EFD051E4CDA30461AF045FC002D4B
:1037A0007FF447AF012323743C4E3B4BA289E18950
:1037B0004248F61AF608B60146F0030633461CF0F6
:1037C00069FA61683E4833468AB2090C1CF062FA15
:1037D000A1683C488AB23346090C1CF05BFA28E722
:1037E000A1892B04A1EB080113FA81F14A460823B1
:1037F000204600911CF06CFD70B1E08969461CF018
:10380000ABFD0137009908234A462046BFB21CF0A1
:103810005FFD00283FF476AF01356EE7002D36D00E
:103820006FF01C05B8E7E26AA36812681344A3604E
:1038300096E7B1D0616820461CF099FD0546002846
:10384000AAD16368A0893B400344A3EB48006060B1
:103850003840A0602046FFF711FE05469CE76FF058
:10386000200599E701A81CF058FD626878B9009B13
:10387000BDF80600BDF808503B400344A360E06A71
:1038800029461CF05FFD03449342A360C6D0A2EB1F
:103890000802626050E700BF504F02006050020013
:1038A0000E6E02002A6E02004C6E0200696E02006B
:1038B000816E0200956E02000000FFFFB86E0200EC
:1038C000CF6E0200E16E02002DE9F04F1E46037C30
:1038D00089B00446894690467BB9694B69496A4874
:1038E000C91AC908890141F001011CF0B2F96FF051
:1038F0000C05284609B0BDE8F08FC36A08211846B8
:103900001CF020FD3146824618461CF01BFDA389A1
:103910000AEB4A029B1AB3420746C0F0AB801EB1C5
:10392000B8F1000F00F0A6806368039304AA03A90E
:103930002046DDF80CB01CF042FD05460028D8D129
:10394000BDF810304B4505D06268039B9A42EDD11B
:10395000DEB9CEE704A81CF0E0FC0028F4D1BDF8E5
:10396000143086B1B34210D1BDF812004FEA1B41AA
:10397000090401443346424620461CF07FFC0028DF
:1039800003DC0546B5E7002BB3D0002F3FD104F18F
:10399000140A4FF0FF324FF0FF335046DFF8ECB01F
:1039A0001AF0CAFA0022E3899A4260D0D4E90131C0
:1039B000781883422ED3FF2306A8ADF81890ADF8EF
:1039C0001A10ADF81C608DF81E301CF0B2FC36B138
:1039D000A1683346424620461CF041FD0546E06A98
:1039E00031461CF0AFFCA3680344A360002D44D112
:1039F00006A920461CF07BFD054600283DD1334634
:103A0000019350461AF010FB019B1D4671E7574485
:103A1000BFB2BCE7E06A019208211CF093FC4FF6AC
:103A2000FF71ADF818100021ADF81C101918ADF891
:103A30001A10A18903EA0B030B44181A606006A848
:103A40001CF077FC06A920461CF051FDE089211DE1
:103A50001CF082FC636803EA0B03A3602046FFF7B7
:103A60000DFD03460028CBD1019A01329BE76FF090
:103A70001B03C5E76FF015053BE72B46C0E700BF0A
:103A8000504F020060500200FA6D02000000FFFF7C
:103A90002DE9FF471E46037CBDF8309004460F46D3
:103AA000904673B92B4B2C492C48C91AC908890177
:103AB00041F001011CF0CDF86FF00C0004B0BDE83E
:103AC000F087C06A08211CF03DFCA389A3EB4003EA
:103AD000B3423BD3636801934FF0000A02AA01A9E5
:103AE0002046019D1CF06BFC0028E7D1BDF8083092
:103AF000BB4207D102A81CF010FC18B90AF1010A58
:103B00001FFA8AFA6268019B9A4218D0CA45E5D921
:103B1000BDF80C30BBB1CA4515D3BDF80A102D0C49
:103B2000B3424FEA054528BF334642462944204662
:103B30001CF096FB0028C1D1BDF80C00BEE7BDF813
:103B40000830BB42E4D06FF00100B7E76FF015001A
:103B5000B4E700BF504F020060500200FA6D02004F
:103B6000094B30B51D68094B02461C6800239D4275
:103B700001DC002030BD190104EB0310615C9142AF
:103B8000F8D00133F3E700BF18550200A802002067
:103B9000084B1B6810B50C462BB1FFF7E1FF28B1AD
:103BA0002060002010BD6FF00C00FBE76FF00100FB
:103BB000F8E700BFA802002030B589B00C461546D2
:103BC0000190FFF7CDFFB8B1436802938368226884
:103BD000C068CDE903350023CDE9062305931CF029
:103BE000A2FC60B1074901AA20F0BFFA079808B902
:103BF000059B236009B030BD6FF01500FAE76FF048
:103C00001200F7E72B050200104B2DE9F0411C686C
:103C100005460E461746ACB14FF0FF324FF0FF336A
:103C20000B481AF089F963683246D3F808802946B0
:103C30003B462046C047044605481AF0F5F92046A1
:103C4000BDE8F0816FF00104F9E700BF44150020E2
:103C5000E409002000230360044B5A6812B9C3E949
:103C60000000704710605860704700BF3C1500208E
:103C7000014B1860704700BF4415002030B585B077
:103C800000230546CDE9023301904FF0FF330E4883
:103C90004FF0FF321AF050F90C4B1C68002C38BF63
:103CA00000243CB1636820461B6801A9984724683A
:103CB000002CF6D1284600F0D7F8044602481AF046
:103CC000B3F9204605B030BDE40900203C150020C2
:103CD0001FB5CDE9010103924FF0FF330C484FF0BF
:103CE000FF321AF029F90B4B1C68002C38BF002456
:103CF0003CB1636820461B6801A998472468002CE2
:103D0000F6D103481AF090F9002004B010BD00BFAE
:103D1000E40900203C150020024B0022C3E90022E8
:103D2000704700BF3C150020024B0022C3E900226F
:103D3000FFF7F2BF481500202DE9F34107460E4674
:103D400009B100230B601E4CDFF87C800025444540
:103D500008D31C4B1C680CB1143CC4B9284602B0F3
:103D6000BDE8F081216801AA38461CF003FC60B16F
:103D700025B90EB1019B3360254606E0296820680D
:103D800000221CF0F7FB0028F3D11434DFE7216890
:103D900001AA38461CF0EEFB60B125B90EB1019BBB
:103DA0003360254606E02968206800221CF0E2FB0B
:103DB0000028F3D114F1140FD0D06469CBE700BF11
:103DC000D84E020048150020504F02002DE9F04364
:103DD00085B00546DDF8308003900C4616461F4638
:103DE000B8F1000F18D0D8F8001081B103AA1CF068
:103DF000C1FB60B9002007E0D8F8083000930398B1
:103E00003B4632462146C84705B0BDE8F083D8F8A6
:103E10000490B9F1000FEFD103A92846FFF78CFFFA
:103E20000028E7D0D0F80880039832463B46214668
:103E3000C04706460028DDD0084B094C2846E41A46
:103E4000E408FEF779FDA40144F00104014623468D
:103E5000044832461BF01EFFCCE700BF504F020063
:103E6000A85002000C6F0200F8B51A4C1A4F064613
:103E70000025BC4206D3194B1C680CB1143C9CB9FC
:103E80002846F8BD1EB9E3684BB91434F1E7206841
:103E9000002231461CF06EFB0028F4D1F5E798476C
:103EA000002D08BF0546F0E736B9E36863B914F1A1
:103EB000140FE5D06469E0E72068002231461CF069
:103EC00059FB0028F1D1F2E79847002D08BF0546BD
:103ED000EDE700BFD84E0200504F02004815002009
:103EE00010B5064C23783BB9FFF71EFF00F064F8CD
:103EF00008B90123237010BD0020FCE7222E00200A
:103F00002DE9F047048FDFF8ACA0013498B080466B
:103F10008946A4B200F10806651EADB2B5F5004FA2
:103F200045D04A2305AA294630461CF0F5FA04F587
:103F30007F543F34A4B20746214601230DF10B0202
:103F400030461CF0E9FA002F014603DC002803DCB0
:103F50002C46E1E7002816DCB8F83830AB4209D12E
:103F600042466B1E22F8383F4FF400410223304690
:103F7000FFF7AAFC294630461CF0CAFA2146304613
:103F80001CF0C6FAE4E718AB1F44002307F84C3CCA
:103F90005246CDF8009003AB05A80396ADF810404B
:103FA000FFF714FF0028D3D018B0BDE8F087002039
:103FB000FAE700BFE70502007FB501236946042048
:103FC0000193FFF7E5FD0446002836D102AA01A9B6
:103FD0000420FFF7F1FD10F1130F04462DD038B186
:103FE0000C3405D0404080F311884FF0040002DF0C
:103FF0000399B1F5803F23D2009A002395681846B3
:10400000084485429CB203D30133082BF8D11C46E7
:104010000D4D5368AB602846D368EC82A982EB63F0
:104020001CF078FB044640B9084E6E602846FFF746
:1040300011FE28466E60FFF71BFE204604B070BDDF
:104040006FF02404F9E700BF50150020AC020020F7
:10405000F8B505464FF02003EFF3118683F311887E
:10406000BFF36F8F0B4B1C68002C38BF00245CB172
:10407000094FD4E90132002D08BF13460BB138783F
:1040800098472468002CF4D186F31188BFF36F8F12
:10409000F8BD00BF90150020981500202DE9F341D0
:1040A000184F194C3B7801463BB96D4628461CF029
:1040B0004DFB95E8030084E803002578F5B1134E25
:1040C0004FF000080120043DC6F80080FFF7C0FF54
:1040D000012D98BF0E4B94E8030098BF83F8008031
:1040E0001DF0C8FD306840B9012338703360FFF718
:1040F000AFFF94E803001DF0D0FD2578284602B0FC
:10410000BDE8F081232E002098150020BC0200207D
:10411000A433002008B5064B186840B901221A6084
:10412000FFF796FF034B93E803001DF0B6FD08BDB3
:10413000BC0200209815002010B50748074C19F064
:10414000D3FC074B1860204601F0AEF92046FDF77E
:1041500049FE002010BD00BF6D6D020065410000EA
:10416000A01500200A2838B5074D044604D1286858
:1041700083680D215B68984728688368E1B25B68B3
:104180009847204638BD00BFA015002070B50446F2
:104190000D48231A9A100D4B5343DBB20C255D4397
:1041A00005F140030E46184440211CF0DCFA011EC4
:1041B00004DB074B2B445B689847002120463346BD
:1041C000BDE87040184700BFB4150020B76DDBB6DE
:1041D000305502002DE9F0410F4C104D031B9B1090
:1041E0005D43EBB20C255D43074605F140000E46EA
:1041F000204440211CF0D0FA011E08DB084B2C445F
:10420000C4E90E36074B5B59BDE8F0411847384604
:104210003346BDE8F0411847B4150020B76DDBB652
:10422000FB07020030550200002270B50121044650
:10423000104600F02DFD002000F0F8FC0F4818F0AB
:10424000B1FE0F4B984215D11FF0C6FFE6680D492D
:1042500030461BF0FBF800280BDB01253564E468D1
:10426000084904F11C001BF0F1F8002801DBE564AB
:10427000002070BD6FF00400FBE700BFBD420000EE
:104280000000AD0B4855020001460C2309484B4382
:1042900070B5C418D4E90E5600224033A263184406
:1042A0001CF098FA2DB132462B460348BDE8704009
:1042B000184770BDB4150020F808002010B101287F
:1042C00004D07047034B1B6C5B0701D1FFF7DCBFC9
:1042D000704700BFB415002008B54FF02003EFF37E
:1042E000118183F31188BFF36F8F124A136843F073
:1042F000020013F0010310600CD04FF08042D2F89E
:104300000C34D2F80C2413F0010303D00A481CF03B
:1043100061FA012381F31188BFF36F8F23B1BDE8E8
:1043200008400020FFF7B0BFBDE80840012018F0AA
:1043300049BE00BF04160020F415002010B5074C3C
:1043400023782BB94FF4A57020F037FA012323709E
:10435000BDE81040002018F035BE00BF242E00201C
:10436000094BBFF35B8F53E8002F22F0020143E8B3
:1043700000100028F7D1BFF35B8FD30702D40120D0
:1043800018F06CBE704700BF041600207FB50022F5
:104390000123CDE9022304ABCDE90433094ACDF86A
:1043A00000D06B46CDF804D01CF04AFA002805DB9B
:1043B0004FF48042002368461AF076FA07B05DF8A1
:1043C00004FB00BF13080200024AC3B21C2003FB17
:1043D00000207047B4150020094BBFF35B8F53E8F2
:1043E000002F42F0010143E800100028F7D1BFF38D
:1043F0005B8F930702D4012018F0E4BD704700BF23
:1044000004160020094BBFF35B8F53E8002F22F006
:10441000010143E800100028F7D1BFF35B8F930739
:1044200002D4012018F01ABE704700BF0416002005
:104430002DE9F8433A49BFF35B8F0646012251E864
:10444000003F41E800200028F9D1BFF35B8F33B96A
:10445000344935484B60CB608A601BF00AF8731E04
:10446000012B32D8012E07D14FF08043D3F81C34F2
:1044700003F00303012B28D020F099F9044618B962
:104480002A4B1B78002B44D14FF02003EFF311850A
:1044900083F31188BFF36F8F0124254FDFF89480D9
:1044A000DFF894904FF08042D2F81834D2F81824F4
:1044B000D2030CD503F00303012B01D0012E06D14A
:1044C0000CB385F31188BFF36F8FBDE8F883ACB1EF
:1044D000284600F04BFC4FF08042D2F81835002BF4
:1044E000E0D139680029DDD03B603B680123C2F888
:1044F0001835C8F88031C9F80030D3E700212120F1
:104500001AF084F9E7E74FF080430222C3F804234E
:10451000DBE74FF080430222C3F808230546BCE7DF
:1045200008160020A4150020D0150020A533002077
:104530000401004000E100E008000040044A136864
:10454000C81A20F07F40034413601AF029BC00BF52
:10455000181600202DE9F047860006F1804600F18C
:10456000500406F58836A400DFF87C80D6F8403584
:10457000A4B204F180444FF4803721F07F4504F564
:1045800088348740C146D8F804A5A3EB0A0323F07A
:104590007F432AF07F42012BC6F8402502D1132029
:1045A00020F00BF90AF10202AB1A23F07F43B3F5B6
:1045B000000F88BF1546002323602368C9F84473A1
:1045C00025F07F43C6F84035D9F804359A4506D022
:1045D000EB1A023B23F07F43B3F5000F01D8BDE88F
:1045E000F0872B46CFE700BF00100140F8B5104E12
:1045F000104F0025104B00201C681A4605B1F8BD6D
:10460000D6F80413C903FAD539680029F7D03D60FC
:1046100039684FF48031C6F84813D6F840150125A3
:104620001CB15A681860A047E4E71460E7E700BFD0
:1046300000100140401101400C16002038B5104D0B
:1046400000244FF48033C5F80845C5F804330D4BFA
:104650004FF40032C3F8802101212246112000F0DE
:1046600017FB112000F0E2FA074A01231360074A02
:104670002B6002201360FFF7DBFE204638BD00BF31
:104680000010014000E100E0081001401416002075
:10469000134BB0F1FF3F08BF1846013800281CDD5E
:1046A0009842A8BF18460F4BD3F804250E4B196843
:1046B000521A12F4000F22F07F4318BF00200B4A59
:1046C000013303440A48106000205060044A9342BA
:1046D00094BFC9188918FFF73DBF0020E3E700BF6A
:1046E000FFFF7F0000100140181600200C1600206C
:1046F0003D4500004FF02002EFF3118382F3118853
:10470000BFF36F8F064AD2F80405064A1268801A72
:1047100020F07F4083F31188BFF36F8F704700BF95
:1047200000100140181600204FF02003EFF3118213
:1047300083F31188BFF36F8F0649074B0868D3F8DE
:10474000043582F31188BFF36F8F1B1A23F07F4368
:1047500018447047181600200010014010B5114C85
:10476000114AA2610323C4E90433104BE3612266BA
:104770004FF480630E4A0F492362626600231022C1
:10478000E01DA3626362E3622367E3666367A26678
:104790001DF0C5F9084920461DF0C1F92023A37179
:1047A00010BD00BF1C160020616F0200352E0020D6
:1047B000252E00206A6F02006E6F02002DE9F84F6F
:1047C000234F4FF0180B14460BFB00720646936AFA
:1047D000556AAB42884634D8D2F820A0AAEB050926
:1047E00009F1FF32944211D84FF0180906FB0993E2
:1047F0003B4422465868414628441DF0E8F909FB2D
:1048000006762C4474620120BDE8F88F13449C4264
:104810001BD800FB0BBBBB444A46DBF804002C440E
:1048200028441DF0D4F9B4EB0A0406D0DBF80400E8
:10483000224608EB09011DF0CAF9182000FB067694
:10484000E0E7013B5B1BA342CED20020DCE700BFC8
:104850001C160020034B182202FB00339A6A586A88
:10486000801A70471C160020014B1868704700BF63
:10487000C0020020F0B5082289B00C4606461CF0A4
:10488000C4F9CB6A03930B6B04934B6B05938B6B4F
:104890000693CB6B0793002708236A466946684650
:1048A000CDE9017700971CF0B2F8082305466A4667
:1048B000314630461CF0ABF8236B0393636B0493D3
:1048C000A36B0593E36B0544CDE906376A460823DD
:1048D000694668461CF09BF83146054408236A4641
:1048E00030461CF094F8236A0093636A0193A36A2C
:1048F0000293A36B0693E36B0793054408236A4670
:104900003046CDE9047703971CF081F8636A009381
:10491000A36AA26B0193E36A02930492636BE26B56
:104920000393CDE90523236A0793054408236A46C8
:1049300030461CF06CF8E36A0093236B0193636BC1
:104940000293236A0693A36A0793054408236A46E1
:104950003046CDE9047703971CF08DF9236B009363
:10496000636B0193A36B0293E36B0393636A0693F8
:10497000E36A07932D1A08236A463046CDE9047787
:104980001CF079F9636B0093A36B0193E36B0293C3
:10499000236A0393636A0493A36ACDE90537236B03
:1049A00007932D1A08236A4630461CF064F9A36B5E
:1049B0000093E36BCDE90137636A0393A36A049321
:1049C000E36ACDE90537636B07932D1A08236A461E
:1049D00030461CF050F92D1A10D40D4C35B9082270
:1049E000314620461CF01DF901280FD0082322462D
:1049F000314630461CF03FF92D1AEFE7044A0823F0
:104A0000314630461CF003F82D18F8D409B0F0BD3B
:104A100058550200F0B5264E07460C460FCE8DB015
:104A200001AD0FC50FCE0FC596E8070085E807005A
:104A30003846002F38D0002C38D0381F2146024687
:104A400010344B780D781B0443EA0563CD782B4373
:104A50008D78043143EA05238C4242F8043FF0D1BB
:104A6000144C04218A07036916D1C3F30742A55CDD
:104A70001A0EA25C42EA0562C3F30725DBB2655D4C
:104A8000E35C42EA054242EA03220CAD21F0030353
:104A90002B4453F82C3C534050F8042F0131534021
:104AA0002C290361DED101200DB0F0BD2046FBE7CB
:104AB00004510200756F02002DE9F043154689B0DC
:104AC0000646002858D0002959D0002A59D0102372
:104AD0000A46684619461BF0D6FE294668462A4C07
:104AE0001CF0DBFD05F11007A146A035E8466A463B
:104AF00010231178013B615C02F8011BF9D1684673
:104B00001CF010FE694604A81CF045FE01A905A88A
:104B10001CF041FE02A906A81CF03DFE03A907A84F
:104B20001CF039FE102319460DEB030268461BF0FA
:104B3000AAFE3946684610371CF0AFFDAF42D5D10A
:104B4000102498F80030013C19F8033008F8013BB4
:104B5000F7D168461CF0E6FD294668461CF09DFD2D
:104B6000102319466A4630461BF08DFE6846102217
:104B700021461BF095FE012009B0BDE8F0830846F0
:104B8000FAE71046F8E700BF756F02000A4A0B49C2
:104B900093680968C3F880100949D8674B6843F0E7
:104BA00080534B60002383F31188BFF36F8F9368AA
:104BB000D3F88000704700BFA02D0020146A0200C7
:104BC00000ED00E00F498A684FF038001044EFF321
:104BD000098C80E8F01F202080F31188BFF36F8FCD
:104BE000094F4FF000668A6A8A603E60D06F0023EA
:104BF000D36780F3118802F1380090E8F01F8CF33E
:104C000009887047A02D002004ED00E01EF0040F7D
:104C10000CBFEFF30880EFF30980816911F8021CE3
:104C20000229FFD001B51CF0F9FE01BD43B2002BF3
:104C300008DB012200F01F0002FA00F05B09024AC3
:104C400042F82300704700BF00E100E043B2002BB0
:104C50000DDB01225B0900F01F0002FA00F0203397
:104C6000034A42F82300BFF34F8FBFF36F8F7047A3
:104C700000E100E0054B420900F01F0053F822203C
:104C8000012303FA00F01040704700BF00E100E08C
:104C900043B2002BA8BF03F1604301F10101B8BF8B
:104CA000064B4FEA4111ACBF03F5614300F00F0022
:104CB000C9B2B4BF195483F80013704714ED00E073
:104CC00008B572B6044B586A18B100225A6218F03F
:104CD000AFFF62B608BD00BFA02D002042F8203C07
:104CE000009B42F81C3C0A49019B42F8183C029B7D
:104CF00042F8143C21F001014FF0807342F8043C6B
:104D000042F8081C0023203A8265C367704700BF41
:104D10004FF5010008B506460D46144600F012FB9B
:104D2000074B9E60204685F30988002163B681F316
:104D30001188BFF36F8F002200231AF008FC00BF18
:104D4000A02D0020014910220A60704710ED00E0FC
:104D500072B6404080F31188BFF36F8FBFF34F8F5F
:104D600030BF62B6BFF36F8F704700BF72B6494065
:104D700081F3118820BF80F3118862B6704700BFAD
:104D800073B506460C4601B3134B144D1448ED1A87
:104D9000ED08AD0145F00105ADF80050D1E9012362
:104DA00009681AF090FFADF80050D4E90423E168D7
:104DB0000C481AF088FFE1690B482A461AF056FFA2
:104DC000A1690A482A461AF051FF2146304602B02E
:104DD000BDE8704018F0CEBE504F0200985002005F
:104DE00075700200A4700200D3700200E27002002D
:104DF00030BFFFF7FDBF00BF0E4A08B50E4B22F0D3
:104E00007F029A60BFF34F8FBFF36F8FD3F8882074
:104E100022F47002C3F88820EFF3148323F0040314
:104E200083F3148818F04EFF19F0C0FE00F05CFA0E
:104E300018F06CFF0000000000ED00E001B572B654
:104E40000B4A506A00281EBF0021516218F0F0FE84
:104E500062B6EFF30580A0F110004FEAC0000549EB
:104E6000014409C99847BDE80140034908470000CB
:104E7000A02D00204C4D0200CD5200001CF0F8FE89
:104E8000202080F3118808484FF40061401880F317
:104E90000988EFF314800221084380F31488BFF3DC
:104EA0006F8FFFF7A9FF0000404E0020EFF308804E
:104EB000EFF3098101B5724600F034F901BD00BF7E
:104EC00070B5234B234C244D2448E41AE408A40174
:104ED00044F0010631461AF0BCFEAA6A930103D5DC
:104EE0001F4831461AF0B5FEAB6ADD0104D51D48F6
:104EF00044F001011AF0ADFE174DAA6A100304D563
:104F0000194844F001011AF0A4FEAB6A590304D514
:104F1000164844F001011AF09CFE0F4DAA6A920354
:104F200004D5134844F001011AF093FEAB6ADB0389
:104F300004D5104844F001011AF08BFE064A936A2A
:104F40006FEA03436FEA13439362002070BD00BF12
:104F5000504F02009850020000ED00E01071020076
:104F6000287102003B71020055710200737102004A
:104F700098710200B27102002DE9F041284B294CD2
:104F8000294DE41AE408A40144F0010807460E463E
:104F9000264841461AF05DFEAA6AD00603D5244889
:104FA00041461AF056FEAB6A190704D5214844F071
:104FB00001011AF04EFE1C4DAB6A9A0712D544F05F
:104FC000010841461C481AF044FE696BAB6A1B0697
:104FD00008D51A4842461AF049FE1FB1AB6A23F0C1
:104FE0008003AB62104DAA6AD00704D5144844F080
:104FF00001011AF02EFEAB6A990604D5114844F05F
:1050000001011AF026FE084B9A6AD20658BF9A6A26
:105010009A6A002042F0FF029A623070BDE8F08187
:10502000504F02009850020000ED00E0DD710200D8
:10503000F3710200267202003972020051720200FE
:1050400067720200867202002DE9F0412A4B2B4C58
:105050002B4DE41AE408A40144F0010807460E466B
:10506000284841461AF0F5FDAA6AD10403D526481E
:1050700041461AF0EEFDAB6A1A0504D5234844F008
:1050800001011AF0E6FD1E4DAB6A9B0512D544F0F6
:1050900001081F4841461AF0DCFDA96BAB6A1804F1
:1050A00008D51C4842461AF0E1FD1FB1AB6A23F453
:1050B0000043AB62124DAB6A590504D5164844F063
:1050C00001011AF0C6FDAB6ADA050DD5134844F0AC
:1050D00001011AF0BEFD0A4A936A002043F47F439F
:1050E00093623070BDE8F081AB6A9B04F3D50C4845
:1050F00044F00101EDE700BF504F0200985002005C
:1051000000ED00E0B5720200CB72020026720200D0
:10511000DC720200F57202000A73020025730200BD
:10512000867202002DE9F041564B5E688AB00F4648
:10513000C6F30804002585F31188BFF36F8F02F0D2
:105140007F43B3F17F4F0DD102F00C03082B0BD13D
:105150004D494E4B4E48C91AC908890141F0010119
:105160001AF077FD2F4603E0120701D40746012508
:1051700000238DF80730E31E092B6AD8DFE803F01F
:1051800005585C3C696969696960404B3E4E41481D
:10519000F61AF608B60146F0010631461AF059FD36
:1051A000384BDC6A4FF0000814F002048DF80780D9
:1051B00005D0394831461AF04CFD00241FE0DB6A67
:1051C0005B001CD5354831461AF043FD344B1B7843
:1051D0002BB10DF107010120FFF7CEFE0EE0314BA0
:1051E0001B782BB10DF107010120FFF72DFF05E022
:1051F0002D4B1B889BB213B1FFF762FE04469DF84E
:10520000073093B92022394602A81CF0E0FC099B24
:105210009DB3C3F3080222B96FEA53236FEA432315
:10522000099302A92046FFF7ABFD0AB0BDE8F08163
:105230000DF107010020CFE70DF107010020D4E7B1
:105240001149124B1948C91AC908890141F00101D5
:10525000B1E70E4A0C4B164816499B1ADB0816F4A8
:10526000F87F4FEA831318BF014643F00103124849
:10527000A4F110021AF00EFD9FE723F4FF7323F050
:105280000103CDE700ED00E098500200504F02000E
:105290003D730200687302007F730200A073020076
:1052A00028ED00E029ED00E02AED00E0BF730200E8
:1052B0000A740200F573020023740200024A536963
:1052C00043F010035361704700ED00E0044B996810
:1052D000986A884203D003494FF080520A607047B1
:1052E000A02D002004ED00E0044800232021C21876
:1052F0000133272B82F80013F9D1704700E100E059
:1053000008B50E4B9B68834207D1EFF3058393B139
:105310000B4A536843F08053536019F0C9F84FF0BB
:105320002003EFF3118083F31188BFF36F8FBDE883
:1053300008401FF05AB919F0B3FB00BFA02D0020A0
:1053400000ED00E0024B034A0348012100F0A2B83F
:10535000000001200000002004560200F8B5284F8C
:105360000E460021B14214DA4468002C45D0C3B186
:1053700004F1FF3C14EA0C0F0DD0224A224B2348C3
:10538000D21AD208920142F001021AF06FFC6FF0BB
:1053900015021046F8BD1F2CEFD905681CEA050F51
:1053A000EBD1202CD5B2D0F808C0026816D9B4F1E0
:1053B000004F15D8013CB4FA84F4C4F11F04640012
:1053C000072D4CEA04040DD90E4A0F4B1048D21A8F
:1053D000D208920142F001022946D6E70824EFE7FD
:1053E0003E24EDE722F01F022A4342F0100244F06F
:1053F0000104BD60FA603C616A1C01310C30B1E708
:1054000090ED00E088500200504F02003A74020014
:105410005D740200034B05225A60BFF34F8FBFF348
:105420006F8F704790ED00E0BFF35F8F014B00225C
:105430005A60704790ED00E013490868082810B5DD
:105440001ED8FFF7F1FF114C49680022904201F18C
:105450000C0105D10E4B1870FFF7DCFF002010BDCA
:10546000A26051F80C3C23F01F03134343F01003D8
:10547000E36051F8043C43F0010323610132E5E7A6
:105480004FF0FF30EBE700BF1056020090ED00E058
:105490003532002010B5034C01232278FFF75EFF60
:1054A000207010BD35320020014B1860704700BFDE
:1054B000C40200204FF02002EFF3118382F3118821
:1054C000BFF36F8F044A0121C2F8401583F311889E
:1054D000BFF36F8F0020704700E0014020B1034B05
:1054E000800143F001031847704700BFB05102002C
:1054F0000E4B402970B528BF40210D4C46181D4663
:10550000B04203F1020304D1002305F8113007482B
:1055100070BD02781209A25C03F8022C10F8012B6E
:1055200002F00F02A25C03F8012CE9E736320020FA
:105530009674020030B503788BB0044607AD032B98
:1055400021D8DFE803F0021A1C1E124928461CF07D
:10555000E6FA63780493A3780393E37802932379BC
:105560000193637900930C4AA37905951E210B489A
:1055700019F010FF09480BB030BD0949E6E70949A9
:10558000E4E70949E2E7094A0A21284619F002FF3F
:10559000DFE700BF756A0200976A0200B732002099
:1055A0007C6A0200836A02008D6A0200A98B0200F5
:1055B0002DE9F047644B654DDFF8B081DFF8B0911D
:1055C000ED1AED0847464FF0FF324FF0FF334846E3
:1055D00019F06AF9BFF35B8FD8F80040BFF35B8F17
:1055E00014F001045AD0DFF87CA1594C594E5A48A6
:1055F000524621461BF05FF9E8BBA901574841F02C
:1056000001011AF026FB4FF01F0A4FF0FF324FF056
:10561000FF33012000F024FB00F1080602210446BC
:1056200030461EF01DFC3E230370422343700121CF
:1056300030461EF015FC08230370412130461EF051
:105640000FFC064600F801ABBAF1000F1DD0402256
:1056500000211CF0E7FABFF35B8F57E8003F23F00F
:10566000010347E80032002AF7D1BFF35B8F2046E1
:1056700002F038F8A7E72022314620461CF097FABE
:105680000028B4D04FF0000ABFE733491CF07BFB81
:10569000334906F121001CF076FBDCE7BFF35B8F9A
:1056A000D8F80030BFF35B8F9B078CD52D492A4873
:1056B0001BF0D0FF011E38DAAA012B4842F001028C
:1056C0001AF0D4FA4FF0FF324FF0FF33012000F010
:1056D000C7FA00F1080A0221064650461EF0C0FB38
:1056E0003E23037022234370012150461EF0B8FB75
:1056F00009230370212150461EF0B2FB03460130FE
:10570000E4B91F221A70FF2120221CF08BFABFF38C
:105710005B8F57E8003F23F0020347E80032002A7E
:10572000F7D1BFF35B8F3046A2E70B4A0D4BA2F1D6
:10573000200110461BF00EF90446C3E7002206497B
:105740001A701CF020FBE2E7504F020020500200CC
:10575000D53200200A750200F5320020AE74020036
:105760001533002030560200D7740200C416002002
:10577000F809002070B5057D0446ADB983681A8824
:1057800042F225018A4217D042F226018A423CD0D9
:1057900042F201018A4207D1DA7802F07F02DA7020
:1057A0001A7922F001021A71314BD3F81C312046CC
:1057B0001B69BDE870401847032108301EF079FBD3
:1057C000204616F0C5F8BFF35B8F2A4B1A68BFF36B
:1057D0005B8F900707D50C25294642F225001CF067
:1057E000AEFA002070BDBFF35B8F53E8002F42F08C
:1057F000010143E800100028F7D1BFF35B8FD10708
:10580000E9D41D4819F02AF8E6E7032108301EF014
:1058100050FBBFF35B8F174B1A68BFF35B8FD20748
:1058200007D50C25204616F093F8294642F22600AB
:10583000D5E7A2893F2A19D9BFF35B8F53E8002F20
:1058400042F0020143E800100028F7D1BFF35B8F5C
:105850009307E6D4A16809481CF095FA084820315E
:105860001CF091FA044818F0F9FFDBE71225D9E79C
:1058700000000020C4160020F8090020F5320020A6
:105880001533002010B588B00C4C0D4900220023C0
:10589000CDE9062300230A22CDE90323CDE9013314
:1058A00000934FF48A62074B204619F06FF80649BF
:1058B000204608B0BDE810401EF083BF980C0020C1
:1058C000A8360020B1550000F874020038B5144B1A
:1058D000144C154D1548E41AE408A40144F00301E2
:1058E0001AF0B7F9EA7912482946C2EBC202FEF76C
:1058F0008BF9014620B10F4844F001021AF0B6F9C5
:10590000EA790D490D481201FEF77EF9014630B1E2
:1059100044F001020A48BDE838401AF0A7B938BD82
:10592000504F020040500200000000202A75020083
:10593000347502003A7502002001002055750200FE
:105940005C7502002DE9F341054616461F4660B915
:105950004249434B4348C91AC908890141F0010132
:105960001AF077F96FF001041CE001A91AF025FE86
:105970003D490246804628461CF00AF9044690BB81
:10598000BFF35B8F394D2B68BFF35B8F5B070DD582
:105990003249334B3648C91AC908890141F002011E
:1059A0001AF057F9204602B0BDE8F081943D072275
:1059B00029463846B047062810D8294B27492D4894
:1059C000C91AC908890141F001011AF042F90722F8
:1059D000214628461CF026F9EC71E3E70723B0FBCB
:1059E000F3F0E871DEE72449424628461CF0D0F87F
:1059F0000446A8B9214941223846B047011E0ADAB7
:105A0000174B164A1E48D21AD208920142F00102E0
:105A10001AF02CF9C6E71B48014481F86041C1E740
:105A20001949424628461CF0B3F80446002899D18B
:105A3000164910223846B0470F28B3D8084B0749FB
:105A40001348C91AC908890141F001011AF001F986
:105A5000102221460D481CF0E5F8A3E74050020053
:105A6000504F0200787502008A6A020094000020FC
:105A700099750200BD7502007B7F02006001002065
:105A8000E27502000000002058750200200100208D
:105A9000147602002DE9F04188B09C79DDF8388059
:105AA0005D791E79DF7893F802C093F801E01B78E6
:105AB000B8F1000F0ED0CDE90638CDE904CE13467B
:105AC000CDE90267CDE90045084A19F063FC08B04A
:105AD000BDE8F081CDE905E3CDE9037C1346CDE9CE
