:10000000B0C200202D8600004FB4020069860000B7
:100010006986000069860000698600000000000013
:100020000000000000000000000000009D830000B0
:10003000698600000000000051830000CDA102008D
:10004000ED85000031C70100ED850000ED85000061
:10005000ED850000ED850000ED850000ED850000D8
:10006000ED850000ED850000ED850000ED850000C8
:10007000ED850000ED850000ED850000ED850000B8
:10008000ED850000ED850000ED850000ED850000A8
:10009000ED850000ED850000ED850000ED85000098
:1000A000ED850000ED850000ED850000ED85000088
:1000B000ED850000ED850000ED850000ED85000078
:1000C000ED850000ED850000ED850000ED85000068
:0C00D000ED850000ED850000ED850000CE
:0400DC00FFFFFFFF24
:1000E00001F0FF01102A2BDB10F0070F08D010F8E9
:1000F000013B013A8B422DD010F0070F42B3F6D1ED
:10010000F0B441EA012141EA014122F007047FF005
:1001100000070023F0E80256083C85EA010586EA5C
:10012000010685FA47F5A3FA87F586FA47F6A5FA98
:1001300087F68EB9EED1F0BC01F0FF0102F00702A4
:1001400032B110F8013B013A83EA010313B1F8D14F
:100150000020704701387047002D06BF3546033830
:10016000073815F0010F07D1013015F4807F02BF69
:10017000013015F4C03F0130F0BC0138704700BFBA
:1001800081F0004102E000BF83F0004330B54FEA48
:1001900041044FEA430594EA050F08BF90EA020FB5
:1001A0001FBF54EA000C55EA020C7FEA645C7FEA48
:1001B000655C00F0E2804FEA5454D4EB5555B8BF6B
:1001C0006D420CDD2C4480EA020281EA030382EADC
:1001D000000083EA010180EA020281EA0303362D6E
:1001E00088BF30BD11F0004F4FEA01314FF4801C41
:1001F0004CEA113102D0404261EB410113F0004F53
:100200004FEA03334CEA133302D0524263EB430309
:1002100094EA050F00F0A780A4F10104D5F1200EA7
:100220000DDB02FA0EFC22FA05F2801841F1000102
:1002300003FA0EF2801843FA05F359410EE0A5F1D6
:1002400020050EF1200E012A03FA0EFC28BF4CF007
:10025000020C43FA05F3C01851EBE37101F00045BD
:1002600007D54FF0000EDCF1000C7EEB00006EEBCA
:100270000101B1F5801F1BD3B1F5001F0CD3490854
:100280005FEA30004FEA3C0C04F101044FEA4452AB
:1002900012F5800F80F09A80BCF1004F08BF5FEA32
:1002A000500C50F1000041EB045141EA050130BD12
:1002B0005FEA4C0C404141EB0101013C28BFB1F524
:1002C000801FE9D291F0000F04BF01460020B1FA6F
:1002D00081F308BF2033A3F10B03B3F120020CDA42
:1002E0000C3208DD02F1140CC2F10C0201FA0CF020
:1002F00021FA02F10CE002F11402D8BFC2F1200C85
:1003000001FA02F120FA0CFCDCBF41EA0C0190403A
:10031000E41AA2BF01EB0451294330BD6FEA040483
:100320001F3C1CDA0C340EDC04F11404C4F120026E
:1003300020FA04F001FA02F340EA030021FA04F380
:1003400045EA030130BDC4F10C04C4F1200220FAD7
:1003500002F001FA04F340EA0300294630BD21FA15
:1003600004F0294630BD94F0000F83F4801306BFDB
:1003700081F480110134013D4EE77FEA645C18BFCF
:100380007FEA655C29D094EA050F08BF90EA020F66
:1003900005D054EA000C04BF1946104630BD91EA5E
:1003A000030F1EBF0021002030BD5FEA545C05D161
:1003B0004000494128BF41F0004130BD14F58004A0
:1003C0003CBF01F5801130BD01F0004545F0FE4114
:1003D00041F470014FF0000030BD7FEA645C1ABF49
:1003E000194610467FEA655C1CBF0B46024650EA80
:1003F000013406BF52EA033591EA030F41F40021AC
:1004000030BD00BF90F0000F04BF0021704730B531
:100410004FF4806404F132044FF000054FF0000106
:1004200050E700BF90F0000F04BF0021704730B5C7
:100430004FF4806404F1320410F0004548BF40429C
:100440004FF000013EE700BF42004FEAE2014FEAF1
:1004500031014FEA02701FBF12F07F4393F07F4FCC
:1004600081F06051704732F07F4208BF704793F0CF
:100470007F4F04BF41F40021704730B54FF46074E2
:1004800001F0004521F000411CE700BF50EA0102E5
:1004900008BF704730B54FF000050AE050EA01028E
:1004A00008BF704730B511F0004502D5404261EBFE
:1004B00041014FF4806404F132045FEA915C3FF43F
:1004C000D8AE4FF003025FEADC0C18BF03325FEADC
:1004D000DC0C18BF033202EBDC02C2F1200300FA8D
:1004E00003FC20FA02F001FA03FE40EA0E0021FAB2
:1004F00002F11444BDE600BF70B54FF0FF0C4CF4A0
:10050000E06C1CEA11541DBF1CEA135594EA0C0F51
:1005100095EA0C0F00F0DEF82C4481EA030621EA8C
:100520004C5123EA4C5350EA013518BF52EA0335C7
:1005300041F4801143F4801338D0A0FB02CE4FF079
:100540000005E1FB02E506F00042E0FB03E54FF0A9
:100550000006E1FB03569CF0000F18BF4EF0010EA1
:10056000A4F1FF04B6F5007F64F5407404D25FEA9D
:100570004E0E6D4146EB060642EAC62141EA555150
:100580004FEAC52040EA5E504FEACE2EB4F1FD0C92
:1005900088BFBCF5E06F1ED8BEF1004F08BF5FEA10
:1005A000500E50F1000041EB045170BD06F00046C2
:1005B00046EA010140EA020081EA0301B4EB5C046F
:1005C000C2BFD4EB0C0541EA045170BD41F4801167
:1005D0004FF0000E013C00F3AB8014F1360FDEBF8C
:1005E000002001F0004170BDC4F10004203C35DA68
:1005F0000C341BDC04F11404C4F1200500FA05F3EB
:1006000020FA04F001FA05F240EA020001F000428B
:1006100021F0004110EBD37021FA04F642EB060101
:100620005EEA430E08BF20EAD37070BDC4F10C042B
:10063000C4F1200500FA04F320FA05F001FA04F2EF
:1006400040EA020001F0004110EBD37041F10001DB
:100650005EEA430E08BF20EAD37070BDC4F12005E6
:1006600000FA05F24EEA020E20FA04F301FA05F24E
:1006700043EA020321FA04F001F0004121FA04F2F6
:1006800020EA020000EBD3705EEA430E08BF20EAC6
:10069000D37070BD94F0000F0FD101F00046400000
:1006A00041EB010111F4801F08BF013CF7D041EA82
:1006B000060195F0000F18BF704703F00046520086
:1006C00043EB030313F4801F08BF013DF7D043EA57
:1006D0000603704794EA0C0F0CEA135518BF95EA0D
:1006E0000C0F0CD050EA410618BF52EA4306D1D194
:1006F00081EA030101F000414FF0000070BD50EAB3
:10070000410606BF1046194652EA430619D094EA3C
:100710000C0F02D150EA013613D195EA0C0F05D126
:1007200052EA03361CBF104619460AD181EA03017A
:1007300001F0004141F0FE4141F470014FF0000032
:1007400070BD41F0FE4141F4780170BD70B54FF0CD
:10075000FF0C4CF4E06C1CEA11541DBF1CEA13554D
:1007600094EA0C0F95EA0C0F00F0A7F8A4EB05042F
:1007700081EA030E52EA03354FEA013100F0888026
:100780004FEA03334FF0805545EA131343EA1263EF
:100790004FEA022245EA111545EA10654FEA0026A4
:1007A0000EF000419D4208BF964244F1FD0404F55D
:1007B000407402D25B084FEA3202B61A65EB0305B9
:1007C0005B084FEA32024FF480104FF4002CB6EB76
:1007D000020E75EB030E22BFB61A754640EA0C00F6
:1007E0005B084FEA3202B6EB020E75EB030E22BF36
:1007F000B61A754640EA5C005B084FEA3202B6EB77
:10080000020E75EB030E22BFB61A754640EA9C0035
:100810005B084FEA3202B6EB020E75EB030E22BF05
:10082000B61A754640EADC0055EA060E18D04FEAC3
:10083000051545EA16754FEA06164FEAC30343EA63
:1008400052734FEAC2025FEA1C1CC0D111F4801F30
:100850000BD141EA00014FF000004FF0004CB6E729
:1008600011F4801F04BF01430020B4F1FD0C88BFC8
:10087000BCF5E06F3FF6AFAEB5EB030C04BFB6EBD3
:10088000020C5FEA500C50F1000041EB045170BDC6
:100890000EF0004E4EEA113114EB5C04C2BFD4EBF3
:1008A0000C0541EA045170BD41F480114FF0000E77
:1008B000013C90E645EA060E8DE60CEA135594EAF3
:1008C0000C0F08BF95EA0C0F3FF43BAF94EA0C0FF6
:1008D0000AD150EA01347FF434AF95EA0C0F7FF46B
:1008E00025AF104619462CE795EA0C0F06D152EABF
:1008F00003353FF4FDAE1046194622E750EA4106A3
:1009000018BF52EA43067FF4C5AE50EA41047FF4B3
:100910000DAF52EA43057FF4EBAE12E753B94AB983
:10092000002908BF00281CBF4FF0FF314FF0FF30F7
:1009300000F06EB9ADF1080C6DE904CE00F006F8D8
:10094000DDF804E0DDE9022304B070472DE9F0474B
:10095000089D0E4604468C46002B40F081808A425A
:10096000174645D9B2FA82F24AB1C2F1200106FA1D
:1009700002F320FA01F1974041EA030C94404FEA58
:10098000174E230CBCFBFEF6B9B20EFB16CC43EAA5
:100990000C4306FB01F0984209D9FB1806F1FF3C15
:1009A00080F01581984240F21281023E3B441B1AAE
:1009B000A4B2B3FBFEF00EFB103344EA034400FB89
:1009C00001F1A14209D93C1900F1FF3380F0018106
:1009D000A14240F2FE8002383C44641A40EA0640DC
:1009E00000211DB1D4400023C5E90043BDE8F087D4
:1009F00002B9FFDEB2FA82F2002A4FD1CB1B4FEAD6
:100A0000174E1FFA87F80121B3FBFEFC260C0EFBE4
:100A10001C3346EA034608FB0CF3B34207D9BE1960
:100A20000CF1FF3002D2B34200F2EB808446F61A9A
:100A3000A3B2B6FBFEF00EFB106643EA064408FBC9
:100A400000F8A04507D93C1900F1FF3302D2A045B8
:100A500000F2D2801846A4EB080440EA0C40C0E73C
:100A60008B4208D9002D00F0AF800021C5E90006B7
:100A70000846BDE8F087B3FA83F1002949D1B342B3
:100A800002D3824200F2BB80841A66EB030301208A
:100A90009C46002DAAD0C5E9004CA7E7C2F120036F
:100AA0009740D8409140DE404FEA174E08434FEA46
:100AB000104CB6FBFEF11FFA87F80EFB11664CEAEC
:100AC000064601FB08F3B34204FA02F409D9BE1941
:100AD00001F1FF3C80F08E80B34240F28B800239FE
:100AE0003E44F31A86B2B3FBFEF00EFB103346EA27
:100AF000034600FB08F3B34207D9BE1900F1FF3CDF
:100B000074D2B34272D902383E44F31A40EA01412A
:100B10007AE7C1F1200703FA01F422FA07F31C4334
:100B200020FA07F906FA01F34FEA144CFE4049EAAD
:100B300003094FEA1943B6FBFCFE1FFA84F80CFBCD
:100B40001E6643EA06460EFB08FAB24502FA01F2B7
:100B500000FA01F308D9A6190EF1FF3048D2B245C8
:100B600046D9AEF1020E2644A6EB0A061FFA89F911
:100B7000B6FBFCF00CFB106649EA064600FB08F8E1
:100B8000B04507D9A61900F1FF3C2DD2B0452BD9AD
:100B90000238264440EA0E40A6EB0806A0FB028974
:100BA0004E45C446CE4618D315D075B3B3EB0C02F0
:100BB00066EB0E0606FA07F722FA01F3CE401F4352
:100BC000C5E90076002111E7294628460EE766466A
:100BD000EDE6184601E74345E7D2B8EB020C69EBB6
:100BE00004040138A646E0E76046D3E760468CE798
:100BF0008646B9E7614674E702383C442BE708466D
:100C000047E7ACF1020C3E4411E72946EEE600BF8F
:100C1000704700BF10F8012B11F8013B012A28BFD3
:100C20009A42F7D0D01A7047034613F8012B002AD6
:100C3000FBD1181A013870472DE9F047164690B0DD
:100C400005460F46002209A9304626F0A3FB099B62
:100C50001B780446A3B1DFF82081002458F8041B58
:100C60003046FFF7D7FF58B10134382CF6D128466B
:100C70003F4A3346022128F018FA6FF0850027E03A
:100C8000BB680AAA1B69A1B23846984700281FDB37
:100C90000B98FFF7C7FB34A3D3E90023FFF756FDFA
:100CA00006460A980F46FFF7BDFB02460B46304644
:100CB0003946FFF76BFA372C06460F460BDDCDE9B8
:100CC00000672C4A23460021284628F0EEF9002030
:100CD00010B0BDE8F087284B53F824A024F004039B
:100CE000032B0CD00B2C0AD0CDE90267234ACDF898
:100CF00000A023460021284628F0D7F9E7E70F98FF
:100D0000FFF790FB18A3D3E90023FFF71FFD8046F0
:100D10000E988946FFF786FB02460B464046494639
:100D2000FFF734FACDE906010D98FFF77BFB0EA320
:100D3000D3E90023FFF70AFD80460C988946FFF7A8
:100D400071FB02460B4640464946FFF71FFACDE9C4
:100D50000267CDE904010A4ACDF800A0234600212C
:100D6000284628F0A2F9B2E70000000080842E4156
:100D7000266A0300B76903009C030020D6690300BC
:100D8000F269030000000000F0B5494DD5F81C31B0
:100D9000996811F0010189B01FD103AA40F6034000
:100DA00009F042FE0446002873D1039B9B681B7820
:100DB00083B905F1940318462AF000FEBFF35B8F58
:100DC00000F0050053E8002F43E800010029F9D1A5
:100DD000BFF35B8F03981EF0ADFA03AA002141F226
:100DE000030009F021FE0446002852D1039A314E37
:100DF000936853F8010F596803C610461EF09AFA1B
:100E0000214603AA41F2010009F00EFE0446002823
:100E10003FD1039883685A7885F83420D9789A7836
:100E200042EA0122EA861A7985F83520197ADA79B8
:100E300042EA01222A875A799B7942EA03236B8787
:100E40001EF078FA214603AA41F2020009F0ECFDF7
:100E50000446F0B9039FBA68531C413218685968B8
:100E6000344603C4083393422646F7D195F86630DA
:100E7000384643F0060385F866301EF05BFA95F8B5
:100E800040305A0620D40C4B1B685B0704D16FF02E
:100E90001204204609B0F0BD084B09490948C91A97
:100EA000C908890141F0010127F0F1FCEFE700BF1B
:100EB000000000203C000020380C00208C2F030094
:100EC00054300300337D030003AA002142F20300E3
:100ED00009F0AAFD04460028DBD1039ABC4E9368B2
:100EE00053F8010F596803C610461EF023FA214635
:100EF00003AA42F2020009F097FD04460028C8D177
:100F0000039B9B68B3F80120A5F8C42091B229B1D6
:100F1000DA78114606F1280031F024FA03981EF021
:100F200009FA95F8406016F0200600F02D8195F83A
:100F300060301F0711D503AA002142F21C0009F0FE
:100F400073FD04460028A4D10398836853F8012F49
:100F50005B68C5E928231EF0EDF995F898309E06E8
:100F600024D502A90DF1060009F036FF0446002839
:100F70008FD1042142F2240009F0D6FB0646002856
:100F800000F00981042108302CF0CCFABDF80630BD
:100F90000380BDF8083043802246314642F22400E7
:100FA00009F042FD044600287FF473AF95F89830AD
:100FB0005C062CD5022142F22E0009F0B5FB044656
:100FC000002800F0E880022108302CF0ABFA6FF026
:100FD0007B030370032343702146002242F22E005C
:100FE00009F022FD044600287FF453AF014603AA0E
:100FF00042F22A0009F018FD044600287FF449AFA8
:10100000039883685B7885F8E0301EF093F9082137
:1010100042F2010009F088FB0446002800F0BB8082
:10102000082108442CF07EFA95F8981011F0400F32
:10103000024640F2022308BF032388074CBF43F057
:101040002C0043F00C0095F899308F0648BF40F013
:10105000400013F0090F95F8663018BF40F40060A7
:1010600003F00603CE0748BF40F01000062B08BF70
:1010700040F4C07000212AF0E6FC2146002242F232
:10108000010009F0D1FC044600287FF402AF95F876
:10109000403098061ED4B5F8C410D9B903AA41F25D
:1010A000050009F0C1FC044600287FF4F2AEB5F853
:1010B000C43063B9039B9B685A78997842EA01224D
:1010C000A5F8C4209A884348114631F04BF903989B
:1010D0001EF030F9082140F6014009F025FB0446D6
:1010E000002858D0082108442CF01CFA95F89830B4
:1010F000D907024664D534A1D1E900012AF0A3FC46
:101100002146002240F6014009F08EFC04460028EA
:101110007FF4BFAE014602AA4FF6014009F084FCFD
:101120002D4E3368002867D013F0060F09D02B49E5
:101130002B4B2C48C91AC908890141F0020127F03C
:10114000A6FB0CF01DF8044600287FF4A2AE014671
:101150003022254831F009FC244BC5F83431EB79B5
:10116000002B40F0D980336803F00703022B7FF691
:1011700090AE1B4B19491E48C91AC908890141F094
:10118000030127F084FB84E6022140F66D4009F05C
:10119000CBFA044610B96FF068047AE602210830F1
:1011A0002CF0C0F90123037046702146324640F608
:1011B0006D4009F039FC044600283FF4B8AE68E6FB
:1011C0000C484FF0005199E7908800020080002001
:1011D00098000020C8000020380C00205430030084
:1011E0008C2F0300577D0300300100208DAD0000DF
:1011F0002B7E03001088000203F00703022B46D960
:10120000029B494C9F68494BB7F801204848032A84
:10121000A4EB030496BF4749474951F82210E4085C
:10122000A40144F0030327F053FB336803F00703E2
:10123000022B2CD9B7F80110B7F80320022944F08B
:1012400003033DD1032A3BD83C4951F822103C48C6
:1012500027F03EFB336803F00703022B17D97A7996
:101260003848032A96BF3849334951F82210CDE94E
:101270000312BA790592B7F807200692D7F8092029
:10128000079244F00303052203A927F056FB0298B6
:101290001EF050F802AA00214FF6024009F0C4FBEC
:1012A000044678B1336813F0060F3FF44AAF1E4985
:1012B0001E4B2648C91AC908890141F002013EE7C0
:1012C0001D49C4E702988368B3F80130A5F885305A
:1012D0001EF030F895F885305B077FF532AF02AA33
:1012E00021464FF6034009F09FFB68B1336813F0C5
:1012F000060F3FF426AF0C490C4B1548C91AC90814
:10130000890141F002011AE7029883685B7885F849
:1013100084301EF00FF814E704210E482AF057FB22
:101320000AF09CFAB5E500BF543003008C2F03008F
:101330007B7D0300D83E030025770300983E030021
:10134000947D0300AC7D0300103F0300D97D0300B2
:10135000027E0300940000202DE9F041D0E90BC784
:10136000D0F828800CEB07043034A0450E46154613
:1013700018D81B4F18A3D3E90023ACFB0701FFF7D4
:10138000CDFAA4EB080420F07F40306012A3D3E92B
:101390000023A4FB0701FFF7C1FA20F07F4028607B
:1013A000BDE8F0810E4C0CA3D3E90023A8FB040197
:1013B000FFF7B4FA20F07F4307F130003360A0FB61
:1013C000040105A3D3E90023FFF7A8FA20F07F402A
:1013D0002860BDE8F08100BF8D49FD1A07000000BC
:1013E00000CA9A3B000000002DE9F04FAC4C94F885
:1013F0004E608FB006F00106002800F05B81B6BB9E
:1014000094F8392094F82D3094F8290004EB8202E6
:1014100004EB830300F00300FF21D2F83C80D3F8F3
:10142000309084F82A101AF033FC94F84E004207EA
:1014300000F11681B9F1000F11D09948494615F015
:1014400031FD99F800305B0605D5062110F0B8FF94
:10145000002800F040829248414615F023FD99F89B
:10146000003013F00E0F40F0D180636A23B10C26D8
:1014700030460FB0BDE8F08F14F08AFE8246002897
:1014800000F0468214F090FE8346002800F0598256
:1014900016F016FA0546002800F050824FF6FF734A
:1014A000806FAB8505F11C030B93002800F02C82A4
:1014B00005F16C0205F1680110F08EFFB5F86420AB
:1014C000784895F83D1095F8327195F840C0764B04
:1014D0002B66024042F4887295F87E00C5F83CA164
:1014E00042F0010201F03F0127F0030E61F07F019D
:1014F0000027A5F864204FF01B1220F01F0085F88C
:101500003D1067F3000C0621EA65684A85F832E170
:1015100085F840C085F87E00C5F82821C5E9137715
:1015200085F83F706F866F636F65A5F8C870A5F882
:10153000CC70C5F80C71A5F81071A5F82471C5F828
:101540002C71A5F8307185F83B71AF67A5F87C70F8
:10155000A5F85C71A5F8C41095F85E1195F87EC1E8
:1015600095F8A601B5F8DC20A5F87C7167F3041C9A
:1015700021F0070102F0FC0267F3C30085F87EC189
:1015800085F85E11A5F8DC20C5F8E470A5F8E870D0
:1015900085F8EA70A5F8A471A5F8B07185F8A601E0
:1015A00016F0BEFCA5F8D60016F0C0FCD5F8B411B4
:1015B0003F4AA5F8D8000A40C5F8B42116F0BCFC93
:1015C00095F8B82160F3020285F8B82116F0BAFC4C
:1015D000C4E911AB0B9B636295F8B82195F82030F4
:1015E000C5F8CC7160F3C50267F30003C5E97177F4
:1015F000C5E96F77C5E90577ED6185F8B82185F80C
:1016000020301BF0B5FC002840F0678194F82830AA
:101610000121C3F342030DA88DF8343011F054F8C2
:1016200090B399F8003003F00F03022B00F1FF3262
:1016300000F09E80012B00F0548198F801001030DA
:10164000C000002B40F03F8199F801301033DB00DF
:1016500003F54D71084403F59A7303FB020092E011
:10166000C0F3C000324604F14F011AF081FCFF289C
:1016700084F82A003FF4DEAE30461AF023FBB9F1BD
:10168000000F7FF4DAAEEAE6636A002B3FF4EFAEB8
:1016900015F0A4F90C2630460FB0BDE8F08F00BF5E
:1016A000D82F002080F8FFFF480148017F4101004A
:1016B0000000FFF6002E3FF4DAAE204614F044FEA0
:1016C00084420CD0A84AA949A9484FF4F36326F0F4
:1016D000D8FB404080F311884FF0030002DF94F8FC
:1016E0002830D9070DAD0ED502220D920321A14B52
:1016F00000950122002012F0DBF9294614F0FCFDD0
:10170000002840F02381022203219A4B00950020FB
:101710000D9212F0CDF9294614F0EEFD002840F0AC
:10172000F980954814F04CFE002840F0DF80934883
:1017300014F016FE84420CD08B4A8C498C4840F23F
:10174000BA7326F09EFB404080F311884FF00300EF
:1017500002DF636A0BB115F041F994F84E300026B0
:101760006FF30003304684F84E300FB0BDE8F08FC1
:1017700099F801301033DB0000FB03F000F5AA708C
:10178000642303FB020094F820707D4AE461002585
:10179000312365F30007A0FB0201236084F8207069
:1017A0006FA3D3E90023C4E90555C4E90155FFF748
:1017B000B5F8B4F84C80E06012F0C0F90746B8F113
:1017C000000F08D199F8005005F00F05A5F10105AB
:1017D000B5FA85F56D0994F82820E36865F30002F1
:1017E00012F0010584F828203DD0DFF88891654982
:1017F0000493002002250DF1300801930591CDE9F5
:1018000007980321CDE9020006942A4600903B4642
:101810000C9512F0C5F8414614F06EFD00287FF4D7
:1018200033AF594905914AF2D8320092CDE9079871
:10183000CDE90300CDE9010006943B4601220321D6
:101840000C9512F0ADF8414614F056FD00287FF4D7
:101850001BAF94F84E30304643F0010384F84E300D
:101860000FB0BDE8F08F4948494ADFF808E1DFF8DA
:1018700014C10694A8FB00014FF0910909FB08115F
:1018800003F24718C2F800804FF00209049309924E
:101890000DF1300832A3D3E900234FF6FF7ACDE9EA
:1018A00007E80295CDF83090CDF814C0CDF80CA023
:1018B000FFF734F84A46CDE900503B46284603215D
:1018C00012F018F8BFE7062B3FF4BEAE4FF4DA7300
:1018D0004FF41B70C1E61226CAE515F07FF8032607
:1018E000C6E54FF4F2734FF47F70B6E61E4A2949FD
:1018F0001F4840F2B77326F0C4FA404080F31188C5
:101900004FF0030002DF12E705F17000A867CFE592
:101910000726ADE5194814F023FD84423FF4A7AD36
:1019200040F2B173104A1149114826F0AAFA40401A
:1019300080F311884FF0030002DF98E5584614F059
:1019400039FC504614F02AFC072691E50B4814F0A8
:1019500007FD84423FF48BAD40F2A373E2E700BF82
:101960008D49FD1A07000000CC450300BC4603006A
:101970001C420300BD510100F42F0020D82F00208D
:1019800000CA9A3BB566010055690100002AE78448
:1019900030300020A84403002DE9F04FC84D2B68DB
:1019A0008BB004460F469146002B00F01B82E68E5A
:1019B000628E94F8123116443E4413F00703B6B217
:1019C00040F0A781B4F8EC80A6EB08021FFA82FA77
:1019D000120400F1028294F93D20002AC0F23D81F8
:1019E00094F8E83084F8E93094F87C2194F87D315B
:1019F00094F8101184F81111934206D094F87E31B6
:101A000003F00703052B00F046822B68A34204BFB6
:101A100000232B60D4F80C51002D00F06B81286856
:101A2000002800F06781B4F81431B4F82EC0426881
:101A3000C4F80C216345B4F81621B4F8181100F06D
:101A40002081B4F82CC0A5F806C04FF0150E4FF059
:101A5000000CEB832A84698485F804E085F81CC0B7
:101A6000294614F0ADFB14F0B5FB2368002BC0F23F
:101A7000FC80E08DB4F8145110FB0AF080B2B0FB8A
:101A8000F5F315FB03F292B290421FFA83FBC0F00C
:101A9000D38005FB130340F2E2428A489BB202FB6B
:101AA00003F3A3FB000184A3D3E90023FEF736FF71
:101AB000A9EB0009618E94F93D30A8EB06065E445F
:101AC0000F44374440F2E248002B678608FB05F5D7
:101AD000C0F28A817C4A7D497D4840F6F61326F0A3
:101AE000D0F9404080F311884FF0030002DF002757
:101AF000AA46B4F81821B4F81601764B7649208628
:101B000042F2107C0CFB02522B442944B3FBF5F348
:101B100000F1060C013AB2FBF5F2B1FBF5F599B212
:101B2000A4F8C6206145B4F81421A4F8D210A4F892
:101B3000CA50E28502DD091A063989B294F81231D9
:101B4000A4F8CE101B0744BF0023A4F8C83002211C
:101B500001201DF071F9002202210546012010F03C
:101B600089FC5E494FF4EA72204610F015FC00F142
:101B700003085FFA88F85A4B00944246012100207E
:101B800011F096FF30F002030CD04F4A55495048EF
:101B900040F6252326F075F9404080F311884FF078
:101BA000030002DF474BAAFB03AB504642A3D3E935
:101BB00000235946FEF7B2FE4B4AE368049320F037
:101BC0007F46A6FB0223072000FB0633BAEB020088
:101BD0006BEB0301DFF814E1DFF814C108940694FD
:101BE0004FF47A7200234FF6FE74CDF81CE0CDF866
:101BF00014C00394FEF792FE4B46CDE901600097B6
:101C000042460121002011F0CBFE30F002030CD03F
:101C10002D4A34492E4840F63F2326F032F9404001
:101C200080F311884FF0030002DF002D40F02A817D
:101C300028460BB0BDE8F08F121A40F2E24321486B
:101C400003FB02F2A2FB00011BA3D3E90023FEF772
:101C500065FE20F07F4081442CE794F8DD20002AC7
:101C60003FF4BEAE84F8DD30BEE6D4E9010223F0D5
:101C7000004382422CBF914481442360A9EB0309B5
:101C8000F7E6B4F830C094457FF4DBAE40F2E24CA6
:101C90000CFB03FB42F2107CB4F8C6E00CFB01BC69
:101CA0000CF1FF3CBCFBFBFC1FFA8CFCE6457FF40F
:101CB000C8AE01232B71D3E68D49FD1A0700000041
:101CC0002432002000CA9A3BD84603008C4203000D
:101CD0001C4203007FC3C901FF596202503000203B
:101CE00059720100B84703008D49FD1A01720100C5
:101CF000E5B50100784A7949794840F67A1326F02B
:101D0000C0F8404080F311884FF0030002DF2868DC
:101D100089E6012014F064FA0746002800F0CD801F
:101D2000704810F005FB0546002800F0C68014F04E
:101D300075FA3A682B79D4F80C11516043F003031B
:101D40000C22C4F80C716A712B71238ED4F81C21FB
:101D5000654F94F8121100201E44E871A7FB02326F
:101D6000C2F38F2294F820312B72D4F8BC31A5F83D
:101D70000920B4F81421A5F80B200636B4F8162172
:101D8000A5F80D20B6B2B4F81821A5F80F2060F31D
:101D90000201A4F8EC6084F81211A5F81160002B80
:101DA0007FD094F85E2190077BD494F8B721D107B7
:101DB00077D4D4F8C821934204BF1A68C4F8C82164
:101DC000D4F8C021002A6FD11A682A601D602B68E0
:101DD000C4E970550BB9C4F8CC516FF076000BB064
:101DE000BDE8F08F2860E2E5E26C636C3F4F03FBD7
:101DF0001A23E3641BF00EF9064694F8DC00C0F3E6
:101E000082001BF009F9064405FB06F6384BE26C2C
:101E100094F8201106F5742606F23F26A3FB063639
:101E2000B60C06FB0BF06B080244963B9A4228BFA7
:101E30001A4608FB01FC4FF0000EC4E91232A0FB69
:101E4000070123A3D3E90023C4F854C0C4F8E4E095
:101E50006664FEF763FD244B8446D4F81C01A3FBA3
:101E60000030800A08FB00F0A0FB070118A3D3E9AB
:101E70000023A9EB0C09FEF751FDA5EB060A20F0A3
:101E80007F4736E601221046022110F0F3FA0020C7
:101E90000BB0BDE8F08F002384F87D21A4F8CC308E
:101EA000B3E5D4F8C0216AB1D4F8C4311A682A6005
:101EB0001D602B68C4F8C4518CE76FF068000BB04C
:101EC000BDE8F08F2B60C4E96F55C4F8C45181E7B9
:101ED0008D49FD1A07000000D8460300A4470300FF
:101EE0001C420300A83200205917B7D100CA9A3B00
:101EF00083DE1B43000000002DE9F04F1C461368F1
:101F00000D46D3F800A031F82ECF2346174653F8DC
:101F10000C6B8A78A4F80CC09A70D5F82A30A360AC
:101F20002B46814653F83A2FE26104F11C001B79DD
:101F3000037193B0052110F0C7FB94F8213000F035
:101F40003F0060F30503012884F821300AD995F891
:101F50003F3003F01F02053AC3F304010B2A84F853
:101F6000221002D913B0BDE8F08F3A6896F8DC1061
:101F700000209060B5F83480A4F8128095F83620DF
:101F800095F8370042EA0022A2825B0963F38401DC
:101F90006B8E0B9386F8DC1040F2E24303FB08F8EB
:101FA0001BF038F8834696F8DC00C0F382001BF083
:101FB00033F8584408FB00F0DFF824E395F831C00B
:101FC000A18ABD4A00F5742000F23F20AEFB00302C
:101FD0004FEA580E40F2E24303FB0CF3800CAEF1E3
:101FE000960EA062E363C4F82CE0B5F838B0B348AD
:101FF00042F2107303FB0B83424401F1060C013BD8
:10200000B2FBF8F2B3FBF8F3A6F8C63093B263451F
:102010004044A6F8D230B0FBF8F0A6F8CA0002DDC2
:102020005B1A063B9BB2A6F8CE302946A368C6F8D9
:10203000E03051F81E0F2B7F8A88ADF844204FF412
:10204000807CC3F38012A5F81CC08DF83820C3F340
:10205000401210908DF83C200A929AF82A00BA7C1F
:102060000D910C921AF078FADDE90C2105F12B03A1
:10207000002840F0EB80FF2AC5F82B00988005F17E
:10208000250300F0EF80104605F11F020C9319F0B4
:1020900035FDAA7F0C9BBDF844101098C5F82500AB
:1020A0000232AA77998096F8DC30618AA28AAA86E1
:1020B000C3F3820385F838306986A5F836B0304618
:1020C00015F00AFC29462082E8807D68484614F015
:1020D00077F8238AEB8018232B710A9B2868002B42
:1020E00000F0CF8094F809E0237A94F80BC0A17A2D
:1020F00094F8212041EA0C2143EA0E234B4042F0A0
:1021000040020121638484F821202977294614F0B4
:1021100057F814F05FF894F84900012100F0070027
:102120001AF086FE664A4FF000098346312300F21A
:102130005240A0FB02013360C6E901995CA3D3E9D8
:102140000023FEF7EBFBFD680B99A36A40F2E24225
:1021500020F07F4002FB0155F0604A460221012039
:10216000A8EB030810F086F9504614F0D7FD821C46
:10217000544BCDF800A0D2B24846012111F098FC92
:1021800005F286350128A5EB0B0500F086809AF84C
:102190002830DB0779D4304615F09EFBDFF820B1FC
:1021A000A8FB0B8942A3D3E90023044649464046D5
:1021B000FEF7B4FB444A069620F07F4AAAFB0223AE
:1021C000072101FB0A334FF4B671BF6808913F49FC
:1021D00007913F490591B8EB020069EB0301F368F1
:1021E000049300264FF47A7200230396FEF796FBC1
:1021F0002FA3D3E900238446A5FB0B01CDE901AC55
:10220000FEF78CFB033420F07F40E4B2313F3B46C5
:10221000009022463046012111F0C2FB30F002034B
:102220000CD02C4A2C492D4840F26D1325F029FE84
:10223000404080F311884FF0030002DF0122104676
:10224000022113B0BDE8F04F10F014B92846FF2A60
:1022500050F824CFC5F82BC08088988005F125035D
:102260007FF411AF0022BDF844101098C5F8252066
:102270009A809DF83830A5F82310AB77C5F81F0079
:1022800011E79DF83C302B7740E7002301220093B3
:102290001846114611F00CFC7DE714F06DF88245EC
:1022A0003FF475AF19F07AF971E700BFAFF3008022
:1022B0008D49FD1A070000007FC3C901FF59620262
:1022C00000CA9A3BC9B501008D49FD1A6DB50100E0
:1022D000E5B5010000490300B84703001C420300B4
:1022E00083DE1B43000000002DE9F04F8FB00DF19D
:1022F0003701354F0B900DF1360013F0D7FF9DF8E5
:102300003730DFF8D8909DF836A00A9311F016FC0C
:102310003C68A4FB09452AA3D3E90023804629464B
:102320002046FEF7FBFA0B9B069383467868274B03
:102330000593002622A3D3E90023A0FB0901CDE9E0
:102340000766FEF7EBFA224B2BF07F49A9FB03BC93
:1023500020F07F40072303FB09CCCDE90360B4EBF9
:102360000B0065EB0C014FF47A720023FEF7D6FAEE
:102370000A9A0096CDE9019043460321504611F098
:102380000FFB30F0020415D1124A1348002324F049
:1023900021FA68B19DF837209DF836000094234655
:1023A000032111F085FB6FF073000FB0BDE8F08FD3
:1023B000F868FAE76FF08B00F7E700BFAFF3008033
:1023C0008D49FD1A07000000FC3A00202900020098
:1023D0008D49FD1A447B0B000C3B002000CA9A3B40
:1023E00038B50F4D044611F0A9FBA96811F0A8FB00
:1023F0000C49B0FBF4F40444686807A3D3E9002354
:10240000A0FB0101FEF78AFA20F07F40844294BFCE
:102410000020012038BD00BF8D49FD1A07000000D3
:10242000FC3A002000CA9A3B014825F02ABD00BFB3
:102430000A57030011B1034825F023BD024825F0D7
:1024400020BD00BF285703004857030070B503782C
:102450008AB004460E4607AD032B20D8DFE803F010
:1024600002191B1D1149284630F09DFA6378049328
:10247000A3780393E378029323790193637900931C
:102480000B4AA37905951E21304625F007FD0AB0B9
:1024900070BD0849E7E70849E5E70849E3E7084A66
:1024A0000A21284625F0FAFCE0E700BF5357030055
:1024B000755703005A570300615703006B57030019
:1024C0005B8A030010B588B00C4629F0EEFC694623
:1024D000FFF7BCFF03482246694625F0D2FC08B04E
:1024E00010BD00BF9857030000B589B029F0DDFC8E
:1024F0006946FFF7ABFF0348694625F0C2FC09B007
:102500005DF804FBAE57030070B5002088B009F0F9
:1025100037FA064628B101461A4825F0B2FC08B041
:1025200070BD194D194825F0ACFC00F053F827F0A8
:10253000C1FC0FCD03AC0FC42B6823601449009677
:102540003346032203A809F0D1FD0146B0B111487A
:1025500025F097FC10480AF071F910480AF0E8FDE0
:1025600000214FF4004024F0E7F802F063F80A2855
:102570000CBF5A20162002F09DF8F1E7084825F01C
:1025800080FCE7E7C557030000320300E55703006E
:10259000D8320300FC5703001C020020F801002081
:1025A0002258030038B50C46BDF81000E5681C46FB
:1025B000C3180A2B114608DC2246284430F09AF949
:1025C000034B01221A70204638BD6FF00604FAE76B
:1025D0001C8E0020094B40F2DF721A8005229A708F
:1025E0001E220C21DA709A7101221971DA712D21E3
:1025F000002259711A725A72704700BF128E002061
:102600000B0706D5034BC35C03F00303012B08BF84
:10261000203070470CD0030030B50A4C0A44914278
:1026200000D130BD11F8013B58400309E35C83EA57
:102630000013DDB2C3F30313E05C80EA0510C0B2FF
:10264000EDE700BF775803000B6801330B60014BC7
:102650001B68184758020020014B1860704700BFE4
:102660005802002007B50B4600210246019103489D
:1026700001A900F065F903B05DF804FB49260000EC
:1026800030B585B0CDE901010446002501A9054812
:10269000039500F055F9DDE902309842B8BF2554A2
:1026A00005B030BD5D7E02002DE9F84FB0F81890FE
:1026B00019F00808044693460DD001290CBF49F0D3
:1026C000100949F02009A0F818908BF31188BFF386
:1026D0006F8FBDE8F88F09F00709022907D120465E
:1026E00025F0E9FB0028F0D00128238B50D1676941
:1026F000218B002F15DA256821F00701C4E9008835
:1027000041F0010121830026218B01F0070ACA450F
:1027100002D0A368002B5CD10DB9002E74D0002329
:1027200058E001F007035A1F012A20D821F00701C1
:10273000062B256889B2C4E900880CD1002D2B46F0
:1027400038BF00232BB1628B1B6801326283002BE0
:10275000F8D141F002012183204625F0ACFB06466A
:102760000028D1D0238B43F020032383CBE7042B15
:102770000CD121F0070189B22183204625F09BFB73
:1027800005460028BFD041F0200121830025BAE78B
:10279000032809D1226923F00703166843F00603D2
:1027A000238300252F46AFE7042806D1226923F0B2
:1027B0000703566843F00403F2E7052806D12269AF
:1027C00023F00703966843F00503E9E700252E464A
:1027D000E8E7012341F0080121838BF31188BFF35F
:1027E0006F8F03BB002D33D116B121492046B0476E
:1027F0004FF02003EFF3118B83F31188BFF36F8F3A
:10280000238B23F008032383238BDA0628D523F0B8
:10281000100323830121B4F8189009F00709002957
:102820007FF45BAF51E7A1680029DBD00B68D1F8DA
:1028300004B0002B38BF0023994652463B46204641
:10284000D847B9F1000FCDD0D9F800304946EEE7AE
:1028500029463B46524620462D6825F048FBC1E7F5
:1028600013F020011EBF23F0200323830221D2E7AF
:102870001B7F0200F0B5094E016802460A270020BE
:102880000C46013123789D5D6D0701D41460F0BDC5
:1028900007FB0033A3F13000F2E700BF0CD00300C8
:1028A0002DE9F74F14469946D378244A13F802A02D
:1028B0006F2B0AF0030206460F4601922DD028D84E
:1028C000582B14BF0A251025DDF83080AA464FF09A
:1028D000000B52465B4630463946FEF71FF8092A80
:1028E000D3B21FD830335F45DBB208BF564508F876
:1028F000013D01D3C84512D823789B0605D5082D84
:1029000016D1A37843F00803A370404603B0BDE896
:10291000F08F03F0F703702BD3E70825D4E70646C2
:102920000F46D6E7019A012A0CBF37335733DAE74F
:10293000102DEAD1A37843F01003E5E70CD0030093
:102940002DE9F04FA3B08846069091461C4600251D
:1029500099F8000010B9284600F0AEBD09F1010356
:102960002528079307D04146069B98470028C0F2C8
:10297000A385013524E21822002114A82FF0F5FFC9
:1029800099F80130252B59D0079A164612F8013BC9
:102990002B2B00F08B8079D8202B00F08C80232B00
:1029A00000F08E809DF8583003F04402442A03D191
:1029B0006FF386138DF858309DF85830129643F017
:1029C00080038DF8583033782A2B7ED19DF859300A
:1029D00043F001038DF85930731C12931A782E2A94
:1029E0009DF859200CBF0121002161F341028DF8AF
:1029F00059200BD15A1C12925A782A2A7BD19DF861
:102A0000592042F004028DF859200233194611F87A
:102A1000010B6C2800F0CF807DD8682800F08480FE
:102A20006A2800F0D2804C2800F0D6809DF859200A
:102A30006FF3C6028DF85920194680E009F10202B1
:102A400007928DF85B309DF85930DE0740F16D81BB
:102A500054F804ABBAF1000F07DA9DF8582042F0A1
:102A600004028DF85820CAF1000A580740F1668127
:102A700054F8047B002F80F265819DF859306FF384
:102A800041038DF859304FF0FF375BE12D2B06D015
:102A9000302B87D19DF8583043F0400303E09DF878
:102AA000583043F004038DF858306EE79DF85830E5
:102AB00043F00803F7E79DF8583043F01003F2E7BE
:102AC0009DF8583043F02003EDE712A8FFF7D2FE3F
:102AD000129BB34281D09DF858101790C1F3400269
:102AE00042EAD072520062F07F0201F07D010A4397
:102AF0008DF8582071E712A8FFF7BCFE9DF85830FA
:102B00001890C3F3400242EAD07060F341038DF89D
:102B10005830129B7AE774289DF8592059D07A28AA
:102B200084D11346062241E05A78682A9DF859203C
:102B30003AD1012161F3C6028DF85920991C0B4648
:102B400013F8012B0793782A8DF85B2000F2C580DB
:102B5000572A4ED8412A04D0A2F14503022B00F295
:102B6000BC809DF85A3002F0DF020421A2F1410A34
:102B700061F30203DAF100029DF859108DF85A3022
:102B800042EB0A0262F3C7110A068DF85910CBB264
:102B900000F1C98003F07802182A40F09B806FF39F
:102BA000C6038DF8593082E01346022262F3C60351
:102BB0008DF85930C3E75A786C2A9DF8592001D115
:102BC0000421B7E713460322F0E79DF859300522A8
:102BD000ECE713460722E9E7BDF8583023F4F04349
:102BE00023F0020343F4804343F00203ADF858306E
:102BF000A5E7A2F15803202B6FD801A151F823F0CB
:102C0000B32C0000DB2C0000DB2C0000DB2C0000D0
:102C1000DB2C0000DB2C0000DB2C0000DB2C000098
:102C2000DB2C0000632B0000DB2C0000B32C000029
:102C3000852C0000632B0000632B0000632B000039
:102C4000DB2C0000852C0000DB2C0000DB2C0000BE
:102C5000DB2C0000DB2C0000E92C0000B32C000072
:102C6000092D0000DB2C0000DB2C0000092D0000EA
:102C7000DB2C0000B32C0000DB2C0000DB2C000060
:102C8000B32C00009DF85A30012161F302038DF846
:102C90005A309DF8593003F07803402B02BF9DF85D
:102CA000581041F001018DF85810632A05D0002317
:102CB00006E09DF85A300221E7E7003B18BF0123E8
:102CC0009DF85820C2F340010B4363F341028DF895
:102CD0005820B8E613F0380FE9D09DF8583043F08B
:102CE00001038DF85830E2E79DF85A30032262F371
:102CF00002038DF85A309DF8593003F07803A3F1A0
:102D000040077B427B41DBE79DF85A30032262F3A8
:102D100002038DF85A309DF8593013F0780F14BF24
:102D200001230023CCE70123CAE79DF95820002A9C
:102D3000B4BFDDF85CA04FF0FF3A96E699077FF547
:102D4000A2AE189F0023CDE917339DF85A3003F047
:102D50000703042B09D19DF859309A0705D49DF932
:102D60005930002BB4BF0D2706279DF85A309DF827
:102D7000591003F00703012BC1F3C30136D1CB1E59
:102D8000042B20D8DFE803F00307071F1F0054F8C7
:102D9000042BD31704E0073424F00704F4E80223DB
:102DA000CDE914239DF85860B30755D0079B0698CA
:102DB0004A46414625F077FC0028C0F27D83054451
:102DC000DDF81C90C4E554F8042B01294FEAE273A6
:102DD000CDE9142305D19DF85030149300231593A9
:102DE000E0E70229DED1BDF95020D2E7022B23D142
:102DF000CB1E042B13D8DFE803F0030A0A121200DB
:102E0000226814920023201D15930446CAE7073454
:102E100024F00700F0E80223CDE91423F5E754F885
:102E2000043B149301294FF000031593D3D00229DA
:102E3000B8D1BDF85030D0E7042B07D1073424F0C7
:102E40000704F4E80223CDE91423ABE7032B04BF06
:102E500054F8043B1493A5E79DF85B90B9F1780F03
:102E6000AED8B9F1570F00F2A680B9F1250F00F0E6
:102E7000ED80B9F1240FA3D9B9F1410F03D0A9F125
:102E80004503022B9CD8DDE91423002A73F10001CD
:102E9000C0F28681310700F1858116F0100618BF57
:102EA0002026C3F30A5BC3F3130304920593DDE901
:102EB0000423CDE91023BBF1000F40F07581DDE95B
:102EC0000432134314BF4FF0010C4FF0000C05996E
:102ED000CB020499CA0243EA515358464BEA020115
:102EE0000A91C11719430B91DDE90A01B9F1460FA7
:102EF00008BF4FF066090143CDE9102300F0C881F7
:102F0000BCF1000F40F08881109B0293119B43F0AD
:102F100000430393DDE90223CDE910230023ABF244
:102F2000FE3B1A4605211BF1020FC0F27E811BB148
:102F3000DDE90201CDE91001BBF1000FDDE910313F
:102F400000F38E811199109BCBF104000BF11C0B47
:102F500001FA0BFBA0F1200CC34021FA0CFC43EA60
:102F60000B0343EA0C03C140CDE9103109F0DF0344
:102F7000472B40F09481D01C02DB974280F28B817A
:102F8000A9F10209002F5FFA89F900DD013F9DF8E0
:102F90005830990600F18381002FD4BF002301230C
:102FA000B9F1660F0C9340F07C81D31940F17A811E
:102FB0004FF0000B7AE1A9F15803202B3FF600AF48
:102FC00001A252F823F000BF41310000C12D0000E2
:102FD000C12D0000C12D0000C12D0000C12D000039
:102FE000C12D0000C12D0000C12D0000872E000062
:102FF000C12D000079300000E1300000872E000074
:10300000872E0000872E0000C12D0000E130000057
:10301000C12D0000C12D0000C12D0000C12D0000F8
:10302000773100004131000045310000C12D000022
:10303000C12D000053300000C12D000041310000BF
:10304000C12D0000C12D000041310000414648461D
:103050008AE4002FDDF850900ADB394648462FF00D
:10306000E2FC09EB000B0026B9F1000F0CD1A7E63A
:103070004846FDF7D9FDF4E7149B8DF86C30002627
:103080000DF16D0B0DF16C09ABEB090206B10132CC
:103090009DF85A00C30640F1038202321799400698
:1030A0000A4444BF18995218BAF1000F40F3118234
:1030B000AAEB020A9DF858205107C2F3800700F1DD
:1030C0000882530640F1FB8146B1069B41463046DB
:1030D00098470028C0F2F08101353E463027EFE1E5
:1030E00030072BD416F0100618BF2026DDE9142374
:1030F000002A73F1000105DA524263EB4303CDE984
:1031000014232D260DF185030093DDE914011BAB7B
:1031100016AAFFF7C5FB8146002F0DF185030BDBD7
:103120009DF85810A3EB09026FF3861197428DF8B2
:10313000581001D9BF1A17979B4695E72B26D5E75C
:103140000026DFE71498002800F09F810DF1850329
:10315000009316AA1BAB0021FFF7A2FBBDF85A3063
:1031600003F0EF0343F4F04343F010038146ADF85E
:103170005A300026D0E7149B07293FF621AEDFE83E
:1031800001F00D04060D08080D0D1D7018E61D80D8
:1031900016E62846E917C3E9000111E61D600FE6AF
:1031A0002D267EE62B267CE640F2FF739B452ED132
:1031B000DDE90412B84B19F803300A4303F00303A6
:1031C00017D1012B0BBF44F6496346F66963ADF88E
:1031D0006C30ADF86C300CBF462366238DF86E3032
:1031E0009DF858306FF386138DF858300DF16F0B42
:1031F00048E7012B0BBF44F24E1346F26E13ADF8B5
:103200006C30ADF86C300CBF4E236E23E6E74FF008
:10321000000C5CE60BF1FF3B92185B41002A73F156
:103220000001F7DACDE910236EE6029B03985B08F4
:1032300043EAC0734008B0F1333FDE46CDE90230C7
:103240000BF1010BF1D2A3FB01BCCDE902BC039B46
:103250004843C31803930EF1020B013A012362E6BF
:10326000023341F1000110A8CDE910310C9225F094
:10327000E3F90C9ADDE910010BF1FF3B0132001874
:103280004941002871F100030BF1FF3BF7DA51E6E9
:103290000022934656E6BF1A4FF0660977E60023F0
:1032A0007EE67B1C102BA8BF10239B4610210F919C
:1032B00000204FF00061CDE912010BF1FF3BBBF1A3
:1032C000FF3FDDE912101FD1109BCB180893119B13
:1032D00040EB03030993DDE908BC6FF070414FF048
:1032E000FF30614508BF58451AD358466146CDE9BD
:1032F0001001B9F1660F53D1002A20DC30238DF87C
:103300006C300DF16D0B2BE0490841EAC0714008AB
:10331000CDE9121012A80D9225F08EF90D9ACCE786
:10332000089B0D92099A5B0843EAC273510810A8E2
:10333000CDE9103125F080F90D9A0132D9E70DF170
:103340006C0B0F99002909DD0FA910A80D9225F02B
:1033500093F90D9A0BF8010B013AF2D11792002262
:103360009DF85810880601D4002F3FDD5B462E21C2
:1033700003F8011B92B1002F75DD5142B942A8BF7D
:1033800039469DF85A0017910029A7EB0107D4BFD1
:103390000021012161F345108DF85A009B4620E081
:1033A0000FA910A80D9225F067F90D9A9DF85830D5
:1033B0008DF86C00302818BF02F1FF32990601D455
:1033C000002F52DD2E238DF86D300DF16E03E5E7F1
:1033D0000FA910A80D9225F04FF90D9A0BF8010BCB
:1033E000013F002F02DD0F990029F1DC0C9B002B1F
:1033F0003ED1189709F0DF01452922D1002A58460D
:10340000BABF52422D212B21632A00F8029B8BF870
:1034100001100ADD642792FBF7F101F1300C0BF18A
:1034200003008BF802C007FB11220A27834692FB98
:10343000F7F107FB112201F1300C30320BF802CB0F
:103440004270179A002A1EDC189A002AD4BF002264
:1034500001229DF85A1062F3861100228DF85A104D
:103460008BF800200EE69B46C0E70DF16D0BBDE723
:103470000021189158461BF8011D3029FAD02E2939
:1034800018BF8346B6E70122E3E7DFF810B006462F
:10349000ABF10509F8E500BF0CD003008C58030020
:1034A000070748BF0132F9E50C934146069B3846B1
:1034B000984700280C9B05DA23B0BDE8F08F202741
:1034C0000AEB05035246002AA3EB0A050AF1FF3A6C
:1034D000EADC36B1069B4146304698470028EBDBD4
:1034E00001359DF85A2050067DD59DF95920002AB6
:1034F0002CDBA5EB090599F800005B4BC25C4E463E
:10350000510705EB060709F101093FD49DF85A2040
:10351000DDF85C90920608D409EB07054A46002ABC
:10352000A5EB090709F1FF3936DC30782E280AD1DE
:10353000069B414698470028BEDBB9F1000F07F112
:10354000010730DC0136B146BF1B39E0A5EB0907A6
:103550004D4607EB090619F8010B702810D1189F8A
:103560003744BA1B002A35DC06985B462A4641469A
:1035700025F099F800289FDB3044054682446CE032
:10358000069B414698470028E2DA95E7069B4146AC
:1035900098470028AFDA8FE7069B414630209847CE
:1035A0000028BBDA88E7069B41463020984709F19E
:1035B000FF39C0E7069B414698470028FFF67CAFDD
:1035C000294B4D4607EB090619F8010BC25C53075E
:1035D000F0D4C4E7069B4146302098470028FFF608
:1035E0006BAF0136BDE7D10601D4120707D5069BA4
:1035F0004146302098470028FFF65EAF01359DF820
:103600005A20D30608D59DF85B00069B4146984793
:103610000028FFF651AF0135179F2F447A1B002A6F
:103620000ADC06985B464A46414625F03CF80028ED
:10363000FFF642AF2844A0E7069B4146302098475A
:103640000028FFF639AF0135E8E7069B4146202008
:1036500098470028FFF630AF0135AAEB0503002B91
:10366000F3DCFFF7ADBB00BF0CD0030030B5104951
:10367000104889B000222EF086FF0F4D0F4900221E
:103680000023CDE9062300240E23CDE90334CDE940
:1036900001440B4B00944FF44072284623F0BEF9CE
:1036A0000849284623F010F9204609B030BD00BF74
:1036B000C9360000780F0020B00F00205895002078
:1036C0009D3C0000005C0300014823F05DB800BF92
:1036D000E80D0020F0B505460F4E002003460246D7
:1036E000012715F8014B0CB18B4200D3F0BD252CFE
:1036F00002D182F00102F4E7002AF2D014F806C0E9
:103700001CF0030FEDD0732C04BF07FA03F2104333
:1037100001330022E5E700BF0CD0030038B500F00C
:103720001FFB1348134C25F08AF813491348042350
:1037300028222EF012FC124B124A1A604FF400405D
:1037400000F058FD1048114B1B1ADB080021043013
:10375000994200D138BD10F83120256802F00702E7
:1037600025F007052A4344F8042B0131F0E700BF98
:10377000801B0020D40B0020F0D30020881B0020E9
:103780005C0200207D8802008C2F03001C310300A6
:10379000F8B50F4BBFF35B8F002553E8007F43E87C
:1037A0000052002AF9D1BFF35B8F0A4C0A4E361B38
:1037B0003611B54200DBF8BD63685B792BB1236835
:1037C000DB6813B139462046984701351034F0E7DD
:1037D000781B00201C3103003C310300064BBFF373
:1037E0005B8F53E8002F013243E800210029F8D114
:1037F000BFF35B8F704700BF781B0020044A054B66
:103800009B1AB1EBD30F34BF52F831000020704740
:103810008C2F03001C3103002DE9F0478946164622
:1038200098460446B0B9214B214FFF1A3F11054677
:103830009A46BC4202DB2846BDE8F0870AEB04103A
:10384000434632464946FFF7E7FF854238BF054603
:103850000134EEE7174B184903EBC2031D794368A7
:103860001A79072302EB420203FA02F0454551F8A8
:10387000263028BF454623EA000305F0070000FA7A
:1038800002F213430020032223FA02F404F0070497
:10389000A04202F1030238BF20461E2AF4D123F0D1
:1038A0000703034341F82630C5E700BF1C3103007E
:1038B0003C3103008C2F0300D40B0020F8B5094CD9
:1038C000094BE41A06460F46E4080025A54200D13C
:1038D000F8BD00212A463B463046FFF79DFF0135E3
:1038E000F4E700BF1C3103008C2F03000C4BC31AFC
:1038F00070B51B114668044601330D4633711146FD
:10390000FFF7DCFF6368074C1D6001225A712278C3
:1039100012B9054822F038FF0123237070BD00BFA3
:103920001C3103001D8E0020E80D002070B5114BE6
:10393000BFF35B8F53E8005F6A1C43E80021002956
:10394000F8D1BFF35B8F2DB90B4C0C4E361B3611E3
:10395000B54200DB70BD237B43B123685B6903B1D3
:103960009847042200212046FFF7C0FF013510349C
:10397000EEE700BF7C1B00201C3103003C3103003C
:1039800053B143680749187900EB400351F822000E
:10399000D84000F007007047034B03EBC2021079D8
:1039A000704700BFD40B00208C2F0300174B9842A8
:1039B00073B5044602D3164B984221D31548002212
:1039C000002301A922F038F90546E0B90122019B44
:1039D000BFF35B8F53E8001F43E800200028F9D1B4
:1039E000BFF35B8F019E331D1F22184621462EF028
:1039F000F4FF7E22034686F8232086F824501C46D6
:103A0000204602B070BD044BF9E700BFC02C030094
:103A100040D10300881B00208D58030048B1054B9E
:103A2000984205D3A03398422CBF00200120704754
:103A300000207047F0D300202DE9F04F564B1B7843
:103A400085B0054603B960B34FF02003EFF311864C
:103A500083F31188BFF36F8F504824F000FF0446B2
:103A600086F31188BFF36F8F78B1BFF35B8F4C4B38
:103A700053E8002F013A43E800210029F8D1BFF3B1
:103A80005B8F95B1204624F0E8FF25B9454B1B68B4
:103A90000BB1FFF77DFE414824F0DFFE051E18BF85
:103AA0000125284605B0BDE8F08F3F4B1B78CBB908
:103AB000237ADA0716D424F0E3FF8046204624F068
:103AC000AAFF01464046FFF705FE384F384BDFF8A6
:103AD00000B1DB1BDB080393364BDB1B06464FEACA
:103AE000D30A46B9344E354FDFF8E890BF1B3F117B
:103AF0004FF000084DE0B6FA86F1C1F11F094946C2
:103B0000204624F08BFF2E4B9842014602D32D4BCA
:103B100098421ED30846FFF781FF0246C8B92A4BD8
:103B2000994216D0638903989909B0EB931FDBF88B
:103B3000003088BF57F831205B070AD04FEA8A135C
:103B400043F00103ADF8003020484346494624F0D5
:103B5000D8FE012101FA09F126EA0106C1E77368DE
:103B60005A799AB160891B79A17A800903EB4302E3
:103B700059F82030D34001F0070103F007039942C0
:103B800004D8336821461B683046984708F101087D
:103B90001036B845E3DB75E71D8E0020801B002042
:103BA000741B0020781B00201E8E00208C2F030029
:103BB0001C310300AC3003001C3103003C31030016
:103BC000C02C030040D103008D580300A758030008
:103BD000640C0020D40B0020294B73B51B68418175
:103BE00004469847274DE060BFF35B8F55E8003FE0
:103BF000013345E80032002AF8D1BFF35B8F4FF064
:103C00002003EFF3118683F31188BFF36F8F1E48F3
:103C1000214624F018FE86F31188BFF36F8F1B4BEB
:103C20001B7883B14FF02003EFF3118483F31188E5
:103C3000BFF36F8F0020FFF7FFFE84F31188BFF3FF
:103C40006F8F02B070BD124A2B681268002AF8D03C
:103C5000012B0AD100220023CDE900230D484FF4A7
:103C60000042002323F094F9EBE70A2BE9D109483D
:103C70002EF095FC084802B0BDE8704022F084BDEB
:103C80005C020020741B0020801B00201E8E002080
:103C9000A41B0020780F0020E80D002010B5FFF7CE
:103CA00045FE22F06BFD0C4B186030B10B4B1B68CE
:103CB000092B02DD0A4822F067FD094C0020FFF7BE
:103CC000BBFE0028FAD14FF0FF324FF0FF33204601
:103CD00022F080FDF2E700BFA41B0020741B00202F
:103CE000E80D0020F8B50E4F3D7875B90D4C0E4E1D
:103CF000FFF71CFE361B3611B54207DB0020FFF72D
:103D00009BFE0028FAD101233B70F8BD63685B7904
:103D10001BB1236820461B69984701351034EBE737
:103D20001E8E00201C3103003C31030007B504380F
:103D30000190BFF35B8F50E8003F5A1E40E800211E
:103D40000029F8D1BFF35B8F012B03D1034801A9F0
:103D500021F0A4FF03B05DF804FB00BF881B002026
:103D60002023024902481A462EF0F7B890D40020CA
:103D7000A81B002037B50023094D01930120FFF750
:103D80005BFE0446FFF72AFD0022002301A9284616
:103D900021F052FF08B1002CF0D1019803B030BDE2
:103DA000A81B002007B50023019307480022002329
:103DB00001A921F041FF10B1FFF7DCFF019001984C
:103DC00003B05DF804FB00BFA81B0020F0B5037A28
:103DD000457A85B02D090190D8071CD4DDB10024A7
:103DE00026460198314624F019FE0746FFF716FED5
:103DF00070B134B9019B29461869FFF76BFC044682
:103E000048B124FA06F3D90702D53846FFF78EFFEA
:103E10000136AE42E5D3019B1A7A920704D55B695D
:103E2000084C0393039B2BB9064801A921F036FFE8
:103E300005B0F0BD1D6803A9204621F02FFF0395B2
:103E4000F0E700BFA81B00200EB403B503AB01468A
:103E500053F8042B04480193FEF772FD02B05DF89D
:103E600004EB03B0704700BF298E02002DE9F04F2C
:103E700085B011F0020490469DF8387006461A4647
:103E800001F0010901F0080507D011F0440F37D106
:103E90003249FFF7D9FF01460C46B9F1000F0AD0AD
:103EA0002F4B304953F827202F4B3046002A08BFAC
:103EB0001A46FFF7C9FF3DB12C4B2D4953F8272077
:103EC0003046FFF7C1FF0546B8F1000F43D001238C
:103ED00003FA07F7274B17F0100F274F18BF1F469D
:103EE000BDF840109DF83C00FFF788FC39460246BB
:103EF0003046FFF7A9FF2844204405B0BDE8F08F05
:103F00001E4B19680029C7D01D4B4FF4616E1B680A
:103F1000B2FBF3F34FF47A7CB3FBF1F4B4FBFEF2A3
:103F20000EFB124E01FB14340CFB04F44FF03C0A60
:103F3000B4FBF1FB01FB1B440CFB04F4BEFBFAF3E6
:103F4000B4FBF1F1CDE901B10AFB13E100910D4998
:103F5000FFF77AFF9FE7084FC2E700BFF85803005A
:103F600044340300DB5E0300EA58030058340300C6
:103F70001D590300F4580300EF580300C41B002030
:103F8000C81B00200159030038B50C46E10705465F
:103F900003D5084A0849FFF757FFE20608D4A306ED
:103FA00028464CBF05490649BDE83840FFF74CBFDD
:103FB00038BD00BFEA580300DB5E0300E45D030088
:103FC0009D5903002DE9F0471D46089B1746DA0668
:103FD00004460E4605D499064CBF2B492B49FFF7E2
:103FE00033FFDFF8B0904FF00008A8452DDBDFF875
:103FF000A880DFF8A890DFF89CA00025BD4232D24F
:10400000725D49462046FFF71FFF0135102D23D171
:104010001F49DFF88080DFF88890DFF888A020460D
:10402000FFF712FF0025AF4229D9725D12F809305F
:1040300013F0970F08BF2E2251462046FFF704FFCA
:104040000135102D14D1BDE8F08749462046FFF711
:10405000FBFE08F10108C8E76A07CFD151462046A8
:10406000FFF7F2FECAE741462046FFF7EDFECCE738
:104070006B07D8D141462046FFF7E6FED3E741461D
:104080002046FFF7E1FEDBE7E45D03009D590300F6
:104090002D5903002B59030029590300235903000C
:1040A0000CD00300796203002DE9F0478B7A13F0FE
:1040B000070817468AB00A7A05460E4620D0498975
:1040C000C3F3C2038909D243CDE900830291F368A7
:1040D00002F001023946FFF7C9FE8146347AE44313
:1040E00014F001040ED02946304624F033FDB8F117
:1040F000000F2BD0424639462846FFF745FF25E002
:10410000C146EBE7B8F1000F26D12746EB680693CE
:1041100006AA3B46A968304624F008FD069A6B685B
:104120001A603AB1AB68134413F8014CA4F10A03C6
:104130005C425C41284624F06AFE069B1F44002B2B
:10414000E4D11CB113492846FFF77EFE284624F02F
:104150005EFE0AB0BDE8F087304624F091FC0E49BF
:1041600002462846FFF770FE4FF0100A05AA2346C4
:1041700006A93046CDF814A024F0D8FC059A002AF0
:10418000B8D04B46009706A92846FFF71BFF059BB2
:104190001C44EBE72F590300DB5E030073B542F2CA
:1041A0000F738B4228BF0B4605680F4A0446052152
:1041B000684623F073FE63680C495B680646042278
:1041C000284624F0BAFC63683246694628465B6894
:1041D00024F0B3FC636806495B681722284624F084
:1041E000ACFC02B070BD00BF4C86030069590300EF
:1041F00051590300084A10B50123084C13600021EF
:10420000A04204D801B11360054B186010BD4008EE
:104210005B000121F4E700BFC81B002040420F00F3
:10422000C41B002000230428CB604B6098BF044BC4
:10423000044A98BF53F820308A600B60704700BF73
:10424000AC340300883403000023084A0B60CB60C1
:104250004B608A60064B074AD21AB0EB221F3EBF62
:1042600003EB00139B680B60704700BFEC35030045
:104270001C3103003C3103002DE9F347114C124D72
:10428000DFF84880DFF84890DFF848A02D1B07468C
:104290002D110026AE4203DB002002B0BDE8F087FE
:1042A000626853791279002B14BF43464B46CDE91F
:1042B00000320021A3685246384624F0F6FE01364B
:1042C0001034E7E71C3103003C3103006E59030052
:1042D000765903007F5903002DE9F74F214B224DFA
:1042E000ED1A4B685B7906460F46ED081BB91F4A6D
:1042F000042124F0DAFE1E4B1E4ADFF880A0DFF80E
:1043000080B00021304624F0D0FE1B4A0021304608
:1043100024F0CBFE0024AC4203D1002003B0BDE862
:10432000F08F2246012300213846FFF729FB0023A6
:104330002246194680463846FFF722FB2146814631
:104340000020FFF75BFA5AF8292001925AF828203A
:10435000009203465A460021304624F0A6FE01345E
:10436000D9E700BF8C2F03001C310300A0590300C4
:10437000B2590300BE590300DC590300983403000E
:10438000195A030010B50023054ACB600C464B6058
:104390008A6001461846FFF731FA206010BD00BF61
:1043A000883403002DE9F74F52F804BC184C194E1D
:1043B00000930746584691468A46FCF735FC361B63
:1043C000024636114FF00008B04508DB124A5B4642
:1043D0000221384624F069FE6FF0070513E0A1685A
:1043E000019258462EF0E7FA1034054618B1019AAA
:1043F00008F10108E8E70649009C4B46524601EBEC
:1044000008113846A047284603B0BDE8F08F00BF2A
:104410001C3103003C3103002D5A030008B5024B48
:10442000FFF7C0FF002008BDD9420000014BFFF795
:10443000B9BF00BF5F8E0200014BFFF7B3BF00BFE3
:10444000678E0200014BFFF7ADBF00BF494500007A
:10445000014BFFF7A7BF00BFE38E020010B5C36991
:10446000DB681C792CB9044A022124F01EFE204688
:1044700010BD0120FCE700BF425A03002DE9F04FB8
:104480002B4E1F462B4BF61A151E85B04FEAD6064B
:1044900014BF2B46334602934B685B7980468946AE
:1044A0001BB9254A042124F000FEDFF898A000245F
:1044B000029B9C4202DB05B0BDE8F08FB5B357F814
:1044C00024B000239E4207D157F824301B4A022112
:1044D000404624F0EAFD22E0194600200393FFF74E
:1044E0008DF9402259462EF066FA039BC8B91A4648
:1044F00000210E9B4846FFF78FF90E9B83428346AF
:104500000DD085B921462846FFF778F903465AF8B9
:104510002B20009204210A4A404624F0C6FD0134B3
:10452000C6E70133CEE757F82430F0E72246DFE74D
:104530001C3103008C2F0300665A0300915A0300BC
:104540007B5A0300983403002DE9F74FD3F804B0E9
:10455000DFF850A00646884691461D4600275AF8C7
:10456000041B042258462EF026FA044670B1013787
:10457000052FF4D16B680A4A0221304624F095FDDC
:104580006FF00704204603B0BDE8F08F009705F1F7
:104590000803A9F1020241463046FFF76FFFF1E739
:1045A000AB5A0300983403001FB507240294044C4F
:1045B0000194BDF81840009428F0B2FA04B010BD80
:1045C000340B002010B5084C86B024788DF81740C5
:1045D000012402940DF117040194BDF820400094C9
:1045E00028F09EFA06B010BD3B0B00200B4B1B6859
:1045F00003F00703022B0FD9094B0A4A0A48D21AC3
:10460000D2080A4B9201012914BF0146194642F013
:104610000302074824F048B9704700BFD40B0020BC
:104620008C2F03008C2F0300765903006E59030072
:10463000745C0300014B1878704700BF3B0B0020EF
:10464000024B01221A700020704700BF218E00200B
:104650001FB501240294044C0194BDF81840009445
:1046600028F05EFA04B010BD218E00200B4B1B68B1
:1046700003F00703022B0FD9094B0A4A0A48D21A42
:10468000D2080A4B9201012914BF0146194642F093
:104690000302074824F008B9704700BF600C0020EF
:1046A0008C2F0300A4300300765903006E590300D9
:1046B0008D5C030010B50D4C86B006236070182287
:1046C0000021684623702EF050F9094B6946CDE968
:1046D000013400200223ADF80C300BF06BF910F11F
:1046E000800F08BF002006B010BD00BF1F8E002045
:1046F000EC36030013B5044622F02EFAC0F307236C
:104700000193C0F307430093044A030E002120469F
:1047100024F0CBFC002002B010BD00BFA65C03005B
:104720002DE9784804462DF003FF4FF47A76A0FB7C
:1047300006BC06FB01CC00254FEADB3242EA4C43C3
:104740002046034A294624F0B0FC2846BDE8788874
:10475000BF5C030010B5044603F02EFB084A034675
:104760000021204624F0A1FC064A2046002124F026
:104770009CFC0548214622F06FF8002010BD00BFC8
:10478000CE5C0300ED5C0300E947000030B5014654
:1047900087B00446114822F05FF8114A002312F84E
:1047A000011BAA2903D10133B3F5006FF7D1C3F57B
:1047B000006164224A43D20A002505924FF4006248
:1047C000CDE90312CDE901232046054B054A0095AA
:1047D000294624F06AFC284607B030BDC5480000D1
:1047E000F0C30020F75C0300F0B587B0D0F8A470E8
:1047F00004460D462DF0D0FD064621F0BFFF224BAA
:10480000224A002E08BF1E46214BCDE900468442B5
:1048100018BF1346002128461E4A24F046FCD4E95E
:104820000A23CDE9022394F90E301B4A009300219C
:10483000237B284624F039FC204622F055F8174AFD
:1048400003460021284624F030FC05A920462DF01F
:10485000A5FD014638B10346114A0021284624F03F
:1048600024FC07B0F0BD059A6423B81ACDE90020F6
:1048700043430C4AB3FBF7F32846CDE902733B46AA
:1048800024F013FCEDE700BF3D5D03002B5903004E
:1048900066720300405D03004C5D0300765D03001B
:1048A000825D0300AF5D030010B5044603F09EFA7D
:1048B000034A03460021204624F0F7FB002010BDE8
:1048C000E65D0300F0B5D0F8A47089B005460E4649
:1048D00007A92DF063FD044638B10346104A0021B4
:1048E000304624F0E2FB09B0F0BD28462DF054FD1F
:1048F000079ADFF834C0B91A002808BF604664235D
:10490000CDE90221CDE900074B43064AB3FBF7F39B
:104910002146CDE9047330462B4624F0C6FBE2E77E
:10492000825D0300FC5D03003D5D03002DE9F04165
:104930000F4A104C104E114FDFF8448000210546FD
:1049400024F0B3FBB44202D10020BDE8F081204640
:1049500020F06EFF50B13A4600212846236824F02B
:10496000A4FB42460021284624F09FFB1034E9E7CF
:10497000CF5E0300400B0020D00B0020D95E030067
:10498000E45D03002DE9F8430E4BDFF83C9053F84B
:1049900021400131064653F821800027A04502D866
:1049A0003846BDE8F883204620F042FF054630B186
:1049B00023684A460021304624F077FB2F46103406
:1049C000ECE700BF20380300DE5E030010B51F4A8D
:1049D0000446002124F069FB02212046FFF7D2FFA4
:1049E000014618B91A4A204624F05FFB194A0021F3
:1049F000204624F05AFB03212046FFF7C3FF01465F
:104A000018B9134A204624F050FB134A00212046CF
:104A100024F04BFB00212046FFF7B4FF014618B9F4
:104A20000B4A204624F041FB0C4A0021204624F08A
:104A30003CFB01212046FFF7A5FF014618B9044AB7
:104A4000204624F032FB002010BD00BFE45E0300CE
:104A5000F25E0300FA5E0300085F0300175F0300C5
:104A600010B581680446083101F010FCA168034AC2
:104A700020460831BDE8104001F090BB775F03008D
:104A800038B58368002583F838509D865D86836835
:104A9000D3F85832DB0304460BD5084B084A0421EF
:104AA00024F002FDA368D3F8582265F31042C3F83E
:104AB00058222046BDE8384001F0D4B9855F030094
:104AC000DB5E030037B58368D3F8582252060446EC
:104AD0000D4608D5D3F85822C0686FF38612C3F884
:104AE000582224F028FEE368DB6863B99DB3A06810
:104AF000383024F05FFAA36878B303F1380103F586
:104B00009C702DF050FFA268E0680DF1060338326A
:104B1000294624F013FE58B9A06800F59C7138307E
:104B20002DF041FFA068383024F044FAADF80600BB
:104B3000204624F01DFC0A4A0A49606924F040FA24
:104B4000204601F08DF8A368BDF806209A865A86A3
:104B5000204601F00FF803B030BD83F83801D2E7EA
:104B600068620300DB5E03002DE9F04F00239FB075
:104B7000CDE90533836804463833039324F0FEFB04
:104B8000204624F0BDFB18B9A249606924F018FA48
:104B9000A0681422002108302DF0E7FE204600F026
:104BA0008BFFA168E0684A8E3831002624F0FDFDB5
:104BB000204624F0C7FF4FF0FF38B146B24611AF90
:104BC00002963546B346DDE90532012A00F0DF8062
:104BD0000B2B40F2B7800699022940F0B7808E4B2C
:104BE0008E4A15E0039A0223394606A800F03CFEDF
:104BF0007A680392069A03462AB96FF00705284699
:104C00001FB0BDE8F08F012A06D128B1844A0221E5
:104C1000204624F049FCF0E7059B002B30D0814969
:104C20003868FBF7F7FF30B9EEB97F4A022120461A
:104C300024F03AFCE1E77D493868FBF7EBFF0028F8
:104C4000F2D0059BE3B13A682946204601F082FC88
:104C5000022800F09C80032812D0059B01330593A5
:104C600001230293AFE7A5680D9608350CAE0FCE71
:104C70000FC533682B602046FFF7F2FE0125BEE723
:104C8000BAF1000F05D1396807AA584624F09FFAF7
:104C90000546043708F1FF38002D41D0029B4BB187
:104CA000EB683BB1204624F069FB204600F062FF30
:104CB0005F4ABBE7EB68CBB1A368DDF81490AE4662
:104CC00003F1080CBEE80F00ACE80F00DEF800307E
:104CD000CCF80030AB684BB96B7CFE2B01BF95F86C
:104CE000108009F1010308F1FF380593D5F804C0DD
:104CF000BCF1000F08D0AE46BEE80F000CAE0FC6E8
:104D0000DEF8003033606646AB46B8F1000F03D1E1
:104D1000069B022B7FF457AF059B0133059352E7A7
:104D2000059B63B9A368DB690BB1DB683BB9414BF9
:104D30000093414A119B0221204624F0B5FB4FF01D
:104D4000010AE2E7B8F1000F7FF44CAF029B4BB1D0
:104D5000204624F01BFFA2680C23383211A905A8B5
:104D600000F082FD059DA0681EAB03EB85030022C9
:104D700043F8342C436973B9002E3FF43EAFC36847
:104D8000B3423FF478AF0D9600F108056EE7059B3E
:104D90000B2BDBD91FE7037EA5EB0905B3B1427EE0
:104DA0004FF6FF71FF2A08BF0A469D4202D3134403
:104DB0009D420BD98368214A0221204624F074FBCE
:104DC0002046FFF74DFE6FF0150518E7D0F8583272
:104DD00043F08003C0F8583200F53B7024F0E8F847
:104DE000A36811AA29465B6902EB8902204698470D
:104DF0000546A0684FF0FF324FF0FF3300F53B70DF
:104E000024F0F5F8A368D3F858226FF3C712C3F85B
:104E10005822F4E6E45D030048600300E05E03000E
:104E2000C95F0300DD5F0300E75F0300E05F03008D
:104E30000560030034600300286303006C60030016
:104E40002DE9F04F8368BFF35B8FABB0044603F5E9
:104E5000167353E8002F42F0080243E800210029AE
:104E6000F7D1BFF35B8FA3681B79022B40F0378328
:104E700000230B936068036801221D690DF12B016B
:104E80000BABA8470B9B002B00F029839DF92B202F
:104E90009DF82B30002AEDDBA0684179012900F054
:104EA0008C82022900F09F82002940F016830D2B8E
:104EB000D0F858221BD00A2B19D061F30F22C0F86A
:104EC0005822092B56D03BD8002BD3D0082B00F00A
:104ED000D981864A9A5C12F0970FD0F8582200F0D8
:104EE000E08142F04002C0F858221946F5E012F481
:104EF0007F4F05D0D0F85822C2F307229342E0D169
:104F0000D0F8582263F30F22C0F85822428E9AB983
:104F1000D0F8583262F38613C0F85832E06824F0B3
:104F20000AFC7349606924F04BF8A36802221A71E5
:104F30002046FFF7A5FD9DE72046FFF715FEF4E7A5
:104F40001B2B14D07F2BC4D1D0F858325F0791D5DA
:104F5000D0F8583243F04003C0F85832D0F85832F5
:104F60009E0600F19A81204624F0DFFA82E70123B1
:104F700043717FE7D0F858325D077FF57BAFD0F8FB
:104F8000583243F04003C0F85832438EFF2B3FF4B1
:104F900071AF828E00F1380100F59C702DF0AAFCF3
:104FA000A268938E1344002583F838511DA90C2361
:104FB00002F59C720DA800F057FC0D990C293FF6E4
:104FC00059AF2AAB03EB810343F8345C51B1A368BA
:104FD0009A8E134493F83720444BD35C180758D467
:104FE000012955D100250C950C9B2AAA02EB8303BD
:104FF000002653F834AC504623F0DCFFB04681461F
:105000000496374618AA3946284600F0F5FC834630
:1050100000284AD1012E6DD10C9B2AAA02EB8303F2
:1050200053F8340C23F0C6FFA26806460832414606
:10503000284600F0E1FC0546006823F0BBFF8642ED
:1050400006D02968821B92B23144204624F06BFAC4
:10505000A3689A8E1A4492F83810244A8A5C12F097
:1050600008023ED1D3F85812C90735D5D3F85812E3
:1050700062F30001C3F858122046202100F0C0FE60
:10508000A268D2F8583243F00103C2F85832F1E670
:10509000013900200EAB009301900CAB1DAA24F047
:1050A000ADF8054600289FD1E4E6DBF800004A464B
:1050B00051462DF080FC68B9DBF80000FBF7B4FD29
:1050C000049B834238BF03469BB2002E08BFB846FC
:1050D00004930136013795E72021204600F090FE29
:1050E000C8E60121204624F01FF9C3E60CD00300D6
:1050F000E45D03007FF6BEAE0C9B2AAA02EB83039D
:1051000053F834AC504623F055FFA3680690A3F83B
:1051100030B0DFF878B30596CDF80C80A26803991B
:105120000832284600F068FC039B013307460393CE
:10513000BAF1000F53D13B68002B5AD1A2681386F5
:10514000059B013B0593E9D1CA49606923F038FF0B
:10515000204600F087FE0C9B2AAA02EB830308F18D
:10516000010953F8340C23F025FF414613AA0746E2
:10517000284600F041FC8046A068D8F80010FF22C5
:1051800000F59C702DF029FCD8F800A04FF6FF78B0
:1051900018AA4946284609F1010B00F02DFC002809
:1051A00063D0A368006803F59C73002213F801CB59
:1051B000815C614505D121B101324FF6FF718A4210
:1051C000F4D10FB1BA4208DB904506F1FF36A8BF13
:1051D0009046012E1FFA88F847D0D946D8E70068D4
:1051E0000028A8D0069A51462DF0E5FB0028A2D051
:1051F00094E75846079323F0DDFE049BA168C2188C
:1052000092B258464F8D099223F0D4FE079B089026
:10521000184623F0CFFE099A0899079BA2EB0009D4
:10522000A068B0F830C07F1A97FBF2F292B2BCFBD4
:10523000F2F102FB11C20CF1010E92B21FFA89F9D0
:10524000A0F830E05AB900938B4A5B46072120460C
:1052500024F02AF94946204600F07CFC70E7874A92
:105260000721204624F020F9F4E7B8F1000F3FF4BD
:1052700001AEA8EB070292B20AEB0701204624F028
:1052800052F9F7E5D0F858325B077FF5F3ADD0F867
:10529000583243F04003C0F85832204624F060F9F9
:1052A000E8E555077FF5E6AD013B162B3FF6E2AD8D
:1052B00001A252F823F000BFA154000015530000D2
:1052C0001D530000674F0000955400004353000039
:1052D000754E0000754E0000754E0000754E0000C2
:1052E0004B53000053530000754E00006F530000F5
:1052F000754E000079530000754E0000754E000099
:10530000754E0000754E00007D530000754E000084
:10531000A9530000204624F038F8ABE5204624F0DD
:105320002DF8204623F0ECFF18B95249606923F0AC
:1053300047FEA368D3F8582242F04002C3F858222F
:10534000F4E5204624F029F894E5204624F02EF8D0
:1053500090E560694A4A494923F032FE6069494A4A
:10536000464923F02DFE204600F07CFD82E5002119
:105370002046FFF7A7FB7DE50121F9E7204623F052
:10538000F7FFA3683D49002283F838209A865A86A1
:10539000A268D2F8583243F04003C2F8583260692C
:1053A000394A23F00DFE65E5204600F0ABFCA2680B
:1053B000D2F8583243F0400367E65B2B01D1022359
:1053C000D6E5D0F85822500709D5622B05D14FF009
:1053D000FF31204600F00CFC01E0662BF9D0A368F9
:1053E00000225A7146E500224271A268D2F8581292
:1053F00049077FF53FAD313B1B2B3FF63BAD01A18C
:1054000051F823F09D540000A9540000C954000035
:1054100091540000754E0000754E0000754E00005E
:10542000754E0000754E0000754E0000754E000070
:10543000754E0000754E0000754E0000754E000060
:10544000754E0000795300006F5300004353000075
:1054500015530000754E000095540000754E000075
:10546000A1540000754E0000754E0000754E0000FE
:10547000AD540000E45D030087600300DB5E0300C1
:105480006C62030070620300686203002A59030023
:1054900003235371204623F071FFEBE40323537180
:1054A000204623F065FFE5E403235371A268D2F898
:1054B0005832D2F8581203F0010383F0010363F36A
:1054C0000001C2F85812D5E403235371A368D3F83E
:1054D00058325B077FF5CEAC45E5002348E5A3686D
:1054E000BFF35B8F03F5167353E8002F22F0080219
:1054F00043E800210029F7D1BFF35B8F2BB0BDE853
:10550000F08F00BF2DE9F041044688B00F464FF4FC
:105510004172002180681E462DF027FAA368226898
:10552000E0681A6024F0ACF9A06800F53B702CF03C
:1055300049FD4FF427784FF41775A06828442DF0E3
:10554000A2F9A068002243190121404410352DF032
:105550007DF9B5F5277F08F11408EED1A369002283
:105560001A60A268D2F85832106843F01003C2F8EB
:105570005832D2F8583243F00403C2F85832D2F805
:10558000583243F02003C2F858321B4B936223F089
:1055900011FDA36883F82C00A268D2F8583243F0BA
:1055A0000203C2F858326068144A036839461D681D
:1055B0002346A8470546D0B9A36801221A71D4E949
:1055C0000A0100220023CDE906230E2303930E9B3C
:1055D0000495CDE901630094094B4FF4006221F07A
:1055E0001DFAA368616AC3F8000321F06DF928462B
:1055F00008B0BDE8F08100BF18005000DB8F02004A
:105600005556000010B5044680680379012B1CD163
:105610004FF0FF324FF0FF3300F53B7023F0E7FC13
:105620000021204600F024FB0949606923F0C8FCF2
:10563000A36802221A712046FFF722FAA06800F53B
:105640003B7023F0B5FC002010BD6FF08500FBE738
:10565000E35D03002DE9F0410446406803680E460F
:105660009B6800211546984700284CD126B1E06977
:105670002A46214624F0C9F92046FFF7C3FF002837
:1056800041D1DFF89480214F214EA06800F52770AA
:105690004FF0FF324FF0FF33032121F0D5FC0546D8
:1056A000A0684FF0FF324FF0FF3300F53B7075B14B
:1056B00023F09DFC20462B46164A022123F0F4FEDF
:1056C000A068BDE8F04100F53B7023F071BC23F009
:1056D0008EFC606803685B6903B1984742462046C8
:1056E000022123F035FC3A462046002123F030FC0D
:1056F00020463246012123F02BFCA06800F53B70C8
:1057000023F056FCC1E7BDE8F08100BF414E000028
:10571000F38F02008D6003007B8F020010B50D4AED
:105720000446002123F0C1FC20460B4A002123F04F
:10573000BCFC2046094A002123F0B7FC2046084A59
:10574000002123F0B2FC2046064A002100F026FD8D
:10575000002010BDA4600300E2600300416103006B
:10576000956103002F6203002DE9F04716461F469E
:105770002B4ADFF8B880DFF8B890DFF8B8A00B4606
:105780000021044623F091FC0025AF4234D9735D1B
:105790004A460021204623F088FC0135102D23D1F4
:1057A000204ADFF89080DFF89090DFF890A0002189
:1057B000204623F07AFC0025AF422BD9735D13F805
:1057C000092012F0970F08BF2E23524600212046D1
:1057D00023F06BFC0135102D14D12046124ABDE890
:1057E000F047002123F061BC15F00701CDD15246EE
:1057F000204623F05AFCC8E742460021204623F009
:1058000054FCCAE715F00701D6D14246204623F0E2
:105810004CFCD1E742460021204623F046FCD9E764
:10582000456203002D5903004C620300295903000F
:10583000235903002B5903000CD0030079620300A5
:1058400010B5044613460A4601460648FDF778F8A7
:1058500023691B7923B12046BDE8104023F032BCF8
:1058600010BD00BFDD9002002DE9F74F1F46DFF8A5
:105870008481002305460E46144603609A469946E5
:105880002378002B00F0B18013F8083013F00803E0
:1058900002D004F8019BF3E729684A1CBA422A6047
:1058A00046F8214000F0A1809A4694F800B0BBF180
:1058B000000FE5D0BAF1000F40F08380BBF1270F55
:1058C00006D0BBF15C0F00F08480BBF1220F71D1D8
:1058D000204623F01FFC611C024620462DF02BF8C9
:1058E000DA46E2E7204623F015FC611C024620461A
:1058F0002DF021F84FF0000AD7E7302926D14FF0DC
:10590000000B0223E15CA1F130005FFA80FCBCF1E6
:10591000070FDAB218D8013340EACB0B052B5FFA38
:105920008BFBEFD11A46511E214420460192009173
:1059300023F0F0FB019A0230821A204600992CF0E5
:10594000FAFF04F801BBB0E7022AECD1782936D17E
:105950004FF0000B0223E25CA2F130015FFA81FC00
:10596000BCF1090FD8B213D841EA0B12032B5FFA2E
:1059700082FB0BD10423591E214420460193009140
:1059800023F0C8FB019B821CD21AD6E70323E2E76F
:10599000A2F16101052903D8573A42EA0B12E5E763
:1059A000A2F14101052901D8373AF6E7022806D0CD
:1059B0000323E0E718F80B301B073FF561AF013414
:1059C00073E7D3458ED0BBF15C0FF8D161788A457F
:1059D00093D1204623F09EFB04F1010B0246594669
:1059E00020462CF0A8FF5C465FE7504603B0BDE8B8
:1059F000F08F00BF0CD0030010B50B46144650B911
:105A00000E490F4A521AB3EBD20F0FD201EBC3016A
:105A10004C68204610BD816841B14A68097839B1A7
:105A20001846214690472368002BF2D10024F0E766
:105A300014204343D418D358F6E700BF9C31030029
:105A4000F43103002DE9F843064623F063FB0546D5
:105A500056BBBDE8F8834CB16A1C9BB20130D21A28
:105A600030442CF068FF2D1BADB24C460137BBB261
:105A70006A1E93421846ECDA325C12F808201207CC
:105A8000F4D501339BB29AB29542EFD9F25C18F883
:105A9000022012F0080906EB030103F1010CDAD031
:105AA0000134A4B26346EEE70027DFF808803C46E5
:105AB000DDE700BF0CD00300F8B5846894F83830F7
:105AC000054653B9AB685A8E9A86F8BD013A92B230
:105AD000628632B984F83820F4E7114904F13800BD
