:1000000080A00020A94600007B430200D9460000E2
:10001000D9460000D9460000D94600000000000083
:100020000000000000000000000000003944000053
:10003000D946000000000000F1430000AF3F02007D
:100040006946000021580100694600006946000029
:1000500069460000694600006946000069460000E4
:1000600069460000694600006946000069460000D4
:1000700069460000694600006946000069460000C4
:1000800069460000694600006946000069460000B4
:1000900069460000694600006946000069460000A4
:1000A0006946000069460000694600006946000094
:1000B0006946000069460000694600006946000084
:1000C0006946000069460000694600006946000074
:0C00D00069460000694600006946000017
:0400DC00FFFFFFFF24
:1000E00001F0FF01102A2BDB10F0070F08D010F8E9
:1000F000013B013A8B422DD010F0070F42B3F6D1ED
:10010000F0B441EA012141EA014122F007047FF005
:1001100000070023F0E80256083C85EA010586EA5C
:10012000010685FA47F5A3FA87F586FA47F6A5FA98
:1001300087F68EB9EED1F0BC01F0FF0102F00702A4
:1001400032B110F8013B013A83EA010313B1F8D14F
:100150000020704701387047002D06BF3546033830
:10016000073815F0010F07D1013015F4807F02BF69
:10017000013015F4C03F0130F0BC0138704700BFBA
:1001800053B94AB9002908BF00281CBF4FF0FF31FE
:100190004FF0FF3000F06EB9ADF1080C6DE904CE00
:1001A00000F006F8DDF804E0DDE9022304B0704752
:1001B0002DE9F047089D0E4604468C46002B40F082
:1001C00081808A42174645D9B2FA82F24AB1C2F119
:1001D000200106FA02F320FA01F1974041EA030CEC
:1001E00094404FEA174E230CBCFBFEF6B9B20EFB4F
:1001F00016CC43EA0C4306FB01F0984209D9FB18E0
:1002000006F1FF3C80F01581984240F21281023ED7
:100210003B441B1AA4B2B3FBFEF00EFB103344EABE
:10022000034400FB01F1A14209D93C1900F1FF335D
:1002300080F00181A14240F2FE8002383C44641A01
:1002400040EA064000211DB1D4400023C5E9004327
:10025000BDE8F08702B9FFDEB2FA82F2002A4FD180
:10026000CB1B4FEA174E1FFA87F80121B3FBFEFCA8
:10027000260C0EFB1C3346EA034608FB0CF3B34284
:1002800007D9BE190CF1FF3002D2B34200F2EB8065
:100290008446F61AA3B2B6FBFEF00EFB106643EAE4
:1002A000064408FB00F8A04507D93C1900F1FF33CC
:1002B00002D2A04500F2D2801846A4EB080440EA1E
:1002C0000C40C0E78B4208D9002D00F0AF80002120
:1002D000C5E900060846BDE8F087B3FA83F10029B6
:1002E00049D1B34202D3824200F2BB80841A66EB4A
:1002F000030301209C46002DAAD0C5E9004CA7E7C6
:10030000C2F120039740D8409140DE404FEA174E9B
:1003100008434FEA104CB6FBFEF11FFA87F80EFBBC
:1003200011664CEA064601FB08F3B34204FA02F4F4
:1003300009D9BE1901F1FF3C80F08E80B34240F232
:100340008B8002393E44F31A86B2B3FBFEF00EFBFB
:10035000103346EA034600FB08F3B34207D9BE193F
:1003600000F1FF3C74D2B34272D902383E44F31A12
:1003700040EA01417AE7C1F1200703FA01F422FAC9
:1003800007F31C4320FA07F906FA01F34FEA144C6D
:10039000FE4049EA03094FEA1943B6FBFCFE1FFA87
:1003A00084F80CFB1E6643EA06460EFB08FAB245CB
:1003B00002FA01F200FA01F308D9A6190EF1FF3092
:1003C00048D2B24546D9AEF1020E2644A6EB0A0643
:1003D0001FFA89F9B6FBFCF00CFB106649EA0646E9
:1003E00000FB08F8B04507D9A61900F1FF3C2DD253
:1003F000B0452BD90238264440EA0E40A6EB080649
:10040000A0FB02894E45C446CE4618D315D075B31D
:10041000B3EB0C0266EB0E0606FA07F722FA01F3BD
:10042000CE401F43C5E90076002111E72946284642
:100430000EE76646EDE6184601E74345E7D2B8EB1E
:10044000020C69EB04040138A646E0E76046D3E7F6
:1004500060468CE78646B9E7614674E702383C445B
:100460002BE7084647E7ACF1020C3E4411E729466A
:10047000EEE600BF704700BF10F8012B11F8013BFA
:10048000012A28BF9A42F7D0D01A7047034613F8C2
:10049000012B002AFBD1181A013870470000000018
:1004A0002DE9F041D0E90BC7D0F828800CEB070408
:1004B0003034A0450E46154618D81B4F18A3D3E973
:1004C0000023ACFB0701FFF75BFEA4EB080420F060
:1004D0007F40306012A3D3E90023A4FB0701FFF79C
:1004E0004FFE20F07F402860BDE8F0810E4C0CA349
:1004F000D3E90023A8FB0401FFF742FE20F07F436D
:1005000007F130003360A0FB040105A3D3E9002309
:10051000FFF736FE20F07F402860BDE8F08100BF85
:100520008D49FD1A0700000000CA9A3B0000000038
:100530002DE9F04FAC4C94F84E608FB006F00106F8
:10054000002800F05B81B6BB94F8392094F82D3078
:1005500094F8290004EB820204EB830300F003000B
:10056000FF21D2F83C80D3F8309084F82A1014F0A0
:1005700007FC94F84E00420700F11681B9F1000F14
:1005800011D0994849460FF005FD99F800305B06F7
:1005900005D506210AF0FEFF002800F040829248AF
:1005A00041460FF0F7FC99F8003013F00E0F40F0C1
:1005B000D180636A23B10C2630460FB0BDE8F08FBE
:1005C0000EF084FE8246002800F046820EF08AFE7D
:1005D0008346002800F0598210F0EAF90546002809
:1005E00000F050824FF6FF73806FAB8505F11C035E
:1005F0000B93002800F02C8205F16C0205F16801D4
:100600000AF0D4FFB5F86420784895F83D1095F8C5
:10061000327195F840C0764B2B66024042F48872E6
:1006200095F87E00C5F83CA142F0010201F03F01BF
:1006300027F0030E61F07F010027A5F864204FF03A
:100640001B1220F01F0085F83D1067F3000C0621F7
:10065000EA65684A85F832E185F840C085F87E0091
:10066000C5F82821C5E9137785F83F706F866F6359
:100670006F65A5F8C870A5F8CC70C5F80C71A5F821
:100680001071A5F82471C5F82C71A5F8307185F8A2
:100690003B71AF67A5F87C70A5F85C71A5F8C41034
:1006A00095F85E1195F87EC195F8A601B5F8DC20A5
:1006B000A5F87C7167F3041C21F0070102F0FC022D
:1006C00067F3C30085F87EC185F85E11A5F8DC20CC
:1006D000C5F8E470A5F8E87085F8EA70A5F8A4718B
:1006E000A5F8B07185F8A60110F092FCA5F8D60027
:1006F00010F094FCD5F8B4113F4AA5F8D8000A4090
:10070000C5F8B42110F090FC95F8B82160F302020E
:1007100085F8B82110F08EFCC4E911AB0B9B636225
:1007200095F8B82195F82030C5F8CC7160F3C50272
:1007300067F30003C5E97177C5E96F77C5E9057708
:10074000ED6185F8B82185F8203015F089FC002886
:1007500040F0678194F828300121C3F342030DA8CB
:100760008DF834300BF09AF890B399F8003003F01C
:100770000F03022B00F1FF3200F09E80012B00F0EE
:10078000548198F801001030C000002B40F03F81E8
:1007900099F801301033DB0003F54D71084403F57F
:1007A0009A7303FB020092E0C0F3C000324604F1EA
:1007B0004F0114F055FCFF2884F82A003FF4DEAE08
:1007C000304614F0F7FAB9F1000F7FF4DAAEEAE63A
:1007D000636A002B3FF4EFAE0FF078F90C26304639
:1007E0000FB0BDE8F08F00BFD432002080F8FFFFCB
:1007F000480148017F4101000000FFF6002E3FF450
:10080000DAAE20460EF018FE84420CD0A84AA94960
:10081000A9484FF4F36322F0F6FA404080F31188C0
:100820004FF0030002DF94F82830D9070DAD0ED544
:1008300002220D920321A14B0095012200200CF011
:1008400015FA29460EF0D0FD002840F0238102223F
:1008500003219A4B009500200D920CF007FA2946CF
:100860000EF0C2FD002840F0F98095480EF020FE01
:10087000002840F0DF8093480EF0EAFD84420CD05F
:100880008B4A8C498C4840F2BA7322F0BCFA404043
:1008900080F311884FF0030002DF636A0BB10FF0A1
:1008A00015F994F84E3000266FF30003304684F8B3
:1008B0004E300FB0BDE8F08F99F801301033DB00F7
:1008C00000FB03F000F5AA70642303FB020094F818
:1008D00020707D4AE4610025312365F30007A0FB09
:1008E0000201236084F820706FA3D3E90023C4E9D8
:1008F0000555C4E90155FFF743FCB4F84C80E060AE
:100900000CF0FAF90746B8F1000F08D199F8005039
:1009100005F00F05A5F10105B5FA85F56D0994F807
:100920002820E36865F3000212F0010584F828200E
:100930003DD0DFF8889165490493002002250DF130
:10094000300801930591CDE907980321CDE9020014
:1009500006942A4600903B460C950CF0FFF8414661
:100960000EF042FD00287FF433AF594905914AF259
:10097000D8320092CDE90798CDE90300CDE9010016
:1009800006943B46012203210C950CF0E7F8414602
:100990000EF02AFD00287FF41BAF94F84E3030464D
:1009A00043F0010384F84E300FB0BDE8F08F4948A2
:1009B000494ADFF808E1DFF814C10694A8FB0001FA
:1009C0004FF0910909FB081103F24718C2F80080A3
:1009D0004FF00209049309920DF1300832A3D3E9D4
:1009E00000234FF6FF7ACDE907E80295CDF8309065
:1009F000CDF814C0CDF80CA0FFF7C2FB4A46CDE9F4
:100A000000503B46284603210CF052F8BFE7062B66
:100A10003FF4BEAE4FF4DA734FF41B70C1E61226FA
:100A2000CAE50FF053F80326C6E54FF4F2734FF40E
:100A30007F70B6E61E4A29491F4840F2B77322F07C
:100A4000E2F9404080F311884FF0030002DF12E723
:100A500005F17000A867CFE50726ADE519480EF04F
:100A6000F7FC84423FF4A7AD40F2B173104A11493C
:100A7000114822F0C8F9404080F311884FF003007C
:100A800002DF98E558460EF033FC50460EF024FC89
:100A9000072691E50B480EF0DBFC84423FF48BAD5A
:100AA00040F2A373E2E700BF8D49FD1A0700000082
:100AB000E0C90200D0CA020030C60200F9E200001C
:100AC000F0320020D432002000CA9A3BA5F7000083
:100AD00045FA0000002AE7842C330020BCC802003D
:100AE0002DE9F04FC84D2B688BB004460F46914658
:100AF000002B00F01B82E68E628E94F812311644B1
:100B00003E4413F00703B6B240F0A781B4F8EC807E
:100B1000A6EB08021FFA82FA120400F1028294F98D
:100B20003D20002AC0F23D8194F8E83084F8E93095
:100B300094F87C2194F87D3194F8101184F8111107
:100B4000934206D094F87E3103F00703052B00F0A2
:100B500046822B68A34204BF00232B60D4F80C51BB
:100B6000002D00F06B812868002800F06781B4F840
:100B70001431B4F82EC04268C4F80C216345B4F8AF
:100B80001621B4F8181100F02081B4F82CC0A5F893
:100B900006C04FF0150E4FF0000CEB832A846984D9
:100BA00085F804E085F81CC029460EF0A7FB0EF07E
:100BB000AFFB2368002BC0F2FC80E08DB4F8145129
:100BC00010FB0AF080B2B0FBF5F315FB03F292B212
:100BD00090421FFA83FBC0F0D38005FB130340F261
:100BE000E2428A489BB202FB03F3A3FB000184A309
:100BF000D3E90023FFF7C4FAA9EB0009618E94F949
:100C00003D30A8EB06065E440F44374440F2E2480C
:100C1000002B678608FB05F5C0F28A817C4A7D4976
:100C20007D4840F6F61322F0EEF8404080F311883C
:100C30004FF0030002DF0027AA46B4F81821B4F8E9
:100C40001601764B7649208642F2107C0CFB02524C
:100C50002B442944B3FBF5F300F1060C013AB2FB37
:100C6000F5F2B1FBF5F599B2A4F8C6206145B4F8E8
:100C70001421A4F8D210A4F8CA50E28502DD091AA2
:100C8000063989B294F81231A4F8CE101B0744BF7C
:100C90000023A4F8C8300221012017F045F90022F2
:100CA0000221054601200AF0CFFC5E494FF4EA72AA
:100CB00020460AF05BFC00F103085FFA88F85A4B03
:100CC00000944246012100200BF0D0FF30F00203D7
:100CD0000CD04F4A5549504840F6252322F093F84E
:100CE000404080F311884FF0030002DF474BAAFB1E
:100CF00003AB504642A3D3E900235946FFF740FA1D
:100D00004B4AE368049320F07F46A6FB02230720AA
:100D100000FB0633BAEB02006BEB0301DFF814E1D2
:100D2000DFF814C1089406944FF47A7200234FF64A
:100D3000FE74CDF81CE0CDF814C00394FFF720FA40
:100D40004B46CDE9016000974246012100200BF09F
:100D500005FF30F002030CD02D4A34492E4840F6EE
:100D60003F2322F050F8404080F311884FF00300F9
:100D700002DF002D40F02A8128460BB0BDE8F08F3D
:100D8000121A40F2E243214803FB02F2A2FB0001E7
:100D90001BA3D3E90023FFF7F3F920F07F40814440
:100DA0002CE794F8DD20002A3FF4BEAE84F8DD3055
:100DB000BEE6D4E9010223F0004382422CBF9144F5
:100DC00081442360A9EB0309F7E6B4F830C09445E9
:100DD0007FF4DBAE40F2E24C0CFB03FB42F2107CF2
:100DE000B4F8C6E00CFB01BC0CF1FF3CBCFBFBFC07
:100DF0001FFA8CFCE6457FF4C8AE01232B71D3E6C5
:100E00008D49FD1A070000002035002000CA9A3BDA
:100E1000ECCA0200A0C6020030C602007FC3C901AE
:100E2000FF5962024C33002049030100CCCB020081
:100E30008D49FD1AF1020100D5460100784A794931
:100E4000794840F67A1321F0DEFF404080F31188A4
:100E50004FF0030002DF286889E601200EF05EFAF9
:100E60000746002800F0CD8070480AF04BFB05468D
:100E7000002800F0C6800EF06FFA3A682B79D4F89B
:100E80000C11516043F003030C22C4F80C716A7119
:100E90002B71238ED4F81C21654F94F81211002079
:100EA0001E44E871A7FB0232C2F38F2294F820316E
:100EB0002B72D4F8BC31A5F80920B4F81421A5F898
:100EC0000B200636B4F81621A5F80D20B6B2B4F8FA
:100ED0001821A5F80F2060F30201A4F8EC6084F853
:100EE0001211A5F81160002B7FD094F85E219007B5
:100EF0007BD494F8B721D10777D4D4F8C821934292
:100F000004BF1A68C4F8C821D4F8C021002A6FD1E0
:100F10001A682A601D602B68C4E970550BB9C4F8C3
:100F2000CC516FF076000BB0BDE8F08F2860E2E5A1
:100F3000E26C636C3F4F03FB1A23E36415F0E2F8A5
:100F4000064694F8DC00C0F3820015F0DDF8064494
:100F500005FB06F6384BE26C94F8201106F5742672
:100F600006F23F26A3FB0636B60C06FB0BF06B0819
:100F70000244963B9A4228BF1A4608FB01FC4FF0F8
:100F8000000EC4E91232A0FB070123A3D3E900231A
:100F9000C4F854C0C4F8E4E06664FFF7F1F8244BE9
:100FA0008446D4F81C01A3FB0030800A08FB00F043
:100FB000A0FB070118A3D3E90023A9EB0C09FFF755
:100FC000DFF8A5EB060A20F07F4736E6012210463F
:100FD00002210AF039FB00200BB0BDE8F08F00239E
:100FE00084F87D21A4F8CC30B3E5D4F8C0216AB1EF
:100FF000D4F8C4311A682A601D602B68C4F8C45143
:101000008CE76FF068000BB0BDE8F08F2B60C4E98F
:101010006F55C4F8C45181E78D49FD1A07000000DF
:10102000ECCA0200B8CB020030C60200A435002092
:101030005917B7D100CA9A3B83DE1B43000000005A
:101040002DE9F04F1C4613680D46D3F800A031F887
:101050002ECF2346174653F80C6B8A78A4F80CC0A1
:101060009A70D5F82A30A3602B46814653F83A2F60
:10107000E26104F11C001B79037193B005210AF0B1
:101080000DFC94F8213000F03F0060F305030128C7
:1010900084F821300AD995F83F3003F01F02053A51
:1010A000C3F304010B2A84F8221002D913B0BDE85F
:1010B000F08F3A6896F8DC1000209060B5F8348024
:1010C000A4F8128095F8362095F8370042EA0022FD
:1010D000A2825B0963F384016B8E0B9386F8DC10AC
:1010E00040F2E24303FB08F815F00CF8834696F84B
:1010F000DC00C0F3820015F007F8584408FB00F04C
:10110000DFF824E395F831C0A18ABD4A00F57420C8
:1011100000F23F20AEFB00304FEA580E40F2E243AF
:1011200003FB0CF3800CAEF1960EA062E363C4F8EF
:101130002CE0B5F838B0B34842F2107303FB0B83D0
:10114000424401F1060C013BB2FBF8F2B3FBF8F3A9
:10115000A6F8C63093B263454044A6F8D230B0FB3F
:10116000F8F0A6F8CA0002DD5B1A063B9BB2A6F8AF
:10117000CE302946A368C6F8E03051F81E0F2B7F09
:101180008A88ADF844204FF4807CC3F38012A5F820
:101190001CC08DF83820C3F3401210908DF83C200D
:1011A0000A929AF82A00BA7C0D910C9214F04CFA2B
:1011B000DDE90C2105F12B03002840F0EB80FF2A2C
:1011C000C5F82B00988005F1250300F0EF8010464C
:1011D00005F11F020C9313F009FDAA7F0C9BBDF8CB
:1011E00044101098C5F825000232AA77998096F825
:1011F000DC30618AA28AAA86C3F3820385F838307C
:101200006986A5F836B030460FF0DEFB294620820D
:10121000E8807D6848460EF071F8238AEB80182339
:101220002B710A9B2868002B00F0CF8094F809E00E
:10123000237A94F80BC0A17A94F8212041EA0C217A
:1012400043EA0E234B4042F040020121638484F8BC
:101250002120297729460EF051F80EF059F894F81C
:101260004900012100F0070014F05AFE664A4FF0D1
:1012700000098346312300F25240A0FB0201336093
:10128000C6E901995CA3D3E90023FEF779FFFD6865
:101290000B99A36A40F2E24220F07F4002FB015525
:1012A000F0604A4602210120A8EB03080AF0CCF9BD
:1012B00050460EF0ABFD821C544BCDF800A0D2B2CC
:1012C000484601210BF0D2FC05F286350128A5EB3A
:1012D0000B0500F086809AF82830DB0779D4304679
:1012E0000FF072FBDFF820B1A8FB0B8942A3D3E912
:1012F0000023044649464046FEF742FF444A06960C
:1013000020F07F4AAAFB0223072101FB0A334FF496
:10131000B671BF6808913F4907913F490591B8EB05
:10132000020069EB0301F368049300264FF47A721C
:1013300000230396FEF724FF2FA3D3E9002384465E
:10134000A5FB0B01CDE901ACFEF71AFF033420F039
:101350007F40E4B2313F3B460090224630460121B7
:101360000BF0FCFB30F002030CD02C4A2C492D482A
:1013700040F26D1321F047FD404080F311884FF09B
:10138000030002DF01221046022113B0BDE8F04F36
:101390000AF05AB92846FF2A50F824CFC5F82BC0C6
:1013A0008088988005F125037FF411AF0022BDF8F5
:1013B00044101098C5F825209A809DF83830A5F87B
:1013C0002310AB77C5F81F0011E79DF83C302B7751
:1013D00040E7002301220093184611460BF046FC1B
:1013E0007DE70EF041F882453FF475AF13F04EF9FA
:1013F00071E700BFAFF300808D49FD1A07000000C0
:101400007FC3C901FF59620200CA9A3BB946010075
:101410008D49FD1A5D460100D546010014CD02003C
:10142000CCCB020030C6020083DE1B4308B5084A5D
:10143000084B0948D21AD208920142F0030222F066
:1014400004F9002000F048FABDE8084000F0CABAEC
:10145000A8BF0200A8BF02005EDC020010B50C4865
:101460000C4621F0D0FC94B90A4B0B490B48C91A21
:10147000C908890141F0030122F0DAF8012000F0E7
:101480002BFA00F025F9BDE8104000F0A5BA10BD18
:1014900078DC0200A8BF0200A8BF020061F40200CD
:1014A00007B505F0BBFE00230E49009303220E484A
:1014B00005F0A6FE0D4A0E4BD21AD2080146920143
:1014C00038B10C4842F0010203B05DF804EB22F0A1
:1014D000BCB8094842F0030103B05DF804EB22F008
:1014E000A7B800BF88C10200DC010020A8BF02002D
:1014F000A8BF02007EDC0200A2DC0200F8B50020DA
:1015000005F070FB224C234BE41AE4080546A401C5
:1015100038B144F001020146BDE8F8401E4822F00F
:1015200094B81E4F22F06CFB1D491E48092202F0A0
:1015300013F93E461C491D48012202F00DF91C4BCF
:101540001C487B6046F8085F3D6006F0C7F81A4803
:1015500044F0030122F06CF8BFF35B8F56E8003FC4
:1015600043F0010246E800210029F7D1BFF35B8F69
:10157000DB0703D41148394629F00EFD00F090F93D
:1015800044F003010E48BDE8F84022F051B800BF16
:10159000A8BF0200A8BF0200C3DC020000150020A3
:1015A000E2DC0200EBDC0200BCE00200F5DC020041
:1015B000A1140000C8010020FFDC02005814002024
:1015C00019DD02001FB5154C15490394231D029324
:1015D00004F10803019304F10C03009304F11402D5
:1015E00004F110031FF06AFC062809D00D490E4BC8
:1015F0000E48C91AC908890141F0010122F018F802
:1016000063690648A3F26C7363612369013B23613C
:1016100004B0BDE810401FF07BBA00BF0C150020DD
:101620002FDD0200A8BF0200A8BF020041DD0200BA
:101630000148FFF7C7BF00BF60DD020038B529F0E1
:10164000D3FE4FF47A730A46A0FB030103FB021199
:101650000D4A0E4DC30B43EA4143CC0BD2E90010B7
:10166000591A64EB0000C5E90010C2E900340849CA
:10167000084B0948C91AC9088901BDE8384041F03A
:10168000030121F0D5BF00BF800D0020780D0020A0
:10169000A8BF0200A8BF020074DD020008B503461F
:1016A0000A481A88A2F26C7242619A78013A026181
:1016B000DA78C2601A7982605A7942609B79036055
:1016C0001FF026FABDE80840FFF7B8BF0C15002050
:1016D00070B50B4E0B4D0C4C0C4A3346202128465E
:1016E00020F062F933460A4A2021204620F05CF9B6
:1016F000284600F021F92046BDE8704000F024B9EA
:101700000C1500201C810020FC80002084DD0200DC
:101710008ADD020002490022012006F0CBBA00BF98
:101720002517000007B500238DF8043042F62B235F
:10173000ADF80630104B1149019A1A60104A4A6000
:1017400001220A814FF6FF72CA8103220A740B60DC
:1017500009F018F860B10B4B0B490C48C91AC908BD
:10176000890141F0010103B05DF804EB21F060BF95
:1017700003B05DF804FB00BFCE80002030150020D0
:1017800091170000A8BF0200A8BF020093DD02006D
:1017900010B50B4659B90E490E4B0F48C91AC90866
:1017A000890141F0030121F043FF002010BD0B49E6
:1017B0001B8A0B814FF6FF730022094C4B81094BAA
:1017C0000C604A60084CCC601A6009F089FBECE7B9
:1017D000A8BF0200A8BF0200B5DD0200541500201A
:1017E000ED17000044150020CE800020F0B587B032
:1017F000234CBDF8305019460BB1002D32D1A688CC
:10180000E579227A637AA77A1E491F4C7019104431
:10181000091B1844C908C4194FEA811107D11B4894
:1018200041F0020121F004FF002007B0F0BD41F0BB
:101830000304CDE90323164805972346052201A991
:10184000CDE9016521F04AFF124B134A03CB10602A
:101850001846516030F808391381FFF71FFF0F4811
:101860002146DFE723460A2653F8040B2A4606FBE7
:10187000003029F09EFF23682B4423600120D4E729
:1018800044150020A8BF0200A8BF0200D5DD020059
:101890000FDE020048150020C480002044DE020054
:1018A00008B50849084B0948C91AC908890141F017
:1018B000030121F0BDFEBDE80840054905480022AE
:1018C00029F0BDBDA8BF0200A8BF020060DE020073
:1018D00015170000880D002007B560B14FF4F01215
:1018E0000023CDE900230748002200231EF038FF23
:1018F00003B05DF804FB034803B05DF804EB29F086
:10190000AABD00BF880D00200949BFF35B8F51E8D5
:10191000003F43F0010241E800200028F7D1BFF367
:101920005B8FDB0703D40348083929F035BB7047C8
:10193000F801002058140020024B0146186829F0D5
:101940008EB900BF94150020024B0146186829F09B
:1019500086B900BF6C15002013B521F064F9002191
:101960001DF0A8FB074C00231946009301222060BC
:1019700024F03AFD0449206802B0BDE8104029F087
:101980006EB900BF981500206FDE02000B4A0346B7
:101990001068042B0FD8DFE803F00306080A0C00D8
:1019A000074929F05CB90749FBE70749F9E7074907
:1019B000F7E70749F5E70749F3E700BF641500209B
:1019C00073DE020077DE02007BDE02007FDE0200B3
:1019D00083DE020087DE0200014B586A24F0D5BB8B
:1019E000FC020020014B186824F0CFBBFC02002051
:1019F000012810B51FD002283DD11F4C23680133A8
:101A0000022BC8BF0023236022680C2353431B4AC8
:101A1000D05824F0BAFB1A4B21681A4800221A60E9
:101A2000194A1A4BD21AD2089201BDE8104042F06E
:101A3000030221F00ABE104A104C1168104B0C2210
:101A400002FB0142186852680130904218601A4641
:101A50000EDB002313600D480B4B12681B1ADB08CA
:101A60009B01BDE810400A4843F0030321F001BE8A
:101A70000028EEDBEFE710BD90150020FC020020EF
:101A8000741500208BDE020098C00200A8BF02007F
:101A90009FDE02002DE9F74F0021084618F064FC94
:101AA000AF4DB04F28600021084618F05DFC0021C2
:101AB000E860084618F058FC0021A861084618F0B4
:101AC00053FC68622868DFF8DC9224F05EFB21F0AA
:101AD000AAF800211DF0EEFA00240646A24929F0DA
:101AE000BEF82346296800940322304624F07CFC8B
:101AF00021F099F821461DF0DDFA234602220094D8
:101B00002146386024F070FC98493868984E29F0D6
:101B1000A6F821F088F821461DF0CCFA23460522CC
:101B200030602146009424F05FFC92493068924E68
:101B300029F095F821F077F821461DF0BBFA3060C6
:101B40000220FFF723FF0094234604222146306839
:101B500024F04AFCE86824F018FB21F064F82146E0
:101B60001DF0A8FA8549064629F079F82346032294
:101B7000E9680094304624F037FC21F054F82146FF
:101B80001DF098FA7E4EC9F800006FF00408314647
:101B900029F065F8CDF8008005230422E968D9F81A
:101BA0000000DFF8049224F01FFC21F03CF82146ED
:101BB0001DF080FA3146C9F8000029F050F8CDF840
:101BC00000806FF00E030622E968D9F8000024F0C7
:101BD0000BFCA86924F0D9FA21F025F821461DF064
:101BE00069FA6849814629F03AF823460322A9692F
:101BF0000094484624F0F8FB21F015F821461DF02A
:101C000059FA4FF0020982465F4929F028F86FF02F
:101C100045030322A969CDF80090504624F0E4FB67
:101C200021F001F821461DF045FADFF880A1314688
:101C3000CAF8000029F013F8CDF800906FF02C03DB
:101C40000322A969DAF8000024F0CEFB20F0EBFFB4
:101C500021461DF02FFA4D49824629F000F86FF019
:101C600045030822A9690094504624F0BDFB20F0EA
:101C7000DAFF21461DF01EFADFF834A13146CAF81A
:101C8000000028F0ECFF00946FF02C030822A969F3
:101C9000DAF8000024F0A8FB20F0C5FF21461DF073
:101CA00009FA6FF0010B8246394928F0D8FF6FF02E
:101CB00045030622A969CDF800B0504624F094FBF4
:101CC00020F0B1FF21461DF0F5F9DFF8E8A031461C
:101CD000CAF8000028F0C3FFCDF800B06FF02C0365
:101CE0000622A969DAF8000024F07EFB686A24F075
:101CF0004CFA20F098FF21461DF0DCF925490646F4
:101D000028F0ADFF2346696A00940322304624F090
:101D10006BFB20F088FF21461DF0CCF923464A4694
:101D200000942146386024F05FFB1B49386828F096
:101D300096FF20F078FF21461DF0BCF9174C18499A
:101D4000206028F08CFFCDF80080696A20680523A8
:101D5000042224F049FB03B0BDE8F04FFFF7FCBDBF
:101D6000FC02002094150020C0DE0200C4DE020048
:101D70006C150020CADE020064150020D5DE0200CA
:101D800039060300D9DE0200DDDE0200E5DE0200D6
:101D9000EDDE0200F5DE0200F9DE02008C15002007
:101DA000FFDE0200781500207C1500208015002041
:101DB000841500208815002037B523481DF0DAFA75
:101DC000C5680446836840F201621B681621984783
:101DD00018B92B6843F480032B60E3681B685B022F
:101DE000A3684FF4800154BFDB681B692046984705
:101DF0001648174C1DF0BEFA206070B9154B164AF4
:101E000016481249D21AD208920142F0010221F07A
:101E10001CFC4FF0FF3003B030BDFFF73BFE104B12
:101E2000186824F0B2F91BF099FD206883685B689C
:101E300098474FF4A47200230A48CDE900231EF00E
:101E40008FFC0020E7E700BF08DF02000FDF020081
:101E500070150020A8BF020098C0020017DF020022
:101E6000FC020020200B002037B51F4B1F4CE41A4A
:101E7000E40802F045F9A40144F003052A461C4D8C
:101E800001461C4821F0E1FB2B784BB900220023CE
:101E9000CDE9002318484FF4004200231EF060FCF7
:101EA000154829F0FAFA80B11448297844F0030261
:101EB00021F0CBFB2B78022B8CBF02200120FFF7F7
:101EC00097FD00232B7003B030BD29780131C9B2D2
:101ED00002292970F7D90A4844F0030203B0BDE88B
:101EE000304021F0B2BB00BFA8BF0200A8BF020073
:101EF0003C81002034DF0200C00D00204ADF0200D8
:101F000062DF020010B524481DF034FA044628B9F7
:101F1000BDE810402049214820F075BF0D214FF445
:101F2000807220F09BFE014630B11B4A1C480D23F5
:101F3000BDE8104020F067BF0D214FF4B8222046C5
:101F400020F078FE014618B1134A16480D23EFE73A
:101F50004FF400720F21204620F080FEE3681B68DA
:101F60001B04A3684FF4004154BFDB681B69204683
:101F700098470D490D4B4B604FF400538B60A3689D
:101F8000DB6913B1012220469847BDE810400249A1
:101F900007480D2220F037BF08DF020079DF02007A
:101FA00097DF0200C0DF02009C150020691E0000C0
:101FB000F6DF02000B6801330B60014B1B6818470A
:101FC0002C03002007B50B4600210246019103486F
:101FD00001A900F065F903B05DF804FBB51F00002E
:101FE00030B585B0CDE901010446002501A90548B9
:101FF000039500F055F9DDE902309842B8BF255449
:1020000005B030BDE12D02002DE9F84FB0F8189071
:1020100019F00808044693460DD001290CBF49F079
:10202000100949F02009A0F818908BF31188BFF32C
:102030006F8FBDE8F88F09F00709022907D1204604
:1020400020F0FBFE0028F0D00128238B50D16769D7
:10205000218B002F15DA256821F00701C4E90088DB
:1020600041F0010121830026218B01F0070ACA45B6
:1020700002D0A368002B5CD10DB9002E74D00023D0
:1020800058E001F007035A1F012A20D821F0070168
:10209000062B256889B2C4E900880CD1002D2B4697
:1020A00038BF00232BB1628B1B6801326283002B87
:1020B000F8D141F002012183204620F0BEFE064601
:1020C0000028D1D0238B43F020032383CBE7042BBC
:1020D0000CD121F0070189B22183204620F0ADFE0A
:1020E00005460028BFD041F0200121830025BAE732
:1020F000032809D1226923F00703166843F0060379
:10210000238300252F46AFE7042806D1226923F058
:102110000703566843F00403F2E7052806D1226955
:1021200023F00703966843F00503E9E700252E46F0
:10213000E8E7012341F0080121838BF31188BFF305
:102140006F8F03BB002D33D116B121492046B04714
:102150004FF02003EFF3118B83F31188BFF36F8FE0
:10216000238B23F008032383238BDA0628D523F05F
:10217000100323830121B4F8189009F007090029FE
:102180007FF45BAF51E7A1680029DBD00B68D1F881
:1021900004B0002B38BF0023994652463B462046E8
:1021A000D847B9F1000FCDD0D9F800304946EEE755
:1021B00029463B46524620462D6820F05AFEC1E78C
:1021C00013F020011EBF23F0200323830221D2E756
:1021D0009F2E0200F0B5094E016802460A27002032
:1021E0000C46013123789D5D6D0701D41460F0BD6C
:1021F00007FB0033A3F13000F2E700BF9793030021
:102200002DE9F74F14469946D378244A13F802A0D3
:102210006F2B0AF0030206460F4601922DD028D8F4
:10222000582B14BF0A251025DDF83080AA464FF040
:10223000000B52465B4630463946FDF7A1FF092A9E
:10224000D3B21FD830335F45DBB208BF564508F81C
:10225000013D01D3C84512D823789B0605D5082D2A
:1022600016D1A37843F00803A370404603B0BDE83D
:10227000F08F03F0F703702BD3E70825D4E7064669
:102280000F46D6E7019A012A0CBF37335733DAE7F6
:10229000102DEAD1A37843F01003E5E797930300EC
:1022A0002DE9F04F824693B08B4691461C4600259F
:1022B00099F8000008B928463AE309F101032528F6
:1022C000029306D05946D0470028C0F23183013529
:1022D000F1E1182200210CA829F08CFA99F80130BC
:1022E000252B59D0029A164612F8013B2B2B00F0F1
:1022F0008B8079D8202B00F08C80232B00F08E80EF
:102300009DF8383003F04402442A03D16FF386135A
:102310008DF838309DF83830059643F080038DF8FD
:10232000383033782A2B7ED19DF8393043F00103C1
:102330008DF83930731C05931A782E2A9DF83920B0
:102340000CBF0121002161F341028DF839200BD12E
:102350005A1C05925A782A2A7BD19DF8392042F0DE
:1023600004028DF839200233194611F8010B6C284C
:1023700000F0B6807DD8682800F084806A2800F0DC
:10238000B9804C2800F0BD809DF839206FF3C6025B
:102390008DF83920194680E009F1020202928DF889
:1023A0003B309DF83930D90740F1498154F8048B0E
:1023B000B8F1000F07DA9DF8382042F004028DF8DA
:1023C0003820C8F100085A0740F1428154F8047BD4
:1023D000002F80F241819DF839306FF341038DF871
:1023E00039304FF0FF3737E12D2B06D0302B87D116
:1023F0009DF8383043F0400303E09DF8383043F057
:1024000004038DF838306EE79DF8383043F0080348
:10241000F7E79DF8383043F01003F2E79DF83830C5
:1024200043F02003EDE705A8FFF7D4FE059BB34278
:1024300081D09DF838100F90C1F3400242EAD0726B
:10244000520062F07F0201F07D010A438DF83820CE
:1024500071E705A8FFF7BEFE9DF838301090C3F372
:10246000400242EAD07060F341038DF83830059B9A
:102470007AE774289DF8392040D07A2884D1134611
:10248000062228E05A78682A9DF8392021D10121B6
:1024900061F3C6028DF83920991C0B4613F8012B05
:1024A0000293782A9DF839308DF83B2000F2BF80E6
:1024B000572A33D8412A03D0453A022A00F2B7807E
:1024C0009DF83A30042262F302038DF83A3001237A
:1024D00084E01346022262F3C6038DF83930DCE74C
:1024E0005A786C2A9DF8392001D10421D0E713468F
:1024F0000322F0E79DF839300522ECE71346072266
:10250000E9E7BDF8383023F4F04323F0020343F445
:10251000804343F00203ADF83830BEE7A2F1580122
:10252000202900F2848001A050F821F0F12500005C
:102530002F2600002F2600002F2600002F26000047
:102540002F2600002F2600002F2600002F26000037
:10255000C12400002F260000F1250000B125000055
:10256000C1240000C1240000C12400002F26000067
:10257000B12500002F2600002F2600002F26000086
:102580002F260000F9250000F12500001526000087
:102590002F2600002F260000152600002F26000001
:1025A000F12500002F2600002F260000F125000055
:1025B0009DF83A10012003F0780360F30201402BEC
:1025C0008DF83A1002BF9DF8381041F001018DF8E6
:1025D0003810632A31D1003B18BF01239DF8382001
:1025E000C2F340010B4363F341028DF83820D8E673
:1025F0009DF83A100220DEE79DF83A2003F07803B8
:10260000A3F14000032161F3020243428DF83A2016
:102610004341E3E79DF83A20032113F0780F61F37B
:1026200002028DF83A2014BF01230023D6E79DF85B
:10263000383043F001038DF838300023CEE79DF9A0
:102640003820002AB4BFDDF83C804FF0FF38BAE6EE
:102650009F077FF5C6AE109F9DF839100023CDE986
:102660000F339DF83A3003F00703012BC1F3C30188
:1026700037D1CB1E042B21D8DFE803F00307072056
:10268000200054F8042BD31704E0073424F0070487
:10269000F4E80223CDE90C239DF8383013F003064B
:1026A00055D0029B4A465946504620F087FF0028E5
:1026B000C0F23E810544DDF80890F9E554F8042B9A
:1026C00001294FEAE273CDE90C2305D19DF83030A2
:1026D0000C9300230D93DFE70229DDD1BDF93020F3
:1026E000D1E7022B23D1CB1E042B13D8DFE803F054
:1026F000030A0A12120022680C920023201D0D9377
:102700000446C9E7073424F00700F0E80223CDE9C6
:102710000C23F5E754F8043B0C9301294FF0000318
:102720000D93D3D00229B7D1BDF83030D0E7042BB8
:1027300007D1073424F00704F4E80223CDE90C2381
:10274000AAE7032B04BF54F8043B0C93A4E79DF8BD
:102750003B007828AFD8622820D825283FF4B2ADB6
:102760005828A8D10DF12E030093DDE90C0106AB2A
:102770000EAAFFF745FD8146002F0DF12E000BDB61
:102780009DF83820A0EB09036FF386129F428DF865
:10279000382001D9FF1A0F9707463CE06338152807
:1027A00089D801A252F820F02728000089280000CB
:1027B000B7260000B7260000B7260000B7260000A5
:1027C00089280000B7260000B7260000B7260000C1
:1027D000B7260000E7280000B5280000B92800004F
:1027E000B7260000B726000001280000B726000029
:1027F000B5280000B7260000B7260000B528000065
:10280000002FDDF830900ADB3946484629F03CF8C5
:1028100009EB00070026B9F1000F0CD14BE7484641
:10282000FDF734FEF4E70C9B8DF8183000260DF10F
:1028300019070DF11809A7EB090306B101339DF83B
:102840003A20D00669D5023352060F9948BF109A34
:102850000B4448BF9B18B8F1000F76DD9DF8382077
:10286000A8EB0308C2F38003039353076DD450060B
:1028700061D53EB159463046D047002858DB039B0E
:1028800001351E46302357E01E0711D413F0100601
:1028900018BF2026DDE90C23002A73F10001BFF6E2
:1028A00061AF524263EB4303CDE90C232D2659E778
:1028B0002B26EFE7002655E70C9848B30DF12E03C1
:1028C00000930EAA06AB0021FFF79AFCBDF83A3040
:1028D00003F0EF0343F4F04343F010038146ADF8F7
:1028E0003A30002648E70C9B07293FF6E4AEDFE8C4
:1028F00001F00D04060D08080D0D1D70DBE61D80AE
:10290000D9E62846E917C3E90001D4E61D60D2E6FE
:102910002E4F0646A7F105098DE7110748BF013381
:1029200092E7184659460393D0470028039B04DAE0
:1029300013B0BDE8F08F202345444246002AA5EBA2
:10294000080108F1FF38ECDC0D462EB1594630463F
:10295000D0470028ECDB01359DF83A30D90601D488
:102960001A0705D559463020D0470028E0DB01354D
:102970009DF83A30DB0606D59DF83B005946D04716
:102980000028D5DB01350F9E2E44731B002B15DC70
:102990003B464A465946504620F010FE0028C7DB09
:1029A0000544A844A8EB0503002B7FF784AE5946E5
:1029B0002020D0470028BBDB0135F3E75946302003
:1029C000D0470028B4DB0135DFE700BF1BE0020081
:1029D00030B51049104889B0002228F030FD0F4D65
:1029E0000F4900220023CDE9062300240E23CDE960
:1029F0000334CDE901440B4B00944FF44072284658
:102A00001DF004FC0849284628F02CFC204609B09B
:102A100030BD00BF2D2A0000F80D0020300E002030
:102A200078870020912E00001CE0020001481DF074
:102A300055BB00BF000C0020F0B505460F4E00202E
:102A400003460246012715F8014B0CB18B4200D317
:102A5000F0BD252C02D182F00102F4E7002AF2D069
:102A600014F806C01CF0030FEDD0732C04BF07FA56
:102A700003F2104301330022E5E700BF9793030000
:102A800008B500F067FA094820F0AFFD04232822BA
:102A90000749084828F0E8F9074B084A1A604FF43C
:102AA0000040BDE8084000F09FBC00BFB415002006
:102AB000C0AD0020BC1500203003002029360200E4
:102AC000F8B50F4BBFF35B8F002553E8007F43E859
:102AD0000052002AF9D1BFF35B8F0A4C0A4E361B15
:102AE0003611B54200DBF8BD63685B792BB1236812
:102AF000DB6813B139462046984701351034F0E7BA
:102B0000AC15002000C1020010C10200064BBFF34B
:102B10005B8F53E8002F013243E800210029F8D1F0
:102B2000BFF35B8F704700BFAC150020044A054B14
:102B30009B1AB1EBD30F34BF52F83100002070471D
:102B4000A8BF020000C10200094B4268C31A1B1152
:102B5000013310B513714368064C196001225A7194
:102B6000227812B904481DF0B9FA0123237010BD70
:102B700000C102003D810020000C002070B5114B07
:102B8000BFF35B8F53E8005F6A1C43E80021002914
:102B9000F8D1BFF35B8F2DB90B4C0C4E361B3611A1
:102BA000B54200DB70BD237B43B123685B6903B191
:102BB0009847042200212046FFF7C6FF0135103454
:102BC000EEE700BFB015002000C1020010C10200F6
:102BD000174B984273B5044602D3164B984221D343
:102BE00015480022002301A91CF088FD0546E0B924
:102BF0000122019BBFF35B8F53E8001F43E80020D5
:102C00000028F9D1BFF35B8F019E331D1F221846A8
:102C1000214628F013FE7E22034686F8232086F8FC
:102C200024501C46204602B070BD044BF9E700BF9B
:102C300058BD0200A0960300BC15002024E002004D
:102C400048B1054B984205D3A03398422CBF0020D1
:102C50000120704700207047C0AD00202DE9F04FE3
:102C60004C4B1B7885B0044603B960B34FF020038A
:102C7000EFF3118683F31188BFF36F8F464820F07E
:102C8000C4FC054686F31188BFF36F8F78B1BFF39C
:102C90005B8F424B53E8002F013A43E800210029A3
:102CA000F8D1BFF35B8F94B1284620F0A7FD24B97B
:102CB0003B4B1B680BB1FFF703FF374820F0A3FC29
:102CC000041E18BF0124204605B0BDE8F08F354B27
:102CD0001B78CBB92B7ADB0716D420F0A2FD8046F7
:102CE000284620F069FD01464046FFF7A5FE2E4F1D
:102CF0002E4BDFF8D4B0DB1BDB0803932C4BDB1B24
:102D000006464FEAD30A36B92A4E2B4FBF1B3F1156
:102D10004FF000083AE0B6FA86F1C1F11F094946C2
:102D2000284620F04CFD254B9842014602D3244B07
:102D300098421AD30846FFF783FF0246A8B9214BF1
:102D4000994212D06B8903989909B0EB931F4FEA0F
:102D50008A1343F0010388BF57F83120ADF80030E3
:102D600049464346584620F09DFC012101FA09F1ED
:102D700026EA0106C7E773685B7923B13368294601
:102D80001B683046984708F101081036B845F2DB59
:102D90008AE700BF3D810020B4150020A81500205F
:102DA000AC1500203E810020A8BF020000C1020037
:102DB000B8C0020000C1020010C1020058BD0200EC
:102DC000A096030024E002003EE00200294B73B508
:102DD0001B68418104469847274DE060BFF35B8F35
:102DE00055E8003F013345E80032002AF8D1BFF32F
:102DF0005B8F4FF02003EFF3118683F31188BFF34D
:102E00006F8F1E48214620F0F4FB86F31188BFF334
:102E10006F8F1B4B1B7883B14FF02003EFF31184AE
:102E200083F31188BFF36F8F0020FFF717FF84F340
:102E30001188BFF36F8F02B070BD124A2B68126801
:102E4000002AF8D0012B0AD100220023CDE900236B
:102E50000D484FF4004200231DF082FCEBE70A2BE3
:102E6000E9D1094828F0F7FA084802B0BDE87040F7
:102E70001DF034B930030020A8150020B41500203F
:102E80003E810020D8150020F80D0020000C002005
:102E900010B5FFF773FE1DF01BF90C4B186030B135
:102EA0000B4B1B68092B02DD0A481DF017F9094C72
:102EB0000020FFF7D3FE0028FAD14FF0FF324FF089
:102EC000FF3320461DF030F9F2E700BFD81500208F
:102ED000A8150020000C0020F8B50E4F3D7875B9FC
:102EE0000D4C0E4EFFF74AFE361B3611B54207DB7E
:102EF0000020FFF7B3FE0028FAD101233B70F8BD94
:102F000063685B791BB1236820461B6998470135CC
:102F10001034EBE73E81002000C1020010C1020026
:102F200007B504380190BFF35B8F50E8003F5A1E8D
:102F300040E800210029F8D1BFF35B8F012B03D1BA
:102F4000034801A91CF00CFC03B05DF804FB00BFB2
:102F5000BC1500202023024902481A4627F084BFEE
:102F600060AE0020DC15002037B50023094D019329
:102F70000120FFF773FE0446FFF7C8FD002200237F
:102F800001A928461CF0BAFB08B1002CF0D1019829
:102F900003B030BDDC15002007B5002301930748BE
:102FA0000022002301A91CF0A9FB10B1FFF7DCFFF0
:102FB0000190019803B05DF804FB00BFDC15002010
:102FC000F0B5037A457A85B02D090190D8071CD455
:102FD000DDB1002426460198314620F0F0FB07467B
:102FE000FFF72EFE70B134B9019B29461869FFF72F
:102FF00023FD044648B124FA06F3D90702D5384622
:10300000FFF78EFF0136AE42E5D3019B1A7A920795
:1030100004D55B69084C0393039B2BB9064801A9AF
:103020001CF09EFB05B0F0BD1D6803A920461CF0F6
:1030300097FB0395F0E700BFDC1500200EB403B545
:1030400003AB014653F8042B04480193FFF728F91A
:1030500002B05DF804EB03B0704700BFCB3B020049
:103060002DE9F04F85B011F0020490469DF83870BC
:1030700006461A4601F0010901F0080507D011F0D3
:10308000440F37D13249FFF7D9FF01460C46B9F159
:10309000000F0AD02F4B304953F827202F4B3046D2
:1030A000002A08BF1A46FFF7C9FF3DB12C4B2D4936
:1030B00053F827203046FFF7C1FF0546B8F1000F4F
:1030C00043D0012303FA07F7274B17F0100F274FC0
:1030D00018BF1F46BDF840109DF83C00FFF726FDC5
:1030E000394602463046FFF7A9FF2844204405B080
:1030F000BDE8F08F1E4B19680029C7D01D4B4FF457
:10310000616E1B68B2FBF3F34FF47A7CB3FBF1F40E
:10311000B4FBFEF20EFB124E01FB14340CFB04F464
:103120004FF03C0AB4FBF1FB01FB1B440CFB04F425
:10313000BEFBFAF3B4FBF1F1CDE901B10AFB13E1F7
:1031400000910D49FFF77AFF9FE7084FC2E700BFE4
:103150008FE00200A0C1020029DF020081E002002E
:10316000B4C10200B4E002008BE0020086E002007D
:10317000F8150020FC15002098E0020038B50C4638
:10318000E107054603D5084A0849FFF757FFE2065D
:1031900008D4A30628464CBF05490649BDE8384077
:1031A000FFF74CBF38BD00BF81E0020029DF0200FD
:1031B000BBE00200BAE002002DE9F0471D46089B83
:1031C0001746DA0604460E4605D499064CBF2B492D
:1031D0002B49FFF733FFDFF8B0904FF00008A84508
:1031E0002DDBDFF8A880DFF8A890DFF89CA0002591
:1031F000BD4232D2725D49462046FFF71FFF0135BE
:10320000102D23D11F49DFF88080DFF88890DFF888
:1032100088A02046FFF712FF0025AF4229D9725D32
:1032200012F8093013F0970F08BF2E22514620469E
:10323000FFF704FF0135102D14D1BDE8F087494692
:103240002046FFF7FBFE08F10108C8E76A07CFD167
:1032500051462046FFF7F2FECAE741462046FFF7F7
:10326000EDFECCE76B07D8D141462046FFF7E6FEDE
:10327000D3E741462046FFF7E1FEDBE7BBE0020073
:10328000BAE00200C7E00200C5E00200C3E00200AD
:10329000BDE0020097930300C9E002002DE9F0476A
:1032A0008B7A13F0070817468AB00A7A05460E464D
:1032B00020D04989C3F3C2038909D243CDE90083F1
:1032C0000291F36802F001023946FFF7C9FE814618
:1032D000347AE44314F001040ED02946304620F03D
:1032E0000AFBB8F1000F2BD0424639462846FFF7BB
:1032F00045FF25E0C146EBE7B8F1000F26D1274690
:10330000EB68069306AA3B46A968304620F0DFFA30
:10331000069A6B681A603AB1AB68134413F8014C13
:10332000A4F10A035C425C41284620F041FC069B64
:103330001F44002BE4D11CB113492846FFF77EFE41
:10334000284620F035FC0AB0BDE8F087304620F072
:1033500068FA0E4902462846FFF770FE4FF0100A41
:1033600005AA234606A93046CDF814A020F0AFFAEE
:10337000059A002AB8D04B46009706A92846FFF7C1
:103380001BFF059B1C44EBE7CCE0020029DF020099
:1033900073B542F20F738B4228BF0B4605680F4A84
:1033A0000446052168461FF03BFD63680C495B68D5
:1033B00006460B22284620F091FA63683246694699
:1033C00028465B6820F08AFA636806495B681B221E
:1033D000284620F083FA02B070BD00BF19F7020042
:1033E0000AE10200EEE00200084A10B50123084C91
:1033F00013600021A04204D801B11360054B18608E
:1034000010BD40085B000121F4E700BFFC1500205F
:1034100040420F00F8150020014B01221A7070473E
:103420004F810020024B034801221A7020F0C0BBDC
:1034300050810020E0C102000148FFF7A9BF00BF92
:10344000E0C1020010B508460C4620F0A8F9054876
:1034500021460F22FFF722FF2046BDE8104020F052
:10346000CDB900BFE0C10200054B1B781BB141F292
:10347000883027F0F3BEA42000211CF007BE00BF57
:10348000508100202DE9F84FDFF89090DFF890B0E0
:1034900007460E460424CA4699F8003033B94FF067
:1034A000FF324FF0FF3358461CF086F9324639465A
:1034B000002000F06FFE9AF80030804613B958469D
:1034C0001CF0F2F9144DB8F1000F18D001232B7045
:1034D0009AF8003033B93046BDE8F88F5CB92C70EB
:1034E0004FF0FF34002000F0A1FE0028F3D02B782D
:1034F000002BF3D1EFE7013CFFF7B6FFF2E72B78A3
:1035000013B1013C04D12C702B78002BC4D1E2E71D
:10351000FFF7AAFFF8E700BF4F810020508100208D
:10352000C00B0020104B2DE9F0411C6805460E46EB
:103530001746ACB14FF0FF324FF0FF330B481CF091
:103540003BF963683246D3F8088029463B4620465B
:10355000C047044605481CF0A7F92046BDE8F081A5
:103560006FF00104F9E700BF1C160020D40B002007
:1035700030B585B000230546CDE9023301904FF008
:10358000FF330E484FF0FF321CF016F90C4B1C684D
:10359000002C38BF00243CB1636820461B6801A999
:1035A00098472468002CF6D1284600F089F8044694
:1035B00002481CF079F9204605B030BDD40B00203C
:1035C000141600201FB5CDE9010103924FF0FF331F
:1035D0000C484FF0FF321CF0EFF80B4B1C68002C2E
:1035E00038BF00243CB1636820461B6801A9984796
:1035F0002468002CF6D103481CF056F9002004B0D2
:1036000010BD00BFD40B002014160020024B002276
:10361000C3E90022704700BF14160020024B0022AD
:10362000C3E90022FFF7F2BF201600202DE9F34185
:1036300007460E4609B100230B601E4CDFF87C8064
:103640000025444508D31C4B1C680CB1143CC4B97C
:10365000284602B0BDE8F081216801AA384620F072
:10366000D6FA60B125B90EB1019B3360254606E05C
:1036700029682068002220F0CAFA0028F3D1143407
:10368000DFE7216801AA384620F0C1FA60B125B908
:103690000EB1019B3360254606E0296820680022B0
:1036A00020F0B5FA0028F3D114F1140FD0D06469DA
:1036B000CBE700BF44BF020020160020A8BF0200D5
:1036C000F8B51A4C1A4F06460025BC4206D3194BD2
:1036D0001C680CB1143C9CB92846F8BD1EB9E368BF
:1036E0004BB91434F1E720680022314620F08FFAFC
:1036F0000028F4D1F5E79847002D08BF0546F0E70C
:1037000036B9E36863B914F1140FE5D06469E0E7F2
:1037100020680022314620F07AFA0028F1D1F2E741
:103720009847002D08BF0546EDE700BF44BF0200E3
:10373000A8BF02002016002010B5064C23783BB924
:10374000FFF76CFF20F0ACFA08B90123237010BD1D
:103750000020FCE75181002030B585B00D4601A95D
:103760001446FFF763FF48B1CDE90254054A856866
:10377000019802AB2146A84705B030BD6FF0150097
:10378000FAE700BF813C0200F8B505464FF0200380
:10379000EFF3118683F31188BFF36F8F0B4B1C6817
:1037A000002C38BF00245CB1094FD4E90132002D50
:1037B00008BF13460BB1387898472468002CF4D121
:1037C00086F31188BFF36F8FF8BD00BF2816002065
:1037D000301600202DE9F341184F194C3B78014673
:1037E0003BB96D46284620F05DFA95E8030084E871
:1037F00003002578F5B1134E4FF000080120043D79
:10380000C6F80080FFF7C0FF012D98BF0E4B94E86B
:10381000030098BF83F8008020F031FF306840B982
:10382000012338703360FFF7AFFF94E8030020F006
:1038300039FF2578284602B0BDE8F081528100208A
:1038400030160020340300205A87002008B5064BAC
:10385000186840B901221A60FFF796FF034B93E8FE
:10386000030020F01FFF08BD3403002030160020A5
:1038700070B504460D48231A9A100D4B5343DBB222
:103880000C255D4305F140030E461844402120F00D
:1038900016FA011E04DB074B2B445B689847002196
:1038A00020463346BDE87040184700BF4816002048
:1038B000B76DDBB604C202002DE9F0410F4C104D8C
:1038C000031B9B105D43EBB20C255D43074605F1DE
:1038D00040000E462044402120F00AFA011E08DB79
:1038E000084B2C44C4E90E36074B5B59BDE8F04148
:1038F000184738463346BDE8F041184748160020BF
:10390000B76DDBB6533D020004C20200002270B561
:1039100001210446104600F0D1FD002000F09CFD7E
:103920000F4815F09FFD0F4B984215D122F0C0FBB8
:10393000E6680D4930461FF0CFFA00280BDB012561
:103940003564E468084904F11C001FF0C5FA00283A
:1039500001DBE564002070BD6FF00400FBE700BFF1
:10396000A13900000000AD0B1CC2020001460C236F
:1039700009484B4370B5C418D4E90E5600224033B1
:10398000A263184420F0D2F92DB132462B460348E9
:10399000BDE87040184770BD48160020AC0A0020F2
:1039A00010B1012804D07047034B1B6C5B0701D199
:1039B000FFF7DCBF704700BF4816002008B54FF086
:1039C0002003EFF3118183F31188BFF36F8F124A45
:1039D000136843F0020013F0010310600CD04FF0A5
:1039E0008042D2F80C34D2F80C2413F0010303D037
:1039F0000A4820F09BF9012381F31188BFF36F8FF0
:103A000023B1BDE808400020FFF7B0BFBDE8084083
:103A1000012015F037BD00BF981600208816002041
:103A200010B5074C23782BB94FF4A57027F016FC7E
:103A300001232370BDE81040002015F023BD00BF16
:103A400053810020094BBFF35B8F53E8002F22F016
:103A5000020143E800100028F7D1BFF35B8FD307C2
:103A600002D4012015F05ABD704700BF98160020FF
:103A70007FB500220123CDE9022304ABCDE9043355
:103A8000094ACDF800D06B46CDF804D020F084F977
:103A9000002805DB4FF48042002368461CF044FBFD
:103AA00007B05DF804FB00BF6B3D0200024AC3B2E1
:103AB0001C2003FB0020704748160020094BBFF371
:103AC0005B8F53E8002F42F0010143E8001000280B
:103AD000F7D1BFF35B8F930702D4012015F0D2BC5E
:103AE000704700BF98160020094BBFF35B8F53E867
:103AF000002F22F0010143E800100028F7D1BFF3A6
:103B00005B8F930702D4012015F008BD704700BFFA
:103B1000981600202DE9F8433A49BFF35B8F06461B
:103B2000012251E8003F41E800200028F9D1BFF30D
:103B30005B8F33B9344935484B60CB608A601FF0E6
:103B4000DEF9731E012B32D8012E07D14FF08043CE
:103B5000D3F81C3403F00303012B28D027F078FBA3
:103B6000044618B92A4B1B78002B44D14FF0200390
:103B7000EFF3118583F31188BFF36F8F0124254F75
:103B8000DFF89480DFF894904FF08042D2F8183438
:103B9000D2F81824D2030CD503F00303012B01D073
:103BA000012E06D10CB385F31188BFF36F8FBDE8EA
:103BB000F883ACB1284600F0EFFC4FF08042D2F819
:103BC0001835002BE0D139680029DDD03B603B6817
:103BD0000123C2F81835C8F88031C9F80030D3E79E
:103BE000002121201CF052FAE7E74FF08043022227
:103BF000C3F80423DBE74FF080430222C3F8082315
:103C00000546BCE79C1600203816002064160020EC
:103C10005B8700200401004000E100E00800004054
:103C200008B5084659B1064B06490748C91AC908DC
:103C3000890141F001011FF0FBFC6FF0850008BD18
:103C4000A8BF0200A0C002004CE10200102908B584
:103C50000CD0074B07490848C91AC908890141F027
:103C600001011FF0E5FC6FF0850008BD0020FCE7B6
:103C7000A8BF0200A0C0020079E1020073B5C468C9
:103C8000064692481BF076FB206070B99049914B34
:103C90009148C91AC908890141F001011FF0C8FC07
:103CA0004FF0FF35284602B070BD8C4A8C4BC4E9FA
:103CB00001238C481BF05EFB0023636140F2191363
:103CC000238304F110032061E36086481BF052FB5C
:103CD000E06140B97E497F4B8348C91AC908890110
:103CE00041F00101DAE741F201621A2120F06EF899
:103CF00060B17749774B7D48C91AC908890141F0FD
:103D000001011FF095FC6FF00405CBE775481BF02F
:103D100031FB206240B96E496E4B7548C91AC9081B
:103D2000890141F00101B9E740F20122122120F09E
:103D30004DF8054640B16649664B6E48C91AC90838
:103D4000890141F00101DCE7002121201CF09EF9EE
:103D5000E06901221A2120F056F80021C5201CF04C
:103D600095F9E0692A461A2120F04DF800214FF418
:103D700024701CF08BF9304620F0A0F820465E4AF3
:103D80000423DF2120F06AF820465C4A0523B22193
:103D900020F064F80DF1070220460123BA218DF8C6
:103DA000075020F05BF80F238DF807300DF1070264
:103DB00020460123C62120F051F835238DF8073025
:103DC0000DF1070220460123B72120F047F81923FF
:103DD00001268DF807300DF1070220460123BB2193
:103DE00020F03CF833460DF107022046C2218DF841
:103DF000076020F033F812238DF807300DF1070229
:103E000033462046C32120F029F820238DF80730BF
:103E10000DF1070233462046C42120F01FF820464A
:103E2000374A0223D02120F019F833460DF107025A
:103E3000204636218DF8075020F010F805238DF824
:103E400007300DF10702334620463A2120F006F8EC
:103E50002C238DF807300DF1070233462046C02190
:103E60001FF0FCFF33460DF10702204626218DF896
:103E700007601FF0F3FF2B462A46204621211FF042
:103E8000EDFF20461F4A0E23E0211FF0E7FF2046EA
:103E90001D4A0E23E1211FF0E1FF20461B4A0223A9
:103EA000B0211FF0DBFF2046194A0323B1211FF088
:103EB000D5FF2B462A46112120461FF0CFFF0021B7
:103EC00040F65D701CF0E2F8ECE600BF9DE10200F8
:103ED000A0C00200A8BF0200A3E1020000127A0005
:103EE0000001010008DF0200C4E10200EEE102006F
:103EF0000BE2020035E202007D0A00208F0A00205A
:103F0000A20A0020940A0020810A0020A40A0020AE
:103F1000A60A0020044A1368C81A20F07F40034410
:103F200013601CF071BB00BFAC1600202DE9F047F8
:103F3000860006F1804600F1500406F58836A4009C
:103F4000DFF87C80D6F84035A4B204F180444FF409
:103F5000803721F07F4504F588348740C146D8F882
:103F600004A5A3EB0A0323F07F432AF07F42012B31
:103F7000C6F8402502D1132027F070F90AF1020299
:103F8000AB1A23F07F43B3F5000F88BF154600231B
:103F900023602368C9F8447325F07F43C6F8403591
:103FA000D9F804359A4506D0EB1A023B23F07F433B
:103FB000B3F5000F01D8BDE8F0872B46CFE700BF6F
:103FC00000100140F8B5104E104F0025104B002096
:103FD0001C681A4605B1F8BDD6F80413C903FAD512
:103FE00039680029F7D03D6039684FF48031C6F850
:103FF0004813D6F8401501251CB15A681860A0472F
:10400000E4E71460E7E700BF001001404011014001
:10401000A016002038B5104D00244FF48033C5F8A9
:104020000845C5F804330D4B4FF40032C3F8802126
:1040300001212246112000F041FA112000F00CFA73
:10404000074A01231360074A2B6002201360FFF721
:1040500061FD204638BD00BF0010014000E100E0D6
:1040600008100140A8160020134BB0F1FF3F08BF15
:104070001846013800281CDD9842A8BF18460F4B8F
:10408000D3F804250E4B1968521A12F4000F22F0CF
:104090007F4318BF00200B4A013303440A481060D5
:1040A00000205060044A934294BFC9188918FFF752
:1040B0003DBF0020E3E700BFFFFF7F00001001408D
:1040C000AC160020A0160020153F00004FF0200283
:1040D000EFF3118382F31188BFF36F8F064AD2F892
:1040E0000405064A1268801A20F07F4083F3118885
:1040F000BFF36F8F704700BF00100140AC16002067
:104100004FF02003EFF3118283F31188BFF36F8F19
:104110000649074B0868D3F8043582F31188BFF3CA
:104120006F8F1B1A23F07F4318447047AC16002092
:104130000010014010B5114C114AA2610323C4E9DB
:104140000433104BE36122664FF480630E4A0F493B
:104150002362626600231022E01DA3626362E362B1
:104160002367E3666367A26627F04EFB0849204693
:1041700027F04AFB2023A37110BD00BFB01600201A
:104180006FE20200648100205481002078E2020086
:104190007CE202002DE9F84F234F4FF0180B144634
:1041A0000BFB00720646936A556AAB42884634D8C8
:1041B000D2F820A0AAEB050909F1FF32944211D8E8
:1041C0004FF0180906FB09933B44224658684146C4
:1041D000284427F0EEFA09FB06762C44746201208D
:1041E000BDE8F88F13449C421BD800FB0BBBBB44BB
:1041F0004A46DBF804002C44284427F0DAFAB4EBF2
:104200000A0406D0DBF80400224608EB090127F077
:10421000D0FA182000FB0676E0E7013B5B1BA342C7
:10422000CED20020DCE700BFB0160020034B1822DE
:1042300002FB00339A6A586A801A7047B016002051
:10424000F0B5264E07460C460FCE8DB001AD0FC51A
:104250000FCE0FC596E8070085E807003846002F07
:1042600038D0002C38D0381F2146024610344B7805
:104270000D781B0443EA0563CD782B438D78043118
:1042800043EA05238C4242F8043FF0D1144C042148
:104290008A07036916D1C3F30742A55C1A0EA25C14
:1042A00042EA0562C3F30725DBB2655DE35C42EADF
:1042B000054242EA03220CAD21F003032B4453F8DC
:1042C0002C3C534050F8042F013153402C290361FA
:1042D000DED101200DB0F0BD2046FBE710C1020089
:1042E00083E202002DE9F043154689B00646002816
:1042F00058D0002959D0002A59D010230A466846C0
:1043000019461FF05DFE294668462A4C1FF070FED4
:1043100005F11007A146A035E8466A46102311783A
:10432000013B615C02F8011BF9D168461FF0A5FE54
:10433000694604A81FF0DAFE01A905A81FF0D6FE01
:1043400002A906A81FF0D2FE03A907A81FF0CEFEFF
:10435000102319460DEB030268461FF031FE394663
:10436000684610371FF044FEAF42D5D1102498F8AC
:104370000030013C19F8033008F8013BF7D16846DA
:104380001FF07BFE294668461FF032FE10231946B7
:104390006A4630461FF014FE6846102221461FF080
:1043A0001CFE012009B0BDE8F0830846FAE710467C
:1043B000F8E700BF83E202000A4A0B4993680968E4
:1043C000C3F880100949D8674B6843F080534B60AD
:1043D000002383F31188BFF36F8F9368D3F88000B5
:1043E000704700BF68400020B4D9020000ED00E033
:1043F0000F498A684FF038001044EFF3098C80E8C9
:10440000F01F202080F31188BFF36F8F094F4FF00A
:1044100000668A6A8A603E60D06F0023D36780F3AB
:10442000118802F1380090E8F01F8CF3098870477A
:104430006840002004ED00E01EF0040F0CBFEFF315
:104440000880EFF30980816911F8021C0229FFD06E
:1044500001B51FF08EFF01BD43B2002B08DB012226
:1044600000F01F0002FA00F05B09024A42F8230044
:10447000704700BF00E100E043B2002B0DDB0122DA
:104480005B0900F01F0002FA00F02033034A42F8F3
:104490002300BFF34F8FBFF36F8F704700E100E041
:1044A000054B420900F01F0053F82220012303FAB4
:1044B00000F01040704700BF00E100E043B2002B65
:1044C000A8BF03F1604301F10101B8BF064B4FEAF9
:1044D0004111ACBF03F5614300F00F00C9B2B4BF96
:1044E000195483F80013704714ED00E008B572B654
:1044F000044B586A18B100225A621AF0D9FF62B60A
:1045000008BD00BF6840002042F8203C009B42F8F4
:104510001C3C0A49019B42F8183C029B42F8143C9F
:1045200021F001014FF0807342F8043C42F8081C6E
:104530000023203A8265C367704700BF0330020042
:1045400008B506460D46144600F01AFB074B9E6060
:10455000204685F30988002163B681F31188BFF3F3
:104560006F8F002200231EF04CFD00BF684000202A
:10457000014910220A60704710ED00E072B6404019
:1045800080F31188BFF36F8FBFF34F8F30BF62B6D8
:10459000BFF36F8F704700BF72B6494081F3118837
:1045A00020BF80F3118862B6704700BF73B506461E
:1045B0000C4601B3134B144D1448ED1AED08AD0130
:1045C00045F00105ADF80050D1E9012309681FF05D
:1045D00069F8ADF80050D4E90423E1680C481FF0F5
:1045E00061F8E1690B482A461FF02FF8A1690A48D3
:1045F0002A461FF02AF82146304602B0BDE8704036
:104600001AF0F8BEA8BF0200D8C0020083E302007F
:10461000B2E30200E1E30200F0E3020030BFFFF783
:10462000FDBF00BF0E4A08B50E4B22F07F029A6014
:10463000BFF34F8FBFF36F8FD3F8882022F470023F
:10464000C3F88820EFF3148323F0040383F3148862
:104650001AF078FF1BF0DEFE00F064FA1AF096FF05
:104660000000000000ED00E001B572B60B4A506A90
:1046700000281EBF002151621AF01AFF62B6EFF344
:104680000580A0F110004FEAC0000549014409C9A6
:104690009847BDE8014003490847000068400020F2
:1046A000D8BD0200094B00001FF0E7FF202080F377
:1046B000118808484FF40061401880F30988EFF32F
:1046C00014800221084380F31488BFF36F8FFFF733
:1046D000A9FF0000C0A10020EFF30880EFF30981DB
:1046E00001B5724600F034F901BD00BF70B5234B2F
:1046F000234C244D2448E41AE408A40144F00106A4
:1047000031461EF095FFAA6A930103D51F48314632
:104710001EF08EFFAB6ADD0104D51D4844F0010197
:104720001EF086FF174DAA6A100304D5194844F0FD
:1047300001011EF07DFFAB6A590304D5164844F011
:1047400001011EF075FF0F4DAA6A920304D51348AC
:1047500044F001011EF06CFFAB6ADB0304D5104886
:1047600044F001011EF064FF064A936A6FEA0343B6
:104770006FEA13439362002070BD00BFA8BF020020
:10478000D8C0020000ED00E01EE4020036E40200A2
:1047900049E4020063E4020081E40200A6E40200AE
:1047A000C0E402002DE9F041284B294C294DE41AC0
:1047B000E408A40144F0010807460E462648414695
:1047C0001EF036FFAA6AD00603D5244841461EF0E3
:1047D0002FFFAB6A190704D5214844F001011EF0F0
:1047E00027FF1C4DAB6A9A0712D544F001084146D9
:1047F0001C481EF01DFF696BAB6A1B0608D51A48E2
:1048000042461EF022FF1FB1AB6A23F08003AB6269
:10481000104DAA6AD00704D5144844F001011EF0D7
:1048200007FFAB6A990604D5114844F001011EF058
:10483000FFFE084B9A6AD20658BF9A6A9A6A00200D
:1048400042F0FF029A623070BDE8F081A8BF02001A
:10485000D8C0020000ED00E0EBE4020001E5020038
:1048600034E5020047E502005FE5020075E502005D
:1048700094E502002DE9F0412A4B2B4C2B4DE41A14
:10488000E408A40144F0010807460E4628484146C2
:104890001EF0CEFEAA6AD10403D5264841461EF07A
:1048A000C7FEAB6A1A0504D5234844F001011EF087
:1048B000BFFE1E4DAB6A9B0512D544F001081F4890
:1048C00041461EF0B5FEA96BAB6A180408D51C481A
:1048D00042461EF0BAFE1FB1AB6A23F40043AB623E
:1048E000124DAB6A590504D5164844F001011EF07B
:1048F0009FFEAB6ADA050DD5134844F001011EF0A6
:1049000097FE0A4A936A002043F47F439362307013
:10491000BDE8F081AB6A9B04F3D50C4844F001017B
:10492000EDE700BFA8BF0200D8C0020000ED00E024
:10493000C3E50200D9E5020034E50200EAE5020021
:1049400003E6020018E6020033E6020094E50200E6
:104950002DE9F0410D465A494F688AB0C7F3080463
:10496000002686F31188BFF36F8F02F07F41B1F10B
:104970007F4F0DD102F00C0108290BD15149524B48
:104980005248C91AC908890141F001011EF050FEC0
:10499000354603E0120701D40546012600238DF8B1
:1049A0000730E31E092B71D8DFE803F0055F633C95
:1049B000707070707067444B424F4548FF1AFF0893
:1049C000BF0147F0010739461EF032FE3C4BDC6A5E
:1049D0004FF0000814F002048DF8078005D03D4820
:1049E00039461EF025FE00241FE0DB6A5B001CD563
:1049F000394839461EF01CFE384B1B782BB10DF19F
:104A000007010120FFF7CEFE0EE0354B1B782BB1DE
:104A10000DF107010120FFF72DFF05E0314B1B8849
:104A20009BB213B1FFF762FE04469DF80730CBB985
:104A30002B4603F1200702AD186859682A4603C2C5
:104A40000833BB421546F7D1099B9EB3C3F3080256
:104A500022B96FEA53236FEA4323099302A9204640
:104A6000FFF7A4FD0AB0BDE8F0810DF107010020B9
:104A7000C8E70DF107010020CDE71249124B1A4893
:104A8000C91AC908890141F00101AAE70E4A0D4B74
:104A9000164817499B1ADB0817F4F87F4FEA83136F
:104AA00018BF014643F001031248A4F110021EF0A2
:104AB000E0FD98E723F4FF7323F00103CDE700BF87
:104AC00000ED00E0D8C00200A8BF02004BE60200E3
:104AD00076E602008DE60200AEE6020028ED00E078
:104AE00029ED00E02AED00E0CDE6020018E7020023
:104AF00003E7020031E70200024A536943F0100362
:104B00005361704700ED00E0044B9968986A884251
:104B100003D003494FF080520A607047684000207C
:104B200004ED00E0044800232021C2180133272BA4
:104B300082F80013F9D1704700E100E008B50E4B90
:104B40009B68834207D1EFF3058393B10B4A536807
:104B500043F0805353601BF0EBF84FF02003EFF36A
:104B6000118083F31188BFF36F8FBDE8084026F0F2
:104B70008DBA1BF0D5FB00BF6840002000ED00E0BF
:104B8000024B034A0348012100F0A2B800000120B3
:104B90000000002050C20200F8B5284F0E46002148
:104BA000B14214DA4468002C45D0C3B104F1FF3C93
:104BB00014EA0C0F0DD0224A224B2348D21AD208F5
:104BC000920142F001021EF040FD6FF01502104606
:104BD000F8BD1F2CEFD905681CEA050FEBD1202C7E
:104BE000D5B2D0F808C0026816D9B4F1004F15D874
:104BF000013CB4FA84F4C4F11F046400072D4CEAAC
:104C000004040DD90E4A0F4B1048D21AD208920153
:104C100042F001022946D6E70824EFE73E24EDE7FB
:104C200022F01F022A4342F0100244F00104BD604A
:104C3000FA603C616A1C01310C30B1E790ED00E094
:104C4000C8C00200A8BF020048E702006BE70200EC
:104C5000034B05225A60BFF34F8FBFF36F8F70472E
:104C600090ED00E0BFF35F8F014B00225A60704768
:104C700090ED00E013490868082810B51ED8FFF72A
:104C8000F1FF114C49680022904201F10C0105D15D
:104C90000E4B1870FFF7DCFF002010BDA26051F82A
:104CA0000C3C23F01F03134343F01003E36051F85F
:104CB000043C43F0010323610132E5E74FF0FF308C
:104CC000EBE700BF5CC2020090ED00E064850020CD
:104CD00010B5034C01232278FFF75EFF207010BD52
:104CE00064850020F8B50A4F0D46461EC0F1010448
:104CF000A3199D4201DC2846F8BD73780A2B02D126
:104D00003B680D2098473B6816F8010F9847EFE77E
:104D10006403002010B54FF0FF3204464FF0FF331C
:104D20000A481EF05FF90A490B68E018094CC4F103
:104D3000005202F5803290423ABFE41808604FF00A
:104D4000FF3402481EF049F9204610BDE80B002050
:104D500058170020CCB7002008B51D210448FFF7E4
:104D6000C1FF404080F311884FF0030002DF00BF15
:104D700091E702000146C1F10401C9B210B503294F
:104D800002981CD80E4B0F4A9B1ADB0801F007044F
:104D9000042944EA831409D1FDF71AFF2346024689
:104DA000BDE81040084909481EF063BCFDF710FF3C
:104DB00022460146BDE8104005481EF046BC10BD25
:104DC000C0C00200A8BF020067E80200AFE702000F
:104DD00029DF020010B590B03B481AF0CBFA044628
:104DE00070B93A4B3A493B48C91AC908890141F0A0
:104DF00001011EF01DFC6FF01204204610B010BD22
:104E0000354818F0A3FB15F099F904A825F0A9F886
:104E1000A3680F94DB69694620469847BDF80030C7
:104E2000F02B24D8ADF810300024BDF80230F02B60
:104E30002AD8ADF812302948294905904FF49063DB
:104E4000002225F0A5F8002CD7D104A800F052F8D4
:104E5000044630B31D4B1E492248C91AC9088901AE
:104E600041F001011EF0E4FB6FF08504C5E7174B2C
:104E700017491D48C91AC908890141F001011EF0EE
:104E8000D7FB6FF08504D0E7104B11491748C91ABA
:104E9000C908890141F001011EF0CAFB6FF08504C9
:104EA000C9E704A818F0B4FA0028A6D1074B0849AE
:104EB0000F48C91AC908890141F001011EF0B8FB69
:104EC0004FF0FF3499E700BF0FDF0200A8BF0200D8
:104ED000C0C00200B6E70200754D00005C2900204A
:104EE0005C17002028E80200D0E70200FDE702007E
:104EF0003FE802001FB50446C06A83686946DB6963
:104F000098479DF80C30082B0AD86BB1013B002262
:104F1000072B09D8DFE803F0172208220808080F3A
:104F2000102B15D0202B13D00023C4E90333636169
:104F30006FF0850005E00C4BC4E903320B4B636155
:104F4000002004B010BD0A4BC4E90332094BF6E758
:104F5000094BE3600020C4E90400F2E7074BE3607B
:104F6000074B2361074BEAE7E545020031460200A3
:104F70003B45020089450200EF44020095430200D0
:104F8000A74402000F4402004FF02002EFF3118308
:104F900082F31188BFF36F8F044A0121C2F84015D4
:104FA00083F31188BFF36F8F0020704700E001404A
:104FB00020B1034B800143F001031847704700BF45
:104FC00080C102000E4B402970B528BF40210D4C16
:104FD00046181D46B04203F1020304D1002305F830
:104FE0001130074870BD02781209A25C03F8022C48
:104FF00010F8012B02F00F02A25C03F8012CE9E784
:1050000065850020C8E8020030B503788BB00446FF
:1050100007AD032B21D8DFE803F0021A1C1E12494A
:10502000284626F0F1FB63780493A3780393E37892
:10503000029323790193637900930C4AA379059530
:105040001E210B481DF0ECFE09480BB030BD09498C
:10505000E6E70949E4E70949E2E7094A0A2128465F
:105060001DF0DEFEDFE700BF83E80200A5E80200D6
:10507000E68500208AE8020091E802009BE8020031
:10508000A1F5020010B50D4B0D4C0E48E41AE408D2
:10509000A40144F003011EF0CBFA0B490B48CA7976
:1050A000C2EBC202FEF73EFA014630B144F0010203
:1050B0000748BDE810401EF0C8BA10BDA8BF0200E6
:1050C00080C00200E0E8020000000020EAE80200E0
:1050D000F0E802002DE9F34105461746984660B90D
:1050E0003449354B3548C91AC908890141F00101D5
:1050F0001EF09EFA6FF001041CE001A91EF0AAFD4B
:105100002F4902460646284626F086FB044690BBF9
:10511000BFF35B8F2B4E3368BFF35B8F5B070DD5FF
:105120002449254B2848C91AC908890141F00201C0
:105130001EF07EFA204602B0BDE8F081A6F194058B
:10514000072229464046B84706280FD81A4B194966
:105150001E48C91AC908890141F001011EF068FA08
:1051600046F8944CEC71C5F80340E3E70723B0FB25
:10517000F3F0E871DEE716493246284626F04CFB8C
:1051800004460028B6D1134941224046B847011EC3
:105190000ADA094B074A1048D21AD208920142F0A3
:1051A00001021EF052FAC5E70C48014481F818418B
:1051B000C0E700BF80C00200A8BF02000BE90200E8
:1051C00098E80200940000202CE9020050E9020057
:1051D00067EF02001801002075E9020000000020BE
:1051E0002DE9F04188B09C79DDF838805D791E7931
:1051F000DF7893F802C093F801E01B78B8F1000F54
:105200000ED0CDE90638CDE904CE1346CDE90267CC
:10521000CDE90045084A1DF003FE08B0BDE8F08165
:10522000CDE905E3CDE9037C1346CDE90156034AF8
:1052300000941DF0F5FDF0E7A7E90200CBE90200BC
:105240000949BFF35B8F51E8003F43F0010241E899
:1052500000200028F7D1BFF35B8FDB0703D403489E
:10526000083925F099BE70477003002058140020BB
:1052700038B51D4C94F8183113B91C4801F02AFDBB
:10528000E3799BB901F0D2FDE3797BB901F078FEB7
:10529000044658B11649174B1748C91AC90889015D
:1052A00041F001011EF0C4F9204638BD134DBFF393
:1052B0005B8F2B68BFF35B8F9B0701D401F070FA03
:1052C000BFF35B8F55E8004F24F4004345E80032FC
:1052D000002AF7D1BFF35B8F14F40044E4D0FFF74A
:1052E000AFFF0024E0E700BF00000020E2DC020086
:1052F00080C00200A8BF0200ECE902009400002078
:1053000010B5FEF719FA044650B1064A064BD21AF8
:10531000D2089201014642F0010204481EF095F9BC
:10532000204610BD80C00200A8BF020010EA0200A3
:10533000F0B50B4601780129024615D002292BD081
:1053400089B91C4C1D4604F11007206861682E467F
:1053500003C60834BC423546F7D1528821783170F3
:105360005A73120A9A73F0BD124C1D4604F11007CD
:10537000206861682E4603C60834BC423546F7D122
:10538000526821783170C2F307215A73120CDA7314
:10539000120A99731A74E6E700F110051068516853
:1053A0001C4603C40832AA422346F7D11278227061
:1053B000D9E700BF44EA020038B50546054820F0A9
:1053C00013FD044620B10021083020F032FD257580
:1053D000204638BD000D002070B502460B464FF048
:1053E0002001EFF3118581F31188BFF36F8F0C4813
:1053F0000021D0F8F840C0F8F81085F31188BFF309
:105400006F8F24B9BDE870400120FFF7D5BF01239D
:1054100004F108002375A18120F00BFD204670BD2A
:105420000000002070B504460F2C0D4610461946AA
:1054300005D80D2C12D9BDE87040FFF7CDBF132C55
:105440000CD10B4820F0D0FC044628B100210830D4
:1054500020F0EFFC01232375204670BD02460B4669
:105460000DB10448EEE7BDE870400120FFF7A4BF8E
:10547000280D0020880C00200549064A836806484C
:10548000521AD2089201197842F002021EF0DDB8D9
:10549000A8BF020068C002005CEA0200836810B581
:1054A0001C88204602F0A6FA60B9084A084B094851
:1054B000D21AD2089201214642F00102BDE8104002
:1054C0001EF0C3B8BDE810401FF09EBB68C00200CC
:1054D000A8BF020084EA020038B583681A78DAB9F6
:1054E000B3F80150284602F085FA044660B90B4B28
:1054F0000B4A0C48D21AD2089201294642F0010206
:10550000BDE838401EF0A1B8012102F07FFA204624
:10551000BDE838401FF078BB38BD00BFA8BF02000F
:1055200068C00200A8EA0200F8B586683578F5B9C7
:10553000B6F80170384602F05DFA044660B90C4BCB
:105540000C4A0D48D21AD2089201394642F00102A3
:10555000BDE8F8401EF079B8F3784372294602F0AE
:1055600055FA25802046BDE8F8401FF04DBBF8BD38
:10557000A8BF020068C00200A8EA020008B5012125
:10558000083020F0BFFC064B064A01780648D21AC4
:10559000D2089201BDE8084042F001021EF055B861
:1055A000A8BF020068C00200CEEA020010B50A4A95
:1055B0000A4C81898068A41AFFF704FDFDF708FBF7
:1055C000E408A40144F00204014622460448BDE870
:1055D00010401EF03AB800BFA8BF020068C0020029
:1055E000F0EA020073B58568B5F80160304602F054
:1055F00001FA044660B91F4A1F4B2048D21AD2084C
:10560000920142F0010231461EF01FF802B070BD57
:105610002B78BBB92A79EB7843EA0223A0F89E30B5
:10562000AA796B7943EA0223A0F8A430EB792A7AAD
:1056300043EA0223A0F8A63001F0F8FF20461FF04D
:10564000E3FAE3E71A2BF9D1C378012BF6D14FF433
:10565000806104301FF016F94305EFD4D4F8A03070
:1056600000936946D4F8A8300193204602F01CFE4E
:10567000E4E700BF68C00200A8BF020084EA02009D
:10568000F8B50A4F06460025FB79ECB2A34202D8D2
:105690006FF0010408E0C4EBC401394430461FF048
:1056A00020F901350028EFD12046F8BD0000002088
:1056B000436837B50446580502D5002003B030BD15
:1056C00022690AB1D907F8D51A4D2078EB798342BF
:1056D000F3D9C0EBC0000023694628440093CDF8FD
:1056E00003301FF0FEF80028E7D06068C20706D438
:1056F00095F83430082B02D8A3689F2BDDD910F021
:10570000300F02D02369002BD7D0C30601D4236900
:1057100043B9D4E902239A42CFD81F2ACDD9B3F591
:10572000804FCAD800F46030B0F5603018BF012057
:10573000C4E700BF000000202DE9F043074685B014
:105740009079344E8846144612F0B0FD864216D049
:10575000314B324DA0790097ED1AED08019012F00F
:10576000A5FDAD0145F00205CDE902062B462C480A
:10577000042269461DF0B2FF05B0BDE8F083204663
:1057800012F09CFD274D4FF00C0909FB00535B887C
:10579000BB4211D0204B214E2046F61A12F08EFD4E
:1057A000F60809FB0050B60146F0020642881E4882
:1057B000334639461DF05DFF204612F07FFD0C2672
:1057C00006FB005043686BB1B8F1000F0AD12046C8
:1057D00012F074FD06FB00504368D3E900011A7A09
:1057E0001FF06EF8204612F069FD0C2606FB0050F3
:1057F0008368002BC0D0204612F060FD704305F88E
:105800000080204612F05AFD06FB0055A8681AF0E9
:1058100065FCB1E7D80C0020A8BF020068C00200F8
:1058200014EB02008029002049EB020073B502EB63
:10583000C303054608461178A9421AD008329A4295
:10584000F9D18689164B174C80683146E41AFFF768
:10585000B9FBFDF7BDF9E408A40144F002040346D6
:10586000ADF800401048324629461DF01BFF02B03B
:1058700070BD818953788B420DD9094A094B0B4879
:105880009B1ADB089B0143F001032A4602B0BDE8E6
:1058900070401DF0EEBE536802B0BDE8704018477E
:1058A000A8BF020068C002009EEB02007CEB020071
:1058B00010B501210446083020F024FB2146034A9C
:1058C0000078BDE810400723FFF7B0BFACC202006C
:1058D00013B50C4C0146052294F8330002F0C6F9CA
:1058E00070B9094B18689A8800909B79ADF804202C
:1058F00094F833008DF806300422694602F0B6F9B8
:1059000002B010BD0000002060C1020030B5174D8C
:10591000C0EBC00085B005440C46A9B1002302A924
:1059200020460293CDF80B301EF0DBFF60B121461C
:1059300028461EF0DEFF0E481EF09EFF830701D5AD
:10594000FFF77EFC05B030BD68461EF066FF684676
:10595000FFF796FE0028F7DA694628461EF0C9FFD1
:10596000002CE8D029462046E3E700BF00000020D5
:10597000940000202DE9F84F3D4D3E4BD0F80880B3
:10598000DFF8FCA0ED1A0026ED08B14698F80030CB
:105990009E4201DBBDE8F88F08EB8603B3F801B047
:1059A000B3F80370584602F025F80446D8B100F168
:1059B000280B002F33D04FF02003EFF3118283F335
:1059C0001188BFF36F8FE369B3B1013BE36182F3E9
:1059D0001188BFF36F8F204601F024FE013F1AF0BB
:1059E0007DFBBFB2E5E7AA01234842F00102594618
:1059F0001DF02BFE0136C9E763692BB1A169186858
:105A000060618B4208BFA06182F31188BFF36F8F82
:105A10004BB9A901194841F001011DF009FE2046CA
:105A20001FF0F2F8E6E74FF02002EFF3118182F366
:105A30001188BFF36F8FDA68E261C3F80090626A81
:105A4000C3F80C908AB9C4E9083381F31188BFF315
:105A50006F8F012104F130001EF014FFC307BAD488
:105A60005946504625F098FAB5E713606362ECE7B3
:105A700068C00200A8BF0200C0EB0200DCEB02001D
:105A800058140020F0B5284B85B005460F46017824
:105A900003F128001EF0F0FE10F0400F1A4608D067
:105AA00003F128001EF0E8FEC00502D51B7E8B42E4
:105AB00031D12E46694616F8093B82F8333030461C
:105AC00000230093CDF803301EF00BFF0446287826
:105AD00064B1314602F0A4F80446F8B9287831469A
