:10000000A8AB0020857B000027920200C17B000086
:10001000C17B0000C17B0000C17B0000000000002C
:10002000000000000000000000000000F578000063
:10003000C17B000000000000A97800008D8D020047
:10004000457B000015960100457B0000457B0000C4
:10005000457B0000457B0000457B0000457B0000A0
:10006000457B0000457B0000457B0000457B000090
:10007000457B0000457B0000457B0000457B000080
:10008000457B0000457B0000457B0000457B000070
:10009000457B0000457B0000457B0000457B000060
:1000A000457B0000457B0000457B0000457B000050
:1000B000457B0000457B0000457B0000457B000040
:1000C000457B0000457B0000457B0000457B000030
:0C00D000457B0000457B0000457B0000E4
:0400DC00FFFFFFFF24
:1000E00001F0FF01102A2BDB10F0070F08D010F8E9
:1000F000013B013A8B422DD010F0070F42B3F6D1ED
:10010000F0B441EA012141EA014122F007047FF005
:1001100000070023F0E80256083C85EA010586EA5C
:10012000010685FA47F5A3FA87F586FA47F6A5FA98
:1001300087F68EB9EED1F0BC01F0FF0102F00702A4
:1001400032B110F8013B013A83EA010313B1F8D14F
:100150000020704701387047002D06BF3546033830
:10016000073815F0010F07D1013015F4807F02BF69
:10017000013015F4C03F0130F0BC0138704700BFBA
:1001800081F0004102E000BF83F0004330B54FEA48
:1001900041044FEA430594EA050F08BF90EA020FB5
:1001A0001FBF54EA000C55EA020C7FEA645C7FEA48
:1001B000655C00F0E2804FEA5454D4EB5555B8BF6B
:1001C0006D420CDD2C4480EA020281EA030382EADC
:1001D000000083EA010180EA020281EA0303362D6E
:1001E00088BF30BD11F0004F4FEA01314FF4801C41
:1001F0004CEA113102D0404261EB410113F0004F53
:100200004FEA03334CEA133302D0524263EB430309
:1002100094EA050F00F0A780A4F10104D5F1200EA7
:100220000DDB02FA0EFC22FA05F2801841F1000102
:1002300003FA0EF2801843FA05F359410EE0A5F1D6
:1002400020050EF1200E012A03FA0EFC28BF4CF007
:10025000020C43FA05F3C01851EBE37101F00045BD
:1002600007D54FF0000EDCF1000C7EEB00006EEBCA
:100270000101B1F5801F1BD3B1F5001F0CD3490854
:100280005FEA30004FEA3C0C04F101044FEA4452AB
:1002900012F5800F80F09A80BCF1004F08BF5FEA32
:1002A000500C50F1000041EB045141EA050130BD12
:1002B0005FEA4C0C404141EB0101013C28BFB1F524
:1002C000801FE9D291F0000F04BF01460020B1FA6F
:1002D00081F308BF2033A3F10B03B3F120020CDA42
:1002E0000C3208DD02F1140CC2F10C0201FA0CF020
:1002F00021FA02F10CE002F11402D8BFC2F1200C85
:1003000001FA02F120FA0CFCDCBF41EA0C0190403A
:10031000E41AA2BF01EB0451294330BD6FEA040483
:100320001F3C1CDA0C340EDC04F11404C4F120026E
:1003300020FA04F001FA02F340EA030021FA04F380
:1003400045EA030130BDC4F10C04C4F1200220FAD7
:1003500002F001FA04F340EA0300294630BD21FA15
:1003600004F0294630BD94F0000F83F4801306BFDB
:1003700081F480110134013D4EE77FEA645C18BFCF
:100380007FEA655C29D094EA050F08BF90EA020F66
:1003900005D054EA000C04BF1946104630BD91EA5E
:1003A000030F1EBF0021002030BD5FEA545C05D161
:1003B0004000494128BF41F0004130BD14F58004A0
:1003C0003CBF01F5801130BD01F0004545F0FE4114
:1003D00041F470014FF0000030BD7FEA645C1ABF49
:1003E000194610467FEA655C1CBF0B46024650EA80
:1003F000013406BF52EA033591EA030F41F40021AC
:1004000030BD00BF90F0000F04BF0021704730B531
:100410004FF4806404F132044FF000054FF0000106
:1004200050E700BF90F0000F04BF0021704730B5C7
:100430004FF4806404F1320410F0004548BF40429C
:100440004FF000013EE700BF42004FEAE2014FEAF1
:1004500031014FEA02701FBF12F07F4393F07F4FCC
:1004600081F06051704732F07F4208BF704793F0CF
:100470007F4F04BF41F40021704730B54FF46074E2
:1004800001F0004521F000411CE700BF50EA0102E5
:1004900008BF704730B54FF000050AE050EA01028E
:1004A00008BF704730B511F0004502D5404261EBFE
:1004B00041014FF4806404F132045FEA915C3FF43F
:1004C000D8AE4FF003025FEADC0C18BF03325FEADC
:1004D000DC0C18BF033202EBDC02C2F1200300FA8D
:1004E00003FC20FA02F001FA03FE40EA0E0021FAB2
:1004F00002F11444BDE600BF70B54FF0FF0C4CF4A0
:10050000E06C1CEA11541DBF1CEA135594EA0C0F51
:1005100095EA0C0F00F0DEF82C4481EA030621EA8C
:100520004C5123EA4C5350EA013518BF52EA0335C7
:1005300041F4801143F4801338D0A0FB02CE4FF079
:100540000005E1FB02E506F00042E0FB03E54FF0A9
:100550000006E1FB03569CF0000F18BF4EF0010EA1
:10056000A4F1FF04B6F5007F64F5407404D25FEA9D
:100570004E0E6D4146EB060642EAC62141EA555150
:100580004FEAC52040EA5E504FEACE2EB4F1FD0C92
:1005900088BFBCF5E06F1ED8BEF1004F08BF5FEA10
:1005A000500E50F1000041EB045170BD06F00046C2
:1005B00046EA010140EA020081EA0301B4EB5C046F
:1005C000C2BFD4EB0C0541EA045170BD41F4801167
:1005D0004FF0000E013C00F3AB8014F1360FDEBF8C
:1005E000002001F0004170BDC4F10004203C35DA68
:1005F0000C341BDC04F11404C4F1200500FA05F3EB
:1006000020FA04F001FA05F240EA020001F000428B
:1006100021F0004110EBD37021FA04F642EB060101
:100620005EEA430E08BF20EAD37070BDC4F10C042B
:10063000C4F1200500FA04F320FA05F001FA04F2EF
:1006400040EA020001F0004110EBD37041F10001DB
:100650005EEA430E08BF20EAD37070BDC4F12005E6
:1006600000FA05F24EEA020E20FA04F301FA05F24E
:1006700043EA020321FA04F001F0004121FA04F2F6
:1006800020EA020000EBD3705EEA430E08BF20EAC6
:10069000D37070BD94F0000F0FD101F00046400000
:1006A00041EB010111F4801F08BF013CF7D041EA82
:1006B000060195F0000F18BF704703F00046520086
:1006C00043EB030313F4801F08BF013DF7D043EA57
:1006D0000603704794EA0C0F0CEA135518BF95EA0D
:1006E0000C0F0CD050EA410618BF52EA4306D1D194
:1006F00081EA030101F000414FF0000070BD50EAB3
:10070000410606BF1046194652EA430619D094EA3C
:100710000C0F02D150EA013613D195EA0C0F05D126
:1007200052EA03361CBF104619460AD181EA03017A
:1007300001F0004141F0FE4141F470014FF0000032
:1007400070BD41F0FE4141F4780170BD70B54FF0CD
:10075000FF0C4CF4E06C1CEA11541DBF1CEA13554D
:1007600094EA0C0F95EA0C0F00F0A7F8A4EB05042F
:1007700081EA030E52EA03354FEA013100F0888026
:100780004FEA03334FF0805545EA131343EA1263EF
:100790004FEA022245EA111545EA10654FEA0026A4
:1007A0000EF000419D4208BF964244F1FD0404F55D
:1007B000407402D25B084FEA3202B61A65EB0305B9
:1007C0005B084FEA32024FF480104FF4002CB6EB76
:1007D000020E75EB030E22BFB61A754640EA0C00F6
:1007E0005B084FEA3202B6EB020E75EB030E22BF36
:1007F000B61A754640EA5C005B084FEA3202B6EB77
:10080000020E75EB030E22BFB61A754640EA9C0035
:100810005B084FEA3202B6EB020E75EB030E22BF05
:10082000B61A754640EADC0055EA060E18D04FEAC3
:10083000051545EA16754FEA06164FEAC30343EA63
:1008400052734FEAC2025FEA1C1CC0D111F4801F30
:100850000BD141EA00014FF000004FF0004CB6E729
:1008600011F4801F04BF01430020B4F1FD0C88BFC8
:10087000BCF5E06F3FF6AFAEB5EB030C04BFB6EBD3
:10088000020C5FEA500C50F1000041EB045170BDC6
:100890000EF0004E4EEA113114EB5C04C2BFD4EBF3
:1008A0000C0541EA045170BD41F480114FF0000E77
:1008B000013C90E645EA060E8DE60CEA135594EAF3
:1008C0000C0F08BF95EA0C0F3FF43BAF94EA0C0FF6
:1008D0000AD150EA01347FF434AF95EA0C0F7FF46B
:1008E00025AF104619462CE795EA0C0F06D152EABF
:1008F00003353FF4FDAE1046194622E750EA4106A3
:1009000018BF52EA43067FF4C5AE50EA41047FF4B3
:100910000DAF52EA43057FF4EBAE12E753B94AB983
:10092000002908BF00281CBF4FF0FF314FF0FF30F7
:1009300000F06EB9ADF1080C6DE904CE00F006F8D8
:10094000DDF804E0DDE9022304B070472DE9F0474B
:10095000089D0E4604468C46002B40F081808A425A
:10096000174645D9B2FA82F24AB1C2F1200106FA1D
:1009700002F320FA01F1974041EA030C94404FEA58
:10098000174E230CBCFBFEF6B9B20EFB16CC43EAA5
:100990000C4306FB01F0984209D9FB1806F1FF3C15
:1009A00080F01581984240F21281023E3B441B1AAE
:1009B000A4B2B3FBFEF00EFB103344EA034400FB89
:1009C00001F1A14209D93C1900F1FF3380F0018106
:1009D000A14240F2FE8002383C44641A40EA0640DC
:1009E00000211DB1D4400023C5E90043BDE8F087D4
:1009F00002B9FFDEB2FA82F2002A4FD1CB1B4FEAD6
:100A0000174E1FFA87F80121B3FBFEFC260C0EFBE4
:100A10001C3346EA034608FB0CF3B34207D9BE1960
:100A20000CF1FF3002D2B34200F2EB808446F61A9A
:100A3000A3B2B6FBFEF00EFB106643EA064408FBC9
:100A400000F8A04507D93C1900F1FF3302D2A045B8
:100A500000F2D2801846A4EB080440EA0C40C0E73C
:100A60008B4208D9002D00F0AF800021C5E90006B7
:100A70000846BDE8F087B3FA83F1002949D1B342B3
:100A800002D3824200F2BB80841A66EB030301208A
:100A90009C46002DAAD0C5E9004CA7E7C2F120036F
:100AA0009740D8409140DE404FEA174E08434FEA46
:100AB000104CB6FBFEF11FFA87F80EFB11664CEAEC
:100AC000064601FB08F3B34204FA02F409D9BE1941
:100AD00001F1FF3C80F08E80B34240F28B800239FE
:100AE0003E44F31A86B2B3FBFEF00EFB103346EA27
:100AF000034600FB08F3B34207D9BE1900F1FF3CDF
:100B000074D2B34272D902383E44F31A40EA01412A
:100B10007AE7C1F1200703FA01F422FA07F31C4334
:100B200020FA07F906FA01F34FEA144CFE4049EAAD
:100B300003094FEA1943B6FBFCFE1FFA84F80CFBCD
:100B40001E6643EA06460EFB08FAB24502FA01F2B7
:100B500000FA01F308D9A6190EF1FF3048D2B245C8
:100B600046D9AEF1020E2644A6EB0A061FFA89F911
:100B7000B6FBFCF00CFB106649EA064600FB08F8E1
:100B8000B04507D9A61900F1FF3C2DD2B0452BD9AD
:100B90000238264440EA0E40A6EB0806A0FB028974
:100BA0004E45C446CE4618D315D075B3B3EB0C02F0
:100BB00066EB0E0606FA07F722FA01F3CE401F4352
:100BC000C5E90076002111E7294628460EE766466A
:100BD000EDE6184601E74345E7D2B8EB020C69EBB6
:100BE00004040138A646E0E76046D3E760468CE798
:100BF0008646B9E7614674E702383C442BE708466D
:100C000047E7ACF1020C3E4411E72946EEE600BF8F
:100C1000704700BF10F8012B11F8013B012A28BFD3
:100C20009A42F7D0D01A7047034613F8012B002AD6
:100C3000FBD1181A013870472DE9F047164690B0DD
:100C400005460F46002209A9304624F0BDFE099B47
:100C50001B780446A3B1DFF82081002458F8041B58
:100C60003046FFF7D7FF58B10134382CF6D128466B
:100C70003F4A3346022127F020FA6FF0850027E033
:100C8000BB680AAA1B69A1B23846984700281FDB37
:100C90000B98FFF7C7FB34A3D3E90023FFF756FDFA
:100CA00006460A980F46FFF7BDFB02460B46304644
:100CB0003946FFF76BFA372C06460F460BDDCDE9B8
:100CC00000672C4A23460021284627F0F6F9002029
:100CD00010B0BDE8F087284B53F824A024F004039B
:100CE000032B0CD00B2C0AD0CDE90267234ACDF898
:100CF00000A023460021284627F0DFF9E7E70F98F8
:100D0000FFF790FB18A3D3E90023FFF71FFD8046F0
:100D10000E988946FFF786FB02460B464046494639
:100D2000FFF734FACDE906010D98FFF77BFB0EA320
:100D3000D3E90023FFF70AFD80460C988946FFF7A8
:100D400071FB02460B4640464946FFF71FFACDE9C4
:100D50000267CDE904010A4ACDF800A0234600212C
:100D6000284627F0AAF9B2E70000000080842E414F
:100D7000E145030072450300E402002091450300B1
:100D8000AD450300000000002DE9F041D0E90BC79C
:100D9000D0F828800CEB07043034A0450E461546E9
:100DA00018D81B4F18A3D3E90023ACFB0701FFF7AA
:100DB000B5FDA4EB080420F07F40306012A3D3E916
:100DC0000023A4FB0701FFF7A9FD20F07F40286066
:100DD000BDE8F0810E4C0CA3D3E90023A8FB04016D
:100DE000FFF79CFD20F07F4307F130003360A0FB4C
:100DF000040105A3D3E90023FFF790FD20F07F4015
:100E00002860BDE8F08100BF8D49FD1A0700000091
:100E100000CA9A3B000000002DE9F04FAC4C94F85A
:100E20004E608FB006F00106002800F05B81B6BB73
:100E300094F8392094F82D3094F8290004EB8202BC
:100E400004EB830300F00300FF21D2F83C80D3F8C9
:100E5000309084F82A1017F08DFE94F84E00420767
:100E600000F11681B9F1000F11D09948494612F0EE
:100E70008BFF99F800305B0605D506210EF044FA89
:100E8000002800F040829248414612F07DFF99F818
:100E9000003013F00E0F40F0D180636A23B10C26AE
:100EA00030460FB0BDE8F08F12F00AF982460028F4
:100EB00000F0468212F010F98346002800F05982B3
:100EC00013F070FC0546002800F050824FF6FF73C7
:100ED000806FAB8505F11C030B93002800F02C827A
:100EE00005F16C0205F168010EF01AFAB5F86420FC
:100EF000784895F83D1095F8327195F840C0764BDA
:100F00002B66024042F4887295F87E00C5F83CA139
:100F100042F0010201F03F0127F0030E61F07F0172
:100F20000027A5F864204FF01B1220F01F0085F861
:100F30003D1067F3000C0621EA65684A85F832E146
:100F400085F840C085F87E00C5F82821C5E91377EB
:100F500085F83F706F866F636F65A5F8C870A5F858
:100F6000CC70C5F80C71A5F81071A5F82471C5F8FE
:100F70002C71A5F8307185F83B71AF67A5F87C70CE
:100F8000A5F85C71A5F8C41095F85E1195F87EC1BE
:100F900095F8A601B5F8DC20A5F87C7167F3041C70
:100FA00021F0070102F0FC0267F3C30085F87EC15F
:100FB00085F85E11A5F8DC20C5F8E470A5F8E870A6
:100FC00085F8EA70A5F8A471A5F8B07185F8A601B6
:100FD00013F018FFA5F8D60013F01AFFD5F8B411D6
:100FE0003F4AA5F8D8000A40C5F8B42113F016FF0F
:100FF00095F8B82160F3020285F8B82113F014FFC8
:10100000C4E911AB0B9B636295F8B82195F82030C9
:10101000C5F8CC7160F3C50267F30003C5E97177C9
:10102000C5E96F77C5E90577ED6185F8B82185F8E1
:10103000203018F00FFF002840F0678194F8283026
:101040000121C3F342030DA88DF834300EF0E0FA0D
:1010500090B399F8003003F00F03022B00F1FF3238
:1010600000F09E80012B00F0548198F801001030B0
:10107000C000002B40F03F8199F801301033DB00B5
:1010800003F54D71084403F59A7303FB020092E0E7
:10109000C0F3C000324604F14F0117F0DBFEFF2819
:1010A00084F82A003FF4DEAE304617F07DFDB9F13A
:1010B000000F7FF4DAAEEAE6636A002B3FF4EFAE8E
:1010C00012F0FEFB0C2630460FB0BDE8F08F00BFDB
:1010D000582D002080F8FFFF480148017F410100A2
:1010E0000000FFF6002E3FF4DAAE204612F09EF824
:1010F00084420CD0A84AA949A9484FF4F36325F0CB
:10110000E4FE404080F311884FF0030002DF94F8C2
:101110002830D9070DAD0ED502220D920321A14B27
:101120000095012200200FF05BFC294612F056F8D2
:10113000002840F02381022203219A4B00950020D1
:101140000D920FF04DFC294612F048F8002840F0AF
:10115000F980954812F0A6F8002840F0DF80934807
:1011600012F070F884420CD08B4A8C498C4840F2C3
:10117000BA7325F0AAFE404080F311884FF00300B7
:1011800002DF636A0BB112F09BFB94F84E3000262D
:101190006FF30003304684F84E300FB0BDE8F08F97
:1011A00099F801301033DB0000FB03F000F5AA7062
:1011B000642303FB020094F820707D4AE46100255B
:1011C000312365F30007A0FB0201236084F820703F
:1011D0006FA3D3E90023C4E90555C4E90155FFF71E
:1011E0009DFBB4F84C80E0600FF040FC0746B8F17E
:1011F000000F08D199F8005005F00F05A5F1010581
:10120000B5FA85F56D0994F82820E36865F30002C6
:1012100012F0010584F828203DD0DFF88891654957
:101220000493002002250DF1300801930591CDE9CA
:1012300007980321CDE9020006942A4600903B4618
:101240000C950FF045FB414611F0C8FF00287FF4D4
:1012500033AF594905914AF2D8320092CDE9079847
:10126000CDE90300CDE9010006943B4601220321AC
:101270000C950FF02DFB414611F0B0FF00287FF4D4
:101280001BAF94F84E30304643F0010384F84E30E3
:101290000FB0BDE8F08F4948494ADFF808E1DFF8B0
:1012A00014C10694A8FB00014FF0910909FB081135
:1012B00003F24718C2F800804FF002090493099224
:1012C0000DF1300832A3D3E900234FF6FF7ACDE9C0
:1012D00007E80295CDF83090CDF814C0CDF80CA0F9
:1012E000FFF71CFB4A46CDE900503B462846032148
:1012F0000FF098FABFE7062B3FF4BEAE4FF4DA7357
:101300004FF41B70C1E61226CAE512F0D9FA032683
:10131000C6E54FF4F2734FF47F70B6E61E4A2949D2
:101320001F4840F2B77325F0D0FD404080F311888C
:101330004FF0030002DF12E705F17000A867CFE568
:101340000726ADE5194811F07DFF84423FF4A7ADB3
:1013500040F2B173104A1149114825F0B6FD4040E2
:1013600080F311884FF0030002DF98E5584611F032
:10137000B9FE504611F0AAFE072691E50B4811F080
:1013800061FF84423FF48BAD40F2A373E2E700BFFC
:101390008D49FD1A07000000681F03005820030054
:1013A000B81B0300ED200100742D0020582D0020F3
:1013B00000CA9A3B9935010039380100002AE784B8
:1013C000B02D0020441E03002DE9F04FC84D2B68BE
:1013D0008BB004460F469146002B00F01B82E68E30
:1013E000628E94F8123116443E4413F00703B6B2ED
:1013F00040F0A781B4F8EC80A6EB08021FFA82FA4D
:10140000120400F1028294F93D20002AC0F23D81CD
:1014100094F8E83084F8E93094F87C2194F87D3130
:1014200094F8101184F81111934206D094F87E318B
:1014300003F00703052B00F046822B68A34204BF8C
:1014400000232B60D4F80C51002D00F06B8128682C
:10145000002800F06781B4F81431B4F82EC0426857
:10146000C4F80C216345B4F81621B4F8181100F043
:101470002081B4F82CC0A5F806C04FF0150E4FF02F
:10148000000CEB832A84698485F804E085F81CC08D
:10149000294611F02DFE11F035FE2368002BC0F215
:1014A000FC80E08DB4F8145110FB0AF080B2B0FB60
:1014B000F5F315FB03F292B290421FFA83FBC0F0E2
:1014C000D38005FB130340F2E2428A489BB202FB41
:1014D00003F3A3FB000184A3D3E90023FFF71EFA63
:1014E000A9EB0009618E94F93D30A8EB06065E4435
:1014F0000F44374440F2E248002B678608FB05F5AD
:10150000C0F28A817C4A7D497D4840F6F61325F079
:10151000DCFC404080F311884FF0030002DF00271D
:10152000AA46B4F81821B4F81601764B76492086FD
:1015300042F2107C0CFB02522B442944B3FBF5F31E
:1015400000F1060C013AB2FBF5F2B1FBF5F599B2E8
:10155000A4F8C6206145B4F81421A4F8D210A4F868
:10156000CA50E28502DD091A063989B294F81231AF
:10157000A4F8CE101B0744BF0023A4F8C8300221F2
:1015800001201AF0CBFB00220221054601200DF0BC
:1015900015FF5E494FF4EA7220460DF0A1FE00F1FE
:1015A00003085FFA88F85A4B009442460121002054
:1015B0000FF016FA30F002030CD04F4A554950484C
:1015C00040F6252325F081FC404080F311884FF040
:1015D000030002DF474BAAFB03AB504642A3D3E90B
:1015E00000235946FFF79AF94B4AE368049320F029
:1015F0007F46A6FB0223072000FB0633BAEB02005E
:101600006BEB0301DFF814E1DFF814C108940694D2
:101610004FF47A7200234FF6FE74CDF81CE0CDF83B
:1016200014C00394FFF77AF94B46CDE901600097A7
:101630004246012100200FF04BF930F002030CD09C
:101640002D4A34492E4840F63F2325F03EFC4040C9
:1016500080F311884FF0030002DF002D40F02A8153
:1016600028460BB0BDE8F08F121A40F2E243214841
:1016700003FB02F2A2FB00011BA3D3E90023FFF747
:101680004DF920F07F4081442CE794F8DD20002ABA
:101690003FF4BEAE84F8DD30BEE6D4E9010223F0AB
:1016A000004382422CBF914481442360A9EB03098B
:1016B000F7E6B4F830C094457FF4DBAE40F2E24C7C
:1016C0000CFB03FB42F2107CB4F8C6E00CFB01BC3F
:1016D0000CF1FF3CBCFBFBFC1FFA8CFCE6457FF4E5
:1016E000C8AE01232B71D3E68D49FD1A0700000017
:1016F000A42F002000CA9A3B74200300281C03007A
:10170000B81B03007FC3C901FF596202D02D00201E
:101710003D410100542103008D49FD1AE5400100BF
:10172000C9840100784A7949794840F67A1325F04E
:10173000CCFB404080F311884FF0030002DF2868A3
:1017400089E6012011F0E4FC0746002800F0CD8076
:1017500070480DF091FD0546002800F0C68011F09C
:10176000F5FC3A682B79D4F80C11516043F003036F
:101770000C22C4F80C716A712B71238ED4F81C21D1
:10178000654F94F8121100201E44E871A7FB023245
:10179000C2F38F2294F820312B72D4F8BC31A5F813
:1017A0000920B4F81421A5F80B200636B4F8162148
:1017B000A5F80D20B6B2B4F81821A5F80F2060F3F3
:1017C0000201A4F8EC6084F81211A5F81160002B56
:1017D0007FD094F85E2190077BD494F8B721D1078D
:1017E00077D4D4F8C821934204BF1A68C4F8C8213A
:1017F000D4F8C021002A6FD11A682A601D602B68B6
:10180000C4E970550BB9C4F8CC516FF076000BB039
:10181000BDE8F08F2860E2E5E26C636C3F4F03FBAC
:101820001A23E36418F068FB064694F8DC00C0F362
:10183000820018F063FB064405FB06F6384BE26CA9
:1018400094F8201106F5742606F23F26A3FB06360F
:10185000B60C06FB0BF06B080244963B9A4228BF7D
:101860001A4608FB01FC4FF0000EC4E91232A0FB3F
:10187000070123A3D3E90023C4F854C0C4F8E4E06B
:101880006664FFF74BF8244B8446D4F81C01A3FB95
:101890000030800A08FB00F0A0FB070118A3D3E981
:1018A0000023A9EB0C09FFF739F8A5EB060A20F095
:1018B0007F4736E60122104602210DF07FFD002011
:1018C0000BB0BDE8F08F002384F87D21A4F8CC3064
:1018D000B3E5D4F8C0216AB1D4F8C4311A682A60DB
:1018E0001D602B68C4F8C4518CE76FF068000BB022
:1018F000BDE8F08F2B60C4E96F55C4F8C45181E78F
:101900008D49FD1A070000007420030040210300E8
:10191000B81B0300283000205917B7D100CA9A3BE2
:1019200083DE1B43000000002DE9F04F1C461368C6
:101930000D46D3F800A031F82ECF2346174653F8B2
:101940000C6B8A78A4F80CC09A70D5F82A30A36082
:101950002B46814653F83A2FE26104F11C001B79B3
:10196000037193B005210DF053FE94F8213000F07F
:101970003F0060F30503012884F821300AD995F867
:101980003F3003F01F02053AC3F304010B2A84F829
:10199000221002D913B0BDE8F08F3A6896F8DC1037
:1019A00000209060B5F83480A4F8128095F83620B5
:1019B00095F8370042EA0022A2825B0963F38401B2
:1019C0006B8E0B9386F8DC1040F2E24303FB08F8C1
:1019D00018F092FA834696F8DC00C0F3820018F003
:1019E0008DFA584408FB00F0DFF824E395F831C085
:1019F000A18ABD4A00F5742000F23F20AEFB003002
:101A00004FEA580E40F2E24303FB0CF3800CAEF1B8
:101A1000960EA062E363C4F82CE0B5F838B0B34882
:101A200042F2107303FB0B83424401F1060C013BAD
:101A3000B2FBF8F2B3FBF8F3A6F8C63093B26345F5
:101A40004044A6F8D230B0FBF8F0A6F8CA0002DD98
:101A50005B1A063B9BB2A6F8CE302946A368C6F8AF
:101A6000E03051F81E0F2B7F8A88ADF844204FF4E8
:101A7000807CC3F38012A5F81CC08DF83820C3F316
:101A8000401210908DF83C200A929AF82A00BA7CF5
:101A90000D910C9217F0D2FCDDE90C2105F12B031E
:101AA000002840F0EB80FF2AC5F82B00988005F154
:101AB000250300F0EF80104605F11F020C9316F08D
:101AC0008FFFAA7F0C9BBDF844101098C5F8250025
:101AD0000232AA77998096F8DC30618AA28AAA86B7
:101AE000C3F3820385F838306986A5F836B03046EE
:101AF00012F064FE29462082E8807D68484611F095
:101B0000F7FA238AEB8018232B710A9B2868002B95
:101B100000F0CF8094F809E0237A94F80BC0A17A02
:101B200094F8212041EA0C2143EA0E234B4042F075
:101B300040020121638484F821202977294611F08D
:101B4000D7FA11F0DFFA94F84900012100F00700FC
:101B500018F0E0F8664A4FF000098346312300F29E
:101B60005240A0FB02013360C6E901995CA3D3E9AE
:101B70000023FEF7D3FEFD680B99A36A40F2E24210
:101B800020F07F4002FB0155F0604A46022101200F
:101B9000A8EB03080DF012FC504612F031F8821C3D
:101BA000544BCDF800A0D2B2484601210EF018FFE8
:101BB00005F286350128A5EB0B0500F086809AF822
:101BC0002830DB0779D4304612F0F8FDDFF820B179
:101BD000A8FB0B8942A3D3E90023044649464046AB
:101BE000FEF79CFE444A069620F07F4AAAFB022399
:101BF000072101FB0A334FF4B671BF6808913F49D2
:101C000007913F490591B8EB020069EB0301F368C6
:101C1000049300264FF47A7200230396FEF77EFEAB
:101C20002FA3D3E900238446A5FB0B01CDE901AC2A
:101C3000FEF774FE033420F07F40E4B2313F3B46B0
:101C400000902246304601210EF042FE30F00203A1
:101C50000CD02C4A2C492D4840F26D1325F035F953
:101C6000404080F311884FF0030002DF012210464C
:101C7000022113B0BDE8F04F0DF0A0BB2846FF2AAB
:101C800050F824CFC5F82BC08088988005F1250333
:101C90007FF411AF0022BDF844101098C5F825203C
:101CA0009A809DF83830A5F82310AB77C5F81F004F
:101CB00011E79DF83C302B7740E700230122009389
:101CC000184611460EF08CFE7DE711F0C7FA8245EA
:101CD0003FF475AF16F0D4FB71E700BFAFF300809F
:101CE0008D49FD1A070000007FC3C901FF59620238
:101CF00000CA9A3BAD8401008D49FD1A5184010050
:101D0000C98401009C22030054210300B81B030076
:101D100083DE1B4308B50B4B1B6803F00703022B44
:101D200009D9094A094B0A48D21AD208920142F04D
:101D3000030225F0DDFD002000F0DAFABDE80840DE
:101D400024F0B4BE640B0020940E0300940E030034
:101D50001A32030010B50F480C4625F0B6F8C4B986
:101D60000D4B1B6803F00703022B09D90B490C4BE1
:101D70000C48C91AC908890141F0030125F0ABFDDF
:101D8000012000F0B5FA24F090FEBDE8104000F00C
:101D900077B910BD34320300640B0020940E0300A9
:101DA000940E0300785B030007B508F023FF0023BF
:101DB000164900931648032208F00EFF154B014602
:101DC0001B6870B15B071DD0134B144A1448D21A1C
:101DD000D208920142F0010203B05DF804EB25F055
:101DE00087BD03F00703022B0CD90B4B0B490D48A1
:101DF000C91AC908890141F0030103B05DF804EB79
:101E000025F069BD03B05DF804FB00BF5811030065
:101E1000DC010020640B0020940E0300940E0300EC
:101E20003A3203005E32030038B5002008F08CFB24
:101E30002E4D044678B12B685A0755D02C4B2D4AAD
:101E4000D21AD20892010146BDE838402A4842F031
:101E5000010225F04DBD26F0AEFE28492848052296
:101E600004F0B0FD27492848012204F0ABFD274BC0
:101E7000274A28481C60C3E9012409F031F92B687E
:101E800003F00703022B09D91A49194B2248C91A32
:101E9000C908890141F0030125F01DFDBFF35B8FE7
:101EA0001E4951E8003F43F0010241E800200028AC
:101EB000F7D1BFF35B8FDB0703D4194808392DF046
:101EC00092FF00F0F1F92B6803F00703022B0BD906
:101ED000074B08491348C91AC9088901BDE83840A9
:101EE00041F0030125F0F7BC38BD00BF640B0020B2
:101EF000940E0300940E03007F3203009E32030011
:101F0000A3320300E13A0300AD320300D8190020E8
:101F1000A91D0000C8010020B7320300E01900200D
:101F200000190020D13203001FB5174C1749039444
:101F3000231D029304F10803019304F10C030093A1
:101F400004F1140204F1100322F0BEFE06280DD0A5
:101F50000F4B1B685B0709D00E490F4B0F48C91A7E
:101F6000C908890141F0010125F0B5FC6369064803
:101F7000A3F26C7363612369013B236104B0BDE884
:101F8000104022F0FFBC00BFE4190020E73203003C
:101F9000640B0020940E0300940E0300F93203003A
:101FA0000148FFF7C1BF00BF1833030038B52EF05A
:101FB0004CF94FF47A730A46A0FB030103FB0211AC
:101FC000104A114DC30B43EA4143CC0BD2E9001038
:101FD000C2E90034591A0D4B1B6803F0070364EB88
:101FE0000000022BC5E900100BD9094B09490A482A
:101FF000C91AC9088901BDE8384041F0030125F03C
:102000006ABC38BD080F0020000F0020640B0020C0
:10201000940E0300940E03002C33030008B503460E
:102020000A481A88A2F26C7242619A78013A0261F7
:10203000DA78C2601A7982605A7942609B790360CB
:1020400022F0A0FCBDE80840FFF7B0BFE419002073
:1020500010B5FFF7ABFF0849084C0023D1E9000198
:102060004FF47A72FEF75AFC23680344236020463B
:10207000BDE8104022F086BC000F0020E4190020CB
:1020800070B50B4E0B4D0C4C0C4A334620212846A4
:1020900023F090FB33460A4A2021204623F08AFB96
:1020A000284600F055F92046BDE8704000F058B9C8
:1020B000E4190020C87B0020A87B00203C330300EB
:1020C0004233030002490022012009F035BB00BF62
:1020D000D520000007B500238DF8043042F62B23ED
:1020E000ADF80630124B1349019A1A60124A4A6041
:1020F00001220A814FF6FF72CA8103220A740B6023
:102100000CF0BAF980B10D4B1B685B070CD00C4B7F
:102110000C490D48C91AC908890141F0010103B0F1
:102120005DF804EB25F0D7BB03B05DF804FB00BFFE
:102130008A7B0020081A00204D210000640B00203B
:10214000940E0300940E03004B33030010B50B46AE
:1021500089B9114B1B6803F00703022B09D90F49FA
:102160000F4B1048C91AC908890141F0030125F035
:10217000B2FB002010BD0C491B8A0B814FF6FF7388
:1021800000220A4C4B810A4B0C604A60094CCC601F
:102190001A600CF041FDECE7640B0020940E030084
:1021A000940E03006D3303002C1A0020B9210000A7
:1021B0001C1A00208A7B0020F0B587B0314CBDF896
:1021C000305019460BB1002D4DD1A788E679217A00
:1021D000627A94F80AC02C4DB8190844104410EBE8
:1021E0000C042B6810D113F0060F02D1002007B0A9
:1021F000F0BD2649264B2748C91AC908890141F074
:10220000020125F068FBF1E703F00703022B11D967
:102210001F481E4BCDF814C01B1ADB089B01CDE9EB
:1022200003121D4843F00303052201A9CDE90176FD
:1022300025F0A7FB194B1A4A03CB106018465160D2
:1022400030F808391381FFF7E9FE2B6803F0070324
:10225000022BCBD90D490E4B1248C91AC908890166
:1022600041F00301CDE723460A2653F8040B2A4622
:1022700006FB00302EF0DCF923682B44236001209C
:10228000B5E700BF1C1A0020640B0020940E030069
:10229000940E03008D330300C7330300201A00207F
:1022A000807B0020FC33030008B50B4B1B6803F058
:1022B0000703022B09D90949094B0A48C91AC90859
:1022C000890141F0030125F006FBBDE808400649FD
:1022D000064800222DF0E4BF640B0020940E03009A
:1022E000940E030018340300C5200000100F0020D6
:1022F00007B560B14FF4F0120023CDE90023074881
:102300000022002322F064F903B05DF804FB0348C7
:1023100003B05DF804EB2DF0CFBF00BF100F00201D
:102320000949BFF35B8F51E8003F43F0010241E8E8
:1023300000200028F7D1BFF35B8FDB0703D40348ED
:1023400008392DF050BD7047F80100200019002019
:10235000024B014618682DF016BB00BF641A00201E
:10236000024B014618682DF00EBB00BF401A00203A
:102370000B4A03461068042B0FD8DFE803F003066E
:10238000080A0C0007492DF0FEBA0749FBE7074988
:10239000F9E70749F7E70749F5E70749F3E700BF1A
:1023A0003C1A0020273403002B3403002F34030091
:1023B00033340300373403003B340300012810B5E5
:1023C00024D0022847D1244C23680133032BC8BFF3
:1023D000002323602268214B53F8320028F0EBFDE4
:1023E0001F4B00221A601F4B1B6803F00703022BD0
:1023F00031D91D4A1D4B21681D48D21AD2089201BD
:10240000BDE8104042F0030225F072BA124A144BA4
:102410001168124A186802EBC10201305268186054
:1024200090421A4614DB002313600E4B1B6803F026
:102430000703022B0FD90D480B4B12681B1ADB0840
:102440009B01BDE810400B4843F0030325F064BA3C
:102450000028E8DBE9E710BD601A0020FC0100203D
:10246000481A0020DC0B0020840F0300940E0300A8
:102470003F340300533403002DE9F34100210846A3
:102480001BF096FD9E4D9F4F2860002108461BF0D3
:102490008FFD0021A86008461BF08AFD00212861FD
:1024A00008461BF085FDA861286828F084FD24F00B
:1024B000F4FA002120F0A6F90024064692492DF0F6
:1024C00062FA2346296800940322304628F0A2FECF
:1024D00024F0E3FA214620F095F98C4E234602229F
:1024E00030602146009428F095FE89493068894E75
:1024F0002DF049FA24F0D1FA214620F083F9234641
:10250000052230602146009428F084FE824930681C
:10251000824E2DF038FA24F0C0FA214620F072F9EC
:102520002346012230602146009428F073FE7C4946
:1025300030687C4E2DF027FA24F0AFFA214620F0C7
:1025400061F930600220FFF713FF00942346042254
:102550002146306828F05EFEA86828F02CFD24F0A3
:102560009CFA214620F04EF96F4906462DF00BFAF1
:1025700023460322A9680094304628F04BFE24F03D
:102580008CFA214620F03EF9684E386031466FF0F3
:1025900004082DF0F8F9CDF8008005230422A9687D
:1025A0003868634F28F036FE24F077FA214620F091
:1025B00029F9314638602DF0E6F9CDF800806FF04A
:1025C0000E030622A968386828F024FE286928F03E
:1025D000F2FC24F062FA214620F014F9554907462E
:1025E0002DF0D1F92346032229690094384628F0BA
:1025F00011FE24F052FA214620F004F94FF00208AF
:1026000007464D492DF0BFF96FF0450303222969B4
:10261000CDF80080384628F0FDFD24F03EFA214632
:1026200020F0F0F8454F314638602DF0ACF9CDF888
:1026300000806FF02C0303222969386828F0EAFD36
:1026400024F02BFA214620F0DDF83D4907462DF015
:102650009AF96FF04503082229690094384628F05A
:10266000D9FD24F01AFA214620F0CCF8354F314636
:1026700038602DF088F900946FF02C030822296946
:10268000386828F0C7FD24F008FA214620F0BAF88F
:102690006FF0010807462C492DF075F96FF04503DE
:1026A00006222969CDF80080384628F0B3FD24F0D1
:1026B000F4F9214620F0A6F8244F314638602DF079
:1026C00062F9CDF800806FF02C0306222969386882
:1026D00028F0A0FDA86928F06EFC24F0DEF9214660
:1026E00020F090F81A4906462DF04DF9A96900949A
:1026F00023460322304628F08DFD02B0BDE8F0816C
:10270000FC0100204C1A002074340300641A0020DD
:1027100078340300401A00207E340300681A002039
:10272000893403003C1A00208D340300C96C030077
:10273000501A00209134030095340300541A0020ED
:102740009D340300581A0020A53403005C1A0020B1
:10275000AD34030013B51748174C20F099FB2060E7
:1027600088B9164B1B685B070AD0154A154B1149EF
:102770001548D21AD208920142F0010225F0B8F8A9
:102780004FF0FF3014E0FFF777FE104B186828F089
:1027900012FC1EF0ADFE206883685B6898474FF41A
:1027A000A47200230A48CDE9002321F011FF002084
:1027B00002B010BDB1340300441A0020DC0B00202D
:1027C000840F0300940E0300BC340300FC010020BE
:1027D000580C002037B52C4D2B6803F00703022B53
:1027E0000DD92A4A2A4CA41AE40804F081FEA40157
:1027F00044F0030401462246264825F079F8264C89
:1028000023784BB900220023CDE9002323484FF45D
:102810000042002321F0DCFE20482DF06FFDD0B1F6
:102820002B6803F00703022B0AD9194A174B2178AA
:102830001B48D21AD208920142F0030225F058F840
:102840002378022B8CBF02200120FFF7B7FD002365
:10285000237003B030BD21780131C9B20229217043
:10286000F7D92B6803F00703022BF2D9074B084A6C
:102870000C48D21AD208920142F0030203B0BDE81C
:10288000304025F035B800BF640B0020940E0300E3
:10289000940E0300D9340300E87B0020480F002089
:1028A000EF3403000735030013B504460A4824F04B
:1028B0000CFBFFF7CDFBFFF7E3FB24F0F5F800225C
:1028C0000023CDE9002320464FF42022002321F0ED
:1028D0007FFE02B010BD00BF1E35030070B51E485C
:1028E00020F0D6FA044628B9BDE870401A491B48C2
:1028F00024F0EBBAC56883681E211B6840F21112F0
:102900009847014670B92B6843F080432B604FF421
:10291000B821204624F0CBF8014650B10E4A1048A9
:102920001E2302E00C4A0F481E23BDE8704024F02D
:10293000CCBA0D490D4B4B604FF080438B60A368C0
:10294000DB6913B1012220469847BDE87040024977
:1029500007481E2224F0B9BA333503003A35030084
:1029600081350300583503006C1A0020D52700007C
:10297000B735030013B50A4C0A49002220462DF052
:102980008FFC00220023CDE9002320464FF42022B3
:10299000002321F01DFE02B0BDE81040FFF770BB20
:1029A000800F0020A92800000B0706D5034BC35C4D
:1029B00003F00303012B08BF20307047A0A10300E0
:1029C0000B6801330B60014B1B6818471C02002089
:1029D000014B1860704700BF1C02002007B50B4672
:1029E000002102460191034801A900F065F903B0F6
:1029F0005DF804FBC129000030B585B0CDE90101C7
:102A00000446002501A90548039500F055F9DDE9C4
:102A100002309842B8BF255405B030BDA56E020003
:102A20002DE9F84FB0F8189019F0080804469346BD
:102A30000DD001290CBF49F0100949F02009A0F878
:102A400018908BF31188BFF36F8FBDE8F88F09F0F2
:102A50000709022907D1204624F051FA0028F0D0B6
:102A60000128238B50D16769218B002F15DA256847
:102A700021F00701C4E9008841F00101218300260B
:102A8000218B01F0070ACA4502D0A368002B5CD154
:102A90000DB9002E74D0002358E001F007035A1F2F
:102AA000012A20D821F00701062B256889B2C4E944
:102AB00000880CD1002D2B4638BF00232BB1628B30
:102AC0001B6801326283002BF8D141F0020121839F
:102AD000204624F014FA06460028D1D0238B43F078
:102AE00020032383CBE7042B0CD121F0070189B20B
:102AF0002183204624F003FA05460028BFD041F088
:102B0000200121830025BAE7032809D1226923F097
:102B10000703166843F00603238300252F46AFE71B
:102B2000042806D1226923F00703566843F0040302
:102B3000F2E7052806D1226923F00703966843F0DF
:102B40000503E9E700252E46E8E7012341F00801E7
:102B500021838BF31188BFF36F8F03BB002D33D11B
:102B600016B121492046B0474FF02003EFF3118BF7
:102B700083F31188BFF36F8F238B23F00803238324
:102B8000238BDA0628D523F0100323830121B4F820
:102B9000189009F0070900297FF45BAF51E7A1689D
:102BA0000029DBD00B68D1F804B0002B38BF00231C
:102BB000994652463B462046D847B9F1000FCDD042
:102BC000D9F800304946EEE729463B4652462046B2
:102BD0002D6824F0B0F9C1E713F020011EBF23F0E7
:102BE000200323830221D2E7636F0200F0B5094E70
:102BF000016802460A2700200C46013123789D5DBA
:102C00006D0701D41460F0BD07FB0033A3F1300061
:102C1000F2E700BFA0A103002DE9F74F1446994643
:102C2000D378244A13F802A06F2B0AF00302064659
:102C30000F4601922DD028D8582B14BF0A251025F5
:102C4000DDF83080AA464FF0000B52465B46304616
:102C50003946FDF763FE092AD3B21FD830335F45EA
:102C6000DBB208BF564508F8013D01D3C84512D86C
:102C700023789B0605D5082D16D1A37843F00803C9
:102C8000A370404603B0BDE8F08F03F0F703702B4C
:102C9000D3E70825D4E706460F46D6E7019A012A6E
:102CA0000CBF37335733DAE7102DEAD1A37843F05E
:102CB0001003E5E7A0A103002DE9F04FA3B088467B
:102CC000069091461C46002599F8000010B9284648
:102CD00000F0AEBD09F101032528079307D0414656
:102CE000069B98470028C0F2A385013524E21822EC
:102CF000002114A82DF0D7FC99F80130252B59D0CC
:102D0000079A164612F8013B2B2B00F08B8079D8DE
:102D1000202B00F08C80232B00F08E809DF8583003
:102D200003F04402442A03D16FF386138DF8583020
:102D30009DF85830129643F080038DF85830337860
:102D40002A2B7ED19DF8593043F001038DF859307C
:102D5000731C12931A782E2A9DF859200CBF01215A
:102D6000002161F341028DF859200BD15A1C1292B7
:102D70005A782A2A7BD19DF8592042F004028DF816
:102D800059200233194611F8010B6C2800F0CF804E
:102D90007DD8682800F084806A2800F0D2804C2812
:102DA00000F0D6809DF859206FF3C6028DF85920A7
:102DB000194680E009F1020207928DF85B309DF818
:102DC0005930DE0740F16D8154F804ABBAF1000FC1
:102DD00007DA9DF8582042F004028DF85820CAF115
:102DE000000A580740F1668154F8047B002F80F2F6
:102DF00065819DF859306FF341038DF859304FF0DC
:102E0000FF375BE12D2B06D0302B87D19DF8583052
:102E100043F0400303E09DF8583043F004038DF87D
:102E200058306EE79DF8583043F00803F7E79DF8F7
:102E3000583043F01003F2E79DF8583043F0200378
:102E4000EDE712A8FFF7D2FE129BB34281D09DF8A6
:102E500058101790C1F3400242EAD072520062F05B
:102E60007F0201F07D010A438DF8582071E712A816
:102E7000FFF7BCFE9DF858301890C3F3400242EAB9
:102E8000D07060F341038DF85830129B7AE77428B4
:102E90009DF8592059D07A2884D11346062241E062
:102EA0005A78682A9DF859203AD1012161F3C60267
:102EB0008DF85920991C0B4613F8012B0793782A9B
:102EC0008DF85B2000F2C580572A4ED8412A04D0E5
:102ED000A2F14503022B00F2BC809DF85A3002F0AB
:102EE000DF020421A2F1410A61F30203DAF10002D8
:102EF0009DF859108DF85A3042EB0A0262F3C7115F
:102F00000A068DF85910CBB200F1C98003F078029F
:102F1000182A40F09B806FF3C6038DF8593082E089
:102F20001346022262F3C6038DF85930C3E75A787C
:102F30006C2A9DF8592001D10421B7E713460322DA
:102F4000F0E79DF859300522ECE713460722E9E740
:102F5000BDF8583023F4F04323F0020343F48043D8
:102F600043F00203ADF85830A5E7A2F15803202B37
:102F70006FD801A151F823F02B300000533000002E
:102F80005330000053300000533000005330000035
:102F9000533000005330000053300000DB2E00009F
:102FA000533000002B300000FD2F0000DB2E00000E
:102FB000DB2E0000DB2E000053300000FD2F000050
:102FC00053300000533000005330000053300000F5
:102FD000613000002B3000008130000053300000D1
:102FE0005330000081300000533000002B300000CF
:102FF00053300000533000002B3000009DF85A3051
:10300000012161F302038DF85A309DF8593003F025
:103010007803402B02BF9DF8581041F001018DF854
:103020005810632A05D0002306E09DF85A3002218B
:10303000E7E7003B18BF01239DF85820C2F3400189
:103040000B4363F341028DF85820B8E613F0380FB4
:10305000E9D09DF8583043F001038DF85830E2E78D
:103060009DF85A30032262F302038DF85A309DF81E
:10307000593003F07803A3F140077B427B41DBE743
:103080009DF85A30032262F302038DF85A309DF8FE
:10309000593013F0780F14BF01230023CCE701232C
:1030A000CAE79DF95820002AB4BFDDF85CA04FF0B4
:1030B000FF3A96E699077FF5A2AE189F0023CDE967
:1030C00017339DF85A3003F00703042B09D19DF8FC
:1030D00059309A0705D49DF95930002BB4BF0D27FC
:1030E00006279DF85A309DF8591003F00703012B6D
:1030F000C1F3C30136D1CB1E042B20D8DFE803F087
:103100000307071F1F0054F8042BD31704E00734EC
:1031100024F00704F4E80223CDE914239DF8586055
:10312000B30755D0079B06984A46414624F0DFFA7C
:103130000028C0F27D830544DDF81C90C4E554F8F6
:10314000042B01294FEAE273CDE9142305D19DF840
:103150005030149300231593E0E70229DED1BDF926
:103160005020D2E7022B23D1CB1E042B13D8DFE84B
:1031700003F0030A0A121200226814920023201D91
:1031800015930446CAE7073424F00700F0E8022349
:10319000CDE91423F5E754F8043B149301294FF0CB
:1031A00000031593D3D00229B8D1BDF85030D0E731
:1031B000042B07D1073424F00704F4E80223CDE9F7
:1031C0001423ABE7032B04BF54F8043B1493A5E787
:1031D0009DF85B90B9F1780FAED8B9F1570F00F2B6
:1031E000A680B9F1250F00F0ED80B9F1240FA3D925
:1031F000B9F1410F03D0A9F14503022B9CD8DDE9B9
:103200001423002A73F10001C0F28681310700F116
:10321000858116F0100618BF2026C3F30A5BC3F39E
:10322000130304920593DDE90423CDE91023BBF1D8
:10323000000F40F07581DDE90432134314BF4FF0F5
:10324000010C4FF0000C0599CB020499CA0243EA25
:10325000515358464BEA02010A91C11719430B9189
:10326000DDE90A01B9F1460F08BF4FF066090143D5
:10327000CDE9102300F0C881BCF1000F40F0888137
:10328000109B0293119B43F000430393DDE902235B
:10329000CDE910230023ABF2FE3B1A4605211BF1BA
:1032A000020FC0F27E811BB1DDE90201CDE9100100
:1032B000BBF1000FDDE9103100F38E811199109BF5
:1032C000CBF104000BF11C0B01FA0BFBA0F1200C5D
:1032D000C34021FA0CFC43EA0B0343EA0C03C14050
:1032E000CDE9103109F0DF03472B40F09481D01C69
:1032F00002DB974280F28B81A9F10209002F5FFA6D
:1033000089F900DD013F9DF85830990600F183816D
:10331000002FD4BF00230123B9F1660F0C9340F0B6
:103320007C81D31940F17A814FF0000B7AE1A9F149
:103330005803202B3FF600AF01A252F823F000BF44
:10334000B934000039310000393100003931000052
:1033500039310000393100003931000039310000C5
:1033600039310000FF31000039310000F133000035
:1033700059340000FF310000FF310000FF31000030
:103380003931000059340000393100003931000072
:103390003931000039310000EF340000B934000049
:1033A000BD3400003931000039310000CB3300005A
:1033B00039310000B93400003931000039310000E2
:1033C000B9340000414648468AE4002FDDF85090A9
:1033D0000ADB394648462DF0BDF909EB000B002603
:1033E000B9F1000F0CD1A7E64846FDF71DFCF4E744
:1033F000149B8DF86C3000260DF16D0B0DF16C09EE
:10340000ABEB090206B101329DF85A00C30640F148
:1034100003820232179940060A4444BF1899521891
:10342000BAF1000F40F31182AAEB020A9DF858206E
:103430005107C2F3800700F10882530640F1FB8177
:1034400046B1069B4146304698470028C0F2F081BD
:1034500001353E463027EFE130072BD416F0100639
:1034600018BF2026DDE91423002A73F1000105DAD4
:10347000524263EB4303CDE914232D260DF185035E
:103480000093DDE914011BAB16AAFFF7C5FB8146CB
:10349000002F0DF185030BDB9DF85810A3EB0902FB
:1034A0006FF3861197428DF8581001D9BF1A1797FC
:1034B0009B4695E72B26D5E70026DFE714980028E2
:1034C00000F09F810DF18503009316AA1BAB00212C
:1034D000FFF7A2FBBDF85A3003F0EF0343F4F043CB
:1034E00043F010038146ADF85A300026D0E7149B14
:1034F00007293FF621AEDFE801F00D04060D0808AC
:103500000D0D1D7018E61D8016E62846E917C3E963
:10351000000111E61D600FE62D267EE62B267CE6D7
:1035200040F2FF739B452ED1DDE90412B84B19F828
:1035300003300A4303F0030317D1012B0BBF44F6FA
:10354000496346F66963ADF86C30ADF86C300CBF7A
:10355000462366238DF86E309DF858306FF386133E
:103560008DF858300DF16F0B48E7012B0BBF44F27B
:103570004E1346F26E13ADF86C30ADF86C300CBFE4
:103580004E236E23E6E74FF0000C5CE60BF1FF3BA9
:1035900092185B41002A73F10001F7DACDE910239C
:1035A0006EE6029B03985B0843EAC0734008B0F1E3
:1035B000333FDE46CDE902300BF1010BF1D2A3FB24
:1035C00001BCCDE902BC039B4843C31803930EF131
:1035D000020B013A012362E6023341F1000110A817
:1035E000CDE910310C9224F04BF80C9ADDE9100172
:1035F0000BF1FF3B013200184941002871F1000333
:103600000BF1FF3BF7DA51E60022934656E6BF1A6C
:103610004FF0660977E600237EE67B1C102BA8BFDF
:1036200010239B4610210F9100204FF00061CDE93F
:1036300012010BF1FF3BBBF1FF3FDDE912101FD17F
:10364000109BCB180893119B40EB03030993DDE912
:1036500008BC6FF070414FF0FF30614508BF58451E
:103660001AD358466146CDE91001B9F1660F53D11E
:10367000002A20DC30238DF86C300DF16D0B2BE02F
:10368000490841EAC0714008CDE9121012A80D9214
:1036900023F0F6FF0D9ACCE7089B0D92099A5B0880
:1036A00043EAC273510810A8CDE9103123F0E8FFB6
:1036B0000D9A0132D9E70DF16C0B0F99002909DD44
:1036C0000FA910A80D9223F0FBFF0D9A0BF8010B28
:1036D000013AF2D1179200229DF85810880601D4C1
:1036E000002F3FDD5B462E2103F8011B92B1002F16
:1036F00075DD5142B942A8BF39469DF85A0017916D
:103700000029A7EB0107D4BF0021012161F3451077
:103710008DF85A009B4620E00FA910A80D9223F0C7
:10372000CFFF0D9A9DF858308DF86C00302818BFE7
:1037300002F1FF32990601D4002F52DD2E238DF8BD
:103740006D300DF16E03E5E70FA910A80D9223F07F
:10375000B7FF0D9A0BF8010B013F002F02DD0F9907
:103760000029F1DC0C9B002B3ED1189709F0DF01FA
:10377000452922D1002A5846BABF52422D212B2179
:10378000632A00F8029B8BF801100ADD642792FB84
:10379000F7F101F1300C0BF103008BF802C007FBCD
:1037A00011220A27834692FBF7F107FB112201F150
:1037B000300C30320BF802CB4270179A002A1EDC14
:1037C000189A002AD4BF002201229DF85A1062F3F1
:1037D000861100228DF85A108BF800200EE69B46C9
:1037E000C0E70DF16D0BBDE70021189158461BF89D
:1037F000011D3029FAD02E2918BF8346B6E70122D1
:10380000E3E7DFF810B00646ABF10509F8E500BFC5
:10381000A0A10300DC350300070748BF0132F9E52A
:103820000C934146069B3846984700280C9B05DAC6
:1038300023B0BDE8F08F20270AEB05035246002A8B
:10384000A3EB0A050AF1FF3AEADC36B1069B4146D2
:10385000304698470028EBDB01359DF85A2050068A
:103860007DD59DF95920002A2CDBA5EB090599F897
:1038700000005B4BC25C4E46510705EB060709F1A1
:1038800001093FD49DF85A20DDF85C90920608D4D7
:1038900009EB07054A46002AA5EB090709F1FF399C
:1038A00036DC30782E280AD1069B414698470028FE
:1038B000BEDBB9F1000F07F1010730DC0136B1467C
:1038C000BF1B39E0A5EB09074D4607EB090619F8C0
:1038D000010B702810D1189F3744BA1B002A35DC21
:1038E00006985B462A46414623F001FF00289FDBED
:1038F0003044054682446CE0069B414698470028C8
:10390000E2DA95E7069B414698470028AFDA8FE751
:10391000069B4146302098470028BBDA88E7069B83
:1039200041463020984709F1FF39C0E7069B4146E0
:1039300098470028FFF67CAF294B4D4607EB090658
:1039400019F8010BC25C5307F0D4C4E7069B41464B
:10395000302098470028FFF66BAF0136BDE7D1064F
:1039600001D4120707D5069B41463020984700280E
:10397000FFF65EAF01359DF85A20D30608D59DF8B5
:103980005B00069B414698470028FFF651AF013582
:10399000179F2F447A1B002A0ADC06985B464A468A
:1039A000414623F0A4FE0028FFF642AF2844A0E7DA
:1039B000069B4146302098470028FFF639AF013575
:1039C000E8E7069B4146202098470028FFF630AFE5
:1039D0000135AAEB0503002BF3DCFFF7ADBB00BFFD
:1039E000A0A1030030B51049104889B000222CF086
:1039F00057FC0F4D0F4900220023CDE90623002478
:103A00000E23CDE90334CDE901440B4B00944FF470
:103A10004072284620F022FB0849284620F074FA1C
:103A2000204609B030BD00BF413A0000B80F002069
:103A3000F00F0020A0820020154000005039030044
:103A4000014820F0C1B900BF880D0020F0B505463F
:103A50000F4E002003460246012715F8014B0CB11A
:103A60008B4200D3F0BD252C02D182F00102F4E795
:103A7000002AF2D014F806C01CF0030FEDD0732C0E
:103A800004BF07FA03F2104301330022E5E700BF49
:103A9000A0A1030038B500F01FFB1348134C23F01E
:103AA000F2FE13491348042328222CF0E3F8124BAA
:103AB000124A1A604FF4004000F058FD1048114BB4
:103AC0001B1ADB0800210430994200D138BD10F8E0
:103AD0003120256802F0070225F007052A4344F843
:103AE000042B0131F0E700BF841A0020640B002092
:103AF000E8B800208C1A002020020020C5780200BF
:103B0000940E030004100300F8B50F4BBFF35B8F56
:103B1000002553E8007F43E80052002AF9D1BFF3A3
:103B20005B8F0A4C0A4E361B3611B54200DBF8BDDE
:103B300063685B792BB12368DB6813B13946204693
:103B4000984701351034F0E77C1A00200410030078
:103B500024100300064BBFF35B8F53E8002F0132A4
:103B600043E800210029F8D1BFF35B8F704700BF05
:103B70007C1A0020044A054B9B1AB1EBD30F34BFCB
:103B800052F8310000207047940E03000410030027
:103B90002DE9F0478946164698460446B0B9214BB0
:103BA000214FFF1A3F1105469A46BC4202DB2846C8
:103BB000BDE8F0870AEB0410434632464946FFF75A
:103BC000E7FF854238BF05460134EEE7174B184939
:103BD00003EBC2031D7943681A79072302EB420203
:103BE00003FA02F0454551F8263028BF454623EA3E
:103BF000000305F0070000FA02F21343002003223D
:103C000023FA02F404F00704A04202F1030238BFD1
:103C100020461E2AF4D123F00703034341F826303F
:103C2000C5E700BF0410030024100300940E030036
:103C3000640B0020F8B5094C094BE41A06460F4600
:103C4000E4080025A54200D1F8BD00212A463B46E4
:103C50003046FFF79DFF0135F4E700BF0410030075
:103C6000940E03000C4BC31A70B51B114668044632
:103C700001330D4633711146FFF7DCFF6368074CD3
:103C80001D6001225A71227812B9054820F09CF873
:103C90000123237070BD00BF04100300E97B0020E6
:103CA000880D002070B5114BBFF35B8F53E8005FA8
:103CB0006A1C43E800210029F8D1BFF35B8F2DB9BE
:103CC0000B4C0C4E361B3611B54200DB70BD237B0E
:103CD00043B123685B6903B1984704220021204661
:103CE000FFF7C0FF01351034EEE700BF801A002057
:103CF000041003002410030053B1436807491879E6
:103D000000EB400351F82200D84000F00700704754
:103D1000034B03EBC2021079704700BF640B002015
:103D2000940E0300174B984273B5044602D3164B0A
:103D3000984221D315480022002301A91FF09CFAC4
:103D40000546E0B90122019BBFF35B8F53E8001FDA
:103D500043E800200028F9D1BFF35B8F019E331D9B
:103D60001F22184621462CF0CFFC7E22034686F8FF
:103D7000232086F824501C46204602B070BD044B18
:103D8000F9E700BF140C0300A8A403008C1A00205C
:103D9000DD35030048B1054B984205D3A033984266
:103DA0002CBF00200120704700207047E8B8002099
:103DB0002DE9F04F564B1B7885B0054603B960B32B
:103DC0004FF02003EFF3118683F31188BFF36F8F59
:103DD000504823F068FD044686F31188BFF36F8FC7
:103DE00078B1BFF35B8F4C4B53E8002F013A43E8A7
:103DF00000210029F8D1BFF35B8F95B1204623F055
:103E000050FE25B9454B1B680BB1FFF77DFE4148BD
:103E100023F047FD051E18BF0125284605B0BDE863
:103E2000F08F3F4B1B78CBB9237ADA0716D423F0F7
:103E30004BFE8046204623F012FE01464046FFF727
:103E400005FE384F384BDFF800B1DB1BDB0803936E
:103E5000364BDB1B06464FEAD30A46B9344E354F84
:103E6000DFF8E890BF1B3F114FF000084DE0B6FAB5
:103E700086F1C1F11F094946204623F0F3FD2E4B80
:103E80009842014602D32D4B98421ED30846FFF7B5
:103E900081FF0246C8B92A4B994216D0638903981C
:103EA0009909B0EB931FDBF8003088BF57F8312039
:103EB0005B070AD04FEA8A1343F00103ADF80030E4
:103EC00020484346494623F040FD012101FA09F10B
:103ED00026EA0106C1E773685A799AB160891B79AD
:103EE000A17A800903EB430259F82030D34001F056
:103EF000070103F00703994204D8336821461B6881
:103F00003046984708F101081036B845E3DB75E7FD
:103F1000E97B0020841A0020781A00207C1A0020F7
:103F2000EA7B0020940E0300041003008C0F0300B2
:103F30000410030024100300140C0300A8A40300C1
:103F4000DD350300F7350300E00B0020640B002093
:103F5000294B73B51B68418104469847274DE060A3
:103F6000BFF35B8F55E8003F013345E80032002A7C
:103F7000F8D1BFF35B8F4FF02003EFF3118683F38B
:103F80001188BFF36F8F1E48214623F080FC86F313
:103F90001188BFF36F8F1B4B1B7883B14FF0200349
:103FA000EFF3118483F31188BFF36F8F0020FFF7C5
:103FB000FFFE84F31188BFF36F8F02B070BD124A09
:103FC0002B681268002AF8D0012B0AD100220023A6
:103FD000CDE900230D484FF40042002320F0F8FA09
:103FE000EBE70A2BE9D109482CF066F9084802B042
:103FF000BDE870401FF0E8BE20020020781A0020C3
:10400000841A0020EA7B0020A81A0020B80F0020A4
:10401000880D002010B5FFF745FE1FF0CFFE0C4BBA
:10402000186030B10B4B1B68092B02DD0A481FF0EA
:10403000CBFE094C0020FFF7BBFE0028FAD14FF061
:10404000FF324FF0FF3320461FF0E4FEF2E700BFDF
:10405000A81A0020781A0020880D0020F8B50E4F0D
:104060003D7875B90D4C0E4EFFF71CFE361B361110
:10407000B54207DB0020FFF79BFE0028FAD10123A1
:104080003B70F8BD63685B791BB1236820461B69F0
:10409000984701351034EBE7EA7B00200410030059
:1040A0002410030007B504380190BFF35B8F50E87C
:1040B000003F5A1E40E800210029F8D1BFF35B8F72
:1040C000012B03D1034801A91FF008F903B05DF8E3
:1040D00004FB00BF8C1A00202023024902481A4624
:1040E0002BF0C8BD88B90020AC1A002037B50023DA
:1040F000094D01930120FFF75BFE0446FFF72AFDFF
:104100000022002301A928461FF0B6F808B1002CB0
:10411000F0D1019803B030BDAC1A002007B50023E0
:10412000019307480022002301A91FF0A5F810B150
:10413000FFF7DCFF0190019803B05DF804FB00BFBE
:10414000AC1A0020F0B5037A457A85B02D090190AC
:10415000D8071CD4DDB1002426460198314623F04F
:1041600081FC0746FFF716FE70B134B9019B294662
:104170001869FFF76BFC044648B124FA06F3D90727
:1041800002D53846FFF78EFF0136AE42E5D3019BDC
:104190001A7A920704D55B69084C0393039B2BB9E9
:1041A000064801A91FF09AF805B0F0BD1D6803A9E3
:1041B00020461FF093F80395F0E700BFAC1A0020EB
:1041C0000EB403B503AB014653F8042B0448019326
:1041D000FEF772FD02B05DF804EB03B0704700BF5C
:1041E000717E02002DE9F04F85B011F00204904677
:1041F0009DF8387006461A4601F0010901F00805DD
:1042000007D011F0440F37D13249FFF7D9FF0146EB
:104210000C46B9F1000F0AD02F4B304953F8272034
:104220002F4B3046002A08BF1A46FFF7C9FF3DB1A1
:104230002C4B2D4953F827203046FFF7C1FF054688
:10424000B8F1000F43D0012303FA07F7274B17F00B
:10425000100F274F18BF1F46BDF840109DF83C00B7
:10426000FFF788FC394602463046FFF7A9FF28448D
:10427000204405B0BDE8F08F1E4B19680029C7D057
:104280001D4B4FF4616E1B68B2FBF3F34FF47A7C65
:10429000B3FBF1F4B4FBFEF20EFB124E01FB14343F
:1042A0000CFB04F44FF03C0AB4FBF1FB01FB1B4494
:1042B0000CFB04F4BEFBFAF3B4FBF1F1CDE901B160
:1042C0000AFB13E100910D49FFF77AFF9FE7084FC2
:1042D000C2E700BF4836030070110300D73B03005C
:1042E0003A360300841103006D36030044360300A0
:1042F0003F360300C81A0020CC1A002051360300B4
:1043000038B50C46E107054603D5084A0849FFF7CA
:1043100057FFE20608D4A30628464CBF05490649C4
:10432000BDE83840FFF74CBF38BD00BF3A36030048
:10433000D73B0300E03A0300ED3603002DE9F047D8
:104340001D46089B1746DA0604460E4605D4990614
:104350004CBF2B492B49FFF733FFDFF8B0904FF0EC
:104360000008A8452DDBDFF8A880DFF8A890DFF86B
:104370009CA00025BD4232D2725D49462046FFF71F
:104380001FFF0135102D23D11F49DFF88080DFF892
:104390008890DFF888A02046FFF712FF0025AF4283
:1043A00029D9725D12F8093013F0970F08BF2E2239
:1043B00051462046FFF704FF0135102D14D1BDE80A
:1043C000F08749462046FFF7FBFE08F10108C8E7E1
:1043D0006A07CFD151462046FFF7F2FECAE74146B1
:1043E0002046FFF7EDFECCE76B07D8D141462046CB
:1043F000FFF7E6FED3E741462046FFF7E1FEDBE7A5
:10440000E03A0300ED3603007D3603007B360300FF
:104410007936030073360300A0A103006B3F03004D
:104420002DE9F0478B7A13F0070817468AB00A7A0D
:1044300005460E4620D04989C3F3C2038909D243F9
:10444000CDE900830291F36802F001023946FFF7DB
:10445000C9FE8146347AE44314F001040ED02946A3
:10446000304623F09BFBB8F1000F2BD04246394673
:104470002846FFF745FF25E0C146EBE7B8F1000FFE
:1044800026D12746EB68069306AA3B46A968304624
:1044900023F070FB069A6B681A603AB1AB6813445C
:1044A00013F8014CA4F10A035C425C41284623F056
:1044B000D2FC069B1F44002BE4D11CB113492846B3
:1044C000FFF77EFE284623F0C6FC0AB0BDE8F08761
:1044D000304623F0F9FA0E4902462846FFF770FEEF
:1044E0004FF0100A05AA234606A93046CDF814A0BD
:1044F00023F040FB059A002AB8D04B46009706A946
:104500002846FFF71BFF059B1C44EBE77F360300A3
:10451000D73B030073B542F20F738B4228BF0B46A3
:1045200005680F4A04460521684622F0DBFC6368F3
:104530000C495B6806460422284623F022FB636888
:104540003246694628465B6823F01BFB63680649D0
:104550005B681722284623F014FB02B070BD00BF31
:10456000305E0300B9360300A1360300084A10B5D7
:104570000123084C13600021A04204D801B113604C
:10458000054B186010BD40085B000121F4E700BF37
:10459000CC1A002040420F00C81A00200023042833
:1045A000CB604B6098BF044B044A98BF53F820304F
:1045B0008A600B60704700BFD8110300B41103007C
:1045C0000023084A0B60CB604B608A60064B074AA9
:1045D000D21AB0EB221F3EBF03EB00139B680B60A7
:1045E000704700BF181303000410030024100300D9
:1045F0002DE9F347114C124DDFF84880DFF8489061
:10460000DFF848A02D1B07462D110026AE4203DB24
:10461000002002B0BDE8F087626853791279002B60
:1046200014BF43464B46CDE900320021A3685246F1
:10463000384623F042FD01361034E7E7041003004A
:1046400024100300BE360300C6360300CF36030035
:104650002DE9F74F214B224DED1A4B685B79064649
:104660000F46ED081BB91F4A042123F026FD1E4BFF
:104670001E4ADFF880A0DFF880B00021304623F02A
:104680001CFD1B4A0021304623F017FD0024AC42DC
:1046900003D1002003B0BDE8F08F224601230021A2
:1046A0003846FFF729FB0023224619468046384644
:1046B000FFF722FB214681460020FFF75BFA5AF8FC
:1046C000292001925AF82820009203465A460021D8
:1046D000304623F0F2FC0134D9E700BF940E03000A
:1046E00004100300F0360300023703000E37030006
:1046F0002C370300C41103006937030010B50023F1
:10470000054ACB600C464B608A6001461846FFF7AD
:1047100031FA206010BD00BFB41103002DE9F74F3E
:1047200052F804BC184C194E00930746584691465F
:104730008A46FCF779FA361B024636114FF000081C
:10474000B04508DB124A5B460221384623F0B5FC2F
:104750006FF0070513E0A168019258462BF0C2FFE5
:104760001034054618B1019A08F10108E8E7064936
:10477000009C4B46524601EB08113846A04728469C
:1047800003B0BDE8F08F00BF041003002410030045
:104790007D37030008B5024BFFF7C0FF002008BDBE
:1047A00051460000014BFFF7B9BF00BFA77E0200D2
:1047B000014BFFF7B3BF00BFAF7E0200014BFFF715
:1047C000ADBF00BFC1480000014BFFF7A7BF00BF4E
:1047D0002B7F020010B5C369DB681C792CB9044A31
:1047E000022123F06AFC204610BD0120FCE700BF37
:1047F000923703002DE9F04F2B4E1F462B4BF61A34
:10480000151E85B04FEAD60614BF2B4633460293D9
:104810004B685B79804689461BB9254A042123F001
:104820004CFCDFF898A00024029B9C4202DB05B000
:10483000BDE8F08FB5B357F824B000239E4207D1EE
:1048400057F824301B4A0221404623F036FC22E070
:10485000194600200393FFF78DF9402259462BF0AB
:1048600041FF039BC8B91A4600210E9B4846FFF73B
:104870008FF90E9B834283460DD085B92146284689
:10488000FFF778F903465AF82B20009204210A4AD0
:10489000404623F012FC0134C6E70133CEE757F857
:1048A0002430F0E72246DFE704100300940E0300F3
:1048B000B6370300E1370300CB370300C411030010
:1048C0002DE9F74FD3F804B0DFF850A0064688462C
:1048D00091461D4600275AF8041B042258462BF027
:1048E00001FF044670B10137052FF4D16B680A4A05
:1048F0000221304623F0E1FB6FF00704204603B0AD
:10490000BDE8F08F009705F10803A9F102024146C6
:104910003046FFF76FFFF1E7FB370300C4110300D8
:1049200013B504461FF038FCC0F307230193C0F30E
:1049300007430093044A030E0021204623F0BDFBE9
:10494000002002B010BD00BFA23903002DE9784855
:1049500004462BF07AFC4FF47A76A0FB06BC06FBEB
:1049600001CC00254FEADB3242EA4C432046034AA1
:10497000294623F0A2FB2846BDE87888BB3903000E
:1049800010B5044602F09AFD084A0346002120466D
:1049900023F093FB064A2046002123F08EFB0548B6
:1049A00021461FF079FA002010BD00BFCA3903006C
:1049B000E9390300154A000030B5014687B00446C6
:1049C00011481FF069FA114A002312F8011BAA29A5
:1049D00003D10133B3F5006FF7D1C3F50061642251
:1049E0004A43D20A002505924FF40062CDE9031232
:1049F000CDE901232046054B054A0095294623F0C1
:104A00005CFB284607B030BDF14A0000E8AC00204E
:104A1000F3390300F0B587B0D0F8A47004460D4612
:104A20002BF047FB06461FF0C9F9224B224A002E05
:104A300008BF1E46214BCDE90046844218BF1346ED
:104A4000002128461E4A23F038FBD4E90A23CDE989
:104A5000022394F90E301B4A00930021237B284641
:104A600023F02BFB20461FF05FFA174A0346002174
:104A7000284623F022FB05A920462BF01CFB01460B
:104A800038B10346114A0021284623F016FB07B02F
:104A9000F0BD059A6423B81ACDE9002043430C4ABF
:104AA000B3FBF7F32846CDE902733B4623F005FB41
:104AB000EDE700BF393A03007B360300244E0300C4
:104AC0003C3A0300483A0300723A03007E3A03007E
:104AD000AB3A030010B5044602F00AFD034A034650
:104AE0000021204623F0E9FA002010BDE23A03003D
:104AF000F0B5D0F8A47089B005460E4607A92BF092
:104B0000DAFA044638B10346104A0021304623F051
:104B1000D4FA09B0F0BD28462BF0CBFA079ADFF89B
:104B200034C0B91A002808BF60466423CDE90221C9
:104B3000CDE900074B43064AB3FBF7F32146CDE925
:104B4000047330462B4623F0B8FAE2E77E3A0300BE
:104B5000F83A0300393A03002DE9F0410F4A104CAE
:104B6000104E114FDFF844800021054623F0A5FACE
:104B7000B44202D10020BDE8F08120461EF072F957
:104B800050B13A4600212846236823F096FA42465F
:104B90000021284623F091FA1034E9E7CB3B0300CB
:104BA000D00A0020600B0020D53B0300E03A030050
:104BB0002DE9F8430E4BDFF83C9053F821400131CA
:104BC000064653F821800027A04502D83846BDE8A4
:104BD000F88320461EF046F9054630B123684A4660
:104BE0000021304623F069FA2F461034ECE700BF6D
:104BF000D0130300DA3B030010B51F4A044600211E
:104C000023F05BFA02212046FFF7D2FF014618B9D4
:104C10001A4A204623F051FA194A0021204623F06F
:104C20004CFA03212046FFF7C3FF014618B9134A87
:104C3000204623F042FA134A0021204623F03DFA91
:104C400000212046FFF7B4FF014618B90B4A204661
:104C500023F033FA0C4A0021204623F02EFA0121DA
:104C60002046FFF7A5FF014618B9044A204623F065
:104C700024FA002010BD00BFE03B0300EE3B030020
:104C8000F63B0300043C0300133C030010B58168AD
:104C90000446083101F0A4FBA168034A204608310C
:104CA000BDE8104001F024BB733C030038B58368B5
:104CB000002583F838509D865D868368D3F8583286
:104CC000DB0304460BD5084B084A042123F0F4FB10
:104CD000A368D3F8582265F31042C3F8582220463F
:104CE000BDE8384001F068B9813C0300D73B0300C0
:104CF00037B58368D3F85822520604460D4608D5C6
:104D0000D3F85822C0686FF38612C3F8582223F0F4
:104D10001AFDE368DB6863B99DB3A068383023F0FF
:104D200051F9A36878B303F1380103F59C702BF0B7
:104D3000D1FCA268E0680DF106033832294623F061
:104D400005FD58B9A06800F59C7138302BF0C2FC05
:104D5000A068383023F036F9ADF80600204623F07D
:104D60000FFB0A4A0A49606923F032F9204601F034
:104D700021F8A368BDF806209A865A86204600F0DE
:104D8000A3FF03B030BD83F83801D2E75A3F0300D8
:104D9000D73B03002DE9F04F00239FB0CDE9053349
:104DA000836804463833039323F0F0FA204623F057
:104DB000AFFA18B9A249606923F00AF9A068142271
:104DC000002108302BF06FFC204600F01FFFA16887
:104DD000E0684A8E3831002623F0EFFC204623F0AD
:104DE000B9FE4FF0FF38B146B24611AF02963546D4
:104DF000B346DDE90532012A00F0DF800B2B40F2DB
:104E0000B7800699022940F0B7808E4B8E4A15E094
:104E1000039A0223394606A800F0D0FD7A6803926F
:104E2000069A03462AB96FF0070528461FB0BDE869
:104E3000F08F012A06D128B1844A0221204623F0AE
:104E40003BFBF0E7059B002B30D081493868FBF72E
:104E5000E1FE30B9EEB97F4A0221204623F02CFB57
:104E6000E1E77D493868FBF7D5FE0028F2D0059BC5
:104E7000E3B13A682946204601F016FC022800F00A
:104E80009C80032812D0059B0133059301230293D4
:104E9000AFE7A5680D9608350CAE0FCE0FC5336889
:104EA0002B602046FFF7F2FE0125BEE7BAF1000FA6
:104EB00005D1396807AA584623F091F90546043709
:104EC00008F1FF38002D41D0029B4BB1EB683BB19C
:104ED000204623F05BFA204600F0F6FE5F4ABBE76F
:104EE000EB68CBB1A368DDF81490AE4603F1080C73
:104EF000BEE80F00ACE80F00DEF80030CCF8003060
:104F0000AB684BB96B7CFE2B01BF95F8108009F1A3
:104F1000010308F1FF380593D5F804C0BCF1000F78
:104F200008D0AE46BEE80F000CAE0FC6DEF800306B
:104F300033606646AB46B8F1000F03D1069B022BE7
:104F40007FF457AF059B0133059352E7059B63B987
:104F5000A368DB690BB1DB683BB9414B0093414A65
:104F6000119B0221204623F0A7FA4FF0010AE2E745
:104F7000B8F1000F7FF44CAF029B4BB1204623F0F9
:104F80000DFEA2680C23383211A905A800F016FD09
:104F9000059DA0681EAB03EB8503002243F8342C6B
:104FA000436973B9002E3FF43EAFC368B3423FF488
:104FB00078AF0D9600F108056EE7059B0B2BDBD94A
:104FC0001FE7037EA5EB0905B3B1427E4FF6FF71E3
:104FD000FF2A08BF0A469D4202D313449D420BD9C3
:104FE0008368214A0221204623F066FA2046FFF713
:104FF0004DFE6FF0150518E7D0F8583243F08003E6
:10500000C0F8583200F53B7022F0DAFFA36811AA0D
:1050100029465B6902EB8902204698470546A0684D
:105020004FF0FF324FF0FF3300F53B7022F0E7FF07
:10503000A368D3F858226FF3C712C3F85822F4E6D6
:10504000E03A0300443D0300DC3B0300C53C0300A1
:10505000D93C0300E33C0300DC3C0300013D0300BA
:10506000303D03001A400300683D03002DE9F04F76
:105070008368BFF35B8FABB0044603F5167353E848
:10508000002F42F0080243E800210029F7D1BFF3C6
:105090005B8FA3681B79022B40F0378300230B93AF
:1050A0006068036801221D690DF12B010BABA84755
:1050B0000B9B002B00F029839DF92B209DF82B30B2
:1050C000002AEDDBA0684179012900F08C820229D9
:1050D00000F09F82002940F016830D2BD0F8582253
:1050E0001BD00A2B19D061F30F22C0F85822092BCC
:1050F00056D03BD8002BD3D0082B00F0D981864A5C
:105100009A5C12F0970FD0F8582200F0E08142F03C
:105110004002C0F858221946F5E012F47F4F05D03E
:10512000D0F85822C2F307229342E0D1D0F8582297
:1051300063F30F22C0F85822428E9AB9D0F8583241
:1051400062F38613C0F85832E06823F0FCFA734922
:10515000606922F03DFFA36802221A712046FFF722
:10516000A5FD9DE72046FFF715FEF4E71B2B14D0A5
:105170007F2BC4D1D0F858325F0791D5D0F8583280
:1051800043F04003C0F85832D0F858329E0600F180
:105190009A81204623F0D1F982E7012343717FE70A
:1051A000D0F858325D077FF57BAFD0F8583243F026
:1051B0004003C0F85832438EFF2B3FF471AF828E0C
:1051C00000F1380100F59C702BF032FAA268938E42
:1051D0001344002583F838511DA90C2302F59C7255
:1051E0000DA800F0EBFB0D990C293FF659AF2AAB47
:1051F00003EB810343F8345C51B1A3689A8E1344E6
:1052000093F83720444BD35C180758D4012955D163
:1052100000250C950C9B2AAA02EB8303002653F869
:1052200034AC504622F0CEFEB04681460496374656
:1052300018AA3946284600F089FC834600284AD13E
:10524000012E6DD10C9B2AAA02EB830353F8340C78
:1052500022F0B8FEA268064608324146284600F011
:1052600075FC0546006822F0ADFE864206D029682E
:10527000821B92B23144204623F05DF9A3689A8ED6
:105280001A4492F83810244A8A5C12F008023ED17F
:10529000D3F85812C90735D5D3F8581262F3000174
:1052A000C3F858122046202100F054FEA268D2F81C
:1052B000583243F00103C2F85832F1E601390020B8
:1052C0000EAB009301900CAB1DAA22F09FFF054688
:1052D00000289FD1E4E6DBF800004A4651462BF057
:1052E00001FA68B9DBF80000FBF79EFC049B8342DF
:1052F00038BF03469BB2002E08BFB8460493013660
:10530000013795E72021204600F024FEC8E6012160
:10531000204623F011F8C3E6A0A10300E03A030001
:105320007FF6BEAE0C9B2AAA02EB830353F834AC83
:10533000504622F047FEA3680690A3F830B0DFF88D
:1053400078B30596CDF80C80A268039908322846F8
:1053500000F0FCFB039B013307460393BAF1000FF7
:1053600053D13B68002B5AD1A2681386059B013BA1
:105370000593E9D1CA49606922F02AFE204600F06F
:105380001BFE0C9B2AAA02EB830308F1010953F8C8
:10539000340C22F017FE414613AA0746284600F0B7
:1053A000D5FB8046A068D8F80010FF2200F59C705D
:1053B0002BF0AAF9D8F800A04FF6FF7818AA4946B2
:1053C000284609F1010B00F0C1FB002863D0A36857
:1053D000006803F59C73002213F801CB815C6145E2
:1053E00005D121B101324FF6FF718A42F4D10FB1DC
:1053F000BA4208DB904506F1FF36A8BF9046012E61
:105400001FFA88F847D0D946D8E700680028A8D006
:10541000069A51462BF066F90028A2D094E7584628
:10542000079322F0CFFD049BA168C21892B25846A0
:105430004F8D099222F0C6FD079B0890184622F076
:10544000C1FD099A0899079BA2EB0009A068B0F872
:1054500030C07F1A97FBF2F292B2BCFBF2F102FB72
:1054600011C20CF1010E92B21FFA89F9A0F830E0D6
:105470005AB900938B4A5B460721204623F01CF85B
:105480004946204600F010FC70E7874A0721204675
:1054900023F012F8F4E7B8F1000F3FF401AEA8EBE7
:1054A000070292B20AEB0701204623F044F8F7E521
:1054B000D0F858325B077FF5F3ADD0F8583243F09F
:1054C0004003C0F85832204623F052F8E8E555076B
:1054D0007FF5E6AD013B162B3FF6E2AD01A252F897
:1054E00023F000BFCD560000415500004955000093
:1054F00093510000C15600006F550000A1500000FC
:10550000A1500000A1500000A150000077550000FC
:105510007F550000A15000009B550000A1500000E5
:10552000A5550000A1500000A1500000A1500000AE
:10553000A1500000A9550000A1500000D555000061
:10554000204622F02AFFABE5204622F01FFF20462E
:1055500022F0DEFE18B95249606922F039FDA368D5
:10556000D3F8582242F04002C3F85822F4E520460E
:1055700022F01BFF94E5204622F020FF90E56069B1
:105580004A4A494922F024FD6069494A464922F0C5
:105590001FFD204600F010FD82E500212046FFF7A8
:1055A000A7FB7DE50121F9E7204622F0E9FEA3688B
:1055B0003D49002283F838209A865A86A268D2F89C
:1055C000583243F04003C2F858326069394A22F039
:1055D000FFFC65E5204600F03FFCA268D2F8583297
:1055E00043F0400367E65B2B01D10223D6E5D0F8F8
:1055F0005822500709D5622B05D14FF0FF312046C4
:1056000000F0A0FB01E0662BF9D0A36800225A71DC
:1056100046E500224271A268D2F8581249077FF588
:105620003FAD313B1B2B3FF63BAD01A151F823F0C1
:10563000C9560000D5560000F5560000BD560000C2
:10564000A1500000A1500000A1500000A150000096
:10565000A1500000A1500000A1500000A150000086
:10566000A1500000A1500000A1500000A150000076
:10567000A55500009B5500006F55000041550000E6
:10568000A1500000C1560000A1500000CD560000FE
:10569000A1500000A1500000A1500000D956000008
:1056A000E03A0300833D0300D73B03005E3F030065
:1056B000623F03005A3F03007A360300032353710D
:1056C000204622F063FEEBE403235371204622F0D0
:1056D00057FEE5E403235371A268D2F85832D2F89A
:1056E000581203F0010383F0010363F30001C2F8D1
:1056F0005812D5E403235371A368D3F858325B07DB
:105700007FF5CEAC45E5002348E5A368BFF35B8F8A
:1057100003F5167353E8002F22F0080243E8002136
:105720000029F7D1BFF35B8F2BB0BDE8F08F00BF2E
:105730002DE9F041044688B00F464FF44172002134
:1057400080681E462AF0AFFFA3682268E0681A60EE
:1057500023F09EF8A06800F53B702AF0C0FA4FF4E1
:1057600027784FF41775A06828442AF02AFFA0680C
:10577000002243190121404410352AF005FFB5F5F8
:10578000277F08F11408EED1A36900221A60A268ED
:10579000D2F85832106843F01003C2F85832D2F8E9
:1057A000583243F00403C2F85832D2F8583243F06A
:1057B0002003C2F858321B4B936222F003FCA3680B
:1057C00083F82C00A268D2F8583243F00203C2F8E2
:1057D00058326068144A036839461D682346A84752
:1057E0000546D0B9A36801221A71D4E90A01002242
:1057F0000023CDE906230E2303930E9B0495CDE9E8
:1058000001630094094B4FF400621EF027FCA3686B
:10581000616AC3F800031EF077FB284608B0BDE8B4
:10582000F08100BF18005000EB7F0200815800009B
:1058300010B5044680680379012B1CD14FF0FF326C
:105840004FF0FF3300F53B7022F0D9FB00212046DA
:1058500000F0B8FA0949606922F0BAFBA368022295
:105860001A712046FFF722FAA06800F53B7022F07B
:10587000A7FB002010BD6FF08500FBE7DF3A0300B7
:105880002DE9F0410446406803680E469B680021FC
:105890001546984700284CD126B1E0692A46214692
:1058A00023F0BBF82046FFF7C3FF002841D1DFF803
:1058B0009480214F214EA06800F527704FF0FF32F1
:1058C0004FF0FF3303211EF0DFFE0546A0684FF0C6
:1058D000FF324FF0FF3300F53B7075B122F08FFBC4
:1058E00020462B46164A022122F0E6FDA068BDE8BC
:1058F000F04100F53B7022F063BB22F080FB606852
:1059000003685B6903B1984742462046022122F0B2
:1059100027FB3A462046002122F022FB2046324651
:10592000012122F01DFBA06800F53B7022F048FB2E
:10593000C1E7BDE8F08100BF6D50000003800200A8
:10594000893D03008B7F020010B50D4A04460021FB
:1059500022F0B3FB20460B4A002122F0AEFB20468A
:10596000094A002122F0A9FB2046084A002122F022
:10597000A4FB2046064A002100F0BAFC002010BD1E
:10598000A03D0300DE3D03003D3E0300913E0300C9
:105990002B3F030010B5044613460A46014606484D
:1059A000FDF78AF923691B7923B12046BDE8104031
:1059B00022F090BB10BD00BFED8002002DE9F74F33
:1059C0001F46DFF88481002305460E461446036017
:1059D0009A4699462378002B00F0B18013F80830DE
:1059E00013F0080302D004F8019BF3E729684A1C6E
:1059F000BA422A6046F8214000F0A1809A4694F805
:105A000000B0BBF1000FE5D0BAF1000F40F0838089
:105A1000BBF1270F06D0BBF15C0F00F08480BBF117
:105A2000220F71D1204622F07DFB611C02462046E8
:105A30002AF01FFEDA46E2E7204622F073FB611CE3
:105A4000024620462AF015FE4FF0000AD7E730291B
:105A500026D14FF0000B0223E15CA1F130005FFA88
:105A600080FCBCF1070FDAB218D8013340EACB0B47
:105A7000052B5FFA8BFBEFD11A46511E21442046BD
:105A80000192009122F04EFB019A0230821A2046C8
:105A900000992AF0EEFD04F801BBB0E7022AECD130
:105AA000782936D14FF0000B0223E25CA2F13001DD
:105AB0005FFA81FCBCF1090FD8B213D841EA0B128E
:105AC000032B5FFA82FB0BD10423591E214420468D
:105AD0000193009122F026FB019B821CD21AD6E78B
