:1000000030B000201985000049BC02005585000071
:100010005585000055850000558500000000000052
:1000200000000000000000000000000089820000C5
:1000300055850000000000003D820000A3AA0200D8
:10004000D984000071D10100D9840000D984000056
:10005000D9840000D9840000D9840000D98400002C
:10006000D9840000D9840000D9840000D98400001C
:10007000D9840000D9840000D9840000D98400000C
:10008000D9840000D9840000D9840000D9840000FC
:10009000D9840000D9840000D9840000D9840000EC
:1000A000D9840000D9840000D9840000D9840000DC
:1000B000D9840000D9840000D9840000D9840000CC
:1000C000D9840000D9840000D9840000D9840000BC
:0C00D000D9840000D9840000D98400000D
:0400DC00FFFFFFFF24
:1000E00001F0FF01102A2BDB10F0070F08D010F8E9
:1000F000013B013A8B422DD010F0070F42B3F6D1ED
:10010000F0B441EA012141EA014122F007047FF005
:1001100000070023F0E80256083C85EA010586EA5C
:10012000010685FA47F5A3FA87F586FA47F6A5FA98
:1001300087F68EB9EED1F0BC01F0FF0102F00702A4
:1001400032B110F8013B013A83EA010313B1F8D14F
:100150000020704701387047002D06BF3546033830
:10016000073815F0010F07D1013015F4807F02BF69
:10017000013015F4C03F0130F0BC0138704700BFBA
:1001800081F0004102E000BF83F0004330B54FEA48
:1001900041044FEA430594EA050F08BF90EA020FB5
:1001A0001FBF54EA000C55EA020C7FEA645C7FEA48
:1001B000655C00F0E2804FEA5454D4EB5555B8BF6B
:1001C0006D420CDD2C4480EA020281EA030382EADC
:1001D000000083EA010180EA020281EA0303362D6E
:1001E00088BF30BD11F0004F4FEA01314FF4801C41
:1001F0004CEA113102D0404261EB410113F0004F53
:100200004FEA03334CEA133302D0524263EB430309
:1002100094EA050F00F0A780A4F10104D5F1200EA7
:100220000DDB02FA0EFC22FA05F2801841F1000102
:1002300003FA0EF2801843FA05F359410EE0A5F1D6
:1002400020050EF1200E012A03FA0EFC28BF4CF007
:10025000020C43FA05F3C01851EBE37101F00045BD
:1002600007D54FF0000EDCF1000C7EEB00006EEBCA
:100270000101B1F5801F1BD3B1F5001F0CD3490854
:100280005FEA30004FEA3C0C04F101044FEA4452AB
:1002900012F5800F80F09A80BCF1004F08BF5FEA32
:1002A000500C50F1000041EB045141EA050130BD12
:1002B0005FEA4C0C404141EB0101013C28BFB1F524
:1002C000801FE9D291F0000F04BF01460020B1FA6F
:1002D00081F308BF2033A3F10B03B3F120020CDA42
:1002E0000C3208DD02F1140CC2F10C0201FA0CF020
:1002F00021FA02F10CE002F11402D8BFC2F1200C85
:1003000001FA02F120FA0CFCDCBF41EA0C0190403A
:10031000E41AA2BF01EB0451294330BD6FEA040483
:100320001F3C1CDA0C340EDC04F11404C4F120026E
:1003300020FA04F001FA02F340EA030021FA04F380
:1003400045EA030130BDC4F10C04C4F1200220FAD7
:1003500002F001FA04F340EA0300294630BD21FA15
:1003600004F0294630BD94F0000F83F4801306BFDB
:1003700081F480110134013D4EE77FEA645C18BFCF
:100380007FEA655C29D094EA050F08BF90EA020F66
:1003900005D054EA000C04BF1946104630BD91EA5E
:1003A000030F1EBF0021002030BD5FEA545C05D161
:1003B0004000494128BF41F0004130BD14F58004A0
:1003C0003CBF01F5801130BD01F0004545F0FE4114
:1003D00041F470014FF0000030BD7FEA645C1ABF49
:1003E000194610467FEA655C1CBF0B46024650EA80
:1003F000013406BF52EA033591EA030F41F40021AC
:1004000030BD00BF90F0000F04BF0021704730B531
:100410004FF4806404F132044FF000054FF0000106
:1004200050E700BF90F0000F04BF0021704730B5C7
:100430004FF4806404F1320410F0004548BF40429C
:100440004FF000013EE700BF42004FEAE2014FEAF1
:1004500031014FEA02701FBF12F07F4393F07F4FCC
:1004600081F06051704732F07F4208BF704793F0CF
:100470007F4F04BF41F40021704730B54FF46074E2
:1004800001F0004521F000411CE700BF50EA0102E5
:1004900008BF704730B54FF000050AE050EA01028E
:1004A00008BF704730B511F0004502D5404261EBFE
:1004B00041014FF4806404F132045FEA915C3FF43F
:1004C000D8AE4FF003025FEADC0C18BF03325FEADC
:1004D000DC0C18BF033202EBDC02C2F1200300FA8D
:1004E00003FC20FA02F001FA03FE40EA0E0021FAB2
:1004F00002F11444BDE600BF70B54FF0FF0C4CF4A0
:10050000E06C1CEA11541DBF1CEA135594EA0C0F51
:1005100095EA0C0F00F0DEF82C4481EA030621EA8C
:100520004C5123EA4C5350EA013518BF52EA0335C7
:1005300041F4801143F4801338D0A0FB02CE4FF079
:100540000005E1FB02E506F00042E0FB03E54FF0A9
:100550000006E1FB03569CF0000F18BF4EF0010EA1
:10056000A4F1FF04B6F5007F64F5407404D25FEA9D
:100570004E0E6D4146EB060642EAC62141EA555150
:100580004FEAC52040EA5E504FEACE2EB4F1FD0C92
:1005900088BFBCF5E06F1ED8BEF1004F08BF5FEA10
:1005A000500E50F1000041EB045170BD06F00046C2
:1005B00046EA010140EA020081EA0301B4EB5C046F
:1005C000C2BFD4EB0C0541EA045170BD41F4801167
:1005D0004FF0000E013C00F3AB8014F1360FDEBF8C
:1005E000002001F0004170BDC4F10004203C35DA68
:1005F0000C341BDC04F11404C4F1200500FA05F3EB
:1006000020FA04F001FA05F240EA020001F000428B
:1006100021F0004110EBD37021FA04F642EB060101
:100620005EEA430E08BF20EAD37070BDC4F10C042B
:10063000C4F1200500FA04F320FA05F001FA04F2EF
:1006400040EA020001F0004110EBD37041F10001DB
:100650005EEA430E08BF20EAD37070BDC4F12005E6
:1006600000FA05F24EEA020E20FA04F301FA05F24E
:1006700043EA020321FA04F001F0004121FA04F2F6
:1006800020EA020000EBD3705EEA430E08BF20EAC6
:10069000D37070BD94F0000F0FD101F00046400000
:1006A00041EB010111F4801F08BF013CF7D041EA82
:1006B000060195F0000F18BF704703F00046520086
:1006C00043EB030313F4801F08BF013DF7D043EA57
:1006D0000603704794EA0C0F0CEA135518BF95EA0D
:1006E0000C0F0CD050EA410618BF52EA4306D1D194
:1006F00081EA030101F000414FF0000070BD50EAB3
:10070000410606BF1046194652EA430619D094EA3C
:100710000C0F02D150EA013613D195EA0C0F05D126
:1007200052EA03361CBF104619460AD181EA03017A
:1007300001F0004141F0FE4141F470014FF0000032
:1007400070BD41F0FE4141F4780170BD70B54FF0CD
:10075000FF0C4CF4E06C1CEA11541DBF1CEA13554D
:1007600094EA0C0F95EA0C0F00F0A7F8A4EB05042F
:1007700081EA030E52EA03354FEA013100F0888026
:100780004FEA03334FF0805545EA131343EA1263EF
:100790004FEA022245EA111545EA10654FEA0026A4
:1007A0000EF000419D4208BF964244F1FD0404F55D
:1007B000407402D25B084FEA3202B61A65EB0305B9
:1007C0005B084FEA32024FF480104FF4002CB6EB76
:1007D000020E75EB030E22BFB61A754640EA0C00F6
:1007E0005B084FEA3202B6EB020E75EB030E22BF36
:1007F000B61A754640EA5C005B084FEA3202B6EB77
:10080000020E75EB030E22BFB61A754640EA9C0035
:100810005B084FEA3202B6EB020E75EB030E22BF05
:10082000B61A754640EADC0055EA060E18D04FEAC3
:10083000051545EA16754FEA06164FEAC30343EA63
:1008400052734FEAC2025FEA1C1CC0D111F4801F30
:100850000BD141EA00014FF000004FF0004CB6E729
:1008600011F4801F04BF01430020B4F1FD0C88BFC8
:10087000BCF5E06F3FF6AFAEB5EB030C04BFB6EBD3
:10088000020C5FEA500C50F1000041EB045170BDC6
:100890000EF0004E4EEA113114EB5C04C2BFD4EBF3
:1008A0000C0541EA045170BD41F480114FF0000E77
:1008B000013C90E645EA060E8DE60CEA135594EAF3
:1008C0000C0F08BF95EA0C0F3FF43BAF94EA0C0FF6
:1008D0000AD150EA01347FF434AF95EA0C0F7FF46B
:1008E00025AF104619462CE795EA0C0F06D152EABF
:1008F00003353FF4FDAE1046194622E750EA4106A3
:1009000018BF52EA43067FF4C5AE50EA41047FF4B3
:100910000DAF52EA43057FF4EBAE12E753B94AB983
:10092000002908BF00281CBF4FF0FF314FF0FF30F7
:1009300000F06EB9ADF1080C6DE904CE00F006F8D8
:10094000DDF804E0DDE9022304B070472DE9F0474B
:10095000089D0E4604468C46002B40F081808A425A
:10096000174645D9B2FA82F24AB1C2F1200106FA1D
:1009700002F320FA01F1974041EA030C94404FEA58
:10098000174E230CBCFBFEF6B9B20EFB16CC43EAA5
:100990000C4306FB01F0984209D9FB1806F1FF3C15
:1009A00080F01581984240F21281023E3B441B1AAE
:1009B000A4B2B3FBFEF00EFB103344EA034400FB89
:1009C00001F1A14209D93C1900F1FF3380F0018106
:1009D000A14240F2FE8002383C44641A40EA0640DC
:1009E00000211DB1D4400023C5E90043BDE8F087D4
:1009F00002B9FFDEB2FA82F2002A4FD1CB1B4FEAD6
:100A0000174E1FFA87F80121B3FBFEFC260C0EFBE4
:100A10001C3346EA034608FB0CF3B34207D9BE1960
:100A20000CF1FF3002D2B34200F2EB808446F61A9A
:100A3000A3B2B6FBFEF00EFB106643EA064408FBC9
:100A400000F8A04507D93C1900F1FF3302D2A045B8
:100A500000F2D2801846A4EB080440EA0C40C0E73C
:100A60008B4208D9002D00F0AF800021C5E90006B7
:100A70000846BDE8F087B3FA83F1002949D1B342B3
:100A800002D3824200F2BB80841A66EB030301208A
:100A90009C46002DAAD0C5E9004CA7E7C2F120036F
:100AA0009740D8409140DE404FEA174E08434FEA46
:100AB000104CB6FBFEF11FFA87F80EFB11664CEAEC
:100AC000064601FB08F3B34204FA02F409D9BE1941
:100AD00001F1FF3C80F08E80B34240F28B800239FE
:100AE0003E44F31A86B2B3FBFEF00EFB103346EA27
:100AF000034600FB08F3B34207D9BE1900F1FF3CDF
:100B000074D2B34272D902383E44F31A40EA01412A
:100B10007AE7C1F1200703FA01F422FA07F31C4334
:100B200020FA07F906FA01F34FEA144CFE4049EAAD
:100B300003094FEA1943B6FBFCFE1FFA84F80CFBCD
:100B40001E6643EA06460EFB08FAB24502FA01F2B7
:100B500000FA01F308D9A6190EF1FF3048D2B245C8
:100B600046D9AEF1020E2644A6EB0A061FFA89F911
:100B7000B6FBFCF00CFB106649EA064600FB08F8E1
:100B8000B04507D9A61900F1FF3C2DD2B0452BD9AD
:100B90000238264440EA0E40A6EB0806A0FB028974
:100BA0004E45C446CE4618D315D075B3B3EB0C02F0
:100BB00066EB0E0606FA07F722FA01F3CE401F4352
:100BC000C5E90076002111E7294628460EE766466A
:100BD000EDE6184601E74345E7D2B8EB020C69EBB6
:100BE00004040138A646E0E76046D3E760468CE798
:100BF0008646B9E7614674E702383C442BE708466D
:100C000047E7ACF1020C3E4411E72946EEE600BF8F
:100C1000704700BF10F8012B11F8013B012A28BFD3
:100C20009A42F7D0D01A7047034613F8012B002AD6
:100C3000FBD1181A013870472DE9F047164690B0DD
:100C400005460F46002209A9304627F0C3F8099B44
:100C50001B780446A3B1DFF82081002458F8041B58
:100C60003046FFF7D7FF58B10134382CF6D128466B
:100C70003F4A3346022128F09FFE6FF0850027E0AF
:100C8000BB680AAA1B69A1B23846984700281FDB37
:100C90000B98FFF7C7FB34A3D3E90023FFF756FDFA
:100CA00006460A980F46FFF7BDFB02460B46304644
:100CB0003946FFF76BFA372C06460F460BDDCDE9B8
:100CC00000672C4A23460021284628F075FE0020A4
:100CD00010B0BDE8F087284B53F824A024F004039B
:100CE000032B0CD00B2C0AD0CDE90267234ACDF898
:100CF00000A023460021284628F05EFEE7E70F9873
:100D0000FFF790FB18A3D3E90023FFF71FFD8046F0
:100D10000E988946FFF786FB02460B464046494639
:100D2000FFF734FACDE906010D98FFF77BFB0EA320
:100D3000D3E90023FFF70AFD80460C988946FFF7A8
:100D400071FB02460B4640464946FFF71FFACDE9C4
:100D50000267CDE904010A4ACDF800A0234600212C
:100D6000284628F029FEB2E70000000080842E41CA
:100D700013740300A473030094020020C3730300E0
:100D8000DF73030000000000F0B5494DD5F81C31B9
:100D9000996811F0010189B01FD103AA40F6034000
:100DA00009F086FD0446002873D1039B9B681B78DD
:100DB00083B905F1940318462BF0FDF9BFF35B8F5F
:100DC00000F0050053E8002F43E800010029F9D1A5
:100DD000BFF35B8F03981EF0CDFF03AA002141F201
:100DE000030009F065FD0446002852D1039A314EF4
:100DF000936853F8010F596803C610461EF0BAFFF6
:100E0000214603AA41F2010009F052FD04460028E0
:100E10003FD1039883685A7885F83420D9789A7836
:100E200042EA0122EA861A7985F83520197ADA79B8
:100E300042EA01222A875A799B7942EA03236B8787
:100E40001EF098FF214603AA41F2020009F030FD8E
:100E50000446F0B9039FBA68531C413218685968B8
:100E6000344603C4083393422646F7D195F86630DA
:100E7000384643F0060385F866301EF07BFF95F890
:100E800040305A0620D40C4B1B685B0704D16FF02E
:100E90001204204609B0F0BD084B09490948C91A97
:100EA000C908890141F0010128F078F9EFE700BF96
:100EB000000000203C000020700A0020CC3A030013
:100EC000943B03001F87030003AA002142F20300A2
:100ED00009F0EEFC04460028DBD1039ABC4E93686F
:100EE00053F8010F596803C610461EF043FF214610
:100EF00003AA42F2020009F0DBFC04460028C8D134
:100F0000039B9B68B3F80120A5F8C42091B229B1D6
:100F1000DA78114606F1280031F0E8FF03981EF058
:100F200029FF95F8406016F0200600F02D8195F815
:100F300060301F0711D503AA002142F21C0009F0FE
:100F4000B7FC04460028A4D10398836853F8012F06
:100F50005B68C5E928231EF00DFF95F898309E06C2
:100F600024D502A90DF1060009F07AFE04460028F6
:100F70008FD1042142F2240009F01AFB0646002812
:100F800000F00981042108302DF086F8BDF8063004
:100F90000380BDF8083043802246314642F22400E7
:100FA00009F086FC044600287FF473AF95F898306A
:100FB0005C062CD5022142F22E0009F0F9FA044613
:100FC000002800F0E880022108302DF065F86FF06D
:100FD0007B030370032343702146002242F22E005C
:100FE00009F066FC044600287FF453AF014603AACB
:100FF00042F22A0009F05CFC044600287FF449AF65
:10100000039883685B7885F8E0301EF0B3FE082112
:1010100042F2010009F0CCFA0446002800F0BB803F
:10102000082108442DF038F895F8981011F0400F79
:10103000024640F2022308BF032388074CBF43F057
:101040002C0043F00C0095F899308F0648BF40F013
:10105000400013F0090F95F8663018BF40F40060A7
:1010600003F00603CE0748BF40F01000062B08BF70
:1010700040F4C07000212BF0E3F82146002242F238
:10108000010009F015FC044600287FF402AF95F832
:10109000403098061ED4B5F8C410D9B903AA41F25D
:1010A000050009F005FC044600287FF4F2AEB5F80F
:1010B000C43063B9039B9B685A78997842EA01224D
:1010C000A5F8C4209A884348114631F00FFF0398D1
:1010D0001EF050FE082140F6014009F069FA04466E
:1010E000002858D0082108442CF0D6FF95F89830F5
:1010F000D907024664D534A1D1E900012BF0A0F84C
:101100002146002240F6014009F0D2FB04460028A7
:101110007FF4BFAE014602AA4FF6014009F0C8FBBA
:101120002D4E3368002867D013F0060F09D02B49E5
:101130002B4B2C48C91AC908890141F0020128F03B
:101140002DF80BF003FF044600287FF4A2AE014601
:101150003022254832F0CDF9244BC5F83431EB79F3
:10116000002B40F0D980336803F00703022B7FF691
:1011700090AE1B4B19491E48C91AC908890141F094
:10118000030128F00BF884E6022140F66D4009F0D7
:101190000FFA044610B96FF068047AE602210830AD
:1011A0002CF07AFF0123037046702146324640F648
:1011B0006D4009F07DFB044600283FF4B8AE68E6B8
:1011C0000C484FF0005199E7908800020080002001
:1011D00098000020C8000020700A0020943B030003
:1011E000CC3A0300438703003001002015AC000017
:1011F000178803001088000203F00703022B46D96A
:10120000029B494C9F68494BB7F801204848032A84
:10121000A4EB030496BF4749474951F82210E4085C
:10122000A40144F0030327F0DAFF336803F0070357
:10123000022B2CD9B7F80110B7F80320022944F08B
:1012400003033DD1032A3BD83C4951F822103C48C6
:1012500027F0C5FF336803F00703022B17D97A790B
:101260003848032A96BF3849334951F82210CDE94E
:101270000312BA790592B7F807200692D7F8092029
:10128000079244F00303052203A927F0DDFF02982B
:101290001EF070FD02AA00214FF6024009F008FB83
:1012A000044678B1336813F0060F3FF44AAF1E4985
:1012B0001E4B2648C91AC908890141F002013EE7C0
:1012C0001D49C4E702988368B3F80130A5F885305A
:1012D0001EF050FD95F885305B077FF532AF02AA0E
:1012E00021464FF6034009F0E3FA68B1336813F082
:1012F000060F3FF426AF0C490C4B1548C91AC90814
:10130000890141F002011AE7029883685B7885F849
:1013100084301EF02FFD14E704210E482AF054FFFC
:101320000AF0E0F9B5E500BF943B0300CC3A0300B6
:1013300067870300244803000C810300E44703008F
:1013400080870300988703005C480300C58703007B
:10135000EE870300940000202DE9F041D0E90BC78F
:10136000D0F828800CEB07043034A0450E46154613
:1013700018D81B4F18A3D3E90023ACFB0701FFF7D4
:10138000CDFAA4EB080420F07F40306012A3D3E92B
:101390000023A4FB0701FFF7C1FA20F07F4028607B
:1013A000BDE8F0810E4C0CA3D3E90023A8FB040197
:1013B000FFF7B4FA20F07F4307F130003360A0FB61
:1013C000040105A3D3E90023FFF7A8FA20F07F402A
:1013D0002860BDE8F08100BF8D49FD1A07000000BC
:1013E00000CA9A3B000000002DE9F04FAC4C94F885
:1013F0004E608FB006F00106002800F05B81B6BB9E
:1014000094F8392094F82D3094F8290004EB8202E6
:1014100004EB830300F00300FF21D2F83C80D3F8F3
:10142000309084F82A101BF053F994F84E004207CC
:1014300000F11681B9F1000F11D09948494616F014
:1014400051FA99F800305B0605D5062111F0D8FC59
:10145000002800F040829248414616F043FA99F87D
:10146000003013F00E0F40F0D180636A23B10C26D8
:1014700030460FB0BDE8F08F15F0AAFB8246002879
:1014800000F0468215F0B0FB8346002800F0598238
:1014900016F036FF0546002800F050824FF6FF7325
:1014A000806FAB8505F11C030B93002800F02C82A4
:1014B00005F16C0205F1680111F0AEFCB5F864208D
:1014C000784895F83D1095F8327195F840C0764B04
:1014D0002B66024042F4887295F87E00C5F83CA164
:1014E00042F0010201F03F0127F0030E61F07F019D
:1014F0000027A5F864204FF01B1220F01F0085F88C
:101500003D1067F3000C0621EA65684A85F832E170
:1015100085F840C085F87E00C5F82821C5E9137715
:1015200085F83F706F866F636F65A5F8C870A5F882
:10153000CC70C5F80C71A5F81071A5F82471C5F828
:101540002C71A5F8307185F83B71AF67A5F87C70F8
:10155000A5F85C71A5F8C41095F85E1195F87EC1E8
:1015600095F8A601B5F8DC20A5F87C7167F3041C9A
:1015700021F0070102F0FC0267F3C30085F87EC189
:1015800085F85E11A5F8DC20C5F8E470A5F8E870D0
:1015900085F8EA70A5F8A471A5F8B07185F8A601E0
:1015A00017F0DEF9A5F8D60017F0E0F9D5F8B41178
:1015B0003F4AA5F8D8000A40C5F8B42117F0DCF975
:1015C00095F8B82160F3020285F8B82117F0DAF92E
:1015D000C4E911AB0B9B636295F8B82195F82030F4
:1015E000C5F8CC7160F3C50267F30003C5E97177F4
:1015F000C5E96F77C5E90577ED6185F8B82185F80C
:1016000020301CF0D5F9002840F0678194F828308C
:101610000121C3F342030DA88DF8343011F074FD9D
:1016200090B399F8003003F00F03022B00F1FF3262
:1016300000F09E80012B00F0548198F801001030DA
:10164000C000002B40F03F8199F801301033DB00DF
:1016500003F54D71084403F59A7303FB020092E011
:10166000C0F3C000324604F14F011BF0A1F9FF287E
:1016700084F82A003FF4DEAE30461BF043F8B9F19F
:10168000000F7FF4DAAEEAE6636A002B3FF4EFAEB8
:1016900015F0C4FE0C2630460FB0BDE8F08F00BF39
:1016A0008029002080F8FFFF480148017F410100A8
:1016B0000000FFF6002E3FF4DAAE204615F064FB82
:1016C00084420CD0A84AA949A9484FF4F36327F0F3
:1016D0005FF8404080F311884FF0030002DF94F878
:1016E0002830D9070DAD0ED502220D920321A14B52
:1016F00000950122002012F0FBFE294615F01CFB8C
:10170000002840F02381022203219A4B00950020FB
:101710000D9212F0EDFE294615F00EFB002840F068
:10172000F980954815F06CFB002840F0DF80934865
:1017300015F036FB84420CD08B4A8C498C4840F221
:10174000BA7327F025F8404080F311884FF003006A
:1017500002DF636A0BB115F061FE94F84E3000268B
:101760006FF30003304684F84E300FB0BDE8F08FC1
:1017700099F801301033DB0000FB03F000F5AA708C
:10178000642303FB020094F820707D4AE461002585
:10179000312365F30007A0FB0201236084F8207069
:1017A0006FA3D3E90023C4E90555C4E90155FFF748
:1017B000B5F8B4F84C80E06012F0E0FE0746B8F1EE
:1017C000000F08D199F8005005F00F05A5F10105AB
:1017D000B5FA85F56D0994F82820E36865F30002F1
:1017E00012F0010584F828203DD0DFF88891654982
:1017F0000493002002250DF1300801930591CDE9F5
:1018000007980321CDE9020006942A4600903B4642
:101810000C9512F0E5FD414615F08EFA00287FF494
:1018200033AF594905914AF2D8320092CDE9079871
:10183000CDE90300CDE9010006943B4601220321D6
:101840000C9512F0CDFD414615F076FA00287FF494
:101850001BAF94F84E30304643F0010384F84E300D
:101860000FB0BDE8F08F4948494ADFF808E1DFF8DA
:1018700014C10694A8FB00014FF0910909FB08115F
:1018800003F24718C2F800804FF00209049309924E
:101890000DF1300832A3D3E900234FF6FF7ACDE9EA
:1018A00007E80295CDF83090CDF814C0CDF80CA023
:1018B000FFF734F84A46CDE900503B46284603215D
:1018C00012F038FDBFE7062B3FF4BEAE4FF4DA73DB
:1018D0004FF41B70C1E61226CAE515F09FFD0326E2
:1018E000C6E54FF4F2734FF47F70B6E61E4A2949FD
:1018F0001F4840F2B77326F04BFF404080F3118839
:101900004FF0030002DF12E705F17000A867CFE592
:101910000726ADE5194815F043FA84423FF4A7AD18
:1019200040F2B173104A1149114826F031FF40408E
:1019300080F311884FF0030002DF98E5584615F058
:1019400059F9504615F04AF9072691E50B4815F06C
:1019500027FA84423FF48BAD40F2A373E2E700BF65
:101960008D49FD1A07000000904F030080500300CE
:10197000E04B0300FD5B01009C2900208029002032
:1019800000CA9A3BF570010095730100002AE784B4
:10199000D82900206C4E03002DE9F04FC84D2B686C
:1019A0008BB004460F469146002B00F01B82E68E5A
:1019B000628E94F8123116443E4413F00703B6B217
:1019C00040F0A781B4F8EC80A6EB08021FFA82FA77
:1019D000120400F1028294F93D20002AC0F23D81F8
:1019E00094F8E83084F8E93094F87C2194F87D315B
:1019F00094F8101184F81111934206D094F87E31B6
:101A000003F00703052B00F046822B68A34204BFB6
:101A100000232B60D4F80C51002D00F06B81286856
:101A2000002800F06781B4F81431B4F82EC0426881
:101A3000C4F80C216345B4F81621B4F8181100F06D
:101A40002081B4F82CC0A5F806C04FF0150E4FF059
:101A5000000CEB832A84698485F804E085F81CC0B7
:101A6000294615F0CDF815F0D5F82368002BC0F203
:101A7000FC80E08DB4F8145110FB0AF080B2B0FB8A
:101A8000F5F315FB03F292B290421FFA83FBC0F00C
:101A9000D38005FB130340F2E2428A489BB202FB6B
:101AA00003F3A3FB000184A3D3E90023FEF736FF71
:101AB000A9EB0009618E94F93D30A8EB06065E445F
:101AC0000F44374440F2E248002B678608FB05F5D7
:101AD000C0F28A817C4A7D497D4840F6F61326F0A3
:101AE00057FE404080F311884FF0030002DF0027CB
:101AF000AA46B4F81821B4F81601764B7649208628
:101B000042F2107C0CFB02522B442944B3FBF5F348
:101B100000F1060C013AB2FBF5F2B1FBF5F599B212
:101B2000A4F8C6206145B4F81421A4F8D210A4F892
:101B3000CA50E28502DD091A063989B294F81231D9
:101B4000A4F8CE101B0744BF0023A4F8C83002211C
:101B500001201DF091FE002202210546012011F016
:101B6000A9F95E494FF4EA72204611F035F900F107
:101B700003085FFA88F85A4B00944246012100207E
:101B800012F0B6FC30F002030CD04F4A55495048D1
:101B900040F6252326F0FCFD404080F311884FF0ED
:101BA000030002DF474BAAFB03AB504642A3D3E935
:101BB00000235946FEF7B2FE4B4AE368049320F037
:101BC0007F46A6FB0223072000FB0633BAEB020088
:101BD0006BEB0301DFF814E1DFF814C108940694FD
:101BE0004FF47A7200234FF6FE74CDF81CE0CDF866
:101BF00014C00394FEF792FE4B46CDE901600097B6
:101C000042460121002012F0EBFB30F002030CD021
:101C10002D4A34492E4840F63F2326F0B9FD404076
:101C200080F311884FF0030002DF002D40F02A817D
:101C300028460BB0BDE8F08F121A40F2E24321486B
:101C400003FB02F2A2FB00011BA3D3E90023FEF772
:101C500065FE20F07F4081442CE794F8DD20002AC7
:101C60003FF4BEAE84F8DD30BEE6D4E9010223F0D5
:101C7000004382422CBF914481442360A9EB0309B5
:101C8000F7E6B4F830C094457FF4DBAE40F2E24CA6
:101C90000CFB03FB42F2107CB4F8C6E00CFB01BC69
:101CA0000CF1FF3CBCFBFBFC1FFA8CFCE6457FF40F
:101CB000C8AE01232B71D3E68D49FD1A0700000041
:101CC000CC2B002000CA9A3B9C500300504C0300D0
:101CD000E04B03007FC3C901FF596202F8290020CD
:101CE000997C01007C5103008D49FD1A417C010063
:101CF00025C00100784A7949794840F67A1326F0E0
:101D000047FD404080F311884FF0030002DF286850
:101D100089E6012014F084FF0746002800F0CD80FA
:101D2000704811F025F80546002800F0C68014F030
:101D300095FF3A682B79D4F80C11516043F00303F6
:101D40000C22C4F80C716A712B71238ED4F81C21FB
:101D5000654F94F8121100201E44E871A7FB02326F
:101D6000C2F38F2294F820312B72D4F8BC31A5F83D
:101D70000920B4F81421A5F80B200636B4F8162172
:101D8000A5F80D20B6B2B4F81821A5F80F2060F31D
:101D90000201A4F8EC6084F81211A5F81160002B80
:101DA0007FD094F85E2190077BD494F8B721D107B7
:101DB00077D4D4F8C821934204BF1A68C4F8C82164
:101DC000D4F8C021002A6FD11A682A601D602B68E0
:101DD000C4E970550BB9C4F8CC516FF076000BB064
:101DE000BDE8F08F2860E2E5E26C636C3F4F03FBD7
:101DF0001A23E3641BF02EFE064694F8DC00C0F3C1
:101E000082001BF029FE064405FB06F6384BE26C07
:101E100094F8201106F5742606F23F26A3FB063639
:101E2000B60C06FB0BF06B080244963B9A4228BFA7
:101E30001A4608FB01FC4FF0000EC4E91232A0FB69
:101E4000070123A3D3E90023C4F854C0C4F8E4E095
:101E50006664FEF763FD244B8446D4F81C01A3FBA3
:101E60000030800A08FB00F0A0FB070118A3D3E9AB
:101E70000023A9EB0C09FEF751FDA5EB060A20F0A3
:101E80007F4736E601221046022111F013F80020A8
:101E90000BB0BDE8F08F002384F87D21A4F8CC308E
:101EA000B3E5D4F8C0216AB1D4F8C4311A682A6005
:101EB0001D602B68C4F8C4518CE76FF068000BB04C
:101EC000BDE8F08F2B60C4E96F55C4F8C45181E7B9
:101ED0008D49FD1A070000009C5003006851030063
:101EE000E04B0300502C00205917B7D100CA9A3B91
:101EF00083DE1B43000000002DE9F04F1C461368F1
:101F00000D46D3F800A031F82ECF2346174653F8DC
:101F10000C6B8A78A4F80CC09A70D5F82A30A360AC
:101F20002B46814653F83A2FE26104F11C001B79DD
:101F3000037193B0052111F0E7F894F8213000F017
:101F40003F0060F30503012884F821300AD995F891
:101F50003F3003F01F02053AC3F304010B2A84F853
:101F6000221002D913B0BDE8F08F3A6896F8DC1061
:101F700000209060B5F83480A4F8128095F83620DF
:101F800095F8370042EA0022A2825B0963F38401DC
:101F90006B8E0B9386F8DC1040F2E24303FB08F8EB
:101FA0001BF058FD834696F8DC00C0F382001BF05E
:101FB00053FD584408FB00F0DFF824E395F831C0E6
:101FC000A18ABD4A00F5742000F23F20AEFB00302C
:101FD0004FEA580E40F2E24303FB0CF3800CAEF1E3
:101FE000960EA062E363C4F82CE0B5F838B0B348AD
:101FF00042F2107303FB0B83424401F1060C013BD8
:10200000B2FBF8F2B3FBF8F3A6F8C63093B263451F
:102010004044A6F8D230B0FBF8F0A6F8CA0002DDC2
:102020005B1A063B9BB2A6F8CE302946A368C6F8D9
:10203000E03051F81E0F2B7F8A88ADF844204FF412
:10204000807CC3F38012A5F81CC08DF83820C3F340
:10205000401210908DF83C200A929AF82A00BA7C1F
:102060000D910C921AF098FFDDE90C2105F12B037C
:10207000002840F0EB80FF2AC5F82B00988005F17E
:10208000250300F0EF80104605F11F020C931AF0B3
:1020900055FAAA7F0C9BBDF844101098C5F825008E
:1020A0000232AA77998096F8DC30618AA28AAA86E1
:1020B000C3F3820385F838306986A5F836B0304618
:1020C00016F02AF929462082E8807D68484614F0F7
:1020D00097FD238AEB8018232B710A9B2868002B1D
:1020E00000F0CF8094F809E0237A94F80BC0A17A2D
:1020F00094F8212041EA0C2143EA0E234B4042F0A0
:1021000040020121638484F821202977294614F0B4
:1021100077FD14F07FFD94F84900012100F00700DD
:102120001BF0A6FB664A4FF000098346312300F2FC
:102130005240A0FB02013360C6E901995CA3D3E9D8
:102140000023FEF7EBFBFD680B99A36A40F2E24225
:1021500020F07F4002FB0155F0604A460221012039
:10216000A8EB030810F0A6FE504615F0F7FA821C03
:10217000544BCDF800A0D2B24846012112F0B8F974
:1021800005F286350128A5EB0B0500F086809AF84C
:102190002830DB0779D4304616F0BEF8DFF820B1DE
:1021A000A8FB0B8942A3D3E90023044649464046D5
:1021B000FEF7B4FB444A069620F07F4AAAFB0223AE
:1021C000072101FB0A334FF4B671BF6808913F49FC
:1021D00007913F490591B8EB020069EB0301F368F1
:1021E000049300264FF47A7200230396FEF796FBC1
:1021F0002FA3D3E900238446A5FB0B01CDE901AC55
:10220000FEF78CFB033420F07F40E4B2313F3B46C5
:10221000009022463046012112F0E2F830F002032D
:102220000CD02C4A2C492D4840F26D1326F0B0FA00
:10223000404080F311884FF0030002DF0122104676
:10224000022113B0BDE8F04F10F034BE2846FF2A3B
:1022500050F824CFC5F82BC08088988005F125035D
:102260007FF411AF0022BDF844101098C5F8252066
:102270009A809DF83830A5F82310AB77C5F81F0079
:1022800011E79DF83C302B7740E7002301220093B3
:102290001846114612F02CF97DE714F08DFD8245A9
:1022A0003FF475AF19F09AFE71E700BFAFF30080FD
:1022B0008D49FD1A070000007FC3C901FF59620262
:1022C00000CA9A3B09C001008D49FD1AADBF01004B
:1022D00025C00100C45203007C510300E04B030001
:1022E00083DE1B43000000002DE9F04F8FB00DF19D
:1022F0003701354F0B900DF1360014F0F7FC9DF8C7
:102300003730DFF8D8909DF836A00A9312F036F9EE
:102310003C68A4FB09452AA3D3E90023804629464B
:102320002046FEF7FBFA0B9B069383467868274B03
:102330000593002622A3D3E90023A0FB0901CDE9E0
:102340000766FEF7EBFA224B2BF07F49A9FB03BC93
:1023500020F07F40072303FB09CCCDE90360B4EBF9
:102360000B0065EB0C014FF47A720023FEF7D6FAEE
:102370000A9A0096CDE9019043460321504612F097
:102380002FF830F0020415D1124A1348002324F02C
:1023900041FF68B19DF837209DF836000094234630
:1023A000032112F0A5F86FF073000FB0BDE8F08FB5
:1023B000F868FAE76FF08B00F7E700BFAFF3008033
:1023C0008D49FD1A07000000A4340020690A0200AC
:1023D0008D49FD1A447B0B00B434002000CA9A3B9F
:1023E00038B50F4D044612F0C9F8A96812F0C8F8C4
:1023F0000C49B0FBF4F40444686807A3D3E9002354
:10240000A0FB0101FEF78AFA20F07F40844294BFCE
:102410000020012038BD00BF8D49FD1A07000000D3
:10242000A434002000CA9A3B7FB50D4826F0B0F9CD
:10243000002000F0BFF901A800F088F970B1094848
:10244000094E26F0A5F901AC0025294614F8012B08
:102450003046013526F09CF90A2DF6D104B070BD46
:10246000CE600300EC600300F860030008B521B102
:10247000BDE80840054826F08BB9054826F088F9E4
:10248000BDE80840012000F095B900BF0C610300D1
:102490002C61030070B5002088B009F0B5F906463C
:1024A00028B10146154826F073F908B070BD144DE7
:1024B000144826F06DF928F068F90FCD03AC0FC46D
:1024C0002B682360104900963346032203A809F0C5
:1024D000F7FC014668B10D4826F05AF90C480AF09D
:1024E00097F800F043F900214FF4004024F044FE37
:1024F000F9E7084826F04CF9F0E700BF3761030020
:10250000F03C030057610300C83D03006E61030007
:10251000700100209461030008B50B4B1B6803F0A9
:102520000703022B09D90949094B0A48C91AC908E6
:10253000890141F0030126F031FEBDE8084006495B
:10254000002201200AF092BBC80A0020443C03008C
:10255000CC3A0300B66103000526000070B5204C9C
:102560002368064603F007030D4669B9022B09D913
:102570001C491D4B1D48C91AC908890141F00301B6
:1025800026F00CFE002070BD022B09D91649154B10
:1025900017485B1ADB089B0143F0030126F0FEFDA0
:1025A000144900234B60144B0B60144BCB602B8AF7
:1025B0000B8130464FF6FF734B810DF0D7FE00289C
:1025C000E0DA236803F00703022BDBD90549064B49
:1025D0000B48C91AC908890141F00301D0E700BFBF
:1025E000C80A0020443C0300CC3A0300D761030032
:1025F000F9610300B41800208126000094870020B0
:102600000F62030007B500238DF8043042F619234A
:10261000ADF80630134B1449019A1A60134A4A6008
:1026200001220A814FF6FF72CA8103220A740B60ED
:102630000DF0CCFA90B10E4B1B6803F00703022B90
:102640000CD90C4B0C490D48C91AC908890141F035
:10265000030103B05DF804EB26F0A0BD03B05DF804
:1026600004FB00BF94870020A01800205D25000017
:10267000C80A0020CC3A0300443C03001F62030058
:102680002DE9F041294DBDF818801E462B6803F056
:102690000703022B43D9264C264F2748E21BD208BA
:1026A000920142F00302414626F085FD3EB92B68B7
:1026B00003F00703022B29D80020BDE8F081B8F110
:1026C000000FF4D01D4B1A4CDFF87C8001221A70E9
:1026D0001B4B32681A6072685A6032891A81154A37
:1026E000A41AE408A40100271E4644F003042B6842
:1026F00003F00703022B05D9F25D23463946404615
:1027000026F06DFD01370A2FF1D1D5E7E11BC9088D
:1027100089010C4841F0030126F040FDCCE7002E72
:10272000CAD0B8F1000FC7D0CCE700BFC80A00205C
:10273000443C0300CC3A030041620300BE87002002
:10274000BF870020566203005D620300054B1A78C4
:1027500032B1054A116801605168416012890281F5
:1027600018787047BE870020BF87002008B50B4B44
:102770001B6803F00703022B09D90949094B0A48D2
:10278000C91AC908890141F0030126F007FDBDE817
:10279000084006490648002230F0B9BCC80A0020AB
:1027A000443C0300CC3A0300786203001925000082
:1027B000700D002007B560B14FF4F0120023CDE991
:1027C000002307480022002325F002F903B05DF83A
:1027D00004FB034803B05DF804EB30F0A4BC00BF79
:1027E000700D00200B0706D5034BC35C03F00303F9
:1027F000012B08BF2030704759DA030030B50A4C6E
:102800000A44914200D130BD11F8013B5840030900
:10281000E35C83EA0013DDB2C3F30313E05C80EAF8
:102820000510C0B2EDE700BF8E6203000B680133F4
:102830000B60014B1B6818478C010020014B18608E
:10284000704700BF8C01002007B50B4600210246EF
:102850000191034801A900F065F903B05DF804FB9C
:102860002D28000030B585B0CDE9010104460025D2
:1028700001A90548039500F055F9DDE902309842B9
:10288000B8BF255405B030BD6B8702002DE9F84F65
:10289000B0F8189019F00808044693460DD00129A5
:1028A0000CBF49F0100949F02009A0F818908BF3EB
:1028B0001188BFF36F8FBDE8F88F09F0070902296F
:1028C00007D1204625F07EFF0028F0D00128238B79
:1028D00050D16769218B002F15DA256821F0070197
:1028E000C4E9008841F0010121830026218B01F019
:1028F000070ACA4502D0A368002B5CD10DB9002E8F
:1029000074D0002358E001F007035A1F012A20D891
:1029100021F00701062B256889B2C4E900880CD193
:10292000002D2B4638BF00232BB1628B1B68013270
:102930006283002BF8D141F002012183204625F06B
:1029400041FF06460028D1D0238B43F02003238388
:10295000CBE7042B0CD121F0070189B2218320465B
:1029600025F030FF05460028BFD041F0200121832B
:102970000025BAE7032809D1226923F00703166866
:1029800043F00603238300252F46AFE7042806D132
:10299000226923F00703566843F00403F2E7052891
:1029A00006D1226923F00703966843F00503E9E79F
:1029B00000252E46E8E7012341F0080121838BF32F
:1029C0001188BFF36F8F03BB002D33D116B121499E
:1029D0002046B0474FF02003EFF3118B83F31188AB
:1029E000BFF36F8F238B23F008032383238BDA0637
:1029F00028D523F0100323830121B4F8189009F09F
:102A0000070900297FF45BAF51E7A1680029DBD0FB
:102A10000B68D1F804B0002B38BF0023994652460A
:102A20003B462046D847B9F1000FCDD0D9F8003049
:102A30004946EEE729463B46524620462D6825F09A
:102A4000DDFEC1E713F020011EBF23F02003238326
:102A50000221D2E729880200F0B5094E016802463A
:102A60000A2700200C46013123789D5D6D0701D4B3
:102A70001460F0BD07FB0033A3F13000F2E700BFA4
:102A800059DA03002DE9F74F14469946D378244AC2
:102A900013F802A06F2B0AF0030206460F460192BC
:102AA0002DD028D8582B14BF0A251025DDF83080EA
:102AB000AA464FF0000B52465B4630463946FDF7BA
:102AC0002DFF092AD3B21FD830335F45DBB208BFD0
:102AD000564508F8013D01D3C84512D823789B0616
:102AE00005D5082D16D1A37843F00803A3704046FE
:102AF00003B0BDE8F08F03F0F703702BD3E7082590
:102B0000D4E706460F46D6E7019A012A0CBF3733B1
:102B10005733DAE7102DEAD1A37843F01003E5E745
:102B200059DA03002DE9F04FA3B08846069091468C
:102B30001C46002599F8000010B9284600F0AEBDEB
:102B400009F101032528079307D04146069B9847C2
:102B50000028C0F2A385013524E21822002114A820
:102B600030F0C7FC99F80130252B59D0079A16464A
:102B700012F8013B2B2B00F08B8079D8202B00F032
:102B80008C80232B00F08E809DF8583003F0440297
:102B9000442A03D16FF386138DF858309DF85830CE
:102BA000129643F080038DF8583033782A2B7ED16B
:102BB0009DF8593043F001038DF85930731C12937E
:102BC0001A782E2A9DF859200CBF0121002161F3AB
:102BD00041028DF859200BD15A1C12925A782A2A98
:102BE0007BD19DF8592042F004028DF85920023320
:102BF000194611F8010B6C2800F0CF807DD86828A9
:102C000000F084806A2800F0D2804C2800F0D68042
:102C10009DF859206FF3C6028DF85920194680E0BF
:102C200009F1020207928DF85B309DF85930DE07FA
:102C300040F16D8154F804ABBAF1000F07DA9DF84A
:102C4000582042F004028DF85820CAF1000A5807B3
:102C500040F1668154F8047B002F80F265819DF875
:102C600059306FF341038DF859304FF0FF375BE176
:102C70002D2B06D0302B87D19DF8583043F04003E0
:102C800003E09DF8583043F004038DF858306EE7A8
:102C90009DF8583043F00803F7E79DF8583043F0AB
:102CA0001003F2E79DF8583043F02003EDE712A837
:102CB000FFF7D2FE129BB34281D09DF858101790B7
:102CC000C1F3400242EAD072520062F07F0201F08A
:102CD0007D010A438DF8582071E712A8FFF7BCFE6A
:102CE0009DF858301890C3F3400242EAD07060F368
:102CF00041038DF85830129B7AE774289DF85920CB
:102D000059D07A2884D11346062241E05A78682A9D
:102D10009DF859203AD1012161F3C6028DF859205E
:102D2000991C0B4613F8012B0793782A8DF85B202A
:102D300000F2C580572A4ED8412A04D0A2F145039B
:102D4000022B00F2BC809DF85A3002F0DF02042111
:102D5000A2F1410A61F30203DAF100029DF8591071
:102D60008DF85A3042EB0A0262F3C7110A068DF859
:102D70005910CBB200F1C98003F07802182A40F054
:102D80009B806FF3C6038DF8593082E01346022210
:102D900062F3C6038DF85930C3E75A786C2A9DF860
:102DA000592001D10421B7E713460322F0E79DF82B
:102DB00059300522ECE713460722E9E7BDF8583001
:102DC00023F4F04323F0020343F4804343F002036F
:102DD000ADF85830A5E7A2F15803202B6FD801A118
:102DE00051F823F0972E0000BF2E0000BF2E0000E8
:102DF000BF2E0000BF2E0000BF2E0000BF2E00001F
:102E0000BF2E0000BF2E0000472D0000BF2E000087
:102E1000972E0000692E0000472D0000472D00006E
:102E2000472D0000BF2E0000692E0000BF2E0000BD
:102E3000BF2E0000BF2E0000BF2E0000CD2E0000D0
:102E4000972E0000ED2E0000BF2E0000BF2E0000C8
:102E5000ED2E0000BF2E0000972E0000BF2E0000B8
:102E6000BF2E0000972E00009DF85A30012161F31B
:102E700002038DF85A309DF8593003F07803402B47
:102E800002BF9DF8581041F001018DF85810632AD7
:102E900005D0002306E09DF85A300221E7E7003B09
:102EA00018BF01239DF85820C2F340010B4363F380
:102EB00041028DF85820B8E613F0380FE9D09DF89C
:102EC000583043F001038DF85830E2E79DF85A304E
:102ED000032262F302038DF85A309DF8593003F053
:102EE0007803A3F140077B427B41DBE79DF85A3032
:102EF000032262F302038DF85A309DF8593013F023
:102F0000780F14BF01230023CCE70123CAE79DF902
:102F10005820002AB4BFDDF85CA04FF0FF3A96E6D7
:102F200099077FF5A2AE189F0023CDE917339DF8CE
:102F30005A3003F00703042B09D19DF859309A0742
:102F400005D49DF95930002BB4BF0D2706279DF8F5
:102F50005A309DF8591003F00703012BC1F3C30148
:102F600036D1CB1E042B20D8DFE803F00307071F60
:102F70001F0054F8042BD31704E0073424F007048F
:102F8000F4E80223CDE914239DF85860B30755D027
:102F9000079B06984A46414626F00CF80028C0F2E6
:102FA0007D830544DDF81C90C4E554F8042B012909
:102FB0004FEAE273CDE9142305D19DF85030149304
:102FC00000231593E0E70229DED1BDF95020D2E7B6
:102FD000022B23D1CB1E042B13D8DFE803F0030A06
:102FE0000A121200226814920023201D1593044631
:102FF000CAE7073424F00700F0E80223CDE91423E0
:10300000F5E754F8043B149301294FF0000315939E
:10301000D3D00229B8D1BDF85030D0E7042B07D166
:10302000073424F00704F4E80223CDE91423ABE7C6
:10303000032B04BF54F8043B1493A5E79DF85B9061
:10304000B9F1780FAED8B9F1570F00F2A680B9F1F7
:10305000250F00F0ED80B9F1240FA3D9B9F1410F8C
:1030600003D0A9F14503022B9CD8DDE91423002AE3
:1030700073F10001C0F28681310700F1858116F0FD
:10308000100618BF2026C3F30A5BC3F31303049290
:103090000593DDE90423CDE91023BBF1000F40F0D7
:1030A0007581DDE90432134314BF4FF0010C4FF07A
:1030B000000C0599CB020499CA0243EA51535846C1
:1030C0004BEA02010A91C11719430B91DDE90A018C
:1030D000B9F1460F08BF4FF066090143CDE910234F
:1030E00000F0C881BCF1000F40F08881109B029372
:1030F000119B43F000430393DDE90223CDE9102344
:103100000023ABF2FE3B1A4605211BF1020FC0F271
:103110007E811BB1DDE90201CDE91001BBF1000F99
:10312000DDE9103100F38E811199109BCBF1040081
:103130000BF11C0B01FA0BFBA0F1200CC34021FA90
:103140000CFC43EA0B0343EA0C03C140CDE9103108
:1031500009F0DF03472B40F09481D01C02DB97423B
:1031600080F28B81A9F10209002F5FFA89F900DD55
:10317000013F9DF85830990600F18381002FD4BF9C
:1031800000230123B9F1660F0C9340F07C81D31921
:1031900040F17A814FF0000B7AE1A9F15803202B1E
:1031A0003FF600AF01A252F823F000BF2533000024
:1031B000A52F0000A52F0000A52F0000A52F0000BF
:1031C000A52F0000A52F0000A52F0000A52F0000AF
:1031D0006B300000A52F00005D320000C5320000FA
:1031E0006B3000006B3000006B300000A52F00003A
:1031F000C5320000A52F0000A52F0000A52F00005C
:10320000A52F00005B3300002533000029330000A8
:10321000A52F0000A52F000037320000A52F0000C9
:1032200025330000A52F0000A52F00002533000046
:10323000414648468AE4002FDDF850900ADB3946C3
:10324000484630F0A1F909EB000B0026B9F1000F58
:103250000CD1A7E64846FDF7E7FCF4E7149B8DF890
:103260006C3000260DF16D0B0DF16C09ABEB090212
:1032700006B101329DF85A00C30640F103820232C2
:10328000179940060A4444BF18995218BAF1000F22
:1032900040F31182AAEB020A9DF858205107C2F3AD
:1032A000800700F10882530640F1FB8146B1069B7E
:1032B0004146304698470028C0F2F08101353E462D
:1032C0003027EFE130072BD416F0100618BF202668
:1032D000DDE91423002A73F1000105DA524263EBA1
:1032E0004303CDE914232D260DF185030093DDE979
:1032F00014011BAB16AAFFF7C5FB8146002F0DF189
:1033000085030BDB9DF85810A3EB09026FF38611C0
:1033100097428DF8581001D9BF1A17979B4695E729
:103320002B26D5E70026DFE71498002800F09F81C0
:103330000DF18503009316AA1BAB0021FFF7A2FB3A
:10334000BDF85A3003F0EF0343F4F04343F01003A9
:103350008146ADF85A300026D0E7149B07293FF686
:1033600021AEDFE801F00D04060D08080D0D1D70FB
:1033700018E61D8016E62846E917C3E9000111E6A4
:103380001D600FE62D267EE62B267CE640F2FF73BD
:103390009B452ED1DDE90412B84B19F803300A43DE
:1033A00003F0030317D1012B0BBF44F6496346F624
:1033B0006963ADF86C30ADF86C300CBF4623662302
:1033C0008DF86E309DF858306FF386138DF85830B5
:1033D0000DF16F0B48E7012B0BBF44F24E1346F281
:1033E0006E13ADF86C30ADF86C300CBF4E236E230D
:1033F000E6E74FF0000C5CE60BF1FF3B92185B41F7
:10340000002A73F10001F7DACDE910236EE6029B82
:1034100003985B0843EAC0734008B0F1333FDE46CF
:10342000CDE902300BF1010BF1D2A3FB01BCCDE9D8
:1034300002BC039B4843C31803930EF1020B013AED
:10344000012362E6023341F1000110A8CDE91031F9
:103450000C9225F078FD0C9ADDE910010BF1FF3B91
:10346000013200184941002871F100030BF1FF3BC4
:10347000F7DA51E60022934656E6BF1A4FF0660986
:1034800077E600237EE67B1C102BA8BF10239B460B
:1034900010210F9100204FF00061CDE912010BF1D6
:1034A000FF3BBBF1FF3FDDE912101FD1109BCB1892
:1034B0000893119B40EB03030993DDE908BC6FF00F
:1034C00070414FF0FF30614508BF58451AD3584648
:1034D0006146CDE91001B9F1660F53D1002A20DC15
:1034E00030238DF86C300DF16D0B2BE0490841EA6B
:1034F000C0714008CDE9121012A80D9225F023FDED
:103500000D9ACCE7089B0D92099A5B0843EAC273B7
:10351000510810A8CDE9103125F015FD0D9A0132A2
:10352000D9E70DF16C0B0F99002909DD0FA910A83F
:103530000D9225F028FD0D9A0BF8010B013AF2D1FE
:10354000179200229DF85810880601D4002F3FDD05
:103550005B462E2103F8011B92B1002F75DD51420D
:10356000B942A8BF39469DF85A0017910029A7EB28
:103570000107D4BF0021012161F345108DF85A00E5
:103580009B4620E00FA910A80D9225F0FCFC0D9A97
:103590009DF858308DF86C00302818BF02F1FF32CA
:1035A000990601D4002F52DD2E238DF86D300DF1D8
:1035B0006E03E5E70FA910A80D9225F0E4FC0D9A23
:1035C0000BF8010B013F002F02DD0F990029F1DC00
:1035D0000C9B002B3ED1189709F0DF01452922D121
:1035E000002A5846BABF52422D212B21632A00F8E7
:1035F000029B8BF801100ADD642792FBF7F101F1C1
:10360000300C0BF103008BF802C007FB11220A27D4
:10361000834692FBF7F107FB112201F1300C3032A7
:103620000BF802CB4270179A002A1EDC189A002A67
:10363000D4BF002201229DF85A1062F386110022A5
:103640008DF85A108BF800200EE69B46C0E70DF16E
:103650006D0BBDE70021189158461BF8011D30295C
:10366000FAD02E2918BF8346B6E70122E3E7DFF838
:1036700010B00646ABF10509F8E500BF59DA0300C2
:10368000A3620300070748BF0132F9E50C934146E6
:10369000069B3846984700280C9B05DA23B0BDE806
:1036A000F08F20270AEB05035246002AA3EB0A05F8
:1036B0000AF1FF3AEADC36B1069B414630469847AC
:1036C0000028EBDB01359DF85A2050067DD59DF989
:1036D0005920002A2CDBA5EB090599F800005B4B6B
:1036E000C25C4E46510705EB060709F101093FD4BC
:1036F0009DF85A20DDF85C90920608D409EB070586
:103700004A46002AA5EB090709F1FF3936DC307873
:103710002E280AD1069B414698470028BEDBB9F106
:10372000000F07F1010730DC0136B146BF1B39E05D
:10373000A5EB09074D4607EB090619F8010B7028A0
:1037400010D1189F3744BA1B002A35DC06985B4617
:103750002A46414625F02EFC00289FDB30440546D2
:1037600082446CE0069B414698470028E2DA95E7E0
:10377000069B414698470028AFDA8FE7069B4146F3
:10378000302098470028BBDA88E7069B4146302066
:10379000984709F1FF39C0E7069B41469847002842
:1037A000FFF67CAF294B4D4607EB090619F8010BD4
:1037B000C25C5307F0D4C4E7069B414630209847CB
:1037C0000028FFF66BAF0136BDE7D10601D4120722
:1037D00007D5069B4146302098470028FFF65EAF8C
:1037E00001359DF85A20D30608D59DF85B00069B4D
:1037F000414698470028FFF651AF0135179F2F44E7
:103800007A1B002A0ADC06985B464A46414625F0A8
:10381000D1FB0028FFF642AF2844A0E7069B4146B3
:10382000302098470028FFF639AF0135E8E7069BBE
:103830004146202098470028FFF630AF0135AAEB1B
:103840000503002BF3DCFFF7ADBB00BF59DA030023
:1038500030B51049104889B000222FF058FC0F4DA8
:103860000F4900220023CDE9062300240E23CDE9D1
:103870000334CDE901440B4B00944FF440722846C9
:1038800023F0ECFD0849284623F03EFD204609B010
:1038900030BD00BFAD380000A80D0020E00D0020B5
:1038A000D88A0020813E000017660300014823F0FB
:1038B0008BBC00BFDC0B0020F0B505460F4E00208E
:1038C00003460246012715F8014B0CB18B4200D389
:1038D000F0BD252C02D182F00102F4E7002AF2D0DB
:1038E00014F806C01CF0030FEDD0732C04BF07FAC8
:1038F00003F2104301330022E5E700BF59DA030069
:1039000038B500F01FFB1348134C25F01FFC13497A
:103910001348042328222FF0E4F8124B124A1A60AD
:103920004FF4004000F058FD1048114B1B1ADB0803
:1039300000210430994200D138BD10F831202568AB
:1039400002F0070225F007052A4344F8042B013151
:10395000F0E700BFD01800200C0A002070C1002042
:10396000D8180020900100208B910200CC3A03006F
:10397000543C0300F8B50F4BBFF35B8F002553E8B1
:10398000007F43E80052002AF9D1BFF35B8F0A4C55
:103990000A4E361B3611B54200DBF8BD63685B7911
:1039A0002BB12368DB6813B13946204698470135AF
:1039B0001034F0E7C8180020543C0300643C0300B6
:1039C000064BBFF35B8F53E8002F013243E8002121
:1039D0000029F8D1BFF35B8F704700BFC8180020E3
:1039E000044A054B9B1AB1EBD30F34BF52F8310098
:1039F00000207047CC3A0300543C03002DE9F04707
:103A00008946164698460446B0B9214B214FFF1A05
:103A10003F1105469A46BC4202DB2846BDE8F087C6
:103A20000AEB0410434632464946FFF7E7FF85425A
:103A300038BF05460134EEE7174B184903EBC203C4
:103A40001D7943681A79072302EB420203FA02F058
:103A5000454551F8263028BF454623EA000305F0C6
:103A6000070000FA02F213430020032223FA02F4B3
:103A700004F00704A04202F1030238BF20461E2AC8
:103A8000F4D123F00703034341F82630C5E700BF14
:103A9000543C0300643C0300CC3A03000C0A0020B1
:103AA000F8B5094C094BE41A06460F46E408002510
:103AB000A54200D1F8BD00212A463B463046FFF71B
:103AC0009DFF0135F4E700BF543C0300CC3A0300EE
:103AD0000C4BC31A70B51B114668044601330D46E2
:103AE00033711146FFF7DCFF6368074C1D6001224C
:103AF0005A71227812B9054823F066FB012323701E
:103B000070BD00BF543C0300C9870020DC0B0020BF
:103B100070B5114BBFF35B8F53E8005F6A1C43E83D
:103B200000210029F8D1BFF35B8F2DB90B4C0C4E4F
:103B3000361B3611B54200DB70BD237B43B12368D1
:103B40005B6903B19847042200212046FFF7C0FFBC
:103B500001351034EEE700BFCC180020543C0300C0
:103B6000643C030053B143680749187900EB4003F4
:103B700051F82200D84000F007007047034B03EBD8
:103B8000C2021079704700BF0C0A0020CC3A030033
:103B9000174B984273B5044602D3164B984221D373
:103BA00015480022002301A922F066FD0546E0B970
:103BB0000122019BBFF35B8F53E8001F43E8002005
:103BC0000028F9D1BFF35B8F019E331D1F221846D9
:103BD00021462FF0C6FC7E22034686F8232086F875
:103BE00024501C46204602B070BD044BF9E700BFCC
:103BF000203803008CDB0300D8180020A4620300E7
:103C000048B1054B984205D3A03398422CBF002001
:103C1000012070470020704770C100202DE9F04F4F
:103C2000564B1B7885B0054603B960B34FF02003AF
:103C3000EFF3118683F31188BFF36F8F504825F09F
:103C400095FA044686F31188BFF36F8F78B1BFF3FE
:103C50005B8F4C4B53E8002F013A43E800210029C9
:103C6000F8D1BFF35B8F95B1204625F07DFB25B9D8
:103C7000454B1B680BB1FFF77DFE414825F074FAF8
:103C8000051E18BF0125284605B0BDE8F08F3F4B43
:103C90001B78CBB9237ADA0716D425F078FB804657
:103CA000204625F03FFB01464046FFF705FE384F12
:103CB000384BDFF800B1DB1BDB080393364BDB1B13
:103CC00006464FEAD30A46B9344E354FDFF8E8903E
:103CD000BF1B3F114FF000084DE0B6FA86F1C1F16D
:103CE0001F094946204625F020FB2E4B98420146ED
:103CF00002D32D4B98421ED30846FFF781FF0246A0
:103D0000C8B92A4B994216D0638903989909B0EB38
:103D1000931FDBF8003088BF57F831205B070AD0CB
:103D20004FEA8A1343F00103ADF8003020484346C0
:103D3000494625F06DFA012101FA09F126EA01064A
:103D4000C1E773685A799AB160891B79A17A8009B1
:103D500003EB430259F82030D34001F0070103F090
:103D60000703994204D8336821461B6830469847B8
:103D700008F101081036B845E3DB75E7C987002074
:103D8000D0180020C4180020C8180020CA870020BE
:103D9000CC3A0300543C0300EC3B0300543C0300CA
:103DA000643C0300203803008CDB0300A4620300A2
:103DB000BE6203009C0A00200C0A0020294B73B548
:103DC0001B68418104469847274DE060BFF35B8F35
:103DD00055E8003F013345E80032002AF8D1BFF32F
:103DE0005B8F4FF02003EFF3118683F31188BFF34D
:103DF0006F8F1E48214625F0ADF986F31188BFF379
:103E00006F8F1B4B1B7883B14FF02003EFF31184AE
:103E100083F31188BFF36F8F0020FFF7FFFE84F359
:103E20001188BFF36F8F02B070BD124A2B68126801
:103E3000002AF8D0012B0AD100220023CDE900236B
:103E40000D484FF40042002323F0C2FDEBE70A2B9C
:103E5000E9D109482FF067F9084802B0BDE8704081
:103E600023F0B2B990010020C4180020D01800201F
:103E7000CA870020F4180020A80D0020DC0B0020C9
:103E800010B5FFF745FE23F099F90C4B186030B1DF
:103E90000B4B1B68092B02DD0A4823F095F9094CEE
:103EA0000020FFF7BBFE0028FAD14FF0FF324FF0A1
:103EB000FF33204623F0AEF9F2E700BFF4180020EC
:103EC000C4180020DC0B0020F8B50E4F3D7875B902
:103ED0000D4C0E4EFFF71CFE361B3611B54207DBAC
:103EE0000020FFF79BFE0028FAD101233B70F8BDAC
:103EF00063685B791BB1236820461B6998470135CD
:103F00001034EBE7CA870020543C0300643C0300F4
:103F100007B504380190BFF35B8F50E8003F5A1E8D
:103F200040E800210029F8D1BFF35B8F012B03D1BA
:103F3000034801A922F0D2FB03B05DF804FB00BFE7
:103F4000D81800202023024902481A462EF0C9BD85
:103F500010C20020F818002037B50023094D019346
:103F60000120FFF75BFE0446FFF72AFD0022002335
:103F700001A9284622F080FB08B1002CF0D101985D
:103F800003B030BDF818002007B50023019307489F
:103F90000022002301A922F06FFB10B1FFF7DCFF24
:103FA0000190019803B05DF804FB00BFF8180020F1
:103FB000F0B5037A457A85B02D090190D8071CD455
:103FC000DDB1002426460198314625F0AEF90746BA
:103FD000FFF716FE70B134B9019B29461869FFF747
:103FE0006BFC044648B124FA06F3D90702D53846DB
:103FF000FFF78EFF0136AE42E5D3019B1A7A920796
:1040000004D55B69084C0393039B2BB9064801A9AF
:1040100022F064FB05B0F0BD1D6803A9204622F024
:104020005DFB0395F0E700BFF81800200EB403B560
:1040300003AB014653F8042B04480193FEF772FDCD
:1040400002B05DF804EB03B0704700BF3797020081
:104050002DE9F04F85B011F0020490469DF83870BC
:1040600006461A4601F0010901F0080507D011F0D3
:10407000440F37D13249FFF7D9FF01460C46B9F159
:10408000000F0AD02F4B304953F827202F4B3046D2
:10409000002A08BF1A46FFF7C9FF3DB12C4B2D4936
:1040A00053F827203046FFF7C1FF0546B8F1000F4F
:1040B00043D0012303FA07F7274B17F0100F274FC0
:1040C00018BF1F46BDF840109DF83C00FFF788FC64
:1040D000394602463046FFF7A9FF2844204405B080
:1040E000BDE8F08F1E4B19680029C7D01D4B4FF457
:1040F000616E1B68B2FBF3F34FF47A7CB3FBF1F40F
:10410000B4FBFEF20EFB124E01FB14340CFB04F464
:104110004FF03C0AB4FBF1FB01FB1B440CFB04F425
:10412000BEFBFAF3B4FBF1F1CDE901B10AFB13E1F7
:1041300000910D49FFF77AFF9FE7084FC2E700BFE4
:104140000F630300E03D0300F26803000163030016
:10415000F43D0300346303000B63030006630300B4
:1041600014190020181900201863030038B50C46F4
:10417000E107054603D5084A0849FFF757FFE2065D
:1041800008D4A30628464CBF05490649BDE8384077
:10419000FFF74CBF38BD00BF01630300F2680300A6
:1041A000FB670300B46303002DE9F0471D46089B3D
:1041B0001746DA0604460E4605D499064CBF2B492D
:1041C0002B49FFF733FFDFF8B0904FF00008A84508
:1041D0002DDBDFF8A880DFF8A890DFF89CA0002591
:1041E000BD4232D2725D49462046FFF71FFF0135BE
:1041F000102D23D11F49DFF88080DFF88890DFF889
:1042000088A02046FFF712FF0025AF4229D9725D32
:1042100012F8093013F0970F08BF2E22514620469E
:10422000FFF704FF0135102D14D1BDE8F087494692
:104230002046FFF7FBFE08F10108C8E76A07CFD167
:1042400051462046FFF7F2FECAE741462046FFF7F7
:10425000EDFECCE76B07D8D141462046FFF7E6FEDE
:10426000D3E741462046FFF7E1FEDBE7FB670300AB
:10427000B46303004463030042630300406303002C
:104280003A63030059DA0300906C03002DE9F0470C
:104290008B7A13F0070817468AB00A7A05460E464D
:1042A00020D04989C3F3C2038909D243CDE90083F1
:1042B0000291F36802F001023946FFF7C9FE814618
:1042C000347AE44314F001040ED02946304625F038
:1042D000C8F8B8F1000F2BD0424639462846FFF700
:1042E00045FF25E0C146EBE7B8F1000F26D1274690
:1042F000EB68069306AA3B46A968304625F09DF870
:10430000069A6B681A603AB1AB68134413F8014C13
:10431000A4F10A035C425C41284625F0FFF9069BA4
:104320001F44002BE4D11CB113492846FFF77EFE41
:10433000284625F0F3F90AB0BDE8F087304625F0AD
:1043400026F80E4902462846FFF770FE4FF0100A85
:1043500005AA234606A93046CDF814A025F06DF82D
:10436000059A002AB8D04B46009706A92846FFF7C1
:104370001BFF059B1C44EBE746630300F268030048
:1043800073B542F20F738B4228BF0B4605680F4A84
:1043900004460521684624F008FA63680C495B6806
:1043A00006460422284625F04FF8636832466946DF
:1043B00028465B6825F048F8636806495B68172261
:1043C000284625F041F802B070BD00BFC59003003B
:1043D0008063030068630300084A10B50123084C9A
:1043E00013600021A04204D801B11360054B18608E
:1043F00010BD40085B000121F4E700BF1819002040
:1044000040420F001419002000230428CB604B60A9
:1044100098BF044B044A98BF53F820308A600B6061
:10442000704700BF483E0300243E03000023084AB3
:104430000B60CB604B608A60064B074AD21AB0EB28
:10444000221F3EBF03EB00139B680B60704700BF49
:10445000883F0300543C0300643C03002DE9F3470C
:10446000114C124DDFF84880DFF84890DFF848A083
:104470002D1B07462D110026AE4203DB002002B0A3
:10448000BDE8F087626853791279002B14BF434668
:104490004B46CDE900320021A3685246384625F04C
:1044A0008BFA01361034E7E7543C0300643C030008
:1044B000856303008D630300966303002DE9F74FC6
:1044C000214B224DED1A4B685B7906460F46ED08ED
:1044D0001BB91F4A042125F06FFA1E4B1E4ADFF854
:1044E00080A0DFF880B00021304625F065FA1B4A35
:1044F0000021304625F060FA0024AC4203D10020B0
:1045000003B0BDE8F08F2246012300213846FFF7B3
:1045100029FB00232246194680463846FFF722FB36
:10452000214681460020FFF75BFA5AF829200192C4
:104530005AF82820009203465A460021304625F0BA
:104540003BFA0134D9E700BFCC3A0300543C0300E6
:10455000B7630300C9630300D5630300F36303007B
:10456000343E03003064030010B50023054ACB60DD
:104570000C464B608A6001461846FFF731FA20600E
:1045800010BD00BF243E03002DE9F74F52F804BCD4
:10459000184C194E00930746584691468A46FCF738
:1045A00043FB361B024636114FF00008B04508DBCE
:1045B000124A5B460221384625F0FEF96FF00705E6
:1045C00013E0A168019258462EF0B9FF1034054659
:1045D00018B1019A08F10108E8E70649009C4B462A
:1045E000524601EB08113846A047284603B0BDE803
:1045F000F08F00BF543C0300643C0300446403009C
:1046000008B5024BFFF7C0FF002008BDBD44000005
:10461000014BFFF7B9BF00BF6D970200014BFFF7D9
:10462000B3BF00BF75970200014BFFF7ADBF00BFDE
:104630002D470000014BFFF7A7BF00BFF197020015
:1046400010B5C369DB681C792CB9044A022125F036
:10465000B3F9204610BD0120FCE700BF59640300F8
:104660002DE9F04F2B4E1F462B4BF61A151E85B029
:104670004FEAD60614BF2B46334602934B685B794C
:10468000804689461BB9254A042125F095F9DFF8B3
:1046900098A00024029B9C4202DB05B0BDE8F08F8D
:1046A000B5B357F824B000239E4207D157F8243001
:1046B0001B4A0221404625F07FF922E019460020DE
:1046C0000393FFF78DF9402259462EF038FF039BE4
:1046D000C8B91A4600210E9B4846FFF78FF90E9B7A
:1046E000834283460DD085B921462846FFF778F9E5
:1046F00003465AF82B20009204210A4A404625F02E
:104700005BF90134C6E70133CEE757F82430F0E710
:104710002246DFE7543C0300CC3A03007D640300EB
:10472000A864030092640300343E03002DE9F74FB0
:10473000D3F804B0DFF850A00646884691461D46DF
:1047400000275AF8041B042258462EF0F8FE0446AF
:1047500070B10137052FF4D16B680A4A0221304647
:1047600025F02AF96FF00704204603B0BDE8F08F6A
:10477000009705F10803A9F1020241463046FFF710
:104780006FFFF1E7C2640300343E03001FB5072446
:104790000294044C0194BDF81840009428F07AFE6D
:1047A00004B010BD6F09002010B5084C86B0247805
:1047B0008DF81740012402940DF117040194BDF8FF
:1047C0002040009428F066FE06B010BD7609002057
:1047D0000B4B1B6803F00703022B0FD9094B0A4A46
:1047E0000A48D21AD2080A4B9201012914BF014685
:1047F000194642F00302074824F0DDBC704700BFB1
:104800000C0A0020CC3A0300CC3A03008D6303006D
:10481000856303008B660300024B01221A7000209F
:10482000704700BFCB8700201FB501240294044CC1
:104830000194BDF81840009428F02CFE04B010BD7F
:10484000CB8700200B4B1B6803F00703022B0FD90B
:10485000094B0A4A0A48D21AD2080A4B9201012986
:1048600014BF0146194642F00302074824F0A3BCD6
:10487000704700BF980A0020CC3A0300E43B0300D5
:104880008D63030085630300A466030013B504462B
:1048900022F082FEC0F307230193C0F30743009385
:1048A000044A030E0021204625F086F8002002B0BD
:1048B00010BD00BFBD6603002DE9784804462EF008
:1048C000FBFB4FF47A76A0FB06BC06FB01CC00256F
:1048D0004FEADB3242EA4C432046034A294625F0A0
:1048E0006BF82846BDE87888D666030010B5044604
:1048F00003F0C2FA084A03460021204625F05CF87E
:10490000064A2046002125F057F80548214622F0A6
:10491000C3FC002010BD00BFE56603000467030070
:104920008149000030B5014687B00446114822F0A5
:10493000B3FC114A002312F8011BAA2903D1013349
:10494000B3F5006FF7D1C3F5006164224A43D20A80
:10495000002505924FF40062CDE90312CDE9012351
:104960002046054B054A0095294625F025F828469E
:1049700007B030BD5D4A000070B100200E67030033
:10498000F0B587B0D0F8A47004460D462EF0C8FAF2
:10499000064622F013FC224B224A002E08BF1E4678
:1049A000214BCDE90046844218BF1346002128461A
:1049B0001E4A25F001F8D4E90A23CDE9022394F92F
:1049C0000E301B4A00930021237B284624F0F4FF7D
:1049D000204622F0A9FC174A03460021284624F06D
:1049E000EBFF05A920462EF09DFA014638B103469B
:1049F000114A0021284624F0DFFF07B0F0BD059AD8
:104A00006423B81ACDE9002043430C4AB3FBF7F303
:104A10002846CDE902733B4624F0CEFFEDE700BF08
:104A200054670300426303003F7C030057670300A1
:104A3000636703008D67030099670300C66703007F
:104A400010B5044603F032FA034A0346002120461B
:104A500024F0B2FF002010BDFD670300F0B5D0F8D0
:104A6000A47089B005460E4607A92EF05BFA0446ED
:104A700038B10346104A0021304624F09DFF09B0AA
:104A8000F0BD28462EF04CFA079ADFF834C0B91A68
:104A9000002808BF60466423CDE90221CDE9000764
:104AA0004B43064AB3FBF7F32146CDE90473304686
:104AB0002B4624F081FFE2E79967030013680300A7
:104AC000546703002DE9F0410F4A104C104E114F6E
:104AD000DFF844800021054624F06EFFB44202D185
:104AE0000020BDE8F081204621F0C2FB50B13A46DB
:104AF00000212846236824F05FFF42460021284613
:104B000024F05AFF1034E9E7E66803007809002032
:104B1000080A0020F0680300FB6703002DE9F84352
:104B20000E4BDFF83C9053F821400131064653F814
:104B300021800027A04502D83846BDE8F8832046EA
:104B400021F096FB054630B123684A4600213046E5
:104B500024F032FF2F461034ECE700BFBC410300C5
:104B6000F568030010B51F4A0446002124F024FF15
:104B700002212046FFF7D2FF014618B91A4A204603
:104B800024F01AFF194A0021204624F015FF0321C2
:104B90002046FFF7C3FF014618B9134A204624F008
:104BA0000BFF134A0021204624F006FF0021204677
:104BB000FFF7B4FF014618B90B4A204624F0FCFE6B
:104BC0000C4A0021204624F0F7FE01212046FFF781
:104BD000A5FF014618B9044A204624F0EDFE002046
:104BE00010BD00BFFB6803000969030011690300E1
:104BF0001F6903002E69030010B58168044608315F
:104C000001F0BCFBA168034A20460831BDE8104012
:104C100001F03CBB8E69030038B58368002583F83A
:104C200038509D865D868368D3F85832DB0304468E
:104C30000BD5084B084A042125F0BDF8A368D3F82A
:104C4000582265F31042C3F858222046BDE8384088
:104C500001F0D4B99C690300F268030037B583689A
:104C6000D3F85822520604460D4608D5D3F85822E8
:104C7000C0686FF38612C3F8582225F0C7F9E368BD
:104C8000DB6863B99DB3A068383024F01AFEA368CE
:104C900078B303F1380103F59C702EF048FCA2684C
:104CA000E0680DF106033832294625F0B2F958B90B
:104CB000A06800F59C7138302EF039FCA0683830BF
:104CC00024F0FFFDADF80600204624F0D8FF0A4A84
:104CD0000A49606924F0FBFD204601F08DF8A368C5
:104CE000BDF806209A865A86204601F00FF803B0D8
:104CF00030BD83F83801D2E77F6C0300F26803000F
:104D00002DE9F04F00239FB0CDE9053383680446B9
:104D10003833039324F0B9FF204624F078FF18B904
:104D2000A249606924F0D3FDA06814220021083054
:104D30002EF0DFFB204600F08BFFA168E0684A8E72
:104D40003831002625F09CF9204625F066FB4FF00F
:104D5000FF38B146B24611AF02963546B346DDE99B
:104D60000532012A00F0DF800B2B40F2B780069954
:104D7000022940F0B7808E4B8E4A15E0039A022339
:104D8000394606A800F03CFE7A680392069A03466C
:104D90002AB96FF0070528461FB0BDE8F08F012A39
:104DA00006D128B1844A0221204625F004F8F0E714
:104DB000059B002B30D081493868FBF72BFF30B9B9
:104DC000EEB97F4A0221204624F0F5FFE1E77D4954
:104DD0003868FBF71FFF0028F2D0059BE3B13A6863
:104DE0002946204601F02EFC022800F09C80032872
:104DF00012D0059B0133059301230293AFE7A56809
:104E00000D9608350CAE0FCE0FC533682B602046CB
:104E1000FFF7F2FE0125BEE7BAF1000F05D13968B0
:104E200007AA584624F05AFE0546043708F1FF3811
:104E3000002D41D0029B4BB1EB683BB1204624F0E2
:104E400024FF204600F062FF5F4ABBE7EB68CBB16E
:104E5000A368DDF81490AE4603F1080CBEE80F001D
:104E6000ACE80F00DEF80030CCF80030AB684BB98E
:104E70006B7CFE2B01BF95F8108009F1010308F14E
:104E8000FF380593D5F804C0BCF1000F08D0AE463A
:104E9000BEE80F000CAE0FC6DEF800303360664689
:104EA000AB46B8F1000F03D1069B022B7FF457AF3E
:104EB000059B0133059352E7059B63B9A368DB6942
:104EC0000BB1DB683BB9414B0093414A119B022176
:104ED000204624F070FF4FF0010AE2E7B8F1000F1E
:104EE0007FF44CAF029B4BB1204625F0BAFAA26882
:104EF0000C23383211A905A800F082FD059DA06899
:104F00001EAB03EB8503002243F8342C436973B9CD
:104F1000002E3FF43EAFC368B3423FF478AF0D9626
:104F200000F108056EE7059B0B2BDBD91FE7037E1D
:104F3000A5EB0905B3B1427E4FF6FF71FF2A08BF0A
:104F40000A469D4202D313449D420BD98368214AED
:104F50000221204624F02FFF2046FFF74DFE6FF080
:104F6000150518E7D0F8583243F08003C0F85832DE
:104F700000F53B7024F0A3FCA36811AA29465B69E5
:104F800002EB8902204698470546A0684FF0FF32A1
:104F90004FF0FF3300F53B7024F0B0FCA368D3F86A
:104FA00058226FF3C712C3F85822F4E6FB670300D8
:104FB0005F6A0300F7680300E0690300F469030017
:104FC000FE690300F76903001C6A03004B6A0300D3
:104FD000156D0300836A03002DE9F04F8368BFF36A
:104FE0005B8FABB0044603F5167353E8002F42F015
:104FF000080243E800210029F7D1BFF35B8FA368C3
:105000001B79022B40F0378300230B936068036801
:1050100001221D690DF12B010BABA8470B9B002B47
:1050200000F029839DF92B209DF82B30002AEDDB21
:10503000A0684179012900F08C82022900F09F824A
:10504000002940F016830D2BD0F858221BD00A2BD4
:1050500019D061F30F22C0F85822092B56D03BD843
:10506000002BD3D0082B00F0D981864A9A5C12F02D
:10507000970FD0F8582200F0E08142F04002C0F8CB
:1050800058221946F5E012F47F4F05D0D0F8582287
:10509000C2F307229342E0D1D0F8582263F30F22E3
:1050A000C0F85822428E9AB9D0F8583262F386136B
:1050B000C0F85832E06824F0A9FF7349606924F011
:1050C00006FCA36802221A712046FFF7A5FD9DE7A2
:1050D0002046FFF715FEF4E71B2B14D07F2BC4D11D
:1050E000D0F858325F0791D5D0F8583243F04003DA
:1050F000C0F85832D0F858329E0600F19A81204606
:1051000024F09AFE82E7012343717FE7D0F85832FA
:105110005D077FF57BAFD0F8583243F04003C0F80D
:105120005832438EFF2B3FF471AF828E00F138016D
:1051300000F59C702EF0A2F9A268938E134400250E
:1051400083F838511DA90C2302F59C720DA800F0BC
:1051500057FC0D990C293FF659AF2AAB03EB81039D
:1051600043F8345C51B1A3689A8E134493F8372006
:10517000444BD35C180758D4012955D100250C9510
:105180000C9B2AAA02EB8303002653F834AC50464A
:1051900024F097FBB04681460496374618AA394654
:1051A000284600F0F5FC834600284AD1012E6DD137
:1051B0000C9B2AAA02EB830353F8340C24F081FBE6
:1051C000A268064608324146284600F0E1FC054642
:1051D000006824F076FB864206D02968821B92B2D2
:1051E0003144204624F026FEA3689A8E1A4492F891
:1051F0003810244A8A5C12F008023ED1D3F85812C3
:10520000C90735D5D3F8581262F30001C3F8581214
:105210002046202100F0C0FEA268D2F8583243F0A8
:105220000103C2F85832F1E6013900200EAB0093B9
:1052300001900CAB1DAA24F068FC054600289FD104
:10524000E4E6DBF800004A4651462EF078F968B9EA
:10525000DBF80000FBF7E8FC049B834238BF034601
:105260009BB2002E08BFB84604930136013795E77C
:105270002021204600F090FEC8E60121204624F0BF
:10528000DAFCC3E659DA0300FB6703007FF6BEAE23
:105290000C9B2AAA02EB830353F834AC504624F04B
:1052A00010FBA3680690A3F830B0DFF878B305963A
:1052B000CDF80C80A26803990832284600F068FCFB
:1052C000039B013307460393BAF1000F53D13B68A8
:1052D000002B5AD1A2681386059B013B0593E9D1A7
:1052E000CA49606924F0F3FA204600F087FE0C9B5F
:1052F0002AAA02EB830308F1010953F8340C24F0C5
:10530000E0FA414613AA0746284600F041FC8046D1
:10531000A068D8F80010FF2200F59C702EF021F94B
:10532000D8F800A04FF6FF7818AA4946284609F198
:10533000010B00F02DFC002863D0A368006803F582
:105340009C73002213F801CB815C614505D121B12A
:1053500001324FF6FF718A42F4D10FB1BA4208DB35
:10536000904506F1FF36A8BF9046012E1FFA88F837
:1053700047D0D946D8E700680028A8D0069A5146F9
:105380002EF0DDF80028A2D094E75846079324F0C9
:1053900098FA049BA168C21892B258464F8D0992A0
:1053A00024F08FFA079B0890184624F08AFA099A8D
:1053B0000899079BA2EB0009A068B0F830C07F1ADB
:1053C00097FBF2F292B2BCFBF2F102FB11C20CF1BC
:1053D000010E92B21FFA89F9A0F830E05AB9009391
:1053E0008B4A5B460721204624F0E5FC49462046CF
:1053F00000F07CFC70E7874A0721204624F0DBFCA4
:10540000F4E7B8F1000F3FF401AEA8EB070292B247
:105410000AEB0701204624F00DFDF7E5D0F85832DD
:105420005B077FF5F3ADD0F8583243F04003C0F886
:105430005832204624F01BFDE8E555077FF5E6AD20
:10544000013B162B3FF6E2AD01A252F823F000BF5C
:1054500039560000AD540000B5540000FF50000064
:105460002D560000DB5400000D5000000D500000D0
:105470000D5000000D500000E3540000EB540000FC
:105480000D500000075500000D50000011550000A0
:105490000D5000000D5000000D5000000D50000098
:1054A000155500000D50000041550000204624F025
:1054B000F3FBABE5204624F0E8FB204624F0A7FBF5
:1054C00018B95249606924F002FAA368D3F8582247
:1054D00042F04002C3F85822F4E5204624F0E4FBF1
:1054E00094E5204624F0E9FB90E560694A4A494981
:1054F00024F0EDF96069494A464924F0E8F920466C
:1055000000F07CFD82E500212046FFF7A7FB7DE54A
:105510000121F9E7204624F0B2FBA3683D490022AF
:1055200083F838209A865A86A268D2F8583243F017
:105530004003C2F858326069394A24F0C8F965E579
:10554000204600F0ABFCA268D2F8583243F040038A
:1055500067E65B2B01D10223D6E5D0F8582250072D
:1055600009D5622B05D14FF0FF31204600F00CFC2D
:1055700001E0662BF9D0A36800225A7146E50022AB
:105580004271A268D2F8581249077FF53FAD313B0E
:105590001B2B3FF63BAD01A151F823F0355600001F
:1055A0004156000061560000295600000D500000D1
:1055B0000D5000000D5000000D5000000D50000077
:1055C0000D5000000D5000000D5000000D50000067
:1055D0000D5000000D5000000D500000115500004E
:1055E00007550000DB540000AD5400000D500000D2
:1055F0002D5600000D500000395600000D500000DF
:105600000D5000000D50000045560000FB670300E0
:105610009E6A0300F2680300836C0300876C03003A
:105620007F6C03004163030003235371204624F081
:105630002CFBEBE403235371204624F020FBE5E42C
:1056400003235371A268D2F85832D2F8581203F0EB
:10565000010383F0010363F30001C2F85812D5E49B
:1056600003235371A368D3F858325B077FF5CEACA0
:1056700045E5002348E5A368BFF35B8F03F5167388
:1056800053E8002F22F0080243E800210029F7D157
:10569000BFF35B8F2BB0BDE8F08F00BF2DE9F04169
:1056A000044688B00F464FF44172002180681E46C0
:1056B0002DF01FFFA3682268E0681A6024F04BFDFC
:1056C000A06800F53B702DF041FA4FF427784FF4B5
:1056D0001775A06828442DF09AFEA068002243198F
:1056E0000121404410352DF075FEB5F5277F08F1F6
:1056F0001408EED1A36900221A60A268D2F85832C9
:10570000106843F01003C2F85832D2F8583243F010
:105710000403C2F85832D2F8583243F02003C2F8DA
:1057200058321B4B936224F0CCF8A36883F82C000A
:10573000A268D2F8583243F00203C2F858326068C7
:10574000144A036839461D682346A8470546D0B960
:10575000A36801221A71D4E90A0100220023CDE9CD
:1057600006230E2303930E9B0495CDE90163009459
:10577000094B4FF4006221F071FEA368616AC3F81F
:10578000000321F0C1FD284608B0BDE8F08100BF4C
:1057900018005000E9980200ED57000010B50446CB
:1057A00080680379012B1CD14FF0FF324FF0FF339B
:1057B00000F53B7024F0A2F80021204600F024FB05
:1057C0000949606924F083F8A36802221A7120460F
:1057D000FFF722FAA06800F53B7024F070F8002073
:1057E00010BD6FF08500FBE7FA6703002DE9F0417B
:1057F0000446406803680E469B680021154698479A
:1058000000284CD126B1E0692A46214624F068FDE3
:105810002046FFF7C3FF002841D1DFF89480214FD5
:10582000214EA06800F527704FF0FF324FF0FF3394
:10583000032122F029F90546A0684FF0FF324FF00E
:10584000FF3300F53B7075B124F058F820462B4625
:10585000164A022124F0AFFAA068BDE8F04100F535
:105860003B7024F02CB824F049F8606803685B6949
:1058700003B1984742462046022123F0F0FF3A4602
:105880002046002123F0EBFF20463246012123F081
:10589000E6FFA06800F53B7024F011F8C1E7BDE811
:1058A000F08100BFD94F000001990200A46A0300F3
:1058B0008998020010B50D4A0446002124F07CF8B6
:1058C00020460B4A002124F077F82046094A00219F
:1058D00024F072F82046084A002124F06DF8204692
:1058E000064A002100F0D2FC002010BDBB6A030074
:1058F000F96A0300586B0300AC6B0300466C0300AD
:105900002DE9F04716461F462B4ADFF8B880DFF82E
:10591000B890DFF8B8A00B460021044624F04CF8FC
:105920000025AF4234D9735D4A460021204624F059
:1059300043F80135102D23D1204ADFF89080DFF89D
:105940009090DFF890A00021204624F035F8002543
:10595000AF422BD9735D13F8092012F0970F08BFDF
:105960002E2352460021204624F026F80135102D22
:1059700014D12046124ABDE8F047002124F01CB89B
:1059800015F00701CDD15246204624F015F8C8E79E
:1059900042460021204624F00FF8CAE715F007011F
:1059A000D6D14246204624F007F8D1E742460021EE
:1059B000204624F001F8D9E75C6C0300446303003F
:1059C000636C0300406303003A6303004263030017
:1059D00059DA0300906C030010B5044613460A46DA
:1059E00001460648FDF79EF823691B7923B120463E
:1059F000BDE8104023F0EDBF10BD00BFEB990200E1
:105A00002DE9F74F1F46DFF88481002305460E4637
:105A1000144603609A4699462378002B00F0B18023
:105A200013F8083013F0080302D004F8019BF3E7E1
:105A300029684A1CBA422A6046F8214000F0A18039
:105A40009A4694F800B0BBF1000FE5D0BAF1000F10
:105A500040F08380BBF1270F06D0BBF15C0F00F054
:105A60008480BBF1220F71D1204623F0DAFF611C44
:105A7000024620462DF023FDDA46E2E7204623F0D9
:105A8000D0FF611C024620462DF019FD4FF0000AA0
:105A9000D7E7302926D14FF0000B0223E15CA1F1BA
:105AA00030005FFA80FCBCF1070FDAB218D801337E
:105AB00040EACB0B052B5FFA8BFBEFD11A46511E48
:105AC000214420460192009123F0ABFF019A02305D
:105AD000821A204600992DF0F2FC04F801BBB0E7D1
