:1000000080210020E15A0000A7CD0000B55A000071
:10001000B55A0000B55A0000B55A000000000000B3
:100020000000000000000000000000000954000073
:10003000B55A000000000000BD53000053D000007E
:10004000855400008554000085540000855400004C
:10005000855400008554000085540000855400003C
:10006000855400008554000085540000855400002C
:10007000855400008554000085540000855400001C
:10008000855400008554000085540000855400000C
:1000900085540000855400008554000085540000FC
:1000A00085540000855400008554000085540000EC
:1000B00085540000855400008554000085540000DC
:1000C00085540000855400008554000085540000CC
:0C00D00085540000855400008554000099
:0400DC00FFFFFFFF24
:1000E00001F0FF01102A2BDB10F0070F08D010F8E9
:1000F000013B013A8B422DD010F0070F42B3F6D1ED
:10010000F0B441EA012141EA014122F007047FF005
:1001100000070023F0E80256083C85EA010586EA5C
:10012000010685FA47F5A3FA87F586FA47F6A5FA98
:1001300087F68EB9EED1F0BC01F0FF0102F00702A4
:1001400032B110F8013B013A83EA010313B1F8D14F
:100150000020704701387047002D06BF3546033830
:10016000073815F0010F07D1013015F4807F02BF69
:10017000013015F4C03F0130F0BC0138704700BFBA
:1001800081F0004102E000BF83F0004330B54FEA48
:1001900041044FEA430594EA050F08BF90EA020FB5
:1001A0001FBF54EA000C55EA020C7FEA645C7FEA48
:1001B000655C00F0E2804FEA5454D4EB5555B8BF6B
:1001C0006D420CDD2C4480EA020281EA030382EADC
:1001D000000083EA010180EA020281EA0303362D6E
:1001E00088BF30BD11F0004F4FEA01314FF4801C41
:1001F0004CEA113102D0404261EB410113F0004F53
:100200004FEA03334CEA133302D0524263EB430309
:1002100094EA050F00F0A780A4F10104D5F1200EA7
:100220000DDB02FA0EFC22FA05F2801841F1000102
:1002300003FA0EF2801843FA05F359410EE0A5F1D6
:1002400020050EF1200E012A03FA0EFC28BF4CF007
:10025000020C43FA05F3C01851EBE37101F00045BD
:1002600007D54FF0000EDCF1000C7EEB00006EEBCA
:100270000101B1F5801F1BD3B1F5001F0CD3490854
:100280005FEA30004FEA3C0C04F101044FEA4452AB
:1002900012F5800F80F09A80BCF1004F08BF5FEA32
:1002A000500C50F1000041EB045141EA050130BD12
:1002B0005FEA4C0C404141EB0101013C28BFB1F524
:1002C000801FE9D291F0000F04BF01460020B1FA6F
:1002D00081F308BF2033A3F10B03B3F120020CDA42
:1002E0000C3208DD02F1140CC2F10C0201FA0CF020
:1002F00021FA02F10CE002F11402D8BFC2F1200C85
:1003000001FA02F120FA0CFCDCBF41EA0C0190403A
:10031000E41AA2BF01EB0451294330BD6FEA040483
:100320001F3C1CDA0C340EDC04F11404C4F120026E
:1003300020FA04F001FA02F340EA030021FA04F380
:1003400045EA030130BDC4F10C04C4F1200220FAD7
:1003500002F001FA04F340EA0300294630BD21FA15
:1003600004F0294630BD94F0000F83F4801306BFDB
:1003700081F480110134013D4EE77FEA645C18BFCF
:100380007FEA655C29D094EA050F08BF90EA020F66
:1003900005D054EA000C04BF1946104630BD91EA5E
:1003A000030F1EBF0021002030BD5FEA545C05D161
:1003B0004000494128BF41F0004130BD14F58004A0
:1003C0003CBF01F5801130BD01F0004545F0FE4114
:1003D00041F470014FF0000030BD7FEA645C1ABF49
:1003E000194610467FEA655C1CBF0B46024650EA80
:1003F000013406BF52EA033591EA030F41F40021AC
:1004000030BD00BF90F0000F04BF0021704730B531
:100410004FF4806404F132044FF000054FF0000106
:1004200050E700BF90F0000F04BF0021704730B5C7
:100430004FF4806404F1320410F0004548BF40429C
:100440004FF000013EE700BF42004FEAE2014FEAF1
:1004500031014FEA02701FBF12F07F4393F07F4FCC
:1004600081F06051704732F07F4208BF704793F0CF
:100470007F4F04BF41F40021704730B54FF46074E2
:1004800001F0004521F000411CE700BF50EA0102E5
:1004900008BF704730B54FF000050AE050EA01028E
:1004A00008BF704730B511F0004502D5404261EBFE
:1004B00041014FF4806404F132045FEA915C3FF43F
:1004C000D8AE4FF003025FEADC0C18BF03325FEADC
:1004D000DC0C18BF033202EBDC02C2F1200300FA8D
:1004E00003FC20FA02F001FA03FE40EA0E0021FAB2
:1004F00002F11444BDE600BF70B54FF0FF0C4CF4A0
:10050000E06C1CEA11541DBF1CEA135594EA0C0F51
:1005100095EA0C0F00F0DEF82C4481EA030621EA8C
:100520004C5123EA4C5350EA013518BF52EA0335C7
:1005300041F4801143F4801338D0A0FB02CE4FF079
:100540000005E1FB02E506F00042E0FB03E54FF0A9
:100550000006E1FB03569CF0000F18BF4EF0010EA1
:10056000A4F1FF04B6F5007F64F5407404D25FEA9D
:100570004E0E6D4146EB060642EAC62141EA555150
:100580004FEAC52040EA5E504FEACE2EB4F1FD0C92
:1005900088BFBCF5E06F1ED8BEF1004F08BF5FEA10
:1005A000500E50F1000041EB045170BD06F00046C2
:1005B00046EA010140EA020081EA0301B4EB5C046F
:1005C000C2BFD4EB0C0541EA045170BD41F4801167
:1005D0004FF0000E013C00F3AB8014F1360FDEBF8C
:1005E000002001F0004170BDC4F10004203C35DA68
:1005F0000C341BDC04F11404C4F1200500FA05F3EB
:1006000020FA04F001FA05F240EA020001F000428B
:1006100021F0004110EBD37021FA04F642EB060101
:100620005EEA430E08BF20EAD37070BDC4F10C042B
:10063000C4F1200500FA04F320FA05F001FA04F2EF
:1006400040EA020001F0004110EBD37041F10001DB
:100650005EEA430E08BF20EAD37070BDC4F12005E6
:1006600000FA05F24EEA020E20FA04F301FA05F24E
:1006700043EA020321FA04F001F0004121FA04F2F6
:1006800020EA020000EBD3705EEA430E08BF20EAC6
:10069000D37070BD94F0000F0FD101F00046400000
:1006A00041EB010111F4801F08BF013CF7D041EA82
:1006B000060195F0000F18BF704703F00046520086
:1006C00043EB030313F4801F08BF013DF7D043EA57
:1006D0000603704794EA0C0F0CEA135518BF95EA0D
:1006E0000C0F0CD050EA410618BF52EA4306D1D194
:1006F00081EA030101F000414FF0000070BD50EAB3
:10070000410606BF1046194652EA430619D094EA3C
:100710000C0F02D150EA013613D195EA0C0F05D126
:1007200052EA03361CBF104619460AD181EA03017A
:1007300001F0004141F0FE4141F470014FF0000032
:1007400070BD41F0FE4141F4780170BD70B54FF0CD
:10075000FF0C4CF4E06C1CEA11541DBF1CEA13554D
:1007600094EA0C0F95EA0C0F00F0A7F8A4EB05042F
:1007700081EA030E52EA03354FEA013100F0888026
:100780004FEA03334FF0805545EA131343EA1263EF
:100790004FEA022245EA111545EA10654FEA0026A4
:1007A0000EF000419D4208BF964244F1FD0404F55D
:1007B000407402D25B084FEA3202B61A65EB0305B9
:1007C0005B084FEA32024FF480104FF4002CB6EB76
:1007D000020E75EB030E22BFB61A754640EA0C00F6
:1007E0005B084FEA3202B6EB020E75EB030E22BF36
:1007F000B61A754640EA5C005B084FEA3202B6EB77
:10080000020E75EB030E22BFB61A754640EA9C0035
:100810005B084FEA3202B6EB020E75EB030E22BF05
:10082000B61A754640EADC0055EA060E18D04FEAC3
:10083000051545EA16754FEA06164FEAC30343EA63
:1008400052734FEAC2025FEA1C1CC0D111F4801F30
:100850000BD141EA00014FF000004FF0004CB6E729
:1008600011F4801F04BF01430020B4F1FD0C88BFC8
:10087000BCF5E06F3FF6AFAEB5EB030C04BFB6EBD3
:10088000020C5FEA500C50F1000041EB045170BDC6
:100890000EF0004E4EEA113114EB5C04C2BFD4EBF3
:1008A0000C0541EA045170BD41F480114FF0000E77
:1008B000013C90E645EA060E8DE60CEA135594EAF3
:1008C0000C0F08BF95EA0C0F3FF43BAF94EA0C0FF6
:1008D0000AD150EA01347FF434AF95EA0C0F7FF46B
:1008E00025AF104619462CE795EA0C0F06D152EABF
:1008F00003353FF4FDAE1046194622E750EA4106A3
:1009000018BF52EA43067FF4C5AE50EA41047FF4B3
:100910000DAF52EA43057FF4EBAE12E753B94AB983
:10092000002908BF00281CBF4FF0FF314FF0FF30F7
:1009300000F00CB8ADF1080C6DE904CE00F008F839
:10094000DDF804E0DDE9022304B07047704700BF22
:100950002DE9F04F07468C460846099E15463C4651
:100960001946002B40F0C6808242B2FA82F746D97F
:100970004FB1C7F1200E24FA0EFE00FA07F3BD4076
:100980004EEA030CBC404FEA15481FFA85FEBCFB3B
:10099000F8F9220C08FB19C309FB0EFA42EA0343DB
:1009A0009A4528D9EB1809F1FF3004D29A4502D9AB
:1009B000A9F102002B44A3EB0A03A4B2B3FBF8F2A3
:1009C00008FB123302FB0EFE44EA0344A64514D989
:1009D0002C1902F1FF3303D2A64501D9931E2C44F2
:1009E000A4EB0E0443EA00401EB1FC400023346037
:1009F0007360BDE8F08F4846DDE71346F0E702B9C3
:100A0000FFDE87BB831A01214FEA154EAAB2B3FB62
:100A1000FEFC200C0EFB1C330CFB02F840EA0343E7
:100A2000984563D9EB180CF1FF3004D2984502D9F0
:100A3000ACF102002B44A3EB0803A4B2B3FBFEFC11
:100A40000EFB1C330CFB02F244EA0344A2424FD9D2
:100A50002C190CF1FF3304D2A24202D9ACF10203EB
:100A60002C44A41ABEE7C7F1200C20FA0CF800FAB7
:100A700007F324FA0CFCBD404CEA03024FEA154E82
:100A8000ABB2B8FBFEFC110C0EFB1C800CFB03F997
:100A900041EA0040814504FA07F423D928180CF1F3
:100AA000FF3104D2814502D9ACF102012844A0EB08
:100AB000090092B2B0FBFEFC0EFB1C000CFB03F81D
:100AC00042EA004398450FD9EB180CF1FF3204D2EB
:100AD000984502D9ACF102022B44A3EB080342EA89
:100AE000014191E76146E2E76246F6E76046A2E728
:100AF0006346B6E7834205D90EB1C6E9007000210E
:100B0000084676E7B3FA83F181B9834201D3BA424A
:100B10000AD8BC1A60EB030301209C46002E68D063
:100B2000C6E9004C002164E70846F7E7C1F1200C54
:100B30008B4022FA0CF41C4302FA01F500FA01F38F
:100B400027FA0CF220FA0CFB4FEA14491343BBFBC3
:100B5000F9F81FFA84FE09FB18BB1A0C08FB0EFA01
:100B600042EA0B42924507FA01F73ED9A21808F172
:100B7000FF3004D2924502D9A8F102002244A2EB30
:100B80000A029BB2B2FBF9F809FB182208FB0EFE21
:100B900043EA024296452AD9A21808F1FF3304D24B
:100BA000964502D9A8F10203224443EA0040A0FB83
:100BB0000593A2EB0E029A42CE46984602D306D186
:100BC0004F4504D2B9EB050E63EB0408013886B13A
:100BD000B7EB0E0362EB080707FA0CFCCB404CEABC
:100BE0000303CF40C6E900379CE74046C7E74346CA
:100BF000DBE73146FDE610F8012B11F8013B012A35
:100C000028BF9A42F7D0D01A7047034613F8012B39
:100C1000002AFBD1181A01387047000000000000BC
:100C20002DE9F047164690B005460F46002209A967
:100C3000304609F0B7FA099B1B780446A3B1DFF8E8
:100C40001881002458F8041B3046FFF7D4FF58B130
:100C50000134392CF6D12846404A334602210BF0A4
:100C600089FA6FF0850027E0BB680AAA1B69A1B268
:100C70003846984700281FDB0B98FFF7D3FB34A3B7
:100C8000D3E90023FFF762FD06460A980F46FFF7F7
:100C9000C9FB02460B4630463946FFF777FA382C37
:100CA00006460F460BDDCDE900672D4A234600219D
:100CB00028460BF05FFA002010B0BDE8F087264B05
:100CC00053F824A024F00403032B0CD00B2C0AD0DF
:100CD000CDE90267234ACDF800A02346002128462B
:100CE0000BF048FAE7E70F98FFF79CFB18A3D3E94E
:100CF0000023FFF72BFD80460E988946FFF792FBF5
:100D000002460B4640464946FFF740FACDE9060148
:100D10000D98FFF787FB0EA3D3E90023FFF716FD1D
:100D200080460C988946FFF77DFB02460B464046FD
:100D30004946FFF72BFACDE90267CDE904010A4ADB
:100D4000CDF800A02346002128460BF013FAB2E7A5
:100D50000000000080842E41580100202706010079
:100D6000B8050100D7050100F30501001FB5164CB9
:100D700016490394231D029304F10803019304F11F
:100D80000C03009304F1140204F1100309F0E8F8D5
:100D900006280CD00E490B685B0708D00D4B0E4897
:100DA000C91A8908890141F001010AF0F2FD63695D
:100DB0000548A3F26C7363612369013B236104B0AE
:100DC000BDE8104008F04ABE30080020B0EC00003A
:100DD000E8020020E8020020C2EC00000148FFF712
:100DE000C5BF00BFE1EC000038B50CF091FC4FF43A
:100DF0007A72A0FB020302FB0131114B114DD3E9C2
:100E00000024C00B40EA4140821A4FEAD13161EB25
:100E10000404C3E900010C490B6803F00703022B2B
:100E2000C5E900240AD9094B0948C91A890889016A
:100E3000BDE8384041F003010AF0ABBD38BD00BF4A
:100E4000E8030020E0030020E8020020E802002080
:100E5000F5EC000010B5FFF7C7FF0849084C002368
:100E6000D1E900014FF47A72FFF758FD236803447B
:100E700023602046BDE8104008F0F0BDE0030020EC
:100E80003008002013B5044608480AF058F9FFF767
:100E9000E1FF00220023CDE9002320464FF4202269
:100EA000002308F0FBFB02B010BD00BF05ED000001
:100EB00013B5094C0949002220460CF02FFC0022F2
:100EC0000023CDE9002320464FF42022002308F020
:100ED000E5FB02B010BD00BFF0030020850E00004E
:100EE00010B5124C236803F00703022B08D91049F0
:100EF0001048611A8908890141F003010AF049FD8F
:100F0000FFF76CFFFFF7D4FF236803F00703022B02
:100F10000AD907490848611A89088901BDE81040C3
:100F200041F003010AF035BD10BD00BFE80200200A
:100F3000E80200201EED00002DED00000B680133DB
:100F40000B60014B1B6818475800002007B50B4683
:100F5000002102460191034801A900F059F903B0AC
:100F60005DF804FB3D0F000030B585B0CDE901010F
:100F70000446002501A90548039500F049F9DDE97B
:100F800002309842B8BF255405B030BD19B10000F9
:100F90002DE9F84FB0F8189019F008080446934668
:100FA0000DD001290CBF49F0100949F02009A0F823
:100FB00018908BF31188BFF36F8FBDE8F88F09F09D
:100FC0000709022907D120460AF0D3F80028F0D0FB
:100FD0000128238B4ED16769218B002F15DA2568F4
:100FE00021F00701C4E9008841F0010121830026B6
:100FF000218B01F0070ACA4502D0A368002B5AD101
:101000000DB9002E71D0002356E001F007035A1FDE
:10101000012A1ED821F00701062B256889B2C4E9F0
:1010200000880AD13DB1638B2A46126801339BB216
:10103000002AFAD1638341F00201218320460AF09D
:1010400098F806460028D3D0238B43F0200323834F
:10105000CDE7042B0CD121F0070189B22183204672
:101060000AF087F805460028C1D041F0200121830D
:101070000025BCE7032809D1226923F0070316687D
:1010800043F00603238300252F46B1E7042806D149
:10109000226923F00703566843F00403F2E70528AA
:1010A00006D1226923F00703966843F00503E9E7B8
:1010B00000252E46E8E7012341F0080121838BF348
:1010C0001188BFF36F8FFBB985BB16B11F4920464E
:1010D000B0474FF02003EFF3118B83F31288BFF377
:1010E0006F8F238B23F008032383238BDA0625D508
:1010F00023F0100323830121B4F8189009F00709A5
:1011000000297FF45EAF54E7A1680029DCD0D1F854
:101110000090D1F804B03B4652462046D847B9F17A
:10112000000FD1D04946D9F80090F2E729463B4656
:10113000524620462D680AF038F8C5E713F0200122
:101140001EBF23F0200323830221D5E7D7B100007F
:10115000F0B5084E026803460A2700201146013206
:101160000C78A55D6D0701D41960F0BD07FB004048
:101170003038F3E7D80A01002DE9F84F15469A46B2
:10118000D378224A13F802B06F2B80460F460BF03B
:10119000030B29D024D8582B14BF0A261026DDF8BB
:1011A00028903246002340463946FFF7B7FB092A0C
:1011B000D4B21ED83034B045E4B277F1000309F858
:1011C000014D01D3D14511D82B789B0605D5082EAA
:1011D00015D1AB7843F00803AB704846BDE8F88FF3
:1011E00003F0F703702BD7E70826D8E780460F46B1
:1011F000D7E7BBF1010F0CBF37345734DBE7102EB4
:10120000EBD1AB7843F01003E6E700BFD80A01004A
:101210002DE9F04F81469BB08A4615461C460026B4
:10122000287810B9304600F0C5BD6B1C2528029304
:1012300006D05146C8470028C0F2BC85013626E2D8
:10124000182200210CA80CF033FC6B78252B59D008
:101250006A1C174612F8013B2B2B00F08B8079D8C3
:10126000202B00F08C80232B00F08E809DF83830EE
:1012700003F04402442A03D16FF386138DF838300B
:101280009DF838300A9743F080038DF838303B786A
:101290002A2B7ED19DF8393043F001038DF8393087
:1012A0007B1C0A931A782E2A9DF839200CBF012145
:1012B000002161F341028DF839200BD15A1C0A92AA
:1012C0005A782A2A7BD19DF8392042F004028DF801
:1012D000392002331A4612F8010B6C2800F0CF8037
:1012E0007DD8682800F084806A2800F0D2804C28DD
:1012F00000F0D6809DF839206FF3C6028DF83920B2
:101300001A4680E0AA1C02928DF83B309DF83930D5
:10131000DF0740F1708154F804BBBBF1000F07DA1E
:101320009DF8382042F004028DF83820CBF1000BF4
:10133000580740F1698154F8048BB8F1000F80F22E
:1013400068819DF839306FF341038DF839304FF0E3
:10135000FF385EE12D2B06D0302B87D19DF8383039
:1013600043F0400303E09DF8383043F004038DF868
:1013700038306EE79DF8383043F00803F7E79DF802
:10138000383043F01003F2E79DF8383043F0200383
:10139000EDE70AA8FFF7DCFE0A9BBB4281D09DF86F
:1013A00038100F90C1F3400242EAD072520062F04E
:1013B0007F0201F07D010A438DF8382071E70AA809
:1013C000FFF7C6FE9DF838301090C3F3400242EAA2
:1013D000D07060F341038DF838300A9B7AE77428A7
:1013E0009DF8391059D07A2884D10B46062141E066
:1013F000597868299DF839103AD1012262F3C60163
:101400008DF839109A1C134613F8012B0293782A91
:101410008DF83B2000F2C580572A4ED8412A04D0CF
:10142000A2F14503022B00F2BC809DF83A3002F095
:10143000DF020421A2F1410861F30203D8F10002A6
:101440009DF839108DF83A3042EB080262F3C7116B
:101450000A068DF83910CBB200F1CB8003F0780288
:10146000182A40F09B806FF3C6038DF8393082E074
:101470000B46022161F3C6038DF83930C3E7597872
:101480006C299DF8391001D10422B7E70B460321DE
:10149000F0E79DF839300521ECE70B460721E9E735
:1014A000BDF8383023F4F04323F0020343F48043C3
:1014B00043F00203ADF83830A5E7A2F15803202B22
:1014C0006FD801A151F823F07B150000A31500008F
:1014D000A3150000A3150000A3150000A31500002C
:1014E000A3150000A3150000A31500002B14000095
:1014F000A31500007B1500004D1500002B14000003
:101500002B1400002B140000A31500004D15000043
:10151000A3150000A3150000A3150000A3150000EB
:10152000B11500007B150000D5150000A3150000C3
:10153000A3150000D5150000A31500007B150000C1
:10154000A3150000A31500007B1500009DF83A309C
:10155000012161F302038DF83A309DF8393003F030
:101560007803402B02BF9DF8381041F001018DF83F
:101570003810632A05D0002306E09DF83A30022196
:10158000E7E7003B18BF01239DF83820C2F3400174
:101590000B4363F341028DF83820B7E613F0380FA0
:1015A000E9D09DF8383043F001038DF83830E2E798
:1015B0009DF83A30032262F302038DF83A309DF829
:1015C000393003F07803A3F1400CDCF1000343EB66
:1015D0000C03D9E79DF83A30032262F302038DF839
:1015E0003A309DF8393013F0780F14BF01230023EF
:1015F000CAE70123C8E79DF93820002AB4BFDDF807
:101600003CB04FF0FF3B93E699077FF5A0AEDDF8C5
:1016100040809DF839100023CDE90F339DF83A3012
:1016200003F00702042A09D18A0707D49DF939205B
:10163000002AB4BF4FF00D084FF0060803F007036F
:10164000012BC1F3C30137D1CB1E042B21D8DFE816
:1016500003F003090920200054F8043BDA17CDE910
:101660000C3206E0073424F00704F4E80223CDE945
:101670000C239DF83870BB0756D0029B2A46514672
:10168000484609F05BFF0028C0F294830644029D9F
:10169000C6E554F8043B01294FEAE372CDE90C3268
:1016A00005D19DF830300C9300230D93E1E702291A
:1016B000DFD1BDF93030D1E7022B23D1CB1E042B73
:1016C00013D8DFE803F0030A0A12120022680C9212
:1016D0000023201D0D930446CBE7E01D20F00700FA
:1016E000F0E80223CDE90C23F5E754F8043B0C9312
:1016F00001294FF000030D93D3D00229B9D1BDF8D1
:101700003030D0E7042B09D1E31D23F0070303F1A8
:101710000804D3E90023CDE90C23AAE7032B04BF77
:1017200054F8043B0C93A4E79DF83B20782AAED8EC
:10173000572A00F28C80252A00F0D480242AA6D9CA
:10174000412A03D0A2F14503022BA0D8DDE90C13F6
:10175000002BC0F2B781380700F1B68117F01007EF
:1017600018BF2027C3F30A55C3F31303CDE90813A9
:10177000002D40F0AB8151EA030014BF012000208E
:10178000DB0243EA5153C902462A45EA010E43EA05
:10179000E57C08BF66225EEA0C0CCDE9081300F078
:1017A0000382002840F0CB81DDE908014FF0000CF6
:1017B00041F00041A5F2FE35099163464FF0050E58
:1017C00015F1020FC0F2C281BCF1000F01D0CDE9CA
:1017D0000801002DDDE9081000F3CD810998089972
:1017E000C5F1040C1C3500FA05F5ACF1200E21FA08
:1017F0000CF120FA0EFE294341EA0E0120FA0CF00A
:10180000CDE9081002F0DF01472940F0D481DD1C4A
:1018100002DB984580F2CB81023AB8F1000FD2B2D8
:1018200001DD08F1FF389DF83810880600F1C3810A
:10183000B8F1000FD4BF00210121662A039140F0C6
:10184000BC8113EB080540F1BA810025BAE1A2F191
:101850005803202B3FF61BAF01A050F823F000BF28
:10186000671A00008F1600008F1600008F16000008
:101870008F1600008F1600008F1600008F160000D4
:101880008F1600004D1700008F1600001119000080
:10189000071A00004D1700004D1700004D170000FB
:1018A0008F160000071A00008F1600008F16000028
:1018B0008F1600008F1600009D1A0000671A0000A6
:1018C0006B1A00008F1600008F160000EB18000046
:1018D0008F160000671A00008F1600008F16000098
:1018E000671A000051461046A4E4B8F1000F0C9AA4
:1018F00009DB4146104603920CF020F9039A0027B9
:10190000151862B9C3E610460392FFF77EF9F5E7B2
:101910000C9B8DF84C3000270DF14D0513AAAB1A26
:1019200007B101339DF83A00C10640F13782023316
:101930000F9940060B4444BF10995B18BBF1000F90
:1019400023DDABEB030B9DF838305907C3F3800858
:101950001BD4580640F13682002F00F036825146E3
:1019600038460392C8470028C0F22482039A4746AB
:1019700001364FF030085E445B46002BA6EB0B00AF
:101980000BF1FF3B00F30E82064647B15146384645
:101990000392C8470028C0F20D82039A01369DF8D1
:1019A0003A30590640F165829DF93930002BA6EB9B
:1019B000020680F219821746B846F31917F8010B90
:1019C000702840F00582109F1E461F44BB1B002B51
:1019D00000F348822B4642465146484609F0AEFD88
:1019E0000028C0F2E781304406468344ABEB06038F
:1019F000002B7FF74CAE51462020C8470028C0F28C
:101A0000D9810136F2E73D072BD417F0100718BF34
:101A10002027DDE90C23002B05DA524263EB430358
:101A2000CDE90C232D270DF1650300930EAADDE906
:101A30000C0113ABFFF7A0FB0246B8F1000F0DF14C
:101A40006505FFF65EAF9DF83810AB1A6FF386118F
:101A500098458DF838107FF654AFA8EB03030F9329
:101A60004FE72B27D5E70027DDE70C98002800F08B
:101A700091810DF1650300930EAA13AB0021FFF7CE
:101A80007BFBBDF83A3003F0EF0343F4F04343F03F
:101A900010030246ADF83A300027CEE70C9B072929
:101AA0003FF6F5ADDFE801F00C04060C08080C0C5D
:101AB0001E70ECE51E80EAE5F217C3E90062E6E578
:101AC0001E60E4E52D274DE62B274BE640F2FF7024
:101AD000854231D10132B948D2B20B43125C02F0D7
:101AE00003021BD1012A11D149238DF84C304E231A
:101AF0008DF84D3046238DF84E309DF838306FF319
:101B000086138DF838300DF14F0507E769238DF8FE
:101B10004C306E238DF84D306623ECE7012A07BF69
:101B20004E2341226E2361220CBF8DF84C308DF87C
:101B30004C308DF84D20DEE7002021E6013D4918AC
:101B40005B41002BFADACDE908132DE6400840EAA4
:101B5000C1704908B1F1333FAC4605F10105F5D23A
:101B60000EFB01F5A0FB0E012944013B0CF102051F
:101B70004FF0010C24E6023140F10000CDE90810DD
:101B800008A8CDE9032309F0AAFC049B039ADDE928
:101B90000810013D013349184041002805F1FF3587
:101BA000F9DACDE9081014E600231D4616E6A8EB85
:101BB0000308662237E600213FE608F10105102DF3
:101BC000A8BF10251021079100204FF00061CDE93A
:101BD0000A01DDE90A10A5B9089D4919099D40EBE4
:101BE0000505B5F1805F1BD2CDE90815662A40F0E6
:101BF0009980002B23DC30218DF84C100DF14D0520
:101C00002FE0490841EAC0714008CDE90A100AA84E
:101C1000CDE90423013D09F062FCDDE90423D8E7A6
:101C2000490841EAC57108A86D08CDE90423CDE94A
:101C3000081509F054FC059B049A0133D6E713AD4F
:101C4000079900290BDD07A908A8CDE9042309F0AD
:101C50005EFC059B05F8010B013B049AF0D10F9344
:101C600000239DF83810890602D4B8F1000F1DDD5D
:101C70002E2105F8011B9BB1B8F1000F16DD59426A
:101C80004145A8BF41469DF83A000F910029A8EBB5
:101C90000108D4BF0021012161F345108DF83A00FD
:101CA000B8F1000F02DD0799002956DC03990029DD
:101CB00063D1CDF8408002F0DF01452921D1002B0E
:101CC0002946B8BF5B4201F8022BB4BF2D222B225C
:101CD000632B6A7009DD642093FBF0F202F1300C93
:101CE000E91C85F802C000FB12330A200D4693FB65
:101CF000F0F200FB123302F1300C303305F802CB66
:101D00004B700F9B002B43DC109B002BD4BF002398
:101D100001239DF83A2063F3861200238DF83A20C0
:101D20002B70FBE507A908A8CDE9042309F0EFFB18
:101D3000DDE904239DF838108DF84C00302818BFD9
:101D400003F1FF33880602D4B8F1000F12DD2E2113
:101D50008DF84D100DF14E05A2E707A908A8CDE9B1
:101D6000042309F0D4FB08F1FF38DDE9042305F86A
:101D7000010B95E70DF14D0598E7002110912846DC
:101D800015F8011D3029FAD02E2918BF054692E713
:101D90000123BEE70A4D07466A1FC0E5010748BF99
:101DA0000133C5E5514640460392C8470028039ACF
:101DB000BFF6E2AD1BB0BDE8F08F00BFD70A01004F
:101DC00043ED00004FF02008D5E54FF03008D2E594
:101DD0005146C8470028BFF6EFADEBE751460392E6
:101DE000C8470028039AE5DB1078374BC35C5B07D4
:101DF000174606EB020802F10102EFD49DF83A30D3
:101E00000F9E990607D4B044002EA8EB060206F1F7
:101E1000FF360FDC904638782E2808D15146C84747
:101E20000028C7DB002E08F1010809DC0137A8EB08
:101E300007060EE051463020C8470028E4DAB9E72B
:101E400051463020C847013EEAE75146C8470028BE
:101E5000B0DB1D4AB846F31917F8010B125C5207A4
:101E6000F3D4B0E551463020C8470028A2DB013644
:101E7000ACE5D80601D4190707D5514630200392A6
:101E8000C847002896DB039A01369DF83A30DB06F6
:101E900008D59DF83B0003925146C847002889DBCE
:101EA000039A01360F9F3744BB1B002B01DC2B46E6
:101EB00092E5514630200392C8470028FFF67AAFDA
:101EC000039A0136F0E700BFD80A01000B0706D5D8
:101ED000034BC35C03F00303012B08BF20307047A2
:101EE000D80A010030B51049104889B000220BF023
:101EF00015FC0F4D0F4900220023CDE906230024D5
:101F00000E23CDE90334CDE901440B4B00944FF48B
:101F10004072284606F056FB0849284606F0A8FA03
:101F2000204609B030BD00BF411F0000280400203A
:101F300060040020800E0020F122000025F1000046
:101F4000014806F04DBD00BFC8030020F0B50546AE
:101F50000F4E002003460246012715F8014B0CB135
:101F60008B4200D3F0BD252C02D182F00102F4E7B0
:101F7000002AF2D014F806C01CF0030FEDD0732C29
:101F800004BF07FA03F2104301330022E5E700BF64
:101F9000D80A01000D4A08B5002313700C4A1360DB
:101FA0000C4B0D4A1A604FF4004000F089FD00F020
:101FB00029FB0A4809F0CAFC0423094909482822D8
:101FC0000BF094F9BDE8084000F056BA3F0E00202F
:101FD000580800205C0000208BB900006008002039
:101FE000C02E00206808002070B5124BBFF35B8F35
:101FF00053E8005F6A1C43E800210029F8D1BFF3D1
:102000005B8F2DB90C4C0D4E361B3611B54200DBE3
:1020100070BD237B53B123689B690BB12046984761
:10202000636804221968204600F0BCFA01351034B8
:10203000ECE700BF5C08002030E2000040E2000056
:1020400010B54FF02003EFF3118483F31288BFF330
:102050006F8F044809F08AFC84F31188BFF36F8FF7
:1020600010BD00BF6008002010B5044C237813B9E0
:10207000034806F0B5FC0123237010BD3E0E00207E
:10208000C8030020064BBFF35B8F53E8002F0132DB
:1020900043E800210029F8D1BFF35B8F704700BFF0
:1020A000580800200020064BBFF35B8F024653E820
:1020B000000F43E800210029F9D1BFF35B8F70477F
:1020C00058080020F8B5FFF7EDFF0A4C0A4D2D1B0C
:1020D00007462D110026AE4200DBF8BD63685B7930
:1020E0002BB123681B6913B1394620469847013646
:1020F0001034F0E730E2000040E20000174B984255
:1021000073B5044602D3164B984221D315480022DA
:10211000002301A906F046F90546E0B90122019B1A
:10212000BFF35B8F53E8001F43E800200028F9D17C
:10213000BFF35B8F019E331D1F22184621460BF013
:10214000EAFC7E22034686F8232086F824501C46AB
:10215000204602B070BD044BF9E700BF50DF00001D
:10216000640C01006808002044ED000048B1054BF4
:10217000984205D3A03398422CBF0020012070471D
:1021800000207047C02E00204C4B1B782DE9F74FE4
:10219000054603B900B3FFF753FF044678B1BFF318
:1021A0005B8F474B53E8002F013A43E80021002999
:1021B000F8D1BFF35B8F9DB1204609F0CAFC2DB961
:1021C000404B1B68002B01DDFFF77CFF3E4809F008
:1021D000CBFB051E18BF0125284603B0BDE8F08FD4
:1021E0003A4B1B78BBB9237ADA0714D409F0C4FC44
:1021F0008046204609F08BFC01464046FFF7A6FECC
:10220000DFF8CC90334BDFF8D0B0A9EB03030646E0
:102210004FEA930A36B9314E314B9B1B4FEA2318D4
:10222000002748E0B6FA86F7C7F11F07394620466F
:1022300009F070FC2B4B9842024602D32A4B98427D
:102240001BD31046FFF792FFB8B9284B9A4214D01F
:102250006189C1F3891100F02DF9D9F800305B07CD
:1022600002460AD04FEA8A1343F00103ADF800306A
:1022700039464346584609F0C6FB012303FA07F7DF
:1022800026EA0706C6E773685B7993B1A17A62898B
:1022900001F007090123C2F38912C1F3C2013046DC
:1022A00000F096F9814504D8336821465B683046D2
:1022B0009847013710364745E5DB7DE73E0E0020A5
:1022C0005408002058080020600800203F0E00201D
:1022D000FC020020E80200205EED000030E2000079
:1022E00040E2000050DF0000640C010044ED0000FB
:1022F00010B5FFF779FE06F0D5FF0C4B186030B132
:102300000B4B1B68092B02DD0A4806F069FB094CE0
:102310000020FFF739FF0028FAD14FF0FF324FF0CD
:10232000FF33204606F082FBF2E700BF840800205E
:1023300054080020C8030020294B37B51B68418191
:1023400004469847E0604FF02003EFF3118583F3D4
:102350001288BFF36F8F2348214609F0FBFA85F3FB
:102360001188BFF36F8FBFF35B8F1F4B53E8002FB4
:10237000013243E800210029F8D1BFF35B8F1B4AEB
:10238000127882B14FF02003EFF3118483F31288A7
:10239000BFF36F8F0020FFF7F7FE84F31188BFF3C0
:1023A0006F8F03B030BD124A1B681268002AF8D044
:1023B000012B0AD100220023CDE900230D484FF460
:1023C0000042002307F06AF9EBE70A2BE9D109483C
:1023D0000BF0B0F9084803B0BDE8304006F000BB90
:1023E0005C00002060080020540800203F0E002000
:1023F0008408002028040020C8030020F8B50E4FF0
:102400003D7875B90D4C0E4EFFF7EEFD361B3611BB
:10241000B54207DB0020FFF7B7FE0028FAD1012301
:102420003B70F8BD63685B791BB1236820465B692C
:10243000984701351034EBE73F0E002030E20000F2
:1024400040E2000007B504380190BFF35B8F50E80D
:10245000003F5A1E40E800210029F8D1BFF35B8FEE
:10246000012B03D1034801A90AF05BFF03B05DF81B
:1024700004FB00BF680800200B480C4B30B51B1A4A
:102480000B4CDB0800210430994200D130BD10F81C
:102490003120256802F0070225F007052A4344F899
:1024A000042B0131F0E700BFC8E1000030E200007A
:1024B000E8020020044A054B9B1AB1EBD30F34BF4E
:1024C00052F8310000207047C8E1000030E20000FF
:1024D0002DE9F0478946164698460446B8B9DFF814
:1024E00084A0214FA7EB0A073F110546BC4202DB3F
:1024F0002846BDE8F0870AEB0410434632464946B9
:10250000FFF7E6FF854238BF05460134EEE7174B7B
:10251000174C03EBC2031D7943681A79072302EBBA
:10252000420203FA02F1454554F8263028BF4546D9
:1025300023EA010305F0070101FA02F21343002127
:10254000032223FA02F000F00700814202F10302A5
:1025500038BF01461E2AF4D123F007030B4344F889
:102560002630C5E730E2000040E20000C8E100008C
:10257000E8020020F8B5094C094BE41A06460F465C
:10258000E4080025A54200D1F8BD00212AB23B464F
:102590003046FFF79DFF0135F4E700BF30E2000051
:1025A000C8E10000094BC31A70B51B114668044608
:1025B00001330D4633711146FFF7DCFF63680122DA
:1025C0001D605A71BDE87040FFF74EBD30E200005B
:1025D00063B1002A0FDB43680849187900EB400318
:1025E00051F82200D84000F007007047044B03EB7D
:1025F000C202107970470420704700BFE802002033
:10260000C8E100002023024902481A460AF06EBEC3
:10261000602F00208808002037B50023094D019362
:102620000120FFF7B1FD0446FFF72CFD0022002337
:1026300001A9284605F0B6FE08B1002CF0D101989A
:1026400003B030BD8808002007B500230193074878
:102650000022002301A905F0A5FE10B1FFF7DCFF61
:102660000190019803B05DF804FB00BF88080020CA
:10267000F0B5037A85B0DC0701901ED4457A2D09A8
:102680001BD0002426460198314609F043FA07463C
:10269000FFF76CFD70B134B9019B29461869FFF74B
:1026A00055FC044648B124FA06F3D90702D538464A
:1026B000FFF7C8FE0136AE42E5D3019B1A7A9207B6
:1026C00004D55B69084C0393039B2BB9064801A909
:1026D0000AF027FE05B0F0BD1D6803A920460AF0E8
:1026E00020FE0395F0E700BF88080020024B9868A1
:1026F0009B69C01A704700BF88080020014B986989
:10270000704700BF880800200EB403B503AB014634
:1027100053F8042B04480193FEF77AFD02B05DF8EC
:1027200004EB03B0704700BF79BE00002DE9F0470D
:102730001D46089B1746DA0604460E4605D4990640
:102740004CBF2B492B49FFF7DFFFDFF8AC904FF070
:102750000008A8452DDBDFF8A480DFF8A490DFF89F
:1027600098A00025BD4232D2725D49462046FFF74F
:10277000CBFF0135102D23D12249DFF87C80DFF813
:102780008890DFF888A02046FFF7BEFF0025AF4203
:1027900029D9725D12F8093013F0970F08BF2E2265
:1027A00051462046FFF7B0FF0135102D14D1BDE88A
:1027B000F08749462046FFF7A7FF08F10108C8E760
:1027C0006A07CFD151462046FFF79EFFCAE7414630
:1027D0002046FFF799FFCCE76B07D8D1414620464A
:1027E000FFF792FFD3E741462046FFF78DFFDBE777
:1027F000D4F20000C2EE0000A9ED0000A7ED000039
:10280000A1ED0000ABED0000D80A0100FAF80000CD
:102810002DE9F04F87B011F0020605929DF8408037
:10282000BDF9489007461A4601F0010A01F0080573
:1028300006D011F0440F38D13349FFF765FF064643
:10284000BAF1000F0AD0314B314953F82820314BEF
:102850003846002A08BF1A46FFF756FF3DB12E4BF7
:102860002E4953F828203846FFF74EFF0546B9F1A8
:10287000000F16DB059B002B43D0012303FA08F859
:10288000274B284C18F0100F18BF1C4649469DF8DE
:102890004400FFF70FFE214602463846FFF734FF9B
:1028A0000544A81907B0BDE8F08F1F4B196831B374
:1028B0001E4B4FF461661B68B2FBF3F34FF47A7B57
:1028C000B3FBF1F4B4FBF6F206FB124601FB143441
:1028D0000BFB04F44FF03C0CB4FBF1FEB6FBFCF335
:1028E00001FB1E440CFB13660BFB04F40096B4FBC7
:1028F000F1F1CDE901E10E49FFF706FF9FE7084638
:102900009DE7084CC2E700BFBBED000038E30000C4
:10291000EFF30000ADED00004CE30000E0ED00003F
:10292000B7ED0000B2ED0000A4080020A8080020C8
:10293000C4ED000038B50C46E107054603D5084A4A
:102940000849FFF7E1FEE20608D4A30628464CBF7B
:1029500005490649BDE83840FFF7D6BE38BD00BF7F
:10296000ADED0000EFF30000D4F20000C2EE000075
:102970002DE9F0478B7A13F007088AB005460E461A
:10298000174622D00A7A4989C3F3C203C1F38911D9
:10299000D243CDE900830291F36802F00102394687
:1029A000FFF736FF8146347AE44314F001040ED079
:1029B0002946304609F0F6F8B8F1000F2BD0424610
:1029C00039462846FFF7B6FF25E0C146EBE7B8F1E8
:1029D000000F26D12746EB68069306AA3B46A96856
:1029E000304609F0CBF8069A6B681A603AB1AB68CA
:1029F000134413F8014CA4F10A035C425C412846DD
:102A000009F02DFA069B1F44002BE4D11CB1144998
:102A10002846FFF779FE28460AB0BDE8F04709F0DE
:102A20001EBA304609F0A8F80E4902462846FFF7BC
:102A30006BFE4FF0100A05AA234606A93046CDF8D2
:102A400014A009F09BF8059A002AB8D04B460097CD
:102A500006A92846FFF76AFE059B1C44EBE700BF6A
:102A6000E6ED0000EFF3000073B542F20F738B4206
:102A700028BF0B4605680F4A04460521684608F042
:102A80006BFB63680C495B6806460422284609F024
:102A90007CF863683246694628465B6809F075F839
:102AA000636806495B681722284609F06EF802B091
:102AB00070BD00BF22F7000020EE000008EE00000D
:102AC000084A10B50123084C13600021A04204D825
:102AD00001B11360054B186010BD40085B00012177
:102AE000F4E700BFA808002040420F00A40800201F
:102AF00000230428CB604B6098BF044B044A98BF66
:102B000053F820308A600B60704700BFA0E30000DC
:102B10007CE300000023084A0B60CB604B608A60B6
:102B2000064B074AD21AB0EB221F3EBF03EB00133D
:102B30009B680B60704700BFF4E4000030E20000C7
:102B400040E2000038B50446FFF7D0FD0546FFF728
:102B5000D5FD094A03460021204609F00BFB2B4610
:102B60002046064A002109F005FB2046044A0021C0
:102B700009F000FB002038BD25EE000036EE000015
:102B800047EE00002DE9F347114B124CDFF8488067
:102B9000DFF84890DFF848A01B1B07461E110025F0
:102BA000B54203DB002002B0BDE8F08763685979C5
:102BB0001B79002914BF42464A46CDE90023002173
:102BC000A3685246384609F0D5FA01351034E7E7D4
:102BD00040E2000030E2000093EE00009BEE0000B7
:102BE000A4EE00002DE9F04F244B254CE41A4B686D
:102BF0005B7985B005460E46E4081BB9214A0421DD
:102C000009F0B8FA204B214ADFF884A0DFF884B03D
:102C10000021284609F0AEFA1F4A0021284609F093
:102C2000A9FA4FF000080FFA88F7A74208F1010847
:102C300003D3002005B0BDE8F08F3A460123002100
:102C40003046FFF7C5FC00233A4619468146304618
:102C5000FFF7BEFC394603900020FFF72BFC039AD8
:102C60005AF8222001925AF82920009203465A4627
:102C70000021284609F07EFAD5E700BFC8E1000030
:102C800030E20000C5EE0000D7EE0000E3EE0000E9
:102C90008CE300003EEF000001EF000010B50023C0
:102CA000054ACB600C464B608A6001461846FFF728
:102CB00001FC206010BD00BF7CE300002DE9F04F57
:102CC00052F804AC184C85B00646504689469046EA
:102CD0000293FDF79AFF1549091B0B110246019358
:102CE0000027A346019B9F4208DB114A534602215D
:102CF000304609F03FFA6FF007050FE0A168039234
:102D000050460AF0F4FE1034039A054650B9029C6E
:102D100043464A460BEB07113046A047284605B00C
:102D2000BDE8F08F0137DDE730E2000040E200004F
:102D300052EF000008B5024BFFF7C0FF002008BDAE
:102D4000E52B0000014BFFF7B9BF00BFAFBE00008D
:102D5000014BFFF7B3BF00BFB7BE0000014BFFF749
:102D6000ADBF00BF652E0000014BFFF7A7BF00BF3E
:102D700003BF000010B5C369DB681C792CB9044A95
:102D8000022109F0F7F9204610BD0120FCE700BF41
:102D900067EF00002DE9F04F2C4E1F462C4BF61A22
:102DA000151E85B04FEAD60614BF2B463346029354
:102DB0004B685B79804689461BB9264A042109F095
:102DC000D9F9DFF894A00024029B9C4202DB05B0F5
:102DD000BDE8F08FBDB357F824B000239E4207D161
:102DE00057F824301D4A0221404609F0C3F923E078
:102DF000194600200393FFF75DFB402259460AF075
:102E000076FE039BD0B91A4600210E9B12B24846AB
:102E1000FFF75EFB0E9B834283460DD085B92146AA
:102E20002846FFF747FB03465AF82B20009204215F
:102E30000B4A404609F09EF90134C5E70133CDE75E
:102E400057F82430F0E72246DEE700BF30E200000A
:102E5000C8E100008BEF00008CE30000B6EF00003B
:102E6000A0EF00002DE9F74FD3F804B0DFF84CA035
:102E70000646884691461D4600275AF8041B042240
:102E800058460AF034FE044670B10137052FF4D1DC
:102E90006B680B4A0221304609F06CF96FF00704A9
:102EA000204603B0BDE8F08F009705F10803A9F1B3
:102EB000020241463046FFF76DFFF1E78CE3000068
:102EC000D0EF000013B5044605F004FCC0F307235F
:102ED0000193C0F307430093044A030E00212046E8
:102EE00009F048F9002002B010BD00BF8BF10000CE
:102EF00038B504460AF00CFC4FF47A73A0FB0320AB
:102F0000002503FB0103D20B42EA43432046034A58
:102F1000294609F02FF9284638BD00BFA4F100006A
:102F200010B5044604F034FB084A0346002120464D
:102F300009F020F9064A2046002109F01BF905484E
:102F4000214605F05DFA002010BD00BFB3F100007E
:102F5000D2F10000B52F000030B5014687B004461D
:102F6000114805F04DFA114A002312F8011BAA2955
:102F700003D10133B3F5006FF7D1C3F500616422CB
:102F80004A43D20A002505924FF40062CDE90312AC
:102F9000CDE901232046054B054A0095294609F055
:102FA000E9F8284607B030BD9D300000C02200205F
:102FB000DCF10000F0B587B0D0F8A07004460D46F3
:102FC0000AF0DFF9064606F06DF9254B254A002E7A
:102FD00008BF1E46244BCDE90046844218BF134665
:102FE00000212846214A09F0C5F8D4E90A23CDE991
:102FF000022394F90E301E4A00930021237B2846B9
:1030000009F0B8F8204605F043FA04F164030646D7
:103010000FCB8DE80F00174A33460021284609F0F0
:10302000A9F805A920460AF0B0F9014638B10346CF
:10303000114A0021284609F09DF807B0F0BD059A15
:103040006423B81ACDE9002043430C4AB3FBF7F3DD
:103050002846CDE902733B4609F08CF8EDE700BF46
:1030600022F20000A9ED0000E901010025F20000B4
:1030700031F200005BF2000072F200009FF20000EB
:1030800010B5044604F092FA034A03460021204694
:1030900009F070F8002010BDD6F20000F0B5D0F8AD
:1030A000A07089B005460E4607A90AF06EF90446DD
:1030B00038B10346114A0021304609F05BF809B0E7
:1030C000F0BD28460AF05DF907990D4AA7EB010CFF
:1030D000002818BF02466423CDE9021CCDE9002771
:1030E00003FB0CF3074AB3FBF7F32146CDE9047366
:1030F00030462B4609F03EF8E1E700BF72F20000CF
:1031000022F20000ECF200000346006810B50C4605
:10311000114608B1027822B9024A204606F0ECFEB8
:10312000204610BDBFF3000010B50C68D1E90112B4
:10313000FFF7EAFF034A03460021204609F01AF888
:10314000002010BDC4F300002DE9F0478AB0054609
:1031500001A804F06BFF019E1B4ADFF87080DFF8C6
:103160007090DFF870A0182303FB0066002128464A
:1031700009F000F8019CB44203D300200AB0BDE876
:10318000F08705AF394614222046FFF7BDFF4246BF
:1031900003460021284608F0EDFF20460AF080F89B
:1031A0000D4A002814BF4B4653460021284608F01C
:1031B000E1FF142320460949049302AACDE90257EE
:1031C00018340AF077F8D6E7E3F30000EDF30000D7
:1031D000D4F30000DAF300003C06010029310000BE
:1031E0002DE9F043114BDFF8489053F821400131AD
:1031F00087B053F8218006460027A04503D83846FB
:1032000007B0BDE8F08320460AF04AF8054658B1F9
:10321000142201A92046FFF777FF4A460346002102
:10322000304608F0A7FF2F461834E6E7ACE500006B
:10323000F2F3000010B51F4A0446002108F09AFF7F
:1032400000212046FFF7CCFF014618B91A4A204654
:1032500008F090FF194A0021204608F08BFF012159
:103260002046FFF7BDFF014618B9134A204608F073
:1032700081FF134A0021204608F07CFF02212046EE
:10328000FFF7AEFF014618B90B4A204608F072FF5F
:103290000C4A0021204608F06DFF03212046FFF76D
:1032A0009FFF014618B9044A204608F063FF00203A
:1032B00010BD00BFF8F3000007F400000FF4000099
:1032C0001EF400002CF400008B1E022B2DE9F341AC
:1032D00007468846144637D860681022002106F059
:1032E00061FFB8F1020F064622D0A0680A22002131
:1032F00006F058FFC5B2234A2B460021384608F095
:1033000039FFB8F1040F22D0102D13D0202D14D086
:10331000082D14D13378DBB20022CDE90032002130
:10332000194A384608F026FF002002B0BDE8F081B7
:103330002025E0E733889BB2EEE73368ECE7134AD9
:103340000021384608F016FF6FF01500EDE7E06841
:103350001022002106F026FF0D4A034604460021F4
:10336000384608F007FF102D06D0202D07D0082D75
:10337000E5D1E4B23470D7E7A4B23480D4E7346046
:10338000D2E700BF89F40000B4F400009EF400000E
:10339000C6F4000070B50E4E044633780D4631B1C8
:1033A0002BB1BDE870400B4A022108F0E3BE83F068
:1033B0000103337033B1084A0021204608F0DAFED9
:1033C0000123337029462046BDE8704008F0F7BE5F
:1033D000420E0020DBF4000016F5000070B5044634
:1033E0003C480378182B02D10B78112B31D0013ACD
:1033F0000B4655189D4225D18B5C0A780370A2F1CB
:103400003003092B344C04D922F02003413B052B17
:1034100004D823683149CA54013323602368022B3E
:1034200034D110222D48002106F0BCFE2C4A13682E
:1034300003F8010B13602B4A136801331360002358
:10344000236023E013F8016B182ED3D11E78112EC0
:10345000D0D1244D244A2B680021204608F08AFE52
:1034600020460021FFF796FF204B187870B9204ABC
:103470002B681168042B0ADC08B111602B6013F073
:1034800003010BD1126813681BBA136070BD086882
:1034900000BA41F8040B043B0120EBE75B4203F068
:1034A000030358BF5942022904D1126813885BBA3A
:1034B0009BB2EAE70329E9D1106802681104C2F35C
:1034C000074301F47F010B4302F47F42134303607F
:1034D000DCE700BF440E0020B0080020400E0020B2
:1034E000AC080020B808002040F50000430E002082
:1034F000B40800202DE9F74F0D462D49DFF8B480C0
:10350000DFF8B490DFF8B4B000230B602C4988F8E2
:10351000003006460B601446012D274654F8043F40
:1035200021D918460222494601930AF0E0FA019B8C
:1035300088B922689278003A18BF012203EB020A88
:103540002049022250460AF0D2FA30B9012388F805
:103550000030013DE0E70022F0E749465046FDF724
:103560004AFBB0B9043700221146786806F09EFD88
:10357000154B002211461860786806F097FD134B32
:10358000134918603046FFF705FF002003B0BDE87F
:10359000F08F9AF800202D2AE5D19AF80120002A10
:1035A000E1D053465A460021304608F0E3FDD0E70B
:1035B000B0080020430E00205AF5000060F500001E
:1035C000B80800205DF50000AC080020B408002019
:1035D000DD33000010B581680446083101F096FB28
:1035E000A168034A20460831BDE8104001F016BB2F
:1035F00002F60000014908F0F1BC00BFD4F200005F
:1036000037B504468068D0F860321B060D4605D5F4
:10361000002108F024FDE06809F07EF9E368DB682A
:1036200063B99DB3A068423008F0D2FCA36878B3B8
:1036300003F1420103F5A1700AF051FAA268E068B3
:103640000DF106034232294609F069F958B9A0681C
:1036500000F5A17142300AF042FAA068423008F049
:10366000B7FCADF80600204608F04AFF0A4A0B49AD
:10367000606908F0B3FC204601F04EF8A368BDF87D
:103680000620DA879A87204608F0E3FE03B030BDB3
:1036900083F84201D2E700BFE9F80000EFF3000031
:1036A0002DE9F04F00239FB0CDE905338368044630
:1036B0004233039308F02AFF204608F0B6FE10B903
:1036C0006069FFF797FFA0681422002108300AF014
:1036D000EFF9204600F082FFA168E0688A8F42314E
:1036E000002609F053F9204609F01CFB4FF0FF3883
:1036F000B146B24611AF02963546B346DDE9053212
:10370000012A00F0D6800B2B40F2AE8006990229E8
:1037100040F0AE80894B8A4A15E0039A022339466D
:1037200006A800F033FE7A680392069A03462AB987
:103730006FF0070528461FB0BDE8F08F012A06D1BB
:1037400028B1804A0221204608F082FFF0E7059B5D
:103750004BB3386801F0FEFA98B166B1A5680D96D2
:1037600008350CAE0FCE0FC533682B602046FFF72F
:1037700031FF0125DEE7744A0221204608F068FF88
:10378000D6E7059B7BB13A682946204601F03AFC12
:10379000022800F08E80032805D0059B0133059395
:1037A00001230293AAE7BAF1000F05D1396807AAED
:1037B000584608F08CFD0546043708F1FF38002D07
:1037C00040D0029AEB6842B113B3204608F09EFE47
:1037D000204608F03EFE5D4ACEE7CBB1A368DDF897
:1037E0001490AE4603F1080CBEE80F00ACE80F00E1
:1037F000DEF80030CCF80030AB684BB96B7CFE2BA8
:1038000001BF95F8108009F1010308F1FF38059315
:10381000D5F804C0BCF1000F08D0AE46BEE80F00DA
:103820000CAE0FC6DEF8003033606646AB46B8F12A
:10383000000F03D1069B022B7FF460AF059B013381
:1038400005935BE7059B63B9A368DB690BB1DB6894
:103850003BB93F4B00933F4A119B0221204608F0A1
:10386000F7FE4FF0010AE2E7B8F1000F7FF455AF21
:10387000029B4BB1204609F07AFAA2680C2342322F
:1038800011A905A800F082FD059DA0681EAB03EB01
:103890008503002243F8342C436973B9002E3FF4AA
:1038A00047AFC368B3423FF461AF0D9600F108051E
:1038B00057E7059B0B2BDBD928E7037EA5EB090512
:1038C000B3B1417E4FF6FF72FF2918BF0A469D42F1
:1038D00002D313449D420BD983681F4A022120461C
:1038E00008F0B6FE2046FFF775FE6FF0150521E7DC
:1038F0004FF4803100F5187008F036FBA06800F531
:103900003D7008F0D4FBA36811AA294602EB890296
:103910005B69204698470546A0684FF0FF324FF09C
:10392000FF3300F53D7008F066FBA0686FF480314E
:1039300000F5187008F027FBFCE600BF85F60000D4
:10394000F4F3000010F6000024F6000042F6000038
:1039500071F6000082F90000A9F6000083680222D7
:1039600010B51A719A6B0446BAB983F84220DA632B
:10397000D3F860329B030BD50421084B084A08F0AA
:1039800067FEA0686FF4003100F5187008F0FBFACC
:103990002046BDE8104000F0EDBF10BDC4F60000A9
:1039A000EFF300002DE9F04F04468068ABB0102122
:1039B00000F5187008F0D8FAA3681B79022B17D10C
:1039C00000230B93A36860689E6B03681D690BABB3
:1039D000C6B110221DA9A8470B9A4AB11DA92046BD
:1039E000B047A3689B6B002BECD12046FFF7B6FFD6
:1039F000A0686FF0100100F518702BB0BDE8F04F13
:103A000008F0C1BA01220DF12B01A8470B9B002B36
:103A1000EED09DF92B209DF82B30A068002AD1DB39
:103A20004279032A00F2F582DFE812F004006D0209
:103A30009002F3020D2BD0F860221BD00A2B19D074
:103A40006FF30F22C0F86022092B4DD033D8002B22
:103A5000B8D0082B00F0C7815A1C7D49D2B2525C05
:103A600012F0970F00F0CB81012108F0F8FA9DF8D1
:103A70002B10E3E012F47F4F05D0D0F86022C2F3A0
:103A800007229342E0D1D0F86022818F63F30F22A6
:103A9000C0F8602259B908F0E2FAE06808F03CFF8B
:103AA0006069FFF7A7FD2046FFF758FF8AE7204629
:103AB000FFF7F6FDF7E71B2B13D07F2BCCD1D0F807
:103AC00060325E077FF57EAF012108F0C8FAA36877
:103AD000D3F860325D0600F18E81204608F0F8FDD3
:103AE00070E7012343716DE7D0F8603259077FF525
:103AF00069AF012108F0B3FAA068838FFF2B3FF470
:103B000061AFC28F00F1420100F5A17009F0A8FF7A
:103B1000A268D38F1344002583F842511DA90C23BA
:103B200002F5A1720DA800F031FC0D990C293FF6A9
:103B300049AF2AAB03EB810343F8345C51B1A3686E
:103B4000DA8F134493F84120424BD35C1A0751D4C7
:103B500001294ED100250C950C9B2AAA02EB830368
:103B6000002653F834AC504608F032FAB04681468D
:103B70000496374618AA3946284600F0CFFC8346FB
:103B8000002843D1012E67D10C9B2AAA02EB8303A4
:103B900053F8340C08F01CFAA26806460832414675
:103BA000284600F0BBFC0546006808F011FA864282
:103BB00006D02968821B92B23144204608F086FD67
:103BC000A068C38F034493F84220224BD15C11F0CC
:103BD000080137D1D0F86032DB072ED508F058FA4B
:103BE0002021204600F092FEA068012108F050FA42
:103BF000E8E6013900200EAB009301900CAB1DAA42
:103C000008F090FB05460028A6D1DBE6DBF80000B3
:103C10004A46514609F06BFF68B9DBF80000FCF733
:103C2000F4FF049B834238BF03469BB2002E08BFBB
:103C3000B8460493013601379CE72021204600F066
:103C400065FEBFE60121204608F036FCBAE600BF5B
:103C5000D70A0100D80A01007FF6B4AE0C9B2AAA4D
:103C600002EB830353F834AC504608F0B1F9A36873
:103C70000690A3F830B0DFF8BCB20596CDF80C8002
:103C8000A26803990832284600F048FC039B0133E0
:103C900007460393BAF1000F52D13F68002F59D164
:103CA000A2681786059B013B0593E9D16069FFF780
:103CB000A1FC204600F05EFE0C9B2AAA02EB8303C7
:103CC00008F1010953F8340C08F082F9414613AAAF
:103CD0000746284600F022FC8046A068D8F800106D
:103CE000FF2200F5A17009F016FFD8F800A04FF6EA
:103CF000FF7818AA4946284609F1010B00F00EFC8E
:103D0000002863D0A368006803F5A173002213F8AC
:103D100001CB815C614505D121B101324FF6FF71C4
:103D20008A42F4D10FB1BA4208DB424506F1FF36B0
:103D3000A8BF4246012E1FFA82F847D0D946D8E7DD
:103D400000680028A9D0069A514609F0D0FE002844
:103D5000A3D095E7584608F03BF9049BA168C21828
:103D600092B24B8D09925846089308F031F90790AA
:103D7000384608F02DF9099ADDE90713A2EB00098E
:103D8000A068B0F830C0591A91FBF2F292B2BCFBB5
:103D9000F2F102FB11C20CF1010E92B21FFA89F985
:103DA000A0F830E05AB9644A00975B4607212046E4
:103DB00008F04EFC4946204600F064FC72E75F4A7A
:103DC0003B460721204608F043FCF3E7B8F1000F1B
:103DD0003FF4F8ADA8EB070292B20AEB07012046C8
:103DE00008F074FCEEE5D0F860325F077FF5EAADCD
:103DF000012108F034F9204608F085FCE2E5D0F80E
:103E0000602250077FF5DEAD013B162B3FF6DAADA1
:103E100001A252F823F000BFE93F0000753E000008
:103E20007D3E0000DB3A0000DD3F00009B3E0000CD
:103E3000C5390000C5390000C5390000C53900008A
:103E4000A33E0000AB3E0000C5390000C73E0000A5
:103E5000C5390000D13E0000C5390000C539000059
:103E6000C5390000C5390000D53E0000C539000045
:103E7000F73E0000204608F050FBA3E5204608F07E
:103E800045FB204608F0D1FA10B96069FFF7B2FB94
:103E9000A068012108F0E3F805E6204608F045FB9C
:103EA00090E5204608F04AFB8CE56069244A2349E6
:103EB00008F094F86069234A204908F08FF82046FA
:103EC00000F058FD7EE500212046FFF799FB79E5DB
:103ED0000121F9E7204608F013FBA068002380F8D1
:103EE0004230C363012108F0BAF8174A13496069E8
:103EF00008F074F866E5204600F078FCA06801211F
:103F000008F0ADF85EE55B2B01D10223EAE5D0F8BD
:103F10006022510706D5622B08D14FF0FF312046B1
:103F200000F0C0FBA36800225A714BE5662BF9D163
:103F30000121F4E7A8ED000008F70000EFF300000E
:103F4000F2F80000EDF80000E9F8000000224271EC
:103F5000D0F8602252077FF535AD313B1B2B3FF681
:103F600031AD01A252F823F0E53F0000F13F00001F
:103F700003400000D93F0000C5390000C5390000EA
:103F8000C5390000C5390000C5390000C539000039
:103F9000C5390000C5390000C5390000C539000029
:103FA000C5390000C5390000D13E0000C73E000001
:103FB0009B3E0000753E0000C5390000DD3F00005B
:103FC000C5390000E93F0000C5390000C5390000CF
:103FD000C5390000F53F000003234371204608F077
:103FE00095FAEFE403234371204608F089FAE9E4E7
:103FF00003234371D0F8601201F0010181F0010147
:10400000F4E503234371D0F860325B077FF5DAAC47
:1040100063E5002366E500BF2DE9F04304468068B0
:104020000F46D0F8081389B090461E46002974D177
:104030004FF4437209F03CFDA3682268E0681A60FF
:1040400008F00FFDA06800F53D7009F0D5F94FF4B8
:1040500029794FF41975A068284409F0D7FCA068A5
:104060000022431901214844103509F0B2FCB5F58E
:10407000297F09F11409EED1A369A06800221A6012
:10408000202100F5187007F06FFFA068042100F5EB
:10409000187007F069FFA0686FF0080100F518704C
:1040A00007F071FFA068402100F5187007F05CFF71
:1040B000A3681B4A9A62186807F08AFFA368414602
:1040C00083F82C00184607F0D4FF6068154A03688F
:1040D00039461D682346A8470546D0B9A368012282
:1040E0001A71D4E90A0100220023CDE906230E2328
:1040F0000393109B0495CDE9016300940A4B4FF4A0
:10410000006204F05FFAA368616AC3F8080304F070
:10411000AFF9284609B0BDE8F0836FF07705F8E7FE
:1041200018005000FBBF00007941000010B50446A4
:1041300080680379012B19D14FF0FF324FF0FF3324
:1041400000F53D7007F057FF0021204600F0ECFA23
:104150000849606907F042FF2046FFF7FFFBA068AF
:1041600000F53D7007F0A3FF002010BD6FF0850043
:10417000FBE700BFD3F200002DE9F04104464068A0
:1041800003680E469B6800211546984700284CD1CD
:1041900026B1E0692A46214608F027FD2046FFF7B0
:1041A000C5FF002841D1DFF88880224F224EA06849
:1041B00000F529704FF0FF324FF0FF33032105F077
:1041C000BDFA0546A0684FF0FF324FF0FF3300F50F
:1041D0003D7075B107F00FFF20462B46174A0221AC
:1041E00008F036FAA068BDE8F04100F53D7007F030
:1041F0005EBF07F000FF606803685B6903B1984722
:1042000042462046022107F0CDFE3A4620460021D4
:1042100007F0C8FE20463246012107F0C3FEA06821
:1042200000F53D7007F043FFC1E7BDE8F08100BF36
:104230000FC00000A5390000B3C000000EF7000059
:1042400010B50D4A0446002107F094FF20460B4AA2
:10425000002107F08FFF2046094A002107F08AFF5E
:104260002046084A002107F085FF2046064A002123
:1042700000F0D4FC002010BD25F7000063F700001B
:10428000C2F7000016F80000B0F800002DE9F04772
:1042900016461F462B4ADFF8B080DFF8B090DFF8F3
:1042A000B0A00B460021044607F064FF0025AF4292
:1042B00034D9735D4A460021204607F05BFF013583
:1042C000102D23D1234ADFF88880DFF88C90DFF8A7
:1042D0008CA00021204607F04DFF0025BD422BD2C7
:1042E000735D13F8092012F0970F08BF2E23524672
:1042F0000021204607F03EFF0135102D14D1204645
:10430000174ABDE8F047002107F034BF15F0070158
:10431000CDD15246204607F02DFFC8E74246002186
:10432000204607F027FFCAE715F00701D6D142461D
:10433000204607F01FFFD1E742460021204607F044
:1043400019FFD9E7C6F80000A7ED0000A1ED0000B5
:10435000A9ED0000ABED0000D80A0100FAF800005A
:10436000CDF8000010B5044613460A46014606483B
:10437000FCF74EFF23691B7923B12046BDE81040AE
:1043800007F020BF10BD00BFDDC100002DE9F74FD1
:104390001F46DFF88481002305460E46144603605D
:1043A0009A4699462378002B00F0B18013F8083024
:1043B00013F0080302D004F8019BF3E729684A1CB4
:1043C000BA422A6046F8214000F0A1809A4694F84B
:1043D00000B0BBF1000FE5D0BAF1000F40F08380D0
:1043E000BBF1270F06D0BBF15C0F00F08480BBF15E
:1043F000220F71D1204607F00DFF611C02462046B6
:1044000009F03CFBDA46E2E7204607F003FF611CB7
:104410000246204609F032FB4FF0000AD7E7302968
:1044200026D14FF0000B0223E15CA1F130005FFACE
:1044300080FCBCF1070FDAB218D8013340EACB0B8D
:10444000052B5FFA8BFBEFD11A46511E2144204603
:104450000192009107F0DEFE019A0230821A204696
:10446000009909F00BFB04F801BBB0E7022AECD17C
:10447000782936D14FF0000B0223E25CA2F1300123
:104480005FFA81FCBCF1090FD8B213D841EA0B12D4
:10449000032B5FFA82FB0BD10423591E21442046D3
:1044A0000193009107F0B6FE019B821CD21AD6E759
:1044B0000323E2E7A2F16101052903D8573A42EA52
:1044C0000B12E5E7A2F14101052901D8373AF6E7D9
:1044D000022806D00323E0E718F80B301B073FF54E
:1044E00061AF013473E7D3458ED0BBF15C0FF8D1D7
:1044F00061788A4593D1204607F08CFE04F1010BC8
:1045000002465946204609F0B9FA5C465FE7504634
:1045100003B0BDE8F08F00BFD80A010010B50B460C
:10452000144650B90E490F4A521AB3EBD20F0FD2AC
:1045300001EBC3014C68204610BD816841B14A6857
:10454000097839B11846214690472368002BF2D1EB
:104550000024F0E714204343D418D358F6E700BFF3
:1045600070E20000D0E200002DE9F843064607F0B3
:1045700051FE054656BBBDE8F8834CB16A1C9BB2A0
:104580000130D21A304409F079FA2D1BADB24C46F5
:104590000137BBB26A1E93421846ECDA325C12F85D
:1045A00008201207F4D501339BB29AB29542EFD995
:1045B000F25C18F8022012F0080906EB030103F17F
:1045C000010CDAD00134A4B26346EEE70027DFF82D
:1045D00008803C46DDE700BFD80A0100F8B58468D2
:1045E00094F84230054653B9AB689A8FDA87F8BD24
:1045F000013A92B2A2872AB984F84220F4E7114E18
:1046000004F14200A28F831813F8013C9B5D13F064
:104610000803EDD183549FB210FA83F110F807C05C
:1046200016F80CC01CF0080F03F10103F3D1002FA2
:10463000DAD0A68F731CDA1BF61B09F01FFAA687C7
:10464000D2E700BFD80A0100014907F0CDBE00BF84
:10465000D4F20000014A024907F0C6BE04F9000086
:10466000EFF3000059B1002981EAE172A2EBE17297
:1046700040690349CCBF4123422307F0B5BE7047D0
:10468000F6F8000059B1002981EAE172A2EBE1726B
:1046900040690349CCBF4323442307F0A5BE7047BC
:1046A000F6F800002DE9F8430C1E06462FDA6442A6
:1046B00024B24FF0FF35DFF85C80A4B2AFB21EE049
:1046C000B368DA8FB3F83CE003F1420C00201346E4
:1046D000991A09B213B9B5F1FF3F0BD09E4501D12C
:1046E000012D07D01CF8039019F8089019F0070F56
:1046F00009D148B1304607F0DFFE013CA4B2002CDE
:10470000DED1BDE8F88301203B449BB2E0E7012500
:10471000D1E700BFD80A01008268024940694232ED
:1047200007F062BEEFF3000007B5836893F82E2010
:104730008A421FD083F82E10F9B11B238DF8003068
:104740005B238DF8013031238DF802303B238DF847
:10475000033033232F318DF804306D238DF805108D
:104760008DF806300949406900236A468DF8073004
:1047700007F03AFE03B05DF804FB054A03494069BF
:1047800003B05DF804EB07F02FBE00BFEFF30000AD
:10479000FDF8000037B50D4609780446FFF7C4FF61
:1047A0006B78F3B1A26892F82F10994219D01B21AF
:1047B0008DF800105B218DF8011034218DF8021066
:1047C00003F12F018DF803106D2182F82F308DF841
:1047D000041000218DF80510606903496A4607F04E
:1047E00003FE03B030BD00BFEFF30000F8B58368EF
:1047F0009A8F0546002A46D0D88F002843D04130F2
:10480000184403F142060346C41AB342A4B219463F
:104810000DD311F80179202F33D01946013B0878C8
:10482000202804D001349E42A4B21946F5D9631C55
:104830004E1C121B1944304609F020F9A9688A8FD2
:10484000121B92B28A870A440027614282F84270A2
:10485000284609B207F030FE68690B4A0B4907F099
:10486000C3FD3946094A3346284607F0F1FE686918
:10487000FFF7F0FE6869064A0449BDE8F84007F012
:10488000B3BD0B46C0E7F8BD08F90000EFF3000028
:1048900001F900002DE9F04104460D46174612B11A
:1048A0004069FFF7D7FEA368D3F86022D88FC2F320
:1048B000C0014230120703441FD51846FCF7A5F982
:1048C000DFF84080064696B9A3689A8FDA872046BB
:1048D00007F097FD20B107B115B16069FFF7B4FE8D
:1048E0006942204609B2BDE8F04107F0E5BD6069C4
:1048F000414607F079FD013EE5E7034A204607F00F
:10490000A7FEE1E7E9010100EFF3000013B58368BA
:104910008DF80710D3F860220446D00721D5D98F2F
:104920009A8F8A421DD0481C19449DF80720D887C9
:1049300081F84220D3F86012490710D5D3F86032CD
:1049400060690B4913F0080F18BF2A2207F04CFDCD
:10495000204607F06AFD10B16069FFF775FE02B0EE
:1049600010BD01220DF10701204607F07EFEF6E79B
:10497000FAF8000083680A4A1B6810B50446032150
:1049800007F066FEA368D3F860325B0707D52046C0
:10499000FFF7C2FE2046BDE8104007F06ABD10BD1B
:1049A000EFF3000038B5154642680C461168906870
:1049B0008B60C1E9004507F0DDFED06807F0DAFE44
:1049C00013680021D960A36823B19B6C13B105491A
:1049D00020469847A3689B6A0BB120469847002061
:1049E00038BD00BF194A000007B5094808F058FC57
:1049F00058B1042300930123054906481A46FFF7DE
:104A00000BFB002003B05DF804FB6FF01200F9E728
:104A1000E8DF000040E200002DE9F74F83460D4635
:104A200083685B6C03B19847DBF808305B6B8BBB2A
:104A3000DFF8E8903A4EDFF8ECA0A9EB0606B608DE
:104A4000B6014FF0000846F00206E86801A90269C5
:104A500006F08DFD0746002842D0DBF808309C693F
:104A600024B1024601995846A0470446002CE86844
:104A7000214618BF4FF0010806F095FD0CB1A74282
:104A8000E3D0B8F1000F09D02B680020D3E9012151
:104A9000904703E0584698470028C9D1DBF8083012
:104AA0005B6AD3B158469847B8B1A86801A90269B2
:104AB00006F0B2FD044650B3DBF808305B6923B35F
:104AC00001990246584698470146A86806F0CEFD6F
:104AD0002B680120D3E90121904703B0BDE8F08F96
:104AE000D9F8003013F0060F03D03146504606F0D7
:104AF00050FFDBF808309C69002CBFD001220DF17B
:104B000003015846A0470446B8E71946DDE7584672
:104B100007F00AFE2B68DC60DAE700BF1003002014
:104B2000E80200200BF90000014907F05FBE00BF5A
:104B3000D4F200002DE9F047044690460E460029C5
:104B400067D0DFF8D4900025735D13F809301A0799
:104B50001ED43046FCF759F8A3685A8D80B2401B2A
:104B6000A2EB0803984206EB050A13D95146002729
:104B700011F8010B19F800C01CF0080F02D00A2828
:104B80002FD03B4608EB0700824229D90137EFE7D7
:104B90000135D9E753460027B84216D013F8012B48
:104BA0000A2A05EB070919D1606907F00BFB51468A
:104BB0003A46204607F0E6FC6069FFF7B5FF41463C
:104BC000204609F10105FFF75DFD6069711907F0E5
:104BD0000DFE6069BDE8F047FFF7A6BF0137DBE7D0
:104BE0001F46606907F0EEFA3A465146204607F044
:104BF000C9FC3D44735D19F803301B0707D4606995
:104C0000FFF792FF41462046FFF73CFDA1E7013543
:104C1000F0E7BDE8F08700BFD80A01002DE9F04FAA
:104C20000F4600218DB0044616460D4607AA3846A9
:104C300001F10108FFF772FC0146A0B985B11EB170
:104C40003246204607F004FDDFF8B480DFF8B4B048
:104C500000214B1C07AA38460393FFF75FFC60B99D
:104C60000DB0BDE8F08F086810B1FBF7CEFF80B241
:104C7000854238BF05464146D8E7D0E900A94046FD
:104C8000FBF7C3FF0490BAF1000F22D09AF800207E
:104C9000FAB15046FBF7B9FF20222E1A8DF81B20DF
:104CA0004346194ACDF800A00021204607F0D0FC69
:104CB000B6B200239AB2B2420DD343465A460021FF
:104CC000204607F0C5FCB9F1000F0ED16069FFF76F
:104CD0002BFF0399BDE701220DF11B01204605932F
:104CE00007F050FC059B0133E4E7049B6A1C02EBD0
:104CF000430292B249462046FFF71CFFE9E700BF96
:104D00005FF900004DF9000009F70000F7B506460D
:104D100008680D46B8B1FBF778FF84B20B4F3846F0
:104D2000FBF773FF2B680A4A0097044400213046C2
:104D300007F08EFCA4B269682246304603B0BDE895
:104D4000F040FFF7F7BE0446E8E700BF5BF900005C
:104D500009F7000010B507490446FBF74CFF38B1CE
:104D600005492046FBF747FFB0FA80F0400910BD27
:104D70000120FCE751F9000054F9000038B5074D57
:104D8000074A04462946406907F041FD6069054A23
:104D9000294607F03CFD002038BD00BFEFF30000BE
:104DA000B7FD0000B2FD000010B50446044A0549F5
:104DB000406907F02CFDA368034A9A62002010BDE9
:104DC000A6FD0000EFF300001800500008B583694D
:104DD000034A1B68002107F0CDF9002008BD00BF81
:104DE00062F90000F0B5104F85B004460025A268B6
:104DF000E0680DF10E0302F5A172012107F08FFDAD
:104E0000BDF80E00A36858B103F5A17300936E1CA2
:104E10002B463A460021204607F0ACF93546E6E736
:104E200083F8420105B0F0BD71F90000022907B511
:104E30000CD1536801930D4B009313680C4A07F093
:104E400099F96FF0150003B05DF804FB8368094A17
:104E5000D3F8603213F0040F4FF00001064B18BF77
:104E60001346064A07F086F90020ECE788F90000AF
:104E70007FF90000ACF300007BF900009DF9000011
:104E8000F0B5012985B005460DD053680193554B07
:104E900000931368544A022107F06CF96FF015046F
:104EA000204605B0F0BD514A5149406907F0AFFCBA
:104EB0006FF0F9012846FFF7D5FBFA212846FFF7E6
:104EC000E1FBA86800244FF48072214600F5A17030
:104ED0008DF80B4008F0ECFD4649686907F097FC37
:104EE000686907F06FF94FF47A7668680368012201
:104EF0001F690DF10B0103ABB847039B53B9013E8A
:104F00004FF47A70B6B208F005FC002EEDD16FF0C8
:104F1000850434E09DF80B30A9681B2B56D091F81E
:104F200042211B2AE1D1522B50D10C44002384F89A
:104F3000423191F843215B2A50D101F5A2741F46FA
:104F4000022614F8010B32463B2806F10106B6B2E0
:104F500027D1B6F5807FDAD002F2431211FA82F23D
:104F6000002312F8014B34BBFA2B28BFFA23FA2F87
:104F70004B853B4628BFFA2381F842410B851E4AE8
:104F80001B49686907F043FC002C89D0AB681B4AB9
:104F90009A6204211A4A284607F0ECF86FF00704D9
:104FA0007EE707EB870300EB4303303BB6F5807FDA
:104FB0009FB2C6D1ABE703EB8303013604EB430496
:104FC000B6B2303CFF2EA3B2CBD9A0E70A19013408
:104FD000A4B2092C82F8423187D9002381F84231EA
:104FE00095E700BF88F900007FF90000AFFD0000E1
:104FF000EFF30000BBFD0000ACFD00001800500006
:10500000AEF900002DE9F04F074689B015468946F4
:1050100021B90324204609B0BDE8F08F104607F0FF
:105020006DFE0028F5D04FF000084146022424E030
:105030005C463CE029460AF5A17008F08BFD064667
:1050400000284ED0FBF7E1FD82B2601C01323146F0
:10505000304408F013FD22465946304608F000FD62
:105060004FF020033355BAF8400004440134AAF845
:10507000404008F10108002401994B1C03AA48464E
:105080000193FFF74BFA0646F8B131680022284633
:1050900006F058FC0028EFD1D6F800B0D7F808A0E9
:1050A000BBF1000FC4D05846FBF7AFFD84B2BAF88D
:1050B000402001322244B2F5807FBBDD0A4A2B46F4
:1050C0000421384607F0C4FA0124B8F1000FA1D03A
:1050D000B8682A4600F1400100F5A17007F0D0F849
:1050E00098E70224F1E700BFC0FD0000F8B50546CF
:1050F0004FF02003EFF3118683F31288BFF36F8F15
:10510000094B1C685CB1094FD4E90132002D08BF7E
:1051100013460BB1387898472468002CF4D186F3F5
:105120001188BFF36F8FF8BDFC0B0020040C00202A
:105130001FB50F4B1A68BAB901221A600D4A07CA87
:1051400001AB83E807000C4A4AB193E8070007F077
:1051500058FE002005B05DF804EBFFF7C7BF82F3EF
:105160001188BFF36F8FF4E705B05DF804FB00BF53
:10517000D4000020040C002003CE0000F0B589B05C
:105180006E4601460546304607F000FE96E80700E9
:10519000174C84E807002078274638B3154B0021C8
:1051A00019606B1C0DD0144816464FF4004C134A7E
:1051B0000023E6FB0C01FBF7B1FB0121281A08F0E4
:1051C00089FA03F0D7FD0120FFF790FF97E8070069
:1051D00005AB83E807000A4A1AB193E8070007F015
:1051E000FDFDFFF7A5FF03F093FF207809B0F0BDA8
:1051F000040C0020D40000203F420F0040420F006A
:10520000DDCD0000014910220A60704710ED00E07A
:1052100072B6404080F31188BFF36F8FBFF34F8F9A
:1052200030BF62B6BFF36F8F704700BF72B64940A0
:1052300081F3118820BF80F3118862B6704700BFE8
:10524000F7B507460C4661B3194E3368580728D0A6
:10525000184D1948751BAD08AD0145F00105ADF8B5
:105260000050D1E90123096806F0CDFB33685907E6
:1052700017D0ADF80050D4E90423E1680F4806F0D8
:10528000C2FB33685A070CD0E1690D482A4606F084
:105290008DFB33685B0704D0A1690A482A4606F0F3
:1052A00085FB2146384603B0BDE8F04002F016BF4A
:1052B00004030020E802002012FE000041FE00006E
:1052C00070FE00007FFE000043B2002B08DB0122CD
:1052D00000F01F0002FA00F05B09024A42F82300C6
:1052E000704700BF00E100E0054B420900F01F00DD
:1052F00053F82220012303FA00F01040704700BF4A
:1053000000E100E043B2002BA8BF03F1604301F1CC
:105310000101B8BF064B4FEA4111ACBF03F5614331
:1053200000F00F00C9B2B4BF195483F800137047DE
:1053300014ED00E030BFFFF7FDBF00BF0F4A08B516
:105340000F4B22F07F029A60BFF34F8FBFF36F8F36
:10535000D3F8882022F47002C3F88820EFF3148376
:1053600023F0040383F31488BFF36F8F02F07AFFF6
:1053700004F016F800F0A8FB02F07EFF0000000029
:1053800000ED00E00A4A0B4993680968C3F8B010C1
:105390000949C3F8AC004B6843F080534B600023CD
:1053A00083F31188BFF36F8F9368D3F8B000704711
:1053B000DC0D002078EB000000ED00E010498A6869
:1053C0004FF030001044EFF3098C80E8F01F2020EC
:1053D00080F31288BFF36F8F0A4F4FF00066CA69DF
:1053E0008A603E60D2F8AC000023C2F8AC3080F393
:1053F000118802F1300090E8F01F8CF309887047A3
:10540000DC0D002004ED00E01EF0040F0CBFEFF3F4
:105410000880EFF30980816911F8021C0229FFD08E
:1054200001B507F0B8FC01BD42F8203C009B42F8F2
:105430001C3C0A49019B42F8183C029B42F8143C70
:1054400021F001014FF0807342F8043C42F8081C3F
:105450000023203A0265C0F8AC30704713B3000057
:10546000074B9860104681F30988002163B681F3E9
:105470001188BFF36F8F0022002305F04AFF00BFA1
:10548000DC0D002001B572B60B4A906900281EBFE2
:105490000021916107F087FF62B6EFF30580A0F16C
:1054A00010004FEAC0000549014409C99847BDE80A
:1054B0000140034908470000DC0D002090E0000097
:1054C000C5540000044B9968D869884203D0034949
:1054D0004FF080520A607047DC0D002004ED00E0C0
:1054E00010B53B4C23685B0708D03A493A48611A2B
:1054F0008908890141F0010106F04BFA374B9B6A9C
:1055000098010BD52368590708D032493448611AED
:105510008908890141F0010106F03BFA2F4B9B6A93
:10552000DA010BD523685B0708D02A492D48611A98
:105530008908890141F0010106F02BFA274B9B6A8B
:1055400018030BD52368590708D022492648611A49
:105550008908890141F0010106F01BFA1F4B9B6A83
:105560005A030BD523685B0708D01A491F48611AF4
:105570008908890141F0010106F00BFA174B9B6A7B
:1055800098030BD52368590708D012491848611AA7
:105590008908890141F0010106F0FBF90F4B9B6A74
:1055A000DA030BD523685B0708D00A491148611A52
:1055B0008908890141F0010106F0EBF9074A936A75
:1055C0006FEA03436FEA13439362002010BD00BFEC
:1055D00004030020E8020020ADFE000000ED00E022
:1055E000C5FE0000D8FE0000F2FE000010FF000023
:1055F00035FF00004FFF000070B5464C23680D4694
:105600005907064608D044494448611A8908890167
:1056100041F0010106F0BDF9414B9B6ADA040BD55C
:1056200023685B0708D03C493E48611A8908890114
:1056300041F0010106F0ADF9394B9B6A18050BD515
:105640002368590708D034493748611A8908890105
:1056500041F0010106F09DF9314B9B6A9A0522D574
:1056600023685B0708D02C493048611A89088901F2
:1056700041F0010106F08DF9294B996B9B6A1804E2
:1056800011D523685A0708D0234A2948A21A92083C
:10569000920142F0010206F089F926B1204A936A8C
:1056A00023F4004393621E4B9B6A5B050BD5236872
:1056B0005E0708D018491F48611A8908890141F01E
:1056C000010106F066F9164B9A6AD00513D52368D6
:1056D000590708D010491848641AA408A40144F0D6
:1056E000010106F056F90E4A936A002043F47F4305
:1056F0009362287070BD9B6A9A04F4D523685B0797
:10570000F1D005490D48641AA408A40144F0010130
:10571000E7E700BF04030020E80200207AFF000052
:1057200000ED00E090FF0000A1FF0000B4FF0000CA
:10573000CDFF0000E2FF0000FDFF000015000100AA
:1057400070B5414C23680D465907064608D03F49BD
:105750003F48611A8908890141F0010106F019F9F1
:105760003C4B9B6ADA060BD523685B0708D03749A8
:105770003948611A8908890141F0010106F009F9E7
:10578000344B9B6A18070BD52368590708D02F495B
:105790003248611A8908890141F0010106F0F9F8DF
:1057A0002C4B9B6A9A0722D523685B0708D02749B0
:1057B0002B48611A8908890141F0010106F0E9F8D6
:1057C000244B596B9B6A180611D523685A0708D0D9
:1057D0001E4A2448A21A9208920142F0010206F0E1
:1057E000E5F826B11B4A936A23F080039362194BB4
:1057F0009B6ADB070BD523685E0708D0134B1A485A
:10580000E31A9B089B0143F0010106F0C2F8114B1B
:105810009B6A98060BD52368590708D00B49134893
:10582000641AA408A40144F0010106F0B2F8094B7F
:105830009A6AD20658BF9A6A9A6A002042F0FF021A
:105840009A62287070BD00BF04030020E8020020A7
:105850004400010000ED00E05A000100A1FF00003B
:105860008D000100A5000100BB0001001500010032
:105870002DE9F0417E4B5E688AB00D46C6F3080400
:10588000002787F31188BFF36F8F02F07F43B3F1D6
:105890007F4F11D102F00C03082B0FD175490B6813
:1058A00013F007031CD0744B7448C91A8908890186
:1058B00041F0010106F06DF83D4603E0130701D405
:1058C0000546012700238DF80730E31E092B00F25F
:1058D000B280DFE803F0079B9F98B0B0B0B0B0A3F0
:1058E0001F46E9E7634E33685C0708D062496448A5
:1058F000711A8908890141F0010106F04AF85C4BF0
:10590000DC6A4FF0000814F002048DF807800ED016
:105910003368580701D1002418E057495948711AD3
:105920008908890141F0010106F033F8F3E7DA6AEA
:10593000002A2BDA33685907EDD04F495248711AC3
:105940008908890141F0010106F023F89DF807302C
:10595000CBB902AA05F1200628686968134603C37B
:105960000835B5421A46F7D1099B002F7BD0C3F307
:10597000080222B96FEA53236FEA4323099302A96D
:105980002046FFF75DFC0AB0BDE8F081DB6A5A00F3
:10599000C1D533685B0708D037493C48711A89087C
:1059A000890141F0010105F0F4FFAB6933F8022CE5
:1059B0004DF602739A420AD02D4B93F82820AAB1D3
:1059C0000DF107010120FFF7BBFE0446BEE7336877
:1059D0005C0709D0284A29682D48B21A920892011A
:1059E00042F0010205F0E2FF2C68AFE793F82920AE
:1059F0002AB10DF107010120FFF7FEFDE5E75B8D00
:105A00009BB2002B87D0FFF76BFDDEE70DF107019E
:105A10000020D8E70DF107010020EDE715490B68DC
:105A200058073FF478AF144B1A48C91A89088901FE
:105A300041F0010178E70F4B1A6852073FF46BAF52
:105A40000D4A154815499B1A9B0816F4F87F4FEA32
:105A5000831318BF014643F001031148A4F110025B
:105A600005F0B8FF57E723F4FF7323F0010385E740
:105A700000ED00E004030020E8020020DA0001004D
:105A8000050101001C0101003D0101004B01010065
:105A90006A01010086010100BF010100AA010100A5
:105AA000D8010100024A536943F010035361704763
:105AB00000ED00E0EFF30880EFF3098101B57246D5
:105AC000FFF7D6FE01BD00BF044800232021C21805
:105AD0000133272B82F80013F9D1704700E100E071
